:1000000000800020BD0100008D78000045780000D0
:1000100045780000457800004578000045780000EC
:100020004578000045780000457800008D78000094
:100030008D78000045780000999100009D920000A5
:100040008D7800008D7800008D7800008D7800009C
:100050008D7800008D7800008D7800008D7800008C
:100060008D7800008D7800008D7800008D7800007C
:100070008D7800008D7800008D7800008D7800006C
:100080008D7800008D7800008D7800008D7800005C
:100090008D7800008D7800008D7800008D7800004C
:1000A0008D7800008D7800008D7800008D7800003C
:1000B0008D780000616C00006D6C0000716C0000B8
:1000C0007D6C0000816C0000856C00008D78000064
:1000D0008D7800008D7800008D7800008D7800000C
:1000E0008D7800008D7800008D7800008D780000FC
:1000F0008D7800005D9800008D780000017F000081
:100100008D780000198200008D7800008D78000045
:100110008D7800008D7800008D7800008D780000CB
:100120008D7800008D7800008D7800008D780000BB
:100130008D7800008D7800008D7800008D780000AB
:100140008D7800008D7800008D7800008D7800009B
:100150008D7800008D7800008D7800008D7800008B
:100160008D780000658400008D7800008D78000097
:100170008D7800008D7800008D7800008D7800006B
:100180008D7800008D7800008D7800008D7800005B
:100190008D7800008D7800008D7800008D7800004B
:1001A0008D7800008D7800008D7800008D7800003B
:1001B0008D7800008D7800008D780000564B4CF251
:1001C000205210B51A804DF628121A8000BF00BFC9
:1001D00007F060FB514B4FF010621A60504A9A6072
:1001E000504ADA60504A136813F4807304D14F49BF
:1001F0000B604FF4A85313604D4B1A78110703D5C9
:100200001A7842F008021A704A4B4B492A221A7097
:100210004A4A4B4B8B4204D252F8040F43F8040B6A
:10022000F8E7484B484900228B4202D243F8042B9E
:10023000FAE74649464A002352F8230041F82300D2
:1002400001336F2BF8D1434B434A802103F8011B44
:100250009342FBD1414B3D4A1A60414B8A221A70AE
:10026000A3F5805324225A70A0221A709A7992071B
:10027000FCD59A79D406FCD43A4A937903F00C035E
:10028000082B384BF9D103221A7140225A719A79FE
:100290009006FCD5334A9179324B4906FBD5324A58
:1002A000324911600221516020221A709A7902F0BD
:1002B0000C020C2AFAD12E4B2E4A1A602E4B2F4AD2
:1002C0001A6000225A60072243F8042C2C4AC3F813
:1002D0000C2D62B607F094FD144B1B68DA0705D5A8
:1002E000284807F071FB284B284A1A60284B1B78D6
:1002F0005B0609D5244C254B22689A4204D121483B
:1003000007F062FB002323600BF0ACFD07F0C8FA96
:1003100009F064F9FEE700BF0E200540308004407C
:10032000823F04000100002B10D0034014D0034092
:1003300002D0074000E007402092FF1FEC180100A8
:100340002087FF1F2092FF1FECC5FF1F0082FF1FA9
:100350000000000000E400E05FE400E008ED00E0E1
:100360000050064000400640448004400000030165
:1003700004800440C010050014E000E0FF76010096
:1003800000002020ED7B375C1CE00340A5C3945A9D
:1003900000F00740FFFFFFFFFFFFFFFFFFFFFFFF32
:1003A000FFFFFFFFFFFFFFFFFFFFFFFFFFFFFFFF5D
:1003B000FFFFFFFFFFFFFFFFFFFFFFFFFFFFFFFF4D
:1003C000FFFFFFFFFFFFFFFFFFFFFFFFFFFFFFFF3D
:1003D000FFFFFFFFFFFFFFFFFFFFFFFFFFFFFFFF2D
:1003E000FFFFFFFFFFFFFFFFFFFFFFFFFFFFFFFF1D
:1003F000FFFFFFFFFFFFFFFFFFFFFFFFFFFFFFFF0D
:10040000FFFFFFFFFFFFFFFFFFFFFFFFDEF9FFFF23
:1004100010B5054C237833B9044B13B10448AFF33E
:1004200000800123237010BD2092FF1F00000000F8
:10043000E8180100084B10B51BB108490848AFF394
:1004400000800848036803B910BD074B002BFBD0A0
:10045000BDE81040184700BF000000002492FF1FB5
:10046000E81801002092FF1F00000000F0B400F126
:100470001C06134F00243146031F00F13C0243F8D1
:10048000044FB34241F8047F4FF0000542F8044F97
:10049000F5D10C4A0C490566002345668566C5669C
:1004A000056745678567C0F88850C267C0F8842033
:1004B000C0F8801080F8903080F8A830F0BC704709
:1004C0000000A040000048430000C8C22DE9F041F0
:1004D00090F8A84084B0202364008DF80530E4B281
:1004E000042380468DF804408DF80630032720460B
:1004F00007F02EFE02210DF1050007F033FE8DF806
:10050000044005F033FD30B30921404808F0DEFC1B
:100510000023102221463E4808F0DAFE01213D4822
:1005200008F0D4FC002310229DF80510384808F08C
:10053000CFFE0121374808F0C9FC002310229DF8A6
:100540000610334808F0C4FE0121324808F0BEFC12
:100550002F4808F0ADFE02208DF8044007F002FCA1
:1005600005F004FD00284CD102AE002407F010FE77
:1005700070B3072C1FD101E007F01AFE07F008FE48
:100580000028F9D105F0F2FC10B1214808F090FEE6
:100590009DF80B009DF80C109DF80D209DF80E3075
:1005A000C8F89400C8F89810C8F89C20C8F8A03083
:1005B00004B0BDE8F08107F0FBFD054606F8010B2D
:1005C00005F0D4FC70B9013407F0E2FD0028D0D169
:1005D000072CD3D005F0CAFC78B9013FD8D09DF8DC
:1005E000044084E7E9B200231022094808F070FEB5
:1005F0000121084808F06AFCE5E7054808F058FEC4
:10060000EBE70721044808F061FCADE718000100A2
:10061000C487FF1FFC0601002400010090F8980029
:10062000704700BF90F89400704700BF90F89C009E
:10063000704700BF90F8A000704700BF082994BF22
:1006400050F82100002070472DE9F0410B4E804604
:10065000041F00F11C0754F8045F314628460BF0D4
:1006600077FB30B1D8F88C1028460BF08FFB00B127
:100670002E46BC42EFD13046BDE8F081000020415B
:100680002DE9F041D0F88C704FF00008041F00F104
:100690001C0654F8045F394628460BF077FB0849DE
:1006A00048B128460BF054FB414620B128460BF0D8
:1006B0006DFB00B1A846B442EBD14046BDE8F081E5
:1006C000000070422DE9F047D0F88C7082464FF060
:1006D0000009041F00F11C064FF0000854F8045FE5
:1006E000394628460BF052FB0C4950B128460BF016
:1006F0002FFB30B1484629460BF084F808F1010879
:100700008146B442EAD1CAF8AC8040460BF02EF9DB
:10071000014648460BF032FABDE8F087000070420F
:10072000D0F8AC00704700BF38B5846E456E2146E6
:1007300028460BF00DFB00B92C46204638BD00BF03
:10074000D0F8A4302DE9F041002B79D1866E456EAA
:100750000446314628460BF055F8E76E3946804688
:100760000BF050F87E490BF009FA4FF07C5104462B
:100770000BF00CFB002861D04FF07C5128460BF0A9
:1007800005FB4FF07C51002860D128460BF0E0FAC1
:1007900038B14FF07C5130460BF0F8FA002840F0A9
:1007A000A7804FF07C5128460BF0F0FA002860D16A
:1007B0004FF07C5128460BF0E9FA002840F0A18068
:1007C0004FF07C5128460BF0E1FA00286CD14FF035
:1007D0007C5128460BF0BCFA4FF07C5110B33046E8
:1007E0000BF0D4FA38B14FF07C5138460BF0B0FA28
:1007F000002840F0B0804FF07C5130460BF0A8FA52
:10080000002861D04FF07C5138460BF0BFFA002829
:1008100040F0A38038464FF07C510BF099FA68B154
:10082000504C10E028460BF093FA0028E3D12846FC
:100830004FF07C510BF08CFA002845D1BDE8F081D7
:1008400000EB8300046E2046BDE8F08130460BF0DB
:100850009DFA4FF07C5100283ED038460BF096FAB6
:100860000028F0D14FF07C5128460BF071FA002897
:1008700059D14FF07C5130460BF06AFA002840D035
:100880004FF07C5138460BF081FA002841D14FF0EF
:100890007C5130460BF07AFA68B14FF07C51384603
:1008A0000BF056FA00284FD14FF07C5130460BF038
:1008B0004FFA00288BD04FF07C5138460BF048FAA5
:1008C000002884D02C46BEE730464FF07C510BF018
:1008D0003FFA0028B2D09DE728460BF039FA0028ED
:1008E000C7D04FF07C5130460BF050FA0028C0D0F2
:1008F0004FF07C5138460BF049FA00283FF451AFD5
:1009000018E04FF07C5130460BF040FA0028CBD075
:10091000C3E7394628460AF075FF4FF07C510BF0CB
:1009200079F804468FE74FF07C5138460BF02EFAE9
:1009300000289ED0394630460AF064FF4FF07C51C3
:100940000BF068F804467EE740464FF07C510BF010
:1009500061F8044677E7344675E73C4673E700BF25
:10096000000040400000A0C270B50446FFF7E8FE5A
:100970004FF07C510BF00AFA28B3666E4FF07C51B1
:1009800030460BF003FAA56EF0B9E46E4FF07C51DF
:1009900028460BF0FBF958B1294630460BF0F6F922
:1009A00030B1214628460BF0D3F908B12C4620E09F
:1009B0004FF07C5120460BF0E9F920B12846214642
:1009C0000BF0E4F978B970BD304629460BF0C0F958
:1009D000E46E0028DAD0304621460BF0B9F9002841
:1009E000D4D0344605E0304621460BF0CFF900283C
:1009F000E9D0204670BD00BF01392DE9F84380469B
:100A00001546032900F2E280DFE801F0AE855C02C2
:100A1000537B107B03EB00200AF0A8FF6D490AF01E
:100A2000F9FFC8F81800EB7BA87B03EB00200AF065
:100A30009DFF68490AF0EEFFD8F86860D8F8647046
:100A4000D8F80040C8F81C004046FFF78DFFD8F8E2
:100A50007C1005460BF07CF908B1C8F87C5039468B
:100A600030460BF093F9002840F0A7803946D8F8BB
:100A700080000BF06DF910B13E46C8F8806008F1B7
:100A80002006C14608F14005002701E059F8044F4F
:100A9000306821460BF07AF90137214628B1D8F8A1
:100AA0008C000BF05FF900B13460214628680BF030
:100AB0004FF9043600B12C60082F05F10405E5D18B
:100AC000BDE8F883507A32380AF050FFC8F8740055
:100AD000A87A32380AF04AFFC8F878006B7B287B86
:100AE00003EB00200AF042FF3A490AF093FFC8F8EE
:100AF0001000EB7BA87B03EB00200AF037FF3549A1
:100B00000AF088FFD8F86860C8F81400D8F8647054
:100B1000D8F8004098E7507A32380AF027FFC8F832
:100B20006C00A87A32380AF021FFC8F870006B7B9D
:100B3000287B03EB00200AF019FF26490AF06AFF20
:100B4000C8F80800EB7BA87B03EB00200AF00EFF3F
:100B500020490AF05FFFD8F86860C8F80C00D8F8A0
:100B60006470D8F800406FE7137AC0F8B030907A1C
:100B700032380AF0FBFEC8F864000746E87A3238DB
:100B80000AF0F4FEC8F868006B7B0646287B03EB8E
:100B900000200AF0EBFE0F490AF03CFFC8F8000005
:100BA000EB7B0446A87B03EB00200AF0DFFE09493B
:100BB0000AF030FFC8F8040046E7D8F88010304645
:100BC0000BF0E4F800287FF458AF58E7866E476EC4
:100BD000046839E70AD7233C2DE9F04F90F8A83094
:100BE00091B007465B008DF80830FFF76FFCD7F82F
:100BF0009C00D7F8A040D7F89830D7F8942097F801
:100C0000A8108DE81100C94805F0AAFA30223D234A
:100C100003268DF809208DF80A300DF10A059DF89C
:100C2000089049F00108404607F092FA0DF10900DA
:100C3000022107F097FA8DF80880424602AB0020A7
:100C40005040082410F0800F4FEA400018BF80F099
:100C50000700013CC0B2F5D19D4202D013F8012F2C
:100C6000EEE707F075FA05F081F9002840F07C8284
:100C700002208DF8089007F075F805F077F9002844
:100C800040F0B8820DF10C0AD146002407F080FA3A
:100C9000002843D0032C34D101E007F089FA07F093
:100CA00077FA0028F9D105F061F910B1A04808F0F1
:100CB000FFFA312303268DF809308DF80A609DF87C
:100CC000089049F00108404607F042FA0DF109008A
:100CD000022107F047FA8DF80880424602AB002057
:100CE0005040082410F0800F4FEA400018BF80F0F9
:100CF0000700013CC0B2F5D19D4228D013F8012F66
:100D0000EEE707F055FA09F8010B804605F02EF9D9
:100D100068B9013407F03CFA0028BBD1032CBED0DF
:100D200005F024F978B9013E7FF479AFC1E75FFAA5
:100D300088F1002310227E4808F0CAFA01217D487C
:100D400008F0C4F8E5E77A4808F0B2FAEBE707F0F4
:100D5000FFF905F00BF9002840F0C58102208DF85D
:100D6000089006F0FFFF05F001F9002840F03D82F1
:100D70000DF10C09002407F00BFA002844D0032CD5
:100D800035D101E007F014FA07F002FA0028F9D192
:100D900005F0ECF810B1664808F08AFA3422012315
:100DA0008DF809208DF80A3003269DF8089049F047
:100DB0000108404607F0CCF90DF10900022107F0C7
:100DC000D1F98DF80880424602AB0020504008243B
:100DD00010F0800F4FEA400018BF80F00700013C80
:100DE000C0B2F5D19D4228D013F8012FEEE707F0ED
:100DF000DFF909F8010B804605F0B8F868B901344D
:100E000007F0C6F90028BAD1032CBDD005F0AEF822
:100E100078B9013E7FF453AFC0E75FFA88F1002351
:100E20001022434808F054FA0121424808F04EF8D5
:100E3000E5E73F4808F03CFAEBE707F089F905F0F1
:100E400095F8002840F00E8102208DF8089006F0F9
:100E500089FF05F08BF8002840F0D6810DF10C09D0
:100E6000002407F095F9002800F08480032C72D14B
:100E700001E007F09DF907F08BF90028F9D105F0A2
:100E800075F810B12A4808F013FA012212238DF8E0
:100E900009208DF80A304FF003089DF808402046DD
:100EA00007F056F902210DF1090007F05BF98DF802
:100EB000084005F05BF830B309211F4808F006F838
:100EC0000023102221461A4808F002FA012119488D
:100ED00007F0FCFF002310229DF80910144808F0C9
:100EE000F7F90121134807F0F1FF002310229DF8C4
:100EF0000A100F4808F0ECF901210E4807F0E6FF50
:100F00000B4808F0D5F906208DF8084006F02AFFB6
:100F100005F02CF8002840F0728103AD002607F0A0
:100F200037F900283FD0162E2FD109E02C00010000
:100F3000C487FF1FFC0601001800010007F038F904
:100F400007F026F90028F9D105F010F81626002838
:100F50007DD1152035E007F02BF909F8010B80460B
:100F600005F004F800285BD1013407F011F90028DE
:100F70007FF47CAF032C3FF47EAF04F0F7FF002832
:100F80006CD1013E7FF411AF7FE707F011F905F84E
:100F9000010B044604F0EAFF00284DD1013607F0AA
:100FA000F7F80028BFD1162ECAD004F0DFFF0028C2
:100FB0004DD1B8F101087FF470AF701E002840F3E6
:100FC0002482002303AA1C4612F8011B08254C406A
:100FD00014F0800F4FEA440418BF84F00704013D69
:100FE000E4B2F5D101338342EEDB9DF821808948DC
:100FF0004146224605F0B4F8162EC146A34602D15A
:10100000A04500F0138197F8A8108348CDF800B0F0
:101010004B46324605F0D2F8002011B0BDE8F08F03
:101020005FFA88F1002310227C4808F051F9012171
:101030007B4807F04BFF97E7E1B200231022774887
:1010400008F046F90121764807F040FFA6E773480B
:1010500008F02EF9162EACD11520B2E76F4808F033
:1010600027F98EE709216F4807F030FF2346102249
:1010700041466A4808F02CF90121694807F026FF2B
:10108000234610229DF80910644808F021F9012137
:10109000634807F01BFF102223469DF80A105F48A3
:1010A00008F016F901215E4807F010FF21460DF106
:1010B0000B0002AA12F8014B6140C9B2082311F0DB
:1010C000800F4FEA410118BF81F00701013BC9B20F
:1010D000F5D19042EED11022504808F0F9F84F486F
:1010E00008F0E6F8B0E609214E4807F0EFFE234687
:1010F00010224146494808F0EBF80121484807F022
:10110000E5FE234610229DF80910444808F0E0F857
:101110000121434807F0DAFE102223469DF80A1009
:101120003E4808F0D5F801213D4807F0CFFE2146A2
:101130000DF10B0002AA12F8014B6140C9B208235D
:1011400011F0800F4FEA410118BF81F00701013B08
:10115000C9B2F5D19042EED11022304808F0B8F86B
:101160002E4808F0A5F8F9E509212E4807F0AEFE53
:10117000234610224146294808F0AAF801212848B0
:1011800007F0A4FE234610229DF80910234808F01A
:101190009FF80121224807F099FE102223469DF86E
:1011A0000A101E4808F094F801211D4807F08EFE31
:1011B00021460DF10B0002AA12F8014B6140C9B2A1
:1011C000082311F0800F4FEA410118BF81F0070199
:1011D000013BC9B2F5D19042EED110220F4808F080
:1011E00077F80E4808F064F842E507210E4807F04A
:1011F0006DFEBDE507210C4807F068FE42E50721BA
:10120000094807F063FE88E60721074807F05EFEFD
:1012100024E600BF60000100AC000100C487FF1F8E
:10122000FC06010018000100240001009DF80C30AC
:1012300097F8A820B3EB420F7FF4EEAE9DF80D3087
:10124000012B7FF4E9AE9DF80E30122B7FF4E4AE53
:101250009DF810309DF80F0003EB00200AF086FB8C
:1012600072490AF0D7FBD7F88810386604460AF0AE
:101270008DFD08B1C7F88840D7F8841020460AF0E1
:1012800067FD08B1C7F88440A7F1040907F12006FB
:1012900007F140054FF008089AF806309AF8050063
:1012A00003EB00200AF062FB61490AF0B3FB49F846
:1012B000040F316804460AF04BFD0AF1020A30B10E
:1012C000D7F88C1020460AF057FD00B13460296829
:1012D00020460AF05BFD043600B12C60B8F101082D
:1012E00005F10405D8D19DF81E309DF81D0003EBD3
:1012F000002002300AF03AFB4E490AF03FFC01465A
:101300004D480AF03BFC4D490AF07AFA4C490AF084
:1013100081FB054608F0ECFB0446284608F0E8FB94
:10132000484908F057FC4849054620460AF072FB38
:1013300046490AF067FA4649044628460AF06AFB1D
:10134000014620460AF05EFA01464FF07E500AF050
:1013500015FC40490AF054FA9DF81F209DF82030F2
:10136000786603EB022009300AF000FB3A490AF0E4
:1013700005FC014630480AF001FC30490AF040FA09
:101380002F490AF047FB054608F0B2FB0446284601
:1013900008F0AEFB2B4908F01DFC2B490546204602
:1013A0000AF038FB29490AF02DFA29490446284653
:1013B0000AF030FB014620460AF024FA01464FF0BD
:1013C0007E500AF0DBFB23490AF01AFAB86604469D
:1013D0003846FFF7C9FAF96F05460AF0B9FC00B1C3
:1013E000FD677D6E204629460AF0D0FCB0B929463B
:1013F000D7F880000AF0ACFC10B12C46C7F880404A
:10140000164804F0ADFE012007E69DF8219014482F
:1014100049464246C34604F0A3FEF4E5D7F88010DF
:1014200020460AF0B3FC0028E8D1E9E71357053B52
:101430002003C839001601470AD7E33FE17A644028
:1014400000007A4400004040A40D8F395A80473A8A
:1014500046A6DB3333938843002C01478400010008
:10146000600001002DE9F8430026D0F88C80066664
:101470008146044600F1200754F8045B41462846A3
:101480000AF084FC084950B128460AF061FC30B1EA
:10149000304629460AF0B6F90646C9F86000BC4253
:1014A000EAD13046BDE8F8830000704205299ABFB2
:1014B00000EB8100406E0020704700BF3E2998BFBE
:1014C00080F8A810704700BF90F89000704700BFE8
:1014D000C0F8A410704700BF80F89010704700BF9C
:1014E00030B50F4CC0F88C1083B020460D4607F085
:1014F000DFFE204607F0DCFE284609F0E1FD02256C
:1015000002460B460095204607F02AFF204607F0CA
:10151000CFFE204603B0BDE8304007F0C9BE00BF93
:10152000C487FF1F70B500F5315506462C3500F114
:1015300020042046B434FEF799FFAC42F9D106F1FD
:10154000D405012428460021FFF7C6FF214628467E
:101550000134FFF7B3FF3F2C05F1B405F2D142F699
:10156000744400250548064A064B35550021306174
:101570007161B261F361304670BD00BF00007A4412
:10158000000048430000C8C22DE9F04142F678430C
:1015900000F53156374600228046C2502C36383787
:1015A00000F1D40402E0B434B4420DD02046FFF779
:1015B0008BFF0028F7D020463D68FFF7B1F8B43420
:1015C0002844B4423860F1D142F6784358F8030019
:1015D000BDE8F081F8B50E46096801F47F65002981
:1015E0000446A5F5C06511DB2D0901F00F07B423F2
:1015F00003FB0544203420460121FFF76DFF3246EE
:1016000039462046BDE8F840FFF7F6B90A4801F030
:101610000F0707F04DFE1221084807F057FC31680C
:10162000054801F0004100230A2207F051FE02485C
:101630002D0907F03DFEDAE7C487FF1FFC0001001B
:10164000704700BF704700BF2DE9F04304460023F8
:1016500083B0064644F8D43B012504E001353F2D14
:1016600004F1B40469D02046FFF72EFF0028F5D01E
:10167000504804F075FD29464F4804F071FD20469E
:10168000FFF7AAFA2046FFF7EDFE09F019FD024622
:101690000B464A4804F064FD2046FEF7D5FF80461D
:1016A0002046FEF7EDFF0746404609F009FD80465B
:1016B0003846894609F004FD42464B46CDE9000113
:1016C0003F4804F04DFD00212046FFF7EFFE0121C9
:1016D00080462046FFF7EAFE0746404609F0F0FC48
:1016E00080463846894609F0EBFC42464B46CDE938
:1016F0000001344804F034FD2046FFF7B3FE0146F4
:1017000030680AF07FF830602046FFF72DF9B169A4
:101710000AF01EFB002833D12046FFF705F8F169D7
:101720000AF034FB002899D02046FEF7FDFF013572
:101730003F2DF06104F1B40495D170680AF016F9F8
:10174000014630680AF01AFA7169306004460AF0FE
:101750001DFB00B17461316920460AF0F9FA00B14D
:1017600034610B2006F0C8FA42F67443F35C60B9AA
:101770009BB142F674430122F25403B0BDE8F083FA
:101780002046FFF7F1F8B061C6E753B942F674435B
:101790000022F25403B0BDE8F0830B4804F00EFDC4
:1017A000E7E70A4804F0F4FC42F674430022F254DE
:1017B000F0E700BFF8020100100101004C01010038
:1017C000600101008C010100A8010100E00101009D
:1017D00070B5114B836000F5315506462C3500F18C
:1017E000D40402E0B434AC4213D02046FFF76CFEC0
:1017F0000028F7D02046FEF727FFB1680AF0A8FAC4
:101800000028EFD02046FEF71FFFB434AC42B06092
:10181000EBD1B06870BD00BF0000A04070B50023E0
:1018200000F531550646C3602C3500F1D40402E0C2
:10183000B434AC4213D02046FFF746FE0028F7D060
:101840002046FEF71DFFF1680AF0A0FA0028EFD04D
:101850002046FEF715FFB434AC42F060EBD1F068DF
:1018600070BD00BF0068704741607047F8B500F573
:1018700031550F4616462C3500F1D40402E0B4343D
:10188000AC420FD02046FFF71FFE0028F7D02046BD
:101890003946FFF71DFE20463146B434FFF720FEDF
:1018A000AC42EFD1F8BD00BF2DE9F84300F531554A
:1018B00042F670432E4600278146C7504FF000087D
:1018C0002C35303600F1D40402E0B434AC4213D0ED
:1018D0002046FFF7F9FD0028F7D033680133336065
:1018E0002046FEF72DFF0F490AF050FA88B9B434AC
:1018F000AC4207F10107EBD142F6704359F80300FF
:10190000C01B0AF033F8014640460AF037F9BDE83B
:10191000F8832046FEF714FF0146404609F072FFA7
:101920008046D2E700008CC2F8B500F53155074675
:1019300000262C3500F1D40402E0B434AC420FD0C0
:101940002046FFF7C1FD0028F7D02046FEF7BAFE7B
:101950000146304609F056FFB434AC420646EFD19A
:1019600042F67043F8580AF001F8014630460AF092
:1019700005F9F8BD2DE9F04F06468DB0934804F007
:1019800097FB924804F094FB904804F091FB42F6D8
:1019900070433046F758FFF7F7FD0B90306809F0B9
:1019A0008FFB044630460D46FFF7BEFF0A90B06835
:1019B00009F086FB8246F0688B4609F081FB804681
:1019C00030468946FFF770FF09F07AFB0A9BCDE9A4
:1019D00008011846CDE904ABCDE9068909F070FB92
:1019E0000B9ACDE90201CDE900453946784804F06B
:1019F0005FFB764804F05CFBD4364FF001094FF0F2
:101A0000000A07E009F10109B9F13F0F06F1B40638
:101A100000F0D3803046FFF757FD0028F2D0304663
:101A2000FEF7FCFD3046FEF7FDFD3046FEF7FEFDFD
:101A30003046FEF7FFFD0821664807F047FA4946A1
:101A4000654807F085FCB9F1090F40F3B980022120
:101A5000624807F03BFA3046FFF704FD09F030FB1F
:101A6000022402460B4600945B4807F079FC0121F2
:101A70005B4807F02BFA554600241FE00621594821
:101A800007F024FA2946544807F062FC0221564820
:101A900007F01CFA21463046FEF7D0FD09F010FB96
:101AA000009702460B464C4807F05AFC01340121CE
:101AB0004B4807F00BFA082C0BD04546092D4FF088
:101AC000020705F10108D9DC0121484807F0FEF9B9
:101AD000D4E7414807F0ECFB0921454807F0F6F947
:101AE00000213046FFF7E2FC09F0EAFA00970246CF
:101AF0000B46394807F034FC0A213E4807F0E6F966
:101B000001213046FFF7D2FC09F0DAFA00970246CD
:101B10000B46314807F024FC0A21374807F0D6F974
:101B200039463046FFF7C2FC09F0CAFA0097024670
:101B30000B46294807F014FC0A21304807F0C6F983
:101B400003213046FFF7B2FC09F0BAFA00970246CB
:101B50000B46214807F004FC0A21294807F0B6F992
:101B600004213046FFF7A2FC09F0AAFA00970246CA
:101B70000B46194807F0F4FB0A21224807F0A6F9A2
:101B800005213046FFF792FC09F09AFA00970246C9
:101B90000B46114807F0E4FB01211B4807F096F9BA
:101BA00009F101090C4807F083FBB9F13F0F0AF175
:101BB000080A06F1B4067FF42DAF0DB0BDE8F08F32
:101BC00001210A4807F082F941E700BFF80201004D
:101BD0009004010010050100C487FF1F941201004A
:101BE0001C05010020050100EC060100FC060100B7
:101BF0002805010034050100400501004C050100E5
:101C00005805010064050100700501002DE9F0414F
:101C100000F1D40582B0012705E001373F2F05F11F
:101C2000B40500F08B802846FFF74EFC0028F4D066
:101C30003946444807F08CFB0121434807F046F938
:101C400000244FF0020821462846FEF7F7FC09F071
:101C500037FACDF8008002460B463A4807F080FB81
:101C600001340121384807F031F9082C4FF0020601
:101C7000E9D100212846FFF719FC09F021FA009666
:101C800002460B462F4807F06BFB01212E4807F058
:101C90001DF901212846FFF709FC09F011FA009609
:101CA00002460B46274807F05BFB0121264807F058
:101CB0000DF931462846FFF7F9FB09F001FA0096C5
:101CC00002460B461F4807F04BFB01211E4807F058
:101CD000FDF803212846FFF7E9FB09F0F1F900962A
:101CE00002460B46174807F03BFB0121164807F058
:101CF000EDF804212846FFF7D9FB09F0E1F9009639
:101D000002460B460F4807F02BFB01210E4807F057
:101D1000DDF805212846FFF7C9FB09F0D1F9009647
:101D200002460B46074807F01BFB0137054807F042
:101D3000BFFA3F2F05F1B4057FF475AF02B0BDE8DF
:101D4000F08100BFC487FF1F74050100F8B531485A
:101D5000314C324F324E04F0ABF9324B324A3349F8
:101D600033485A60012510221A701D72314A324DD3
:101D7000D9601C6131495861002431485F621E629C
:101D8000304F9A614FF07C562F4A9D62D9622F4D99
:101D90001C630E2140F61C4458630A209F635E6456
:101DA00041F204075A269A64DD640222284D19651F
:101DB0009C6600216424D8664FF496701F675E67A6
:101DC000DD61DD6383F8401099675866D8654FF48C
:101DD0007A7741F28830FF265A705A725A65052583
:101DE0009C65DA67C3F88010C3F89C103221C3F8F1
:101DF000AC20C3F8B040C3F89870C3F8A460A3F84F
:101E0000B650C3F89000A3F8B400C3F89410C3F818
:101E1000A010F8BD7805010000004040CDCCCC3DBD
:101E2000333373402C93FF1F20A107006666864062
:101E300033338340CDCC4C4000008242000020C1AF
:101E4000000020420000A0409A9979400AD7233D23
:101E5000CDCC4C3EF0B54FF47A6085B005F082FFF2
:101E600000210E2005F056FF00210F2005F052FF43
:101E70000021112005F04EFF0021102005F04AFF3F
:101E80000021122005F046FF0021132005F042FF3B
:101E900001210B2005F03EFF01210C2005F03AFF47
:101EA0000121142005F036FF0121152005F032FF35
:101EB0000121162005F02EFF0121172005F02AFF31
:101EC0000121052005F026FF8E4C8F4D01210620B3
:101ED00005F020FF01210D2005F01CFF208809F0EE
:101EE00041FD0146162005F07FFE208809F03AFDED
:101EF0000146172005F078FE208809F033FD0146E1
:101F0000052005F071FE208809F02CFD0024014613
:101F1000062005F069FE009423467C4A7C497D48F2
:101F200004F046FBE6B2324677497A4804F0EEFA0E
:101F30002B79754977486FF30003013432462B71D2
:101F400004F0DAFA082CEDD10924E6B232466E49E3
:101F5000704804F0DBFA2B796B496E4843F00103BB
:101F6000013432462B7104F0C7FA0D2CEDD16A4CC6
:101F70004FF0FF322068102104F0E6FE20684FF099
:101F8000FF32102104F0B8FE20684FF0FF3202212A
:101F900004F0C6FE20684FF0FF32022104F0CAFEB2
:101FA00000220E21206804F0D9FE0C215B4806F0C7
:101FB0008DFF5B4807F07CF914215A4806F086FF34
:101FC000574807F075F9564807F072F91721564837
:101FD00006F07CFF524807F06BF9544B1B789A06C9
:101FE00000F1BE80514B1B781B0700F1C5804F4BA1
:101FF0001B785F0700F1CC804C4B1B789E0700F1EB
:10200000D3804B4B1B781D0600F1DA80484B1B78C0
:102010005C0600F1E180464B1B78980600F1E880F1
:10202000434B1B78590700F1EF80414B1B781A078F
:1020300000F1F6803E4B1B789B0700F1FD8038488D
:1020400007F036F972B63B4A4CF220534DF6281190
:102050002024138023461180013BFDD1364D3748A3
:10206000374900234FF480562E8003800B8032F8CE
:102070000E3C9BB243F0D30322F80E3C62B69D2087
:1020800006F016F821462F482F4D06F01FFF244872
:1020900007F00EF905F1B8062F462C46601B05F037
:1020A0003FFB04F8010BB442F8D13B78102B01D070
:1020B000FFF74CFE2548FFF7C5FA042003F050FF58
:1020C000234B224800221A60FFF7BAFA01210D20A3
:1020D00005F00CFE796D1D48FFF7C6FB7A6C97F88A
:1020E00040101A48FFF7C2FB1A4B1B491A680392AB
:1020F00003981B680293029A184B08601A6005B097
:10210000F0BD00BF2487FF1FF093FF1FE8C2FF1F31
:1021100020A107004CC1FF1F8C94FF1F98050100F0
:10212000C487FF1FA8050100C005010001F007409A
:1021300000F007400E200540042005400620054021
:1021400016200540C40601002C93FF1FC094FF1FFA
:102150004C92FF1FF4C2FF1FB894FF1FF893FF1F9C
:102160002121394806F0B2FE384807F0A1F8384B73
:102170001B781B077FF53BAF0C21364806F0A6FE07
:10218000324807F095F8324B1B785F077FF534AF84
:102190000E21314806F09AFE2C4807F089F82C4BA6
:1021A0001B789E077FF52DAF17212C4806F08EFE79
:1021B000264807F07DF82A4B1B781D067FF526AFD1
:1021C0000E21284806F082FE204807F071F8244BC3
:1021D0001B785C067FF51FAF1221234806F076FEC0
:1021E0001A4807F065F81E4B1B7898067FF518AF64
:1021F00013211E4806F06AFE144807F059F8184BE0
:102200001B7859077FF511AF1C21194806F05EFEB7
:102210000E4807F04DF8124B1B781A077FF50AAFEE
:102220001921144806F052FE084807F041F80C4BFB
:102230001B789B077FF503AF18210F4806F046FE79
:10224000024807F035F8FAE6D8050100C487FF1FF9
:1022500001F00740FC0501000C0601001C0601000E
:1022600000F0074034060100440601005806010052
:102270006C0601008C060100A806010070B5464CF2
:10228000464D4748E66800232B70FFF7C7FA014622
:10229000304609F05DFD08B104232B704048FFF77C
:1022A00097FA216909F054FD18B12B7843F0100317
:1022B0002B703B48FFF7F8FAA16A09F067FD18B1E7
:1022C0002B7843F040032B70002335486B70FFF7E9
:1022D000EBFAE16A314E09F03BFD08B1012373705E
:1022E00000232F48EB70FFF799FA05462C482B4E38
:1022F000FFF76EFA0146284609F082FAE16B09F011
:1023000045FD08B10123F370264D254800232B70AD
:10231000FFF784FA616A0646E06809F071FA01463F
:10232000304609F033FD08B104232B701C48FFF739
:102330004FFA616A0646206909F064FA01463046A0
:1023400009F006FD18B12B7843F010032B701448E8
:10235000FFF7AAFAA16B0646A06A09F051FA0146F6
:10236000304609F013FD18B12B7843F040032B7071
:1023700000230B486B70FFF797FAA16B0546E06AE4
:10238000084C09F03FFA0146284609F0E1FC08B183
:102390000123637070BD00BF2C93FF1F2893FF1FA4
:1023A000C094FF1FE893FF1F2DE9F0417C4C236888
:1023B000012B82B031D0022B00F0A880032B00F05B
:1023C000C8803BBB774B784AD3F8A010D3F8A43031
:1023D00012685B1A632B0EDD744803FB02F380FB6B
:1023E0000302DB17C3EB62131944062002B0BDE8F9
:1023F000F04105F0FBBA6E4803FB022380FB0302A9
:10240000DB17C3EB22121144062002B0BDE8F041F5
:1024100005F0ECBA02B0BDE8F081664E33680A33CD
:10242000B3F57A7F00F3B7801846336009F09EFA5F
:10243000614909F0EFFA80465A4DD5F8A00009F03D
:1024400095FA0746D5F8A40009F090FA394609F044
:10245000D7F9414609F0DEFA584909F08FFB3946B1
:1024600009F0D0F909F0B2FC0146062005F0BEFAE9
:102470000221534806F02AFD524806F019FF0621B2
:10248000514806F023FD306809F070FA4A4909F016
:10249000C1FA08F015FE022702460B46009749488C
:1024A00006F05EFF0D21494806F010FDD5F8A000AA
:1024B00009F05CFA8046306809F058FA3E4909F0A4
:1024C000A9FA0646D5F8A40009F050FA414609F0E9
:1024D00097F90146304609F09DFA384909F04EFB5C
:1024E000414609F08FF908F0EBFD00970B460246D4
:1024F000344806F035FF3946314806F0E7FC3148EC
:1025000006F0D6FE2368022B7FF458AF294B254EE8
:1025100000221A60D6F8A00009F028FA0546D6F87D
:10252000A40009F023FA294609F06AF9002109F00C
:1025300071FA224909F022FB294609F063F909F0F2
:1025400045FC0146062005F051FA2368032B7FF471
:1025500038AF184B134E4FF47A721A60D6F8A000B9
:1025600009F004FA0546D6F8A40009F0FFF9294657
:1025700009F046F9114909F04DFA104909F0FEFA3F
:10258000294609F03FF909F021FC0146062005F033
:102590002DFA236815E700234FF0000833604BE75E
:1025A0006C94FF1F2C93FF1F3487FF1F1F85EB5177
:1025B000CBF08D285092FF1FCDCCCC3D0000C842FF
:1025C00094120100C487FF1FE8060100F006010015
:1025D00070B5A248A24C06F06BFEA04806F068FE5B
:1025E0009E4806F065FE0D219E4806F06FFCD4F86B
:1025F0009C30012B11D09C4C9848217800230A2252
:1026000006F066FE2378052B67D8DFE813F0E900B3
:10261000EE00F300F800FD00E4000921934806F005
:1026200055FC9348FFF7D4F8216909F091FB18B1E4
:102630000F21904806F04AFC8D48FFF7EFF8E1685B
:1026400009F0A4FB18B10E218B4806F03FFC884826
:10265000FFF7E4F805468648FFF7BAF80146284632
:1026600009F0CEF8E16B09F091FB18B11121834814
:1026700006F02CFC7E48FFF717F9A16A09F086FBEB
:1026800018B10C217E4806F021FC7948FFF70CF9BF
:10269000E16A09F05DFB18B10D217A4806F016FCDD
:1026A000794B73481B68012B00F0C280FFF790F84C
:1026B00021696B4D09F06AFB78B16D48FFF7AEF800
:1026C000E96809F045FB40B1674B1B78052B00F02A
:1026D000C08008216D4806F0F9FB02216C4806F025
:1026E000F5FB122005F008FB012800F09C8011206A
:1026F00005F002FB012800F09180664B1B68012B5E
:1027000000F087800221624806F0E0FB624B5348EC
:10271000196806F01DFE514806F0CAFD04215F4805
:1027200006F0D4FB0B2005F0E7FA002301460A224D
:102730004A4806F0CDFD0C2005F0DEFA00230146E4
:102740000A22464806F0C4FD142005F0D5FA0023FD
:1027500001460A22414806F0BBFD152005F0CCFADF
:10276000002301460A223D4806F0B2FD06214C48EE
:1027700006F0ACFB4B4B394819680222002306F0E7
:10278000A7FD0421484806F0A1FB112005F0B4FA8A
:10279000002301460A22314806F09AFD102005F078
:1027A000ABFA002301460A222C4806F091FD1220C4
:1027B00005F0A2FA002301460A22284806F088FD07
:1027C000132005F099FA002301460A222348BDE8A8
:1027D000704006F07DBD0721344806F077FB7CE7AA
:1027E0000621334806F072FB77E70721314806F0EF
:1027F0006DFB72E70721304806F068FB6DE70821A2
:102800002E4806F063FB68E70B212D4806F05EFBBF
:1028100063E711212B4806F059FB73E70A212A4888
:1028200006F054FB69E70E21284806F04FFB5EE7EF
:10283000FEF7CEFF216A09F0A9FA00283FF449AF5C
:102840001621234806F042FB0A21224806F03EFBEF
:1028500043E70A211F4806F039FB3EE7C487FF1F04
:102860002C93FF1F000701007894FF1F1007010041
:10287000C094FF1F1C0701002C0701003C0701004A
:1028800050070100600701006092FF1F94070100DC
:10289000941201009494FF1F7094FF1F0808010018
:1028A00010080100E493FF1F18080100D007010081
:1028B000A0070100A8070100BC070100C407010030
:1028C000B0070100F4070100E8070100D807010084
:1028D00070070100880701002DE9F04F934C944FD9
:1028E000E36F012B8DB000F04981032B50D0914E46
:1028F000914DA36F9148012B09BF2968296801F107
:102900000041296004F0FEFD3368002B40F0CE80CA
:102910008A4804F0CDFDE36F3860012B064600F0D5
:10292000D280874909F032FA78B98649304609F0F1
:102930000FFA50B9844A854B12680B920B9A1A60B1
:1029400000232B600DB0BDE8F08FDFF8FC817F4CD9
:10295000D8F800300A930A9823687D4FC01A09F00E
:1029600001F8314609F056F87A4909F007F9794932
:1029700009F004F9396808F045FFD8F800300993E8
:10298000099B2360002338602B600DB0BDE8F08FF9
:10299000DFF8C881704DD8F80000664E0123002290
:1029A0000E212B6004F0DAF92B68012B336800F05C
:1029B0000381002B40F0A6810021D8F80000DFF849
:1029C000B891664D04F01CFA33681FFA80FBC9F811
:1029D00000B0002B40F07B810021D8F80000564D5C
:1029E000DFF878A104F092F9B4F8863040F6E441BB
:1029F00001FB0BF1B1FBF0F0C01A00B208F0B6FF1A
:102A000057498346D4F8880009F004F8014658462F
:102A100009F0B4F8D9F800302860632BDFF858B11A
:102A200000F3498100232B603368002B3FF461AF32
:102A300002214C4806F04AFAD9F80020D8F80000E4
:102A400040F6E443002103FB02F804F05FF9B8FB11
:102A5000F0F008F087FF8046B4F8860008F086FFA3
:102A60000146404608F0CCFE08F02AFB4FF0020871
:102A700002460B46CDF800803B4806F071FC41460B
:102A8000384806F023FA286808F01AFBCDF80080D1
:102A900002460B46344806F063FC4146334806F0D4
:102AA00015FA41462F4806F011FA22E7234804F0B0
:102AB000FFFC08F005FB022602460B4600962A485A
:102AC00006F04EFC24E7244B1B68012B00F0268106
:102AD000022B7FF435AF264909F058F930B9254962
:102AE000304609F035F9002800F04781DFF85880BA
:102AF000164CD8F80030079307982368144FC01A73
:102B000008F030FF314608F085FF124909F036F829
:102B1000104909F033F8396808F074FED8F800302D
:102B20000693069B386023600AE700BF2C93FF1FC3
:102B30006C92FF1FB494FF1F5C92FF1F0493FF1F52
:102B40000000FA430000FAC3F4C2FF1F8894FF1F7D
:102B50007092FF1F00007A446087FF1F8C94FF1F54
:102B600017B7D13894120100C487FF1F5C08010019
:102B700000C82F4800A08CC62493FF1F3D689849C9
:102B8000284609F0E5F830B12846964909F0FEF8E4
:102B900000287FF4FDAEDFF85882934DD8F800008E
:102BA000924E022300220F212B6004F0D7F82B68ED
:102BB000012B33687FF4FDAE002B40F00081002133
:102BC000D8F80000DFF86C92894D04F019F93368E9
:102BD0001FFA80FBC9F800B0002B40F0D58000211F
:102BE000D8F80000834D04F091F8B4F8843040F632
:102BF000E44A0AFB0BFBBBFBF0F0C01A00B208F082
:102C0000B5FE7D498346D4F88C0008F003FF0146E9
:102C1000584608F0B3FFD9F8003028600021D8F8F2
:102C200000000AFB03FA04F071F8B4F88430BAFB30
:102C3000F0F00FFA80FAC3EB0A03002BB4F8B620C9
:102C4000B8BF5B429342BCBF00232B603368002BAC
:102C50003FF44FAE0221694806F038F9D9F8002058
:102C6000D8F8000040F6E443002103FB02F804F02A
:102C70004DF8B4F88410B8FBF0F000B2411A604887
:102C800006F066FB02215D4806F020F9286808F08E
:102C900017FA4FF0020802460B46CDF8008058485C
:102CA00006F05EFB0321574806F010F941465348F1
:102CB00006F00CF91DE6DAF80000002104F026F811
:102CC000DBF8003064389842FFF4ACAEACE600218B
:102CD000286804F01BF840F6E44100230A2201FBB7
:102CE0000BF1B1FBF0F1464806F0F2FA022143483D
:102CF00006F0ECF8B4F88610414806F029FBD9F844
:102D000000B069E63E4806F0D3FA0C213E4806F0D2
:102D1000DDF80C213D4806F0D9F84DE63C4909F0B4
:102D200035F858B93B49304609F012F830B93A4AFB
:102D30003A4B12680592059A1A6001E6DFF8D880CE
:102D4000364CD8F80030049304982368344FC01AE6
:102D500008F008FE314608F05DFE324908F00EFF2B
:102D6000304908F00BFF396808F04CFDD8F8003006
:102D70000393039B38602360E2E5274A274B1268E0
:102D80000892089A1A60DBE50021286803F0BEFF6C
:102D900040F6E44100230A2201FB0BF1B1FBF0F104
:102DA000174806F095FA01211F4806F08FF8B4F88D
:102DB0008410134806F0CCFAD9F800B00FE7104899
:102DC00006F076FAE36F012B4FF00B010CBF1748AA
:102DD000174806F07BF80C210C4806F077F8EEE671
:102DE00000709446007094C66087FF1FB494FF1F64
:102DF0008C94FF1F5C92FF1F17B7D138941201000B
:102E0000C487FF1F480801004C0801003808010072
:102E10000000FA430000FAC3F4C2FF1F8894FF1FAA
:102E20007092FF1F00007A44FC0601002008010098
:102E30002C0801002493FF1F2DE9F047B24D2B68A9
:102E400084B0002B7ED0B14CDFF8C882B04EE36F67
:102E5000AE4D012B00F08F80D4F88030AB4F012BAA
:102E600000F0BC80D6F80090D7F858A07D6DA94F2F
:102E700005FB0AF54FF47A7000FB05F008F076FDCB
:102E8000A5490546484608F0C5FD294608F076FEE6
:102E9000A24908F0BFFD08F099FF6328C8F80000B8
:102EA0004BDD28469C4908F069FE642330603B6096
:102EB0009B4B1B68002B3DD0E36F944D012B00F022
:102EC000BB80032B00F00981022B00F00C81022152
:102ED000944805F0FBFF944B186808F0F1F80224C1
:102EE00002460B460094914806F03AFA2146904873
:102EF00005F0ECFF21468B4805F0E8FFD8F80010FC
:102F00008A4806F025FA06218A4805F0DFFF306876
:102F1000814908F07FFD08F0D3F8009402460B4683
:102F2000824806F01DFA0321834805F0CFFF7F4851
:102F300006F0BEF904B0BDE8F0870028BCBF00234E
:102F40003B60B5E77D4E714C33680293029A42F2C2
:102F500028339A4200F2BA8033680393039A42F20C
:102F600010739A4274D8E36FDFF8A881684E674DFA
:102F7000012B7FF471AF7248FEF7D6FC7149D5F88A
:102F80006890EF6E08F046FD08F046FF2A6F6B6F01
:102F9000C9EB0202DB1B80B29A42C9EB000040F38E
:102FA000AD8003FB0000531C90FBF3F31F44A06DA6
:102FB000636DC8F8007000FB07F003FB00F000EB46
:102FC0008000400008F0D2FC5349504F08F0D6FD75
:102FD000D4F880303060012B7FF444AF5848FEF7BE
:102FE000A3FC5849D7F86890FD6E08F013FD08F06F
:102FF00013FF3A6F7B6FD4F858A0C9EB02025B1B3A
:1030000080B29A42C9EB0000C6BF03FB0000013248
:10301000584390FBF2F02844656D00FB0AF005FB75
:1030200000F000EB8000400008F0A0FC3A4908F0F6
:10303000A5FD814630601AE7434B1B68012B4FF01A
:103040000A010CBF4148424805F040FFEB6F38E7EA
:103050003B48FEF769FC3B49A76EE66E08F0DAFCD8
:1030600008F0DAFE226F636FD21B9B1B80B29A427C
:10307000A0EB07003CDD03FB0000531C90FBF3F3C7
:103080009819A26DDFF88C80636DC8F8000002FB10
:1030900000F003FB00F000EB8000400008F066FC4D
:1030A0001D491B4E08F06AFD0123306002211D48B6
:1030B0002B6005F00BFF1D4806F0FAF85921254852
:1030C00005F004FF194806F0F3F8C0E61C48626CEE
:1030D00094F84010FEF7CAFB3EE710211E4805F0A9
:1030E000F5FEE36FF0E607211C4805F0EFFEEEE683
:1030F00003FB00F393FBF2F39819C2E703FB00F321
:1031000093FBF2F31F4452E75492FF1F2C93FF1FCF
:103110007092FF1F3487FF1FE4388E3E0000C842C4
:103120006C87FF1F941201006C92FF1FC487FF1F62
:103130005C080100F0080100F8080100F4C2FF1F5C
:10314000C094FF1F00007A446087FF1FBC08010085
:10315000C808010060080100D4080100E808010067
:10316000F0B5112083B004F0C7FD012813D0002171
:103170000B2004F0BBFD00210C2004F0B7FD002162
:10318000152004F0B3FD1D491D4B012000220870DD
:103190001A6003B0F0BD01460446152004F0A6FDF8
:1031A0001849194A194B09680191D2F890001B6817
:1031B0000199134D034402268B422E6017D8D2F892
:1031C000980008F0D3FB124B196808F0C1FD0746C0
:1031D00068B921460B2004F089FD084A03233946CB
:1031E0000C2016702B6004F081FD03B0F0BD0121AE
:1031F0000C2004F07BFD03B0F0BD00BF7894FF1FEE
:10320000B094FF1FF4C2FF1F2C93FF1FB894FF1F41
:103210006C92FF1FF0B5684E684D34682B689C4275
:1032200087B039D014F0010155D014F0020149D013
:1032300014F004013DD0E3070ED52B68DF070BD453
:103240005F4F3A68002A00F082805E4B1B68019352
:10325000019B93426DD83468A0070DD52B68990760
:103260000AD4594F3A68002A4CD0564B1B68039336
:10327000039B934238D8346862070DD52B685B07EF
:103280000BD4524F3A68002A7ED04E4B1B680593F0
:10329000059B934268D834680CB107B0F0BD214655
:1032A000162004F0A3FB2146172004F09FFB07B073
:1032B000F0BD052004F09AFB2B68346803F0FB0393
:1032C0002B60B8E7172004F091FB2B68346803F0FB
:1032D000FD032B60ACE7162004F088FB2B683468F4
:1032E00003F0FE032B60A0E7394B1720D3F89410AE
:1032F00004F07CFB2B68346843F0020300222B604F
:103300003A60B9E7334805F0D3FF0C21324805F0A5
:10331000DDFD304805F0CCFFFF21172004F066FBEF
:10332000284B2E4A19680291029912680A443A60A1
:103330009CE7274B1620D3F8941004F057FB2B681A
:10334000346843F0010300222B603A6084E7FF21D8
:10335000162004F04BFB1B4B204A19680091009982
:1033600012680A443A6071E7194B0520D3F89410AB
:1033700004F03CFB2B68346843F0040300222B600C
:103380003A60002C89D18AE7124805F091FF0C21A0
:10339000134805F09BFD0F4805F08AFFFF2105202B
:1033A00004F024FB074B0D4A196804910499126834
:1033B0000A443A606AE700BFB094FF1FE493FF1F1E
:1033C0006094FF1FF4C2FF1F6494FF1F6894FF1FE7
:1033D0002C93FF1FC487FF1FFC0801006887FF1F95
:1033E0000C0901002DE9F8434B4DDFF8589128688E
:1033F0004A4E4B4F00220E2103F0B0FC0123222144
:103400004848C9F8003005F061FD3368132B1EDC15
:1034100040F6E4480021286803F0F2FC002104464D
:10342000286803F073FC3B88A4B2012108FB04F474
:10343000B4FBF0F43C481C443C8005F047FD64209C
:1034400004F090FC33680133132B3360E2DD3B88DA
:10345000364A3748A2FB03129B1A02EB5303C3F30D
:103460000F1319463B8005F073FF1D213148324F81
:1034700005F02CFD0221314805F028FD2C4805F00F
:1034800017FF00231A460F212868336003F066FCFB
:10349000022322212348C9F8003005F017FD3368C4
:1034A000132B1EDC40F6E4480021286803F0A8FC3A
:1034B00000210446286803F029FC3B88A4B20121BE
:1034C00008FB04F4B4FBF0F417481C443C8005F0FE
:1034D000FDFC642004F046FC33680133132B336099
:1034E000E2DD3B88114A1248A2FB03129B1A02EB51
:1034F0005303C3F30F1319463B8005F029FF1D2129
:103500000F4805F0E3FC02210C4805F0DFFC0848F9
:10351000BDE8F84305F0CCBE8C94FF1F7494FF1FE8
:103520005087FF1F1C090100600901008761188690
:10353000C487FF1F400901005287FF1F941201003A
:10354000640901006087FF1F2DE9F843744D754C35
:10355000286D754EDFF8FC81082740F25133236057
:10356000E77108F003FA6969814608F053FA6F4978
:1035700008F050FA08F050FC6D4B6E4A1B68D2F808
:1035800000E0A37282B23B41A9692272E3723A4120
:103590004EFA07F3484684F80CE06272637308F051
:1035A00039FA624908F036FA08F036FC83B243FA79
:1035B00007F221463046A373E27303F0F1F95E4B44
:1035C0005E4A1B681288A272DDB240F2553121605A
:1035D00005EB850E43FA07F103EB83034FEA4E0E2A
:1035E0003A4143F3D71361722572214600253046D4
:1035F00084F80CE0E272E7716373A573E57303F07E
:10360000CFF940F2563340462360E771FEF72AF9BE
:103610004B4908F0FFF908F0FFFB20724046FEF727
:1036200021F9474908F0F6F908F0F6FB454A444904
:10363000C0F307231068637208F0A0FA08F0C6FB15
:1036400040FA07F203464046E272A372FEF72CF9F5
:10365000364908F0DFF908F0DFFB20734046FEF73B
:1036600023F9324908F0D6F908F0D6FB2146C0F319
:10367000072330466373A573E57303F091F90220C5
:1036800004F070FB304BE771187893F801E09A78FA
:10369000207240F25A31DB7821603046214684F8AE
:1036A00009E025736573A573E573A272E37203F0F5
:1036B00077F9264BE77118785D789A78207240F296
:1036C0005E3118792160D9786572A2725D799A7934
:1036D000E172DB79207321463046A273E373657390
:1036E00003F05EF9022004F03DFB194BE7711D78F1
:1036F0005A789978DF78257230464FF45C765D7998
:10370000266062721E799A79DB79A172E77221468E
:1037100026736573A273E373BDE8F84303F040B901
:103720002C93FF1FA094FF1F4CC1FF1F00002041DE
:103730004492FF1F8494FF1F3487FF1F3887FF1FA9
:103740000000C8426C92FF1F2893FF1F2887FF1FAD
:103750005487FF1FC094FF1F38B5284B1B68012BEF
:1037600000D038BD264D2748FEF732F8E96C08F046
:1037700049F804462348FEF751F80146204608F070
:10378000E7FA0028EDD0204C1E4840F2C33208234F
:103790002260E371FEF71CF8AD6C294608F0D8FAF8
:1037A000B8B11A49284608F035F908F035FB80B25F
:1037B00003126072237200230122A272E372237348
:1037C0006373A373E37310491148BDE8384003F0F5
:1037D000E7B80C48FDF7FCFF0C4908F01BF908F0AE
:1037E0001BFBC0F3072307482372FDF7F1FF0749CE
:1037F00008F010F908F010FB6072DCE79494FF1FEA
:103800002C93FF1FC094FF1FA094FF1F0000C8420D
:103810004CC1FF1FF0B5984C984D83B005F0F0FAFD
:1038200023682860042B00F0A482022B4BD0082BC5
:1038300000F09280072B40F04981332801F02E835D
:1038400000F3A680312801F03C83322840F0A980A3
:1038500005F012FB002840F337818948894E05F0B6
:10386000B9FE08F083F8884908F0D4F861230122F2
:10387000F06322602B601846A0F152031F2B01F267
:10388000EB82DFE813F02A0AE90AE90AE90AE90A01
:10389000E90AE90AE90AE90AE90AE90AE90AE90A90
:1038A000E90AE90ABB09320C3E0AEF086108E90A95
:1038B000E90AE90A1908E90A2F0CE90AE90AE90AFA
:1038C000E90AE90A2C0AA0F13102422A69D8DFE8A4
:1038D00012F04804540462046F04820491046800E6
:1038E0006800680068006800680068006800680098
:1038F0006800680068006800680068006800680088
:103900006800680068006800680068006800680077
:103910006800680068006800680068006800680067
:103920006800680068006800680068006800680057
:103930006800680068003504680068006800680076
:103940006800680068006800680068006800680037
:103950006800640068003B04322800F01F8371286F
:103960001BD031281DD105F087FA002840F3A4832D
:103970004348444E05F02EFEC0B286F840000228AF
:103980008ABF0021014686F84010726C3F4819E357
:10399000342801F07182712803D100237320236041
:1039A0002860002B08BF73280CBF012000200028CE
:1039B00060D0334805F07CFC0421354805F086FAD8
:1039C0002F4805F075FC1021324805F07FFA2C488D
:1039D00005F06EFC1321304805F078FA2F4B28488B
:1039E000196805F0B5FC264805F062FC14212C4846
:1039F00005F06CFA224805F05BFC1E21294805F011
:103A000065FA1F4805F054FC1521274805F05EFAB9
:103A10001B4805F04DFC1E21244805F057FA1848B4
:103A200005F046FC2021224805F050FA144805F024
:103A30003FFC19211F4805F049FA114805F038FCF0
:103A400012211D4805F042FA0D4805F031FC0F2106
:103A50001A4805F03BFA0A4805F02AFC0D211848DF
:103A600005F034FA064805F023FC164A002101232C
:103A70001160236003B0F0BDBC94FF1F6892FF1F6C
:103A8000C487FF1F2C93FF1F6F12833AC094FF1F40
:103A900010110100181101002C1101002087FF1FD7
:103AA000401101005811010078110100901101002E
:103AB000B0110100D4110100F01101000412010045
:103AC000141201006C87FF1F23682868062B40F042
:103AD0008D80A0F13102402A3FF663AF01A151F879
:103AE00022F000BFD33F000021400000FD3F000056
:103AF0008B4000004B40000067400000A3390000ED
:103B0000A3390000A3390000A3390000A339000045
:103B1000A3390000A3390000A3390000A339000035
:103B2000A3390000A3390000A3390000A339000025
:103B3000A3390000A3390000A3390000A339000015
:103B4000A3390000A3390000A3390000A339000005
:103B5000A3390000A3390000A3390000A3390000F5
:103B6000A3390000A3390000A3390000A3390000E5
:103B7000A3390000A3390000A3390000A3390000D5
:103B8000A3390000A3390000A3390000A3390000C5
:103B9000A3390000A3390000A3390000A3390000B5
:103BA000A3390000A3390000A3390000A3390000A5
:103BB000A3390000A3390000A3390000A339000095
:103BC000A3390000A3390000A3390000A339000085
:103BD000A3390000A3390000A3390000A339000075
:103BE000A33900009B39000023682868052B15D1F4
:103BF000332801F0EB8140F34781352801F0D8816B
:103C0000C1F2C08171287FF4CCAED84A0023732062
:103C1000136023602860C4E623682868032B40F003
:103C2000A480A0F13002422A3FF6BBAE01A151F8B8
:103C300022F000BF413D00000D4700003547000065
:103C4000794600009B460000BD460000E5460000A6
:103C50005D4700007B4700009F470000A33900003C
:103C6000A3390000A3390000A3390000A3390000E4
:103C7000A3390000A3390000A3390000A3390000D4
:103C8000A3390000A3390000A3390000A3390000C4
:103C9000A3390000A3390000A3390000A3390000B4
:103CA000A3390000A3390000A3390000A3390000A4
:103CB000A3390000A3390000A3390000A339000094
:103CC000A3390000A3390000A3390000A339000084
:103CD000A3390000A3390000A3390000A339000074
:103CE000A3390000A3390000A3390000A339000064
:103CF000A3390000A3390000C74700006942000053
:103D000021480000E5470000034800003F4800004C
:103D100045420000A3390000A3390000A339000088
:103D2000A3390000A3390000A3390000A339000023
:103D3000A3390000A33900007F480000434600007B
:103D400005F09AF8002841F390808948894E05F0E3
:103D500041FC0127034601466222874873652760BC
:103D60002A60FDF781FD23682868012B7FF419AED6
:103D700082E5A0F13102402A3FF613AE01A151F8CD
:103D800022F000BFE740000039410000C1400000C0
:103D9000FF400000034100001F41000031410000CE
:103DA00035410000A3390000A3390000A339000009
:103DB000A3390000A3390000A3390000A339000093
:103DC000A3390000A3390000A3390000A339000083
:103DD000A3390000A3390000A3390000A339000073
:103DE000A3390000A3390000A3390000A339000063
:103DF000A3390000A3390000A3390000A339000053
:103E0000A3390000A3390000A3390000A339000042
:103E1000A3390000A3390000A3390000A339000032
:103E2000A3390000A3390000A3390000A339000022
:103E3000A3390000A3390000A3390000A339000012
:103E4000A3390000A3390000A3390000A339000002
:103E5000A3390000A3390000A3390000A3390000F2
:103E6000A3390000A3390000A3390000A3390000E2
:103E7000A3390000A3390000A3390000A3390000D2
:103E8000A33900009B390000312801F0308032282E
:103E90007FF487AD04F0F0FF00287FF7BDAE344813
:103EA000344E05F097FB01226B23C6F89800226080
:103EB0002B602F4805F0FCF92D4805F0F9F92C4846
:103EC00005F0F6F92A4805F0F3F9294805F0F0F96C
:103ED00021212A4804F0FAFF254805F0E9F91521C7
:103EE000274804F0F3FFD6F89010214805F030FA87
:103EF0000221244804F0EAFF1D4805F0D9F91E21EB
:103F0000214804F0E3FFD6F89810194805F020FA8C
:103F100003211E4804F0DAFF154805F0C9F91E21F7
:103F20001B4804F0D3FFD6F89410114805F010FA9E
:103F30000F4805F0BDF91D21164804F0C7FFD6F85B
:103F4000A0100B4805F004FA094805F0B1F91E214C
:103F5000114804F0BBFFD6F8A410054805F0F8F9A5
:103F6000034805F0A5F90523236083E56C94FF1F42
:103F7000C487FF1F2C93FF1FC094FF1FD00B0100AD
:103F8000F40B0100280B01000C0C01004808010093
:103F90002C0C01004C0C01006C0C010004F06CFFB7
:103FA000002840F385809A489A4E05F013FB07F0ED
:103FB000DDFC994907F02EFD96F8401003460246B5
:103FC00096487364FDF752FC012369202360286042
:103FD00052E404F051FF00287FF706AE8C488D4E66
:103FE00005F0F8FA07F0C2FC8D4907F0C7FD65231C
:103FF0000122706122602B6018463DE404F03CFF12
:1040000000287FF7F1AD8248824E05F0E3FA00EB1D
:104010008000430001226520F365226028602BE4C4
:1040200004F02AFF00287FF7DFAD7948794E05F0CC
:10403000D1FA07F09BFC7A4907F0A0FD6523012225
:10404000F06122602B60184616E4724AD2F8AC3058
:104050000133052BC8BF0023C2F8AC306520012313
:104060002360286008E404F007FF00287FF7BCAD58
:104070006748684E05F0AEFA65230122C6F8B00025
:1040800022602B601846FFF7F7BB04F0F5FE00280E
:104090007FF7AAAD5E485F4E05F09CFA00EB80000A
:1040A000430001226520336622602860FFF7E4BBED
:1040B00023682868FFF7BEBB564E96F840005EE4C2
:1040C000584A594F1368002B0CBF012300234FF0AF
:1040D00001001360206040F0B987034664222A6023
:1040E0006420FFF7A4BB514A1368B3FA83F35B095A
:1040F00001216420136021602860FFF7BDBB4C4A9A
:10410000F2E7444ED6F89C30B3FA83F35B09012200
:104110006420C6F89C3022602860FFF7ADBB012305
:104120003E482360FDF730FA424A23681060D5E725
:10413000414AD9E7414AD7E7414AD5E7FFF752F963
:1041400023682868FFF773BB324AD36F0133032B10
:10415000C8BF0023D3670123632023602860FFF7D3
:104160008BBB2C4EB36FB3FA83F35B090122632040
:10417000B36722602860FFF77FBB264ED6F88030F9
:10418000B3FA83F35B0901226320C6F88030226012
:104190002860FFF771BB0123236004F06DFE002847
:1041A000D9DD1B481B4E05F015FAC6F8A800D2E76A
:1041B0000123236004F060FE002807DD1448154E3B
:1041C00005F008FA07F0D2FBC6F88C0063202860DF
:1041D0002368FFF72FBB0123236004F04DFE002866
:1041E000F4DD0B480B4E05F0F5F907F0BFFBC6F800
:1041F0008800EBE70123236004F03EFE0028E5DDA4
:104200000348044E05F0E6F9A6F8B600DEE700BF65
:10421000C487FF1F2C93FF1F6F12833AC094FF1FA8
:1042200000007A449C94FF1FBC94FF1F5C94FF1F06
:104230009094FF1F7094FF1F6C94FF1F6492FF1FE8
:10424000B494FF1F04F018FE00280DDDC148C24ED3
:1042500005F0C0F907F08AFBC04907F08FFC012286
:104260006223306222602B6004F006FE002840F3D7
:10427000FC85B848B84E05F0ADF901226223B0665E
:1042800022602B60B34805F013F8B24805F010F82F
:10429000B04805F00DF8AF4805F00AF8AD4805F054
:1042A00007F81521AE4804F011FEAA4805F000F801
:1042B0001421AC4804F00AFEA64804F0F9FF1B21C3
:1042C000A94804F003FEA34804F0F2FF1321A74815
:1042D00004F0FCFD9F4804F0EBFF9E4804F0E8FF6B
:1042E0009C4804F0E5FF2021A14804F0EFFDF068B0
:1042F0009A4907F08FFB06F0E3FE002702460B46C3
:104300000097944805F02CF802219A4804F0DEFD4D
:104310000221994804F0DAFD8E4804F0C9FF2121FA
:10432000964804F0D3FD30698C4907F073FB06F022
:10433000C7FE009702460B46864805F011F8022199
:104340008C4804F0C3FD02218B4804F0BFFD814876
:1043500004F0AEFF1F218A4804F0B8FDB06A06F0F1
:10436000AFFE022502460B4600957A4804F0F8FF9E
:104370000121844804F0AAFD29467F4804F0A6FDE7
:10438000744804F095FF20217F4804F09FFDF06AF7
:1043900006F096FE009502460B466E4804F0E0FFDC
:1043A0000121784804F092FD2946734804F08EFDFF
:1043B000684804F07DFF2321744804F087FDB06C49
:1043C000664907F027FB06F07BFE009702460B4686
:1043D000604804F0C5FF2946664804F077FD294689
:1043E000654804F073FD5B4804F062FF1F216848D4
:1043F00004F06CFDF06C594907F00CFB06F060FE10
:10440000009702460B46534804F0AAFF2946594834
:1044100004F05CFD2946584804F058FD4D4804F06E
:1044200047FF19215B4804F051FDB16D494804F084
:104430008FFF2946584804F049FD29464E4804F0AC
:1044400045FD444804F034FF1821544804F03EFD73
:10445000706E07F08BFA524907F0DCFA06F030FE76
:10446000009502460B463B4804F07AFF01214D4877
:1044700004F02CFD2946404804F028FD354804F09E
:1044800017FF2B21484804F021FDB069334907F09C
:10449000C1FA06F015FE009702460B462D4804F0BF
:1044A0005FFF2946334804F011FD2946324804F0E5
:1044B0000DFD284804F0FCFE1F213C4804F006FDD9
:1044C000716D244804F044FF29462B4804F0FEFC9B
:1044D000204804F0EDFE2021354804F0F7FC316D52
:1044E0001C4804F035FF2946234804F0EFFC194826
:1044F00004F0DEFE10212F4804F0E8FCB16E1548F0
:1045000004F026FF29461B4804F0E0FC29461A481F
:1045100004F0DCFC0F4804F0CBFE1321264804F025
:10452000D5FCF16E0B4804F013FF0121234804F081
:10453000CDFC2946104804F0C9FC064804F0B8FE3A
:1045400010211F4804F0C2FC316F024804F000FF44
:10455000294637E0C487FF1F2C93FF1F00007A44D1
:10456000D80E0100F00E0100080F0100000A010042
:10457000240F0100FC09010094120100480F010002
:104580006C0F0100700501008C0F0100B00F0100DD
:10459000D40F0100F40F01001010010014100100ED
:1045A000CDCCCC3D900E0100301001005C1001001C
:1045B0007C100100A0100100B4100100C81001001F
:1045C000CC100100B14804F081FC2946B04804F049
:1045D0007DFCB04804F06CFE1421AF4804F076FC7A
:1045E000716FAC4804F0B4FE0121AC4804F06EFCDD
:1045F0002946A74804F06AFCA64804F059FE162193
:10460000A74804F063FC306AA64907F003FA06F0F5
:1046100057FD00970B4602469E4804F0A1FE29462E
:104620009A4804F053FC2946994804F04FFC9948F5
:1046300004F03EFE974804F03BFE03232360FFF79F
:1046400019BA994B9248994E002202211A6004F03F
:104650003DFC904804F02CFE0B21954804F036FCFC
:1046600002218B4804F032FC8A4804F021FE01222A
:10467000622322602B6005E604F0FEFB002840F375
:10468000F4838448894E04F0A5FF07F06FF90122F6
:104690006223B06222602B60F4E504F0EDFB002899
:1046A00040F3E3837B48814E04F094FF07F05EF90A
:1046B00001226223F06222602B60E3E504F0DCFB60
:1046C000002840F3D2837348784E04F083FF07F04C
:1046D0004DF9744907F052FA01226223B064226056
:1046E0002B60CFE504F0C8FB002840F3BE83694887
:1046F0006E4E04F06FFF07F039F96A4907F03EFA91
:1047000001226223F06422602B60BBE504F0B4FB5D
:10471000002840F3AA835F48644E04F05BFF07F073
:1047200025F9604907F02AFA01226223F06022602D
:104730002B60A7E504F0A0FB002840F396835548C2
:104740005A4E04F047FF07F011F9564907F016FAE0
:1047500001226223306122602B6093E504F08CFB20
:10476000002840F382834B48504E04F033FF01226F
:104770006223B06522602B6084E504F07DFB002895
:1047800040F373834348494E04F024FF00EB80005C
:10479000430001216222736621602A6072E504F001
:1047A0006BFB002840F361833A48404E04F012FF4F
:1047B00007F0DCF83B4907F0E1F901226223B06120
:1047C00022602B605EE504F057FB002840F34D8328
:1047D0003048364E04F0FEFE01226223306522602E
:1047E0002B604FE504F048FB002840F33E83294846
:1047F0002E4E04F0EFFE01226223306722602B6010
:1048000040E504F039FB002840F32F832148274E70
:1048100004F0E0FE01226223706722602B6031E524
:1048200004F02AFB002840F320831A481F4E04F0AE
:10483000D1FE01226223F06622602B6022E5FDF7A3
:1048400085FA02211248194E04F040FB114804F089
:104850002FFD02210E4804F039FB0E4804F028FD1C
:1048600002210B4804F032FB0A4804F021FD172115
:10487000104804F02BFB074804F01AFDF0E6002274
:10488000732322602B60FFF794B800BFFC0901007E
:1048900094120100C487FF1FE0100100C81001003E
:1048A000F810010000007A445492FF1F2C93FF1F60
:1048B000A809010090090100AF48B04D04F0F8FCD0
:1048C000AD4804F0F5FCAC4804F0F2FCAA4804F052
:1048D000EFFCA94804F0ECFC1521A94804F0F6FA15
:1048E000A54804F0E5FC1821A64804F0EFFA0023DF
:1048F0000A2295F84010A04804F0EAFC9E4804F013
:10490000D7FC2821A04804F0E1FA686C9F4907F021
:1049100081F806F0D5FB00250B4602460095964827
:1049200004F01EFD02219A4804F0D0FA924804F0E7
:10493000BFFC1321974804F0C9FA8F4804F0B8FC73
:1049400008232360FFF796B88B488C4E04F0B0FC28
:10495000894804F0ADFC884804F0AAFC864804F0BD
:10496000A7FC854804F0A4FC11218B4804F0AEFAA2
:10497000814804F09DFC2821884804F0A7FA70695A
:10498000824907F047F806F09BFB002502460B46DC
:104990000095794804F0E4FC02217D4804F096FA81
:1049A000754804F085FC16217D4804F08FFAF06903
:1049B000764907F02FF806F083FB00950B46024678
:1049C0006D4804F0CDFC0221714804F07FFA6A487A
:1049D00004F06EFCD6F8AC30AB4232DD1D217148DC
:1049E00004F074FAF06D06F0C1FF6F4907F012F899
:1049F00006F066FB022502460B4600955E4804F071
:104A0000AFFC0121694804F061FA5B4804F050FCF6
:104A10001F21674804F05AFA306E06F0A7FF62497A
:104A200006F0F8FF06F04CFB009502460B46524894
:104A300004F096FC01215D4804F048FA4E4804F069
:104A400037FC11215B4804F041FAD6F8AC30052B55
:104A500000F2C381DFE813F0F601FB01F101EC0184
:104A6000E701BD01444804F023FC434804F020FC66
:104A7000414804F01DFC404804F01AFC3E4804F094
:104A800017FC13214C4804F021FA3B4804F010FCB9
:104A90000D214A4804F01AFA374804F009FC0F21A6
:104AA000474804F013FA474B3348196804F050FCA8
:104AB000314804F0FDFB1321434804F007FA434B4F
:104AC0002D48196804F044FC2B4804F0F1FB122136
:104AD0003F4804F0FBF93F4B2748196804F038FCC5
:104AE000254804F0E5FB11213B4804F0EFF93B4B6E
:104AF0002148196804F02CFC1F4804F0D9FB0E2152
:104B0000374804F0E3F91D4B1B48D3F89C1004F020
:104B10001FFC194804F0CCFB1921324804F0D6F9E7
:104B2000314B1548196804F013FC134804F0C0FB1E
:104B300011212E4804F0CAF92D4B0F48196804F0D2
:104B400007FC0D4804F0B4FB10212A4804F0BEF91C
:104B5000294B0948196804F0FBFB074804F0A8FB3F
:104B600013210C4804F0B2F9034804F0A1FB04231C
:104B70002360FEF77FBF00BFC487FF1F2C93FF1F7A
:104B8000D8110100B4090100D009010000007A44E5
:104B9000FC090100000A01007C110100140A010057
:104BA000400A0100580A0100CDCCCC3D900E010016
:104BB000780A0100980A01008C0C0100A00C010089
:104BC000B00C01005C94FF1FC00C0100B494FF1FE7
:104BD000D40C01009C94FF1FE80C01009094FF1F6F
:104BE000FC0C01000C0D01007094FF1F280D01004A
:104BF0006C94FF1F3C0D01006492FF1FC448C54D1B
:104C000004F056FBC24804F053FBC14804F050FBCB
:104C1000BF4804F04DFBBE4804F04AFB1F21BE48CC
:104C200004F054F9BA4804F043FB1C21BB4804F0DB
:104C30004DF9686ABA4906F0EDFE06F041FA002621
:104C400002460B460096B24804F08AFB0221B548A2
:104C500004F03CF9AE4804F02BFB2321B24804F0E9
:104C600035F9E86BAE4906F0D5FE06F029FA009654
:104C700002460B46A64804F073FB0221A94804F043
:104C800025F9A34804F014FB1921A84804F01EF9E3
:104C9000A86B06F015FA02260B46024600969C48C1
:104CA00004F05EFB3146A24804F010F9984804F085
:104CB000FFFA19219F4804F009F9B5F8B410944897
:104CC00004F046FB03219C4804F000F9904804F0EE
:104CD000EFFA07232360FEF7CDBE03F0C1FBB82235
:104CE00000218C4802F036FD2868944AA0F1730038
:104CF00001210023B0FA80F0400911602360FEF723
:104D000056BE8348834E04F0D3FA814804F0D0FAAB
:104D10007F4804F0CDFA7E4804F0CAFA7C4804F0DB
:104D2000C7FA1F21864804F0D1F8794804F0C0FA88
:104D30001E21844804F0CAF8754804F0B9FA1A2113
:104D4000814804F0C3F8F36F022B00F09D81032B20
:104D500000F09281012B00F09F8109217B4804F033
:104D6000B5F86B4804F0A4FA14217948694F04F0AF
:104D7000ADF8B16F664804F0EBFA654804F098FAB4
:104D80001C21744804F0A2F8D6F88010604804F0A2
:104D9000DFFA5F4804F08CFA1C216F4804F096F8A3
:104DA000D6F8A8105A4804F0D3FA594804F080FA0B
:104DB000F56F25F00205012D00F0198113216748D8
:104DC00004F084F8524804F073FA02232360FEF7DB
:104DD00051BE0F21624804F079F84D484D4D04F062
:104DE00067FAD6F8AC30002B0FDD18215D4804F0CF
:104DF0006DF8D5F8B010464804F0AAFA02215A48D6
:104E000004F064F8424804F053FA414804F050FAC0
:104E10001321524804F05AF83D4804F049FA062399
:104E20002360FEF727BE0D21504804F04FF8D4E769
:104E30000D214F4804F04AF8CFE70C214D4804F00B
:104E400045F8CAE70D214C4804F040F8C5E70C21AD
:104E50004A4804F03BF8C0E72368002B08BF7328DA
:104E60000CBF01200020FEF7A2BD23682868012B9B
:104E70007EF497ADFEF700BD03F0FEFF00287EF73D
:104E800023AE2348234E04F0A5FB61230122A6F89C
:104E9000B40022602B601846FEF7EEBC03F0ECFF76
:104EA00000287EF711AE1A481A4E04F093FB06F064
:104EB0005DFD61230122B06322602B601846FEF77E
:104EC000DBBC03F0D9FF00287EF7FEAD1048114E81
:104ED00004F080FB06F04AFD294906F09BFD6123A2
:104EE0000122706222602B601846FEF7C5BC03F0F9
:104EF000C3FF00287EF790AE0548064E04F06AFB1B
:104F000001226B23C6F8900022602B60FEF7D1BF10
:104F1000C487FF1F2C93FF1F2C0B01004C0B0100BB
:104F200000007A44FC0901006C0B0100900B0100A9
:104F3000AC0B0100B00B0100CC0B01006C87FF1F14
:104F4000500D0100700D0100900D0100080E0100D0
:104F5000140E01002C0E01004C0E0100000A01008D
:104F6000FC0A01000C0B0100280B0100EC0A0100F7
:104F7000DC0A0100CC0A0100AC0A0100BC0A0100F5
:104F80006F12833A03F078FF00287EF745AE584849
:104F9000584E04F01FFB584BC6F8A00002221A60BE
:104FA000FDF702FA01226B2322602B60FEF781BF1E
:104FB00003F062FF00287EF72FAE4D484D4E04F0FF
:104FC00009FB4D4BC6F8A4000322E8E703F054FFA9
:104FD00000287EF721AE4648464E04F0FBFA012237
:104FE0006B23C6F8940022602B60FEF762BF1C2181
:104FF000424803F06BFFD7F88C00414906F00AFDE8
:1050000006F05EF8009502460B46394804F0A8F910
:1050100005213C4803F05AFF354804F049F9FD6F7B
:10502000012D41D0032D7FF4C9AE1C21364803F079
:105030004DFFB6F8B6102E4804F08AF90321334824
:1050400003F044FF2A4804F033F9B7E6304B00265A
:1050500031460B201E6002F049FE31460C2002F062
:1050600045FE3146142002F041FE3146152002F083
:105070003DFE3B68FFF732B82021264803F026FFAB
:105080001B4804F015F96FE61721234803F01EFFB3
:10509000174804F00DF967E61E21204803F016FFBB
:1050A000134804F005F95FE61D211D4803F00EFFCB
:1050B000D7F88800124906F0ADFC06F001F800951B
:1050C0000B4602460A4804F04BF905210D4803F04F
:1050D000FDFE074804F0ECF8FB6F23F00203012B00
:1050E000A3D06BE6034EFEF7E4BE024EFFF7CAB84C
:1050F000C487FF1F2C93FF1F6C94FF1F6C0E0100D1
:10510000CDCCCC3D8C0E0100B40E0100D40E0100BC
:10511000B094FF1FCC0D0100F00D0100AC0D01009B
:10512000940E010038B5164C164A2368101D12F86B
:10513000011F904241EA0323F9D12360124C03F18D
:1051400000432360114BDB6F022B11D0104B1B6807
:10515000012B00D038BD0F4804F0AAF821680D4893
:1051600004F0F6F803210C48BDE8384003F0AEBE69
:1051700020680A4D06F0FAFB2860FDF7ADFBE5E775
:105180003C92FF1F7B92FF1F8094FF1F2C93FF1FF9
:105190005C94FF1FC487FF1F241201005C92FF1F55
:1051A00030B53F4C3F4883B0214601F0F1FA236807
:1051B00040F2C232934258D06FF4C0615A18B2F52F
:1051C000FF7F4CD903F100436FF4C0621344B3F581
:1051D000FF7F3FD9344B1B68012B01D003B030BD9A
:1051E000324B1B68012BF9D1314B32481B680193BC
:1051F0000A220023019904F06BF82268284B002A48
:10520000DB7945DB2C492D4807F0E2FB2B4807F002
:1052100017FC0146294803F059FE2568204B15F07C
:10522000804526D1DB798BB1631925491A7A234849
:1052300007F0CEFB214807F003FC01461F4803F0AE
:1052400045FE0135E379EDB2AB42EDD8194804F0E3
:105250002FF8C3E712491B48FCF7BCF9BAE710491D
:105260001848FCF7B7F92368ACE7FFF75BFF236842
:10527000A2E7154D114C0FCD0FC495E8030044F87B
:10528000040B204620F81419152103F01FFEDDE75A
:105290000E490A4822F0604207F09AFBB6E700BFC9
:1052A0007492FF1F4CC1FF1F6C87FF1F5C94FF1F90
:1052B000F4C2FF1FC487FF1F501201008492FF1F1A
:1052C0007C120100C094FF1F64120100281201002B
:1052D0002DE9F84F7E4B7F4C1B78052B08D07E487C
:1052E000FCF7E2FAE16A06F033FD002800F0818065
:1052F0007A4E7B4D002333602B607A4B76481B68D7
:10530000744F012B33D0FCF789FAE169804660695C
:1053100006F076FA0146404606F038FD00283AD1FC
:105320006D48FCF77BFAE16806F030FD08B1002318
:105330002B606948674FFCF74BFA216906F008FDBE
:1053400048B1002333602B68654A002BBCBF0023A3
:105350001360BDE8F88F6048FCF73AFAB96906F0C7
:10536000F7FC0028EDD13368002BEADBEBE7FCF714
:1053700055FAE1698046206A06F042FA0146404645
:1053800006F004FD0028CBD05348FCF747FAD7F8C5
:105390002090834605E05048FCF740FAD7F8149077
:1053A0008346F969484606F02BFA8246F86D06F006
:1053B000DDFA8046386E06F0D9FA414606F020FA4A
:1053C00051460746584606F01BFA0146384606F095
:1053D00021FB51460746484606F012FA0146384678
:1053E00006F0CCFB414606F00DFA06F0EFFC286013
:1053F00096E73948FCF758FA216B06F0A9FC20B370
:10540000364E636E34483360FCF74EFA8146E06DE9
:10541000E76A334D06F0AAFA39468046484606F058
:10542000EFF90146404606F0F5FA39468046206B12
:1054300006F0E6F90146404606F0A0FB002106F022
:10544000E1F906F0C3FC286057E72348FCF72CFA83
:10545000616B06F07DFC30B1204E214D626EE36D34
:1054600032602B6049E71C48FCF71EFAA16A06F07F
:105470006FFC00283FF43CAF1748184E184DFCF75E
:1054800013FA8146606ED4F8348006F06FFA414614
:105490000746484606F0B4F939468146002006F032
:1054A000AFF90146484606F0B5FA41468146A06A82
:1054B00006F0A6F90146484606F060FB394606F0BC
:1054C000A1F906F083FCE36D30602B6015E700BFA7
:1054D0007894FF1F2C93FF1FC094FF1F8494FF1F1D
:1054E0004492FF1F6092FF1F08B5274803F0E0FEBB
:1054F0000721264803F0EAFC112002F0FDFB0621FB
:10550000F8B1234803F0E2FC122002F0F5FB06217B
:1055100000B3204803F0DAFC122002F0EDFB062174
:1055200008B31D4803F0D2FC132002F0E5FB06216E
:1055300010BB1A4803F0CAFC1348BDE8084003F04A
:10554000B7BE174803F0C2FC122002F0D5FB0621BB
:105550000028DED1134803F0B9FC122002F0CCFB86
:1055600006210028DDD1104803F0B0FC132002F022
:10557000C3FB06210028DCD00C4803F0A7FC02483E
:10558000BDE8084003F094BEC487FF1F88120100E5
:1055900090120100A0120100B0120100C812010017
:1055A00098120100A8120100B8120100C0120100F7
:1055B00010B5254C2368042B27DC01210B2002F0B9
:1055C00095FB01210C2002F091FB0121142002F037
:1055D0008DFB0121152002F089FBFF21162002F02E
:1055E00005FAFF21172002F001FAFF21052002F041
:1055F000FDF9FF21062002F0F9F9236801330A2B97
:105600002360C4BF0023236010BD00210B2002F0E3
:105610006DFB00210C2002F069FB0021142002F038
:1056200065FB0021152002F061FB0021162002F02D
:10563000DDF90021172002F0D9F90021052002F040
:10564000D5F90021D6E700BF9894FF1F2DE9F0415E
:105650008B4DD5F8AC30042B3ED0032B6ED0012BF4
:1056600000F09880022B01D0BDE8F081854C86487F
:10567000237240F20E32012321462260E37101F0D1
:105680008FF9824B1B685B00FF2BC8BFFF230421EF
:1056900040224FF441702060E17122726372286DE4
:1056A00006F064F9696906F0B5F97949054606F02E
:1056B0006DFB002800F0DA802946284606F0A2F8A3
:1056C00006F0AAFB80B20312E072A3726D496E4825
:1056D000BDE8F04101F064B96A4C6E4AA3792260DA
:1056E00043F001030822E271A371286D06F03EF930
:1056F000696906F08FF9684906F08CF906F08CFBB1
:10570000624B664A1B68126893FBF2F380B2002674
:105710001A120712607221465B48E372A272277266
:1057200026736673A673E67301F03AF9A279D5F889
:10573000AC3066F30002032BA27190D1514C286D5E
:10574000A3720122E823072140F2FF26227263722E
:105750002660E17106F00AF9696906F05BF94E49C5
:1057600006F058F906F058FB484B4C4A1B68126883
:1057700093FBF2F382B21E12171221464248637362
:10578000E2722773A67301F00BF9D5F8AC30012B48
:105790007FF468AF424B3B4C1B6823600722802399
:1057A0001020E271237202F0A7FA002865D13D4B68
:1057B0001B68DFF8D880394F286D324E03EB830326
:1057C0005B001A12A3726272D8F800303A6893FB39
:1057D000F2F31A126273A37306F0C8F8696906F04F
:1057E00019F9314B196806F00BF82B4906F012F93C
:1057F00006F012FB80B20312314620732248E37296
:1058000001F0CEF8022002F0ADFA284B1B682360AD
:10581000072280231020E271237202F06DFA50BB40
:10582000204B1B68286D03EB83035B001A12B372D5
:10583000727206F09BF8696906F0ECF8164906F0FA
:10584000E9F806F0E9FA82B216123868D8F80030A2
:10585000227393FBF0F30B490B48A3731A12E67201
:10586000627301F09DF8D5F8AC30FBE6012290237D
:10587000A272E3722AE70E4BD3E70D4B98E700BF05
:105880002C93FF1FA094FF1F4CC1FF1F4492FF1FCA
:1058900000004843F4E50618000020414887FF1F38
:1058A0006487FF1F4087FF1F5C87FF1F3087FF1F34
:1058B0004487FF1F2DE9F04790B001E0FFF770FC2F
:1058C000AC4800F02FFF0028F8D103F0D5FA0028EB
:1058D00001DDFDF79FFFA84EA84D3368012B13D0C3
:1058E000FDF798FCD5F89C40012C00F06B81A44F8B
:1058F0003B78052B00F2A880DFE813F0CC00A8006D
:105900001801F000350194009E4C23689E4A0793CD
:10591000079B11689B4F5B1AB3F5FA7F30D8236859
:105920000C930C9B994A23680B930B9B1068D5F83A
:10593000B010944E914D1B1A8B420DD933680D93C4
:10594000D5F89C300D991160012B00F0B4818C4B7F
:105950001B78032B00F0AF8123688D4A0E938D498D
:105960000E9B10680968874C1B1A8B4205D9236867
:105970000F930F9B1360FDF7EFFE10B0BDE8F087AB
:105980003B680893089B84481360FBF75DFED5F8DD
:105990009C30DFF8E8818048012B00F09C81FBF708
:1059A00017FFD8F8101006F0D3F9002800F0638133
:1059B00023687A4A0993099B12689A4202D9704B6C
:1059C00005221A70764B1B68002B40F07E81754BC8
:1059D0001B68002B40F07581734B1B68002B40F057
:1059E0006D813368002B00F06381FFF7E1FD6F4E9E
:1059F000FDF722FAFFF76CFCFDF7A6FD3368664859
:105A0000002B40F04B81FBF7BFFD3060FCF736FC0C
:105A100072B6674B4AF202614BF2804219801A80DB
:105A200062B67CE7634B002212201A6002F064F930
:105A3000012808BF03234FF0110008BF3B7002F09C
:105A40005BF9002800F079814E4C3EE0594B5248FA
:105A50004A4C00221A60FBF7E1FEA96C06F096F9A9
:105A6000002840F05581544B00221A60122002F0A9
:105A700043F9012800F02282112002F03DF90128AB
:105A8000404C22D122684D4B0692069A1A6004239C
:105A90003B701AE0474B3B4C4FF000084146152045
:105AA000C3F8008002F022F94146142002F01EF9EA
:105AB00041460C2002F01AF941460B2002F016F97B
:105AC0003F4A0123C2F800803B70EB6F23F00203D2
:105AD000012B7FF41AAFFCF7FFFE16E7354B0022CF
