:1000000000800020BD010000998A0000518A000094
:10001000518A0000518A0000518A0000518A000074
:10002000518A0000518A0000518A0000998A00001C
:10003000998A0000518A0000A9800000AD8100006B
:10004000998A0000998A0000998A0000998A000024
:10005000998A0000998A0000998A0000998A000014
:10006000998A0000998A0000998A0000998A000004
:10007000998A0000998A0000998A0000998A0000F4
:10008000998A0000998A0000998A0000998A0000E4
:10009000998A0000998A0000998A0000998A0000D4
:1000A000998A0000998A0000998A0000998A0000C4
:1000B000998A000015760000217600002576000060
:1000C000317600003576000039760000998A00000C
:1000D000998A0000998A0000998A0000998A000094
:1000E000998A0000998A0000998A0000998A000084
:1000F000998A0000DDAB0000998A00008D9700000E
:10010000998A000059990000998A0000998A000094
:10011000998A0000998A0000998A0000998A000053
:10012000998A0000998A0000998A0000998A000043
:10013000998A0000998A0000998A0000998A000033
:10014000998A0000998A0000998A0000998A000023
:10015000998A0000998A0000998A0000998A000013
:10016000998A0000E99B0000998A0000998A0000A2
:10017000998A0000998A0000998A0000998A0000F3
:10018000998A0000998A0000998A0000998A0000E3
:10019000998A0000998A0000998A0000998A0000D3
:1001A000998A0000998A0000998A0000998A0000C3
:1001B000998A0000998A0000998A0000564B4CF2F7
:1001C000205210B51A804DF628121A8000BF00BFC9
:1001D00008F066FC514B4FF010621A60504A9A606A
:1001E000504ADA60504A136813F4807304D14F49BF
:1001F0000B604FF4A85313604D4B1A78110703D5C9
:100200001A7842F008021A704A4B4B492A221A7097
:100210004A4A4B4B8B4204D252F8040F43F8040B6A
:10022000F8E7484B484900228B4202D243F8042B9E
:10023000FAE74649464A002352F8230041F82300D2
:1002400001336F2BF8D1434B434A802103F8011B44
:100250009342FBD1414B3D4A1A60414B8A221A70AE
:10026000A3F5805324225A70A0221A709A7992071B
:10027000FCD59A79D406FCD43A4A937903F00C035E
:10028000082B384BF9D103221A7140225A719A79FE
:100290009006FCD5334A9179324B4906FBD5324A58
:1002A000324911600221516020221A709A7902F0BD
:1002B0000C020C2AFAD12E4B2E4A1A602E4B2F4AD2
:1002C0001A6000225A60072243F8042C2C4AC3F813
:1002D0000C2D62B608F0C4FE144B1B68DA0705D576
:1002E000284808F0A1FC284B284A1A60284B1B78A4
:1002F0005B0609D5244C254B22689A4204D121483B
:1003000008F092FC002323600BF04CFF08F0CEFBBA
:1003100008F0FCFAFEE700BF0E20054030800440E4
:10032000823F04000100002B10D0034014D0034092
:1003300002D0074000E007402892FF1FA41E0100E2
:100340002087FF1F2892FF1F9CC7FF1F0082FF1FEF
:100350000000000000E400E05FE400E008ED00E0E1
:100360000050064000400640448004400000030165
:1003700004800440C010050014E000E0FF76010096
:1003800000002020B3BB5E5E1CE00340A5C3945A6E
:1003900000F00740FFFFFFFFFFFFFFFFFFFFFFFF32
:1003A000FFFFFFFFFFFFFFFFFFFFFFFFFFFFFFFF5D
:1003B000FFFFFFFFFFFFFFFFFFFFFFFFFFFFFFFF4D
:1003C000FFFFFFFFFFFFFFFFFFFFFFFFFFFFFFFF3D
:1003D000FFFFFFFFFFFFFFFFFFFFFFFFFFFFFFFF2D
:1003E000FFFFFFFFFFFFFFFFFFFFFFFFFFFFFFFF1D
:1003F000FFFFFFFFFFFFFFFFFFFFFFFFFFFFFFFF0D
:10040000FFFFFFFFFFFFFFFFFFFFFFFFDEF9FFFF23
:1004100010B5054C237833B9044B13B10448AFF33E
:1004200000800123237010BD2892FF1F00000000F0
:10043000A01E0100084B10B51BB108490848AFF3D6
:1004400000800848036803B910BD074B002BFBD0A0
:10045000BDE81040184700BF000000002C92FF1FAD
:10046000A01E01002892FF1F00000000F0B400F160
:100470001C06144F00243146031F00F13C0243F8D0
:10048000044FB34241F8047F4FF0000542F8044F97
:10049000F5D100230C4A0D49056645668566C5669B
:1004A000056745678567C0F88850C267C0F8842033
:1004B000C0F8801080F8943080F8953080F8AC3027
:1004C000F0BC70470000A040000048430000C8C2D4
:1004D00090F89C00704700BF90F89800704700BFEC
:1004E00090F8A000704700BF90F8A400704700BFCC
:1004F000082994BF50F821000020704790F8B400FC
:10050000704700BF2DE9F0410B4E8046041F00F1FB
:100510001C0754F8045F314628460BF0CFFD30B17C
:10052000D8F88C1028460BF0E7FD00B12E46BC42EF
:10053000EFD13046BDE8F081000020412DE9F041C7
:10054000D0F88C704FF00008041F00F11C0654F81E
:10055000045F394628460BF0CFFD084948B12846CC
:100560000BF0ACFD414620B128460BF0C5FD00B1B3
:10057000A846B442EBD14046BDE8F081000070428D
:100580002DE9F047D0F88C7082464FF00009041F27
:1005900000F11C064FF0000854F8045F3946284665
:1005A0000BF0AAFD0C4950B128460BF087FD30B185
:1005B000484629460BF0DCFA08F101088146B442AE
:1005C000EAD1CAF8B08040460BF086FB01464846A7
:1005D0000BF08AFCBDE8F08700007042D0F8B00054
:1005E000704700BF38B5846E456E214628460BF033
:1005F00065FD00B92C46204638BD00BFD0F8A830B4
:100600002DE9F041002B79D1866E456E04463146C6
:1006100028460BF0ADFAE76E394680460BF0A8FA93
:100620007E490BF061FC4FF07C5104460BF064FDF9
:10063000002861D04FF07C5128460BF05DFD4FF053
:100640007C51002860D128460BF038FD38B14FF0BE
:100650007C5130460BF050FD002840F0A7804FF051
:100660007C5128460BF048FD002860D14FF07C51AA
:1006700028460BF041FD002840F0A1804FF07C514E
:1006800028460BF039FD00286CD14FF07C512846EC
:100690000BF014FD4FF07C5110B330460BF02CFDE5
:1006A00038B14FF07C5138460BF008FD002840F07F
:1006B000B0804FF07C5130460BF000FD002861D037
:1006C0004FF07C5138460BF017FD002840F0A38016
:1006D00038464FF07C510BF0F1FC68B1504C10E003
:1006E00028460BF0EBFC0028E3D128464FF07C5164
:1006F0000BF0E4FC002845D1BDE8F08100EB83005D
:10070000046E2046BDE8F08130460BF0F5FC4FF05A
:100710007C5100283ED038460BF0EEFC0028F0D18A
:100720004FF07C5128460BF0C9FC002859D14FF0FE
:100730007C5130460BF0C2FC002840D04FF07C5179
:1007400038460BF0D9FC002841D14FF07C5130469F
:100750000BF0D2FC68B14FF07C5138460BF0AEFC88
:1007600000284FD14FF07C5130460BF0A7FC0028F9
:100770008BD04FF07C5138460BF0A0FC002884D081
:100780002C46BEE730464FF07C510BF097FC00281A
:10079000B2D09DE728460BF091FC0028C7D04FF05F
:1007A0007C5130460BF0A8FC0028C0D04FF07C51A3
:1007B00038460BF0A1FC00283FF451AF18E04FF091
:1007C0007C5130460BF098FC0028CBD0C3E739466B
:1007D00028460BF0CDF94FF07C510BF0D1FA0446CE
:1007E0008FE74FF07C5138460BF086FC00289ED0F6
:1007F000394630460BF0BCF94FF07C510BF0C0FA93
:1008000004467EE740464FF07C510BF0B9FA0446AF
:1008100077E7344675E73C4673E700BF0000404089
:100820000000A0C270B50446FFF7E8FE4FF07C510F
:100830000BF062FC28B3666E4FF07C5130460BF033
:100840005BFCA56EF0B9E46E4FF07C5128460BF0CE
:1008500053FC58B1294630460BF04EFC30B12146CE
:1008600028460BF02BFC08B12C4620E04FF07C51C1
:1008700020460BF041FC20B1284621460BF03CFC01
:1008800078B970BD304629460BF018FCE46E00289C
:10089000DAD0304621460BF011FC0028D4D0344683
:1008A00005E0304621460BF027FC0028E9D0204621
:1008B00070BD00BF01392DE9F84380461546032974
:1008C00000F20281DFE801F0C6956402537B107BE1
:1008D000D8F8904003EB00200BF0FEF97C490BF0B8
:1008E0004FFA21460BF044F9C8F81800EB7BA87BBF
:1008F00003EB00200BF0F0F975490BF041FA2146AB
:100900000BF036F9D8F86860D8F86470D8F8004071
:10091000C8F81C004046FFF785FFD8F87C10054654
:100920000BF0CCFB08B1C8F87C50394630460BF0D0
:10093000E3FB002840F0BF803946D8F880000BF078
:10094000BDFB10B13E46C8F8806008F12006C146E4
:1009500008F14005002701E059F8044F30682146AE
:100960000BF0CAFB0137214628B1D8F88C000BF0F8
:10097000AFFB00B13460214628680BF09FFB0436C2
:1009800000B12C60082F05F10405E5D1BDE8F8831E
:10099000507A32380BF0A0F9C8F87400A87A3238CF
:1009A0000BF09AF9C8F878006B7B287BD8F8904058
:1009B00003EB00200BF090F945490BF0E1F92146DB
:1009C0000BF0D6F8C8F81000EB7BA87B03EB0020F7
:1009D0000BF082F93E490BF0D3F921460BF0C8F831
:1009E000D8F86860C8F81400D8F86470D8F80040E7
:1009F00090E7507A32380BF06FF9C8F86C00A87A9B
:100A000032380BF069F9C8F870006B7B287BD8F896
:100A1000904003EB00200BF05FF92D490BF0B0F98B
:100A200021460BF0A5F8C8F80800EB7BA87B03EB88
:100A300000200BF051F926490BF0A2F921460BF0EA
:100A400097F8D8F86860C8F80C00D8F86470D8F83F
:100A500000405FE7137AC0F8B430907A32380BF078
:100A60003BF9C8F864000746E87A32380BF034F9ED
:100A7000C8F868006B7BD8F890900646287B03EB9B
:100A800000200BF029F912490BF07AF949460BF0D6
:100A90006FF8C8F80000EB7B0446A87B03EB00204E
:100AA0000BF01AF90A490BF06BF949460BF060F8A4
:100AB000C8F804002EE7D8F8801030460BF01CFB75
:100AC00000287FF440AF40E7866E476E046821E758
:100AD0000AD7233C2DE9F8430026D0F88C8006661F
:100AE0008146044600F1200754F8045B414628463D
:100AF0000BF002FB084950B128460BF0DFFA30B189
:100B0000304629460BF034F80646C9F86000BC426E
:100B1000EAD13046BDE8F8830000704205299ABF4B
:100B200000EB8100406E0020704700BF3E2998BF57
:100B300080F8AC10704700BF90F89400704700BF79
:100B4000C0F8A810704700BF80F89410704700BF2D
:100B5000C0F88C10704700BFC0F89010704700BFFD
:100B600070B500F535550646303500F128042046AD
:100B7000B834FFF77BFCAC42F9D106F1E005012463
:100B800028460021FFF7E0FF214628460134FFF701
:100B9000CDFF3F2C05F1B805F2D142F6785400257F
:100BA0000548064A064B3555002130617161B26136
:100BB000F361304670BD00BF00007A440000484336
:100BC0000000C8C2012070472DE9F04142F67C5375
:100BD00000F53556374600228046C25030363C3745
:100BE00000F1E00402E0B834B4420DD02046FFF733
:100BF000A3FF0028F7D020463D68FFF7EFFCB8348C
:100C00002844B4423860F1D142F67C5358F80300CE
:100C1000BDE8F081F8B50E46096801F47F6500294A
:100C20000446A5F5C06511DB2D0901F00F07B823B7
:100C300003FB0544283420460121FFF785FF324697
:100C400039462046BDE8F840FFF734BE0A4801F0B7
:100C50000F0707F05BFB1221084809F05BFE3168C3
:100C6000054801F0004100230A2207F05FFB02481B
:100C70002D0907F04BFBDAE7C487FF1F580301007B
:100C80002DE9F0430446002383B0064644F8E03BD8
:100C9000012504E001353F2D04F1B80466D020465B
:100CA000FFF74AFF0028F5D04E4805F033FF2946EC
:100CB0004D4805F02FFF2046FFF70CFF0AF0B6FB6A
:100CC00002460B46494805F025FF2046FFF71AFC6F
:100CD00080462046FFF732FC074640460AF0A6FB56
:100CE0008046384689460AF0A1FB42464B46CDE98C
:100CF00000013F4805F00EFF00212046FFF70EFFE0
:100D0000012180462046FFF709FF074640460AF0CA
:100D10008DFB8046384689460AF088FB42464B46A2
:100D2000CDE90001334805F0F5FE2046FFF7D2FE7D
:100D3000014630680AF01CFF30602046FFF772FD64
:100D4000B1690BF0BBF9002833D12046FFF74AFC0C
:100D5000F1690BF0D1F900289CD02046FFF742FC46
:100D600001353F2DF06104F1B80498D170680AF0A4
:100D7000B3FF014630680BF0B7F871693060044684
:100D80000BF0BAF900B17461316920460BF096F9A5
:100D900000B134610B2008F0DFF842F67853F35CC1
:100DA00060B99BB142F678530122F25403B0BDE81A
:100DB000F0832046FFF736FDB061C6E753B942F62F
:100DC00078530022F25403B0BDE8F0830A4805F0DE
:100DD000CFFEE7E7094805F0B5FE42F6785300225A
:100DE000F254F0E7D80A01006C030100A8030100E7
:100DF000BC030100E8030100040401003C040100FD
:100E000070B5114B836000F535550646303500F15D
:100E1000E00402E0B834AC4213D02046FFF78CFE69
:100E20000028F7D02046FFF76DFBB1680BF046F9BC
:100E30000028EFD02046FFF765FBB834AC42B06025
:100E4000EBD1B06870BD00BF0000A04070B50023BA
:100E500000F535550646C360303500F1E00402E088
:100E6000B834AC4213D02046FFF766FE0028F7D016
:100E70002046FFF763FBF1680BF03EF90028EFD046
:100E80002046FFF75BFBB834AC42F060EBD1F06872
:100E900070BD00BF00687047416070472DE9F041A8
:100EA000044604F5365542F684501F462150184634
:100EB0002A60884616460BF029F942F68C5304F551
:100EC0003555E0503035E03402E0B834AC4213D050
:100ED0002046FFF731FE0028F7D020464146FFF7B5
:100EE0002FFE20463146FFF733FE20463946B83400
:100EF000FFF732FEAC42EBD1BDE8F0812DE9F843BB
:100F000042F6745300F535550027C7502E462A4A3D
:100F10002A4B426280464FF0000903623035343676
:100F200000F1E00402E0B834A54213D02046FFF7F8
:100F300003FE0028F7D03368013333602046FFF703
:100F40005DFB1F490BF0D8F888B9B834A54207F10A
:100F50000107EBD142F6745358F80300C01B0AF0A6
:100F6000BBFE014648460AF0BFFFBDE8F8832046B5
:100F7000FFF744FB014648460AF0FAFD8146204649
:100F8000FFF730FBD8F820100BF0B6F870B9204608
:100F9000FFF748FCD8F824100BF090F80028C2D0D6
:100FA0002046FFF73FFCC8F82400BCE72046FFF7C7
:100FB00019FBC8F82000EAE700C0794400C079C4F2
:100FC00000008CC2006A7047406A7047F8B500F5AF
:100FD000355507460026303500F1E00402E0B8340C
:100FE000AC420FD02046FFF7A7FD0028F7D02046DF
:100FF000FFF7C6FA014630460AF0BAFDB834AC42F3
:101000000646EFD142F67453F8580AF065FE0146E1
:1010100030460AF069FFF8BD2DE9F04F91B0064661
:1010200094480F91934605F01DFD924805F01AFD76
:10103000904805F017FD42F67453304656F8038089
:10104000FFF7C2FD07463068D6F804900AF0EEF9C3
:1010500002460B463046CDE90C23FFF7B7FF824628
:101060003046B468F568FFF749FF0AF0DFF9CDE9CB
:101070000A01214628460AF079FD7F490AF080FEE0
:101080000AF0D4F9CDE9080128460AF0CFF9CDE9F4
:10109000060120460AF0CAF9CDE9040150460AF0DB
:1010A000C5F9DDE90C23CDE90201CDE90023414674
:1010B0004B463A46714805F0D5FC6E4805F0D2FC27
:1010C0000023E03601270C9305E001373F2F06F19E
:1010D000B80600F0BF803046FFF72EFD0028F4D0A0
:1010E0003046FFF7F5F93046FFF7F6F93046FFF7DF
:1010F000F7F93046FFF7F8F93046FFF7FFF9082116
:1011000082465F4809F006FC39465E4807F04EF912
:10111000092F40F3AA8002215B4809F0FBFB30460F
:10112000FFF7D8FC0AF082F99DF83C80CDF80080EA
:101130000B460246534807F043F90121534809F092
:10114000E9FB3B460C9C474600254FF001099846B9
:101150002EE006214E4809F0DDFB2146494807F004
:1011600025F902214B4809F0D5FB29463046FFF707
:10117000BFF90AF05BF900970B460246414807F0B9
:101180001FF9012141480C4409F0C4FB09FA05F399
:10119000BBF1000F09D013EA0A0F4FF002013E48DD
:1011A00004BF3E48022109F0B5FB0135082D06D0E9
:1011B000092CCEDC01213A4809F0ACFBC9E73148E3
:1011C00007F0A4F80921374809F0A4FB00213046B4
:1011D000FFF7A4FC0AF02AF9022402460B46009409
:1011E000284807F0EDF80A212F4809F093FB012168
:1011F0003046FFF793FC0AF019F9009402460B46BB
:10120000204807F0DDF80A21284809F083FB214631
:101210003046FFF783FC0AF009F90B460C9900945D
:101220000246083117480C91474607F0C9F8BBF150
:10123000000F12D00D211E4809F06CFB0137224629
:10124000514600230F4807F071F83F2F06F1B8060A
:101250007FF441AF11B0BDE8F08F0121154809F0CE
:1012600059FB084807F052F82FE701210C4809F014
:1012700051FB50E7D80A010000007A44EC06010057
:101280008C070100C487FF1FDC16010098070100CE
:101290009C07010058090100A4070100A8070100EC
:1012A00068090100AC070100B8070100C40701008C
:1012B000D0070100E00701002DE9F04F85B000F1F3
:1012C000E0058A4603929B462E464FF0010806E051
:1012D00008F10108B8F13F0F06F1B8067BD030469F
:1012E000FFF72AFC0028F3D000230A2251467D484C
:1012F00007F01CF801217C4809F00CFB03980AF068
:1013000095F800230246009376480B4607F058F8FC
:101310000121754809F0FEFA5946724807F046F86F
:101320000121714809F0F6FA41466E4807F03EF88F
:1013300001216D4809F0EEFA00244FF00209214620
:101340003046FFF7D5F80AF071F8CDF80090024664
:101350000B46644807F034F801340121624809F073
:10136000D9FA082C4FF00207E9D100213046FFF7E7
:10137000D5FB0AF05BF8009702460B46594807F088
:101380001FF80121584809F0C5FA01213046FFF73E
:10139000C5FB0AF04BF8009702460B46514807F090
:1013A0000FF80121504809F0B5FA39463046FFF7E9
:1013B000B5FB0AF03BF8009702460B46494806F099
:1013C000FFFF08F10108474806F0A0FFB8F13F0F02
:1013D00006F1B80683D101274FF0000904E0013778
:1013E0003F2F05F1B80579D02846FFF7A5FB002867
:1013F000F5D000230A2251463C4806F097FF012110
:10140000394808F0BFF803980AF010F8CDF80090BA
:1014100002460B46354806F0D3FF0121324808F05A
:10142000B1F85946314806F0C1FF01212E4808F0B5
:10143000A9F839462D4806F0B9FF01212A4808F0DD
:10144000A1F800244FF0020821462846FFF750F883
:1014500009F0ECFFCDF8008002460B46234806F069
:10146000AFFF01340121204808F08CF8082C4FF020
:101470000206E9D100212846FFF750FB09F0D6FF0C
:10148000009602460B46194806F09AFF01211648BD
:1014900008F078F801212846FFF740FB09F0C6FF65
:1014A000009602460B46114806F08AFF01210E48BD
:1014B00008F068F831462846FFF730FB09F0B6FF20
:1014C000009602460B46094806F07AFF01370748A6
:1014D00006F01CFF3F2F05F1B80585D105B0BDE82A
:1014E000F08F00BFC487FF1FE4070100A887FF1F1C
:1014F0000A4A0B49906D536D03FB00F34FF47A7069
:1015000000FB03F0642310B50B600AF0E5FB05490E
:10151000054C0AF0E9FC206010BD00BF50C1FF1F60
:101520002C87FF1FE4388E3EACC2FF1F38B504463F
:1015300008460D460BF024FC2368024629465B68EA
:10154000204698470546204606F0E0FE284438BD70
:101550002DE9F0414548464F464D474E474C05F072
:1015600081FA474B4749484A5960DF6013210027F9
:10157000464819701A614649464A5D615E62464DA9
:101580009C614FF07C56454C1F63454F9862D96271
:1015900044485A630C21444A9D635E6440F61C45EE
:1015A0000A269C641F6241F20404404FD864196506
:1015B00002200121C3F8BC205D66002264259E66DE
:1015C000DC664FF496763224DF61DF635A27587069
:1015D00058721972596583F840209D65A3F86060C0
:1015E000A3F85C60A3F85E404FF47A781F67DFF8D9
:1015F000C4C05A679867D967C3F88020C3F8984079
:10160000C3F8A440DFF8B0E0C3F8A020C3F8AC10E2
:10161000C3F8B00044F62067C3F8B450FF2683F83F
:10162000C010052541F2883183F8CC20204CC3F846
:101630009C8040F2D6626FF03300C3F888C0C3F8D4
:101640008CE0C3F89070C3F8A860A3F8BA50C3F850
:10165000C440C3F8C800C3F89410A3F8B810A3F8A6
:101660008420A3F88620BDE8F08100BFE8070100D0
:101670006666864033338340CDCCCC3DCDCC4C40E8
:1016800050C1FF1F20A1070000004040000082421F
:10169000000020C1000020420000A0409A9979403B
:1016A000333373400AD7233D9A99993ECDCC4C3EB3
:1016B0006C09793B0000114400F0C845F0B54FF4C7
:1016C0007A6085B007F07EFC00210F2007F052FC05
:1016D00000210E2007F04EFC0021112007F04AFCEB
:1016E0000021102007F046FC0021122007F042FCE8
:1016F0000021132007F03EFC01210B2007F03AFCEB
:1017000001210C2007F036FC0121142007F032FCE7
:101710000121152007F02EFC0121162007F02AFCDC
:101720000121172007F026FC0121052007F022FCEB
:10173000954C964D0121062007F01CFC01210D203F
:1017400007F018FC20880AF0C3FA0146162007F0BB
:101750007BFB20880AF0BCFA0146172007F074FBD7
:1017600020880AF0B5FA0146052007F06DFB2088B5
:101770000AF0AEFA00240146062007F065FB00944B
:101780002346834A8349844805F0ECFBE6B232469F
:101790007E49814805F094FB2B797C497E486FF3A4
:1017A0000003013432462B7105F080FB082CEDD18B
:1017B0000924E6B232467549774805F081FB2B795A
:1017C0007249754843F00103013432462B7105F02C
:1017D0006DFB0D2CEDD1714C4FF0FF3220681021C4
:1017E00005F08CFF20684FF0FF32102105F05EFFFE
:1017F00020684FF0FF32022105F06CFF20684FF0A7
:10180000FF32022105F070FF00220F21206805F051
:101810007FFF0C21624809F07DF8624806F076FDF2
:101820001021614809F076F85E4806F06FFD40F23D
:10183000836007F085FC5B4806F068FD17215B4874
:1018400009F068F8574806F061FD594B1B789A0675
:1018500000F1D080564B1B781B0700F1D780544B0A
:101860001B785F0700F1DE80514B1B789E0700F16B
:10187000E580504B1B781D0600F1EC804D4B1B782A
:101880005C0600F1F3804B4B1B78980600F1FA8060
:10189000484B1B78590700F10181464B1B781A070A
:1018A00000F10881434B1B789B0700F10F813D48F5
:1018B00006F02CFD72B6404A4CF220534DF628112A
:1018C0002024138023461180013BFDD13B4D3C4831
:1018D0003C4900234FF480562E8003800B8032F861
:1018E0000E3C9BB243F0D30322F80E3C62B69D201F
:1018F00007F0D2FF21463448344D09F00BF829484F
:1019000006F004FD05F1D8062F462C46601B06F0B4
:101910006BFF04F8010BB442F8D13B78132B01D0D4
:10192000FFF716FE042004F0F1FF294B294E002496
:1019300001210D201C6007F009FB796D2648FFF797
:10194000ABFAD7F8C8000AF0C7F97A6C97F84010DC
:1019500003462148FFF7A2FA204B21491A68039257
:10196000039D1B6802931F4B029A1F480D601A606B
:10197000347006F0F7FA1D4806F0F4FA1C4806F039
:10198000F1FA05B0F0BD00BF3087FF1F48C2FF1F4E
:101990009CC4FF1F20A1070000C3FF1FE4C2FF1F5C
:1019A00008080100C487FF1F180801002C08010067
:1019B00001F0074000F007400E20054004200540DC
:1019C00006200540162005403009010050C1FF1FC8
:1019D00088C0FF1F40C1FF1FF892FF1FC4C4FF1F34
:1019E0008CC0FF1F94C0FF1F34C2FF1F90C2FF1F97
:1019F0002CC1FF1F2121394808F08CFF384806F020
:101A000085FC384B1B781B077FF529AF0C21364826
:101A100008F080FF324806F079FC324B1B785F07F4
:101A20007FF522AF0E21314808F074FF2C4806F0F4
:101A30006DFC2C4B1B789E077FF51BAF17212C48A4
:101A400008F068FF264806F061FC2A4B1B781D064B
:101A50007FF514AF0E21284808F05CFF204806F0FF
:101A600055FC244B1B785C067FF50DAF12212348F3
:101A700008F050FF1A4806F049FC1E4B1B789806E8
:101A80007FF506AF13211E4808F044FF144806F006
:101A90003DFC184B1B7859077FF5FFAE1C211948F8
:101AA00008F038FF0E4806F031FC124B1B781A077D
:101AB0007FF5F8AE1921144808F02CFF084806F00D
:101AC00025FC0C4B1B789B077FF5F1AE18210F48C6
:101AD00008F020FF024806F019FCE8E6440801007F
:101AE000C487FF1F01F00740680801007808010063
:101AF0008808010000F00740A0080100B0080100BC
:101B0000C4080100D8080100F80801001409010008
:101B100070B5424C424D4348E66800232B70FFF7F6
:101B200095F9014630460AF0C9FA08B104232B7032
:101B30003C48FFF765F921690AF0C0FA18B12B7823
:101B400043F010032B703748FFF73CFAA16A0AF004
:101B5000D3FA18B12B7843F040032B70002631489C
:101B60006E70FFF731FA2F48EE70FFF76FF90546F8
:101B70002C482B4EFFF744F90146284609F0F6FFA2
:101B8000E16B0AF0B9FA08B10123F370264D25483C
:101B900000232B70FFF75AF9616A0646E06809F0E6
:101BA000E5FF014630460AF0A7FA08B104232B707E
:101BB0001C48FFF725F9616A0646206909F0D8FF3D
:101BC000014630460AF07AFA18B12B7843F0100338
:101BD0002B701448FFF7F6F9A16B0646A06A09F0CE
:101BE000C5FF014630460AF087FA18B12B7843F05A
:101BF00040032B7000230B486B70FFF7E5F9A16BD6
:101C00000546E06A084C09F0B3FF014628460AF091
:101C100055FA08B10123637070BD00BF50C1FF1FAA
:101C200024C1FF1FF892FF1F4892FF1F2DE9F041CA
:101C30007C4C2368012B82B031D0022B00F0A880AD
:101C4000032B00F0C8803BBB774B784AD3F8A41035
:101C5000D3F8A83012685B1A632B0EDD744803FBBF
:101C600002F380FB0302DB17C3EB62131944062067
:101C700002B0BDE8F04106F0E9BF6E4803FB022365
:101C800080FB0302DB17C3EB22121144062002B0D3
:101C9000BDE8F04106F0DABF02B0BDE8F081664E63
:101CA00033680A33B3F57A7F00F3B78018463360A0
:101CB0000AF012F861490AF063F880465A4DD5F8E7
:101CC000A4000AF009F80746D5F8A8000AF004F8BD
:101CD000394609F04BFF41460AF052F858490AF0DC
:101CE00003F9394609F044FF0AF010FA01460620CC
:101CF00006F0ACFF0221534808F00CFE524806F0F3
:101D000005FB0621514808F005FE306809F0E4FFA4
:101D10004A490AF035F809F089FB022702460B46CA
:101D20000097494806F04CFB0D21494808F0F2FDA8
:101D3000D5F8A40009F0D0FF8046306809F0CCFF48
:101D40003E490AF01DF80646D5F8A80009F0C4FF80
:101D5000414609F00BFF014630460AF011F83849B8
:101D60000AF0C2F8414609F003FF09F05FFB009753
:101D70000B460246344806F023FB3946314808F04A
:101D8000C9FD314806F0C2FA2368022B7FF458AF30
:101D9000294B254E00221A60D6F8A40009F09CFFBA
:101DA0000546D6F8A80009F097FF294609F0DEFE9F
:101DB000002109F0E5FF22490AF096F8294609F0CA
:101DC000D7FE0AF0A3F90146062006F03FFF23687C
:101DD000032B7FF438AF184B134E4FF47A721A600E
:101DE000D6F8A40009F078FF0546D6F8A80009F057
:101DF00073FF294609F0BAFE114909F0C1FF1049E5
:101E00000AF072F8294609F0B3FE0AF07FF901469C
:101E1000062006F01BFF236815E700234FF000089B
:101E200033604BE77892FF1F50C1FF1F2C87FF1FC5
:101E30001F85EB51CBF08D2828C2FF1FCDCCCC3DA8
:101E40000000C842DC160100C487FF1F54090100CE
:101E50005C09010070B5B548B54C06F057FAB348B7
:101E600006F054FAB14806F051FA0D21B14808F0D5
:101E700051FDD4F8A030012B11D0AF4CAB482178E4
:101E800000230A2206F052FA2378052B67D8DFE8F0
:101E900013F006010B01100115011A0101010921BE
:101EA000A64808F037FDA648FEF7AAFF21690AF008
:101EB00005F918B10F21A34808F02CFDA048FEF742
:101EC000C5FFE1680AF018F918B10E219E4808F024
:101ED00021FD9B48FEF7BAFF05469948FEF790FFA3
:101EE0000146284609F042FEE16B0AF005F918B1F7
:101EF0001121964808F00EFD9148FFF763F8A16A9A
:101F00000AF0FAF818B10C21914808F003FD8C484A
:101F1000FFF75AF8E16A0AF0D1F818B10D218D489F
:101F200008F0F8FC8C4B86481B68012B00F0E88019
:101F3000FEF766FF21697E4D0AF0DEF878B1804831
:101F4000FEF784FFE9680AF0B9F840B17A4B1B78D4
:101F5000052B00F0E6800821804808F0DBFC022118
:101F60007F4808F0D7FC122006F0F6FF012800F0A9
:101F7000AF80112006F0F0FF012800F0B380794B0C
:101F80001B68012B00F0B78002217548764C08F0E1
:101F9000C1FC764B6548196806F008FA634806F0FC
:101FA000B5F90421724808F0B5FC0B2006F0D4FF07
:101FB000002301460A225D4806F0B8F90C2006F01D
:101FC000CBFF002301460A22584806F0AFF914203F
:101FD00006F0C2FF002301460A22544806F0A6F983
:101FE000152006F0B9FF0A22002301464F4806F0EB
:101FF0009DF906215F4808F08DFC2368DD074FF04E
:1020000001014CBF5C485D4808F084FC23689807D8
:102010004FF001014CBF5848584808F07BFC23683A
:102020005A074FF001014CBF5348544808F072FC66
:1020300023681B074CBF50485048012108F06AFC38
:1020400004214F4808F066FC112006F085FF0023AC
:1020500001460A22354806F069F9102006F07CFF97
:10206000002301460A22314806F060F9122006F0EA
:1020700073FF002301460A222C4806F057F913206B
:1020800006F06AFF002301460A222848BDE8704096
:1020900006F04CB907213B4808F03CFC5FE70621FD
:1020A000394808F037FC5AE70721384808F032FC75
:1020B00055E70721364808F02DFC50E70821354840
:1020C00008F028FC4BE70B21334808F023FC46E7D7
:1020D0000E21324808F01EFC112006F03DFF0128B9
:1020E0007FF44DAF0A212E4808F014FC1D4B1B68ED
:1020F000012B7FF449AF11212A4808F00BFC43E77C
:10210000FEF77EFE216A09F0F7FF00283FF423AFB7
:102110001621254808F0FEFB0A21244808F0FAFBA6
:102120001DE70A21214808F0F5FB18E7C487FF1FC7
:1021300050C1FF1F6C09010040C1FF1F7C09010055
:10214000F892FF1F8809010098090100A809010001
:10215000BC090100CC0901008092FF1F000A0100A8
:10216000DC16010058C2FF1FD8C2FF1F5492FF1F88
:10217000740A01007C0A0100840A0100C4180100ED
:10218000880A01003C0A01000C0A0100140A01003F
:10219000280A0100300A01001C0A0100440A01005B
:1021A000540A0100600A0100DC090100F409010081
:1021B0002DE9F04FB44CA36F012B8FB000F0D2810A
:1021C000032BDFF8248300F0D980B04EB04F636F4B
:1021D000B048012B09BF3968396801F10041396005
:1021E00005F088FE3368002B40F08481A948DFF8B1
:1021F000F89205F055FE3368C8F800000546002B3C
:1022000040F09281A36FA04A012B00F0A181A24966
:10221000A24E284609F070FF002841D03368DFF84D
:10222000949209930998D9F80030DFF8C0A2C01A37
:1022300009F04EFD294609F0A3FD994909F054FE25
:10224000974909F051FEDAF8001009F091FC336863
:102250000893089BCAF80000C9F80030D4F8AC0015
:10226000904C09F039FD294609F08AFD00233B60B6
:10227000C8F8000009F04AFF01468B4805F080FECF
:1022800009F02AFD3368894A0B9311680B9B206083
:102290005B1AB3F57A7F81490ED80FB0BDE8F08F95
:1022A0008349284609F00AFF0028B7D13268814BDC
:1022B0000A920A9A1A60D1E70B680C930C9B7A4831
:1022C000136005F089FE20687B4D09F01FFF014671
:1022D0007A4805F055FE09F0FFFC794A286013683A
:1022E00001333A2B00F316821360764B1B68002BE8
:1022F000D3D0754806F00AF833680D930A220023FC
:102300000D99714806F012F80121704808F002FB9F
:10231000D8F8000009F08AF8022602460B4600961B
:10232000694806F04DF80121684808F0F3FA206882
:1023300009F07CF8009602460B46634806F040F828
:102340000121624808F0E6FA286809F06FF8009663
:1023500002460B465C4806F033F801215B4808F062
:10236000D9FA5B4B186809F061F8009602460B46F3
:10237000554806F025F80FB0BDE8F08F554D564E84
:102380002868012300220F21336005F0C1F933686A
:102390003E4E012B336800F00B81002B40F0C781CB
:1023A00000212868DFF848914A4F05F003FA3368A6
:1023B0001FFA80FBC9F800B0002B40F0D08100214B
:1023C0002868334FDFF80CA105F07AF9B4F88630AD
:1023D00040F6E44101FB0BF1B1FBF0F0C01A00B292
:1023E00009F07AFC3D498346D4F8880009F0C8FC1E
:1023F0000146584609F078FDD9F800303860632B63
:10240000DFF8ECB000F39F8100233B603368002BC2
:102410003FF4DDAE0221324808F07CFAD9F8002002
:10242000286840F6E443002103FB02F505F048F973
:10243000B5FBF0F009F04CFC0546B4F8860009F055
:102440004BFC0146284609F091FB08F0EFFF0225FE
:1024500002460B4600951C4805F0B2FF294620486D
:1024600008F058FA386808F0E1FF009502460B467C
:10247000154805F0A5FF29461A4808F04BFA2946E9
:10248000174808F047FAA2E650C1FF1F88C2FF1F95
:10249000CCC2FF1F64C2FF1F0000FA43C4C4FF1F69
:1024A00000007A4484C2FF1F34C2FF1F5C92FF1FEA
:1024B0000000FAC320C1FF1FC0C2FF1F90C2FF1F50
:1024C00030C2FF1FF492FF1FC487FF1F680901007D
:1024D0004CC1FF1FE4C2FF1F5087FF1FACC5273749
:1024E000DC160100CC0A010028C1FF1FACC2FF1F8F
:1024F000ECC2FF1FB04805F0D3FC08F097FF02259F
:1025000002460B460095AD4805F05AFF0321AC4842
:1025100008F000FAD4F89010A84805F047FF03210E
:10252000A74808F0F7F961E608F080FF02250246A7
:102530000B460095A14805F043FF0421A14808F08F
:10254000E9F9A36FD9F800509F4A012B7FF45FAEE1
:102550009E4B1B68012B00F01D81022B00F0A18017
:102560009B4E7BE6DFF8A482D4F89060D8F8005048
:10257000304609F0B1FB294609F0BEFD48B1704272
:1025800009F0AAFB0146284609F0B6FD00287FF4B1
:10259000F5AE904D8D4E2868022300220E21336047
:1025A00005F0B6F833688C4E012B33687FF4F5AE36
:1025B000002B40F0528100212868DFF85492854FAB
:1025C00005F0F8F833681FFA80FBC9F800B0002B5B
:1025D00040F0548100212868804F05F071F8B4F86C
:1025E000843040F6E44A0AFB0BFBBBFBF0F0C01A58
:1025F00000B209F071FB7A498346D4F88C0009F0E7
:10260000BFFB0146584609F06FFCD9F8003038602E
:10261000002128680AFB03FA05F052F8B4F8843068
:10262000BAFBF0F00FFA80FAC3EB0A03002BB4F800
:10263000BA20B8BF5B429342BCBF00233B60336803
:10264000002B3FF4C4AD0221664808F063F9D9F8C5
:102650000020286840F6E443002103FB02F505F062
:102660002FF8B4F88410B5FBF0F000B2411A5348CB
:1026700005F09CFE02215B4808F04CF9386808F030
:10268000D5FE022502460B4600954C4805F098FE03
:102690000321554808F03EF92946524808F03AF916
:1026A00095E5D2F89060304609F016FB294609F00E
:1026B00005FD68B9704209F00FFB294609F01CFDC1
:1026C00030B9434E494B32680792079A1A60C5E504
:1026D0003F4EDFF81891336806930698D9F800301A
:1026E000DFF830A1C01A09F0F3FA294609F048FBD7
:1026F0003F4909F0F9FB3E4909F0F6FBDAF8001012
:1027000009F036FA33680593059BCAF80000C9F84A
:102710000030A3E50023136009F0F8FC01463548BA
:10272000354F05F02DFC09F0D7FA3860DDE5234878
:1027300005F0ECFD0C21314808F0ECF80C21304894
:1027400008F0E8F82CE6DAF80000002104F0B8FF01
:10275000DBF8003064389842FFF456AE56E60021AC
:10276000386804F0ADFF40F6E44100230A2201FB83
:102770000BF1B1FBF0F1114805F0D8FD0221194829
:1027800008F0C8F8B4F886100C4805F00FFED9F828
:1027900000B014E61B490E4E284609F0ADFC002897
:1027A0003AD11949284609F089FCA8BB32680F4B79
:1027B0000492049A1A6051E564C2FF1FC487FF1F88
:1027C000D00A0100D40A010050C1FF1F5087FF1F2B
:1027D000C4C4FF1FE4C2FF1F88C2FF1FCCC2FF1F7B
:1027E000ACC52737DC160100B80A010020C1FF1F65
:1027F00000007A442CC1FF1F4CC1FF1FBC0A01001E
:10280000A80A01000000FA430000FAC328C1FF1F14
:10281000ECC2FF1FACC2FF1F3368DFF8B090039318
:102820000398D9F80030DFF8A8A0C01A09F050FAD0
:10283000294609F0A5FA1F4909F056FB1D4909F080
:1028400053FBDAF8001009F093F933680293029B06
:10285000CAF80000C9F8003000E5174805F056FD39
:10286000A36F012B4FF00B010CBF1448144808F064
:1028700051F80C21134808F04DF89CE60021386807
:1028800004F01EFF40F6E44100230A2201FB0BF195
:10289000B1FBF0F1084805F049FD01210A4808F0B4
:1028A00039F8B4F88410044805F080FDD9F800B078
:1028B00090E600BF00007A44C487FF1F900A010021
:1028C0009C0A0100A80A01006809010020C1FF1F3D
:1028D000ACC2FF1F2DE9F0478B4D2B6884B043B984
:1028E0008A4B1B680393039A42F210739A4200F2D8
:1028F000B580874C874F884EDFF86082D4F88020FF
:10290000834B012A03D09A6F002A40F095808348B8
:10291000FEF75CFB8249D4F86490A56E09F030FAAA
:1029200009F01AFCE26E236FC9EB02025B1B80B256
:102930009A42C9EB0000D4F85890C6BF03FB0000D0
:102940000132584390FBF2F02844656D00FB09F01A
:1029500005FB00F000EB8000400009F0BDF9714973
:1029600009F0C2FA8246306005FB09F54FF47A702F
:1029700000FB05F009F0B0F96A49DFF898910546C7
:10298000504609F0FDF9294609F0AEFA664909F00A
:10299000F7F909F0BBFB6328386047DD2846614939
:1029A00009F0A2FA64233060C9F80030D8F800308A
:1029B000002B38D0A36F564D012B43D0032B00F0D2
:1029C0009680022B00F08E800221584807F0A2FF6B
:1029D000574B186808F02AFD022402460B46009463
:1029E000544805F0EDFC2146534807F093FF21467B
:1029F0004E4807F08FFF39684E4805F0D7FC062196
:102A00004E4807F087FF3068464909F0B9F908F0E9
:102A10000DFD009402460B46464805F0D1FC03210B
:102A2000474807F077FF04B0BDE8F0870028BCBF37
:102A30000023C9F80030B9E7D6F800A0D3F85890C1
:102A40005D6D91E73F4B1B68012B4FF00A010CBFF6
:102A50003D483E4807F05EFFAB6FAFE72F482C4C78
:102A6000FEF7B4FA2E49676EA66E09F089F909F0EF
:102A700073FBE26E236FD21B9B1B80B29A42A0EBCA
:102A800007003ADD03FB0000531C90FBF3F31E44E8
:102A9000A06D636D1F4FDFF8C4803E6000FB06F041
:102AA00003FB00F000EB8000400009F015F91D4920
:102AB000194E09F019FAD8F80030306001222A6066
:102AC000002B3FF41BAF0221184807F023FF1948E1
:102AD00005F01CFC59211E4807F01CFF154805F0A5
:102AE00015FC0BE707211B4807F014FF6CE71021CA
:102AF000194807F00FFFA36F63E703FB00F393FB95
:102B0000F2F31E44C4E700BFF092FF1FC4C4FF1FCE
:102B100050C1FF1F2C87FF1FACC2FF1FF892FF1F81
:102B200000007A44E4388E3E0000C842DC16010002
:102B300028C1FF1FC487FF1FCC0A01006C0B0100D6
:102B4000740B01005087FF1F380B0100440B01007C
:102B5000DC0A0100640B0100500B01002087FF1FFD
:102B600030B5112083B006F0F7F9012818D01220F3
:102B700006F0F2F9012813D000210B2006F0E6F947
:102B800000210C2006F0E2F90021152006F0DEF904
:102B90002649274B0120002208701A6003B030BD7F
:102BA0000121152006F0D2F9224A234C234B12684A
:102BB000D4F8941001921B68019A1D4D0B44934266
:102BC0004FF00201296005D901210C2006F0BEF961
:102BD00003B030BDD4F89C0009F07EF8184B19689A
:102BE00009F06CFA0028EFD101210B2006F0AEF9B4
:102BF00094F8C03003242C6043B10C4B02221A70AD
:102C000000210C2006F0A2F903B030BD122006F01E
:102C1000A3F9012808BF054B4FF0110008BF1C7035
:102C200006F09AF90128EBD1E7E700BF40C1FF1F8A
:102C3000EC92FF1FC4C4FF1F50C1FF1F8CC0FF1FB9
:102C400028C1FF1FF0B5684E684D34682B689C4260
:102C500087B039D014F0010155D014F0020149D0E9
:102C600014F004013DD0E3070ED52B68DF070BD429
:102C70005F4F3A68002A00F082805E4B1B68019328
:102C8000019B93426DD83468A0070DD52B68990736
:102C90000AD4594F3A68002A4CD0564B1B6803930C
:102CA000039B934238D8346862070DD52B685B07C5
:102CB0000BD4524F3A68002A7ED04E4B1B680593C6
:102CC000059B934268D834680CB107B0F0BD21462B
:102CD000162005F0BBFF2146172005F0B7FF07B00F
:102CE000F0BD052005F0B2FF2B68346803F0FB034C
:102CF0002B60B8E7172005F0A9FF2B68346803F0B4
:102D0000FD032B60ACE7162005F0A0FF2B683468AC
:102D100003F0FE032B60A0E7394B1720D3F898107F
:102D200005F094FF2B68346843F0020300222B6007
:102D30003A60B9E7334805F0E9FA0C21324807F068
:102D4000E9FD304805F0E2FAFF21172005F07EFF8B
:102D5000284B2E4A19680291029912680A443A6077
:102D60009CE7274B1620D3F8981005F06FFF2B68CF
:102D7000346843F0010300222B603A6084E7FF21AE
:102D8000162005F063FF1B4B204A1968009100993B
:102D900012680A443A6071E7194B0520D3F898107D
:102DA00005F054FF2B68346843F0040300222B60C5
:102DB0003A60002C89D18AE7124805F0A7FA0C2165
:102DC000134807F0A7FD0F4805F0A0FAFF210520E2
:102DD00005F03CFF074B0D4A1968049104991268ED
:102DE0000A443A606AE700BFEC92FF1FD8C2FF1F97
:102DF0002CC2FF1FC4C4FF1F50C2FF1F54C2FF1FBD
:102E000050C1FF1FC487FF1F780B01003C87FF1FC5
:102E1000880B01002DE9F047544EDFF87481DFF88C
:102E200074913068524D00220F2104F071FC002390
:102E3000012222214F48C8F80030C9F8002007F0CD
:102E400069FDD8F80030132B22DC40F6E44700215E
:102E50003068B5F884A004F0ADFC00210446306869
:102E600004F02EFCA4B2012107FB04F4B4FBF0F43F
:102E700041485444A5F8844007F04CFD642006F016
:102E8000A1F8D8F800300133132BC8F80030DEDD8C
:102E9000B5F88430394A3A48A2FB03129B1A02EB78
:102EA0005303C3F30F131946A5F8843005F07EFAD7
:102EB0001D21344807F02EFD0221334807F02AFD7A
:102EC0002F4805F023FA00231A460E213068C8F86F
:102ED000003004F01DFC022322212648C9F80030EE
:102EE00007F018FDD8F80030132B22DC40F6E44739
:102EF00000213068B5F8869004F05CFC002104469F
:102F0000306804F0DDFBA4B2012107FB04F4B4FB3C
:102F1000F0F419484C44A5F8864007F0FBFC642007
:102F200006F050F8D8F800300133132BC8F8003001
:102F3000DEDDB5F88630114A1148A2FB03129B1A58
:102F400002EB5303C3F30F131946A5F8863005F0BF
:102F50002DFA1D210D4807F0DDFC02210A4807F07B
:102F6000D9FC0748BDE8F04705F0D0B9E4C2FF1F1F
:102F700050C1FF1F980B0100DC0B01008761188610
:102F8000C487FF1FBC0B0100DC160100E00B010031
:102F90005892FF1F5087FF1F2DE9F843C14BC24CC9
:102FA000C24E1B68306D40F2513108222160E2713F
:102FB000002B40F0718108F08FFE7169054608F022
:102FC000DFFEBB49B94F08F0DBFE09F0C5F880B25F
:102FD00003126372B74AB84BB2F90020B3F900305C
:102FE0002072A37228461B121512E3722273B16974
:102FF000657308F0C5FEAE49AB4D08F0C1FE09F09F
:10300000ABF883B21A122946AC48A373E27304F0FA
:10301000A1F9AB4AAB4B12681988A172D3B22372E3
:1030200003EB83035B00237302EB820343F3D713A9
:103030004FEA212E12124FF008084FF000092946DE
:1030400063739E4884F80BE040F25533627223604C
:1030500084F8078084F80E9084F80F9004F07AF9D1
:1030600040F256339848236084F80780FDF712FF3A
:10307000964908F085FE09F06FF820729248FDF736
:1030800009FF924908F07CFE09F066F8904A8F49E2
:10309000C0F307236372106808F026FF09F036F8C2
:1030A00040FA08F3A0728848E372FDF727FF8049D1
:1030B00008F066FE09F02AF820738348FDF71EFF2A
:1030C0007B4908F05DFE09F021F840F3072029460E
:1030D00060737A4884F80E9084F80F9004F03AF9FF
:1030E000022005F06FFF7B4A7B4B117821725178EB
:1030F00090786172D178A0721A789878E1725978D4
:1031000022736173DA78A07340F25A3329466B4810
:10311000E273236084F8078004F01CF96F4B674862
:103120001A7822725A7862729A78A272DA78E27207
:103130001A7922735A7962739A79DB79E373294693
:1031400040F25E33A273236084F8078004F002F932
:10315000022005F037FF624B58481A7822725A78DD
:1031600062729A78A272DA78E2721A7922735A79C4
:1031700062739A79DB79E37329464FF45C732360B9
:1031800084F80780A27304F0E5F8564B1B68012B06
:1031900000F0AE80022005F015FFB36D2373022509
:1031A00000221B12284640F27338082763732272EC
:1031B000012362729922A273E372E373A572C4F8C9
:1031C0000080E77105F0FEFE3F48C4F80080E7711B
:1031D000FDF716FE444908F0D3FD08F0BDFF20724C
:1031E0003948FDF70DFE404908F0CAFD08F0B4FF6C
:1031F000C0F3072334486372FDF728FE3A4908F00C
:10320000BFFD08F0A9FFA0722F48FDF71FFE364949
:1032100008F0B6FD08F0A0FFC0F307232A48E372C8
:10322000FDF7D2FE314908F0A3FC08F095FF2073AA
:103230002548FDF7C9FE2D4908F09AFC08F08CFFDF
:10324000C0F3072320486373FDF7BCFE274908F04D
:103250008FFC08F081FFA0731B48FDF7B3FE2349E4
:1032600008F086FC08F078FF0F49C0F307231348E5
:10327000E37304F06FF8284605F0A4FE726DB36D99
:10328000E57112FB03F3C3F3072140F27932237295
:1032900061722260BDE8F88308F01EFD316A0546C0
:1032A0008DE600BF8092FF1F6092FF1F50C1FF1F7D
:1032B00000002041D0C2FF1F7492FF1F00C3FF1FF8
:1032C0002C87FF1F3287FF1FF892FF1F0000C842A4
:1032D00028C1FF1F24C1FF1F4892FF1F5887FF1FEF
:1032E0003487FF1F58C2FF1F00007A44339388437E
:1032F0002648FDF785FDF96C08F03AFC8146234825
:10330000FDF7A4FD0146484608F0D8FE00283FF42A
:1033100041AF40F2C3331D4885F807802B60FDF7AD
:103320006FFDBF6C394608F0C9FEC8B11849384670
:1033300008F026FD08F010FF80B240FA08F368722A
:103340002B72002301270425032212491248A77279
:10335000E57222736373A373E37303F0FBFF19E752
:103360000A48FDF74DFD0A4908F00AFD08F0F4FE91
:10337000C0F3072305482B72FDF742FD044908F00E
:10338000FFFC08F0E9FE6872DBE700BFF892FF1F60
:1033900000007A446092FF1F00C3FF1FF0B5964CF7
:1033A000964D83B007F050FA23682860042B00F094
:1033B000A282092B73D0022B4CD1A0F13102422AF8
:1033C00076D8DFE812F0240B450B740AE700860A72
:1033D000970AA60AAE0A750075007500750075009B
:1033E0007500750075007500750075007500750035
:1033F0007500750075007500750075007500750025
:103400007500750075007500750075007500750014
:103410007500750075007500750075007500750004
:103420007500750075007500750043007500750026
:1034300075007500750075007500750075007500E4
:1034400075007500750071007500BB0AFFF7E2FC9E
:1034500023682868082B40F0AE80322800F0CE8622
:1034600040F3AC8634281DD107F02AFA002840F337
:10347000CA866348634E05F0DDF843421846C6F835
:10348000C83008F029FC726C034696F840105E487C
:10349000FDF704FD012369202360286057E33128EC
:1034A00000F04B83712803D1002373202360286030
:1034B000002B08BF73280CBF01200020002867D014
:1034C0004F4804F023FF1421504807F023FA4C48DA
:1034D00004F01CFF10214E4807F01CFA484804F085
:1034E00015FF13214B4807F015FA4B4B4448196858
:1034F00004F05CFF424804F009FF1421474807F03C
:1035000009FA3F4804F002FF1E21454807F002FA7D
:103510003B4804F0FBFE1521424807F0FBF9384810
:1035200004F0F4FE1E21404807F0F4F9344804F09A
:10353000EDFE20213D4807F0EDF9314804F0E6FEAC
:1035400019213B4807F0E6F92D4804F0DFFE12216F
:10355000384807F0DFF92A4804F0D8FE162136482B
:1035600007F0D8F9264804F0D1FE0F21334807F0C0
:10357000D1F9234804F0CAFE0D21314807F0CAF9F9
:103580001F4804F0C3FE2F4A00210123116023606D
:1035900003B0F0BD0123236007F092F9002807DD96
:1035A0001748184E05F046F808F096FBC6F88C0050
:1035B000632023682860072B4AD1332801F0358423
:1035C00000F32682312801F0438432287FF470AF63
:1035D00007F076F9002839DD09480A4E05F02AF887
:1035E00008F07AFB184908F0CBFB61230122F06355
:1035F00022602B601846AAE2E8C2FF1F5092FF1F0C
:10360000C487FF1F50C1FF1FF892FF1F3015010034
:10361000481501005C1501004C87FF1F7015010063
:1036200088150100A8150100C0150100E015010072
:103630000416010020160100341601004C1601008A
:103640005C1601002087FF1F6F12833A23682868E9
:10365000062B40F08D80A0F13102402A3FF628AFC2
:1036600001A151F822F000BFAD470000D94700008A
:103670005D47000085470000494800005D480000A4
:1036800005480000B134000023480000B1340000B8
:10369000B1340000B1340000B1340000B134000096
:1036A000B1340000B1340000B1340000B134000086
:1036B000B1340000B1340000B1340000B134000076
:1036C000B1340000B1340000B1340000B134000066
:1036D000B1340000B1340000B1340000B134000056
:1036E000B1340000B1340000B1340000B134000046
:1036F000B1340000B1340000B1340000B134000036
:10370000B1340000B1340000B1340000B134000025
:10371000B1340000B1340000B1340000B134000015
:10372000B1340000B1340000B1340000B134000005
:10373000B1340000B1340000B1340000B1340000F5
:10374000B1340000B1340000B1340000B1340000E5
:10375000B1340000B1340000B1340000B1340000D5
:10376000B1340000B1340000A93400002368286897
:10377000052B15D1332801F0A58340F35D81352851
:1037800001F09283C1F27A8371287FF491AEB54A39
:103790000023732013602360286089E6236828686B
:1037A000032B40F0A480A0F13002422A3FF680AE05
:1037B00001A151F822F000BFC5380000214B0000E4
:1037C0004B4B00008B4A0000AD4A0000CF4A00007E
:1037D000F74A0000394C0000594C0000814C0000B1
:1037E000B1340000B1340000B1340000B134000045
:1037F000B1340000B1340000B1340000B134000035
:10380000B1340000B1340000B1340000B134000024
:10381000B1340000B1340000B1340000B134000014
:10382000B1340000B1340000B1340000B134000004
:10383000B1340000B1340000B1340000B1340000F4
:10384000B1340000B1340000B1340000B1340000E4
:10385000B1340000B1340000B1340000B1340000D4
:10386000B1340000B1340000B1340000B1340000C4
:10387000B1340000B1340000B1340000AB4C0000A2
:10388000774200006D4A0000F94B0000194C00001F
:10389000B94B00000F42000033420000B134000079
:1038A00059420000B1340000B1340000B1340000CE
:1038B000B1340000B1340000B1340000754B000099
:1038C000814B000006F0FCFF002840F3408766486B
:1038D000664E04F0AFFE01270346014662226448AB
:1038E000736527602A60FDF7D7FA23682868012BE3
:1038F0007FF4DEAD2BE1A0F13002412A3FF6D8ADD6
:1039000001A151F822F000BFD9490000274A000068
:103910002B4A00002F4A00004D4A00004D4900008C
:1039200069490000834900009B490000ED490000FF
:10393000B1340000B1340000B1340000B1340000F3
:10394000B1340000B1340000B1340000B1340000E3
:10395000B1340000B1340000B1340000B1340000D3
:10396000B1340000B1340000B1340000B1340000C3
:10397000B1340000B1340000B1340000B1340000B3
:10398000B1340000B1340000B1340000B1340000A3
:10399000B1340000B1340000B1340000B134000093
:1039A000B1340000B1340000B1340000B134000083
:1039B000B1340000B1340000B1340000B134000073
:1039C000B1340000B1340000B1340000B134000063
:1039D000B1340000B1340000B1340000B134000053
:1039E000B1340000B1340000B1340000B134000043
:1039F000B1340000B1340000B1340000B134000033
:103A0000B1340000B1340000B1340000A93400002A
:103A100034287FF447AD06F053FF00287FF716AE39
:103A20001148124E04F006FE61230122A6F8B800E8
:103A300022602B6018468AE0312801F05482322837
:103A40007FF436AD06F03CFF00287FF7A7AE0648AE
:103A5000064E04F0EFFD01226B23C6F89C002260A5
:103A60002B6009E07892FF1FC487FF1F50C1FF1F22
:103A7000F892FF1F06F0E8FE06F022FF0028F9D1B9
:103A8000A14804F043FCA04804F040FC9E4804F028
:103A90003DFC9D4804F03AFC9B4804F037FC212192
:103AA0009A4806F037FF984804F030FC15219848F2
:103AB00006F030FFD6F89410934804F077FC02210A
:103AC000944806F027FF904804F020FC1E219248FD
:103AD00006F020FFD6F89C108B4804F067FC032109
:103AE0008E4806F017FF884804F010FC1E218C4811
:103AF00006F010FFD6F89810834804F057FC82486F
:103B000004F004FC1D21874806F004FFD6F8A41039
:103B10007D4804F04BFC7C4804F0F8FB1E218248F1
:103B200006F0F8FED6F8A810774804F03FFC764877
:103B300004F0ECFB052323602AE57C4E96F8CC309C
:103B400001225340782086F8CC3022602860A0F112
:103B50005203262B01F25881DFE813F0E6085609DC
:103B6000560956095609560956095609560956095D
:103B7000560956095609560956092900E00AC10294
:103B80001A02600156095609560906015609DD0A4E
:103B900056095609560956095609D40856095609B0
:103BA00056095609560956099D0006F04DFE06F0C5
:103BB00087FE05460028F8D153485C4E04F0A6FB6A
:103BC000514804F0A3FB504804F0A0FB4E4804F019
:103BD0009DFB4D4804F09AFB1F21554806F09AFEC4
:103BE000494804F093FB1C21524806F093FE706A8A
:103BF000514908F0C5F807F019FC009502460B463C
:103C0000414804F0DDFB02214C4806F083FE3E48AB
:103C100004F07CFB23214A4806F07CFEF06B464909
:103C200008F0AEF807F002FC009502460B46364855
:103C300004F0C6FB0221414806F06CFE324804F055
:103C400065FB19213F4806F065FEB06B07F0EEFBFF
:103C500002250B46024600952B4804F0B1FB29468D
:103C6000394806F057FE284804F050FB1921374820
:103C700006F050FEB6F8B810234804F097FB032175
:103C8000334806F047FE204804F040FB072323603A
:103C90007EE406F0D9FD06F013FE0028F9D11A489B
:103CA00004F034FB184804F031FB174804F02EFBF5
:103CB000154804F02BFB144804F028FB122125487A
:103CC00006F028FE104804F021FB0F4804F01EFB0C
:103CD0001621214806F01EFE144B93F8CC30002B21
:103CE00041F0168104211D4806F014FE064804F038
:103CF0000DFB13211A4806F00DFE034804F006FBE5
:103D00000923236044E400BFC487FF1FFC0E0100A9
:103D1000200F0100EC0D0100380F0100B80A01006E
:103D2000580F0100780F0100980F010050C1FF1FCC
:103D30005C0E01007C0E010000007A44B40C01000E
:103D40009C0E0100C00E0100580E0100DC0E0100A7
:103D5000F80E010038160100240C01003C0C010093
:103D6000580C010006F070FD06F0AAFD054600287B
:103D7000F8D17548754E04F0C9FA734804F0C6FAD4
:103D8000714804F0C3FA704804F0C0FA6E4804F0B9
:103D9000BDFA15216E4806F0BDFD6B4804F0B6FA79
:103DA00018216C4806F0B6FD2B460A2296F8401002
:103DB000654804F0BBFA644804F0A8FA2821664874
:103DC00006F0A8FD706C654907F0DAFF07F02EFBDE
:103DD00000950B4602465C4804F0F2FA0221604866
:103DE00006F098FD584804F091FA18215D4806F055
:103DF00091FDD6F8C810544804F0D8FA524804F09F
:103E000085FA1321584806F085FD4F4804F07EFAE4
:103E100008232360FFF7BCBB06F016FD06F050FD3B
:103E200005460028F8D14848484E04F06FFA464845
:103E300004F06CFA444804F069FA434804F066FA66
:103E4000414804F063FA1121484806F063FD3E48FA
:103E500004F05CFA2821464806F05CFD70693F4991
:103E600007F08EFF07F0E2FA009502460B4636484F
:103E700004F0A6FA02213A4806F04CFD324804F05C
:103E800045FA16213B4806F045FDF069334907F035
:103E900077FF07F0CBFA00950B4602462A4804F05C
:103EA0008FFA02212E4806F035FD274804F02EFA3D
:103EB000D6F8B030002B34DD1D212F4806F02AFD46
:103EC000B6F95C0007F008FF2C4907F059FF07F02E
:103ED000ADFA022502460B4600951B4804F070FA25
:103EE0000121274806F016FD174804F00FFA1F219C
:103EF000244806F00FFDB6F95E0007F0EDFE1F49FD
:103F000007F03EFF07F092FA009502460B460E4876
:103F100004F056FA01211A4806F0FCFC0A4804F0A5
:103F2000F5F91121184806F0F5FCD6F8B030062B4B
:103F300000F20087DFE813F05E07630759075407B4
:103F40004F074A07FA0600BFC487FF1F50C1FF1F73
:103F5000081601006C0C0100880C010000007A4476
:103F6000B40C0100B80C0100580C0100AC150100A4
:103F7000D40C0100000D0100180D0100CDCCCC3D8A
:103F8000F8110100380D0100580D010006F05CFC2D
:103F900006F096FC0028F9D1BE4804F0B7F9BD48F8
:103FA00004F0B4F9BB4804F0B1F9BA4804F0AEF932
:103FB000B84804F0ABF91321B74806F0ABFCB5489C
:103FC00004F0A4F90D21B54806F0A4FCB14804F0B2
:103FD0009DF90F21B24806F09DFCB24BAD4819681F
:103FE00004F0E4F9AB4804F091F91321AE4806F06F
:103FF00091FCAE4BA748196804F0D8F9A54804F025
:1040000085F91221AA4806F085FCAA4BA148196837
:1040100004F0CCF99F4804F079F91121A64806F084
:1040200079FCA64B9B48196804F0C0F9994804F044
:104030006DF90E21A24806F06DFCA24B9548D3F80D
:10404000A01004F0B3F9934804F060F919219E48D8
:1040500006F060FC9D4B8F48196804F0A7F98D4865
:1040600004F054F911219A4806F054FC994B894800
:10407000196804F09BF9874804F048F91021964824
:1040800006F048FC954B8348196804F08FF9814885
:1040900004F03CF91C21924806F03CFC914B7D4811
:1040A000196804F083F97B4804F030F91B218E482D
:1040B00006F030FC8D4B7748197804F077F9754895
:1040C00004F024F913218A4806F024FC714804F016
:1040D0001DF904232360FFF75BBA06F0B5FB06F079
:1040E000EFFB0028F9D16B48764E04F00FF96948D0
:1040F00004F00CF9674804F009F9664804F006F981
:10410000644804F003F91F217A4806F003FC614873
:1041100004F0FCF81E21784806F0FCFB5D4804F032
:10412000F5F81A21754806F0F5FBB36F022B00F085
:10413000D287032B00F0C687012B00F0BA87092134
:104140006F4806F0E7FB534804F0E0F814216D488F
:104150005C4D06F0DFFB716F4E4804F027F94D48C7
:1041600004F0D4F81C21684806F0D4FBD6F880107F
:10417000484804F01BF9474804F0C8F81C2163487C
:1041800006F0C8FBD6F8AC10424804F00FF94148DD
:1041900004F0BCF8B36F23F00202012A00F0C886D5
:1041A000022B00F0A1871321514806F0B3FB3948D8
:1041B00004F0ACF802232360FFF7EAB931287FF45A
:1041C00077A906F07DFB002840F36D8331483D4E12
:1041D00004F030FAC0B286F84000172840F21D867D
:1041E000002186F840100F46D6F8C80007F074FD8D
:1041F000726C034639464648FFF74AB906F060FB41
:10420000002800F33D8323682868FFF7D4B906F03F
:1042100057FB00280DDD1F482A4E04F00BFA07F06B
:104220005BFD3C4907F060FE0122622330622260A0
:104230002B6006F045FB00280EDD1648214E04F0E9
:10424000F9F907F049FD334907F04EFE01226223D8
:10425000C6F8BC0022602B6006F032FB00280ADDA5
:104260000C48184E04F0E6F907F036FD01226223EF
:10427000706322602B6006F023FB002840F3678206
:104280000448104E04F0D6F90122622370662260C1
:104290002B6043E0C487FF1FB80F0100CC0F010063
:1042A000DC0F0100E0C2FF1FEC0F010088C2FF1FFE
:1042B00000100100A4C2FF1F1410010044C1FF1F21
:1042C0002810010050C1FF1F381001005492FF1F39
:1042D000541001007892FF1F681001004492FF1FE4
:1042E0007C1001004887FF1F9C100100DCC2FF1FEB
:1042F000580C0100B8100100D8100100F81001009E
:10430000701101007C11010094110100B411010031
:10431000F892FF1F00007A4406F096FA06F0D0FAF1
:1043200005460028F8D1C34803F0F0FFC14803F068
:10433000EDFFC04803F0EAFFBE4803F0E7FFBD48C9
:1043400003F0E4FF1521BC4806F0E4FAB94803F095
:10435000DDFF1421B94806F0DDFAB64803F0D6FFB8
:104360001B21B74806F0D6FAB24803F0CFFF13215D
:10437000B44806F0CFFAAF4803F0C8FFAD4803F0E9
:10438000C5FFAC4803F0C2FF2021AF4806F0C2FAD7
:10439000F068AE4907F0F4FC07F048F800950246D3
:1043A0000B46A44804F00CF80221A94806F0B2FA22
:1043B0000221A84806F0AEFA9E4803F0A7FF21218B
:1043C000A54806F0A7FA3069A04907F0D9FC07F024
:1043D0002DF8009502460B46964803F0F1FF0221A6
:1043E0009B4806F097FA02219A4806F093FA914802
:1043F00003F08CFF1F21994806F08CFAB06A07F091
:1044000015F8022702460B4600978A4803F0D8FFAA
:104410000121934806F07EFA39468E4806F07AFA72
:10442000844803F073FF20218E4806F073FAF06A87
:1044300006F0FCFF009702460B467E4803F0C0FFE3
:104440000121874806F066FA3946824806F062FA8A
:10445000784803F05BFF2321834806F05BFAB06CD9
:104460007A4907F08DFC06F0E1FF009502460B4605
:10447000704803F0A5FF3946754806F04BFA3946F7
:10448000744806F047FA6B4803F040FF1F21774855
:1044900006F040FAF06C6D4907F072FC06F0C6FFBA
:1044A000009502460B46634803F08AFF3946684888
:1044B00006F030FA3946674806F02CFA5D4803F0FA
:1044C00025FF19216A4806F025FAB16D594803F015
:1044D0006DFF3946674806F01DFA39465D4806F01B
:1044E00019FA544803F012FF1821634806F012FA33
:1044F000B6F9600007F0F0FB604907F041FC06F0F8
:1045000095FF009702460B464A4803F059FF0121E8
:104510005B4806F0FFF939464E4806F0FBF945487E
:1045200003F0F4FE2B21574806F0F4F9B06947492F
:1045300007F026FC06F07AFF009502460B463D4840
:1045400003F03EFF3946424806F0E4F93946414857
:1045500006F0E0F9374803F0D9FE1F214A4806F07B
:10456000D9F9716D334803F021FF3946394806F017
:10457000D1F9304803F0CAFE2021444806F0CAF9B8
:10458000316D2C4803F012FF3946324806F0C2F96B
:10459000284803F0BBFE10213D4806F0BBF9716EC0
:1045A000244803F003FF3946294806F0B3F9394699
:1045B000284806F0AFF91F4803F0A8FE132135483C
:1045C00006F0A8F9B16E1B4803F0F0FE0121324855
:1045D00006F0A0F939461F4806F09CF9154803F08B
:1045E00095FE10212D4806F095F9F16E114803F063
:1045F000DDFE3946164806F08DF93946154806F0B5
:1046000089F90C4803F082FE1421254806F082F94E
:10461000316F084803F0CAFE01211F4806F07AF9FD
:1046200039460C4806F076F9024803F06FFE162171
:1046300038E000BFC487FF1FA4120100BC120100B4
:10464000D4120100580C0100F012010000007A445D
:10465000B40C0100DC160100141301003813010032
:10466000E0070100581301007C130100A0130100B2
:10467000C0130100DC130100E0130100CDCCCC3DE0
:10468000F8110100FC130100281401004814010076
:104690006C140100801401009414010098140100AE
:1046A000AC140100BE4806F035F9306ABD4907F088
:1046B00067FB06F0BBFE009502460B46BA4803F0C6
:1046C0007FFE3946B94806F025F93946B84806F064
:1046D00021F9B54803F01AFE2421B64806F01AF96C
:1046E000D6F8BC00AF4907F04BFB06F09FFE0095E3
:1046F00002460B46AC4803F063FE3946AB4806F071
:1047000009F93946AA4806F005F9A74803F0FEFD65
:104710002B21A94806F0FEF8706B06F087FE009783
:104720000B460246A04803F04BFE0121A34806F0C9
:10473000F1F839469E4806F0EDF89B4803F0E6FD97
:10474000994803F0E3FD03232360FEF721BF2368AC
:104750002868012B7EF4ACAEFFF7F9B906F0B0F88B
:1047600000287FF703A89048954E03F063FF00EB05
:104770008000430001226520A6F85C30226028609A
:10478000FFF7E5B906F09CF800287EF7EFAF864802
:104790008B4E03F04FFF00EB8000430001226520A9
:1047A000A6F85E3022602860FFF7D1B906F088F8DD
:1047B00000287EF7DBAF7C48814E03F03BFF07F01B
:1047C0008BFA784907F090FB652301227061226023
:1047D0002B601846FFF7BBB906F072F800287EF789
:1047E000C5AF7148764E03F025FF07F075FA6D49A5
:1047F00007F07AFB65230122F06122602B601846E6
:10480000FFF7A5B96E4B93F8C020002A00F07C8317
:10481000002283F8C0200123652023602860FFF771
:1048200096B906F04DF800287EF7A0AF5E48644EBA
:1048300003F000FF07F050FA652301223063226085
:104840002B601846FFF783B95D4AD2F8B0300133C8
:10485000062BC8BF0023C2F8B030DCE706F030F802
:1048600000287EF783AF5048554E03F0E3FE6523E2
:104870000122C6F8B40022602B601846FFF767B922
:1048800049484F4E03F0D6FE07F026FA4D4907F08F
:1048900077FA07467764D6F8C80007F01DFA3A465B
:1048A0000346FEF7F2BD464E96F8400095E401231C
:1048B000236006F005F8002805DD3B48404E03F074
:1048C000B9FEC6F8AC000123632023602860FFF71F
:1048D0003EB90123236005F0F3FF00287EF768AEA0
:1048E0003148374E03F0A6FE07F0F6F9C6F8880007
:1048F000FEF75EBE0123236005F0E2FF00287EF78D
:1049000057AE29482E4E03F095FEA6F8BA00FEF7E2
:104910004FBE2B4BDA6F012A0CBF02220122DA674D
:10492000D1E70123236005F0CBFF0028CBDD1E4833
:10493000234E03F07FFEC6F89000C4E7204A936F31
:104940000133032BC8BF00239367BCE71C4ED6F886
:10495000A030B3FA83F35B0901226420C6F8A030CB
:1049600022602860FFF7F3B8012317482360FCF7A3
:104970002BF9164A2368106064222A606420FEF72F
:104980001ABD134A1368B3FA83F35B09012164204B
:10499000136021602860FFF7DAB80E4AF2E700BF23
:1049A000C414010000007A44C487FF1FB40C010046
:1049B000DC160100DC14010004150100E007010011
:1049C00050C1FF1F6F12833AF892FF1F5492FF1FCE
:1049D0007892FF1F4492FF1FBC4A137801214B407D
:1049E0006420137021602860FFF7B1B801232360B1
:1049F00005F066FF002800F39482B54B1A68042A7C
:104A0000C4BF02221A6064232B602368B6E7B14E4C
:104A1000736FB3FA83F35B0901226320736722602B
:104A20002860FFF794B8AC4AACE7AC4AAAE7AC4AB6
:104A3000AC4F1368002B0CBF012300234FF0010083
:104A40001360206040F02083034695E7A64A99E76B
:104A5000A04ED6F88030B3FA83F35B0901226320BD
:104A6000C6F8803022602860FFF771B805F028FF93
:104A700000287FF76CAE9D48964E03F0DBFD0122C7
:104A80006223B06622602B6048E405F019FF00281D
:104A90007FF75DAE95488F4E03F0CCFD07F01CF913
:104AA00001226223B06222602B6037E405F008FF28
:104AB00000287FF74CAE8D48864E03F0BBFD07F013
:104AC0000BF901226223F06222602B6026E405F0DC
:104AD000F7FE00287FF73BAE84487E4E03F0AAFD28
:104AE00007F0FAF8824907F0FFF901226223B06467
:104AF00022602B6012E405F0E3FE00287FF727AE6A
:104B00007A48744E03F096FD07F0E6F8784907F00E
:104B1000EBF901226223F06422602B60FFF7FEBBF9
:104B200005F0CEFE00287FF712AE7048694E03F004
:104B300081FD07F0D1F86E4907F0D6F90122622312
:104B4000F06022602B60FFF7E9BB05F0B9FE00289A
:104B50007FF7FDAD65485F4E03F06CFD07F0BCF8D4
:104B6000634907F0C1F901226223306122602B60A2
:104B7000FFF7D4BB0022732322602B60FEF7A0BC9A
:104B80005C4B5D48534E002202211A6005F0C2FEC4
:104B9000564803F0BBFB0B21584805F0BBFE022131
:104BA000554805F0B7FE514803F0B0FB01226223DF
:104BB00022602B60FFF7B2BBFCF7CAFC02214E4813
:104BC000444E05F0A7FE494803F0A0FB02214A48E5
:104BD00005F0A0FE454803F099FB0221464805F088
:104BE00099FE424803F092FB1721454805F092FEDA
:104BF0003E4803F08BFBD2E705F062FE00287FF70A
:104C0000A6AD3A48334E03F015FD01226223F0664B
:104C100022602B60FFF782BB05F052FE00287FF771
:104C200096AD32482B4E03F005FD0122622330671A
:104C300022602B60FFF772BB05F042FE00287FF771
:104C400086AD2A48234E03F0F5FC01226223B065AD
:104C500022602B60FFF762BB05F032FE00287FF771
:104C600076AD22481B4E03F0E5FC00EB80004300CC
:104C700001216222A6F8603021602A60FFF74EBB56
:104C800005F01EFE00287FF762AD1848114E03F0B4
:104C9000D1FC07F021F8164907F026F9012262231A
:104CA000B06122602B60FFF739BB05F009FE0028D8
:104CB0007FF74DAD0D48074E03F0BCFC0122622387
:104CC000306522602B60FFF729BB00BFDCC2FF1FED
:104CD0004887FF1F50C1FF1FE0C2FF1F88C2FF1F90
:104CE000A4C2FF1FE8C2FF1F44C1FF1FC487FF1FEC
:104CF00000007A44F092FF1FDC160100180C01003E
:104D0000000C0100D8220021C04803F087FD28686C
:104D1000BF4AA0F1730001210023B0FA80F04009DE
:104D200011602360FEF7CABB04F05CFF0421B948A0
:104D300005F0F0FDB848B54D03F0E8FAD6F8B0300C
:104D4000002B12DD1821B54805F0E4FDD5F8B410AC
:104D5000B14803F02BFB0221B14805F0DBFDAE4862
:104D600003F0D4FAAC4803F0D1FA1B21AD4805F0AA
:104D7000D1FD96F8C030012B15BF12211421AA488D
:104D8000AA4805F0C7FDA44803F0C0FA1F21A848AF
:104D900005F0C0FD306B06F049FB02250B460246CC
:104DA00000959D4803F00CFB2946A24805F0B2FD92
:104DB000994803F0ABFA13219F4805F0ABFD9648E4
:104DC00003F0A4FA06232360FEF7E2BB0B219B4805
:104DD00005F0A0FDAEE70D21994805F09BFDA9E780
:104DE0000D21984805F096FDA4E70C21964805F0A2
:104DF00091FD9FE70D21954805F08CFD9AE70C2168
:104E0000934805F087FD95E72368002B08BF7328BA
:104E10000CBF01200020FEF751BB8E4BC340DB07C7
:104E20007FF5DEA90746FFF7DFB905F049FD002849
:104E30007EF70CAC7848754E03F0FCFB06F04CFF97
:104E400061230122B06322602B601846FEF77FBE0B
:104E500005F036FD00287EF7F9AB6F486B4E03F086
:104E6000E9FB06F039FF7C4906F08AFF6123012245
:104E7000706222602B601846FEF769BE05F020FDC7
:104E800000287EF78BAC6448604E03F0D3FB734B75
:104E9000C6F8A40002221A60FCF7C8FE01226B23A8
:104EA00022602B60FEF7E8BD05F00AFD00287EF7C2
:104EB00075AC5948554E03F0BDFB684BC6F8A800C9
:104EC0000322E8E705F0FCFC00287EF767AC5248B7
:104ED0004E4E03F0AFFB01226B23C6F89800226010
:104EE0002B60FEF7C9BD05F0EBFC00287EF756AC41
:104EF0004948464E03F09EFB01226B23C6F89400FE
:104F000022602B60FEF7B8BD012283F8C02082E446
:104F10001121534805F0FEFC3F4803F0F7F9FEF776
:104F2000E8BE3D4803F086FB4E4B0246186066E53E
:104F30001C214D4805F0EEFCD5F88C004B4906F0DD
:104F40001FFF06F073FA02270B460246009732480D
:104F500003F036FA0521464805F0DCFC2E4803F044
:104F6000D5F9AB6F012B18D11D21424805F0D2FCB9
:104F7000D5F888003D4906F003FF06F057FA009780
:104F80000B460246244803F01BFA0521384805F079
:104F9000C1FC214803F0BAF9AB6F23F00202012AE9
:104FA0007FF4FEA81C213448184D05F0B3FCB6F878
:104FB000BA10194803F0FAF90321304805F0AAFCA9
:104FC000154803F0A3F9B36F012B7FF4E9A81F2163
:104FD0002B4805F09FFCD5F8900006F07DFE1E4999
:104FE00006F0CEFE06F022FA02270B460246009794
:104FF000094803F0E5F93946224805F08BFC0648DC
:1050000003F084F9AB6FFFF7CBB800BF50C1FF1FAF
:105010002087FF1FC80D0100C487FF1FD00D0100AE
:10502000EC0D0100F00D01000C0E0100200E01003E
:10503000380E0100580E0100580C0100BC0D010093
:10504000AC0D01009C0D01008C0D01006C0D0100E8
:105050007C0D01000F3080006F12833A7892FF1FA1
:10506000440C01004887FF1FD41101000AD7233CDC
:10507000F4110100FC1101001C1201003C1201009E
:105080004012010060120100264B002631460B2021
:105090001E6003F05BFF31460C2003F057FF3146E2
:1050A000142003F053FF3146152003F04FFF3B68F7
:1050B00062E41E211C4805F02DFC1C4803F026F973
:1050C000FFF744B820211A4805F024FC174803F0E4
:1050D0001DF9FFF73BB81721164805F01BFC1348D4
:1050E00003F014F9FFF732B817211348134D05F0F8
:1050F00011FCF36F012B08D0022B7FF454A8104948
:105100000A48FCF713FAFFF74EB80E490748FCF7B8
:105110000DFAEB6FF0E7094EFEF7AEBC074EFFF756
:10512000FDB800BFEC92FF1F14110100C487FF1FE0
:1051300034110100581101006412010050C1FF1F19
:10514000901201007C12010038B5164C164A2368F3
:10515000101D12F8011F904241EA0323F9D1236088
:10516000124C03F100432360114B9B6F022B11D0B3
:10517000104B1B68012B00D038BD0F4803F0C6F858
:1051800021680D4803F012F903210C48BDE83840AE
:1051900005F0C0BB20680A4D06F09EFD2860FDF7B3
:1051A00007F8E5E7D4C2FF1FB7C2FF1FE492FF1F55
:1051B00050C1FF1FE0C2FF1FC487FF1F6C16010014
:1051C000CCC2FF1F30B5514C514D524883B02146DF
:1051D00001F0B8FFEA6F2368012A67D0022A56D08F
:1051E0006FF4C0615A18B2F5FF7F04D847494A48A6
:1051F000FBF710FD236803F100436FF4C062134412
:10520000B3F5FF7F03D841494348FBF703FD434B08
:105210001B68012B01D003B030BD414B1B68012B33
:10522000F9D1404B40481B6801930A2200230199A1
:1052300003F07CF82268354B002ADB795FDB3B49C1
:105240003B4807F065FD3A4807F09AFD01463848AB
:1052500005F060FB25682D4B15F0804540D1DB79CA
:105260008BB1631933491A7A314807F051FD304840
:1052700007F086FD01462E4805F04CFB0135E37929
:10528000EDB2AB42EDD8284803F040F8C3E740F256
:105290002252934221D040F2235293420FD040F247
:1052A000215293429CD1244924480AE040F2C23260
:1052B000934295D1FFF748FFEA6F23688EE71E49B6
:1052C0001F480D794A79CB78897802EB052202EBE9
:1052D000034303EB0163036099E717491948F0E7BB
:1052E000194D134C0FCD0FC495E8030044F8040B7F
:1052F000204620F81419152105F00CFBC3E71349CB
:105300000B4822F0604207F003FD9CE7B0C2FF1F8C
:1053100050C1FF1F00C3FF1FF892FF1F2087FF1F10
:10532000E0C2FF1FC4C4FF1FC487FF1F98160100FF
:10533000A0C0FF1FC416010098C0FF1FE492FF1F0A
:1053400060C2FF1F5CC2FF1FAC1601007016010097
:10535000A54B1B78052B00F0A4802DE9F04FA34C42
:10536000A34EA44DB4F86020B4F85C30A24832805B
:1053700083B02B80FBF728FEE16A06F09FFE08B1A0
:1053800000232B809C48FBF71DFEA16A06F0B4FEAB
:1053900010B1002333802B809748FBF757FDE1685D
:1053A00006F0AAFE08B100232B809348FBF74EFDC0
:1053B000E16806F0A1FE08B100232B808E488B4FD8
:1053C000FBF71EFD216906F079FE00286FD000234F
:1053D0003380B5F90030874F002B50DD8648DFF869
:1053E0000C82FBF7F1FD216B06F068FE002840F00F
:1053F000C680824B80481B687C4F012B00F00081E7
:10540000FBF724FDE1698046606906F0AFFB0146C9
:10541000404606F071FE002831D0B5F9000006F0D4
:105420005BFC81467448FBF711FD7C69F969824693
:10543000204606F09BFBB7F95E308046B7F95C006A
:10544000C01A06F049FC41460746504606F08EFB5E
:105450000146384606F094FC41460746204606F0D1
:1054600085FB0146384606F03FFD002106F080FB33
:105470000146484606F07AFB06F048FE2880B6F959
:1054800000305B4A002BAFBFB5F90030B5F90030F2
:1054900000211180002B01DA00232B8003B0BDE82E
:1054A000F08F5349534A00230B80138070475248B2
:1054B000FBF7A6FCB96906F001FE002887D1B6F912
:1054C0000030DFF82C91002B83DD4B48FBF77AFD91
:1054D000796B06F011FE002840F0E3804648434F08
:1054E000FBF78EFC216906F007FE002800F0CF8054
:1054F0004148DFF8F880FBF783FCD4F8BC1007467E
:10550000A06906F035FB0146384606F0D7FD0028B5
:105510003FF45FAFB6F9000006F0DEFB8246364886
:10552000FBF76EFC8346B8F96000D8F8187006F0F7
:10553000D3FB39468146584606F018FB4946834658
:10554000002006F013FB0146584606F019FCD8F877
:10555000BC108346384606F00BFB394606F006FBC6
:105560000146584606F0C0FC494606F001FB0146DC
:10557000504606F0FBFA06F0C9FD308029E7B7F97E
:10558000000006F0A9FB83461B48FBF71DFD0190B8
:10559000B8F95C00D8F82CA006F09EFB019B814670
:1055A0005146184606F0E2FA49460190002006F0FE
:1055B000DDFA019B0146184606F0E2FB51460190D8
:1055C000D8F8300006F0D2FA019B0146184606F0E2
:1055D0008BFC494606F0CCFA0146584606F0C6FA5E
:1055E00006F094FD388004E740C1FF1F50C1FF1F43
:1055F000D0C2FF1F7492FF1FF892FF1F8092FF1FFF
:10560000FBF724FCE1698046206A06F0AFFA014608
:10561000404606F071FD00283FF431AFB5F90000B7
:1056200006F05AFB82463648FBF710FCD7F820807C
:10563000F9698346404606F099FA8146B7F95E005B
:1056400006F04AFB0446B7F95C0006F045FB21462C
:1056500006F08CFA49460746584606F087FA014696
:10566000384606F08DFB49460746404606F07EFA6E
:105670000146384606F038FC214606F079FA014624
:10568000504606F073FA06F041FD2880F7E61C4804
:10569000FBF7B6FBB96906F02FFD00287FF428AFB1
:1056A00097E6B9F9000006F017FB82461448FBF7AD
:1056B00089FC0190B7F96000D7F8348006F00CFB44
:1056C000019B83464146184606F050FA014658466B
:1056D00006F056FB41468346B86A06F047FA014693
:1056E000584606F001FC002106F042FA01465046F9
:1056F00006F03CFA06F00AFDA9F80000EEE600BF4D
:10570000F892FF1F08B5274802F000FE072126483F
:1057100005F000F9112003F01FFC0621F8B1234821
:1057200005F0F8F8122003F017FC062100B320481A
:1057300005F0F0F8122003F00FFC062108B31D4815
:1057400005F0E8F8132003F007FC062110BB1A4807
:1057500005F0E0F81348BDE8084002F0D7BD17484F
:1057600005F0D8F8122003F0F7FB06210028DED15F
:10577000134805F0CFF8122003F0EEFB06210028B5
:10578000DDD1104805F0C6F8132003F0E5FB062133
:105790000028DCD00C4805F0BDF80248BDE8084000
:1057A00002F0B4BDC487FF1FD0160100D816010057
:1057B000E8160100F816010010170100E0160100BC
:1057C000F0160100001701000817010010B5254C64
:1057D0002368042B27DC01210B2003F0B7FB0121F8
:1057E0000C2003F0B3FB0121142003F0AFFB0121D7
:1057F000152003F0ABFBFF21162003F027FAFF2151
:10580000172003F023FAFF21052003F01FFAFF21E0
:10581000062003F01BFA236801330A2B2360C4BF60
:105820000023236010BD00210B2003F08FFB00211B
:105830000C2003F08BFB0021142003F087FB0021D8
:10584000152003F083FB0021162003F0FFF900214F
:10585000172003F0FBF90021052003F0F7F90021E0
:10586000D6E700BF4C92FF1F30B5092183B0B64880
:1058700003F088FE222003F02DFEB44BD3F8A030B5
:10588000012BB34B1B7809D0052B10D8DFE813F0A0
:105890003D0142014C01510147010B00002B00F07A
:1058A0004D81052B03D10721AA4803F06BFE22206E
:1058B00003F010FEFF2003F00DFEFF2003F00AFEB0
:1058C000A54CFF2003F006FE0821A44803F05AFE71
:1058D0002168A34802F06AFDFF2003F0FBFDFF20D2
:1058E00003F0F8FDFF2003F0F5FD09219D4803F0CA
:1058F00049FE21689A4802F059FDFF2003F0EAFDB5
:10590000FF2003F0E7FDFF2003F0E4FD0C219648A3
:1059100003F038FE954B9649186806F0E5FA05F055
:1059200085FD002402460B4600948D4802F048FD98
:10593000FF2003F0CFFDFF2003F0CCFDFF2003F09C
:10594000C9FD222003F0C6FDFF2003F0C3FDFF20A8
:1059500003F0C0FDFF2003F0BDFD0921854803F0E1
:1059600011FE8548FBF7CAFA05F060FD0094024677
:105970000B467B4802F024FDFF2003F0ABFDFF2027
:1059800003F0A8FDFF2003F0A5FD0C217B4803F0E8
:10599000F9FD7948FBF718FB05F048FD0094024635
:1059A0000B466F4802F00CFDFF2003F093FDFF2033
:1059B00003F090FDFF2003F08DFD0D21704803F0F2
:1059C000E1FD6D48FBF7FEFA05F030FD009402465C
:1059D0000B46634802F0F4FCFF2003F07BFDFF2040
:1059E00003F078FDFF2003F075FD0921654803F001
:1059F000C9FD6148FBF74EFA634906F0C1F905F0AD
:105A000015FD009402460B46554802F0D9FCFF20D4
:105A100003F060FDFF2003F05DFDFF2003F05AFD61
:105A20000C215A4803F0AEFD5348FBF7E9F95849F9
:105A300006F0A6F905F0FAFC009402460B46484829
:105A400002F0BEFCFF2003F045FDFF2003F042FD05
:105A5000FF2003F03FFD0D214E4803F093FD464823
:105A6000FBF7F4F94A4906F08BF905F0DFFC0094E6
:105A700002460B463A4802F0A3FCFF2003F02AFD41
:105A8000FF2003F027FDFF2003F024FD09214248F9
:105A900003F078FD414B3248196802F087FCFF2083
:105AA00003F018FDFF2003F015FDFF2003F012FDA9
:105AB0000E213B4803F066FD2F48FBF7C7F905466A
:105AC0002D48FBF79DF90146284606F04FF830496E
:105AD00006F056F905F0AAFC009402460B46204851
