:1000000000800020BD010000B57200006D7200008C
:100010006D7200006D7200006D7200006D72000064
:100020006D7200006D7200006D720000B57200000C
:10003000B57200006D720000C18B0000C58C00001D
:10004000B5720000B5720000B5720000B572000014
:10005000B5720000B5720000B5720000B572000004
:10006000B5720000B5720000B5720000B5720000F4
:10007000B5720000B5720000B5720000B5720000E4
:10008000B5720000B5720000B5720000B5720000D4
:10009000B5720000B5720000B5720000B5720000C4
:1000A000B5720000B5720000B5720000B5720000B4
:1000B000B572000089660000956600009966000030
:1000C000A5660000A9660000AD660000B5720000DC
:1000D000B5720000B5720000B5720000B572000084
:1000E000B5720000B5720000B5720000B572000074
:1000F000B572000085920000B572000029790000F9
:10010000B5720000417C0000B5720000B5720000BD
:10011000B5720000B5720000B5720000B572000043
:10012000B5720000B5720000B5720000B572000033
:10013000B5720000B5720000B5720000B572000023
:10014000B5720000B5720000B5720000B572000013
:10015000B5720000B5720000B5720000B572000003
:10016000B57200008D7E0000B5720000B57200000F
:10017000B5720000B5720000B5720000B5720000E3
:10018000B5720000B5720000B5720000B5720000D3
:10019000B5720000B5720000B5720000B5720000C3
:1001A000B5720000B5720000B5720000B5720000B3
:1001B000B5720000B5720000B5720000564B4CF2EB
:1001C000205210B51A804DF628121A8000BF00BFC9
:1001D00007F074F8514B4FF010621A60504A9A6061
:1001E000504ADA60504A136813F4807304D14F49BF
:1001F0000B604FF4A85313604D4B1A78110703D5C9
:100200001A7842F008021A704A4B4B492A221A7097
:100210004A4A4B4B8B4204D252F8040F43F8040B6A
:10022000F8E7484B484900228B4202D243F8042B9E
:10023000FAE74649464A002352F8230041F82300D2
:1002400001336F2BF8D1434B434A802103F8011B44
:100250009342FBD1414B3D4A1A60414B8A221A70AE
:10026000A3F5805324225A70A0221A709A7992071B
:10027000FCD59A79D406FCD43A4A937903F00C035E
:10028000082B384BF9D103221A7140225A719A79FE
:100290009006FCD5334A9179324B4906FBD5324A58
:1002A000324911600221516020221A709A7902F0BD
:1002B0000C020C2AFAD12E4B2E4A1A602E4B2F4AD2
:1002C0001A6000225A60072243F8042C2C4AC3F813
:1002D0000C2D62B607F0A8FA144B1B68DA0705D597
:1002E000284807F085F8284B284A1A60284B1B78C5
:1002F0005B0609D5244C254B22689A4204D121483B
:1003000007F076F8002323600BF0C0FA06F0DCFF5C
:1003100008F078FEFEE700BF0E2005403080044064
:10032000823F04000100002B10D0034014D0034092
:1003300002D0074000E007402092FF1F4C1201004E
:100340002087FF1F2092FF1FE0C2FF1F0082FF1FB8
:100350000000000000E400E05FE400E008ED00E0E1
:100360000050064000400640448004400000030165
:1003700004800440C010050014E000E0FF76010096
:10038000000020209F0B0D5C1CE00340A5C3945A85
:1003900000F00740FFFFFFFFFFFFFFFFFFFFFFFF32
:1003A000FFFFFFFFFFFFFFFFFFFFFFFFFFFFFFFF5D
:1003B000FFFFFFFFFFFFFFFFFFFFFFFFFFFFFFFF4D
:1003C000FFFFFFFFFFFFFFFFFFFFFFFFFFFFFFFF3D
:1003D000FFFFFFFFFFFFFFFFFFFFFFFFFFFFFFFF2D
:1003E000FFFFFFFFFFFFFFFFFFFFFFFFFFFFFFFF1D
:1003F000FFFFFFFFFFFFFFFFFFFFFFFFFFFFFFFF0D
:10040000FFFFFFFFFFFFFFFFFFFFFFFFDEF9FFFF23
:1004100010B5054C237833B9044B13B10448AFF33E
:1004200000800123237010BD2092FF1F00000000F8
:1004300048120100084B10B51BB108490848AFF33A
:1004400000800848036803B910BD074B002BFBD0A0
:10045000BDE81040184700BF000000002492FF1FB5
:10046000481201002092FF1F00000000F0B400F1CC
:100470001C06104F00243146031F00F13C0243F8D4
:10048000044FB34241F8047F4FF0000542F8044F97
:10049000F5D1094A09490566002345668566C566A2
:1004A000C56702678267416780F8843080F89C30B6
:1004B000F0BC70470000A040000048430000C8C2E4
:1004C0002DE9F04190F89C4084B0202364008DF821
:1004D0000530E4B2042380468DF804408DF80630E0
:1004E0000327204607F048FB02210DF1050007F025
:1004F0004DFB8DF8044005F04DFA30B3092140481A
:1005000008F0F8F90023102221463E4808F0F4FBD9
:1005100001213D4808F0EEF9002310229DF8051056
:10052000384808F0E9FB0121374808F0E3F90023D7
:1005300010229DF80610334808F0DEFB01213248F6
:1005400008F0D8F92F4808F0C7FB02208DF80440C6
:1005500007F01CF905F01EFA00284CD102AE002469
:1005600007F02AFB70B3072C1FD101E007F034FB22
:1005700007F022FB0028F9D105F00CFA10B1214850
:1005800008F0AAFB9DF80B009DF80C109DF80D20BB
:100590009DF80E30C8F88800C8F88C10C8F8902074
:1005A000C8F8943004B0BDE8F08107F015FB0546AB
:1005B00006F8010B05F0EEF970B9013407F0FCFA0A
:1005C0000028D0D1072CD3D005F0E4F978B9013F49
:1005D000D8D09DF8044084E7E9B2002310220948EE
:1005E00008F08AFB0121084808F084F9E5E705488E
:1005F00008F072FBEBE70721044808F07BF9ADE750
:1006000058FA0000C087FF1F3801010064FA00009B
:1006100090F88C00704700BF90F88800704700BFCA
:1006200090F89000704700BF90F89400704700BFAA
:10063000082994BF50F82100002070472DE9F041AF
:100640000B4E8046041F00F11C0754F8045F31462E
:1006500028460BF091F830B1D8F8801028460BF0FE
:10066000A9F800B12E46BC42EFD13046BDE8F0817A
:10067000000020412DE9F041D0F880704FF00008D3
:10068000041F00F11C0654F8045F394628460BF09D
:1006900091F8084948B128460BF06EF8414620B160
:1006A00028460BF087F800B1A846B442EBD140468B
:1006B000BDE8F081000070422DE9F047D0F880706D
:1006C00082464FF00009041F00F11C064FF000089D
:1006D00054F8045F394628460BF06CF80C4950B1C9
:1006E00028460BF049F830B1484629460AF09EFDED
:1006F00008F101088146B442EAD1CAF8A080404618
:100700000AF048FE014648460AF04CFFBDE8F08773
:1007100000007042D0F8A000704700BF38B5846E6A
:10072000456E214628460BF027F800B92C46204696
:1007300038BD00BFD0F898302DE9F041002B79D1B9
:10074000866E456E0446314628460AF06FFDE76E18
:10075000394680460AF06AFD7E490AF023FF4FF0D1
:100760007C5104460BF026F8002861D04FF07C51F4
:1007700028460BF01FF84FF07C51002860D1284626
:100780000AF0FAFF38B14FF07C5130460BF012F806
:10079000002840F0A7804FF07C5128460BF00AF863
:1007A000002860D14FF07C5128460BF003F8002858
:1007B00040F0A1804FF07C5128460AF0FBFF002852
:1007C0006CD14FF07C5128460AF0D6FF4FF07C5197
:1007D00010B330460AF0EEFF38B14FF07C51384686
:1007E0000AF0CAFF002840F0B0804FF07C5130463C
:1007F0000AF0C2FF002861D04FF07C5138460AF061
:10080000D9FF002840F0A38038464FF07C510AF011
:10081000B3FF68B1504C10E028460AF0ADFF002845
:10082000E3D128464FF07C510AF0A6FF002845D1BD
:10083000BDE8F08100EB8300046E2046BDE8F08146
:1008400030460AF0B7FF4FF07C5100283ED03846C2
:100850000AF0B0FF0028F0D14FF07C5128460AF092
:100860008BFF002859D14FF07C5130460AF084FFAD
:10087000002840D04FF07C5138460AF09BFF0028FA
:1008800041D14FF07C5130460AF094FF68B14FF0EF
:100890007C5138460AF070FF00284FD14FF07C5150
:1008A00030460AF069FF00288BD04FF07C51384663
:1008B0000AF062FF002884D02C46BEE730464FF095
:1008C0007C510AF059FF0028B2D09DE728460AF073
:1008D00053FF0028C7D04FF07C5130460AF06AFF22
:1008E0000028C0D04FF07C5138460AF063FF002842
:1008F0003FF451AF18E04FF07C5130460AF05AFFF8
:100900000028CBD0C3E7394628460AF08FFC4FF0C9
:100910007C510AF093FD04468FE74FF07C51384636
:100920000AF048FF00289ED0394630460AF07EFC87
:100930004FF07C510AF082FD04467EE740464FF0BE
:100940007C510AF07BFD044677E7344675E73C4668
:1009500073E700BF000040400000A0C270B504462D
:10096000FFF7E8FE4FF07C510AF024FF28B3666ED3
:100970004FF07C5130460AF01DFFA56EF0B9E46ED1
:100980004FF07C5128460AF015FF58B129463046F1
:100990000AF010FF30B1214628460AF0EDFE08B1FA
:1009A0002C4620E04FF07C5120460AF003FF20B196
:1009B000284621460AF0FEFE78B970BD3046294629
:1009C0000AF0DAFEE46E0028DAD0304621460AF05A
:1009D000D3FE0028D4D0344605E0304621460AF044
:1009E000E9FE0028E9D0204670BD00BF01392DE99D
:1009F000F04780461546032900F2ED80DFE801F05C
:100A0000B68A5E02537B107B03EB00200AF0C2FC27
:100A100075490AF013FDC8F81800EB7BA87B03EBBF
:100A200000200AF0B7FC70490AF008FDD8F8709071
:100A3000D8F86860D8F874A0D8F86470D8F8004086
:100A4000C8F81C004046FFF789FF494605460AF0F2
:100A500093FE08B1C8F87050394630460AF0AAFE35
:100A6000002840F0B080504639460AF085FE10B1AB
:100A70003E46C8F8746008F12006C14608F14005FA
:100A8000002701E059F8044F306821460AF092FE31
:100A90000137214628B1D8F880000AF077FE00B16E
:100AA0003460214628680AF067FE043600B12C60E5
:100AB000082F05F10405E5D1BDE8F087507A3238FA
:100AC0000AF068FCC8F874008246A87A32380AF046
:100AD00061FCC8F878006B7B287B03EB00200AF0F0
:100AE00059FC41490AF0AAFCC8F81000EB7BA87B2E
:100AF00003EB00200AF04EFC3B490AF09FFCD8F8BB
:100B00007090C8F81400D8F86860D8F86470D8F805
:100B1000004097E7507A32380AF03CFCC8F86C0085
:100B2000A87A32380AF036FCC8F870006B7B814630
:100B3000287B03EB00200AF02DFC2B490AF07EFCF9
:100B4000C8F80800EB7BA87B03EB00200AF022FC2E
:100B500025490AF073FCD8F86860C8F80C00D8F88A
:100B600074A0D8F86470D8F800406BE7137AC0F826
:100B7000A430907A32380AF00DFCC8F864000746B9
:100B8000E87A32380AF006FCC8F868006B7B064643
:100B9000287B03EB00200AF0FDFB13490AF04EFC12
:100BA000C8F80000EB7B0446A87B03EB00200AF0AA
:100BB000F1FB0D490AF042FCD8F87090C8F8040027
:100BC000D8F874A03EE7514630460AF0F3FD0028FD
:100BD0007FF44FAF4FE7D0F87090866ED0F874A0D6
:100BE000476E04682EE700BF0AD7233C2DE9F04F7B
:100BF00090F89C3091B007465B008DF80830FFF705
:100C00005FFCD7F89000D7F89440D7F88C30D7F82D
:100C1000882097F89C108DE81100C94804F0B4FFB3
:100C200030223D2303268DF809208DF80A300DF17E
:100C30000A059DF8089049F00108404606F09CFF1F
:100C40000DF10900022106F0A1FF8DF8088042464F
:100C500002AB00205040082410F0800F4FEA400003
:100C600018BF80F00700013CC0B2F5D19D4202D010
:100C700013F8012FEEE706F07FFF04F08BFE00284B
:100C800040F07C8202208DF8089006F07FFD04F091
:100C900081FE002840F0B8820DF10C0AD1460024F4
:100CA00006F08AFF002843D0032C34D101E006F07F
:100CB00093FF06F081FF0028F9D104F06BFE10B11C
:100CC000A04808F009F8312303268DF809308DF883
:100CD0000A609DF8089049F00108404606F04CFF74
:100CE0000DF10900022106F051FF8DF808804246FF
:100CF00002AB00205040082410F0800F4FEA400063
:100D000018BF80F00700013CC0B2F5D19D4228D049
:100D100013F8012FEEE706F05FFF09F8010B80469C
:100D200004F038FE68B9013406F046FF0028BBD154
:100D3000032CBED004F02EFE78B9013E7FF479AFCB
:100D4000C1E75FFA88F1002310227E4807F0D4FF44
:100D500001217D4807F0CEFDE5E77A4807F0BCFFAA
:100D6000EBE706F009FF04F015FE002840F0C5810E
:100D700002208DF8089006F009FD04F00BFE002813
:100D800040F03D820DF10C09002406F015FF00280B
:100D900044D0032C35D101E006F01EFF06F00CFF15
:100DA0000028F9D104F0F6FD10B1664807F094FF71
:100DB000342201238DF809208DF80A3003269DF88E
:100DC000089049F00108404606F0D6FE0DF10900F2
:100DD000022106F0DBFE8DF80880424602AB0020BF
:100DE0005040082410F0800F4FEA400018BF80F0F8
:100DF0000700013CC0B2F5D19D4228D013F8012F65
:100E0000EEE706F0E9FE09F8010B804604F0C2FDAA
:100E100068B9013406F0D0FE0028BAD1032CBDD049
:100E200004F0B8FD78B9013E7FF453AFC0E75FFA34
:100E300088F100231022434807F05EFF0121424859
:100E400007F058FDE5E73F4807F046FFEBE706F0FF
:100E500093FE04F09FFD002840F00E8102208DF8E3
:100E6000089006F093FC04F095FD002840F0D68130
:100E70000DF10C09002406F09FFE002800F084808C
:100E8000032C72D101E006F0A7FE06F095FE0028C3
:100E9000F9D104F07FFD10B12A4807F01DFF0122AF
:100EA00012238DF809208DF80A304FF003089DF8C1
:100EB0000840204606F060FE02210DF1090006F010
:100EC00065FE8DF8084004F065FD30B309211F4828
:100ED00007F010FD0023102221461A4807F00CFFEE
:100EE0000121194807F006FD002310229DF8091082
:100EF000144807F001FF0121134807F0FBFC002311
:100F000010229DF80A100F4807F0F6FE01210E4846
:100F100007F0F0FC0B4807F0DFFE06208DF80840D4
:100F200006F034FC04F036FD002840F0728103AD79
:100F3000002606F041FE00283FD0162E2FD109E0F2
:100F40006CFA0000C087FF1F3801010058FA00004A
:100F500006F042FE06F030FE0028F9D104F01AFD3A
:100F6000162600287DD1152035E006F035FE09F85B
:100F7000010B804604F00EFD00285BD1013406F021
:100F80001BFE00287FF47CAF032C3FF47EAF04F0FF
:100F900001FD00286CD1013E7FF411AF7FE706F020
:100FA0001BFE05F8010B044604F0F4FC00284DD1AB
:100FB000013606F001FE0028BFD1162ECAD004F07B
:100FC000E9FC00284DD1B8F101087FF470AF701E24
:100FD000002840F31E82002303AA1C4612F8011BBE
:100FE00008254C4014F0800F4FEA440418BF84F0E9
:100FF0000704013DE4B2F5D101338342EEDB9DF8F5
:10100000218089484146224604F0BEFD162EC14685
:10101000A34602D1A04500F0138197F89C108348A5
:10102000CDF800B04B46324604F0DCFD002011B094
:10103000BDE8F08F5FFA88F1002310227C4807F0AA
:101040005BFE01217B4807F055FC97E7E1B20023E6
:101050001022774807F050FE0121764807F04AFC3D
:10106000A6E7734807F038FE162EACD11520B2E77C
:101070006F4807F031FE8EE709216F4807F03AFC10
:101080002346102241466A4807F036FE012169488E
:1010900007F030FC234610229DF80910644807F041
:1010A0002BFE0121634807F025FC102223469DF802
:1010B0000A105F4807F020FE01215E4807F01AFC85
:1010C00021460DF10B0002AA12F8014B6140C9B292
:1010D000082311F0800F4FEA410118BF81F007018A
:1010E000013BC9B2F5D19042EED11022504807F031
:1010F00003FE4F4807F0F0FDB0E609214E4807F027
:10110000F9FB234610224146494807F0F5FD01212D
:10111000484807F0EFFB234610229DF80910444889
:1011200007F0EAFD0121434807F0E4FB10222346C3
:101130009DF80A103E4807F0DFFD01213D4807F009
:10114000D9FB21460DF10B0002AA12F8014B6140B8
:10115000C9B2082311F0800F4FEA410118BF81F096
:101160000701013BC9B2F5D19042EED110223048BF
:1011700007F0C2FD2E4807F0AFFDF9E509212E4822
:1011800007F0B8FB234610224146294807F0B4FD7A
:101190000121284807F0AEFB234610229DF80910D4
:1011A000234807F0A9FD0121224807F0A3FB1022E4
:1011B00023469DF80A101E4807F09EFD01211D4898
:1011C00007F098FB21460DF10B0002AA12F8014B23
:1011D0006140C9B2082311F0800F4FEA410118BFE6
:1011E00081F00701013BC9B2F5D19042EED1102246
:1011F0000F4807F081FD0E4807F06EFD42E507211C
:101200000E4807F077FBBDE507210C4807F072FB9D
:1012100042E50721094807F06DFB88E607210748EA
:1012200007F068FB24E600BFA0FA0000ECFA00001B
:10123000C087FF1F3801010058FA000064FA00005F
:101240009DF80C3097F89C20B3EB420F7FF4EEAE84
:101250009DF80D30012B7FF4E9AE9DF80E30122B76
:101260007FF4E4AE9DF810309DF80F0003EB0020F2
:101270000AF090F86F490AF0E1F8F96F3866044611
:101280000AF098FA00B1FC67B96F20460AF074FAC8
:1012900000B1BC67A7F1040907F1200607F140057A
:1012A0004FF008089AF806309AF8050003EB002082
:1012B0000AF070F860490AF0C1F849F8040F316883
:1012C00004460AF059FA0AF1020A30B1D7F8801040
:1012D00020460AF065FA00B13460296820460AF019
:1012E00069FA043600B12C60B8F1010805F1040573
:1012F000D8D19DF81E309DF81D0003EB0020023070
:101300000AF048F84D490AF04DF901464C480AF0F8
:1013100049F94C4909F088FF4B490AF08FF8054616
:1013200008F0FAF80446284608F0F6F8474908F0AD
:1013300065F94749054620460AF080F8454909F015
:1013400075FF4549044628460AF078F801462046CC
:1013500009F06CFF01464FF07E500AF023F93F4937
:1013600009F062FF9DF81F209DF82030786603EB9E
:10137000022009300AF00EF839490AF013F9014643
:101380002F480AF00FF92F4909F04EFF2E490AF0B5
:1013900055F8054608F0C0F80446284608F0BCF8A1
:1013A0002A4908F02BF92A49054620460AF046F852
:1013B000284909F03BFF2849044628460AF03EF830
:1013C0000146204609F032FF01464FF07E500AF0F8
:1013D000E9F8224909F028FFB86604463846FFF7C5
:1013E000BDFA396F05460AF0C7F900B13D677D6E59
:1013F000204629460AF0DEF9A0B92946786F0AF09E
:10140000BBF908B12C467C67164804F0BDFB0120EF
:101410000DE69DF82190144849464246C34604F023
:10142000B3FBFAE5796F20460AF0C4F90028EAD147
:10143000EAE700BF1357053B2003C83900160147F0
:101440000AD7E33FE17A644000007A44000040405C
:10145000A40D8F395A80473A46A6DB33339388432D
:10146000002C0147C4FA0000A0FA00002DE9F8435F
:101470000026D0F8808006668146044600F12007E9
:1014800054F8045B414628460AF094F9084950B1E3
:1014900028460AF071F930B13046294609F0C6FEF7
:1014A0000646C9F86000BC42EAD13046BDE8F88380
:1014B0000000704205299ABF00EB8100406E0020B9
:1014C000704700BF3E2998BF80F89C10704700BF4E
:1014D00090F88400704700BFC0F89810704700BFB4
:1014E00080F88410704700BF30B50F4CC0F88010F2
:1014F00083B020460D4607F0EFFB204607F0ECFBDB
:10150000284609F0F1FA022502460B4600952046CE
:1015100007F03AFC204607F0DFFB204603B0BDE8A9
:10152000304007F0D9BB00BFC087FF1F70B500F582
:1015300025550646383500F120042046A834FEF72C
:1015400095FFAC42F9D106F1C805012428460021D7
:10155000FFF7C6FF214628460134FFF7B3FF3F2CB3
:1015600005F1A805F2D106F52653064A326100249A
:1015700005480649B06100227461F16130461A7075
:1015800070BD00BF00007A44000048430000C8C29C
:1015900042F684132DE9F041002200F5255600F5AE
:1015A00026578046C2503836043700F1C80402E09E
:1015B000A834B4420DD02046FFF78AFF0028F7D0A8
:1015C00020463D68FFF7A6F8A8342844B4423860A6
:1015D000F1D142F6841358F80300BDE8F08100BF52
:1015E000F8B50E46096801F47F6500290446A5F5A3
:1015F000C06511DB2D0901F00F07A82303FB05448B
:10160000203420460121FFF76BFF32463946204641
:10161000BDE8F840FFF7EAB90A4801F00F0707F004
:101620005BFB1221084807F065F93168054801F0B5
:10163000004100230A2207F05FFB02482D0907F052
:101640004BFBDAE7C087FF1F3CFB0000704700BF81
:10165000704700BF704700BF2DE9F04304460023E8
:1016600083B0064644F8C83B012504E001353F2D10
:1016700004F1A80469D02046FFF72AFF0028F5D01E
:101680004D4804F081FA29464C4804F07DFA204682
:10169000FFF7ACFA2046FFF7E9FE09F025FA02460B
:1016A0000B46474804F070FA2046FEF7C7FF804615
:1016B0002046FEF7DFFF0746404609F015FA804650
:1016C0003846894609F010FA42464B46CDE90001FA
:1016D0003C4804F059FA00212046FFF7EBFE0121B7
:1016E00080462046FFF7E6FE0746404609F0FCF933
:1016F00080463846894609F0F7F942464B46CDE91F
:101700000001314804F040FA2046FFF7AFFE0146E1
:10171000306809F08BFD30602046FFF71FF9B16992
:101720000AF02AF8002831D12046FEF7F7FFF169C8
:101730000AF040F8002899D02046FEF7EFFF013567
:101740003F2DF06104F1A80495D1706809F022FEE4
:101750000146306809F026FF7169306004460AF0DE
:1017600029F800B17461316920460AF005F800B12A
:1017700034610B2005F0D4FF06F52656337850B9B6
:101780007BB10123337003B0BDE8F0832046FFF73F
:10179000E5F8B061C8E743B90023337003B0BDE892
:1017A000F0830A4804F01EFAEBE7094804F004FA53
:1017B00000233370F2E700BF38FD000050FB00004B
:1017C0008CFB0000A0FB0000CCFB0000E8FB00004D
:1017D00020FC000070B5114B836000F525550646CE
:1017E000383500F1C80402E0A834AC4213D02046DA
:1017F000FFF76EFE0028F7D02046FEF71FFFB16806
:1018000009F0BAFF0028EFD02046FEF717FFA834F2
:10181000AC42B060EBD1B06870BD00BF0000A0402A
:1018200070B5002300F525550646C360383500F134
:10183000C80402E0A834AC4213D02046FFF748FEAB
:101840000028F7D02046FEF715FFF16809F0B2FF37
:101850000028EFD02046FEF70DFFA834AC42F06020
:10186000EBD1F06870BD00BF006870474160704701
:10187000F8B500F525550F461646383500F1C80471
:1018800002E0A834AC420FD02046FFF721FE00282A
:10189000F7D020463946FFF71FFE20463146A834D0
:1018A000FFF722FEAC42EFD1F8BD00BF2DE9F843AF
:1018B00000F5255542F67C132E4600278146C75079
:1018C0004FF0000838353C3600F1C80402E0A83477
:1018D000AC4213D02046FFF7FBFD0028F7D0336859
:1018E000013333602046FEF725FF0F4909F062FF00
:1018F00088B9A834AC4207F10107EBD142F67C135A
:1019000059F80300C01B09F045FD0146404609F0A7
:1019100049FEBDE8F8832046FEF70CFF014640462D
:1019200009F084FC8046D2E700008CC2F8B500F5CF
:10193000255507460026383500F1C80402E0A834D2
:10194000AC420FD02046FFF7C3FD0028F7D0204659
:10195000FEF7B2FE0146304609F068FCA834AC42FE
:101960000646EFD142F67C13F85809F013FD014604
:10197000304609F017FEF8BD2DE9F04F06468DB050
:10198000934804F0A9F8924804F0A6F8904804F0AF
:10199000A3F842F67C133046F758FFF7F9FD0B9099
:1019A000306809F0A1F8044630460D46FFF7BEFF47
:1019B0000A90B06809F098F88246F0688B4609F002
:1019C00093F8804630468946FFF770FF09F08CF89F
:1019D0000A9BCDE908011846CDE904ABCDE906899B
:1019E00009F082F80B9ACDE90201CDE900453946AC
:1019F000784804F071F8764804F06EF8C8364FF075
:101A000001094FF0000A07E009F10109B9F13F0FA0
:101A100006F1A80600F0D3803046FFF759FD0028F4
:101A2000F2D03046FEF7F4FD3046FEF7F5FD3046C5
:101A3000FEF7F6FD3046FEF7F7FD0821664806F092
:101A400059FF4946654807F097F9B9F1090F40F386
:101A5000B9800221624806F04DFF3046FFF706FDCF
:101A600009F042F8022402460B4600945B4807F056
:101A70008BF901215B4806F03DFF554600241FE02D
:101A80000621594806F036FF2946544807F074F9F4
:101A90000221564806F02EFF21463046FEF7C8FDCB
:101AA00009F022F8009702460B464C4807F06CF903
:101AB000013401214B4806F01DFF082C0BD0454690
:101AC000092D4FF0020705F10108D9DC0121484832
:101AD00006F010FFD4E7414807F0FEF80921454819
:101AE00006F008FF00213046FFF7E4FC08F0FCFF99
:101AF000009702460B46394807F046F90A213E484E
:101B000006F0F8FE01213046FFF7D4FC08F0ECFFA8
:101B1000009702460B46314807F036F90A2137484C
:101B200006F0E8FE39463046FFF7C4FC08F0DCFF5B
:101B3000009702460B46294807F026F90A2130484B
:101B400006F0D8FE03213046FFF7B4FC08F0CCFFC6
:101B5000009702460B46214807F016F90A2129484A
:101B600006F0C8FE04213046FFF7A4FC08F0BCFFD5
:101B7000009702460B46194807F006F90A21224849
:101B800006F0B8FE05213046FFF794FC08F0ACFFE4
:101B9000009702460B46114807F0F6F801211B4852
:101BA00006F0A8FE09F101090C4807F095F8B9F113
:101BB0003F0F0AF1080A06F1A8067FF42DAF0DB019
:101BC000BDE8F08F01210A4806F094FE41E700BF0E
:101BD00038FD0000D0FE000050FF0000C087FF1F4E
:101BE000F40B01005CFF000060FF00002801010011
:101BF0003801010068FF000074FF000080FF000052
:101C00008CFF000098FF0000A4FF0000B0FF000060
:101C1000F8B52F482F4C304F304E03F05DFF304B5E
:101C2000304A314831495A60012510221D725861ED
:101C30002F4D30481A70D9602F4A30491C615F62BD
:101C400000242F4F1E629D624FF07C562D4D58632D
:101C50000A209A61D9622C4A1C630E2140F61C446A
:101C60009F635E6441F204075A26DD64D866274DFF
:101C70009A644FF49670022219659C6600216424D0
:101C80001F675E67DD61DD635866D86541F288379E
:101C900032204FF47A76FF255A705A725A6583F8CB
:101CA000401099679C65DA67C3F88010C3F89C10F0
:101CB000C3F8AC20C3F8B040C3F89070C3F8986084
:101CC000C3F8A450C3F89400C3F8A000F8BD00BF47
:101CD000B4FF000000004040CDCCCC3D3333734016
:101CE0002493FF1F20A1070033338340666686409C
:101CF0000000824200002042CDCC4C40000020C1B8
:101D00000000A0400AD7233D9A997940CDCC4C3EA3
:101D1000F0B54FF47A6083B005F038FD00210E2055
:101D200005F00CFD00210F2005F008FD0021112019
:101D300005F004FD0021102005F000FD0021122017
:101D400005F0FCFC0021132005F0F8FC01210B201C
:101D500005F0F4FC01210C2005F0F0FC0121142019
:101D600005F0ECFC0121152005F0E8FC012116200E
:101D700005F0E4FC0121172005F0E0FC012105201D
:101D800005F0DCFC894C8A4D0121062005F0D6FCCB
:101D900001210D2005F0D2FC208809F0F7FA014658
:101DA000162005F035FC208809F0F0FA01461720CE
:101DB00005F02EFC208809F0E9FA0146052005F01F
:101DC00027FC208809F0E2FA00240146062005F0ED
:101DD0001FFC00942346774A7749784804F0FCF8C2
:101DE000E6B232467249754804F0A4F82B7970497E
:101DF00072486FF30003013432462B7104F090F8FF
:101E0000082CEDD10924E6B2324669496B4804F04A
:101E100091F82B796649694843F001030134324651
:101E20002B7104F07DF80D2CEDD1654C4FF0FF3295
:101E30002068102104F09CFC20684FF0FF32102134
:101E400004F06EFC20684FF0FF32022104F07CFCAD
:101E500020684FF0FF32022104F080FC00220E21A6
:101E6000206804F08FFC0C21564806F043FD5648CC
:101E700006F032FF1421554806F03CFD524806F0AA
:101E80002BFF514806F028FF1721514806F032FD7C
:101E90004D4806F021FF4F4B1B789A0600F1AE80AB
:101EA0004C4B1B781B0700F1B5804A4B1B785F0732
:101EB00000F1BC80474B1B789E0700F1C380464B66
:101EC0001B781D0600F1CA80434B1B785C0600F1AD
:101ED000D180414B1B78980600F1D8803E4B1B788F
:101EE000590700F1DF803C4B1B781A0700F1E680B0
:101EF000394B1B789B0700F1ED80334806F0ECFE70
:101F000072B6364A4CF220534DF628112024138025
:101F100023461180013BFDD1314D32483249002327
:101F20004FF480562E8003800B8032F80E3C9BB21B
:101F300043F0D30322F80E3C62B69D2005F0CCFDA1
:101F400021462A482A4D06F0D5FC1F4806F0C4FE5B
:101F500005F1B4062F462C46601B05F0F5F804F891
:101F6000010BB442F8D13B78102B01D0FFF750FEA3
:101F70002048FFF76FFB042003F006FD1E4B1D48B1
:101F800000221A60FFF764FB01210D2005F0C2FB5F
:101F9000796D1848FFF76AFC7A6C97F8401015487D
:101FA00003B0BDE8F040FFF763BC00BF2C87FF1F04
:101FB000E093FF1FDCBFFF1F20A1070040BEFF1FF3
:101FC0007094FF1FD4FF0000C087FF1FE4FF0000D4
:101FD000FCFF000001F0074000F007400E20054024
:101FE00004200540062005401620054000010100A0
:101FF0002493FF1FA894FF1F4892FF1F21213948F7
:1020000006F078FC384806F067FE384B1B781B0753
:102010007FF54BAF0C21364806F06CFC324806F0D9
:102020005BFE324B1B785F077FF544AF0E213148D2
:1020300006F060FC2C4806F04FFE2C4B1B789E07E8
:102040007FF53DAF17212C4806F054FC264806F0DA
:1020500043FE2A4B1B781D067FF536AF0E2128481C
:1020600006F048FC204806F037FE244B1B785C063F
:102070007FF52FAF1221234806F03CFC1A4806F0EA
:102080002BFE1E4B1B7898067FF528AF13211E48A8
:1020900006F030FC144806F01FFE184B1B78590759
:1020A0007FF521AF1C21194806F024FC0E4806F0EC
:1020B00013FE124B1B781A077FF51AAF192114482B
:1020C00006F018FC084806F007FE0C4B1B789B072F
:1020D0007FF513AF18210F4806F00CFC024806F0FC
:1020E000FBFD0AE714000100C087FF1F01F0074055
:1020F00038000100480001005800010000F00740CE
:10210000700001008000010094000100A80001009F
:10211000C8000100E400010070B5464C464D474838
:10212000E66800232B70FFF77BFB0146304609F081
:1021300023FB08B104232B704048FFF74BFB2169B8
:1021400009F01AFB18B12B7843F010032B703B48B1
:10215000FFF7ACFBA16A09F02DFB18B12B7843F017
:1021600040032B70002335486B70FFF79FFBE16A3B
:10217000314E09F001FB08B10123737000232F4891
:10218000EB70FFF74DFB05462C482B4EFFF722FB6B
:102190000146284609F048F8E16B09F00BFB08B14D
:1021A0000123F370264D254800232B70FFF738FBE1
:1021B000616A0646E06809F037F80146304609F0E2
:1021C000F9FA08B104232B701C48FFF703FB616A7E
:1021D0000646206909F02AF80146304609F0CCFA93
:1021E00018B12B7843F010032B701448FFF75EFBF7
:1021F000A16B0646A06A09F017F80146304609F0BF
:10220000D9FA18B12B7843F040032B7000230B4808
:102210006B70FFF74BFBA16B0546E06A084C09F0B9
:1022200005F80146284609F0A7FA08B101236370B2
:1022300070BD00BF2493FF1F2093FF1FA894FF1FB2
:102240005C94FF1F514B1B68002B74D0F0B5504DB0
:102250002B680533B3F57A7F83B040F38E8000237B
:1022600000272B604B4CD4F8A00009F093F80646E9
:10227000D4F8A40009F08EF8314608F0D5FF3946AD
:1022800009F0DCF8444909F08DF9314608F0CEFF39
:1022900009F0B0FA0146062005F0BCF802213F48DB
:1022A00006F028FB3E4806F017FD06213D4806F0E3
:1022B00021FB286809F06EF83B4909F0BFF808F0E7
:1022C00013FC022602460B460096354806F05CFDDC
:1022D0000D21364806F00EFBD4F8A00009F05AF89C
:1022E0000746286809F056F82F4909F0A7F805466F
:1022F000D4F8A40009F04EF8394608F095FF0146DD
:10230000284609F09BF8244909F04CF9394608F0B1
:102310008DFF08F0E9FB009602460B46204806F0C8
:1023200033FD31461D4806F0E5FA1D4803B0BDE80F
:10233000F04006F0D1BC174B1D4AD3F8A010D3F8DB
:10234000A43012685B1A632B0BDD1A4803FB02F3FF
:1023500080FB0302DB17C3EB62131944062005F070
:1023600059B8154803FB022380FB0302DB17C3EBBC
:1023700022121144062005F04DB818462B6009F0D2
:1023800009F8094909F05AF807466BE75094FF1F0E
:102390004C92FF1F2493FF1F0000C842F40B010062
:1023A000C087FF1F24010100CDCCCC3D2C010100D2
:1023B0003C87FF1F1F85EB51CBF08D2838B54E4869
:1023C0004E4C06F089FC4C4806F086FC4A4806F064
:1023D00083FC0D214A4806F08DFAD4F89C30012B7D
:1023E0000ED0484C4448217800230A2206F084FC91
:1023F0002378052B35D8DFE803F04C51565B604756
:102400000921414806F076FA4048FFF7E3F92169CF
:1024100009F0B2F918B10F213D4806F06BFA3B48BC
:10242000FFF7FEF9E16809F0C5F918B10E21394846
:1024300006F060FA3548314DFFF7CCF9216909F013
:10244000B9F970B13148FFF7EBF9E96809F094F98F
:1024500038B12C4B1B78052B48D008212E4806F0AC
:1024600049FA02212D4806F045FA122005F058F9E4
:1024700001282DD0112005F053F9012831D0284B27
:102480001B68012B1ED038BD0721264806F032FA02
:10249000E7E70621244806F02DFAE2E70721234862
:1024A00006F028FADDE70721214806F023FAD8E7ED
:1024B0000821204806F01EFAD3E70B211E4806F03B
:1024C00019FACEE711211D48BDE8384006F012BACE
:1024D0000E211B4806F00EFA112005F021F9012803
:1024E000CDD10A21174806F005FAC8E70A21164897
:1024F00006F000FAB5E700BFC087FF1F2493FF1F57
:102500003C0101005894FF1F4C010100A894FF1FDB
:10251000580101006801010084010100F40B010071
:102520007894FF1FC0010100900101009801010093
:10253000AC010100B4010100A0010100E4010100AF
:10254000C8010100D8010100780101002DE9F04F18
:10255000934C944FE36F012B8DB000F04981032B16
:1025600050D0914E914DA36F9148012B09BF29681E
:10257000296801F10041296004F0D8FC3368002B80
:1025800040F0CE808A4804F0A7FCE36F3860012B4E
:10259000064600F0D280874909F00CF978B98649DF
:1025A000304609F0E9F850B9844A854B12680B921D
:1025B0000B9A1A6000232B600DB0BDE8F08FDFF896
:1025C000FC817F4CD8F800300A930A9823687D4F2D
:1025D000C01A08F0DBFE314608F030FF7A4908F0F7
:1025E000E1FF794908F0DEFF396808F01FFED8F8EE
:1025F00000300993099B2360002338602B600DB0E5
:10260000BDE8F08FDFF8C881704DD8F80000664E45
:10261000012300220E212B6004F0B4F82B68012B5B
:10262000336800F00381002B40F097810021D8F837
:102630000000DFF8B891664D04F0F6F833681FFA31
:1026400080FBC9F800B0002B40F06C810021D8F865
:102650000000564DDFF878A104F06CF8B4F886302D
:1026600040F6E44101FB0BF1B1FBF0F0C01A00B2FF
:1026700008F090FE57498346D4F8880008F0DEFE43
:102680000146584608F08EFFD9F800302860632BC9
:10269000DFF858B100F33A8100232B603368002B38
:1026A0003FF461AF02214C4806F024F9D9F800202C
:1026B000D8F8000040F6E443002103FB02F804F0E0
:1026C00039F8B8FBF0F008F061FE8046B4F88600F7
:1026D00008F060FE0146404608F0A6FD08F004FA46
:1026E0004FF0020802460B46CDF800803B4806F04A
:1026F0004BFB4146384806F0FDF8286808F0F4F92D
:10270000CDF8008002460B46344806F03DFB4146BA
:10271000334806F0EFF841462F4806F0EBF822E781
:10272000234804F0D9FB08F0DFF9022602460B46E5
:1027300000962A4806F028FB24E7244B1B68012B4F
:1027400000F01781022B7FF435AF264909F032F8EB
:1027500030B92549304609F00FF8002800F03881DB
:10276000DFF85880164CD8F8003007930798236894
:10277000144FC01A08F00AFE314608F05FFE1249F5
:1027800008F010FF104908F00DFF396808F04EFD01
:10279000D8F800300693069B386023600AE700BF34
:1027A0002493FF1F6092FF1F9C94FF1F5492FF1FF2
:1027B000FC92FF1F0000FA430000FAC3E8BFFF1FAE
:1027C0006C94FF1F6892FF1F00007A442887FF1F48
:1027D0007094FF1F17B7D138F40B0100C087FF1F9B
:1027E0003402010000C82F4800A08CC61C93FF1FB4
:1027F0003D689749284608F0BFFF30B12846954903
:1028000008F0D8FF00287FF4FDAEDFF85482924D27
:10281000D8F80000914E022300220F212B6003F014
:10282000B1FF2B68012B33687FF4FDAE002B40F025
:10283000D6800021D8F80000DFF86892884D03F0B8
:10284000F3FF33681FFA80FBC9F800B0002B40F09B
:10285000E3800021D8F80000824DDFF804A203F0E5
:1028600069FFB4F8843040F6E44101FB0BF1B1FBA1
:10287000F0F0C01A00B208F08DFD7B498346D4F811
:102880008C0008F0DBFD0146584608F08BFED9F8B5
:1028900000302860632BDFF80CB200F3B180002316
:1028A0002B603368002B3FF45EAE02216F4806F0C8
:1028B00021F8D9F80020D8F8000040F6E4430021C0
:1028C00003FB02F803F036FFB4F88410B8FBF0F015
:1028D00000B2411A664806F04FFA0221634806F03A
:1028E00009F8286808F000F94FF0020802460B4684
:1028F000CDF800805E4806F047FA03215D4805F0F8
:10290000F9FF4146594805F0F5FF2CE6DAF80000DA
:10291000002103F00FFFDBF8003064389842FFF429
:10292000BBAEBBE60021286803F004FF40F6E4419B
:1029300000230A2201FB0BF1B1FBF0F14C4806F039
:10294000DBF90221494805F0D5FFB4F88610484864
:1029500006F012FAD9F800B078E6454806F0BCF95E
:102960000C21454805F0C6FF0C21444805F0C2FF84
:102970005CE6434908F01EFF58B94249304608F06A
:10298000FBFE30B9404A414B12680592059A1A6025
:1029900010E6DFF8F4803D4CD8F80030049304983A
:1029A00023683B4FC01A08F0F1FC314608F046FDA1
:1029B000384908F0F7FD374908F0F4FD396808F0A8
:1029C00035FCD8F800300393039B38602360F1E5B1
:1029D0002D4A2E4B12680892089A1A60EAE524489C
:1029E00006F07AF9E36F012B4FF00B010CBF2A4878
:1029F0002A4805F07FFF0C21204805F07BFF18E7EF
:102A0000DAF80000002103F095FEDBF800306438AE
:102A10009842FFF444AF44E70021286803F08AFE9F
:102A200040F6E44100230A2201FB0BF1B1FBF0F177
:102A30000F4806F061F90121194805F05BFFB4F871
:102A400084100B4806F098F9D9F800B001E700BFF0
:102A500000709446007094C62887FF1F9C94FF1F47
:102A60007094FF1F5492FF1F17B7D138F40B010069
:102A7000C087FF1F20020100240201001002010094
:102A80000000FA430000FAC3E8BFFF1F6C94FF1F69
:102A90006892FF1F00007A44F8010100040201005F
:102AA000380101001C93FF1F2DE9F047B24D2B6840
:102AB00084B0002B7ED0B14CDFF8C882B04EE36FFB
:102AC000AE4D012B00F08F80D4F88030AB4F012B3E
:102AD00000F0BC80D6F80090D7F858A07D6DA94FC3
:102AE00005FB0AF54FF47A7000FB05F008F052FC84
:102AF000A5490546484608F0A1FC294608F052FDC4
:102B0000A24908F09BFC08F075FE6328C8F8000095
:102B10004BDD28469C4908F045FD642330603B604E
:102B20009B4B1B68002B3DD0E36F944D012B00F0B5
:102B3000BB80032B00F00981022B00F00C810221E5
:102B4000944805F0D7FE944B186807F0CDFF022497
:102B500002460B460094914806F016F9214690482B
:102B600005F0C8FE21468B4805F0C4FED8F80010D9
:102B70008A4806F001F906218A4805F0BBFE306854
:102B8000814908F05BFC07F0AFFF009402460B465A
:102B9000824806F0F9F80321834805F0ABFE7F4830
:102BA00006F09AF804B0BDE8F0870028BCBF002307
:102BB0003B60B5E77D4E714C33680293029A42F256
:102BC00028339A4200F2BA8033680393039A42F2A0
:102BD00010739A4274D8E36FDFF8A881684E674D8E
:102BE000012B7FF471AF7248FEF7A0FE7149D5F852
:102BF0006890EF6E08F022FC08F022FE2A6F6B6FDF
:102C0000C9EB0202DB1B80B29A42C9EB000040F321
:102C1000AD8003FB0000531C90FBF3F31F44A06D39
:102C2000636DC8F8007000FB07F003FB00F000EBD9
:102C30008000400008F0AEFB5349504F08F0B2FC52
:102C4000D4F880303060012B7FF444AF5848FEF751
:102C50006DFE5849D7F86890FD6E08F0EFFB08F05C
:102C6000EFFD3A6F7B6FD4F858A0C9EB02025B1BF3
:102C700080B29A42C9EB0000C6BF03FB00000132DC
:102C8000584390FBF2F02844656D00FB0AF005FB09
:102C900000F000EB8000400008F07CFB3A4908F0AF
:102CA00081FC814630601AE7434B1B68012B4FF0D3
:102CB0000A010CBF4148424805F01CFEEB6F38E7A3
:102CC0003B48FEF733FE3B49A76EE66E08F0B6FBC5
:102CD00008F0B6FD226F636FD21B9B1B80B29A4235
:102CE000A0EB07003CDD03FB0000531C90FBF3F35B
:102CF0009819A26DDFF88C80636DC8F8000002FBA4
:102D000000F003FB00F000EB8000400008F042FB05
:102D10001D491B4E08F046FC0123306002211D486E
:102D20002B6005F0E7FD1D4805F0D6FF5921254829
:102D300005F0E0FD194805F0CFFFC0E61C48626CC5
:102D400094F84010FEF794FD3EE710211E4805F070
:102D5000D1FDE36FF0E607211C4805F0CBFDEEE660
:102D600003FB00F393FBF2F39819C2E703FB00F3B4
:102D700093FBF2F31F4452E75092FF1F2493FF1F6F
:102D80006892FF1F3C87FF1FE4388E3E0000C84258
:102D90004487FF1FF40B01006092FF1FC087FF1FD5
:102DA00034020100C8020100D0020100E8BFFF1F89
:102DB000A894FF1F00007A442887FF1F9402010097
:102DC000A002010038020100AC020100C0020100B3
:102DD000F0B5112083B004F0A3FC012813D000212A
:102DE0000B2004F097FC00210C2004F093FC002140
:102DF000152004F08FFC1D491D4B01200022087096
:102E00001A6003B0F0BD01460446152004F082FCB0
:102E10001849194A194B09680191D2F890001B68AA
:102E20000199134D034402268B422E6017D8D2F825
:102E3000980008F0AFFA124B196808F09DFC07469D
:102E400068B921460B2004F065FC084A0323394683
:102E50000C2016702B6004F05DFC03B0F0BD012166
:102E60000C2004F057FC03B0F0BD00BF5894FF1FC6
:102E70009894FF1FE8BFFF1F2493FF1FA094FF1F1C
:102E80006092FF1F2DE9F041484E494D33682C6890
:102E9000A34284B012D013F001016DD09B0719D565
:102EA000444FDFF81C813B682BB3D8F80020019217
:102EB000019A9A4231D83468A10769D43CB92146B5
:102EC000162004F0A7FA2146172004F0A3FA04B054
:102ED000BDE8F0810021172004F09CFA2B683468CB
:102EE00003F0FD03E7072B60E6D5324FDFF8D08013
:102EF0003B68002BD9D1FF21162004F08BFAD8F8BB
:102F000000202D4B0092009A1B681344D8F8002033
:102F10000192019A3B609A42CDD9284B1620D3F8F2
:102F2000941004F077FA2B68346843F00103002210
:102F3000A0072B603A60C1D5FF21172004F06AFA80
:102F4000D8F800201C4B0292029A1B681344D8F850
:102F500000200392039A3B609A4225D9174B172011
:102F6000D3F8941004F056FA2B68346843F0020347
:102F700000222B603A60A1E7162004F04BFA2B6880
:102F8000326803F0FE032B609307A3D5D20787D4E2
:102F9000084FDFF82C803B68002BCDD0D8F80020FC
:102FA0000392039A9A42D9D8346887E79894FF1F0E
:102FB000D893FF1FDC93FF1F6887FF1F2493FF1F19
:102FC000E8BFFF1F2DE9F8434B4DDFF85891286803
:102FD0004A4E4B4F00220E2103F0D4FB0123222145
:102FE0004848C9F8003005F085FC3368132B1EDC17
:102FF00040F6E4480021286803F016FC002104464E
:10300000286803F097FB3B88A4B2012108FB04F475
:10301000B4FBF0F43C481C443C8005F06BFC64209D
:1030200004F0B4FB33680133132B3360E2DD3B88DB
:10303000364A3748A2FB03129B1A02EB5303C3F331
:103040000F1319463B8005F097FE1D213148324F82
:1030500005F050FC0221314805F04CFC2C4805F0ED
:103060003BFE00231A460F212868336003F08AFBD9
:10307000022322212348C9F8003005F03BFC3368C5
:10308000132B1EDC40F6E4480021286803F0CCFB3B
:1030900000210446286803F04DFB3B88A4B20121BF
:1030A00008FB04F4B4FBF0F417481C443C8005F022
:1030B00021FC642004F06AFB33680133132B336076
:1030C000E2DD3B88114A1248A2FB03129B1A02EB75
:1030D0005303C3F30F1319463B8005F04DFE1D212A
:1030E0000F4805F007FC02210C4805F003FC0848D6
:1030F000BDE8F84305F0F0BD7094FF1F5C92FF1F20
:103100005487FF1FD402010018030100876118864D
:10311000C087FF1FF80201005687FF1FF40B010054
:103120001C0301002887FF1FF8B59B4C9B4F082606
:1031300040F251332360386DE67108F02BF979695C
:10314000054608F07BF9964908F078F908F078FB15
:10315000944B954A1B681268A37281B241FA06FE2D
:103160003341284642FA06F584F809E0E3722273F7
:1031700021726573B96908F061F9894908F05EF94F
:1031800008F05EFB83B243FA06F221468748A37338
:10319000E27303F019F9864B864A1B681288A27203
:1031A0005FFA83FC40F255310CEB8C0E216043FA40
:1031B00006F103EB83034FEA4E0E3241002543F341
:1031C000D7136172794884F808C0214684F80CE06E
:1031D000E2726373A573E573E67103F0F5F840F2EC
:1031E000563375482360E671FEF73EFB734908F0DD
:1031F00025F908F025FB20726F48FEF735FB6F4973
:1032000008F01CF908F01CFB6D4A6C49C0F3072359
:103210006372106808F0C6F908F0ECFA40FA06F29A
:1032200003466548E272A372FEF740FB5C4908F072
:1032300005F908F005FB20735F48FEF737FB584996
:1032400008F0FCF808F0FCFA2146C0F307235748C1
:103250006373A573E57303F0B7F8022004F096FAE0
:10326000584B5248197893F801E0217240F25A32D3
:10327000226021469A78DB7884F809E0257365732B
:10328000A573E573A272E372E67103F09DF84E4BED
:1032900046481A785978227240F25E35DA7825600D
:1032A00061729D781979A572E2725D799A792173BC
:1032B000DB79A2732146E3736573E67103F084F84A
:1032C000022004F063FA414B38481A785978227288
:1032D0004FF45C75DA78256061729D781979A57272
:1032E000E2725D799A792173DB79E3732146E671A5
:1032F0006573A27303F068F8354B1B68012B00D08F
:10330000F8BD2D48FEF766FAF96C07F08FFF054609
:103310002948FEF785FA0146284608F02DFA0028CC
:10332000EED040F2C3332448E6712360FEF752FA30
:10333000BD6C294608F020FAC0B12049284608F0A3
:103340007DF808F07DFA80B240FA06F360722372CD
:1033500000230122A272E37223736373A373E373E6
:103360000D491248BDE8F84003F02EB81248FEF7A8
:1033700031FA124908F062F808F062FAC0F3072344
:103380000D482372FEF726FA0C4908F057F808F0AA
:1033900057FA6072DCE700BF8894FF1F2493FF1F79
:1033A000000020414492FF1F6894FF1F40BEFF1F92
:1033B0003C87FF1F4087FF1FA894FF1F0000C842E3
:1033C0006092FF1F2093FF1F3087FF1F5C87FF1F46
:1033D0007894FF1FF0B5B24CB24D83B005F024FADB
:1033E00023682860042B00F0E282022B7ED0082B99
:1033F00000F00A81072B40F08381322800F0FF8320
:1034000040F37481332800F00F84712803D1002326
:10341000732023602860002B08BF73280CBF012095
:103420000020002860D0A04805F056FC04219F48E9
:1034300005F060FA9C4805F04FFC10219C4805F00F
:1034400059FA994805F048FC13219A4805F052FAB8
:10345000994B9548196805F08FFC934805F03CFCA2
:103460001421964805F046FA8F4805F035FC1E21D8
:10347000934805F03FFA8C4805F02EFC1521914841
:1034800005F038FA884805F027FC1E218E4805F023
:1034900031FA854805F020FC20218C4805F02AFAF5
:1034A000814805F019FC1921894805F023FA7E4866
:1034B00005F012FC1221874805F01CFA7A4805F045
:1034C0000BFC0F21844805F015FA774805F004FC41
:1034D0000D21824805F00EFA734805F0FDFB804A85
:1034E000002101231160236003B0F0BDA0F131027F
:1034F000422A90D801A151F822F000BF8F3D000070
:103500000D3E0000273E0000A53D0000CB3D000021
:10351000173400001734000017340000173400007F
:10352000173400001734000017340000173400006F
:10353000173400001734000017340000173400005F
:10354000173400001734000017340000173400004F
:10355000173400001734000017340000173400003F
:10356000173400001734000017340000173400002F
:10357000173400001734000017340000173400001F
:10358000173400001734000017340000173400000F
:1035900017340000173400001734000017340000FF
:1035A00017340000173400001734000017340000EF
:1035B00017340000173400001734000017340000DF
:1035C00017340000E93D00001734000017340000F4
:1035D00017340000173400001734000017340000BF
:1035E00017340000173400001734000017340000AF
:1035F0001734000017340000173400000F340000A7
:1036000017340000F53D0000322800F0E3827128F5
:103610003FF4FDAE31287FF4FEAE05F041F90028FD
:1036200040F3858320482F4E05F0E8FCC0B286F8B1
:103630004000022894BF01460021726C2A4888BFCE
:1036400086F84010FEF714F90123692023602860F2
:10365000A0F152031F2B01F20582DFE813F0AC0941
:10366000030A030A030A030A030A030A030A030AF2
:10367000030A030A030A030A030A030A4D09C80AD4
:10368000E50829089B07030A030A030A5307030AEC
:10369000CB0A030A030A030A030A030AAE0900BF9E
:1036A000A494FF1F4092FF1FC087FF1F700A0100F4
:1036B000780A01008C0A01002087FF1FA00A010080
:1036C000B80A0100D80A0100F00A0100100B01003D
:1036D000340B0100500B0100640B0100740B01005E
:1036E0004487FF1F2493FF1FA894FF1F31287FF4F6
:1036F00092AE05F0D5F8002800F3A283236828686D
:10370000062B40F08D80A0F13102402A3FF683AEB7
:1037100001A151F822F000BFD33C0000FD3C0000A5
:103720004D3C0000713C0000953C0000B13C0000A5
:10373000173400001734000017340000173400005D
:10374000173400001734000017340000173400004D
:10375000173400001734000017340000173400003D
:10376000173400001734000017340000173400002D
:10377000173400001734000017340000173400001D
:10378000173400001734000017340000173400000D
:1037900017340000173400001734000017340000FD
:1037A00017340000173400001734000017340000ED
:1037B00017340000173400001734000017340000DD
:1037C00017340000173400001734000017340000CD
:1037D00017340000173400001734000017340000BD
:1037E00017340000173400001734000017340000AD
:1037F000173400001734000017340000173400009D
:10380000173400001734000017340000173400008C
:1038100017340000173400000F34000023682868B4
:10382000052B1AD1332801F03E8140F34B81352816
:1038300001F04A81BFF6E9AD05F032F800280ADD53
:10384000D948DA4E05F0DAFB01226B23C6F8A00056
:1038500022602B604BE123682868032B40F0A38093
:10386000A0F13002422A3FF6D6AD01A151F822F074
:103870007D390000C3430000EB430000AD4200006F
:1038800051430000734300009B43000013440000B9
:103890003144000055440000173400001734000084
:1038A00017340000173400001734000017340000EC
:1038B00017340000173400001734000017340000DC
:1038C00017340000173400001734000017340000CC
:1038D00017340000173400001734000017340000BC
:1038E00017340000173400001734000017340000AC
:1038F000173400001734000017340000173400009C
:10390000173400001734000017340000173400008B
:10391000173400001734000017340000173400007B
:10392000173400001734000017340000173400006B
:10393000173400007D440000B53E00008F420000B7
:103940009B440000B9440000CF420000913E0000BB
:10395000173400001734000017340000173400003B
:10396000173400001734000017340000173400002B
:1039700017340000254300003143000004F090FF9D
:10398000002841F378808848884E05F037FB0127EE
:103990000346014662228648736527602A60FDF768
:1039A00065FF23682868012B7FF435AD50E6A0F150
:1039B0003102402A3FF62FAD01A151F822F000BF9D
:1039C000553D00004D3D0000513D0000593D0000B7
:1039D0005D3D0000773D0000373D000017340000DA
:1039E00017340000173400001734000017340000AB
:1039F000173400001734000017340000173400009B
:103A0000173400001734000017340000173400008A
:103A1000173400001734000017340000173400007A
:103A2000173400001734000017340000173400006A
:103A3000173400001734000017340000173400005A
:103A4000173400001734000017340000173400004A
:103A5000173400001734000017340000173400003A
:103A6000173400001734000017340000173400002A
:103A7000173400001734000017340000173400001A
:103A8000173400001734000017340000173400000A
:103A900017340000173400001734000017340000FA
:103AA00017340000173400001734000017340000EA
:103AB00017340000173400001734000017340000DA
:103AC0000F340000312800F0DD8732287FF4A3ACEA
:103AD00004F0E6FE00287FF7BEAE3348334E05F013
:103AE0008DFA01226B23C6F8980022602B602E48C5
:103AF00005F0F2F82C4805F0EFF82B4805F0ECF84B
:103B0000294805F0E9F8284805F0E6F82121294878
:103B100004F0F0FE244805F0DFF81521264804F0F3
:103B2000E9FED6F89010204805F026F90221234836
:103B300004F0E0FE1C4805F0CFF81E21204804F0F8
:103B4000D9FED6F89810184805F016F903211D483B
:103B500004F0D0FE144805F0BFF81E211A4804F006
:103B6000C9FED6F89410104805F006F90E4805F085
:103B7000B3F81D21154804F0BDFED6F8A0100A4880
:103B800005F0FAF8084805F0A7F81E21104804F0DF
:103B9000B1FED6F8A410044805F0EEF8024805F08E
:103BA0009BF8052323609FE4C087FF1F2493FF1F1A
:103BB000A894FF1F680501008C050100E0040100C6
:103BC000A405010020020100C4050100E405010074
:103BD0000406010004F064FE002840F3A480A1481C
:103BE000A14E05F00BFA07F0D5FBA04907F026FC23
:103BF0000346024696F840109D48736422E504F09F
:103C00004FFE00287FF77AAD9648974E05F0F6F9FB
:103C100007F0C0FB954907F011FC61230122F06316
:103C200022602B60184613E504F03AFE00287FF767
:103C300065AD8C488C4E05F0E1F907F0ABFB6123D4
:103C40000122B06322602B60184601E504F028FED3
:103C500000287FF7E3AD8348834E05F0CFF900EBF2
:103C60008000430001226520F36522602860EFE4B4
:103C700004F016FE00287FF7D1AD7A487A4E05F0A1
:103C8000BDF900EB8000430001226520336622600D
:103C90002860DDE4744AD2F8AC300133052BC8BF8C
:103CA0000023C2F8AC306520012323602860CFE4F4
:103CB00004F0F6FD00287FF7B1AD6A486A4E05F0C2
:103CC0009DF965230122C6F8B00022602B601846DA
:103CD000BEE404F0E5FD00287FF7A0AD6148624E28
:103CE00005F08CF907F056FB624907F05BFC652391
:103CF0000122706122602B601846A9E404F0D0FD17
:103D000000287FF78BAD5748574E05F077F907F03D
:103D100041FB584907F046FC65230122F06122600F
:103D20002B60184694E423682868FFF763BB4E4E67
:103D300096F840007DE4504A1368B3FA83F35B09B8
:103D40000121642013602160286081E44B4AF3E77D
:103D50004B4AF1E74B4AEFE74B4AEDE7424ED6F8C4
:103D60009C30B3FA83F35B0901226420C6F89C30CF
:103D7000226028606CE401233D482360FDF708FCC5
:103D8000424A2368106064202860FFF730BB364E3B
:103D9000B36FB3FA83F35B0901226320B367226038
:103DA000286055E40123236004F07AFD002807DD34
:103DB0002C482D4E05F022F907F0ECFAC6F88C00DD
:103DC000632028602368FFF715BB0123236004F0FC
:103DD00067FD0028F4DD2348234E05F00FF907F0B6
:103DE000D9FAC6F88800EBE7FFF7ECF823682868F3
:103DF000FFF7FDBA1C4AD36F0133032BC8BF002362
:103E0000D367012363202360286021E4164ED6F88F
:103E10008030B3FA83F35B0901226320C6F8803057
:103E20002260286014E40123236004F039FD002897
:103E3000E7DD0C480C4E05F0E1F8C6F8A800E0E715
:103E40000848094E05F0DAF807F0A4FA074907F028
:103E5000F5FA61230122706222602B601846FFF799
:103E6000F7BB00BFC087FF1F2493FF1F6F12833A69
:103E7000A894FF1F00007A445094FF1F9C94FF1FDA
:103E80008094FF1F4C94FF1F8494FF1F5494FF1FC6
:103E900004F006FD00280DDDC148C24E05F0AEF865
:103EA00007F078FAC04907F07DFB012262233062F7
:103EB00022602B6004F0F4FC002840F3DC85B84855
:103EC000B84E05F09BF801226223B06622602B6099
:103ED000B34804F001FFB24804F0FEFEB04804F01D
:103EE000FBFEAF4804F0F8FEAD4804F0F5FE1521E6
:103EF000AE4804F0FFFCAA4804F0EEFE1421AC48E2
:103F000004F0F8FCA64804F0E7FE1B21A94804F0E1
:103F1000F1FCA34804F0E0FE1321A74804F0EAFCFA
:103F20009F4804F0D9FE9E4804F0D6FE9C4804F059
:103F3000D3FE2021A14804F0DDFCF0689A4907F087
:103F40007DFA06F0D1FD002702460B460097944803
:103F500004F01AFF02219A4804F0CCFC022199488F
:103F600004F0C8FC8E4804F0B7FE2121964804F006
:103F7000C1FC30698C4907F061FA06F0B5FD009785
:103F800002460B46864804F0FFFE02218C4804F0EE
:103F9000B1FC02218B4804F0ADFC814804F09CFE8A
:103FA0001F218A4804F0A6FCB06A06F09DFD022598
:103FB00002460B4600957A4804F0E6FE012184484B
:103FC00004F098FC29467F4804F094FC744804F0FF
:103FD00083FE20217F4804F08DFCF06A06F084FD0A
:103FE000009502460B466E4804F0CEFE012178484B
:103FF00004F080FC2946734804F07CFC684804F017
:104000006BFE2321744804F075FCB06C664907F020
:1040100015FA06F069FD009702460B46604804F069
:10402000B3FE2946664804F065FC2946654804F05D
:1040300061FC5B4804F050FE1F21684804F05AFC04
:10404000F06C594907F0FAF906F04EFD0097024668
:104050000B46534804F098FE2946594804F04AFCA0
:104060002946584804F046FC4D4804F035FE192115
:104070005B4804F03FFCB16D494804F07DFE2946E1
:10408000584804F037FC29464E4804F033FC4448B5
:1040900004F022FE1821544804F02CFC706E07F046
:1040A00079F9524907F0CAF906F01EFD009502465B
:1040B0000B463B4804F068FE01214D4804F01AFC11
:1040C0002946404804F016FC354804F005FE2B2133
:1040D000484804F00FFCB069334907F0AFF906F027
:1040E00003FD009702460B462D4804F04DFE29467D
:1040F000334804F0FFFB2946324804F0FBFB284814
:1041000004F0EAFD1F213C4804F0F4FB716D2448E3
:1041100004F032FE29462B4804F0ECFB204804F062
:10412000DBFD2021354804F0E5FB316D1C4804F02F
:1041300023FE2946234804F0DDFB194804F0CCFD9A
:1041400010212F4804F0D6FBB16E154804F014FE80
:1041500029461B4804F0CEFB29461A4804F0CAFB46
:104160000F4804F0B9FD1321264804F0C3FBF16E9B
:104170000B4804F001FE0121234804F0BBFB294653
:10418000104804F0B7FB064804F0A6FD10211F48B4
:1041900004F0B0FB316F024804F0EEFD294637E031
:1041A000C087FF1F2493FF1F00007A4438080100D6
:1041B0005008010068080100B803010084080100EC
:1041C000B4030100F40B0100A8080100CC080100B1
:1041D000B0FF0000EC0801001009010034090100E3
:1041E000540901007009010074090100CDCCCC3DD7
:1041F0001408010090090100BC090100DC0901005C
:10420000000A0100140A0100280A01002C0A01001A
:10421000B14804F06FFB2946B04804F06BFBB0488E
:1042200004F05AFD1421AF4804F064FB716FAC48F0
:1042300004F0A2FD0121AC4804F05CFB2946A7482C
:1042400004F058FBA64804F047FD1621A74804F0E7
:1042500051FB306AA64907F0F1F806F045FC0097DB
:104260000B4602469E4804F08FFD29469A4804F00A
:1042700041FB2946994804F03DFB994804F02CFD88
:10428000974804F029FD03232360FFF72DB904F0BC
:1042900007FB002840F3EF839148964E04F0AEFEF2
:1042A00001226223F06622602B6011E604F0F8FA26
:1042B000002840F3E0838A488E4E04F09FFE07F00A
:1042C00069F801226223B06222602B6000E6FDF7EC
:1042D0009FFC02218148874E04F00CFB804804F0CB
:1042E000FBFC02217D4804F005FB7D4804F0F4FC52
:1042F00002217A4804F0FEFA794804F0EDFC172117
:104300007D4804F0F7FA764804F0E6FC0221734891
:1043100004F0F0FA724804F0DFFC0122622322600C
:104320002B60D5E50022732322602B60FFF77BB85A
:10433000724B6A486F4E002202211A6004F0DAFACA
:10434000674804F0C9FC0B216D4804F0D3FADDE79F
:1043500004F0A6FA002840F38E836148654E04F00D
:104360004DFE07F017F801226223F06222602B60F5
:10437000AEE504F095FA002840F37D8358485D4E81
:1043800004F03CFE07F006F8594907F00BF901224A
:104390006223B06422602B609AE504F081FA002861
:1043A00040F369834E48534E04F028FE06F0F2FFB6
:1043B0004F4907F0F7F801226223F06422602B6076
:1043C00086E504F06DFA002840F355834448494ED1
:1043D00004F014FE06F0DEFF454907F0E3F8012281
:1043E0006223F06022602B6072E504F059FA002825
:1043F00040F341833A483F4E04F000FE06F0CAFF06
:104400003B4907F0CFF801226223306122602B6024
:104410005EE504F045FA002840F32D833048354E20
:1044200004F0ECFD01226223B06522602B604FE5B1
:1044300004F036FA002840F31E8329482D4E04F07C
:10444000DDFD00EB800043000121622273662160E4
:104450002A603DE504F024FA002840F30C8320484C
:10446000244E04F0CBFD06F095FF214907F09AF8A1
:1044700001226223B06122602B6029E504F010FA6A
:10448000002840F3F88216481A4E04F0B7FD0122C6
:104490006223306522602B601AE504F001FA0028DF
:1044A00040F3E9820E48134E04F0A8FD0122622376
:1044B000306722602B600BE504F0F2F9002840F32E
:1044C000DA8207480B4E04F099FD012262237067DF
:1044D00022602B60FCE400BFB4030100F40B010078
:1044E000C087FF1F400A0100280A0100580A010086
:1044F00000007A442493FF1F480301005092FF1FDD
:1045000060030100A948AA4D04F0E6FBA74804F0A7
:10451000E3FBA64804F0E0FBA44804F0DDFBA3485D
:1045200004F0DAFB1521A34804F0E4F99F4804F0F5
:10453000D3FB1821A04804F0DDF900230A2295F8E6
:1045400040109A4804F0D8FB984804F0C5FB282195
:104550009A4804F0CFF9686C994906F06FFF06F0AD
:10456000C3FA00250B4602460095904804F00CFC67
:104570000221944804F0BEF98C4804F0ADFB1321ED
:10458000914804F0B7F9894804F0A6FB082323609A
:10459000FEF7AABF8548864E04F09EFB834804F0D0
:1045A0009BFB824804F098FB804804F095FB7F4811
:1045B00004F092FB1121854804F09CF97B4804F03B
:1045C0008BFB2821824804F095F970697C4906F03C
:1045D00035FF06F089FA002502460B460095734820
:1045E00004F0D2FB0221774804F084F96F4804F00C
:1045F00073FB1621774804F07DF9F069704906F0E5
:104600001DFF06F071FA00950B460246674804F05C
:10461000BBFB02216B4804F06DF9644804F05CFBBD
:10462000D6F8AC30AB4232DD1D216B4804F062F9A4
:10463000F06D06F0AFFE694906F000FF06F054FA8F
:10464000022502460B460095584804F09DFB0121C7
:10465000634804F04FF9554804F03EFB1F216148C0
:1046600004F048F9306E06F095FE5C4906F0E6FE6F
:1046700006F03AFA009502460B464C4804F084FBDB
:104680000121574804F036F9484804F025FB112170
:10469000554804F02FF9D6F8AC30052B00F2A38171
:1046A000DFE813F0D601DB01D101C7019D01CC0188
:1046B0003E4804F011FB3D4804F00EFB3B4804F07B
:1046C0000BFB3A4804F008FB384804F005FB1321C3
:1046D000464804F00FF9354804F0FEFA0D2144482D
:1046E00004F008F9314804F0F7FA0F21414804F0CA
:1046F00001F9414B2D48196804F03EFB2B4804F0AA
:10470000EBFA13213D4804F0F5F83D4B27481968B2
:1047100004F032FB254804F0DFFA1221394804F096
:10472000E9F8394B2148196804F026FB1F4804F0CA
:10473000D3FA1121354804F0DDF8354B1B481968D0
:1047400004F01AFB194804F0C7FA0E21314804F0AE
:10475000D1F8174B1548D3F89C1004F00DFB134803
:1047600004F0BAFA19212C4804F0C4F82B4B0F4876
:10477000196804F001FB0D4804F0AEFA1121284835
:1047800004F0B8F8274B0948196804F0F5FA07480F
:1047900004F0A2FA13210C4804F0ACF8034804F02A
:1047A0009BFA04232360FEF79FBE00BFC087FF1F54
:1047B0002493FF1F380B01006C03010088030100E4
:1047C00000007A44B4030100B8030100DC0A0100D0
:1047D000CC030100F803010010040100CDCCCC3D56
:1047E00014080100300401005004010024060100F7
:1047F00038060100480601004C94FF1F58060100CE
:104800009C94FF1F6C0601008094FF1F800601002E
:104810008494FF1F94060100A40601005494FF1F16
:10482000C00601005094FF1FB048B14E04F054FA86
:10483000AE4804F051FAAD4804F04EFAAB4804F02B
:104840004BFAAA4804F048FA1F21AA4804F052F88B
:10485000A64804F041FA1E21A74804F04BF8A348EB
:1048600004F03AFA1A21A54804F044F8F36F022B39
:1048700000F0B581032B00F0AA81012B00F09F818D
:1048800009219F4804F036F8984804F025FA1421CD
:104890009C48974F04F02EF8B16F944804F06CFADE
:1048A000924804F019FA1C21974804F023F8D6F82E
:1048B00080108E4804F060FA8C4804F00DFA1C2138
:1048C000924804F017F8D6F8A810884804F054FA73
:1048D000864804F001FAF56F25F00205012D00F07D
:1048E000398113218A4804F005F8804804F0F4F96E
:1048F00002232360FEF7F8BD7C487D4D04F0ECF9FF
:104900007A4804F0E9F9794804F0E6F9774804F0C8
:10491000E3F9764804F0E0F91F217E4803F0EAFF4E
:10492000724804F0D9F91C217B4803F0E3FF686A60
:104930007A4906F083FD06F0D7F8002602460B46BA
:1049400000966A4804F020FA0221754803F0D2FF6D
:10495000664804F0C1F92321724803F0CBFFE86BED
:104960006E4906F06BFD06F0BFF8009602460B4656
:104970005E4804F009FA0221694803F0BBFF5B4876
:1049800004F0AAF91921684803F0B4FFA86B06F0F7
:10499000ABF802250B4602460095544804F0F4F9A2
:1049A0002946624803F0A6FF504804F095F9072312
:1049B0002360FEF799BD03F067FAB42200214C484A
:1049C00002F0DCFB28685A4AA0F1730001210023A1
:1049D000B0FA80F0400911602360FEF722BD0D217E
:1049E000544803F087FF4148414D04F075F9D6F86B
:1049F000AC30002B0FDD18214F4803F07BFFD5F8BA
:104A0000B0103A4804F0B8F902214C4803F072FFA4
:104A1000364804F061F9354804F05EF913213C484A
:104A200003F068FF314804F057F906232360FEF7CE
:104A30005BBD0D21424803F05DFFD4E70F214148E3
:104A400003F058FFCFE70C213F4803F053FFCAE7BC
:104A50000D213E4803F04EFFC5E70C213C4803F012
:104A600049FFC0E72368002B08BF73280CBF012053
:104A70000020FEF7D6BC23682868012B7EF4CBAC5F
:104A8000FEF7E6BD03F00CFF00287EF7E4AE174802
:104A9000174E04F0B3FA01226B23C6F8900022608F
:104AA0002B60FFF724B803F0FBFE00287EF7D3AE9F
:104AB0000E480F4E04F0A2FA01226B23C6F89400B0
:104AC00022602B60FFF713B803F0EAFE00287EF7A0
:104AD000C2AE0648064E04F091FA01226B23C6F8D6
:104AE000A40022602B60FFF702B800BFC087FF1F41
:104AF0002493FF1FD4060100F406010014070100EF
:104B00008C07010098070100B0070100D0070100E1
:104B1000B8030100E40401000405010000007A4428
:104B2000B4030100240501004805010064050100EB
:104B30004487FF1FA4040100C4040100E004010035
:104B400094040100B4040100840401006404010021
:104B5000740401001C21294803F0CCFED7F88C0016
:104B6000274906F06BFC05F0BFFF009502460B4697
:104B7000244804F009F90521234803F0BBFE21482D
:104B800004F0AAF8FD6F012D7FF4ABAE1D211F4884
:104B900003F0B0FED7F88800194906F04FFC05F085
:104BA000A3FF009502460B46164804F0EDF80521D8
:104BB000154803F09FFE134804F08EF891E61E217D
:104BC000134803F097FE0F4804F086F85FE62021B3
:104BD000104803F08FFE0B4804F07EF857E61721CB
:104BE0000D4803F087FE074804F076F84FE60B4EB9
:104BF000FFF76EB9094EFEF77ABF00BFF00701005C
:104C0000CDCCCC3DC087FF1F100801001808010063
:104C10003007010050070100740701002493FF1FB3
:104C200038B5164C164A2368101D12F8011F904221
:104C300041EA0323F9D12360124C03F100432360BE
:104C4000114BDB6F022B11D0104B1B68012B00D0D6
:104C500038BD0F4804F040F821680D4804F08CF886
:104C600003210C48BDE8384003F044BE20680A4DDB
:104C700006F090FB2860FDF769FCE5E73C92FF1F1A
:104C80007392FF1F6094FF1F2493FF1F4C94FF1F1C
:104C9000C087FF1F840B01005492FF1F30B53F4CAB
:104CA0003F4883B0214601F087FA236840F2C232C0
:104CB000934258D06FF4C0615A18B2F5FF7F4CD9B7
:104CC00003F100436FF4C0621344B3F5FF7F3FD993
:104CD000344B1B68012B01D003B030BD324B1B6835
:104CE000012BF9D1314B32481B6801930A22002372
:104CF000019904F001F82268284B002ADB7945DB92
:104D00002C492D4807F078FB2B4807F0B9FB0146EA
:104D1000294803F0EFFD2568204B15F0804526D18A
:104D2000DB798BB1631925491A7A234807F064FBB4
:104D3000214807F0A5FB01461F4803F0DBFD0135C4
:104D4000E379EDB2AB42EDD8194803F0C5FFC3E7F4
:104D500012491B48FCF744FCBAE710491848FCF715
:104D60003FFC2368ACE7FFF75BFF2368A2E7154D24
:104D7000114C0FCD0FC495E8030044F8040B2046F6
:104D800020F81419152103F0B5FDDDE70E490A4896
:104D900022F0604207F030FBB6E700BF6C92FF1FC5
:104DA00040BEFF1F4487FF1F4C94FF1FE8BFFF1F3B
:104DB000C087FF1FB00B01007C92FF1FDC0B0100BE
:104DC000A894FF1FC40B0100880B01002DE9F84FC8
:104DD0007E4B7F4C1B78052B08D07E48FCF766FD88
:104DE000E16A06F0C9FC002800F081807A4E7B4D14
:104DF000002333602B607A4B76481B68744F012B7D
:104E000033D0FCF70DFDE1698046606906F00CFACD
:104E10000146404606F0CEFC00283AD16D48FCF72A
:104E2000FFFCE16806F0C6FC08B100232B6069486E
:104E3000674FFCF7CFFC216906F09EFC48B10023C8
:104E400033602B68654A002BBCBF00231360BDE8AC
:104E5000F88F6048FCF7BEFCB96906F08DFC0028AD
:104E6000EDD13368002BEADBEBE7FCF7D9FCE16915
:104E70008046206A06F0D8F90146404606F09AFCC2
:104E80000028CBD05348FCF7CBFCD7F820908346C2
:104E900005E05048FCF7C4FCD7F814908346F96944
:104EA000484606F0C1F98246F86D06F073FA80466E
:104EB000386E06F06FFA414606F0B6F951460746DD
:104EC000584606F0B1F90146384606F0B7FA5146A1
:104ED0000746484606F0A8F90146384606F062FB48
:104EE000414606F0A3F906F085FC286096E73948AC
:104EF000FCF7DCFC216B06F03FFC20B3364E636E02
:104F000034483360FCF7D2FC8146E06DE76A334DEC
:104F100006F040FA39468046484606F085F90146D3
:104F2000404606F08BFA39468046206B06F07CF945
:104F30000146404606F036FB002106F077F906F000
:104F400059FC286057E72348FCF7B0FC616B06F07A
:104F500013FC30B1204E214D626EE36D32602B6048
:104F600049E71C48FCF7A2FCA16A06F005FC0028F2
:104F70003FF43CAF1748184E184DFCF797FC81469C
:104F8000606ED4F8348006F005FA4146074648467C
:104F900006F04AF939468146002006F045F90146F7
:104FA000484606F04BFA41468146A06A06F03CF9B5
:104FB0000146484606F0F6FA394606F037F906F09B
:104FC00019FCE36D30602B6015E700BF5894FF1F9C
:104FD0002493FF1FA894FF1F6894FF1F4492FF1F94
:104FE0005892FF1F08B5274803F076FE0721264890
:104FF00003F080FC112002F093FB0621F8B1234856
:1050000003F078FC122002F08BFB062100B320484D
:1050100003F070FC122002F083FB062108B31D4848
:1050200003F068FC132002F07BFB062110BB1A483A
:1050300003F060FC1348BDE8084003F04DBE17487C
:1050400003F058FC122002F06BFB06210028DED191
:10505000134803F04FFC122002F062FB06210028E7
:10506000DDD1104803F046FC132002F059FB062165
:105070000028DCD00C4803F03DFC0248BDE80840A5
:1050800003F02ABEC087FF1FE80B0100F00B0100F0
:10509000000C0100100C0100280C0100F80B0100AD
:1050A000080C0100180C0100200C010010B5254C63
:1050B0002368042B27DC01210B2002F02BFB0121AC
:1050C0000C2002F027FB0121142002F023FB012118
:1050D000152002F01FFB0121162002F01BFB01210D
:1050E000172002F017FB0121052002F013FB01211C
:1050F000062002F00FFB236801330A2B2360C4BF94
:105100000023236010BD00210B2002F003FB0021CF
:105110000C2002F0FFFA0021142002F0FBFA00211B
:10512000152002F0F7FA0021162002F0F3FA002110
:10513000172002F0EFFA0021052002F0EBFA00211F
:10514000D6E700BF7C94FF1F2DE9F0418C4DD5F8C8
:10515000AC30042B3ED0032B71D0012B00F09B8090
:10516000022B01D0BDE8F081864C8748237240F2C3
:105170000E32012321462260E37101F025F9834BB1
:105180001B685B00FF2BC8BFFF23042140224FF4A4
:1051900041702060E17122726372286D06F0FAF8A6
:1051A000696906F04BF97A49054606F003FB0028C9
:1051B00000F0DD802946284606F038F806F040FB6E
:1051C00080B20312E072A3726E496F48BDE8F041ED
:1051D00001F0FAB86B4C6F4AA379226043F00103E7
:1051E0000822E271A371286D06F0D4F8696906F00F
:1051F00025F9694906F022F906F022FB634B674A5C
:105200001B68126893FBF2F380B200264FEA202E4F
:105210001F120122607221465B48E372227384F8F8
:1052200008E0A7726673A673E67301F0CDF8A27961
:10523000D5F8AC3066F30002032BA2718DD1514C2E
:10524000286DA3720122E823072140F2FF26227273
:1052500063722660E17106F09DF8696906F0EEF868
:105260004D4906F0EBF806F0EBFA484B4B4A1B6849
:10527000126893FBF2F382B21E12171221464248C3
:105280006373E2722773A67301F09EF8D5F8AC3011
:10529000012B7FF465AF424B3A4C1B682360072219
:1052A00080231020E271237202F03AFA002865D1BF
:1052B0003C4B1B68DFF8D480384F286D314E03EB30
:1052C00083035B001A12A3726272D8F800303A6846
:1052D00093FBF2F31A126273A37306F05BF8696929
:1052E00006F0ACF8304B196805F09EFF2A4906F02D
:1052F000A5F806F0A5FA80B20312314620732248C1
:10530000E37201F061F8022002F040FA274B1B68BB
:105310002360072280231020E271237202F000FA3A
:1053200050BB204B1B68286D03EB83035B001A12F4
:10533000B372727206F02EF8696906F07FF81649AA
:1053400006F07CF806F07CFA82B216123868D8F8BB
:105350000030227393FBF0F30A490B48A3731A122F
:10536000E672627301F030F8D5F8AC30F8E601224D
:105370009023A272E37227E70D4BD3E70C4B98E71B
:105380002493FF1F8894FF1F40BEFF1F4492FF1FFE
:1053900000004843F4E50618000020415087FF1F35
:1053A0006487FF1F2487FF1F5887FF1F3887FF1F51
:1053B0004C87FF1F2DE9F04F8DB001E0FFF76EFC29
:1053C0009D4800F0C3FE0028F8D103F069FA0028D8
:1053D00001DDFDF7FFFF994F3B68012B01D0FDF781
:1053E00051FD974CD4F89C50012D00F04581954E0D
:1053F0003378052B2CD8DFE813F0A000B400D900D7
:105400000600F300FA00904B0022012114201A60DC
:1054100002F080F98D48FCF703FAA16C06F0CAF996
:10542000002840F003828A4B18608848FCF7F8F99E
:10543000616906F0BFF9002840F0F181122002F006
:105440006FF928B90146142002F064F90123337082
:10545000804DE36F23F00203012B28D02B687E4A96
:105460000793079B11687B485B1AB3F5FA7F21D835
:105470002B680A930A9B794A2B680993099B106849
:10548000D4F8B010734D6E4C1B1A8B420CD92B689C
:105490000B93D4F89C300B991160012B00F0C7805E
:1054A0003378032B00F0C3800DB0BDE8F08FFDF71B
:1054B0004DF8D3E703680893089B64481360FCF732
:1054C000CBF86248FCF786F9216906F055F9002807
:1054D00030D1634B1B68002B40F02A81614B1B6865
:1054E000002B40F02E813B68002B40F027815E4F5F
:1054F000FDF7DAFAFFF76AFCFDF716FEFCF7A2FEED
:105500003B68524893B1FCF743F83B6898421CBF94
:1055100005233370FCF700FE72B6544B4AF2026169
:105520004BF2804219801A8062B6A1E7FCF730F88E
:105530003860EFE705233370CBE7434B454D4FF021
:10554000000841461420C3F8008002F0E3F8414609
:105550000B2002F0DFF8464A0123C2F800803370C6
:1055600077E7394B3948364D00221A60FCF758F975
:10557000A16C06F01FF9002840F03981344B00225D
:105580001A60122002F0CCF8012800F09E81112050
:1055900002F0C6F801282F4D7FF45BAF2A68354B27
:1055A0000692069A1A600423337052E7264B4FF096
:1055B00001081120C3F8008002F0B2F80546002867
:1055C0007FF446AF0146152002F0A4F829460B20CF
:1055D00002F0A0F8264B86F800801D601D4D38E7CC
:1055E000194B1C4D00221A60FDF7F2FB31E7164BF8
:1055F000002212201A6002F093F8012808BF03234A
:10560000124808BF3370FBF7C3FF174B1B68984263
:105610007FF41EAF0D48FCF7DDF8216906F0C0F8F5
:1056200000283FF415AF01230A4D337011E7FFF74F
:105630008BFD0DB0BDE8F08F40BEFF1F8094FF1FB3
:105640002493FF1F5894FF1F7494FF1FA894FF1FFB
:105650007894FF1FE8BFFF1F6494FF1F6492FF1F31
:105660004487FF1F8494FF1F5494FF1F0C200540A4
:105670009894FF1FA094FF1FDFF8BC82A74ED8F8B4
:105680000030DFF8B89243F0040300221120C8F87C
:105690000030327002F044F8D9F80030002853D1BD
:1056A000012B00F0E6809E489E4DFCF7B9F8A16CF6
:1056B00006F080F800284CD19B4B00221A60D9F8E4
:1056C00000509748012D77D0FCF7AAF8E168DFF881
:1056D000549206F06FF8002800F0AF80934D00213F
:1056E000142002F017F82A68D8F800300292904A85
:1056F0000299116003F0FD03C8F800308848DFF814
:105700002492FCF767F8216906F036F8002834D0B7
:1057100000210B2001F0FEFF2A68D8F80030049227
:10572000844A0499116003F0FE03C8F8003090E643
:10573000FCF744FE7A48FCF71FF9CFE6FFF7B6FC0A
:10574000D5E6FFF74FFCCEE6002BACD1C9F80050F0
:10575000A9E77348FCF764F882467148FCF73AF809
:10576000E96C05F063FD0146504606F023F8002879
:10577000A2D06D4B01221A60A1E76948FCF72AF814
:10578000D9F8181005F0F8FF0028C1D101210B202D
:1057900001F0C0FF674B2A68D9F890101B6805928A
:1057A000059A0B449342BFF454AED8F8003043F04E
:1057B0000103C8F800304CE6FCF732F8216ADFF844
:1057C00064A105F0F7FF8146002855D0574D002110
:1057D000142001F09FFF2A68D8F800300092544A44
:1057E0000099116003F0FD03C8F8003086E74C48CB
:1057F000FCF716F880464A48FBF7ECFFE96C05F029
:1058000015FD0146404605F0D5FF00283FF4B6AE31
:105810004348FBF71BFF444B01221A60B1E600210D
:10582000142001F077FF0123337007E63C48FBF7B3
:105830000DFF3D4B01221A60F7E53948FBF7F0FFF9
:10584000D9F8141005F0B6FF00287FF447AF3448AC
:10585000FBF7E6FFD9F81C100546D9F8140005F04F
:10586000E3FC0146284605F087FF00283FD12F4D75
:1058700044E7C9F8000016E72948FBF7D1FFDAF83A
:105880001C108346DAF8200005F0CEFC014658468D
:1058900005F072FF0028EAD029461420234D01F0BC
:1058A00039FF234A2968DAF89000136801910199B9
:1058B00003448B427FF622AFD8F80030C2F8009044
:1058C00043F00203C8F8003018E71548FBF7A8FFBB
:1058D000E1690546606905F0A7FC0146284605F028
:1058E0004BFF00283FF453AE032333704FE60121F2
:1058F00014200E4D01F00EFF0D4B2A68D9F89010C0
:105900001B680392039A0B449342BFF4F7AED8F896
:10591000003043F00203C8F80030EFE65894FF1F50
:10592000A894FF1F2493FF1F7894FF1FE8BFFF1F59
:10593000A094FF1FE893FF1F9894FF1F5892FF1F2A
:1059400010B501F0B9FB0B48FBF7F0FD0A4800F079
:1059500063F90A4A0A4812680023012101F09EFAFD
:105960004FF4B67003F056FB044600F0A7FE054B5B
:105970001C6010BDA894FF1FEC93FF1F4887FF1FFA
:10598000FC92FF1F7094FF1F014B1870704700BFFF
:105990006C87FF1F024B1878B0FA80F040097047FF
:1059A0006C87FF1F0278002A00F0858070B50346DF
:1059B00082B00D4621E058785C1C68B3252831D0B0
:1059C000732833D064281DD069281BD0662851D095
:1059D000782839D0582833D0622842D042283CD089
:1059E0006C280FD063280DD074284FD0542857D07E
:1059F00003F004F86278631C72B1252ADBD01878B2
:105A00001C46F5E72B1D29682C481D4603F0B4F908
:105A10006278631C002AF0D1284802B0BDE87040CB
:105A200003F05AB9104602F0E9FFE3E72E6830466A
:105A300006F026FD01463046043502F05BFFD9E74B
:105A400002211F4802F056FF2E1D29681B48002323
:105A50001022354603F050F9CCE70221194802F034
:105A600049FF2E1D2968154800230222354603F000
:105A700043F9BFE7073525F007050321D5E90023E2
:105A80000E480091083503F07FF9B3E72968012932
:105A90000EBF0D480D480121043502F02BFFA9E788
:105AA0002B68012B07BF042109480A48052104354A
:105AB00002F020FF9EE7014803F00EB9C087FF1FE8
:105AC000C80C0100CC0C0100D00C0100D40C01006A
:105AD000D80C0100E00C01000FB400B583B004A99C
