:1000000000800020BD0100007D81000035810000DE
:100010003581000035810000358100003581000008
:100020003581000035810000358100007D810000B0
:100030007D81000035810000B1A00000B5A1000065
:100040007D8100007D8100007D8100007D810000B8
:100050007D8100007D8100007D8100007D810000A8
:100060007D8100007D8100007D8100007D81000098
:100070007D8100007D8100007D8100007D81000088
:100080007D8100007D8100007D8100007D81000078
:100090007D8100007D8100007D8100007D81000068
:1000A0007D8100007D8100007D8100007D81000058
:1000B0007D810000517500005D75000061750000D4
:1000C0006D75000071750000757500007D81000080
:1000D0007D8100007D8100007D8100007D81000028
:1000E0007D8100007D8100007D8100007D81000018
:1000F0007D810000BDA800007D810000198E0000F8
:100100007D810000319100007D8100007D81000033
:100110007D8100007D8100007D8100007D810000E7
:100120007D8100007D8100007D8100007D810000D7
:100130007D8100007D8100007D8100007D810000C7
:100140007D8100007D8100007D8100007D810000B7
:100150007D8100007D8100007D8100007D810000A7
:100160007D8100007D9300007D8100007D81000085
:100170007D8100007D8100007D8100007D81000087
:100180007D8100007D8100007D8100007D81000077
:100190007D8100007D8100007D8100007D81000067
:1001A0007D8100007D8100007D8100007D81000057
:1001B0007D8100007D8100007D810000564B4CF266
:1001C000205210B51A804DF628121A8000BF00BFC9
:1001D00007F0D8FF514B4FF010621A60504A9A60F6
:1001E000504ADA60504A136813F4807304D14F49BF
:1001F0000B604FF4A85313604D4B1A78110703D5C9
:100200001A7842F008021A704A4B4B492A221A7097
:100210004A4A4B4B8B4204D252F8040F43F8040B6A
:10022000F8E7484B484900228B4202D243F8042B9E
:10023000FAE74649464A002352F8230041F82300D2
:1002400001336F2BF8D1434B434A802103F8011B44
:100250009342FBD1414B3D4A1A60414B8A221A70AE
:10026000A3F5805324225A70A0221A709A7992071B
:10027000FCD59A79D406FCD43A4A937903F00C035E
:10028000082B384BF9D103221A7140225A719A79FE
:100290009006FCD5334A9179324B4906FBD5324A58
:1002A000324911600221516020221A709A7902F0BD
:1002B0000C020C2AFAD12E4B2E4A1A602E4B2F4AD2
:1002C0001A6000225A60072243F8042C2C4AC3F813
:1002D0000C2D62B608F00CFA144B1B68DA0705D532
:1002E000284807F0E9FF284B284A1A60284B1B785A
:1002F0005B0609D5244C254B22689A4204D121483B
:1003000007F0DAFF002323600CF0DCFD07F040FF6C
:100310000AF094F9FEE700BF0E200540308004404B
:10032000823F04000100002B10D0034014D0034092
:1003300002D0074000E007402892FF1F2C2B01004D
:100340002087FF1F2892FF1F14C6FF1F0082FF1F78
:100350000000000000E400E05FE400E008ED00E0E1
:100360000050064000400640448004400000030165
:1003700004800440C010050014E000E0FF76010096
:1003800000002020C794BF5C1CE00340A5C3945A22
:1003900000F00740FFFFFFFFFFFFFFFFFFFFFFFF32
:1003A000FFFFFFFFFFFFFFFFFFFFFFFFFFFFFFFF5D
:1003B000FFFFFFFFFFFFFFFFFFFFFFFFFFFFFFFF4D
:1003C000FFFFFFFFFFFFFFFFFFFFFFFFFFFFFFFF3D
:1003D000FFFFFFFFFFFFFFFFFFFFFFFFFFFFFFFF2D
:1003E000FFFFFFFFFFFFFFFFFFFFFFFFFFFFFFFF1D
:1003F000FFFFFFFFFFFFFFFFFFFFFFFFFFFFFFFF0D
:10040000FFFFFFFFFFFFFFFFFFFFFFFFDEF9FFFF23
:1004100010B5054C237833B9044B13B10448AFF33E
:1004200000800123237010BD2892FF1F00000000F0
:10043000282B0100084B10B51BB108490848AFF341
:1004400000800848036803B910BD074B002BFBD0A0
:10045000BDE81040184700BF000000002C92FF1FAD
:10046000282B01002892FF1F00000000F0B400F1CB
:100470001C06144F00243146031F00F13C0243F8D0
:10048000044FB34241F8047F4FF0000542F8044F97
:10049000F5D100230C4A0D49056645668566C5669B
:1004A000056745678567C0F88850C267C0F8842033
:1004B000C0F8801080F8903080F8913080F8A83033
:1004C000F0BC70470000A040000048430000C8C2D4
:1004D0002DE9F04190F8A84084B0202364008DF805
:1004E0000530E4B2042380468DF804408DF80630D0
:1004F0000327204608F0B8FD02210DF1050008F0A1
:10050000BDFD8DF8044006F09DF930B30921404847
:1005100009F068FC0023102221463E4809F008FF3C
:1005200001213D4809F05EFC002310229DF80510D2
:10053000384809F0FDFE0121374809F053FC00233B
:1005400010229DF80610334809F0F2FE01213248CE
:1005500009F048FC2F4809F0DBFE02208DF804402A
:1005600008F078F806F06EF900284CD102AE0024AD
:1005700008F09AFD70B3072C1FD101E008F0A4FD2C
:1005800008F092FD0028F9D106F05CF910B121487D
:1005900009F0BEFE9DF80B009DF80C109DF80D2093
:1005A0009DF80E30C8F89400C8F89810C8F89C2040
:1005B000C8F8A03004B0BDE8F08108F085FD05461C
:1005C00006F8010B06F03EF970B9013408F06CFD35
:1005D0000028D0D1072CD3D006F034F978B9013FE8
:1005E000D8D09DF8044084E7E9B2002310220948DE
:1005F00009F09EFE0121084809F0F4FBE5E70548F3
:1006000009F086FEEBE70721044809F0EBFBADE7B4
:1006100058100100CC87FF1F5C1701006410010017
:1006200090F89800704700BF90F89400704700BFA2
:1006300090F89C00704700BF90F8A000704700BF82
:10064000082994BF50F82100002070472DE9F0419F
:100650000B4E8046041F00F11C0754F8045F31461E
:1006600028460CF0A5FB30B1D8F88C1028460CF0C9
:10067000BDFB00B12E46BC42EFD13046BDE8F08153
:10068000000020412DE9F041D0F88C704FF00008B7
:10069000041F00F11C0654F8045F394628460CF08C
:1006A000A5FB084948B128460CF082FB414620B121
:1006B00028460CF09BFB00B1A846B442EBD1404663
:1006C000BDE8F081000070422DE9F047D0F88C7051
:1006D00082464FF00009041F00F11C064FF000088D
:1006E00054F8045F394628460CF080FB0C4950B1A1
:1006F00028460CF05DFB30B1484629460CF0B2F8B4
:1007000008F101088146B442EAD1CAF8AC804046FB
:100710000CF05CF9014648460CF060FABDE8F08741
:1007200000007042D0F8AC00704700BF38B5846E4E
:10073000456E214628460CF03BFB00B92C4620466E
:1007400038BD00BFD0F8A4302DE9F041002B79D19D
:10075000866E456E0446314628460CF083F8E76EF7
:10076000394680460CF07EF87E490CF037FA4FF09F
:100770007C5104460CF03AFB002861D04FF07C51CC
:1007800028460CF033FB4FF07C51002860D12846FE
:100790000CF00EFB38B14FF07C5130460CF026FBCC
:1007A000002840F0A7804FF07C5128460CF01EFB3B
:1007B000002860D14FF07C5128460CF017FB002830
:1007C00040F0A1804FF07C5128460CF00FFB002830
:1007D0006CD14FF07C5128460CF0EAFA4FF07C5176
:1007E00010B330460CF002FB38B14FF07C51384664
:1007F0000CF0DEFA002840F0B0804FF07C5130461B
:100800000CF0D6FA002861D04FF07C5138460CF03D
:10081000EDFA002840F0A38038464FF07C510CF0F0
:10082000C7FA68B1504C10E028460CF0C1FA002815
:10083000E3D128464FF07C510CF0BAFA002845D19C
:10084000BDE8F08100EB8300046E2046BDE8F08136
:1008500030460CF0CBFA4FF07C5100283ED03846A1
:100860000CF0C4FA0028F0D14FF07C5128460CF06F
:100870009FFA002859D14FF07C5130460CF098FA7D
:10088000002840D04FF07C5138460CF0AFFA0028D9
:1008900041D14FF07C5130460CF0A8FA68B14FF0CE
:1008A0007C5138460CF084FA00284FD14FF07C512F
:1008B00030460CF07DFA00288BD04FF07C51384642
:1008C0000CF076FA002884D02C46BEE730464FF074
:1008D0007C510CF06DFA0028B2D09DE728460CF050
:1008E00067FA0028C7D04FF07C5130460CF07EFAF2
:1008F0000028C0D04FF07C5138460CF077FA002821
:100900003FF451AF18E04FF07C5130460CF06EFAD6
:100910000028CBD0C3E7394628460BF0A3FF4FF0A1
:100920007C510CF0A7F804468FE74FF07C51384615
:100930000CF05CFA00289ED0394630460BF092FF4E
:100940004FF07C510CF096F804467EE740464FF09D
:100950007C510CF08FF8044677E7344675E73C4647
:1009600073E700BF000040400000A0C270B504461D
:10097000FFF7E8FE4FF07C510CF038FA28B3666EB2
:100980004FF07C5130460CF031FAA56EF0B9E46EB0
:100990004FF07C5128460CF029FA58B129463046D0
:1009A0000CF024FA30B1214628460CF001FA08B1C7
:1009B0002C4620E04FF07C5120460CF017FA20B175
:1009C000284621460CF012FA78B970BD3046294607
:1009D0000CF0EEF9E46E0028DAD0304621460CF037
:1009E000E7F90028D4D0344605E0304621460CF023
:1009F000FDF90028E9D0204670BD00BF01392DE97E
:100A0000F84380461546032900F2E280DFE801F052
:100A1000AE855C02537B107B03EB00200BF0D6FF0E
:100A20006D490CF027F8C8F81800EB7BA87B03EBA6
:100A300000200BF0CBFF68490CF01CF8D8F8686078
:100A4000D8F86470D8F80040C8F81C004046FFF79A
:100A50008DFFD8F87C1005460CF0AAF908B1C8F84B
:100A60007C50394630460CF0C1F9002840F0A78090
:100A70003946D8F880000CF09BF910B13E46C8F812
:100A8000806008F12006C14608F14005002701E01A
:100A900059F8044F306821460CF0A8F90137214677
:100AA00028B1D8F88C000CF08DF900B134602146E3
:100AB00028680CF07DF9043600B12C60082F05F190
:100AC0000405E5D1BDE8F883507A32380BF07EFF9B
:100AD000C8F87400A87A32380BF078FFC8F87800AC
:100AE0006B7B287B03EB00200BF070FF3A490BF087
:100AF000C1FFC8F81000EB7BA87B03EB00200BF0D4
:100B000065FF35490BF0B6FFD8F86860C8F81400E7
:100B1000D8F86470D8F8004098E7507A32380BF073
:100B200055FFC8F86C00A87A32380BF04FFFC8F8B0
:100B300070006B7B287B03EB00200BF047FF2649FE
:100B40000BF098FFC8F80800EB7BA87B03EB0020B4
:100B50000BF03CFF20490BF08DFFD8F86860C8F817
:100B60000C00D8F86470D8F800406FE7137AC0F82A
:100B7000B030907A32380BF029FFC8F8640007468D
:100B8000E87A32380BF022FFC8F868006B7B064623
:100B9000287B03EB00200BF019FF0F490BF06AFFD5
:100BA000C8F80000EB7B0446A87B03EB00200BF0A9
:100BB0000DFF09490BF05EFFC8F8040046E7D8F8BE
:100BC000801030460CF012F900287FF458AF58E737
:100BD000866E476E046839E70AD7233C2DE9F04F4B
:100BE00090F8A83091B007465B008DF80830FFF709
:100BF0006FFCD7F89C00D7F8A040D7F89830D7F80A
:100C0000942097F8A8108DE81100C94805F020FF3E
:100C100030223D2303268DF809208DF80A300DF18E
:100C20000A059DF8089049F00108404608F01CFAB2
:100C30000DF10900022108F021FA8DF808804246E2
:100C400002AB00205040082410F0800F4FEA400013
:100C500018BF80F00700013CC0B2F5D19D4202D020
:100C600013F8012FEEE708F0FFF905F0EBFD00287F
:100C700040F07C8202208DF8089007F0EBFC05F034
:100C8000E1FD002840F0B8820DF10C0AD1460024A5
:100C900008F00AFA002843D0032C34D101E008F010
:100CA00013FA08F001FA0028F9D105F0CBFD10B1D4
:100CB000A04809F02DFB312303268DF809308DF86B
:100CC0000A609DF8089049F00108404608F0CCF908
:100CD0000DF10900022108F0D1F98DF80880424693
:100CE00002AB00205040082410F0800F4FEA400073
:100CF00018BF80F00700013CC0B2F5D19D4228D05A
:100D000013F8012FEEE708F0DFF909F8010B804630
:100D100005F098FD68B9013408F0C6F90028BBD188
:100D2000032CBED005F08EFD78B9013E7FF479AF7B
:100D3000C1E75FFA88F1002310227E4809F0F8FA33
:100D400001217D4809F04EF8E5E77A4809F0E0FA1C
:100D5000EBE708F089F905F075FD002840F0C58142
:100D600002208DF8089007F075FC05F06BFD002857
:100D700040F03D820DF10C09002408F095F900289F
:100D800044D0032C35D101E008F09EF908F08CF92D
:100D90000028F9D105F056FD10B1664809F0B8FAFF
:100DA000342201238DF809208DF80A3003269DF89E
:100DB000089049F00108404608F056F90DF1090085
:100DC000022108F05BF98DF80880424602AB002052
:100DD0005040082410F0800F4FEA400018BF80F008
:100DE0000700013CC0B2F5D19D4228D013F8012F75
:100DF000EEE708F069F909F8010B804605F022FDDD
:100E000068B9013408F050F90028BAD1032CBDD0DC
:100E100005F018FD78B9013E7FF453AFC0E75FFAE3
:100E200088F100231022434809F082FA0121424848
:100E300008F0D8FFE5E73F4809F06AFAEBE708F069
:100E400013F905F0FFFC002840F00E8102208DF818
:100E5000089007F0FFFB05F0F5FC002840F0D68174
:100E60000DF10C09002408F01FF9002800F084801F
:100E7000032C72D101E008F027F908F015F90028D9
:100E8000F9D105F0DFFC10B12A4809F041FA01223E
:100E900012238DF809208DF80A304FF003089DF8D1
:100EA0000840204608F0E0F802210DF1090008F0A2
:100EB000E5F88DF8084005F0C5FC30B309211F485E
:100EC00008F090FF0023102221461A4809F030FA5A
:100ED0000121194808F086FF002310229DF809100F
:100EE000144809F025FA0121134808F07BFF00237C
:100EF00010229DF80A100F4809F01AFA01210E4835
:100F000008F070FF0B4809F003FA06208DF808403E
:100F100007F0A0FB05F096FC002840F0728103ADBD
:100F2000002608F0C1F800283FD0162E2FD109E086
:100F30006C100100CC87FF1F5C17010058100100E6
:100F400008F0C2F808F0B0F80028F9D105F07AFCF2
:100F5000162600287DD1152035E008F0B5F809F8EF
:100F6000010B804605F06EFC00285BD1013408F0CF
:100F70009BF800287FF47CAF032C3FF47EAF05F094
:100F800061FC00286CD1013E7FF411AF7FE708F0CF
:100F90009BF805F8010B044605F054FC00284DD1E0
:100FA000013608F081F80028BFD1162ECAD005F00E
:100FB00049FC00284DD1B8F101087FF470AF701ED4
:100FC000002840F32482002303AA1C4612F8011BC8
:100FD00008254C4014F0800F4FEA440418BF84F0F9
:100FE0000704013DE4B2F5D101338342EEDB9DF805
:100FF000218089484146224605F02AFD162EC14629
:10100000A34602D1A04500F0138197F8A8108348A9
:10101000CDF800B04B46324605F048FD002011B037
:10102000BDE8F08F5FFA88F1002310227C4809F0B8
:101030007FF901217B4808F0D5FE97E7E1B2002354
:101040001022774809F074F90121764808F0CAFEA9
:10105000A6E7734809F05CF9162EACD11520B2E76B
:101060006F4809F055F98EE709216F4808F0BAFE7C
:101070002346102241466A4809F05AF9012169487D
:1010800008F0B0FE234610229DF80910644809F0CC
:101090004FF90121634808F0A5FE102223469DF870
:1010A0000A105F4809F044F901215E4808F09AFEF1
:1010B00021460DF10B0002AA12F8014B6140C9B2A2
:1010C000082311F0800F4FEA410118BF81F007019A
:1010D000013BC9B2F5D19042EED11022504809F03F
:1010E00027F94F4809F014F9B0E609214E4808F0F5
:1010F00079FE234610224146494809F019F9012199
:10110000484808F06FFE234610229DF80910444815
:1011100009F00EF90121434808F064FE102223462D
:101120009DF80A103E4809F003F901213D4808F0F6
:1011300059FE21460DF10B0002AA12F8014B614045
:10114000C9B2082311F0800F4FEA410118BF81F0A6
:101150000701013BC9B2F5D19042EED110223048CF
:1011600009F0E6F82E4809F0D3F8F9E509212E48F0
:1011700008F038FE234610224146294809F0D8F8E5
:101180000121284808F02EFE234610229DF8091060
:10119000234809F0CDF80121224808F023FE10224F
:1011A00023469DF80A101E4809F0C2F801211D4887
:1011B00008F018FE21460DF10B0002AA12F8014BAF
:1011C0006140C9B2082311F0800F4FEA410118BFF6
:1011D00081F00701013BC9B2F5D19042EED1102256
:1011E0000F4809F0A5F80E4809F092F842E50721EA
:1011F0000E4808F0F7FDBDE507210C4808F0F2FDA8
:1012000042E50721094808F0EDFD88E60721074877
:1012100008F0E8FD24E600BFA0100100EC1001007A
:10122000CC87FF1F5C1701005810010064100100FB
:101230009DF80C3097F8A820B3EB420F7FF4EEAE88
:101240009DF80D30012B7FF4E9AE9DF80E30122B86
:101250007FF4E4AE9DF810309DF80F0003EB002002
:101260000BF0B4FB72490BF005FCD7F88810386618
:1012700004460BF0BBFD08B1C7F88840D7F88410CE
:1012800020460BF095FD08B1C7F88440A7F104098A
:1012900007F1200607F140054FF008089AF80630DC
:1012A0009AF8050003EB00200BF090FB61490BF06E
:1012B000E1FB49F8040F316804460BF079FD0AF1AF
:1012C000020A30B1D7F88C1020460BF085FD00B132
:1012D0003460296820460BF089FD043600B12C608B
:1012E000B8F1010805F10405D8D19DF81E309DF82C
:1012F0001D0003EB002002300BF068FB4E490BF0A1
:101300006DFC01464D480BF069FC4D490BF0A8FA05
:101310004C490BF0AFFB054609F01AFC0446284681
:1013200009F016FC484909F085FC48490546204665
:101330000BF0A0FB46490BF095FA464904462846B7
:101340000BF098FB014620460BF08CFA01464FF05B
:101350007E500BF043FC40490BF082FA9DF81F20B1
:101360009DF82030786603EB022009300BF02EFB4D
:101370003A490BF033FC014630480BF02FFC304962
:101380000BF06EFA2F490BF075FB054609F0E0FBF8
:101390000446284609F0DCFB2B4909F04BFC2B499D
:1013A000054620460BF066FB29490BF05BFA2949FC
:1013B000044628460BF05EFB014620460BF052FA2D
:1013C00001464FF07E500BF009FC23490BF048FA20
:1013D000B86604463846FFF7C9FAF96F05460BF0C0
:1013E000E7FC00B1FD677D6E204629460BF0FEFC50
:1013F000B0B92946D7F880000BF0DAFC10B12C46C2
:10140000C7F88040164805F023FB012007E69DF849
:101410002190144849464246C34605F019FBF4E5BD
:10142000D7F8801020460BF0E1FC0028E8D1E9E76E
:101430001357053B2003C839001601470AD7E33F7D
:10144000E17A644000007A4400004040A40D8F39E6
:101450005A80473A46A6DB3333938843002C014732
:10146000C4100100A01001002DE9F8430026D0F8B7
:101470008C8006668146044600F1200754F8045B20
:10148000414628460BF0B2FC084950B128460BF003
:101490008FFC30B1304629460BF0E4F90646C9F816
:1014A0006000BC42EAD13046BDE8F88300007042DB
:1014B00005299ABF00EB8100406E0020704700BFF5
:1014C0003E2998BF80F8A810704700BF90F89000A0
:1014D000704700BFC0F8A410704700BF80F890109C
:1014E000704700BF30B50F4CC0F88C1083B0204659
:1014F0000D4608F00DFF204608F00AFF28460AF0C6
:101500000FFE022502460B460095204608F058FFC4
:10151000204608F0FDFE204603B0BDE8304008F04C
:10152000F7BE00BFCC87FF1F70B500F531550646EA
:10153000343500F128042046B434FEF797FFAC425E
:10154000F9D106F1DC05012428460021FFF7C6FF8A
:10155000214628460134FFF7B3FF3F2C05F1B405BF
:10156000F2D142F67C4400250548064A064B355523
:10157000002130617161B261F361304670BD00BF1E
:1015800000007A44000048430000C8C201207047B0
:10159000F8B500F53257002300F531563B6034367C
:1015A00000F1DC0402E0B434B4420DD02046FFF771
:1015B0008DFF0028F7D020463D68FFF7B3F8B4341C
:1015C0002844B4423860F1D13868F8BDF8B50E4609
:1015D000096801F47F6500290446A5F5C06511DBA3
:1015E0002D0901F00F07B42303FB054428342046DE
:1015F0000121FFF773FF324639462046BDE8F84027
:10160000FFF7FCB90A4801F00F0708F081FE12212C
:10161000084808F0E7FB3168054801F00041002365
:101620000A2208F085FE02482D0908F071FEDAE76B
:10163000CC87FF1F3C110100704700BF704700BFFF
:101640002DE9F0430446002383B0064644F8DC3B12
:10165000012504E001353F2D04F1B40469D0204692
:10166000FFF734FF0028F5D0504805F0F1F929467E
:101670004F4805F0EDF92046FFF7B0FA2046FFF796
:10168000F3FE0AF04DFD02460B464A4805F0E0F92C
:101690002046FEF7DBFF80462046FEF7F3FF0746B5
:1016A00040460AF03DFD8046384689460AF038FD3E
:1016B00042464B46CDE900013F4805F0C9F90021FB
:1016C0002046FFF7F5FE012180462046FFF7F0FE99
:1016D000074640460AF024FD8046384689460AF00F
:1016E0001FFD42464B46CDE90001344805F0B0F9F4
:1016F0002046FFF7B9FE014630680BF0B3F83060C2
:101700002046FFF733F9B1690BF052FB002833D1C3
:101710002046FFF70BF8F1690BF068FB002899D021
:101720002046FFF703F801353F2DF06104F1B404C2
:1017300095D170680BF04AF9014630680BF04EFA0B
:101740007169306004460BF051FB00B1746131697E
:1017500020460BF02DFB00B134610B2006F044FF56
:1017600042F67C43F35C60B99BB142F67C430122B4
:10177000F25403B0BDE8F0832046FFF7F7F8B061FC
:10178000C6E753B942F67C430022F25403B0BDE8E9
:10179000F0830B4805F08AF9E7E70A4805F070F98D
:1017A00042F67C430022F254F0E700BF38130100F8
:1017B000501101008C110100A0110100CC11010099
:1017C000E81101002012010070B5114B836000F593
:1017D00031550646343500F1DC0402E0B434AC4245
:1017E00013D02046FFF772FE0028F7D02046FEF700
:1017F0002DFFB1680BF0DCFA0028EFD02046FEF791
:1018000025FFB434AC42B060EBD1B06870BD00BF0E
:101810000000A04070B5002300F531550646C360B6
:10182000343500F1DC0402E0B434AC4213D020467D
:10183000FFF74CFE0028F7D02046FEF723FFF168A3
:101840000BF0D4FA0028EFD02046FEF71BFFB4348B
:10185000AC42F060EBD1F06870BD00BF006870472B
:1018600041607047F8B500F531550F4616463435DE
:1018700000F1DC0402E0B434AC420FD02046FFF7A4
:1018800025FE0028F7D020463946FFF723FE2046E4
:101890003146B434FFF726FEAC42EFD1F8BD00BFAD
:1018A0002DE9F84300F5315542F678432E460027DE
:1018B0008046C7504FF000093435383600F1DC045B
:1018C00002E0B434A54213D02046FFF7FFFD002804
:1018D000F7D03368013333602046FEF733FF1D49EC
:1018E0000BF084FA88B9B434A54207F10107EBD1B3
:1018F00042F6784358F80300C01B0BF067F8014626
:1019000048460BF06BF9BDE8F8832046FEF71AFF56
:10191000014648460AF0A6FF81462046FEF712FF20
:10192000D8F820100BF062FA70B92046FEF70AFFD3
:10193000D8F824100BF03CFA0028C2D02046FEF75D
:1019400001FFC8F82400BCE72046FEF7FBFEC8F8FC
:101950002000EAE700008CC2006A7047406A7047C6
:10196000F8B500F5315507460026343500F1DC04A2
:1019700002E0B434AC420FD02046FFF7A7FD0028A8
:10198000F7D02046FEF7A0FE014630460AF06AFF77
:10199000B434AC420646EFD142F67843F8580BF027
:1019A00015F8014630460BF019F9F8BD2DE9F04F56
:1019B00006468FB09B488B4604F0F2FF994804F02E
:1019C000EFFF984804F0ECFF42F678433046F258B7
:1019D0000D92FFF7DDFD73680C93074630680AF03F
:1019E0009FFB804630468946FFF7BAFF8246304665
:1019F000B468F568FFF754FF0AF092FBCDE90A01DD
:101A0000214628460AF02CFF87490BF033F80AF0EC
:101A100087FBCDE9080128460AF082FBCDE90601E3
:101A200020460AF07DFBCDE9040150460AF078FB20
:101A30000D9A0C9BCDE90201CDE9008911467B4846
:101A40003A4604F0ADFF774804F0AAFFDC364FF0C9
:101A500001084FF0000A07E008F10108B8F13F0F54
:101A600006F1B40600F0D5803046FFF72FFD0028C0
:101A7000F2D03046FEF7D4FD3046FEF7D5FD3046B5
:101A8000FEF7D6FD3046FEF7D7FD0821684808F07E
:101A9000A9F94146674808F08BFCB8F1090F40F3FB
:101AA000BB800221644808F09DF93046FFF7DCFC5A
:101AB0000AF036FB5FFA8BF902460B46CDF8009030
:101AC0005C4808F07DFC01215C4808F08BF9554624
:101AD000002420E006215A4808F084F92946554898
:101AE00008F066FC0221574808F07CF92146304690
:101AF000FEF7A6FD0AF014FBCDF8009002460B4657
:101B00004C4808F05DFC013401214C4808F06AF9AA
:101B1000082C09D03D46092D05F10107DADC012129
:101B2000494808F05FF9D5E7424808F0F1FB092180
:101B3000464808F057F900213046FFF7B9FC0AF093
:101B4000EFFA022402460B4600943A4808F038FCAB
:101B50000A213F4808F046F901213046FFF7A8FC6A
:101B60000AF0DEFA009402460B46324808F028FCE0
:101B70000A21384808F036F921463046FFF798FC2C
:101B80000AF0CEFA009402460B462A4808F018FCE8
:101B90000A21314808F026F903213046FFF788FC76
:101BA0000AF0BEFA009402460B46224808F008FCF0
:101BB0000A212A4808F016F904213046FFF778FC7C
:101BC0000AF0AEFA009402460B461A4808F0F8FBF9
:101BD0000A21234808F006F905213046FFF768FC82
:101BE0000AF09EFA009402460B46124808F0E8FB01
:101BF00001211C4808F0F6F808F101080D4808F02A
:101C000087FBB8F13F0F0AF1080A06F1B4067FF42A
:101C10002BAF0FB0BDE8F08F01210B4808F0E2F8C0
:101C20003FE700BF3813010000007A44D0140100E0
:101C300070150100CC87FF1F842301007C15010073
:101C4000801501004C1701005C1701008815010088
:101C500094150100A0150100AC150100B815010094
:101C6000C4150100D01501002DE9F04F85B000F139
:101C7000DC058A4603929B462E464FF0010806E09B
:101C800008F10108B8F13F0F06F1B4067BD03046E9
:101C9000FFF71CFC0028F3D000230A2251467D48A0
:101CA00008F046FB01217C4808F09CF803980AF0F4
:101CB00037FA00230246009376480B4608F080FB73
:101CC0000121754808F08EF85946724808F070FBFB
:101CD0000121714808F086F841466E4808F068FB1B
:101CE00001216D4808F07EF800244FF002092146DA
:101CF0003046FEF7A5FC0AF013FACDF80090024634
:101D00000B46644808F05CFB01340121624808F08E
:101D100069F8082C4FF00207E9D100213046FFF79F
:101D2000C7FB0AF0FDF9009702460B46594808F038
:101D300047FB0121584808F055F801213046FFF7CC
:101D4000B7FB0AF0EDF9009702460B46514808F040
:101D500037FB0121504808F045F839463046FFF777
:101D6000A7FB0AF0DDF9009702460B46494808F048
:101D700027FB08F10108474808F0CAFAB8F13F0FFD
:101D800006F1B40683D101274FF0000904E00137C2
:101D90003F2F05F1B40579D02846FFF797FB0028BF
:101DA000F5D000230A2251463C4808F0C1FA01212F
:101DB000394806F02DFF03980AF0B2F9CDF80090EB
:101DC00002460B46354808F0FBFA0121324806F07E
:101DD0001FFF5946314808F0EBFA01212E4806F062
:101DE00017FF39462D4808F0E3FA01212A4806F08A
:101DF0000FFF00244FF0020821462846FEF720FC82
:101E00000AF08EF9CDF8008002460B46234808F010
:101E1000D7FA01340121204806F0FAFE082C4FF0D1
:101E20000206E9D100212846FFF742FB0AF078F9C3
:101E3000009602460B46194808F0C2FA01211648DE
:101E400006F0E6FE01212846FFF732FB0AF068F9AA
:101E5000009602460B46114808F0B2FA01210E48DE
:101E600006F0D6FE31462846FFF722FB0AF058F965
:101E7000009602460B46094808F0A2FA01370748C7
:101E800008F046FA3F2F05F1B40585D105B0BDE84D
:101E9000F08F00BFCC87FF1FD4150100BC87FF1F48
:101EA0002DE9F84F994C9A48FFF7FAFCE16A0AF0DD
:101EB0007FFF002851D0974E974D002333602B6051
:101EC000964B93481B68914F012B5ED0FFF7A2FC05
:101ED000E169804660690AF0C3FC014640460AF0A9
:101EE00085FF002865D18A48FFF794FCE1680AF075
:101EF0007DFF08B100232B608548844FFFF764FC09
:101F000021690AF055FF58B1002333602B68824ADB
:101F1000002B01DBBDE8F88F00231360BDE8F88FCC
:101F20007B48FFF751FCB9690AF042FF0028EBD16A
:101F30007748FFF749FCD7F8B8100446B8690AF0AB
:101F400091FC014620460AF051FF002800F08480F1
:101F5000786E30600028D7DBD8E76D48FFF7A0FC2B
:101F6000216B0AF025FF002851D16948FFF798FC42
:101F7000616B0AF01DFF002800F09380654E664DEE
:101F8000626EE36D32602B609AE7FFF743FCE16914
:101F90008046206A0AF064FC014640460AF026FFAB
:101FA0000028A0D05A48FFF735FCD7F82090834688
:101FB00005E05748FFF72EFCD7F814908346F969DF
:101FC00048460AF04DFC8246F86D0AF0FFFC804658
:101FD000386E0AF0FBFC41460AF042FC51460746C7
:101FE00058460AF03DFC014638460AF043FD51468A
:101FF000074648460AF034FC014638460AF0EEFD32
:1020000041460AF02FFC0AF011FF28606BE7414EB1
:10201000636E3F483360FFF743FC8146E06DE76A3B
:102020003D4D0AF0D3FC3946804648460AF018FC7C
:10203000014640460AF01EFD39468046206B0AF0F4
:102040000FFC014640460AF0C9FD00210AF00AFCD7
:102050000AF0ECFE286033E72D48FFF7B5FB814618
:10206000F86DBC690AF0B2FC2146804648460AF089
:10207000F7FB014640460AF0FDFCD7F8B810804651
:1020800020460AF0EFFB21460AF0EAFB01464046F3
:102090000AF0A4FD00210AF0E5FB0AF0C7FE30605B
:1020A00058E71B48FFF7FCFBA16A0AF081FE0028F5
:1020B0003FF401AF1648174E174DFFF7F1FB81466D
:1020C000606ED4F834800AF081FC414607464846E9
:1020D0000AF0C6FB3946814600200AF0C1FB0146E2
:1020E00048460AF0C7FC41468146A06A0AF0B8FBA0
:1020F000014648460AF072FD39460AF0B3FB0AF081
:1021000095FEE36D30602B60DAE600BF3093FF1F71
:10211000E094FF1FA494FF1F4C92FF1F6892FF1FC3
:10212000F8B53B483B4F3C4D3C4E3D4C04F038FC31
:102130003C4B3D4A3D485A60DF60102200273C4935
:102140001A7018613B4A3C485D615E623B4D9C6180
:102150004FF07C563A4C1F633A4F9962DA623A4923
:1021600058630C2239489D635E6440F61C450A267C
:102170009C641F6241F20404354FD9641A65022140
:102180000122C3F8B8009D6600206425DE661C6746
:102190004FF496763224DF61DF635A275970597203
:1021A0001A725A6583F840005E66DE651C669D659E
:1021B0004FF47A7E5F67274E274F9867D967C3F839
:1021C0008000C3F89440C3F8A040C3F89C00FF24EB
:1021D000C3F8A820C3F8AC10052041F2883183F879
:1021E000BC2040F2D662C3F8B050C3F898E0C3F800
:1021F0008870C3F88C60C3F8A440A3F8B600C3F895
:102200009010A3F8B410A3F88420A3F88620F8BD9A
:10221000D81501006666864033338340CDCCCC3D73
:10222000CDCC4C403093FF1F20A107000000404060
:1022300000008242000020C1000020420000A040B7
:102240009A997940333373400AD7233D9A99993E3E
:10225000CDCC4C3E00C0204400006842F0B54FF4A5
:102260007A6085B006F0F6F900210F2006F0CAF971
:1022700000210E2006F0C6F90021112006F0C2F957
:102280000021102006F0BEF90021122006F0BAF954
:102290000021132006F0B6F901210B2006F0B2F957
:1022A00001210C2006F0AEF90121142006F0AAF954
:1022B0000121152006F0A6F90121162006F0A2F949
:1022C0000121172006F09EF90121052006F09AF958
:1022D000904C914D0121062006F094F901210D202A
:1022E00006F090F920880AF06DFB0146162006F0F2
:1022F000F3F820880AF066FB0146172006F0ECF898
:1023000020880AF05FFB0146052006F0E5F82088EA
:102310000AF058FB00240146062006F0DDF8009480
:1023200023467E4A7E497F4804F0BAFDE6B2324633
:1023300079497C4804F062FD2B79774979486FF33D
:102340000003013432462B7104F04EFD082CEDD110
:102350000924E6B232467049724804F04FFD2B79E9
:102360006D49704843F00103013432462B7104F08B
:102370003BFD0D2CEDD16C4C4FF0FF32206810214D
:1023800005F05AF920684FF0FF32102105F02CF9C2
:1023900020684FF0FF32022105F03AF920684FF033
:1023A000FF32022105F03EF900220F21206805F0DE
:1023B0004DF90C215D4807F015FD5D4807F0A8FFB9
:1023C00014215C4807F00EFD594807F0A1FF40F2C8
:1023D000836006F0FDF9564807F09AFF172156482A
:1023E00007F000FD524807F093FF544B1B789A0604
:1023F00000F1BE80514B1B781B0700F1C5804F4B8D
:102400001B785F0700F1CC804C4B1B789E0700F1D6
:10241000D3804B4B1B781D0600F1DA80484B1B78AC
:102420005C0600F1E180464B1B78980600F1E880DD
:10243000434B1B78590700F1EF80414B1B781A077B
:1024400000F1F6803E4B1B789B0700F1FD80384879
:1024500007F05EFF72B63B4A4CF220534DF628114E
:102460002024138023461180013BFDD1364D37488F
:10247000374900234FF480562E8003800B8032F8BA
:102480000E3C9BB243F0D30322F80E3C62B69D2073
:1024900006F09AFD21462F482F4D07F0A3FC244853
:1024A00007F036FF05F1C0062F462C46601B05F0ED
:1024B000AFFD04F8010BB442F8D13B78102B01D0EA
:1024C000FFF72EFE2548FFF7B9F8042004F0B4F911
:1024D000234B224800221A60FFF7AEF801210D209D
:1024E00006F07CF8796D1D48FFF7BAF97A6C97F819
:1024F00040101A48FFF7B6F91A4B1B491A680392A5
:1025000003981B680293029A184B08601A6005B082
:10251000F0BD00BF2487FF1FFC93FF1F10C3FF1FE8
:1025200020A1070074C1FF1FAC94FF1FF815010024
:10253000CC87FF1F081601002016010001F007409C
:1025400000F007400E20054004200540062005400D
:1025500016200540241701003093FF1FE094FF1F51
:102560005892FF1F1CC3FF1FDC94FF1F0494FF1F22
:102570002121394807F036FC384807F0C9FE384BAE
:102580001B781B077FF53BAF0C21364807F02AFC70
:10259000324807F0BDFE324B1B785F077FF534AF42
:1025A0000E21314807F01EFC2C4807F0B1FE2C4BE1
:1025B0001B789E077FF52DAF17212C4807F012FCE2
:1025C000264807F0A5FE2A4B1B781D067FF526AF8F
:1025D0000E21284807F006FC204807F099FE244BFE
:1025E0001B785C067FF51FAF1221234807F0FAFB2A
:1025F0001A4807F08DFE1E4B1B7898067FF518AF22
:1026000013211E4807F0EEFB144807F081FE184B1B
:102610001B7859077FF511AF1C21194807F0E2FB21
:102620000E4807F075FE124B1B781A077FF50AAFAC
:102630001921144807F0D6FB084807F069FE0C4B37
:102640001B789B077FF503AF18210F4807F0CAFBE3
:10265000024807F05DFEFAE638160100CC87FF1F3E
:1026600001F007405C1601006C1601007C160100A9
:1026700000F0074094160100A4160100B8160100EE
:10268000CC160100EC1601000817010070B5464C8D
:10269000464D4748E66800232B70FFF7BBF801461C
:1026A00030460AF085FB08B104232B704048FFF741
:1026B0008BF821690AF07CFB18B12B7843F01003EA
:1026C0002B703B48FFF7ECF8A16A0AF08FFB18B1BA
:1026D0002B7843F040032B70002335486B70FFF7D5
:1026E000DFF8E16A314E0AF063FB08B10123737031
:1026F00000232F48EB70FFF78DF805462C482B4E32
:10270000FFF762F8014628460AF0AAF8E16B0AF0E2
:102710006DFB08B10123F370264D254800232B7073
:10272000FFF778F8616A0646E0680AF099F8014612
:1027300030460AF05BFB08B104232B701C48FFF7FE
:1027400043F8616A064620690AF08CF80146304673
:102750000AF02EFB18B12B7843F010032B701448AD
:10276000FFF79EF8A16B0646A06A0AF079F80146C9
:1027700030460AF03BFB18B12B7843F040032B7036
:1027800000230B486B70FFF78BF8A16B0546E06ADE
:10279000084C0AF067F8014628460AF009FB08B120
:1027A0000123637070BD00BF3093FF1F2C93FF1F88
:1027B000E094FF1F9C94FF1F2DE9F0417C4C23689F
:1027C000012B82B031D0022B00F0A880032B00F047
:1027D000C8803BBB774B784AD3F8A010D3F8A4301D
:1027E00012685B1A632B0EDD744803FB02F380FB57
:1027F0000302DB17C3EB62131944062002B0BDE8E5
:10280000F04105F06BBD6E4803FB022380FB030221
:10281000DB17C3EB22121144062002B0BDE8F041E1
:1028200005F05CBD02B0BDE8F081664E33680A3346
:10283000B3F57A7F00F3B780184633600AF0C6F824
:1028400061490AF017F980465A4DD5F8A0000AF000
:10285000BDF80746D5F8A4000AF0B8F8394609F0E3
:10286000FFFF41460AF006F958490AF0B7F9394620
:1028700009F0F8FF0AF0DAFA0146062005F02EFD0D
:102880000221534807F0AEFA524807F041FD0621F5
:10289000514807F0A7FA30680AF098F84A490AF058
:1028A000E9F809F03DFC022702460B46009749482B
:1028B00007F086FD0D21494807F094FAD5F8A000ED
:1028C0000AF084F8804630680AF080F83E490AF041
:1028D000D1F80646D5F8A4000AF078F8414609F088
:1028E000BFFF014630460AF0C5F838490AF076F9CC
:1028F000414609F0B7FF09F013FC00970B4602466A
:10290000344807F05DFD3946314807F06BFA31482D
:1029100007F0FEFC2368022B7FF458AF294B254EAD
:1029200000221A60D6F8A0000AF050F80546D6F842
:10293000A4000AF04BF8294609F092FF00210AF0A2
:1029400099F822490AF04AF9294609F08BFF0AF062
:102950006DFA0146062005F0C1FC2368032B7FF4C5
:1029600038AF184B134E4FF47A721A60D6F8A000A5
:102970000AF02CF80546D6F8A4000AF027F82946F4
:1029800009F06EFF11490AF075F810490AF026F9AE
:10299000294609F067FF0AF049FA0146062005F0CA
:1029A0009DFC236815E700234FF0000833604BE7D8
:1029B0008894FF1F3093FF1F3087FF1F1F85EB5147
:1029C000CBF08D285C92FF1FCDCCCC3D0000C842DF
:1029D00084230100CC87FF1F481701005017010016
:1029E00070B5B548B54C07F093FCB34807F090FCC0
:1029F000B14807F08DFC0D21B14807F0F3F9D4F888
:102A00009C30012B11D0AF4CAB48217800230A2217
:102A100007F08EFC2378052B67D8DFE813F006015A
:102A20000B01100115011A0101010921A64807F047
:102A3000D9F9A648FEF7C8FE21690AF0B9F918B11C
:102A40000F21A34807F0CEF9A048FEF7E3FEE168A6
:102A50000AF0CCF918B10E219E4807F0C3F99B4843
:102A6000FEF7D8FE05469948FEF7AEFE0146284619
:102A700009F0F6FEE16B0AF0B9F918B11121964898
:102A800007F0B0F99148FEF70BFFA16A0AF0AEF922
:102A900018B10C21914807F0A5F98C48FEF700FF0A
:102AA000E16A0AF085F918B10D218D4807F09AF90D
:102AB0008C4B86481B68012B00F0E880FEF784FEF3
:102AC00021697E4D0AF092F978B18048FEF7A2FEA6
:102AD000E9680AF06DF940B17A4B1B78052B00F0DC
:102AE000E6800821804807F07DF902217F4807F041
:102AF00079F9122005F078FD012800F0AF8011204F
:102B000005F072FD012800F0B380794B1B68012BA2
:102B100000F0B78002217548764C07F063F9764BD8
:102B20006548196807F044FC634807F0F1FB04218D
:102B3000724807F057F90B2005F056FD00230146B7
:102B40000A225D4807F0F4FB0C2005F04DFD002340
:102B500001460A22584807F0EBFB142005F044FD1B
:102B6000002301460A22544807F0E2FB152005F035
:102B70003BFD0A22002301464F4807F0D9FB0621FE
:102B80005F4807F02FF92368DD074FF001014CBFC4
:102B90005C485D4807F026F9236898074FF001016B
:102BA0004CBF5848584807F01DF923685A074FF0A2
:102BB00001014CBF5348544807F014F923681B0720
:102BC0004CBF50485048012107F00CF904214F48F0
:102BD00007F008F9112005F007FD002301460A223D
:102BE000354807F0A5FB102005F0FEFC0023014648
:102BF0000A22314807F09CFB122005F0F5FC002367
:102C000001460A222C4807F093FB132005F0ECFC48
:102C1000002301460A222848BDE8704007F088BB1F
:102C200007213B4807F0DEF85FE70621394807F047
:102C3000D9F85AE70721384807F0D4F855E70721B3
:102C4000364807F0CFF850E70821354807F0CAF8B2
:102C50004BE70B21334807F0C5F846E70E21324811
:102C600007F0C0F8112005F0BFFC01287FF44DAF3C
:102C70000A212E4807F0B6F81D4B1B68012B7FF484
:102C800049AF11212A4807F0ADF843E7FEF79CFD54
:102C9000216A0AF0ABF800283FF423AF162125483B
:102CA00007F0A0F80A21244807F09CF81DE70A2144
:102CB000214807F097F818E7CC87FF1F3093FF1FD4
:102CC000601701009894FF1F70170100E094FF1F28
:102CD0007C1701008C1701009C170100B017010040
:102CE000C01701006892FF1FF41701008423010040
:102CF000B494FF1FF093FF1F8C94FF1F681801000E
:102D00007018010078180100282501007C180100C6
:102D10003018010000180100081801001C180100FB
:102D2000241801001018010038180100481801008B
:102D300054180100D0170100E81701002DE9F04FE9
:102D4000934C944FE36F012B8DB000F04981032B1E
:102D500050D0914E914DA36F9148012B09BF296826
:102D6000296801F10041296005F044F83368002B1F
:102D700040F0CE808A4805F013F8E36F3860012BED
:102D8000064600F0D28087490AF030F878B98649C3
:102D900030460AF00DF850B9844A854B12680B9200
:102DA0000B9A1A6000232B600DB0BDE8F08FDFF89E
:102DB000FC817F4CD8F800300A930A9823687D4F35
:102DC000C01A09F0FFFD314609F054FE7A4909F0B6
:102DD00005FF794909F002FF396809F043FDD8F889
:102DE00000300993099B2360002338602B600DB0ED
:102DF000BDE8F08FDFF8C881704DD8F80000664E4E
:102E0000012300220F212B6004F020FC2B68012BF2
:102E1000336800F00381002B40F0A6810021D8F830
:102E20000000DFF8B891664D04F062FC33681FFAC9
:102E300080FBC9F800B0002B40F07B810021D8F85E
:102E40000000564DDFF878A104F0D8FBB4F88630C6
:102E500040F6E44101FB0BF1B1FBF0F0C01A00B207
:102E600009F0B4FD57498346D4F8880009F002FE02
:102E70000146584609F0B2FED9F800302860632BAD
:102E8000DFF858B100F3498100232B603368002B31
:102E90003FF461AF02214C4806F0A4FFD9F80020AE
:102EA000D8F8000040F6E443002103FB02F804F0E8
:102EB000A5FBB8FBF0F009F085FD8046B4F886006C
:102EC00009F084FD0146404609F0CAFC09F028F9E2
:102ED0004FF0020802460B46CDF800803B4807F051
:102EE0006FFA4146384806F07DFF286809F018F966
:102EF000CDF8008002460B46344807F061FA41469F
:102F0000334806F06FFF41462F4806F06BFF22E77B
:102F1000234804F045FF09F003F9022602460B4658
:102F200000962A4807F04CFA24E7244B1B68012B33
:102F300000F02681022B7FF435AF264909F056FFB9
:102F400030B92549304609F033FF002800F04781A9
:102F5000DFF85880164CD8F800300793079823689C
:102F6000144FC01A09F02EFD314609F083FD1249B5
:102F700009F034FE104909F031FE396809F072FC9D
:102F8000D8F800300693069B386023600AE700BF3C
:102F90003093FF1F7492FF1FD894FF1F6492FF1F8E
:102FA0000893FF1F0000FA430000FAC31CC3FF1F71
:102FB000A894FF1F8092FF1F00007A444C87FF1FD8
:102FC000AC94FF1F17B7D13884230100CC87FF1FB3
:102FD000C018010000C82F4800A08CC62893FF1F0E
:102FE0003D689849284609F0E3FE30B128469649E5
:102FF00009F0FCFE00287FF4FDAEDFF85882934D07
:10300000D8F80000924E022300220E212B6004F01B
:103010001DFB2B68012B33687FF4FDAE002B40F0C5
:1030200000810021D8F80000DFF86C92894D04F08F
:103030005FFB33681FFA80FBC9F800B0002B40F03B
:10304000D5800021D8F80000834D04F0D7FAB4F8F9
:10305000843040F6E44A0AFB0BFBBBFBF0F0C01ADD
:1030600000B209F0B3FC7D498346D4F88C0009F026
:1030700001FD0146584609F0B1FDD9F8003028603D
:103080000021D8F800000AFB03FA04F0B7FAB4F8FC
:103090008430BAFBF0F00FFA80FAC3EB0A03002B7E
:1030A000B4F8B620B8BF5B429342BCBF00232B608C
:1030B0003368002B3FF44FAE0221694806F092FEC0
:1030C000D9F80020D8F8000040F6E443002103FBC3
:1030D00002F804F093FAB4F88410B8FBF0F000B2F0
:1030E000411A604807F064F902215D4806F07AFE53
:1030F000286809F015F84FF0020802460B46CDF893
:103100000080584807F05CF90321574806F06AFE32
:103110004146534806F066FE1DE6DAF8000000213D
:1031200004F06CFADBF8003064389842FFF4ACAE7F
:10313000ACE60021286804F061FA40F6E44100237F
:103140000A2201FB0BF1B1FBF0F1464807F0F0F861
:103150000221434806F046FEB4F88610414807F0C5
:1031600027F9D9F800B069E63E4807F0D1F80C21FC
:103170003E4806F037FE0C213D4806F033FE4DE692
:103180003C4909F033FE58B93B49304609F010FE7E
:1031900030B93A4A3A4B12680592059A1A6001E62C
:1031A000DFF8D880364CD8F80030049304982368B0
:1031B000344FC01A09F006FC314609F05BFC324975
:1031C00009F00CFD304909F009FD396809F04AFBA6
:1031D000D8F800300393039B38602360E2E5274A68
:1031E000274B12680892089A1A60DBE500212868CC
:1031F00004F004FA40F6E44100230A2201FB0BF13B
:10320000B1FBF0F1174807F093F801211F4806F0D1
:10321000E9FDB4F88410134807F0CAF8D9F800B0F3
:103220000FE7104807F074F8E36F012B4FF00B0124
:103230000CBF1748174806F0D5FD0C210C4806F0C6
:10324000D1FDEEE600709446007094C64C87FF1FD7
:10325000D894FF1FAC94FF1F6492FF1F17B7D1389B
:1032600084230100CC87FF1FAC180100B0180100B7
:103270009C1801000000FA430000FAC31CC3FF1FA2
:10328000A894FF1F8092FF1F00007A445C17010082
:1032900084180100901801002893FF1F2DE9F047C2
:1032A000B24D2B6884B0002B7ED0B14CDFF8C882C1
:1032B000B04EE36FAE4D012B00F08F80D4F880301C
:1032C000AB4F012B00F0BC80D6F80090D7F858A087
:1032D0007D6DA94F05FB0AF54FF47A7000FB05F0F0
:1032E00009F074FBA5490546484609F0C3FB294689
:1032F00009F074FCA24909F0BDFB09F097FD6328B1
:10330000C8F800004BDD28469C4909F067FC64239F
:1033100030603B609B4B1B68002B3DD0E36F944DAE
:10332000012B00F0BB80032B00F00981022B00F081
:103330000C810221944806F055FD944B186808F062
:10334000EFFE022402460B460094914807F038F83D
:103350002146904806F046FD21468B4806F042FD86
:10336000D8F800108A4807F023F806218A4806F0AA
:1033700039FD3068814909F07DFB08F0D1FE0094E9
:1033800002460B46824807F01BF80321834806F0EB
:1033900029FD7F4806F0BCFF04B0BDE8F087002897
:1033A000BCBF00233B60B5E77D4E714C3368029390
:1033B000029A42F228339A4200F2BA8033680393A9
:1033C000039A42F210739A4274D8E36FDFF8A8812F
:1033D000684E674D012B7FF471AF7248FEF7C0FA5B
:1033E0007149D5F86890EF6E09F044FB09F044FD8F
:1033F0002A6F6B6FC9EB0202DB1B80B29A42C9EBEA
:10340000000040F3AD8003FB0000531C90FBF3F37E
:103410001F44A06D636DC8F8007000FB07F003FB4C
:1034200000F000EB8000400009F0D0FA5349504F03
:1034300009F0D4FBD4F880303060012B7FF444AF26
:103440005848FEF78DFA5849D7F86890FD6E09F094
:1034500011FB09F011FD3A6F7B6FD4F858A0C9EB4E
:1034600002025B1B80B29A42C9EB0000C6BF03FB9D
:1034700000000132584390FBF2F02844656D00FBD8
:103480000AF005FB00F000EB8000400009F09EFA16
:103490003A4909F0A3FB814630601AE7434B1B68A9
:1034A000012B4FF00A010CBF4148424806F09AFC3C
:1034B000EB6F38E73B48FEF753FA3B49A76EE66EE1
:1034C00009F0D8FA09F0D8FC226F636FD21B9B1B5E
:1034D00080B29A42A0EB07003CDD03FB0000531CC6
:1034E00090FBF3F39819A26DDFF88C80636DC8F838
:1034F000000002FB00F003FB00F000EB8000400046
:1035000009F064FA1D491B4E09F068FB0123306085
:1035100002211D482B6006F065FC1D4806F0F8FEF0
:103520005921254806F05EFC194806F0F1FEC0E678
:103530001C48626C94F84010FEF794F93EE71021A5
:103540001E4806F04FFCE36FF0E607211C4806F02A
:1035500049FCEEE603FB00F393FBF2F39819C2E794
:1035600003FB00F393FBF2F31F4452E76092FF1F4B
:103570003093FF1F8092FF1F3087FF1FE4388E3E7D
:103580000000C8423887FF1F842301007492FF1F88
:10359000CC87FF1FC0180100541901005C190100FD
:1035A0001CC3FF1FE094FF1F00007A444C87FF1FDD
:1035B000201901002C190100C4180100381901005C
:1035C0004C19010030B5112083B005F00DF8012829
:1035D00018D0122005F008F8012813D000210B2084
:1035E00004F0FCFF00210C2004F0F8FF002115205E
:1035F00004F0F4FF2649274B0120002208701A60CE
:1036000003B030BD0121152004F0E8FF224A234C0D
:10361000234B1268D4F8901001921B68019A1D4D3B
:103620000B4493424FF00201296005D901210C207F
:1036300004F0D4FF03B030BDD4F8980009F0C6F907
:10364000184B196809F0B4FB0028EFD101210B20B9
:1036500004F0C4FF94F8BC3003242C6043B10C4B3D
:1036600002221A7000210C2004F0B8FF03B030BD14
:10367000122004F0B9FF012808BF054B4FF01100DC
:1036800008BF1C7004F0B0FF0128EBD1E7E700BFD2
:103690009894FF1FD494FF1F1CC3FF1F3093FF1F7C
:1036A000DC94FF1F7492FF1FF0B5684E684D3468BC
:1036B0002B689C4287B039D014F0010155D014F02A
:1036C000020149D014F004013DD0E3070ED52B6868
:1036D000DF070BD45F4F3A68002A00F082805E4B10
:1036E0001B680193019B93426DD83468A0070DD5E8
:1036F0002B6899070AD4594F3A68002A4CD0564B88
:103700001B680393039B934238D8346862070DD536
:103710002B685B070BD4524F3A68002A7ED04E4B81
:103720001B680593059B934268D834680CB107B0B9
:10373000F0BD2146162004F0D1FD2146172004F0EB
:10374000CDFD07B0F0BD052004F0C8FD2B6834683E
:1037500003F0FB032B60B8E7172004F0BFFD2B68D4
:10376000346803F0FD032B60ACE7162004F0B6FDCF
:103770002B68346803F0FE032B60A0E7394B172059
:10378000D3F8941004F0AAFD2B68346843F00203C8
:1037900000222B603A60B9E7334806F0B9FD0C21EE
:1037A000324806F01FFB304806F0B2FDFF2117201B
:1037B00004F094FD284B2E4A196802910299126870
:1037C0000A443A609CE7274B1620D3F8941004F083
:1037D00085FD2B68346843F0010300222B603A60BA
:1037E00084E7FF21162004F079FD1B4B204A19685D
:1037F0000091009912680A443A6071E7194B05205C
:10380000D3F8941004F06AFD2B68346843F0040385
:1038100000222B603A60002C89D18AE7124806F01A
:1038200077FD0C21134806F0DDFA0F4806F070FD15
:10383000FF21052004F052FD074B0D4A1968049141
:10384000049912680A443A606AE700BFD494FF1FE3
:10385000F093FF1F6C94FF1F1CC3FF1F7094FF1F8A
:103860007494FF1F3093FF1FCC87FF1F6019010066
:103870006487FF1F701901002DE9F047544EDFF8EF
:103880007481DFF874913068524D00220F2103F0EB
:10389000DDFE0023012222214F48C8F80030C9F87C
:1038A000002006F09FFAD8F80030132B22DC40F6F7
:1038B000E44700213068B5F884A003F019FF002127
:1038C0000446306803F09AFEA4B2012107FB04F419
:1038D000B4FBF0F441485444A5F8844006F082FA61
:1038E000642004F0B7FED8F800300133132BC8F879
:1038F0000030DEDDB5F88430394A3A48A2FB0312C5
:103900009B1A02EB5303C3F30F131946A5F8843037
:1039100006F04EFD1D21344806F064FA02213348BA
:1039200006F060FA2F4806F0F3FC00231A460E2139
:103930003068C8F8003003F089FE022322212648AF
:10394000C9F8003006F04EFAD8F80030132B22DC0C
:1039500040F6E44700213068B5F8869003F0C8FED1
:1039600000210446306803F049FEA4B2012107FBA0
:1039700004F4B4FBF0F419484C44A5F8864006F072
:1039800031FA642004F066FED8F800300133132BBE
:10399000C8F80030DEDDB5F88630114A1148A2FBC8
:1039A00003129B1A02EB5303C3F30F131946A5F836
:1039B000863006F0FDFC1D210D4806F013FA0221A9
:1039C0000A4806F00FFA0748BDE8F04706F0A0BC29
:1039D000AC94FF1F3093FF1F80190100C419010030
:1039E00087611886CC87FF1FA4190100842301007A
:1039F000C81901009094FF1F4C87FF1FF8B5774B43
:103A0000774C784D1B68286D40F2513108222160B7
:103A1000E271002B00F0DD8008F0D8FF296A06462D
:103A200009F028F8704909F025F809F025FA80B264
:103A3000031263726D4A6E4B12681B68A96920728B
:103A40001512A37230461B12E3722273657309F0DC
:103A500011F8654909F00EF809F00EFA83B21A124E
:103A60005F496448A373E27303F012FC624B634A3C
:103A70001B6812885A49A272DFB207EB870603EB74
:103A80008305760045F3D71512121B122772267391
:103A900065730826002540F255375648E272637276
:103AA0002760E671A573E57303F0F2FB40F256332D
:103AB00053482360E671FDF7D1FE524908F0DAFF62
:103AC00009F0DAF920724E48FDF7C8FE4D4908F0BA
:103AD000D1FF09F0D1F94C4A4A49C0F307231068D5
:103AE000637209F07BF809F0A1F940FA06F2034687
:103AF0004348E272A372FDF7D3FE3B4908F0BAFFD8
:103B000009F0BAF920733E48FDF7CAFE364908F0BD
:103B1000B1FF09F0B1F93249A573C0F30723354865
:103B20006373E57303F0B4FB022004F093FD374B9D
:103B30002B49187893F801E09F78DA78207240F2E8
:103B40005A332C48E67125736573A573E57384F8C1
:103B500009E0A772E272236003F09AFB2C4B204924
:103B600018785D789A782072187993F803E05F7975
:103B70006572A2729D79DA79207340F25E331D4836
:103B800084F80BE0E2732360E6716773A57303F0BA
:103B90007FFB022004F05EFD1E4BE6711D785A7813
:103BA00093F802E0D8781F795E79257262729D7968
:103BB000DA79E0724FF45C7384F80AE02773667375
:103BC000A573E273236006490A48BDE8F84003F094
:103BD0005FBB08F0FBFE6969064621E76892FF1F9C
:103BE000C494FF1F3093FF1F00002041A494FF1FC7
:103BF0004C92FF1F74C1FF1F3087FF1F3487FF1FC8
:103C0000E094FF1F0000C8427492FF1F2C93FF1F17
:103C10002887FF1F5087FF1FF0B59C4C9C4D83B039
:103C200006F07AF823682860042B00F0AC82022B9F
:103C30004BD0082B00F09280072B40F051813328A5
:103C400001F0F28300F3AD80312801F000843228C6
:103C500040F0B08006F09CF8002840F33F818D488A
:103C60008D4E06F0E7FC08F0B1FE8C4908F002FF2B
:103C700061230122F06322602B601846A0F15203F9
:103C80001F2B01F2AF83DFE813F02E0BAD0BAD0B52
:103C9000AD0BAD0BAD0BAD0BAD0BAD0BAD0BAD0B64
:103CA000AD0BAD0BAD0BAD0BB203CB0C3905A705BE
:103CB0007304AD0BAD0BAD0B2604AD0BCE0CAD0BF1
:103CC000AD0BAD0BAD0BAD0B300BA0F13102422AA9
:103CD00070D8DFE812F0F006FC060A0717072A077B
:103CE00039076F006F006F006F006F006F006F008B
:103CF0006F006F006F006F006F006F006F006F004C
:103D00006F006F006F006F006F006F006F006F003B
:103D10006F006F006F006F006F006F006F006F002B
:103D20006F006F006F006F006F006F006F006F001B
:103D30006F006F006F006F006F00DD066F006F0097
:103D40006F006F006F006F006F006F006F006F00FB
:103D50006F006F006F006B006F00E306322800F009
:103D60002F83712822D0312824D106F011F80028A1
:103D700040F3CF854748484E06F05CFCC0B286F859
:103D80004000022894BF01460021726C444888BF5D
:103D900086F84010FDF766FD012369202360286046
:103DA0006CE7342801F02E83712803D1002373209F
:103DB00023602860002B08BF73280CBF012000205F
:103DC000002860D0334806F0A3FA0421354806F0F5
:103DD00009F8304806F09CFA1021334806F002F842
:103DE0002C4806F095FA1321304805F0FBFF304BC4
:103DF0002848196806F0DCFA264806F089FA1421EA
:103E00002C4805F0EFFF234806F082FA1E212A48CD
:103E100005F0E8FF1F4806F07BFA1521274805F05A
:103E2000E1FF1C4806F074FA1E21254805F0DAFF70
:103E3000184806F06DFA2021224805F0D3FF1548F6
:103E400006F066FA1921204805F0CCFF114806F06B
:103E50005FFA12211D4805F0C5FF0E4806F058FA1A
:103E60000F211B4805F0BEFF0A4806F051FA0D214C
:103E7000184805F0B7FF074806F04AFA164A00212D
:103E800001231160236003B0F0BD00BF8492FF1FC7
:103E90007092FF1FCC87FF1F3093FF1F6F12833A72
:103EA000E094FF1F00220100082201001C220100F3
:103EB0002087FF1F302201004822010068220100F4
:103EC00080220100A0220100C4220100E0220100A2
:103ED000F4220100042301003887FF1F23682868AB
:103EE000062B40F08D80A0F13102402A3FF662AFF0
:103EF00001A151F822F000BF1D490000494900000E
:103F0000754900009B490000C1490000DF490000DD
:103F10007D4A0000B53D0000B53D0000B53D000004
:103F2000B53D0000B53D0000B53D0000B53D0000C9
:103F3000B53D0000B53D0000B53D0000B53D0000B9
:103F4000B53D0000B53D0000B53D0000B53D0000A9
:103F5000B53D0000B53D0000B53D0000B53D000099
:103F6000B53D0000B53D0000B53D0000B53D000089
:103F7000B53D0000B53D0000B53D0000B53D000079
:103F8000B53D0000B53D0000B53D0000B53D000069
:103F9000B53D0000B53D0000B53D0000B53D000059
:103FA000B53D0000B53D0000B53D0000B53D000049
:103FB000B53D0000B53D0000B53D0000B53D000039
:103FC000B53D0000B53D0000B53D0000B53D000029
:103FD000B53D0000B53D0000B53D0000B53D000019
:103FE000B53D0000B53D0000B53D0000B53D000009
:103FF000B53D0000B53D0000AD3D000023682868D8
:10400000052B15D1332801F0498240F3478135282B
:1040100001F06B82C1F2538271287FF4CBAEDC4A8F
:1040200000237320136023602860C3E62368286898
:10403000032B40F0A480A0F13002422A3FF6BAAE32
:1040400001A151F822F000BF55410000F1510000DC
:104050009F500000C7500000E95000000B510000C5
:1040600019520000415200005F52000083520000CC
:10407000B53D0000B53D0000B53D0000B53D000078
:10408000B53D0000B53D0000B53D0000B53D000068
:10409000B53D0000B53D0000B53D0000B53D000058
:1040A000B53D0000B53D0000B53D0000B53D000048
:1040B000B53D0000B53D0000B53D0000B53D000038
:1040C000B53D0000B53D0000B53D0000B53D000028
:1040D000B53D0000B53D0000B53D0000B53D000018
:1040E000B53D0000B53D0000B53D0000B53D000008
:1040F000B53D0000B53D0000B53D0000B53D0000F8
:10410000B53D0000B53D0000B53D00003351000055
:104110004B4C0000AB520000C9520000935100000C
:10412000B1510000014C0000254C0000B53D0000DD
:10413000B53D0000B53D0000B53D0000B53D0000B7
:10414000B53D0000B53D0000B53D000051510000F7
:104150005D51000005F01CFE002841F34C818D48A4
:104160008D4E06F067FA01270346014662228B480E
:10417000736527602A60FDF773FB23682868012BAD
:104180007FF418AE7AE5A0F13102402A3FF612AE74
:1041900001A151F822F000BF634B00007B4B0000EF
:1041A0007F4B0000A54B0000E54B0000A94B000031
:1041B000BB4B0000BF4B0000C34B0000B53D0000EF
:1041C000B53D0000B53D0000B53D0000B53D000027
:1041D000B53D0000B53D0000B53D0000B53D000017
:1041E000B53D0000B53D0000B53D0000B53D000007
:1041F000B53D0000B53D0000B53D0000B53D0000F7
:10420000B53D0000B53D0000B53D0000B53D0000E6
:10421000B53D0000B53D0000B53D0000B53D0000D6
:10422000B53D0000B53D0000B53D0000B53D0000C6
:10423000B53D0000B53D0000B53D0000B53D0000B6
:10424000B53D0000B53D0000B53D0000B53D0000A6
:10425000B53D0000B53D0000B53D0000B53D000096
:10426000B53D0000B53D0000B53D0000B53D000086
:10427000B53D0000B53D0000B53D0000B53D000076
:10428000B53D0000B53D0000B53D0000B53D000066
:10429000B53D0000B53D0000AD3D0000312801F006
:1042A000EC8032287FF486AD05F072FD00287FF7A0
:1042B000BDAE3848384E06F0BDF901226B23C6F872
:1042C000980022602B6001E005F026FD05F060FDFE
:1042D0000028F9D12F4806F01BF82E4806F018F8F0
:1042E0002C4806F015F82B4806F012F8294806F07D
:1042F0000FF821212A4805F075FD264806F008F838
:104300001521284805F06EFDD6F89010214806F0DA
:104310004FF80221244805F065FD1E4805F0F8FF1E
:104320001E21224805F05EFDD6F89810194806F0C7
:104330003FF803211E4805F055FD164805F0E8FF3B
:104340001E211C4805F04EFDD6F89410114806F0C9
:104350002FF8104805F0DCFF1D21174805F042FD3D
:10436000D6F8A0100B4806F023F80A4805F0D0FF55
:104370001E21124805F036FDD6F8A410054806F0B7
:1043800017F8044805F0C4FF052323607BE500BF50
:104390008894FF1FCC87FF1F3093FF1FE094FF1FFF
:1043A000781C01009C1C0100881B0100B41C01004A
:1043B000AC180100D41C0100F41C0100141D010004
:1043C00005F0E6FC002840F3A082B248B24E06F0A9
:1043D00031F908F0FBFAB14908F04CFB03460246FC
:1043E00096F84010AE487364D4E405F095FC05F0EF
:1043F000CFFC05460028F8D1A648A74E05F088FF57
:10440000A44805F085FFA34805F082FFA14805F008
:104410007FFFA04805F07CFF1F21A24805F0E2FCC9
:104420009C4805F075FF1C219F4805F0DBFC706A75
:104430009E4908F01FFB07F073FE009502460B46ED
:10444000944805F0BDFF0221994805F0CBFC914846
:1044500005F05EFF2321974805F0C4FCF06B9349FB
:1044600008F008FB07F05CFE009502460B46894801
:1044700005F0A6FF02218E4805F0B4FC854805F042
:1044800047FF19218C4805F0ADFCB06B07F048FEE2
:1044900002250B46024600957E4805F091FF29460D
:1044A000864805F09FFC7B4805F032FF19218448BF
:1044B00005F098FCB6F8B410764805F079FF0321B2
:1044C000804805F08FFC734805F022FF0723236026
:1044D000D9E405F021FC05F05BFC05460028F8D185
:1044E0006C486D4E05F014FF6A4805F011FF6948ED
:1044F00005F00EFF674805F00BFF664805F008FF62
:104500001521714805F06EFC624805F001FF182185
:104510006E4805F067FC2B460A2296F840105D486D
:1045200005F006FF5B4805F0F3FE2821684805F01A
:1045300059FC706C5D4908F09DFA07F0F1FD00959B
:104540000B460246534805F03BFF0221584805F050
:1045500049FC504805F0DCFE13215E4805F042FCA2
:104560004C4805F0D5FE082323608CE405F0D4FB0D
:1045700005F00EFC05460028F8D14648464E05F0E9
:10458000C7FE444805F0C4FE424805F0C1FE41485C
:1045900005F0BEFE3F4805F0BBFE11214E4805F078
:1045A00021FC3C4805F0B4FE28214C4805F01AFCDB
:1045B00070693E4908F05EFA07F0B2FD00950246C8
:1045C0000B46344805F0FCFE0221394805F00AFC90
:1045D000304805F09DFE1621414805F003FCF069C6
:1045E000324908F047FA07F09BFD00950B4602465A
:1045F000284805F0E5FE02212D4805F0F3FB25488B
:1046000005F086FED6F8AC30002B32DD1D21354892
:1046100005F0E8FBF06D08F0D9F9334908F02AFA03
:1046200007F07EFD022502460B460095194805F06D
:10463000C7FE01212D4805F0D5FB164805F068FEA0
:104640001F212B4805F0CEFB306E08F0BFF926493C
:1046500008F010FA07F064FD009502460B460D487D
:1046600005F0AEFE0121214805F0BCFB094805F02C
:104670004FFE11211F4805F0B5FBD6F8AC30052BD5
:1046800000F26086DFE813F095069A065A06A9063E
:10469000A4069F06CC87FF1F3093FF1F6F12833A3B
:1046A000E094FF1FD41B0100F41B010000007A44BA
:1046B000601A0100141C0100381C0100541C010088
:1046C000581C0100741C0100C8220100181A0100C6
:1046D000341A0100641A01006C220100781A0100EA
:1046E000A41A0100BC1A0100CDCCCC3D581F01001A
:1046F000DC1A0100FC1A010005F00EFB05F048FB76
:104700000028F9D1BF48C04E05F002FEBD4805F0B3
:10471000FFFDBC4805F0FCFDBA4805F0F9FDB948BD
:1047200005F0F6FD1F21B94805F05CFBB54805F022
:10473000EFFD1E21B64805F055FBB24805F0E8FD37
:104740001A21B44805F04EFBF36F022B00F03787B7
:10475000032B00F02B87012B00F03A870921AE488C
:1047600005F040FBA74805F0D3FD1421AB48A64F48
:1047700005F038FBB16FA34805F01AFEA14805F01B
:10478000C7FD1C21A64805F02DFBD6F880109D48DA
:1047900005F00EFE9B4805F0BBFD1C21A14805F06D
:1047A00021FBD6F8A810974805F002FE954805F0C1
:1047B000AFFDF56F25F00205012D00F0B186132144
:1047C000994805F00FFB8F4805F0A2FD02232360F6
:1047D000FFF759BB05F0A0FA05F0DAFA0028F9D185
:1047E000884805F095FD874805F092FD854805F05D
:1047F0008FFD844805F08CFD824805F089FD13216A
:104800008A4805F0EFFA7F4805F082FD0D218848BF
:1048100005F0E8FA7B4805F07BFD0F21854805F09F
:10482000E1FA854B7748196805F0C2FD754805F037
:104830006FFD1321814805F0D5FA814B7148196845
:1048400005F0B6FD6F4805F063FD12217D4805F0C7
:10485000C9FA7D4B6B48196805F0AAFD694805F057
:1048600057FD1121794805F0BDFA794B6548196863
:1048700005F09EFD634805F04BFD0E21754805F0DF
:10488000B1FA614B5F48D3F89C1005F091FD5D488B
:1048900005F03EFD1921704805F0A4FA6F4B594808
:1048A000196805F085FD574805F032FD11216C4867
:1048B00005F098FA6B4B5348196805F079FD51489B
:1048C00005F026FD1021684805F08CFA674B4D482D
:1048D000196805F06DFD4B4805F01AFD1C21644870
:1048E00005F080FA634B4748196805F061FD4548BB
:1048F00005F00EFD13214C4805F074FA414805F00F
:1049000007FD04232360FFF7BEBA23682868FFF77A
:1049100093B93D4E96F84000FFF733BA05F038FAE8
:1049200000287FF76BAB3748374E05F083FE08F061
:104930004DF8514908F052F9652301227061226057
:104940002B601846FFF79AB905F022FA00287FF786
:1049500055AB2C482C4E05F06DFE08F037F8464953
:1049600008F03CF965230122F06122602B601846B3
:10497000FFF784B905F00CFA00287FF73FAB214818
:10498000214E05F057FE00EB800043000122652018
:10499000F36522602860FFF771B905F0F9F9002886
:1049A0007FF72CAB1748184E05F044FE00EB800053
:1049B000430001226520336622602860FFF75EB95C
:1049C000114AD2F8AC300133052BC8BF0023C2F81E
:1049D000AC300123652023602860FFF74FB905F054
:1049E000D7F900287FF70AAB0648074E05F022FEEC
:1049F00065230122C6F8B00022602B601846FFF73D
:104A00003DB900BFCC87FF1F3093FF1F181E010068
:104A1000381E0100581E0100D01E0100DC1E0100DE
:104A2000F41E0100141F0100641A0100341D01006E
:104A3000481D0100581D01006894FF1F681D0100FA
:104A4000D894FF1F7C1D0100BC94FF1F901D010026
:104A5000C094FF1FA41D0100B41D01008C94FF1F12
:104A6000D01D01008894FF1FE41D01006C92FF1F00
:104A7000F81D01005887FF1F00007A447A4B93F815
:104A8000BC20002A00F03F85002283F8BC20A0E76C
:104A9000FEF7F2FE23682868FFF7CBB8724AD36F9F
:104AA0000133032BC8BF0023D36701236320236096
:104AB0002860FFF7E3B86C4EB36FB3FA83F35B097A
:104AC00001226320B36722602860FFF7D7B8664EE3
:104AD000D6F88030B3FA83F35B0901226320C6F86D
:104AE000803022602860FFF7C9B80123236005F0F9
:104AF0004FF90028D9DD5D485B4E05F09BFDC6F8F7
:104B0000A800D2E70123236005F042F9002807DD61
:104B10005648554E05F08EFD07F058FFC6F88C003C
:104B2000632028602368FFF787B80123236005F01E
:104B30002FF90028F4DD4D484B4E05F07BFD07F0C2
:104B400045FFC6F88800EBE70123236005F020F954
:104B50000028E5DD4548444E05F06CFDA6F8B6009A
:104B6000DEE7434A1368B3FA83F35B09012164204B
:104B7000136021602860FFF781B83E4AF2E73E4AA1
:104B80003E4F1368002B0CBF012300234FF00100A0
:104B90001360206040F0F484034664222A6064209D
:104BA000FFF747B8364ADDE7012336482360FCF7B4
:104BB000EFFC354A23681060EFE7344AD2E7344A05
:104BC000D0E70123236005F0E3F8002800F3A08478
:104BD000304B1A68042AC4BF02221A6064232B6077
:104BE0002368DCE7204ED6F89C30B3FA83F35B09E8
:104BF00001226420C6F89C3022602860FFF73EB88E
:104C000005F0C6F800280DDD1848174E05F012FD16
:104C100007F0DCFE204907F0E1FF01226223306249
:104C200022602B6005F0B4F800280EDD0F480E4E10
:104C300005F000FD07F0CAFE174907F0CFFF01227B
:104C40006223C6F8B80022602B6005F0A1F80028A6
:104C500040F3D1830548044E05F0ECFC01226223A9
:104C6000B06622602B601BE03093FF1FCC87FF1FD4
:104C70006894FF1FD894FF1FBC94FF1F8492FF1FEE
:104C8000C094FF1FE094FF1F8C94FF1F8894FF1FA8
:104C90006C92FF1F5887FF1F00007A4405F03CF814
:104CA00005F076F805460028F8D1C24805F030FB3B
:104CB000C04805F02DFBBF4805F02AFBBD4805F0B4
:104CC00027FBBC4805F024FB1521BB4805F08AF8FA
:104CD000B84805F01DFB1421B84805F083F8B54825
:104CE00005F016FB1B21B64805F07CF8B14805F02D
:104CF0000FFB1321B34805F075F8AE4805F008FB2B
:104D0000AC4805F005FBAB4805F002FB2021AE489E
:104D100005F068F8F068AD4907F0ACFE07F000FA5E
:104D2000009502460B46A34805F04AFB0221A8481D
:104D300005F058F80221A74805F054F89D4805F001
:104D4000E7FA2121A44805F04DF830699F4907F0A2
:104D500091FE07F0E5F9009502460B46954805F0EF
:104D60002FFB02219A4805F03DF80221994805F0F1
:104D700039F8904805F0CCFA1F21984805F032F830
:104D8000B06A07F0CDF9022702460B460097894822
:104D900005F016FB0121924805F024F839468D48AC
:104DA00005F020F8834805F0B3FA20218D4805F07E
:104DB00019F8F06A07F0B4F9009702460B467D48EF
:104DC00005F0FEFA0121864805F00CF839468148C5
:104DD00005F008F8774805F09BFA2321824805F092
:104DE00001F8B06C794907F045FE07F099F9009594
:104DF00002460B466F4805F0E3FA3946744804F062
:104E0000F1FF3946734804F0EDFF6A4805F080FA77
:104E10001F21764804F0E6FFF06C6C4907F02AFE8B
:104E200007F07EF9009502460B46624805F0C8FA85
:104E30003946674804F0D6FF3946664804F0D2FF89
:104E40005C4805F065FA1921694804F0CBFFB16DA3
:104E5000584805F0ADFA3946664804F0C3FF3946B4
:104E60005C4804F0BFFF534805F052FA182162482D
:104E700004F0B8FF706E07F0A9FD604907F0FAFD75
:104E800007F04EF9009702460B464A4805F098FA9B
:104E900001215B4804F0A6FF39464E4804F0A2FF0A
:104EA000444805F035FA2B21564804F09BFFB069C1
:104EB000464907F0DFFD07F033F9009502460B463F
:104EC0003C4805F07DFA3946414804F08BFF3946ED
:104ED000404804F087FF374805F01AFA1F214A4876
:104EE00004F080FF716D334805F062FA39463948A5
:104EF00004F078FF2F4805F00BFA2021434804F016
:104F000071FF316D2B4805F053FA3946314804F0F2
:104F100069FF284805F0FCF910213D4804F062FFC4
:104F2000B16E244805F044FA3946294804F05AFF86
:104F30003946284804F056FF1E4805F0E9F91321C8
:104F4000344804F04FFFF16E1A4805F031FA0121A0
:104F5000314804F047FF39461E4804F043FF154826
:104F600005F0D6F910212D4804F03CFF316F1148AF
:104F700005F01EFA3946164804F034FF3946154844
:104F800004F030FF0B4805F0C3F91421244804F065
:104F900029FF716F074805F00BFA01211E4804F044
:104FA00021FF39460B4804F01DFF024805F0B0F917
:104FB000162137E0CC87FF1FA01F0100B81F01009A
:104FC000D01F0100641A0100EC1F010000007A44A8
:104FD000601A010084230100102001003420010028
:104FE000D015010054200100782001009C20010010
:104FF000BC200100D8200100DC200100CDCCCC3D3C
:10500000581F0100F8200100242101004421010063
:10501000682101007C210100902101009421010000
:10502000A8210100BA4804F0DDFE306AB94907F052
:1050300021FD07F075F8009502460B46B64805F0CD
:10504000BFF93946B54804F0CDFE3946B44804F0FE
:10505000C9FEB14805F05CF92421B24804F0C2FE53
:10506000D6F8B800AB4907F005FD07F059F80095F0
:105070000B460246A84805F0A3F93946A74804F0B4
:10508000B1FE3946A64804F0ADFEA34805F040F94C
:10509000A14805F03DF903232360FEF7F4BE04F0B8
:1050A00077FE002840F3A7819B489F4E05F0C2FA87
:1050B00007F08CFC974907F091FD012262233061D3
:1050C00022602B60ECE504F063FE002840F393813E
:1050D0009148954E05F0AEFA07F078FC0122622364
:1050E000B06222602B60DBE504F052FE002840F342
:1050F000828189488C4E05F09DFA07F067FC0122F9
:105100006223F06222602B60CAE504F041FE0028B1
:1051100040F371818048844E05F08CFA07F056FC0C
:105120007C4907F05BFD01226223B06422602B60A2
:10513000B6E504F02DFE002840F35D8176487A4EF6
:1051400005F078FA01226223306522602B60A7E522
:105150000022732322602B60FEF734BE734B70482D
:10516000714E002202211A6004F03CFE6A4805F0EC
:10517000CFF80B216E4804F035FE0221684804F098
:1051800031FE654805F0C4F80122622322602B60DD
:1051900086E504F0FDFD002840F32D815E48624E57
:1051A00005F048FA01226223706722602B6077E5E0
:1051B000FCF7B6FF02215A485B4E04F013FE564836
:1051C00005F0A6F80221564804F00CFE524805F0FE
:1051D0009FF80221524804F005FE4F4805F098F868
:1051E0001721544804F0FEFD4B4805F091F8C4E740
:1051F00004F0CEFD002840F3FE8047484A4E05F0FB
:1052000019FA07F0E3FB434907F0E8FC01226223A7
:10521000F06022602B6043E504F0BAFD002840F303
:10522000EA803D48404E05F005FA07F0CFFB3949CA
:1052300007F0D4FC01226223F06422602B602FE58A
:1052400004F0A6FD002840F3D6803348364E05F022
:10525000F1F901226223B06522602B6020E504F0A1
:1052600097FD002840F3C7802B482F4E05F0E2F948
:1052700000EB8000430001216222736621602A60F6
:105280000EE504F085FD002840F3B5802248264E47
:1052900005F0D0F907F09AFB1E4907F09FFC0122A8
:1052A0006223B06122602B60FAE404F071FD0028F3
:1052B00040F3A18018481C4E05F0BCF9012262237E
:1052C000F06622602B60EBE404F062FD002840F3FE
:1052D00092801148144E05F0ADF901226223306727
:1052E00022602B60DCE404F047F8C02200210E4865
:1052F00002F0A8FE2868104AA0F1730001210023E3
:10530000B0FA80F0400911602360FEF759BD00BF7C
:10531000C021010000007A44CC87FF1F601A010001
:1053200084230100D82101003093FF1F6092FF1FEA
:105330000C1A0100F41901003887FF1F0C21BB482B
:1053400004F050FDBA48BB4D04F0E2FFD6F8AC3093
:10535000002B12DD1821B84804F044FDD5F8B01038
:10536000B34805F025F80221B44804F03BFDB048ED
:1053700004F0CEFFAE4804F0CBFF1B21B04804F090
:1053800031FD96F8BC30012B15BF12211421AD4818
:10539000AD4804F027FDA64804F0BAFF1321AB483E
:1053A00004F020FDA24804F0B3FF06232360FEF7BB
:1053B0006ABD0D21A64804F015FDC3E70C21A548E0
:1053C00004F010FDBEE70B21A34804F00BFDB9E784
:1053D0000D21A24804F006FDB4E70D21A04804F019
:1053E00001FDAFE72368002B08BF73280CBF012025
:1053F0000020FEF7E5BC23682868012B7EF4DAACB8
:10540000FEF73CBC04F0C4FC00287EF767AD88487A
:10541000884E05F00FF961230122A6F8B40022603E
:105420002B601846FEF72ABC04F0B2FC00287EF779
:1054300055AD7F487F4E05F0FDF807F0C7FA6123B0
:105440000122B06322602B601846FEF717BC04F0FF
:105450009FFC00287EF742AD7548764E05F0EAF8CD
:1054600007F0B4FA7F4907F005FB6123012270625F
:1054700022602B601846FEF701BC04F089FC00286E
:105480007EF7D4AD6A486B4E05F0D4F801226B2349
:10549000C6F8900022602B60FEF718BF04F078FC7D
:1054A00000287EF7C3AD6248624E05F0C3F80122C2
:1054B0006B23C6F8940022602B60FEF707BF04F050
:1054C00067FC00287EF7B2AD59485A4E05F0B2F895
:1054D000654BC6F8A00002221A60FDF76DF90122A3
:1054E0006B2322602B60FEF7F1BE04F051FC002814
:1054F0007EF79CAD4E484F4E05F09CF85A4BC6F8CF
:10550000A4000322E8E7012283F8BC20FFF761BA78
:10551000474805F08FF8554B02461860FFF75ABB15
:105520001C21534804F05EFCD7F88C00514907F069
:10553000A1FA06F0F5FD009502460B463C4804F042
:105540003FFF05214C4804F04DFC394804F0E0FED3
:10555000FD6F012D45D0032D7FF431A91C21474853
:1055600004F040FCB6F8B610314804F021FF0321E6
:10557000434804F037FC2E4804F0CAFEFFF71FB979
:10558000404B002631460B201E6003F027F83146C1
:105590000C2003F023F83146142003F01FF83146A5
:1055A000152003F01BF83B68FFF7F7BA20213648B7
:1055B00004F018FC1E4804F0ABFEFFF7D6B8172124
:1055C000324804F00FFC1A4804F0A2FEFFF7CDB8F1
:1055D0001E212F4804F006FC154804F099FEFFF741
:1055E000C4B81D212B4804F0FDFBD7F888002149E1
:1055F00007F040FA06F094FD00950B4602460C4871
:1056000004F0DEFE05211C4804F0ECFB084804F021
:105610007FFEFB6F23F00203012B9FD0FFF7CFB873
:10562000044EFFF73DBB034EFEF750BE301B01009A
:10563000CC87FF1F3093FF1F6C1B0100881B0100EC
:105640008C1B0100A81B0100BC1B0100641A010097
:10565000101B0100201B0100601B0100501B0100FA
:10566000401B01006F12833A8894FF1F5887FF1F69
:10567000341F0100CDCCCC3D541F01007C1F010024
:105680009C1F0100D494FF1F941E0100B81E01004E
:10569000741E01005C1F010038B5164C164A2368C1
:1056A000101D12F8011F904241EA0323F9D1236033
:1056B000124C03F100432360114BDB6F022B11D01E
:1056C000104B1B68012B00D038BD0F4804F020FEA2
:1056D00021680D4804F06CFE03210C48BDE83840F9
:1056E00004F080BB20680A4D07F070F92860FDF7D0
:1056F00025FBE5E74492FF1F7F94FF1FA094FF1F47
:105700003093FF1F6894FF1FCC87FF1F14230100F5
:105710006492FF1F30B53F4C3F4883B0214601F0F3
:10572000AFFC236840F2C232934258D06FF4C0619C
:105730005A18B2F5FF7F4CD903F100436FF4C062F1
:105740001344B3F5FF7F3FD9344B1B68012B01D0C5
:1057500003B030BD324B1B68012BF9D1314B3248BD
:105760001B6801930A220023019904F0E1FD2268DD
:10577000284B002ADB7945DB2C492D4808F058F9E5
:105780002B4808F07DF90146294804F02BFB2568D9
:10579000204B15F0804526D1DB798BB16319254963
:1057A0001A7A234808F044F9214808F069F90146BB
:1057B0001F4804F017FB0135E379EDB2AB42EDD899
:1057C000194804F0A5FDC3E712491B48FBF7FEFE8C
:1057D000BAE710491848FBF7F9FE2368ACE7FFF772
:1057E0005BFF2368A2E7154D114C0FCD0FC495E860
:1057F000030044F8040B204620F81419152104F086
:10580000F1FADDE70E490A4822F0604208F010F98B
:10581000B6E700BF7894FF1F74C1FF1F3887FF1FD2
:105820006894FF1F1CC3FF1FCC87FF1F402301008C
:105830008892FF1F6C230100E094FF1F5423010096
:105840001823010008B5274804F062FD0721264807
:1058500004F0C8FA112002F0C7FE0621F8B123486F
:1058600004F0C0FA122002F0BFFE062100B3204867
:1058700004F0B8FA122002F0B7FE062108B31D4862
:1058800004F0B0FA132002F0AFFE062110BB1A4854
:1058900004F0A8FA1348BDE8084004F039BD1748E1
:1058A00004F0A0FA122002F09FFE06210028DED1AB
:1058B000134804F097FA122002F096FE0621002801
:1058C000DDD1104804F08EFA132002F08DFE06217F
:1058D0000028DCD00C4804F085FA0248BDE80840F6
:1058E00004F016BDCC87FF1F782301008023010040
:1058F00090230100A0230100B823010088230100A8
:1059000098230100A8230100B023010010B5254C05
:105910002368042B27DC01210B2002F05FFE01210C
:105920000C2002F05BFE0121142002F057FE012141
:10593000152002F053FEFF21162002F0CFFCFF21BC
:10594000172002F0CBFCFF21052002F0C7FCFF214D
:10595000062002F0C3FC236801330A2B2360C4BF76
:105960000023236010BD00210B2002F037FE002130
:105970000C2002F033FE0021142002F02FFE002143
:10598000152002F02BFE0021162002F0A7FC0021BA
:10599000172002F0A3FC0021052002F09FFC00214B
:1059A000D6E700BFB894FF1F10B5092182B0974811
:1059B00003F02EF9222003F0D3F8954B1B78052B2A
:1059C0000BD8DFE813F00A010F01140119011E01C1
:1059D000060007218F4803F01BF9222003F0C0F8CE
:1059E000FF2003F0BDF8FF2003F0BAF88A4CFF2037
:1059F00003F0B6F80821894803F00AF921688848BD
:105A000004F0D6FCFF2003F0ABF8FF2003F0A8F869
:105A1000FF2003F0A5F80921824803F0F9F8216876
:105A20007F4804F0C5FCFF2003F09AF8FF2003F044
:105A300097F8FF2003F094F80C217B4803F0E8F876
:105A40007A4B1C680021204607F0D0F9002800F0AE
:105A5000C1802046764907F0C1F806F061FB0024BA
:105A600002460B4600946E4804F0AAFCFF2003F0A7
:105A700077F8FF2003F074F8FF2003F071F8092194
:105A80006C4803F0C5F86C48FBF70AFF06F048FBCA
:105A9000009402460B46624804F092FCFF2003F09B
:105AA0005FF8FF2003F05CF8FF2003F059F80C21A9
:105AB000624803F0ADF86048FBF750FF06F030FB9A
:105AC000009402460B46564804F07AFCFF2003F08F
:105AD00047F8FF2003F044F8FF2003F041F80D21C0
