:1000000000800020BD010000098A0000C1890000B5
:10001000C1890000C1890000C1890000C1890000B8
:10002000C1890000C1890000C1890000098A00005F
:10003000098A0000C189000021800000258100009C
:10004000098A0000098A0000098A0000098A000064
:10005000098A0000098A0000098A0000098A000054
:10006000098A0000098A0000098A0000098A000044
:10007000098A0000098A0000098A0000098A000034
:10008000098A0000098A0000098A0000098A000024
:10009000098A0000098A0000098A0000098A000014
:1000A000098A0000098A0000098A0000098A000004
:1000B000098A00000D760000197600001D76000008
:1000C000297600002D76000031760000098A0000B4
:1000D000098A0000098A0000098A0000098A0000D4
:1000E000098A0000098A0000098A0000098A0000C4
:1000F000098A00009DAC0000098A0000FD960000FE
:10010000098A0000159A0000098A0000098A000087
:10011000098A0000098A0000098A0000098A000093
:10012000098A0000098A0000098A0000098A000083
:10013000098A0000098A0000098A0000098A000073
:10014000098A0000098A0000098A0000098A000063
:10015000098A0000098A0000098A0000098A000053
:10016000098A0000A59C0000098A0000098A000095
:10017000098A0000098A0000098A0000098A000033
:10018000098A0000098A0000098A0000098A000023
:10019000098A0000098A0000098A0000098A000013
:1001A000098A0000098A0000098A0000098A000003
:1001B000098A0000098A0000098A0000564B4CF2A7
:1001C000205210B51A804DF628121A8000BF00BFC9
:1001D00008F01EFC514B4FF010621A60504A9A60B2
:1001E000504ADA60504A136813F4807304D14F49BF
:1001F0000B604FF4A85313604D4B1A78110703D5C9
:100200001A7842F008021A704A4B4B492A221A7097
:100210004A4A4B4B8B4204D252F8040F43F8040B6A
:10022000F8E7484B484900228B4202D243F8042B9E
:10023000FAE74649464A002352F8230041F82300D2
:1002400001336F2BF8D1434B434A802103F8011B44
:100250009342FBD1414B3D4A1A60414B8A221A70AE
:10026000A3F5805324225A70A0221A709A7992071B
:10027000FCD59A79D406FCD43A4A937903F00C035E
:10028000082B384BF9D103221A7140225A719A79FE
:100290009006FCD5334A9179324B4906FBD5324A58
:1002A000324911600221516020221A709A7902F0BD
:1002B0000C020C2AFAD12E4B2E4A1A602E4B2F4AD2
:1002C0001A6000225A60072243F8042C2C4AC3F813
:1002D0000C2D62B608F07CFE144B1B68DA0705D5BE
:1002E000284808F059FC284B284A1A60284B1B78EC
:1002F0005B0609D5244C254B22689A4204D121483B
:1003000008F04AFC002323600CF0C8FF08F086FBCD
:1003100008F0B4FAFEE700BF0E200540308004402C
:10032000823F04000100002B10D0034014D0034092
:1003300002D0074000E007402892FF1F342F010041
:100340002087FF1F2892FF1F10C6FF1F0082FF1F7C
:100350000000000000E400E05FE400E008ED00E0E1
:100360000050064000400640448004400000030165
:1003700004800440C010050014E000E0FF76010096
:100380000000202079C1C85C1CE00340A5C3945A3A
:1003900000F00740FFFFFFFFFFFFFFFFFFFFFFFF32
:1003A000FFFFFFFFFFFFFFFFFFFFFFFFFFFFFFFF5D
:1003B000FFFFFFFFFFFFFFFFFFFFFFFFFFFFFFFF4D
:1003C000FFFFFFFFFFFFFFFFFFFFFFFFFFFFFFFF3D
:1003D000FFFFFFFFFFFFFFFFFFFFFFFFFFFFFFFF2D
:1003E000FFFFFFFFFFFFFFFFFFFFFFFFFFFFFFFF1D
:1003F000FFFFFFFFFFFFFFFFFFFFFFFFFFFFFFFF0D
:10040000FFFFFFFFFFFFFFFFFFFFFFFFDEF9FFFF23
:1004100010B5054C237833B9044B13B10448AFF33E
:1004200000800123237010BD2892FF1F00000000F0
:10043000302F0100084B10B51BB108490848AFF335
:1004400000800848036803B910BD074B002BFBD0A0
:10045000BDE81040184700BF000000002C92FF1FAD
:10046000302F01002892FF1F00000000F0B400F1BF
:100470001C06144F00243146031F00F13C0243F8D0
:10048000044FB34241F8047F4FF0000542F8044F97
:10049000F5D100230C4A0D49056645668566C5669B
:1004A000056745678567C0F88850C267C0F8842033
:1004B000C0F8801080F8903080F8913080F8A83033
:1004C000F0BC70470000A040000048430000C8C2D4
:1004D0002DE9F04190F8A84084B0202364008DF805
:1004E0000530E4B2042380468DF804408DF80630D0
:1004F0000327204609F02AFA02210DF1050009F030
:100500002FFA8DF8044006F0FBF930B3092140487A
:100510000AF05EFA0023102221463E4807F0C0FE92
:1005200001213D480AF054FA002310229DF80510DD
:10053000384807F0B5FE012137480AF049FA002390
:1005400010229DF80610334807F0AAFE0121324818
:100550000AF03EFA2F4807F093FE02208DF804407F
:1005600008F0E8FC06F0CCF900284CD102AE0024DB
:1005700009F00CFA70B3072C1FD101E009F016FA4C
:1005800009F004FA0028F9D106F0BAF910B12148AF
:1005900007F076FE9DF80B009DF80C109DF80D20DD
:1005A0009DF80E30C8F89400C8F89810C8F89C2040
:1005B000C8F8A03004B0BDE8F08109F0F7F90546AD
:1005C00006F8010B06F09CF970B9013409F0DEF968
:1005D0000028D0D1072CD3D006F092F978B9013F8A
:1005E000D8D09DF8044084E7E9B2002310220948DE
:1005F00007F056FE012108480AF0EAF9E5E7054848
:1006000007F03EFEEBE7072104480AF0E1F9ADE709
:1006100058140100C887FF1F5C1B0100641401000F
:1006200090F89800704700BF90F89400704700BFA2
:1006300090F89C00704700BF90F8A000704700BF82
:10064000082994BF50F82100002070472DE9F0419F
:100650000B4E8046041F00F11C0754F8045F31461E
:1006600028460CF091FD30B1D8F88C1028460CF0DB
:10067000A9FD00B12E46BC42EFD13046BDE8F08165
:10068000000020412DE9F041D0F88C704FF00008B7
:10069000041F00F11C0654F8045F394628460CF08C
:1006A00091FD084948B128460CF06EFD414620B145
:1006B00028460CF087FD00B1A846B442EBD1404675
:1006C000BDE8F081000070422DE9F047D0F88C7051
:1006D00082464FF00009041F00F11C064FF000088D
:1006E00054F8045F394628460CF06CFD0C4950B1B3
:1006F00028460CF049FD30B1484629460CF09EFAD8
:1007000008F101088146B442EAD1CAF8AC804046FB
:100710000CF048FB014648460CF04CFCBDE8F08765
:1007200000007042D0F8AC00704700BF38B5846E4E
:10073000456E214628460CF027FD00B92C46204680
:1007400038BD00BFD0F8A4302DE9F041002B79D19D
:10075000866E456E0446314628460CF06FFAE76E09
:10076000394680460CF06AFA7E490CF023FC4FF0C3
:100770007C5104460CF026FD002861D04FF07C51DE
:1007800028460CF01FFD4FF07C51002860D1284610
:100790000CF0FAFC38B14FF07C5130460CF012FDF1
:1007A000002840F0A7804FF07C5128460CF00AFD4D
:1007B000002860D14FF07C5128460CF003FD002842
:1007C00040F0A1804FF07C5128460CF0FBFC002843
:1007D0006CD14FF07C5128460CF0D6FC4FF07C5188
:1007E00010B330460CF0EEFC38B14FF07C51384677
:1007F0000CF0CAFC002840F0B0804FF07C5130462D
:100800000CF0C2FC002861D04FF07C5138460CF04F
:10081000D9FC002840F0A38038464FF07C510CF002
:10082000B3FC68B1504C10E028460CF0ADFC002839
:10083000E3D128464FF07C510CF0A6FC002845D1AE
:10084000BDE8F08100EB8300046E2046BDE8F08136
:1008500030460CF0B7FC4FF07C5100283ED03846B3
:100860000CF0B0FC0028F0D14FF07C5128460CF081
:100870008BFC002859D14FF07C5130460CF084FCA1
:10088000002840D04FF07C5138460CF09BFC0028EB
:1008900041D14FF07C5130460CF094FC68B14FF0E0
:1008A0007C5138460CF070FC00284FD14FF07C5141
:1008B00030460CF069FC00288BD04FF07C51384654
:1008C0000CF062FC002884D02C46BEE730464FF086
:1008D0007C510CF059FC0028B2D09DE728460CF062
:1008E00053FC0028C7D04FF07C5130460CF06AFC16
:1008F0000028C0D04FF07C5138460CF063FC002833
:100900003FF451AF18E04FF07C5130460CF05AFCE8
:100910000028CBD0C3E7394628460CF08FF94FF0BA
:100920007C510CF093FA04468FE74FF07C51384627
:100930000CF048FC00289ED0394630460CF07EF979
:100940004FF07C510CF082FA04467EE740464FF0AF
:100950007C510CF07BFA044677E7344675E73C4659
:1009600073E700BF000040400000A0C270B504461D
:10097000FFF7E8FE4FF07C510CF024FC28B3666EC4
:100980004FF07C5130460CF01DFCA56EF0B9E46EC2
:100990004FF07C5128460CF015FC58B129463046E2
:1009A0000CF010FC30B1214628460CF0EDFB08B1EC
:1009B0002C4620E04FF07C5120460CF003FC20B187
:1009C000284621460CF0FEFB78B970BD304629461A
:1009D0000CF0DAFBE46E0028DAD0304621460CF049
:1009E000D3FB0028D4D0344605E0304621460CF035
:1009F000E9FB0028E9D0204670BD00BF01392DE990
:100A0000F84380461546032900F2E280DFE801F052
:100A1000AE855C02537B107B03EB00200CF0C2F927
:100A20006D490CF013FAC8F81800EB7BA87B03EBB8
:100A300000200CF0B7F968490CF008FAD8F86860A3
:100A4000D8F86470D8F80040C8F81C004046FFF79A
:100A50008DFFD8F87C1005460CF096FB08B1C8F85D
:100A60007C50394630460CF0ADFB002840F0A780A2
:100A70003946D8F880000CF087FB10B13E46C8F824
:100A8000806008F12006C14608F14005002701E01A
:100A900059F8044F306821460CF094FB0137214689
:100AA00028B1D8F88C000CF079FB00B134602146F5
:100AB00028680CF069FB043600B12C60082F05F1A2
:100AC0000405E5D1BDE8F883507A32380CF06AF9B4
:100AD000C8F87400A87A32380CF064F9C8F87800C5
:100AE0006B7B287B03EB00200CF05CF93A490CF09F
:100AF000ADF9C8F81000EB7BA87B03EB00200CF0ED
:100B000051F935490CF0A2F9D8F86860C8F814001A
:100B1000D8F86470D8F8004098E7507A32380CF072
:100B200041F9C8F86C00A87A32380CF03BF9C8F8E3
:100B300070006B7B287B03EB00200CF033F9264917
:100B40000CF084F9C8F80800EB7BA87B03EB0020CD
:100B50000CF028F920490CF079F9D8F86860C8F849
:100B60000C00D8F86470D8F800406FE7137AC0F82A
:100B7000B030907A32380CF015F9C8F864000746A6
:100B8000E87A32380CF00EF9C8F868006B7B06463C
:100B9000287B03EB00200CF005F90F490CF056F907
:100BA000C8F80000EB7B0446A87B03EB00200CF0A8
:100BB000F9F809490CF04AF9C8F8040046E7D8F8F2
:100BC000801030460CF0FEFA00287FF458AF58E74A
:100BD000866E476E046839E70AD7233C2DE9F04F4B
:100BE00090F8A83091B007465B008DF80830FFF709
:100BF0006FFCD7F89C00D7F8A040D7F89830D7F80A
:100C0000942097F8A8108DE81100C94805F07EFFE0
:100C100030223D2303268DF809208DF80A300DF18E
:100C20000A059DF8089049F00108404608F08EFE3C
:100C30000DF10900022108F093FE8DF8088042466C
:100C400002AB00205040082410F0800F4FEA400013
:100C500018BF80F00700013CC0B2F5D19D4202D020
:100C600013F8012FEEE708F071FE05F049FE0028A9
:100C700040F07C8202208DF8089008F05BF905F0C6
:100C80003FFE002840F0B8820DF10C0AD146002446
:100C900008F07CFE002843D0032C34D101E008F09A
:100CA00085FE08F073FE0028F9D105F029FE10B189
:100CB000A04807F0E5FA312303268DF809308DF8B6
:100CC0000A609DF8089049F00108404608F03EFE91
:100CD0000DF10900022108F043FE8DF8088042461C
:100CE00002AB00205040082410F0800F4FEA400073
:100CF00018BF80F00700013CC0B2F5D19D4228D05A
:100D000013F8012FEEE708F051FE09F8010B8046B9
:100D100005F0F6FD68B9013408F038FE0028BBD1B3
:100D2000032CBED005F0ECFD78B9013E7FF479AF1D
:100D3000C1E75FFA88F1002310227E4807F0B0FA7D
:100D400001217D4809F044FEE5E77A4807F098FA6A
:100D5000EBE708F0FBFD05F0D3FD002840F0C5816E
:100D600002208DF8089008F0E5F805F0C9FD00288C
:100D700040F03D820DF10C09002408F007FE002828
:100D800044D0032C35D101E008F010FE08F0FEFD40
:100D90000028F9D105F0B4FD10B1664807F070FAEB
:100DA000342201238DF809208DF80A3003269DF89E
:100DB000089049F00108404608F0C8FD0DF109000F
:100DC000022108F0CDFD8DF80880424602AB0020DC
:100DD0005040082410F0800F4FEA400018BF80F008
:100DE0000700013CC0B2F5D19D4228D013F8012F75
:100DF000EEE708F0DBFD09F8010B804605F080FD09
:100E000068B9013408F0C2FD0028BAD1032CBDD066
:100E100005F076FD78B9013E7FF453AFC0E75FFA85
:100E200088F100231022434807F03AFA0121424892
:100E300009F0CEFDE5E73F4807F022FAEBE708F0BE
:100E400085FD05F05DFD002840F00E8102208DF843
:100E5000089008F06FF805F053FD002840F0D681A7
:100E60000DF10C09002408F091FD002800F08480A9
:100E7000032C72D101E008F099FD08F087FD0028ED
:100E8000F9D105F03DFD10B12A4807F0F9F901222A
:100E900012238DF809208DF80A304FF003089DF8D1
:100EA0000840204608F052FD02210DF1090008F02B
:100EB00057FD8DF8084005F023FD30B309211F4888
:100EC00009F086FD0023102221461A4807F0E8F9B0
:100ED0000121194809F07CFD002310229DF809101A
:100EE000144807F0DDF90121134809F071FD0023D2
:100EF00010229DF80A100F4807F0D2F901210E4880
:100F000009F066FD0B4807F0BBF906208DF8084094
:100F100008F010F805F0F4FC002840F0728103ADF1
:100F2000002608F033FD00283FD0162E2FD109E00F
:100F30006C140100C887FF1F5C1B010058140100DE
:100F400008F034FD08F022FD0028F9D105F0D8FCA6
:100F5000162600287DD1152035E008F027FD09F878
:100F6000010B804605F0CCFC00285BD1013408F071
:100F70000DFD00287FF47CAF032C3FF47EAF05F01D
:100F8000BFFC00286CD1013E7FF411AF7FE708F071
:100F90000DFD05F8010B044605F0B2FC00284DD10B
:100FA000013608F0F3FC0028BFD1162ECAD005F098
:100FB000A7FC00284DD1B8F101087FF470AF701E76
:100FC000002840F32482002303AA1C4612F8011BC8
:100FD00008254C4014F0800F4FEA440418BF84F0F9
:100FE0000704013DE4B2F5D101338342EEDB9DF805
:100FF000218089484146224605F088FD162EC146CB
:10100000A34602D1A04500F0138197F8A8108348A9
:10101000CDF800B04B46324605F0A6FD002011B0D9
:10102000BDE8F08F5FFA88F1002310227C4807F0BA
:1010300037F901217B4809F0CBFC97E7E1B20023A7
:101040001022774807F02CF90121764809F0C0FCFE
:10105000A6E7734807F014F9162EACD11520B2E7B5
:101060006F4807F00DF98EE709216F4809F0B0FCD1
:101070002346102241466A4807F012F901216948C7
:1010800009F0A6FC234610229DF80910644807F0D9
:1010900007F90121634809F09BFC102223469DF8C3
:1010A0000A105F4807F0FCF801215E4809F090FC47
:1010B00021460DF10B0002AA12F8014B6140C9B2A2
:1010C000082311F0800F4FEA410118BF81F007019A
:1010D000013BC9B2F5D19042EED11022504807F041
:1010E000DFF84F4807F0CCF8B0E609214E4809F088
:1010F0006FFC234610224146494807F0D1F80121F0
:10110000484809F065FC234610229DF80910444820
:1011100007F0C6F80121434809F05AFC1022234683
:101120009DF80A103E4807F0BBF801213D4809F040
:101130004FFC21460DF10B0002AA12F8014B614051
:10114000C9B2082311F0800F4FEA410118BF81F0A6
:101150000701013BC9B2F5D19042EED110223048CF
:1011600007F09EF82E4807F08BF8F9E509212E4884
:1011700009F02EFC234610224146294807F090F83A
:101180000121284809F024FC234610229DF809106B
:10119000234807F085F80121224809F019FC1022A4
:1011A00023469DF80A101E4807F07AF801211D48D1
:1011B00009F00EFC21460DF10B0002AA12F8014BBA
:1011C0006140C9B2082311F0800F4FEA410118BFF6
:1011D00081F00701013BC9B2F5D19042EED1102256
:1011E0000F4807F05DF80E4807F04AF842E507217E
:1011F0000E4809F0EDFBBDE507210C4809F0E8FBBE
:1012000042E50721094809F0E3FB88E60721074882
:1012100009F0DEFB24E600BFA0140100EC1401007D
:10122000C887FF1F5C1B01005814010064140100F3
:101230009DF80C3097F8A820B3EB420F7FF4EEAE88
:101240009DF80D30012B7FF4E9AE9DF80E30122B86
:101250007FF4E4AE9DF810309DF80F0003EB002002
:101260000BF0A0FD72490BF0F1FDD7F8881038663D
:1012700004460BF0A7FF08B1C7F88840D7F88410E0
:1012800020460BF081FF08B1C7F88440A7F104099C
:1012900007F1200607F140054FF008089AF80630DC
:1012A0009AF8050003EB00200BF07CFD61490BF080
:1012B000CDFD49F8040F316804460BF065FF0AF1D3
:1012C000020A30B1D7F88C1020460BF071FF00B144
:1012D0003460296820460BF075FF043600B12C609D
:1012E000B8F1010805F10405D8D19DF81E309DF82C
:1012F0001D0003EB002002300BF054FD4E490BF0B3
:1013000059FE01464D480BF055FE4D490BF094FC3B
:101310004C490BF09BFD054609F006FE04462846A5
:1013200009F002FE484909F071FE48490546204689
:101330000BF08CFD46490BF081FC464904462846DB
:101340000BF084FD014620460BF078FC01464FF07F
:101350007E500BF02FFE40490BF06EFC9DF81F20D5
:101360009DF82030786603EB022009300BF01AFD5F
:101370003A490BF01FFE014630480BF01BFE304986
:101380000BF05AFC2F490BF061FD054609F0CCFD2E
:101390000446284609F0C8FD2B4909F037FE2B49C1
:1013A000054620460BF052FD29490BF047FC294920
:1013B000044628460BF04AFD014620460BF03EFC51
:1013C00001464FF07E500BF0F5FD23490BF034FC45
:1013D000B86604463846FFF7C9FAF96F05460BF0C0
:1013E000D3FE00B1FD677D6E204629460BF0EAFE74
:1013F000B0B92946D7F880000BF0C6FE10B12C46D4
:10140000C7F88040164805F081FB012007E69DF8EB
:101410002190144849464246C34605F077FBF4E55F
:10142000D7F8801020460BF0CDFE0028E8D1E9E780
:101430001357053B2003C839001601470AD7E33F7D
:10144000E17A644000007A4400004040A40D8F39E6
:101450005A80473A46A6DB3333938843002C014732
:10146000C4140100A01401002DE9F8430026D0F8AF
:101470008C8006668146044600F1200754F8045B20
:10148000414628460BF09EFE084950B128460BF015
:101490007BFE30B1304629460BF0D0FB0646C9F83A
:1014A0006000BC42EAD13046BDE8F88300007042DB
:1014B00005299ABF00EB8100406E0020704700BFF5
:1014C0003E2998BF80F8A810704700BF90F89000A0
:1014D000704700BFC0F8A410704700BF80F890109C
:1014E000704700BF30B50F4CC0F88C1083B0204659
:1014F0000D4606F0C5FE204606F0C2FE28460AF05C
:10150000FBFF022502460B460095204606F010FF21
:10151000204606F0B5FE204603B0BDE8304006F098
:10152000AFBE00BFC887FF1F70B500F53155064636
:10153000343500F128042046B434FEF797FFAC425E
:10154000F9D106F1DC05012428460021FFF7C6FF8A
:10155000214628460134FFF7B3FF3F2C05F1B405BF
:10156000F2D142F67C4400250548064A064B355523
:10157000002130617161B261F361304670BD00BF1E
:1015800000007A44000048430000C8C201207047B0
:10159000F8B500F53257002300F531563B6034367C
:1015A00000F1DC0402E0B434B4420DD02046FFF771
:1015B0008DFF0028F7D020463D68FFF7B3F8B4341C
:1015C0002844B4423860F1D13868F8BDF8B50E4609
:1015D000096801F47F6500290446A5F5C06511DBA3
:1015E0002D0901F00F07B42303FB054428342046DE
:1015F0000121FFF773FF324639462046BDE8F84027
:10160000FFF7FCB90A4801F00F0706F039FE122176
:10161000084809F0DDF93168054801F00041002370
:101620000A2206F03DFE02482D0906F029FEDAE7FF
:10163000C887FF1F3C150100704700BF704700BFFF
:101640002DE9F0430446002383B0064644F8DC3B12
:10165000012504E001353F2D04F1B40469D0204692
:10166000FFF734FF0028F5D0504805F04FFA29461F
:101670004F4805F04BFA2046FFF7B0FA2046FFF737
:10168000F3FE0AF039FF02460B464A4805F03EFADF
:101690002046FEF7DBFF80462046FEF7F3FF0746B5
:1016A00040460AF029FF8046384689460AF024FF62
:1016B00042464B46CDE900013F4805F027FA00219C
:1016C0002046FFF7F5FE012180462046FFF7F0FE99
:1016D000074640460AF010FF8046384689460AF021
:1016E0000BFF42464B46CDE90001344805F00EFAA7
:1016F0002046FFF7B9FE014630680BF09FFA3060D4
:101700002046FFF733F9B1690BF03EFD002833D1D5
:101710002046FFF70BF8F1690BF054FD002899D033
:101720002046FFF703F801353F2DF06104F1B404C2
:1017300095D170680BF036FB014630680BF03AFC2F
:101740007169306004460BF03DFD00B17461316990
:1017500020460BF019FD00B134610B2007F0B4FBFB
:1017600042F67C43F35C60B99BB142F67C430122B4
:10177000F25403B0BDE8F0832046FFF7F7F8B061FC
:10178000C6E753B942F67C430022F25403B0BDE8E9
:10179000F0830B4805F0E8F9E7E70A4805F0CEF9D1
:1017A00042F67C430022F254F0E700BF38170100F4
:1017B000501501008C150100A0150100CC15010089
:1017C000E81501002016010070B5114B836000F58B
:1017D00031550646343500F1DC0402E0B434AC4245
:1017E00013D02046FFF772FE0028F7D02046FEF700
:1017F0002DFFB1680BF0C8FC0028EFD02046FEF7A3
:1018000025FFB434AC42B060EBD1B06870BD00BF0E
:101810000000A04070B5002300F531550646C360B6
:10182000343500F1DC0402E0B434AC4213D020467D
:10183000FFF74CFE0028F7D02046FEF723FFF168A3
:101840000BF0C0FC0028EFD02046FEF71BFFB4349D
:10185000AC42F060EBD1F06870BD00BF006870472B
:1018600041607047F8B500F531550F4616463435DE
:1018700000F1DC0402E0B434AC420FD02046FFF7A4
:1018800025FE0028F7D020463946FFF723FE2046E4
:101890003146B434FFF726FEAC42EFD1F8BD00BFAD
:1018A0002DE9F84300F5315542F678432E460027DE
:1018B0008046C7504FF000093435383600F1DC045B
:1018C00002E0B434A54213D02046FFF7FFFD002804
:1018D000F7D03368013333602046FEF733FF1D49EC
:1018E0000BF070FC88B9B434A54207F10107EBD1C5
:1018F00042F6784358F80300C01B0BF053FA014638
:1019000048460BF057FBBDE8F8832046FEF71AFF68
:10191000014648460BF092F981462046FEF712FF39
:10192000D8F820100BF04EFC70B92046FEF70AFFE5
:10193000D8F824100BF028FC0028C2D02046FEF76F
:1019400001FFC8F82400BCE72046FEF7FBFEC8F8FC
:101950002000EAE700008CC2006A7047406A7047C6
:10196000F8B500F5315507460026343500F1DC04A2
:1019700002E0B434AC420FD02046FFF7A7FD0028A8
:10198000F7D02046FEF7A0FE014630460BF056F990
:10199000B434AC420646EFD142F67843F8580BF027
:1019A00001FA014630460BF005FBF8BD2DE9F04F7A
:1019B00006468FB09B488B4605F050F8994805F0D5
:1019C0004DF8984805F04AF842F678433046F25808
:1019D0000D92FFF7DDFD73680C93074630680AF03F
:1019E0008BFD804630468946FFF7BAFF8246304677
:1019F000B468F568FFF754FF0AF07EFDCDE90A01EF
:101A0000214628460BF018F987490BF01FFA0AF017
:101A100073FDCDE9080128460AF06EFDCDE9060107
:101A200020460AF069FDCDE9040150460AF064FD44
:101A30000D9A0C9BCDE90201CDE9008911467B4846
:101A40003A4605F00BF8774805F008F8DC364FF019
:101A500001084FF0000A07E008F10108B8F13F0F54
:101A600006F1B40600F0D5803046FFF72FFD0028C0
:101A7000F2D03046FEF7D4FD3046FEF7D5FD3046B5
:101A8000FEF7D6FD3046FEF7D7FD0821684808F07E
:101A90009FFF4146674806F043FCB8F1090F40F349
:101AA000BB800221644808F093FF3046FFF7DCFC5E
:101AB0000AF022FD5FFA8BF902460B46CDF8009042
:101AC0005C4806F035FC01215C4808F081FF554672
:101AD000002420E006215A4808F07AFF294655489C
:101AE00006F01EFC0221574808F072FF21463046DE
:101AF000FEF7A6FD0AF000FDCDF8009002460B4669
:101B00004C4806F015FC013401214C4808F060FFF8
:101B1000082C09D03D46092D05F10107DADC012129
:101B2000494808F055FFD5E7424806F0A9FB0921CE
:101B3000464808F04DFF00213046FFF7B9FC0AF097
:101B4000DBFC022402460B4600943A4806F0F0FB08
:101B50000A213F4808F03CFF01213046FFF7A8FC6E
:101B60000AF0CAFC009402460B46324806F0E0FB3D
:101B70000A21384808F02CFF21463046FFF798FC30
:101B80000AF0BAFC009402460B462A4806F0D0FB45
:101B90000A21314808F01CFF03213046FFF788FC7A
:101BA0000AF0AAFC009402460B46224806F0C0FB4D
:101BB0000A212A4808F00CFF04213046FFF778FC80
:101BC0000AF09AFC009402460B461A4806F0B0FB55
:101BD0000A21234808F0FCFE05213046FFF768FC87
:101BE0000AF08AFC009402460B46124806F0A0FB5D
:101BF00001211C4808F0ECFE08F101080D4806F030
:101C00003FFBB8F13F0F0AF1080A06F1B4067FF472
:101C10002BAF0FB0BDE8F08F01210B4808F0D8FEC4
:101C20003FE700BF3817010000007A44D0180100D8
:101C300070190100C887FF1F8C2701007C19010063
:101C4000801901004C1B01005C1B01008819010078
:101C500094190100A0190100AC190100B819010084
:101C6000C4190100D01901002DE9F04F85B000F131
:101C7000DC058A4603929B462E464FF0010806E09B
:101C800008F10108B8F13F0F06F1B4067BD03046E9
:101C9000FFF71CFC0028F3D000230A2251467D48A0
:101CA00006F0FEFA01217C4808F092FE03980AF043
:101CB00023FC00230246009376480B4606F038FBCF
:101CC0000121754808F084FE5946724806F028FB49
:101CD0000121714808F07CFE41466E4806F020FB69
:101CE00001216D4808F074FE00244FF002092146DE
:101CF0003046FEF7A5FC0AF0FFFBCDF80090024647
:101D00000B46644806F014FB01340121624808F0D8
:101D10005FFE082C4FF00207E9D100213046FFF7A3
:101D2000C7FB0AF0E9FB009702460B46594806F04C
:101D3000FFFA0121584808F04BFE01213046FFF719
:101D4000B7FB0AF0D9FB009702460B46514806F054
:101D5000EFFA0121504808F03BFE39463046FFF7C4
:101D6000A7FB0AF0C9FB009702460B46494806F05C
:101D7000DFFA08F10108474806F082FAB8F13F0F90
:101D800006F1B40683D101274FF0000904E00137C2
:101D90003F2F05F1B40579D02846FFF797FB0028BF
:101DA000F5D000230A2251463C4806F079FA012179
:101DB000394807F09FFB03980AF09EFBCDF800908E
:101DC00002460B46354806F0B3FA0121324807F0C7
:101DD00091FB5946314806F0A3FA01212E4807F03D
:101DE00089FB39462D4806F09BFA01212A4807F065
:101DF00081FB00244FF0020821462846FEF720FC14
:101E00000AF07AFBCDF8008002460B46234806F024
:101E10008FFA01340121204807F06CFB082C4FF0A9
:101E20000206E9D100212846FFF742FB0AF064FBD5
:101E3000009602460B46194806F07AFA0121164828
:101E400007F058FB01212846FFF732FB0AF054FB4C
:101E5000009602460B46114806F06AFA01210E4828
:101E600007F048FB31462846FFF722FB0AF044FB07
:101E7000009602460B46094806F05AFA0137074811
:101E800006F0FEF93F2F05F1B40585D105B0BDE898
:101E9000F08F00BFC887FF1FD4190100AC87FF1F58
:101EA0002DE9F84F994C9A48FFF7FAFCE16A0BF0DC
:101EB0006BF9002851D0974E974D002333602B606B
:101EC000964B93481B68914F012B5ED0FFF7A2FC05
:101ED000E169804660690AF0AFFE014640460BF0BA
:101EE00071F9002865D18A48FFF794FCE1680BF08E
:101EF00069F908B100232B608548844FFFF764FC23
:101F000021690BF041F958B1002333602B68824AF4
:101F1000002B01DBBDE8F88F00231360BDE8F88FCC
:101F20007B48FFF751FCB9690BF02EF90028EBD183
:101F30007748FFF749FCD7F8B8100446B8690AF0AB
:101F40007DFE014620460BF03DF9002800F084801C
:101F5000786E30600028D7DBD8E76D48FFF7A0FC2B
:101F6000216B0BF011F9002851D16948FFF798FC5B
:101F7000616B0BF009F9002800F09380654E664D07
:101F8000626EE36D32602B609AE7FFF743FCE16914
:101F90008046206A0AF050FE014640460BF012F9D6
:101FA0000028A0D05A48FFF735FCD7F82090834688
:101FB00005E05748FFF72EFCD7F814908346F969DF
:101FC00048460AF039FE8246F86D0AF0EBFE80467C
:101FD000386E0AF0E7FE41460AF02EFE51460746EB
:101FE00058460AF029FE014638460AF02FFF5146AE
:101FF000074648460AF020FE014638460AF0DAFF56
:1020000041460AF01BFE0BF0FDF828606BE7414EDD
:10201000636E3F483360FFF743FC8146E06DE76A3B
:102020003D4D0AF0BFFE3946804648460AF004FEA0
:10203000014640460AF00AFF39468046206B0AF006
:10204000FBFD014640460AF0B5FF00210AF0F6FD0F
:102050000BF0D8F8286033E72D48FFF7B5FB814631
:10206000F86DBC690AF09EFE2146804648460AF09B
:10207000E3FD014640460AF0E9FED7F8B810804675
:1020800020460AF0DBFD21460AF0D6FD0146404617
:102090000AF090FF00210AF0D1FD0BF0B3F8306098
:1020A00058E71B48FFF7FCFBA16A0BF06DF800280E
:1020B0003FF401AF1648174E174DFFF7F1FB81466D
:1020C000606ED4F834800AF06DFE414607464846FB
:1020D0000AF0B2FD3946814600200AF0ADFD014606
:1020E00048460AF0B3FE41468146A06A0AF0A4FDC4
:1020F000014648460AF05EFF39460AF09FFD0BF0A4
:1021000081F8E36D30602B60DAE600BF3093FF1F8B
:10211000E094FF1FA494FF1F4C92FF1F6892FF1FC3
:10212000F8B53B483B4F3C4D3C4E3D4C04F096FCD3
:102130003C4B3D4A3D485A60DF60102200273C4935
:102140001A7018613B4A3C485D615E623B4D9C6180
:102150004FF07C563A4C1F633A4F9962DA623A4923
:1021600058630C2239489D635E6440F61C450A267C
:102170009C641F6241F20404354FD9641A65022140
:102180000122C3F8B8009D6600206425DE661C6746
:102190004FF496763224DF61DF635A275970597203
:1021A0001A725A6583F840005E66DE651C669D659E
:1021B0004FF47A7E5F67274E274F9867D967C3F839
:1021C0008000C3F89440C3F8A040C3F89C00FF24EB
:1021D000C3F8A820C3F8AC10052041F2883183F879
:1021E000BC2040F2D662C3F8B050C3F898E0C3F800
:1021F0008870C3F88C60C3F8A440A3F8B600C3F895
:102200009010A3F8B410A3F88420A3F88620F8BD9A
:10221000D81901006666864033338340CDCCCC3D6F
:10222000CDCC4C403093FF1F20A107000000404060
:1022300000008242000020C1000020420000A040B7
:102240009A997940333373400AD7233D9A99993E3E
:10225000CDCC4C3E00C0204400006842F0B54FF4A5
:102260007A6085B006F066FE00210F2006F03AFE87
:1022700000210E2006F036FE0021112006F032FE6D
:102280000021102006F02EFE0021122006F02AFE6A
:102290000021132006F026FE01210B2006F022FE6D
:1022A00001210C2006F01EFE0121142006F01AFE6A
:1022B0000121152006F016FE0121162006F012FE5F
:1022C0000121172006F00EFE0121052006F00AFE6E
:1022D000904C914D0121062006F004FE01210D20B5
:1022E00006F000FE20880AF059FD0146162006F08F
:1022F00063FD20880AF052FD0146172006F05CFDC0
:1023000020880AF04BFD0146052006F055FD208887
:102310000AF044FD00240146062006F04DFD00941D
:1023200023467E4A7E497F4804F018FEE6B23246D4
:1023300079497C4804F0C0FD2B79774979486FF3DF
:102340000003013432462B7104F0ACFD082CEDD1B2
:102350000924E6B232467049724804F0ADFD2B798B
:102360006D49704843F00103013432462B7104F08B
:1023700099FD0D2CEDD16C4C4FF0FF3220681021EF
:1023800005F0B8F920684FF0FF32102105F08AF906
:1023900020684FF0FF32022105F098F920684FF0D5
:1023A000FF32022105F09CF900220F21206805F080
:1023B000ABF90C215D4808F00BFB5D4805F060FFB0
:1023C00014215C4808F004FB594805F059FF40F21D
:1023D000836006F06DFE564805F052FF17215648FF
:1023E00008F0F6FA524805F04BFF544B1B789A065A
:1023F00000F1BE80514B1B781B0700F1C5804F4B8D
:102400001B785F0700F1CC804C4B1B789E0700F1D6
:10241000D3804B4B1B781D0600F1DA80484B1B78AC
:102420005C0600F1E180464B1B78980600F1E880DD
:10243000434B1B78590700F1EF80414B1B781A077B
:1024400000F1F6803E4B1B789B0700F1FD80384879
:1024500005F016FF72B63B4A4CF220534DF6281198
:102460002024138023461180013BFDD1364D37488F
:10247000374900234FF480562E8003800B8032F8BA
:102480000E3C9BB243F0D30322F80E3C62B69D2073
:1024900007F00CFA21462F482F4D08F099FA2448EE
:1024A00005F0EEFE05F1C0062F462C46601B06F037
:1024B00053F904F8010BB442F8D13B78102B01D04A
:1024C000FFF72EFE2548FFF7B9F8042004F012FAB2
:1024D000234B224800221A60FFF7AEF801210D209D
:1024E00006F0ECFC796D1D48FFF7BAF97A6C97F8A5
:1024F00040101A48FFF7B6F91A4B1B491A680392A5
:1025000003981B680293029A184B08601A6005B082
:10251000F0BD00BF2487FF1FFC93FF1F10C3FF1FE8
:1025200020A1070074C1FF1FAC94FF1FF819010020
:10253000C887FF1F081A0100201A010001F0074098
:1025400000F007400E20054004200540062005400D
:1025500016200540241B01003093FF1FE094FF1F4D
:102560005892FF1F38C3FF1FDC94FF1F0494FF1F06
:102570002121394808F02CFA384805F081FE384B03
:102580001B781B077FF53BAF0C21364808F020FA7B
:10259000324805F075FE324B1B785F077FF534AF8C
:1025A0000E21314808F014FA2C4805F069FE2C4B36
:1025B0001B789E077FF52DAF17212C4808F008FAED
:1025C000264805F05DFE2A4B1B781D067FF526AFD9
:1025D0000E21284808F0FCF9204805F051FE244B54
:1025E0001B785C067FF51FAF1221234808F0F0F935
:1025F0001A4805F045FE1E4B1B7898067FF518AF6C
:1026000013211E4808F0E4F9144805F039FE184B70
:102610001B7859077FF511AF1C21194808F0D8F92C
:102620000E4805F02DFE124B1B781A077FF50AAFF6
:102630001921144808F0CCF9084805F021FE0C4B8C
:102640001B789B077FF503AF18210F4808F0C0F9EE
:10265000024805F015FEFAE6381A0100C887FF1F88
:1026600001F007405C1A01006C1A01007C1A01009D
:1026700000F00740941A0100A41A0100B81A0100E2
:10268000CC1A0100EC1A0100081B010070B5464C81
:10269000464D4748E66800232B70FFF7BBF801461C
:1026A00030460AF071FD08B104232B704048FFF753
:1026B0008BF821690AF068FD18B12B7843F01003FC
:1026C0002B703B48FFF7ECF8A16A0AF07BFD18B1CC
:1026D0002B7843F040032B70002335486B70FFF7D5
:1026E000DFF8E16A314E0AF04FFD08B10123737043
:1026F00000232F48EB70FFF78DF805462C482B4E32
:10270000FFF762F8014628460AF096FAE16B0AF0F4
:1027100059FD08B10123F370264D254800232B7085
:10272000FFF778F8616A0646E0680AF085FA014624
:1027300030460AF047FD08B104232B701C48FFF710
:1027400043F8616A064620690AF078FA0146304685
:102750000AF01AFD18B12B7843F010032B701448BF
:10276000FFF79EF8A16B0646A06A0AF065FA0146DB
:1027700030460AF027FD18B12B7843F040032B7048
:1027800000230B486B70FFF78BF8A16B0546E06ADE
:10279000084C0AF053FA014628460AF0F5FC08B145
:1027A0000123637070BD00BF3093FF1F2C93FF1F88
:1027B000E094FF1F9C94FF1F2DE9F0417C4C23689F
:1027C000012B82B031D0022B00F0A880032B00F047
:1027D000C8803BBB774B784AD3F8A010D3F8A4301D
:1027E00012685B1A632B0EDD744803FB02F380FB57
:1027F0000302DB17C3EB62131944062002B0BDE8E5
:10280000F04106F0DBB96E4803FB022380FB0302B4
:10281000DB17C3EB22121144062002B0BDE8F041E1
:1028200006F0CCB902B0BDE8F081664E33680A33D9
:10283000B3F57A7F00F3B780184633600AF0B2FA36
:1028400061490AF003FB80465A4DD5F8A0000AF012
:10285000A9FA0746D5F8A4000AF0A4FA39460AF006
:10286000EBF941460AF0F2FA58490AF0A3FB39465F
:102870000AF0E4F90AF0C6FC0146062006F09EF9CB
:102880000221534808F0A4F8524805F0F9FC06214B
:10289000514808F09DF830680AF084FA4A490AF075
:1028A000D5FA09F029FE022702460B46009749484F
:1028B00005F03EFD0D21494808F08AF8D5F8A00042
:1028C0000AF070FA804630680AF06CFA3E490AF065
:1028D000BDFA0646D5F8A4000AF064FA41460AF0AB
:1028E000ABF9014630460AF0B1FA38490AF062FB0A
:1028F00041460AF0A3F909F0FFFD00970B46024696
:10290000344805F015FD3946314808F061F8314882
:1029100005F0B6FC2368022B7FF458AF294B254EF7
:1029200000221A60D6F8A0000AF03CFA0546D6F854
:10293000A4000AF037FA29460AF07EF900210AF0CD
:1029400085FA22490AF036FB29460AF077F90AF09F
:1029500059FC0146062006F031F92368032B7FF469
:1029600038AF184B134E4FF47A721A60D6F8A000A5
:102970000AF018FA0546D6F8A4000AF013FA294618
:102980000AF05AF911490AF061FA10490AF012FBEB
:1029900029460AF053F90AF035FC0146062006F0F4
:1029A0000DF9236815E700234FF0000833604BE76B
:1029B0008894FF1F3093FF1F3087FF1F1F85EB5147
:1029C000CBF08D285C92FF1FCDCCCC3D0000C842DF
:1029D0008C270100C887FF1F481B0100501B010006
:1029E00070B5B548B54C05F04BFCB34805F048FC54
:1029F000B14805F045FC0D21B14807F0E9FFD4F8D6
:102A00009C30012B11D0AF4CAB48217800230A2217
:102A100005F046FC2378052B67D8DFE813F00601A4
:102A20000B01100115011A0101010921A64807F047
:102A3000CFFFA648FEF7C8FE21690AF0A5FB18B132
:102A40000F21A34807F0C4FFA048FEF7E3FEE168AA
:102A50000AF0B8FB18B10E219E4807F0B9FF9B4859
:102A6000FEF7D8FE05469948FEF7AEFE0146284619
:102A70000AF0E2F8E16B0AF0A5FB18B111219648C3
:102A800007F0A6FF9148FEF70BFFA16A0AF09AFB38
:102A900018B10C21914807F09BFF8C48FEF700FF0E
:102AA000E16A0AF071FB18B10D218D4807F090FF23
:102AB0008C4B86481B68012B00F0E880FEF784FEF3
:102AC00021697E4D0AF07EFB78B18048FEF7A2FEB8
:102AD000E9680AF059FB40B17A4B1B78052B00F0EE
:102AE000E6800821804807F073FF02217F4807F045
:102AF0006FFF122006F0E8F9012800F0AF801120E6
:102B000006F0E2F9012800F0B380794B1B68012B35
:102B100000F0B78002217548764C07F059FF764BDC
:102B20006548196805F0FCFB634805F0A9FB042122
:102B3000724807F04DFF0B2006F0C6F9002301464E
:102B40000A225D4805F0ACFB0C2006F0BDF900231D
:102B500001460A22584805F0A3FB142006F0B4F9F8
:102B6000002301460A22544805F09AFB152006F07E
:102B7000ABF90A22002301464F4805F091FB0621DC
:102B80005F4807F025FF2368DD074FF001014CBFC8
:102B90005C485D4807F01CFF236898074FF001016F
:102BA0004CBF5848584807F013FF23685A074FF0A6
:102BB00001014CBF5348544807F00AFF23681B0724
:102BC0004CBF50485048012107F002FF04214F48F4
:102BD00007F0FEFE112006F077F9002301460A22D5
:102BE000354805F05DFB102006F06EF90023014624
:102BF0000A22314805F054FB122006F065F9002343
:102C000001460A222C4805F04BFB132006F05CF924
:102C1000002301460A222848BDE8704005F040BB69
:102C200007213B4807F0D4FE5FE70621394807F04B
:102C3000CFFE5AE70721384807F0CAFE55E70721BB
:102C4000364807F0C5FE50E70821354807F0C0FEBA
:102C50004BE70B21334807F0BBFE46E70E21324815
:102C600007F0B6FE112006F02FF901287FF44DAFD2
:102C70000A212E4807F0ACFE1D4B1B68012B7FF488
:102C800049AF11212A4807F0A3FE43E7FEF79CFD58
:102C9000216A0AF097FA00283FF423AF162125484D
:102CA00007F096FE0A21244807F092FE1DE70A214C
:102CB000214807F08DFE18E7C887FF1F3093FF1FDC
:102CC000601B01009894FF1F701B0100E094FF1F20
:102CD0007C1B01008C1B01009C1B0100B01B010030
:102CE000C01B01006892FF1FF41B01008C2701002C
:102CF000B494FF1FF093FF1F8C94FF1F681C01000A
:102D0000701C0100781C0100302901007C1C0100AE
:102D1000301C0100001C0100081C01001C1C0100EB
:102D2000241C0100101C0100381C0100481C01007B
:102D3000541C0100D01B0100E81B01002DE9F04FDD
:102D4000934C944FE36F012B8DB000F04981032B1E
:102D500050D0914E914DA36F9148012B09BF296826
:102D6000296801F10041296005F0C0F83368002BA3
:102D700040F0CE808A4805F08FF8E36F3860012B71
:102D8000064600F0D28087490AF01CFA78B98649D5
:102D900030460AF0F9F950B9844A854B12680B9213
:102DA0000B9A1A6000232B600DB0BDE8F08FDFF89E
:102DB000FC817F4CD8F800300A930A9823687D4F35
:102DC000C01A09F0EBFF31460AF040F87A490AF0E0
:102DD000F1F879490AF0EEF8396809F02FFFD8F8D0
:102DE00000300993099B2360002338602B600DB0ED
:102DF000BDE8F08FDFF8C881704DD8F80000664E4E
:102E0000012300220F212B6004F07EFC2B68012B94
:102E1000336800F00381002B40F0A6810021D8F830
:102E20000000DFF8B891664D04F0C0FC33681FFA6B
:102E300080FBC9F800B0002B40F07B810021D8F85E
:102E40000000564DDFF878A104F036FCB4F8863067
:102E500040F6E44101FB0BF1B1FBF0F0C01A00B207
:102E600009F0A0FF57498346D4F8880009F0EEFF27
:102E7000014658460AF09EF8D9F800302860632BC6
:102E8000DFF858B100F3498100232B603368002B31
:102E90003FF461AF02214C4807F09AFDD9F80020B9
:102EA000D8F8000040F6E443002103FB02F804F0E8
:102EB00003FCB8FBF0F009F071FF8046B4F886001F
:102EC00009F070FF0146404609F0B6FE09F014FB18
:102ED0004FF0020802460B46CDF800803B4805F053
:102EE00027FA4146384807F073FD286809F004FBCB
:102EF000CDF8008002460B46344805F019FA4146E9
:102F0000334807F065FD41462F4807F061FD22E791
:102F1000234804F0C1FF09F0EFFA022602460B46EF
:102F200000962A4805F004FA24E7244B1B68012B7D
:102F300000F02681022B7FF435AF26490AF042F9D2
:102F400030B9254930460AF01FF9002800F04781C2
:102F5000DFF85880164CD8F800300793079823689C
:102F6000144FC01A09F01AFF314609F06FFF1249D9
:102F70000AF020F810490AF01DF8396809F05EFEE1
:102F8000D8F800300693069B386023600AE700BF3C
:102F90003093FF1F7492FF1FD894FF1F6492FF1F8E
:102FA0000893FF1F0000FA430000FAC338C3FF1F55
:102FB000A894FF1F8092FF1F00007A444C87FF1FD8
:102FC000AC94FF1F17B7D1388C270100C887FF1FAB
:102FD000C01C010000C82F4800A08CC62893FF1F0A
:102FE0003D68984928460AF0CFF830B128469649FE
:102FF0000AF0E8F800287FF4FDAEDFF85882934D20
:10300000D8F80000924E022300220E212B6004F01B
:103010007BFB2B68012B33687FF4FDAE002B40F067
:1030200000810021D8F80000DFF86C92894D04F08F
:10303000BDFB33681FFA80FBC9F800B0002B40F0DD
:10304000D5800021D8F80000834D04F035FBB4F89A
:10305000843040F6E44A0AFB0BFBBBFBF0F0C01ADD
:1030600000B209F09FFE7D498346D4F88C0009F038
:10307000EDFE0146584609F09DFFD9F80030286062
:103080000021D8F800000AFB03FA04F015FBB4F89D
:103090008430BAFBF0F00FFA80FAC3EB0A03002B7E
:1030A000B4F8B620B8BF5B429342BCBF00232B608C
:1030B0003368002B3FF44FAE0221694807F088FCCB
:1030C000D9F80020D8F8000040F6E443002103FBC3
:1030D00002F804F0F1FAB4F88410B8FBF0F000B292
:1030E000411A604805F01CF902215D4807F070FCA8
:1030F000286809F001FA4FF0020802460B46CDF8A5
:103100000080584805F014F90321574807F060FC87
:103110004146534807F05CFC1DE6DAF80000002148
:1031200004F0CAFADBF8003064389842FFF4ACAE21
:10313000ACE60021286804F0BFFA40F6E441002321
:103140000A2201FB0BF1B1FBF0F1464805F0A8F8AB
:103150000221434807F03CFCB4F88610414805F0D2
:10316000DFF8D9F800B069E63E4805F089F80C218F
:103170003E4807F02DFC0C213D4807F029FC4DE6A8
:103180003C490AF01FF858B93B49304609F0FCFFAA
:1031900030B93A4A3A4B12680592059A1A6001E62C
:1031A000DFF8D880364CD8F80030049304982368B0
:1031B000344FC01A09F0F2FD314609F047FE32499A
:1031C00009F0F8FE304909F0F5FE396809F036FDDE
:1031D000D8F800300393039B38602360E2E5274A68
:1031E000274B12680892089A1A60DBE500212868CC
:1031F00004F062FA40F6E44100230A2201FB0BF1DD
:10320000B1FBF0F1174805F04BF801211F4807F01A
:10321000DFFBB4F88410134805F082F8D9F800B049
:103220000FE7104805F02CF8E36F012B4FF00B016E
:103230000CBF1748174807F0CBFB0C210C4807F0D0
:10324000C7FBEEE600709446007094C64C87FF1FE3
:10325000D894FF1FAC94FF1F6492FF1F17B7D1389B
:103260008C270100C887FF1FAC1C0100B01C0100A7
:103270009C1C01000000FA430000FAC338C3FF1F82
:10328000A894FF1F8092FF1F00007A445C1B01007E
:10329000841C0100901C01002893FF1F2DE9F047BA
:1032A000B24D2B6884B0002B7ED0B14CDFF8C882C1
:1032B000B04EE36FAE4D012B00F08F80D4F880301C
:1032C000AB4F012B00F0BC80D6F80090D7F858A087
:1032D0007D6DA94F05FB0AF54FF47A7000FB05F0F0
:1032E00009F060FDA5490546484609F0AFFD2946AD
:1032F00009F060FEA24909F0A9FD09F083FF6328E7
:10330000C8F800004BDD28469C4909F053FE6423B1
:1033100030603B609B4B1B68002B3DD0E36F944DAE
:10332000012B00F0BB80032B00F00981022B00F081
:103330000C810221944807F04BFB944B186809F06C
:10334000DBF8022402460B460094914804F0F0FF9B
:103350002146904807F03CFB21468B4807F038FB9C
:10336000D8F800108A4804F0DBFF06218A4807F0ED
:103370002FFB3068814909F069FD09F0BDF8009420
:1033800002460B46824804F0D3FF0321834807F02E
:103390001FFB7F4804F074FF04B0BDE8F0870028ED
:1033A000BCBF00233B60B5E77D4E714C3368029390
:1033B000029A42F228339A4200F2BA8033680393A9
:1033C000039A42F210739A4274D8E36FDFF8A8812F
:1033D000684E674D012B7FF471AF7248FEF7C0FA5B
:1033E0007149D5F86890EF6E09F030FD09F030FFB3
:1033F0002A6F6B6FC9EB0202DB1B80B29A42C9EBEA
:10340000000040F3AD8003FB0000531C90FBF3F37E
:103410001F44A06D636DC8F8007000FB07F003FB4C
:1034200000F000EB8000400009F0BCFC5349504F15
:1034300009F0C0FDD4F880303060012B7FF444AF38
:103440005848FEF78DFA5849D7F86890FD6E09F094
:10345000FDFC09F0FDFE3A6F7B6FD4F858A0C9EB74
:1034600002025B1B80B29A42C9EB0000C6BF03FB9D
:1034700000000132584390FBF2F02844656D00FBD8
:103480000AF005FB00F000EB8000400009F08AFC28
:103490003A4909F08FFD814630601AE7434B1B68BB
:1034A000012B4FF00A010CBF4148424807F090FA47
:1034B000EB6F38E73B48FEF753FA3B49A76EE66EE1
:1034C00009F0C4FC09F0C4FE226F636FD21B9B1B82
:1034D00080B29A42A0EB07003CDD03FB0000531CC6
:1034E00090FBF3F39819A26DDFF88C80636DC8F838
:1034F000000002FB00F003FB00F000EB8000400046
:1035000009F050FC1D491B4E09F054FD01233060A9
:1035100002211D482B6007F05BFA1D4804F0B0FE45
:103520005921254807F054FA194804F0A9FEC0E6CD
:103530001C48626C94F84010FEF794F93EE71021A5
:103540001E4807F045FAE36FF0E607211C4807F034
:103550003FFAEEE603FB00F393FBF2F39819C2E7A0
:1035600003FB00F393FBF2F31F4452E76092FF1F4B
:103570003093FF1F8092FF1F3087FF1FE4388E3E7D
:103580000000C8423887FF1F8C2701007492FF1F7C
:10359000C887FF1FC01C0100541D01005C1D0100F5
:1035A00038C3FF1FE094FF1F00007A444C87FF1FC1
:1035B000201D01002C1D0100C41C0100381D01004C
:1035C0004C1D010030B5112083B005F07DFC0128B1
:1035D00018D0122005F078FC012813D000210B2010
:1035E00005F06CFC00210C2005F068FC0021152082
:1035F00005F064FC2649274B0120002208701A6060
:1036000003B030BD0121152005F058FC224A234C9F
:10361000234B1268D4F8901001921B68019A1D4D3B
:103620000B4493424FF00201296005D901210C207F
:1036300005F044FC03B030BDD4F8980009F0B2FBAB
:10364000184B196809F0A0FD0028EFD101210B20CB
:1036500005F034FC94F8BC3003242C6043B10C4BCF
:1036600002221A7000210C2005F028FC03B030BDA6
:10367000122005F029FC012808BF054B4FF011006E
:1036800008BF1C7005F020FC0128EBD1E7E700BF64
:103690009894FF1FD494FF1F38C3FF1F3093FF1F60
:1036A000DC94FF1F7492FF1FF0B5684E684D3468BC
:1036B0002B689C4287B039D014F0010155D014F02A
:1036C000020149D014F004013DD0E3070ED52B6868
:1036D000DF070BD45F4F3A68002A00F082805E4B10
:1036E0001B680193019B93426DD83468A0070DD5E8
:1036F0002B6899070AD4594F3A68002A4CD0564B88
:103700001B680393039B934238D8346862070DD536
:103710002B685B070BD4524F3A68002A7ED04E4B81
:103720001B680593059B934268D834680CB107B0B9
:10373000F0BD2146162005F041FA2146172005F07C
:103740003DFA07B0F0BD052005F038FA2B68346863
:1037500003F0FB032B60B8E7172005F02FFA2B6866
:10376000346803F0FD032B60ACE7162005F026FA61
:103770002B68346803F0FE032B60A0E7394B172059
:10378000D3F8941005F01AFA2B68346843F002035A
:1037900000222B603A60B9E7334804F071FD0C2138
:1037A000324807F015F9304804F06AFDFF21172070
:1037B00005F004FA284B2E4A196802910299126802
:1037C0000A443A609CE7274B1620D3F8941005F082
:1037D000F5F92B68346843F0010300222B603A604E
:1037E00084E7FF21162005F0E9F91B4B204A1968F0
:1037F0000091009912680A443A6071E7194B05205C
:10380000D3F8941005F0DAF92B68346843F0040318
:1038100000222B603A60002C89D18AE7124804F01C
:103820002FFD0C21134807F0D3F80F4804F028FDB2
:10383000FF21052005F0C2F9074B0D4A19680491D4
:10384000049912680A443A606AE700BFD494FF1FE3
:10385000F093FF1F6C94FF1F38C3FF1F7094FF1F6E
:103860007494FF1F3093FF1FC887FF1F601D010066
:103870006487FF1F701D01002DE9F047544EDFF8EB
:103880007481DFF874913068524D00220F2103F0EB
:103890003BFF0023012222214F48C8F80030C9F81D
:1038A000002007F095F8D8F80030132B22DC40F602
:1038B000E44700213068B5F884A003F077FF0021C9
:1038C0000446306803F0F8FEA4B2012107FB04F4BB
:1038D000B4FBF0F441485444A5F8844007F078F86C
:1038E000642005F027FBD8F800300133132BC8F80B
:1038F0000030DEDDB5F88430394A3A48A2FB0312C5
:103900009B1A02EB5303C3F30F131946A5F8843037
:1039100004F006FD1D21344807F05AF8022133480F
:1039200007F056F82F4804F0ABFC00231A460E218E
:103930003068C8F8003003F0E7FE02232221264851
:10394000C9F8003007F044F8D8F80030132B22DC17
:1039500040F6E44700213068B5F8869003F026FF72
:1039600000210446306803F0A7FEA4B2012107FB42
:1039700004F4B4FBF0F419484C44A5F8864007F071
:1039800027F8642005F0D6FAD8F800300133132B5D
:10399000C8F80030DEDDB5F88630114A1148A2FBC8
:1039A00003129B1A02EB5303C3F30F131946A5F836
:1039B000863004F0B5FC1D210D4807F009F80221FE
:1039C0000A4807F005F80748BDE8F04704F058BC7E
:1039D000AC94FF1F3093FF1F801D0100C41D010028
:1039E00087611886C887FF1FA41D01008C2701006E
:1039F000C81D01009094FF1F4C87FF1FF8B5774B3F
:103A0000774C784D1B68286D40F2513108222160B7
:103A1000E271002B00F0DD8009F0C4F9296A064646
:103A200009F014FA704909F011FA09F011FC80B29A
:103A3000031263726D4A6E4B12681B68A96920728B
:103A40001512A37230461B12E3722273657309F0DC
:103A5000FDF9654909F0FAF909F0FAFB83B21A1287
:103A60005F496448A373E27303F070FC624B634ADE
:103A70001B6812885A49A272DFB207EB870603EB74
:103A80008305760045F3D71512121B122772267391
:103A900065730826002540F255375648E272637276
:103AA0002760E671A573E57303F050FC40F25633CE
:103AB00053482360E671FDF7D1FE524909F0C6F97B
:103AC00009F0C6FB20724E48FDF7C8FE4D4909F0CB
:103AD000BDF909F0BDFB4C4A4A49C0F30723106801
:103AE000637209F067FA09F08DFB40FA06F20346AB
:103AF0004348E272A372FDF7D3FE3B4909F0A6F9F1
:103B000009F0A6FB20733E48FDF7CAFE364909F0CE
:103B10009DF909F09DFB3249A573C0F30723354891
:103B20006373E57303F012FC022005F003FA374BD0
:103B30002B49187893F801E09F78DA78207240F2E8
:103B40005A332C48E67125736573A573E57384F8C1
:103B500009E0A772E272236003F0F8FB2C4B2049C6
:103B600018785D789A782072187993F803E05F7975
:103B70006572A2729D79DA79207340F25E331D4836
:103B800084F80BE0E2732360E6716773A57303F0BA
:103B9000DDFB022005F0CEF91E4BE6711D785A7848
:103BA00093F802E0D8781F795E79257262729D7968
:103BB000DA79E0724FF45C7384F80AE02773667375
:103BC000A573E273236006490A48BDE8F84003F094
:103BD000BDBB09F0E7F86969064621E76892FF1F57
:103BE000C494FF1F3093FF1F00002041A494FF1FC7
:103BF0004C92FF1F74C1FF1F3087FF1F3487FF1FC8
:103C0000E094FF1F0000C8427492FF1F2C93FF1F17
:103C10002887FF1F5087FF1FF0B59C4C9C4D83B039
:103C200006F070FE23682860042B00F0AC82022BA3
:103C30004BD0082B00F09280072B40F051813328A5
:103C400001F0F98300F3AD80312801F007843228B8
:103C500040F0B08006F092FE002840F33F818D488E
:103C60008D4E04F09FFC09F09DF88C4909F0EEF8A8
:103C700061230122F06322602B601846A0F15203F9
:103C80001F2B01F2B683DFE813F0420BB40BB40B29
:103C9000B40BB40BB40BB40BB40BB40BB40BB40B2C
:103CA000B40BB40BB40BB40BB203D20C3B05A90597
:103CB0007304B40BB40BB40B2604B40BD50CB40BC7
:103CC000B40BB40BB40BB40B300BA0F13102422A8D
:103CD00070D8DFE812F0F206FE060C0719072C0771
:103CE0003B076F006F006F006F006F006F006F0089
:103CF0006F006F006F006F006F006F006F006F004C
:103D00006F006F006F006F006F006F006F006F003B
:103D10006F006F006F006F006F006F006F006F002B
:103D20006F006F006F006F006F006F006F006F001B
:103D30006F006F006F006F006F00DF066F006F0095
:103D40006F006F006F006F006F006F006F006F00FB
:103D50006F006F006F006B006F00E506322800F007
:103D60002F83712822D0312824D106F007FE0028A5
:103D700040F3D1854748484E04F014FCC0B286F8A1
:103D80004000022894BF01460021726C444888BF5D
:103D900086F84010FDF766FD012369202360286046
:103DA0006CE7342801F03583712803D10023732098
:103DB00023602860002B08BF73280CBF012000205F
:103DC000002860D0334804F05BFA0421354806F03F
:103DD000FFFD304804F054FA1021334806F0F8FD96
:103DE0002C4804F04DFA1321304806F0F1FD304B19
:103DF0002848196804F094FA264804F041FA14217E
:103E00002C4806F0E5FD234804F03AFA1E212A4822
:103E100006F0DEFD1F4804F033FA1521274806F0AE
:103E2000D7FD1C4804F02CFA1E21254806F0D0FDD1
:103E3000184804F025FA2021224806F0C9FD15484B
:103E400004F01EFA1921204806F0C2FD114804F0C2
:103E500017FA12211D4806F0BBFD0E4804F010FAB7
:103E60000F211B4806F0B4FD0A4804F009FA0D21A1
:103E7000184806F0ADFD074804F002FA164A002182
:103E800001231160236003B0F0BD00BF8492FF1FC7
:103E90007092FF1FC887FF1F3093FF1F6F12833A76
:103EA000E094FF1F082601001026010024260100CF
:103EB0002087FF1F382601005026010070260100D0
:103EC00088260100A8260100CC260100E826010072
:103ED000FC2601000C2701003887FF1F2368286893
:103EE000062B40F08D80A0F13102402A3FF662AFF0
:103EF00001A151F822F000BF214900004D49000006
:103F0000794900009F490000C5490000E3490000CD
:103F1000814A0000B53D0000B53D0000B53D000000
:103F2000B53D0000B53D0000B53D0000B53D0000C9
:103F3000B53D0000B53D0000B53D0000B53D0000B9
:103F4000B53D0000B53D0000B53D0000B53D0000A9
:103F5000B53D0000B53D0000B53D0000B53D000099
:103F6000B53D0000B53D0000B53D0000B53D000089
:103F7000B53D0000B53D0000B53D0000B53D000079
:103F8000B53D0000B53D0000B53D0000B53D000069
:103F9000B53D0000B53D0000B53D0000B53D000059
:103FA000B53D0000B53D0000B53D0000B53D000049
:103FB000B53D0000B53D0000B53D0000B53D000039
:103FC000B53D0000B53D0000B53D0000B53D000029
:103FD000B53D0000B53D0000B53D0000B53D000019
:103FE000B53D0000B53D0000B53D0000B53D000009
:103FF000B53D0000B53D0000AD3D000023682868D8
:10400000052B15D1332801F0508240F34781352824
:1040100001F07282C1F25A8271287FF4CBAEDC4A81
:1040200000237320136023602860C3E62368286898
:10403000032B40F0A480A0F13002422A3FF6BAAE32
:1040400001A151F822F000BF55410000F5510000D8
:10405000A3500000CB500000ED5000000F510000B5
:104060001D520000455200006352000087520000BC
:10407000B53D0000B53D0000B53D0000B53D000078
:10408000B53D0000B53D0000B53D0000B53D000068
:10409000B53D0000B53D0000B53D0000B53D000058
:1040A000B53D0000B53D0000B53D0000B53D000048
:1040B000B53D0000B53D0000B53D0000B53D000038
:1040C000B53D0000B53D0000B53D0000B53D000028
:1040D000B53D0000B53D0000B53D0000B53D000018
:1040E000B53D0000B53D0000B53D0000B53D000008
:1040F000B53D0000B53D0000B53D0000B53D0000F8
:10410000B53D0000B53D0000B53D00003751000051
:104110004F4C0000AF520000CD52000097510000FC
:10412000B5510000054C0000294C0000B53D0000D1
:10413000B53D0000B53D0000B53D0000B53D0000B7
:10414000B53D0000B53D0000B53D000055510000F3
:104150006151000006F012FC002841F353818D48A4
:104160008D4E04F01FFA01270346014662228B4858
:10417000736527602A60FDF773FB23682868012BAD
:104180007FF418AE7AE5A0F13102402A3FF612AE74
:1041900001A151F822F000BF674B00007F4B0000E7
:1041A000834B0000A94B0000AD4B0000C94B000041
:1041B000DB4B0000DF4B0000E34B0000B53D00008F
:1041C000B53D0000B53D0000B53D0000B53D000027
:1041D000B53D0000B53D0000B53D0000B53D000017
:1041E000B53D0000B53D0000B53D0000B53D000007
:1041F000B53D0000B53D0000B53D0000B53D0000F7
:10420000B53D0000B53D0000B53D0000B53D0000E6
:10421000B53D0000B53D0000B53D0000B53D0000D6
:10422000B53D0000B53D0000B53D0000B53D0000C6
:10423000B53D0000B53D0000B53D0000B53D0000B6
:10424000B53D0000B53D0000B53D0000B53D0000A6
:10425000B53D0000B53D0000B53D0000B53D000096
:10426000B53D0000B53D0000B53D0000B53D000086
:10427000B53D0000B53D0000B53D0000B53D000076
:10428000B53D0000B53D0000B53D0000B53D000066
:10429000B53D0000B53D0000AD3D0000312801F006
:1042A000F38032287FF486AD06F068FB00287FF7A4
:1042B000BDAE3848384E04F075F901226B23C6F8BC
:1042C000980022602B6001E006F01CFB06F056FB14
:1042D0000028F9D12F4803F0D3FF2E4803F0D0FF78
:1042E0002C4803F0CDFF2B4803F0CAFF294803F008
:1042F000C7FF21212A4806F06BFB264803F0C0FFC8
:104300001521284806F064FBD6F89010214804F0E7
:1043100007F80221244806F05BFB1E4803F0B0FFBB
:104320001E21224806F054FBD6F89810194803F0D5
:10433000F7FF03211E4806F04BFB164803F0A0FFD1
:104340001E211C4806F044FBD6F89410114803F0D7
:10435000E7FF104803F094FF1D21174806F038FBD3
:10436000D6F8A0100B4803F0DBFF0A4803F088FFE3
:104370001E21124806F02CFBD6F8A410054803F0C5
:10438000CFFF044803F07CFF052323607BE500BFDB
:104390008894FF1FC887FF1F3093FF1FE094FF1F03
:1043A00080200100A4200100901F0100BC2001001A
:1043B000AC1C0100DC200100FC2001001C210100DC
:1043C00006F0DCFA002840F3A282B348B34E04F0B2
:1043D000E9F808F0E7FCB24908F038FD0346024668
:1043E00096F84010AF487364D4E406F08BFA06F0F8
:1043F000C5FA05460028F8D1A748A84E03F040FFAB
:10440000A54803F03DFFA44803F03AFFA24803F09B
:1044100037FFA14803F034FF1F21A34806F0D8FA64
:104420009D4803F02DFF1C21A04806F0D1FA706AC8
:104430009F4908F00BFD08F05FF8009502460B4617
:10444000954803F075FF02219A4806F0C1FA924898
:1044500003F016FF2321984806F0BAFAF06B94494E
:1044600008F0F4FC08F048F8009502460B468A482C
:1044700003F05EFF02218F4806F0AAFA864803F097
:10448000FFFE19218D4806F0A3FAB06B08F034F84E
:1044900002250B46024600957F4803F049FF294656
:1044A000874806F095FA7C4803F0EAFE1921854812
:1044B00006F08EFAB6F8B410774803F031FF032106
:1044C000814806F085FA744803F0DAFE072323607A
:1044D000D9E406F017FA06F051FA05460028F8D19B
:1044E0006D486E4E03F0CCFE6B4803F0C9FE6A487F
:1044F00003F0C6FE684803F0C3FE674803F0C0FE41
:104500001521724806F064FA634803F0B9FE1821D9
:104510006F4806F05DFA2B460A2296F840105E4876
:1045200003F0BEFE5C4803F0ABFE2821694806F0AC
:104530004FFA706C5E4908F089FC07F0DDFF0095CA
:104540000B460246544803F0F3FE0221594806F098
:104550003FFA514803F094FE13215F4806F038FA01
:104560004D4803F08DFE082323608CE406F0CAF961
:1045700006F004FA05460028F8D14748474E03F0F4
:104580007FFE454803F07CFE434803F079FE424835
:1045900003F076FE404803F073FE11214F4806F009
:1045A00017FA3D4803F06CFE28214D4806F010FA3A
:1045B00070693F4908F04AFC07F09EFF00950246EB
:1045C0000B46354803F0B4FE02213A4806F000FAE3
:1045D000314803F055FE1621424806F0F9F9F0691A
:1045E000334908F033FC07F087FF00950B4602467D
:1045F000294803F09DFE02212E4806F0E9F92648DD
:1046000003F03EFED6F8AC30002B32DD1D213648DB
:1046100006F0DEF9F06D08F0C5FB344908F016FC31
:1046200007F06AFF022502460B4600951A4803F080
:104630007FFE01212E4806F0CBF9174803F020FE3B
:104640001F212C4806F0C4F9306E08F0ABFB274957
:1046500008F0FCFB07F050FF009502460B460E48A1
:1046600003F066FE0121224806F0B2F90A4803F081
:1046700007FE1121204806F0ABF9D6F8AC30062B26
:1046800000F26286DFE813F09C0697065C06B0062F
:10469000AB06A606A10600BFC887FF1F3093FF1F09
:1046A0006F12833AE094FF1FDC1F0100FC1F010022
:1046B00000007A44601E01001C200100402001001F
:1046C0005C200100602001007C200100D026010058
:1046D000181E0100341E0100641E01007426010032
:1046E000781E0100A41E0100BC1E0100CDCCCC3DF3
:1046F00060230100DC1E0100FC1E010006F002F92F
:1047000006F03CF90028F9D1BF48C04E03F0B8FDCF
:10471000BD4803F0B5FDBC4803F0B2FDBA4803F054
:10472000AFFDB94803F0ACFD1F21B94806F050F9C0
:10473000B54803F0A5FD1E21B64806F049F9B24878
:1047400003F09EFD1A21B44806F042F9F36F022BE4
:1047500000F03C87032B00F03087012B00F03F87EF
:104760000921AE4806F034F9A74803F089FD142169
:10477000AB48A64F06F02CF9B16FA34803F0D0FD6B
:10478000A14803F07DFD1C21A64806F021F9D6F8CA
:1047900080109D4803F0C4FD9B4803F071FD1C216F
:1047A000A14806F015F9D6F8A810974803F0B8FD0F
:1047B000954803F065FDF56F25F00205012D00F029
:1047C000B6861321994806F003F98F4803F058FD87
:1047D00002232360FFF757BB06F094F806F0CEF8EB
:1047E0000028F9D1884803F04BFD874803F048FDC5
:1047F000854803F045FD844803F042FD824803F0FC
:104800003FFD13218A4806F0E3F87F4803F038FDA6
:104810000D21884806F0DCF87B4803F031FD0F21BC
:10482000854806F0D5F8854B7748196803F078FD80
:10483000754803F025FD1321814806F0C9F8814B26
:104840007148196803F06CFD6F4803F019FD1221DF
:104850007D4806F0BDF87D4B6B48196803F060FD9C
:10486000694803F00DFD1121794806F0B1F8794B44
:104870006548196803F054FD634803F001FD0E21FB
:10488000754806F0A5F8614B5F48D3F89C1003F01B
:1048900047FD5D4803F0F4FC1921704806F098F8D4
:1048A0006F4B5948196803F03BFD574803F0E8FC8B
:1048B00011216C4806F08CF86B4B5348196803F0D3
:1048C0002FFD514803F0DCFC1021684806F080F809
:1048D000674B4D48196803F023FD4B4803F0D0FCAB
:1048E0001C21644806F074F8634B4748196803F0CC
:1048F00017FD454803F0C4FC13214C4806F068F846
:10490000414803F0BDFC04232360FFF7BCBA2368D1
:104910002868FFF791B93D4E96F84000FFF731BA8D
:1049200006F02CF800287FF769AB3748374E03F0C4
:1049300039FE08F037FA514908F03CFB65230122A3
:10494000706122602B601846FFF798B906F016F8E0
:1049500000287FF753AB2C482C4E03F023FE08F0C1
:1049600021FA464908F026FB65230122F061226006
:104970002B601846FFF782B906F000F800287FF791
:104980003DAB2148214E03F00DFE00EB80004300BB
:1049900001226520F36522602860FFF76FB905F0FA
:1049A000EDFF00287FF72AAB1748184E03F0FAFDF9
:1049B00000EB8000430001226520336622602860FE
:1049C000FFF75CB9114AD2F8AC300133062BC8BFEF
:1049D0000023C2F8AC300123652023602860FFF774
:1049E0004DB905F0CBFF00287FF708AB0648074E0E
:1049F00003F0D8FD65230122C6F8B00022602B60C9
:104A00001846FFF73BB900BFC887FF1F3093FF1F51
:104A1000202201004022010060220100D822010072
:104A2000E4220100FC2201001C230100641E01009D
:104A30003C21010050210100602101006894FF1F0A
:104A400070210100D894FF1F84210100BC94FF1F36
:104A500098210100C094FF1FAC210100BC2101007E
:104A60008C94FF1FD82101008894FF1FEC210100C6
:104A70006C92FF1F002201005887FF1F00007A443C
:104A80007A4B93F8BC20002A00F04485002283F87A
:104A9000BC20A0E7FEF7F0FE23682868FFF7C9B83E
:104AA000724AD36F0133032BC8BF0023D36701239E
:104AB000632023602860FFF7E1B86C4EB36FB3FA50
:104AC00083F35B0901226320B36722602860FFF74C
:104AD000D5B8664ED6F88030B3FA83F35B0901226D
:104AE0006320C6F8803022602860FFF7C7B8012332
:104AF000236005F043FF0028D9DD5D485B4E03F0DD
:104B000051FDC6F8A800D2E70123236005F036FF67
:104B1000002807DD5648554E03F044FD08F042F9E1
:104B2000C6F88C00632028602368FFF785B801234E
:104B3000236005F023FF0028F4DD4D484B4E03F0C1
:104B400031FD08F02FF9C6F88800EBE70123236058
:104B500005F014FF0028E5DD4548444E03F022FD32
:104B6000A6F8B600DEE7434A1368B3FA83F35B099D
:104B700001216420136021602860FFF77FB83E4A5E
:104B8000F2E73E4A3E4F1368002B0CBF012300237F
:104B90004FF001001360206040F0F9840346642266
:104BA0002A606420FFF745B8364ADDE72F4ED6F875
:104BB0009C30B3FA83F35B0901226420C6F89C3071
:104BC00022602860FFF75AB801232F482360FCF7C2
:104BD000DFFC2E4A23681060E1E72D4AC4E72D4A26
:104BE000C2E70123236005F0C9FE002800F3978483
:104BF000294B1A68042AC4BF02221A6064232B605E
:104C00002368CEE705F0BAFE00280DDD1848174EE0
:104C100003F0C8FC08F0C6F8204908F0CBF90122DF
:104C20006223306222602B6005F0A8FE00280EDDB2
:104C30000F480E4E03F0B6FC08F0B4F8174908F020
:104C4000B9F901226223C6F8B80022602B6005F092
:104C500095FE002840F3D6830548044E03F0A2FCDD
:104C600001226223B06622602B601BE03093FF1F9D
:104C7000C887FF1F6894FF1FD894FF1FBC94FF1FB5
:104C80008492FF1FC094FF1FE094FF1F8C94FF1FAE
:104C90008894FF1F6C92FF1F5887FF1F00007A4403
:104CA00005F030FE05F06AFE05460028F8D1C2483E
:104CB00003F0E6FAC04803F0E3FABF4803F0E0FA75
:104CC000BD4803F0DDFABC4803F0DAFA1521BB4811
:104CD00005F07EFEB84803F0D3FA1421B84805F079
:104CE00077FEB54803F0CCFA1B21B64805F070FEFC
:104CF000B14803F0C5FA1321B34805F069FEAE4888
:104D000003F0BEFAAC4803F0BBFAAB4803F0B8FAC4
:104D10002021AE4805F05CFEF068AD4908F096F839
:104D200007F0EAFB009502460B46A34803F000FBA0
:104D30000221A84805F04CFE0221A74805F048FED4
:104D40009D4803F09DFA2121A44805F041FE3069F9
:104D50009F4908F07BF807F0CFFB009502460B4611
:104D6000954803F0E5FA02219A4805F031FE022148
:104D7000994805F02DFE904803F082FA1F219848CB
:104D800005F026FEB06A07F0B7FB022702460B4685
:104D90000097894803F0CCFA0121924805F018FEEB
:104DA00039468D4805F014FE834803F069FA202146
:104DB0008D4805F00DFEF06A07F09EFB0097024655
:104DC0000B467D4803F0B4FA0121864805F000FE49
:104DD0003946814805F0FCFD774803F051FA23215C
:104DE000824805F0F5FDB06C794908F02FF807F01E
:104DF00083FB009502460B466F4803F099FA39464B
:104E0000744805F0E5FD3946734805F0E1FD6A4850
:104E100003F036FA1F21764805F0DAFDF06C6C4994
:104E200008F014F807F068FB009502460B4662484C
:104E300003F07EFA3946674805F0CAFD39466648F0
:104E400005F0C6FD5C4803F01BFA1921694805F01E
:104E5000BFFDB16D584803F063FA3946664805F066
:104E6000B7FD39465C4805F0B3FD534803F008FA36
:104E70001821624805F0ACFD706E07F093FF6049A1
:104E800007F0E4FF07F038FB009702460B464A485C
:104E900003F04EFA01215B4805F09AFD39464E4871
:104EA00005F096FD444803F0EBF92B21564805F038
:104EB0008FFDB069464907F0C9FF07F01DFB00955B
:104EC00002460B463C4803F033FA3946414805F0A8
:104ED0007FFD3946404805F07BFD374803F0D0F9A7
:104EE0001F214A4805F074FD716D334803F018FA2C
:104EF0003946394805F06CFD2F4803F0C1F92021EF
:104F0000434805F065FD316D2B4803F009FA394639
:104F1000314805F05DFD284803F0B2F910213D4805
:104F200005F056FDB16E244803F0FAF939462948D8
:104F300005F04EFD3946284805F04AFD1E4803F0AD
:104F40009FF91321344805F043FDF16E1A4803F030
:104F5000E7F90121314805F03BFD39461E4805F0CF
:104F600037FD154803F08CF910212D4805F030FD70
:104F7000316F114803F0D4F93946164805F028FD81
:104F80003946154805F024FD0B4803F079F9142142
:104F9000244805F01DFD716F074803F0C1F9012198
:104FA0001E4805F015FD39460B4805F011FD024875
:104FB00003F066F9162137E0C887FF1FA823010018
:104FC000C0230100D8230100641E0100F423010066
:104FD00000007A44601E01008C27010018240100A3
:104FE0003C240100D01901005C2401008024010050
:104FF000A4240100C4240100E0240100E4240100F1
:10500000CDCCCC3D60230100002501002C25010002
:105010004C25010070250100842501009825010020
:105020009C250100B0250100BA4805F0D1FC306A8A
:10503000B94907F00BFF07F05FFA009502460B46EF
:10504000B64803F075F93946B54805F0C1FC394654
:10505000B44805F0BDFCB14803F012F92421B24870
:1050600005F0B6FCD6F8B800AB4907F0EFFE07F044
:1050700043FA00950B460246A84803F059F9394611
:10508000A74805F0A5FC3946A64805F0A1FCA348B1
:1050900003F0F6F8A14803F0F3F803232360FEF7CA
:1050A000F2BE05F06BFC002840F3AC819B489F4E9C
:1050B00003F078FA07F076FE974907F07BFF0122AC
:1050C0006223306122602B60ECE505F057FC00287C
:1050D00040F398819148954E03F064FA07F062FE20
:1050E00001226223B06222602B60DBE505F046FC02
:1050F000002840F3878189488C4E03F053FA07F06B
:1051000051FE01226223F06222602B60CAE505F0A5
:1051100035FC002840F376818048844E03F042FA43
:1051200007F040FE7C4907F045FF01226223B0648E
:1051300022602B60B6E505F021FC002840F3628177
:1051400076487A4E03F02EFA0122622330652260FF
:105150002B60A7E50022732322602B60FEF732BE8E
:10516000734B7048714E002202211A6005F030FC2A
:105170006A4803F085F80B216E4805F029FC0221EE
:10518000684805F025FC654803F07AF8012262239F
:1051900022602B6086E505F0F1FB002840F33281A8
:1051A0005E48624E03F0FEF90122622370672260BE
:1051B0002B6077E5FCF7B4FF02215A485B4E05F0FF
:1051C00007FC564803F05CF80221564805F000FC45
:1051D000524803F055F80221524805F0F9FB4F48B8
:1051E00003F04EF81721544805F0F2FB4B4803F04A
:1051F00047F8C4E705F0C2FB002840F303814748A5
:105200004A4E03F0CFF907F0CDFD434907F0D2FE37
:1052100001226223F06022602B6043E505F0AEFBC3
:10522000002840F3EF803D48404E03F0BBF907F003
:10523000B9FD394907F0BEFE01226223F064226005
:105240002B602FE505F09AFB002840F3DB80334804
:10525000364E03F0A7F901226223B06522602B606D
:1052600020E505F08BFB002840F3CC802B482F4E27
:1052700003F098F900EB800043000121622273667D
:1052800021602A600EE505F079FB002840F3BA8022
:105290002248264E03F086F907F084FD1E4907F0E8
:1052A00089FE01226223B06122602B60FAE405F0DE
:1052B00065FB002840F3A68018481C4E03F072F9E5
:1052C00001226223F06622602B60EBE405F056FBBE
:1052D000002840F397801148144E03F063F901222F
:1052E0006223306722602B60DCE4C02200210F487B
:1052F00003F04CFA2868114AA0F173000121002341
:10530000B0FA80F0400911602360FEF759BD04F047
:10531000C7FC00BFC825010000007A44C887FF1FF2
:10532000601E01008C270100E02501003093FF1F63
:105330006092FF1F0C1E0100F41D01003887FF1F43
:105340000C21BE4805F044FBBD48BE4D02F098FF5D
:10535000D6F8AC30002B12DD1821BB4805F038FB25
:10536000D5F8B010B64802F0DBFF0221B74805F0CF
:105370002FFBB34802F084FFB14802F081FF1B21EC
:10538000B34805F025FB96F8BC30012B15BF122160
:105390001421B048B04805F01BFBA94802F070FF8B
:1053A0001321AE4805F014FBA54802F069FF06235F
:1053B0002360FEF768BD0C21A94805F009FBC3E78F
:1053C0000D21A84805F004FBBEE70421A64805F01E
:1053D000FFFAB9E70B21A54805F0FAFAB4E70D2169
:1053E000A34805F0F5FAAFE70D21A24805F0F0FA61
:1053F000AAE72368002B08BF73280CBF01200020F8
:10540000FEF7DEBC23682868012B7EF4D3ACFEF7E0
:1054100035BC05F0B3FA00287EF760AD8848894EA8
:1054200003F0C0F861230122A6F8B40022602B60CB
:105430001846FEF723BC05F0A1FA00287EF74EAD12
:105440007F48804E03F0AEF807F0ACFC61230122E8
:10545000B06322602B601846FEF710BC05F08EFA90
:1054600000287EF73BAD7648764E03F09BF807F0B8
:1054700099FC814907F0EAFC6123012270622260F5
:105480002B601846FEF7FABB05F078FA00287EF785
:10549000CDAD6B486B4E03F085F801226B23C6F847
:1054A000900022602B60FEF711BF05F067FA00281C
:1054B0007EF7BCAD6248634E03F074F801226B23A3
:1054C000C6F8940022602B60FEF700BF05F056FA84
:1054D00000287EF7ABAD5A485A4E03F063F8674B8D
:1054E000C6F8A00002221A60FDF766F901226B23BC
:1054F00022602B60FEF7EABE05F040FA00287EF736
:1055000095AD4F484F4E03F04DF85C4BC6F8A400E4
:105510000322E8E7012283F8BC20FFF75CBA484881
:1055200003F040F8564B02461860FFF763BB1C219E
:10553000544805F04DFAD7F88C00534907F086FC23
:1055400006F0DAFF009502460B463D4802F0F0FEF9
:1055500005214E4805F03CFA394802F091FEFD6FF6
:10556000012D45D0032D7FF42CA91C21484805F0BE
:105570002FFAB6F8B610324802F0D2FE03214548A1
:1055800005F026FA2E4802F07BFEFFF71AB9424BCF
:10559000002631460B201E6003F090FC31460C20A3
:1055A00003F08CFC3146142003F088FC31461520B2
:1055B00003F084FC3B68FFF7F2BA2021374805F07E
:1055C00007FA1F4802F05CFEFFF7D1B817213448F4
:1055D00005F0FEF91A4802F053FEFFF7C8B81E2185
:1055E000304805F0F5F9164802F04AFEFFF7BFB85B
:1055F0001D212D4805F0ECF9D7F88800224907F065
:1056000025FC06F079FF00950B4602460C4802F097
:105610008FFE05211D4805F0DBF9094802F030FE38
:10562000FB6F23F00203012B9FD0FFF7CAB8054E92
:10563000FFF738BB034EFEF749BE00BF301F010025
:10564000C887FF1F3093FF1F741F0100901F0100C8
:10565000941F0100B01F0100C41F0100641E01005F
:10566000201F0100101F01006C1F0100601F0100BE
:10567000501F0100401F01006F12833A8894FF1FE2
:105680005887FF1F3C230100CDCCCC3D5C2301009B
:1056900084230100A4230100D494FF1F9C22010055
:1056A000C02201007C2201006423010038B5164CA1
:1056B000164A2368101D12F8011F904241EA032385
:1056C000F9D12360124C03F100432360114BDB6FCF
:1056D000022B11D0104B1B68012B00D038BD0F4896
:1056E00002F0CEFD21680D4802F01AFE03210C489D
:1056F000BDE8384005F06CB920680A4D07F052FB50
:105700002860FDF71BFBE5E74492FF1F7F94FF1F16
:10571000A094FF1F3093FF1F6894FF1FC887FF1FCF
:105720001C2701006492FF1F30B53F4C3F4883B0F7
:10573000214601F003FD236840F2C232934258D063
:105740006FF4C0615A18B2F5FF7F4CD903F10043E2
:105750006FF4C0621344B3F5FF7F3FD9344B1B682D
:10576000012B01D003B030BD324B1B68012BF9D1A6
:10577000314B32481B6801930A220023019902F041
:105780008FFD2268284B002ADB7945DB2C492D4808
:1057900008F03AFB2B4808F073FB0146294805F056
:1057A00017F92568204B15F0804526D1DB798BB1A0
:1057B000631925491A7A234808F026FB214808F086
:1057C0005FFB01461F4805F003F90135E379EDB2AF
:1057D000AB42EDD8194802F053FDC3E712491B480C
:1057E000FBF7F4FEBAE710491848FBF7EFFE236811
:1057F000ACE7FFF75BFF2368A2E7154D114C0FCD17
:105800000FC495E8030044F8040B204620F814194F
:10581000152105F0DDF8DDE70E490A4822F0604267
:1058200008F0F2FAB6E700BF7894FF1F74C1FF1FBB
:105830003887FF1F6894FF1F38C3FF1FC887FF1FEB
:10584000482701008892FF1F74270100E094FF1F82
:105850005C2701002027010008B5274802F010FD51
:105860000721264805F0B4F8112003F02DFB06218E
:10587000F8B1234805F0ACF8122003F025FB06210F
:1058800000B3204805F0A4F8122003F01DFB062108
:1058900008B31D4805F09CF8132003F015FB062102
:1058A00010BB1A4805F094F81348BDE8084002F010
:1058B000E7BC174805F08CF8122003F005FB062121
:1058C0000028DED1134805F083F8122003F0FCFA1B
:1058D00006210028DDD1104805F07AF8132003F0E6
:1058E000F3FA06210028DCD00C4805F071F80248D4
:1058F000BDE8084002F0C4BCC887FF1F8027010034
:105900008827010098270100A8270100C02701006F
:1059100090270100A0270100B0270100B82701004F
:1059200010B5254C2368042B27DC01210B2003F044
:10593000C5FA01210C2003F0C1FA0121142003F063
:10594000BDFA0121152003F0B9FAFF21162003F05A
:1059500035F9FF21172003F031F9FF21052003F06D
:105960002DF9FF21062003F029F9236801330A2BC2
:105970002360C4BF0023236010BD00210B2003F06F
:105980009DFA00210C2003F099FA0021142003F065
:1059900095FA0021152003F091FA0021162003F05A
:1059A0000DF90021172003F009F90021052003F06B
:1059B00005F90021D6E700BFB894FF1F10B50921F3
:1059C00082B0974803F096FD222003F03BFD954BF3
:1059D0001B78052B0BD8DFE813F00A010F01140127
:1059E00019011E01060007218F4803F083FD2220C4
:1059F00003F028FDFF2003F025FDFF2003F022FD2A
:105A00008A4CFF2003F01EFD0821894803F072FD37
:105A10002168884802F084FCFF2003F013FDFF207A
:105A200003F010FDFF2003F00DFD0921824803F073
:105A300061FD21687F4802F073FCFF2003F002FD46
:105A4000FF2003F0FFFCFF2003F0FCFC0C217B484F
:105A500003F050FD7A4B1C680021204607F0B2FB92
:105A6000002800F0C1802046764907F0A3FA06F02E
:105A700043FD002402460B4600946E4802F058FC99
:105A8000FF2003F0DFFCFF2003F0DCFCFF2003F02D
:105A9000D9FC09216C4803F02DFD6C48FBF700FF91
:105AA00006F02AFD009402460B46624802F040FCD4
:105AB000FF2003F0C7FCFF2003F0C4FCFF2003F02D
:105AC000C1FC0C21624803F015FD6048FBF746FF5E
:105AD00006F012FD009402460B46564802F028FCE0
