:1000000000800020BD0100009D79000055790000AE
:1000100055790000557900005579000055790000A8
:100020005579000055790000557900009D79000050
:100030009D79000055790000A9920000AD93000061
:100040009D7900009D7900009D7900009D79000058
:100050009D7900009D7900009D7900009D79000048
:100060009D7900009D7900009D7900009D79000038
:100070009D7900009D7900009D7900009D79000028
:100080009D7900009D7900009D7900009D79000018
:100090009D7900009D7900009D7900009D79000008
:1000A0009D7900009D7900009D7900009D790000F8
:1000B0009D790000716D00007D6D0000816D000074
:1000C0008D6D0000916D0000956D00009D79000020
:1000D0009D7900009D7900009D7900009D790000C8
:1000E0009D7900009D7900009D7900009D790000B8
:1000F0009D7900006D9900009D790000118000003D
:100100009D790000298300009D7900009D79000001
:100110009D7900009D7900009D7900009D79000087
:100120009D7900009D7900009D7900009D79000077
:100130009D7900009D7900009D7900009D79000067
:100140009D7900009D7900009D7900009D79000057
:100150009D7900009D7900009D7900009D79000047
:100160009D790000758500009D7900009D79000053
:100170009D7900009D7900009D7900009D79000027
:100180009D7900009D7900009D7900009D79000017
:100190009D7900009D7900009D7900009D79000007
:1001A0009D7900009D7900009D7900009D790000F7
:1001B0009D7900009D7900009D790000564B4CF21E
:1001C000205210B51A804DF628121A8000BF00BFC9
:1001D00007F0E8FB514B4FF010621A60504A9A60EA
:1001E000504ADA60504A136813F4807304D14F49BF
:1001F0000B604FF4A85313604D4B1A78110703D5C9
:100200001A7842F008021A704A4B4B492A221A7097
:100210004A4A4B4B8B4204D252F8040F43F8040B6A
:10022000F8E7484B484900228B4202D243F8042B9E
:10023000FAE74649464A002352F8230041F82300D2
:1002400001336F2BF8D1434B434A802103F8011B44
:100250009342FBD1414B3D4A1A60414B8A221A70AE
:10026000A3F5805324225A70A0221A709A7992071B
:10027000FCD59A79D406FCD43A4A937903F00C035E
:10028000082B384BF9D103221A7140225A719A79FE
:100290009006FCD5334A9179324B4906FBD5324A58
:1002A000324911600221516020221A709A7902F0BD
:1002B0000C020C2AFAD12E4B2E4A1A602E4B2F4AD2
:1002C0001A6000225A60072243F8042C2C4AC3F813
:1002D0000C2D62B607F01CFE144B1B68DA0705D51F
:1002E000284807F0F9FB284B284A1A60284B1B784E
:1002F0005B0609D5244C254B22689A4204D121483B
:1003000007F0EAFB002323600BF034FE07F050FBFC
:1003100009F0ECF9FEE700BF0E20054030800440F4
:10032000823F04000100002B10D0034014D0034092
:1003300002D0074000E007402892FF1F2C1A01005E
:100340002087FF1F2892FF1FF4C5FF1F0082FF1F99
:100350000000000000E400E05FE400E008ED00E0E1
:100360000050064000400640448004400000030165
:1003700004800440C010050014E000E0FF76010096
:1003800000002020FB9E3B5C1CE00340A5C3945A68
:1003900000F00740FFFFFFFFFFFFFFFFFFFFFFFF32
:1003A000FFFFFFFFFFFFFFFFFFFFFFFFFFFFFFFF5D
:1003B000FFFFFFFFFFFFFFFFFFFFFFFFFFFFFFFF4D
:1003C000FFFFFFFFFFFFFFFFFFFFFFFFFFFFFFFF3D
:1003D000FFFFFFFFFFFFFFFFFFFFFFFFFFFFFFFF2D
:1003E000FFFFFFFFFFFFFFFFFFFFFFFFFFFFFFFF1D
:1003F000FFFFFFFFFFFFFFFFFFFFFFFFFFFFFFFF0D
:10040000FFFFFFFFFFFFFFFFFFFFFFFFDEF9FFFF23
:1004100010B5054C237833B9044B13B10448AFF33E
:1004200000800123237010BD2892FF1F00000000F0
:10043000281A0100084B10B51BB108490848AFF352
:1004400000800848036803B910BD074B002BFBD0A0
:10045000BDE81040184700BF000000002C92FF1FAD
:10046000281A01002892FF1F00000000F0B400F1DC
:100470001C06134F00243146031F00F13C0243F8D1
:10048000044FB34241F8047F4FF0000542F8044F97
:10049000F5D10C4A0C490566002345668566C5669C
:1004A000056745678567C0F88850C267C0F8842033
:1004B000C0F8801080F8903080F8A830F0BC704709
:1004C0000000A040000048430000C8C22DE9F041F0
:1004D00090F8A84084B0202364008DF80530E4B281
:1004E000042380468DF804408DF80630032720460B
:1004F00007F0B6FE02210DF1050007F0BBFE8DF8F6
:10050000044005F0AFFD30B30921404808F066FD16
:100510000023102221463E4808F062FF01213D4899
:1005200008F05CFD002310229DF80510384808F003
:1005300057FF0121374808F051FD002310229DF894
:100540000610334808F04CFF0121324808F046FD00
:100550002F4808F035FF02208DF8044007F08AFC90
:1005600005F080FD00284CD102AE002407F098FE73
:1005700070B3072C1FD101E007F0A2FE07F090FE38
:100580000028F9D105F06EFD10B1214808F018FFE0
:100590009DF80B009DF80C109DF80D209DF80E3075
:1005A000C8F89400C8F89810C8F89C20C8F8A03083
:1005B00004B0BDE8F08107F083FE054606F8010BA4
:1005C00005F050FD70B9013407F06AFE0028D0D163
:1005D000072CD3D005F046FD78B9013FD8D09DF85F
:1005E000044084E7E9B200231022094808F0F8FE2D
:1005F0000121084808F0F2FCE5E7054808F0E0FEB4
:10060000EBE70721044808F0E9FCADE71801010019
:10061000C887FF1F1C0801002401010090F8980002
:10062000704700BF90F89400704700BF90F89C009E
:10063000704700BF90F8A000704700BF082994BF22
:1006400050F82100002070472DE9F0410B4E804604
:10065000041F00F11C0754F8045F314628460BF0D4
:10066000FFFB30B1D8F88C1028460BF017FC00B116
:100670002E46BC42EFD13046BDE8F081000020415B
:100680002DE9F041D0F88C704FF00008041F00F104
:100690001C0654F8045F394628460BF0FFFB084956
:1006A00048B128460BF0DCFB414620B128460BF050
:1006B000F5FB00B1A846B442EBD14046BDE8F0815D
:1006C000000070422DE9F047D0F88C7082464FF060
:1006D0000009041F00F11C064FF0000854F8045FE5
:1006E000394628460BF0DAFB0C4950B128460BF08E
:1006F000B7FB30B1484629460BF00CF908F1010868
:100700008146B442EAD1CAF8AC8040460BF0B6F953
:10071000014648460BF0BAFABDE8F0870000704287
:10072000D0F8AC00704700BF38B5846E456E2146E6
:1007300028460BF095FB00B92C46204638BD00BF7B
:10074000D0F8A4302DE9F041002B79D1866E456EAA
:100750000446314628460BF0DDF8E76E3946804600
:100760000BF0D8F87E490BF091FA4FF07C5104461B
:100770000BF094FB002861D04FF07C5128460BF021
:100780008DFB4FF07C51002860D128460BF068FBB0
:1007900038B14FF07C5130460BF080FB002840F020
:1007A000A7804FF07C5128460BF078FB002860D1E1
:1007B0004FF07C5128460BF071FB002840F0A180DF
:1007C0004FF07C5128460BF069FB00286CD14FF0AC
:1007D0007C5128460BF044FB4FF07C5110B330465F
:1007E0000BF05CFB38B14FF07C5138460BF038FB16
:1007F000002840F0B0804FF07C5130460BF030FBC9
:10080000002861D04FF07C5138460BF047FB0028A0
:1008100040F0A38038464FF07C510BF021FB68B1CB
:10082000504C10E028460BF01BFB0028E3D1284673
:100830004FF07C510BF014FB002845D1BDE8F0814E
:1008400000EB8300046E2046BDE8F08130460BF0DB
:1008500025FB4FF07C5100283ED038460BF01EFBA4
:100860000028F0D14FF07C5128460BF0F9FA00280F
:1008700059D14FF07C5130460BF0F2FA002840D0AD
:100880004FF07C5138460BF009FB002841D14FF066
:100890007C5130460BF002FB68B14FF07C5138467A
:1008A0000BF0DEFA00284FD14FF07C5130460BF0B0
:1008B000D7FA00288BD04FF07C5138460BF0D0FA95
:1008C000002884D02C46BEE730464FF07C510BF018
:1008D000C7FA0028B2D09DE728460BF0C1FA0028DD
:1008E000C7D04FF07C5130460BF0D8FA0028C0D06A
:1008F0004FF07C5138460BF0D1FA00283FF451AF4D
:1009000018E04FF07C5130460BF0C8FA0028CBD0ED
:10091000C3E7394628460AF0FDFF4FF07C510BF043
:1009200001F904468FE74FF07C5138460BF0B6FAD8
:1009300000289ED0394630460AF0ECFF4FF07C513B
:100940000BF0F0F804467EE740464FF07C510BF088
:10095000E9F8044677E7344675E73C4673E700BF9D
:10096000000040400000A0C270B50446FFF7E8FE5A
:100970004FF07C510BF092FA28B3666E4FF07C5129
:1009800030460BF08BFAA56EF0B9E46E4FF07C5157
:1009900028460BF083FA58B1294630460BF07EFA10
:1009A00030B1214628460BF05BFA08B12C4620E016
:1009B0004FF07C5120460BF071FA20B128462146B9
:1009C0000BF06CFA78B970BD304629460BF048FA46
:1009D000E46E0028DAD0304621460BF041FA0028B8
:1009E000D4D0344605E0304621460BF057FA0028B3
:1009F000E9D0204670BD00BF01392DE9F84380469B
:100A00001546032900F2E280DFE801F0AE855C02C2
:100A1000537B107B03EB00200BF030F86D490BF09B
:100A200081F8C8F81800EB7BA87B03EB00200BF0E3
:100A300025F868490BF076F8D8F86860D8F8647043
:100A4000D8F80040C8F81C004046FFF78DFFD8F8E2
:100A50007C1005460BF004FA08B1C8F87C50394602
:100A600030460BF01BFA002840F0A7803946D8F832
:100A700080000BF0F5F910B13E46C8F8806008F12F
:100A80002006C14608F14005002701E059F8044F4F
:100A9000306821460BF002FA0137214628B1D8F818
:100AA0008C000BF0E7F900B13460214628680BF0A8
:100AB000D7F9043600B12C60082F05F10405E5D103
:100AC000BDE8F883507A32380AF0D8FFC8F87400CD
:100AD000A87A32380AF0D2FFC8F878006B7B287BFE
:100AE00003EB00200AF0CAFF3A490BF01BF8C8F8E4
:100AF0001000EB7BA87B03EB00200AF0BFFF354919
:100B00000BF010F8D8F86860C8F81400D8F86470D2
:100B1000D8F8004098E7507A32380AF0AFFFC8F8AA
:100B20006C00A87A32380AF0A9FFC8F870006B7B15
:100B3000287B03EB00200AF0A1FF26490AF0F2FF10
:100B4000C8F80800EB7BA87B03EB00200AF096FFB7
:100B500020490AF0E7FFD8F86860C8F80C00D8F818
:100B60006470D8F800406FE7137AC0F8B030907A1C
:100B700032380AF083FFC8F864000746E87A323852
:100B80000AF07CFFC8F868006B7B0646287B03EB05
:100B900000200AF073FF0F490AF0C4FFC8F80000F4
:100BA000EB7B0446A87B03EB00200AF067FF0949B2
:100BB0000AF0B8FFC8F8040046E7D8F880103046BD
:100BC0000BF06CF900287FF458AF58E7866E476E3B
:100BD000046839E70AD7233C2DE9F04F90F8A83094
:100BE00091B007465B008DF80830FFF76FFCD7F82F
:100BF0009C00D7F8A040D7F89830D7F8942097F801
:100C0000A8108DE81100C94805F032FB30223D23C1
:100C100003268DF809208DF80A300DF10A059DF89C
:100C2000089049F00108404607F01AFB0DF1090051
:100C3000022107F01FFB8DF80880424602AB00201E
:100C40005040082410F0800F4FEA400018BF80F099
:100C50000700013CC0B2F5D19D4202D013F8012F2C
:100C6000EEE707F0FDFA05F0FDF9002840F07C8280
:100C700002208DF8089007F0FDF805F0F3F9002840
:100C800040F0B8820DF10C0AD146002407F008FBB1
:100C9000002843D0032C34D101E007F011FB07F00A
:100CA000FFFA0028F9D105F0DDF910B1A04808F0ED
:100CB00087FB312303268DF809308DF80A609DF8F3
:100CC000089049F00108404607F0CAFA0DF1090002
:100CD000022107F0CFFA8DF80880424602AB0020CF
:100CE0005040082410F0800F4FEA400018BF80F0F9
:100CF0000700013CC0B2F5D19D4228D013F8012F66
:100D0000EEE707F0DDFA09F8010B804605F0AAF9D5
:100D100068B9013407F0C4FA0028BBD1032CBED057
:100D200005F0A0F978B9013E7FF479AFC1E75FFA29
:100D300088F1002310227E4808F052FB01217D48F3
:100D400008F04CF9E5E77A4808F03AFBEBE707F0E2
:100D500087FA05F087F9002840F0C58102208DF858
:100D6000089007F087F805F07DF9002840F03D82F3
:100D70000DF10C09002407F093FA002844D0032C4D
:100D800035D101E007F09CFA07F08AFA0028F9D182
:100D900005F068F910B1664808F012FB342201230F
:100DA0008DF809208DF80A3003269DF8089049F047
:100DB0000108404607F054FA0DF10900022107F03E
:100DC00059FA8DF80880424602AB002050400824B2
:100DD00010F0800F4FEA400018BF80F00700013C80
:100DE000C0B2F5D19D4228D013F8012FEEE707F0ED
:100DF00067FA09F8010B804605F034F968B9013447
:100E000007F04EFA0028BAD1032CBDD005F02AF91C
:100E100078B9013E7FF453AFC0E75FFA88F1002351
:100E20001022434808F0DCFA0121424808F0D6F8C5
:100E3000E5E73F4808F0C4FAEBE707F011FA05F0E0
:100E400011F9002840F00E8102208DF8089007F07B
:100E500011F805F007F9002840F0D6810DF10C09D2
:100E6000002407F01DFA002800F08480032C72D1C2
:100E700001E007F025FA07F013FA0028F9D105F090
:100E8000F1F810B12A4808F09BFA012212238DF8DC
:100E900009208DF80A304FF003089DF808402046DD
:100EA00007F0DEF902210DF1090007F0E3F98DF8F2
:100EB000084005F0D7F830B309211F4808F08EF834
:100EC0000023102221461A4808F08AFA0121194805
:100ED00008F084F8002310229DF80910144808F047
:100EE0007FFA0121134808F079F8002310229DF8B9
:100EF0000A100F4808F074FA01210E4808F06EF845
:100F00000B4808F05DFA06208DF8084006F0B2FFA5
:100F100005F0A8F8002840F0728103AD002607F024
:100F2000BFF900283FD0162E2FD109E02C01010077
:100F3000C887FF1F1C0801001801010007F0C0F955
:100F400007F0AEF90028F9D105F08CF81626002834
:100F50007DD1152035E007F0B3F909F8010B804683
:100F600005F080F800285BD1013407F099F90028DA
:100F70007FF47CAF032C3FF47EAF05F073F80028BC
:100F80006CD1013E7FF411AF7FE707F099F905F8C6
:100F9000010B044605F066F800284DD1013607F034
:100FA0007FF90028BFD1162ECAD005F05BF80028C3
:100FB0004DD1B8F101087FF470AF701E002840F3E6
:100FC0002482002303AA1C4612F8011B08254C406A
:100FD00014F0800F4FEA440418BF84F00704013D69
:100FE000E4B2F5D101338342EEDB9DF821808948DC
:100FF0004146224605F03CF9162EC146A34602D1D1
:10100000A04500F0138197F8A8108348CDF800B0F0
:101010004B46324605F05AF9002011B0BDE8F08F7A
:101020005FFA88F1002310227C4808F0D9F90121E9
:101030007B4807F0D3FF97E7E1B2002310227748FF
:1010400008F0CEF90121764807F0C8FFA6E77348FB
:1010500008F0B6F9162EACD11520B2E76F4808F0AB
:10106000AFF98EE709216F4807F0B8FF2346102239
:1010700041466A4808F0B4F90121694807F0AEFF1B
:10108000234610229DF80910644808F0A9F90121AF
:10109000634807F0A3FF102223469DF80A105F481B
:1010A00008F09EF901215E4807F098FF21460DF1F6
:1010B0000B0002AA12F8014B6140C9B2082311F0DB
:1010C000800F4FEA410118BF81F00701013BC9B20F
:1010D000F5D19042EED11022504808F081F94F48E6
:1010E00008F06EF9B0E609214E4807F077FF234675
:1010F00010224146494808F073F90121484807F099
:101100006DFF234610229DF80910444808F068F945
:101110000121434807F062FF102223469DF80A1080
:101120003E4808F05DF901213D4807F057FF214690
:101130000DF10B0002AA12F8014B6140C9B208235D
:1011400011F0800F4FEA410118BF81F00701013B08
:10115000C9B2F5D19042EED11022304808F040F9E2
:101160002E4808F02DF9F9E509212E4807F036FF41
:10117000234610224146294808F032F90121284827
:1011800007F02CFF234610229DF80910234808F091
:1011900027F90121224807F021FF102223469DF85C
:1011A0000A101E4808F01CF901211D4807F016FF1F
:1011B00021460DF10B0002AA12F8014B6140C9B2A1
:1011C000082311F0800F4FEA410118BF81F0070199
:1011D000013BC9B2F5D19042EED110220F4808F080
:1011E000FFF80E4808F0ECF842E507210E4807F03A
:1011F000F5FEBDE507210C4807F0F0FE42E50721AA
:10120000094807F0EBFE88E60721074807F0E6FEED
:1012100024E600BF60010100AC010100C887FF1F88
:101220001C08010018010100240101009DF80C3088
:1012300097F8A820B3EB420F7FF4EEAE9DF80D3087
:10124000012B7FF4E9AE9DF80E30122B7FF4E4AE53
:101250009DF810309DF80F0003EB00200AF00EFC03
:1012600072490AF05FFCD7F88810386604460AF025
:1012700015FE08B1C7F88840D7F8841020460AF058
:10128000EFFD08B1C7F88440A7F1040907F1200673
:1012900007F140054FF008089AF806309AF8050063
:1012A00003EB00200AF0EAFB61490AF03BFC49F835
:1012B000040F316804460AF0D3FD0AF1020A30B186
:1012C000D7F88C1020460AF0DFFD00B134602968A1
:1012D00020460AF0E3FD043600B12C60B8F10108A5
:1012E00005F10405D8D19DF81E309DF81D0003EBD3
:1012F000002002300AF0C2FB4E490AF0C7FC01464A
:101300004D480AF0C3FC4D490AF002FB4C490AF073
:1013100009FC054608F074FC0446284608F070FCF9
:10132000484908F0DFFC4849054620460AF0FAFB28
:1013300046490AF0EFFA4649044628460AF0F2FB0D
:10134000014620460AF0E6FA01464FF07E500AF0C8
:101350009DFC40490AF0DCFA9DF81F209DF82030E2
:10136000786603EB022009300AF088FB3A490AF05C
:101370008DFC014630480AF089FC30490AF0C8FA71
:101380002F490AF0CFFB054608F03AFC04462846F0
:1013900008F036FC2B4908F0A5FC2B4905462046F1
:1013A0000AF0C0FB29490AF0B5FA29490446284643
:1013B0000AF0B8FB014620460AF0ACFA01464FF0AD
:1013C0007E500AF063FC23490AF0A2FAB86604468C
:1013D0003846FFF7C9FAF96F05460AF041FD00B13A
:1013E000FD677D6E204629460AF058FDB0B92946B2
:1013F000D7F880000AF034FD10B12C46C7F88040C1
:10140000164804F035FF012007E69DF821901448A6
:1014100049464246C34604F02BFFF4E5D7F8801056
:1014200020460AF03BFD0028E8D1E9E71357053BC9
:101430002003C839001601470AD7E33FE17A644028
:1014400000007A4400004040A40D8F395A80473A8A
:1014500046A6DB3333938843002C01478401010007
:10146000600101002DE9F8430026D0F88C80066663
:101470008146044600F1200754F8045B41462846A3
:101480000AF00CFD084950B128460AF0E9FC30B1D9
:10149000304629460AF03EFA0646C9F86000BC42CA
:1014A000EAD13046BDE8F8830000704205299ABFB2
:1014B00000EB8100406E0020704700BF3E2998BFBE
:1014C00080F8A810704700BF90F89000704700BFE8
:1014D000C0F8A410704700BF80F89010704700BF9C
:1014E00030B50F4CC0F88C1083B020460D4607F085
:1014F00067FF204607F064FF284609F069FE0225D1
:1015000002460B460095204607F0B2FF204607F042
:1015100057FF204603B0BDE8304007F051BF00BF81
:10152000C887FF1F70B500F5315506462C3500F110
:1015300020042046B434FEF799FFAC42F9D106F1FD
:10154000D405012428460021FFF7C6FF214628467E
:101550000134FFF7B3FF3F2C05F1B405F2D142F699
:10156000744400250548064A064B35550021306174
:101570007161B261F361304670BD00BF00007A4412
:10158000000048430000C8C22DE9F04142F678430C
:1015900000F53156374600228046C2502C36383787
:1015A00000F1D40402E0B434B4420DD02046FFF779
:1015B0008BFF0028F7D020463D68FFF7B1F8B43420
:1015C0002844B4423860F1D142F6784358F8030019
:1015D000BDE8F081F8B50E46096801F47F65002981
:1015E0000446A5F5C06511DB2D0901F00F07B423F2
:1015F00003FB0544203420460121FFF76DFF3246EE
:1016000039462046BDE8F840FFF7F6B90A4801F030
:101610000F0707F0D5FE1221084807F0DFFC3168FC
:10162000054801F0004100230A2207F0D9FE0248D4
:101630002D0907F0C5FEDAE7C887FF1FFC0101008E
:10164000704700BF704700BF2DE9F04304460023F8
:1016500083B0064644F8D43B012504E001353F2D14
:1016600004F1B40469D02046FFF72EFF0028F5D01E
:10167000504804F0FDFD29464F4804F0F9FD20468E
:10168000FFF7AAFA2046FFF7EDFE09F0A1FD02469A
:101690000B464A4804F0ECFD2046FEF7D5FF804695
:1016A0002046FEF7EDFF0746404609F091FD8046D3
:1016B0003846894609F08CFD42464B46CDE900018B
:1016C0003F4804F0D5FD00212046FFF7EFFE012141
:1016D00080462046FFF7EAFE0746404609F078FDBF
:1016E00080463846894609F073FD42464B46CDE9AF
:1016F0000001344804F0BCFD2046FFF7B3FE01466C
:1017000030680AF007F930602046FFF72DF9B1691B
:101710000AF0A6FB002833D12046FFF705F8F1694F
:101720000AF0BCFB002899D02046FEF7FDFF0135EA
:101730003F2DF06104F1B40495D170680AF09EF970
:10174000014630680AF0A2FA7169306004460AF076
:10175000A5FB00B17461316920460AF081FB00B13C
:1017600034610B2006F050FB42F67443F35C60B921
:101770009BB142F674430122F25403B0BDE8F083FA
:101780002046FFF7F1F8B061C6E753B942F674435B
:101790000022F25403B0BDE8F0830B4804F096FD3C
:1017A000E7E70A4804F07CFD42F674430022F25455
:1017B000F0E700BFF8030100100201004C02010035
:1017C000600201008C020100A8020100E002010099
:1017D00070B5114B836000F5315506462C3500F18C
:1017E000D40402E0B434AC4213D02046FFF76CFEC0
:1017F0000028F7D02046FEF727FFB1680AF030FB3B
:101800000028EFD02046FEF71FFFB434AC42B06092
:10181000EBD1B06870BD00BF0000A04070B50023E0
:1018200000F531550646C3602C3500F1D40402E0C2
:10183000B434AC4213D02046FFF746FE0028F7D060
:101840002046FEF71DFFF1680AF028FB0028EFD0C4
:101850002046FEF715FFB434AC42F060EBD1F068DF
:1018600070BD00BF0068704741607047F8B500F573
:1018700031550F4616462C3500F1D40402E0B4343D
:10188000AC420FD02046FFF71FFE0028F7D02046BD
:101890003946FFF71DFE20463146B434FFF720FEDF
:1018A000AC42EFD1F8BD00BF2DE9F84300F531554A
:1018B00042F670432E4600278146C7504FF000087D
:1018C0002C35303600F1D40402E0B434AC4213D0ED
:1018D0002046FFF7F9FD0028F7D033680133336065
:1018E0002046FEF72DFF0F490AF0D8FA88B9B43424
:1018F000AC4207F10107EBD142F6704359F80300FF
:10190000C01B0AF0BBF8014640460AF0BFF9BDE82B
:10191000F8832046FEF714FF0146404609F0FAFF1F
:101920008046D2E700008CC2F8B500F53155074675
:1019300000262C3500F1D40402E0B434AC420FD0C0
:101940002046FFF7C1FD0028F7D02046FEF7BAFE7B
:101950000146304609F0DEFFB434AC420646EFD112
:1019600042F67043F8580AF089F8014630460AF00A
:101970008DF9F8BD2DE9F04F06468FB09B488B4698
:1019800004F01EFC994804F01BFC984804F018FC75
:1019900042F670433046F2580D92FFF7F5FD73683A
:1019A0000C930746306809F013FC804630468946A0
:1019B000FFF7BAFF82463046B468F568FFF774FF58
:1019C00009F006FCCDE90A012146284609F0A0FFEE
:1019D00087490AF0A7F809F0FBFBCDE90801284682
:1019E00009F0F6FBCDE90601204609F0F1FBCDE94F
:1019F0000401504609F0ECFB0D9A0C9BCDE9020165
:101A0000CDE9008911467B483A4604F0D9FB774876
:101A100004F0D6FBD4364FF001084FF0000A07E07F
:101A200008F10108B8F13F0F06F1B40600F0D580C7
:101A30003046FFF749FD0028F2D03046FEF7EEFDB4
:101A40003046FEF7EFFD3046FEF7F0FD3046FEF77C
:101A5000F1FD0821684807F0C1FA4146674807F0E0
:101A6000FFFCB8F1090F40F3BB800221644807F086
:101A7000B5FA3046FFF7F6FC09F0AAFB5FFA8BF9DE
:101A800002460B46CDF800905C4807F0F1FC0121BE
:101A90005C4807F0A3FA5546002420E006215A4886
:101AA00007F09CFA2946554807F0DAFC022157480E
:101AB00007F094FA21463046FEF7C0FD09F088FB96
:101AC000CDF8009002460B464C4807F0D1FC01349B
:101AD00001214C4807F082FA082C09D03D46092D17
:101AE00005F10107DADC0121494807F077FAD5E76B
:101AF000424807F065FC0921464807F06FFA0021CB
:101B00003046FFF7D3FC09F063FB022402460B4684
:101B100000943A4807F0ACFC0A213F4807F05EFA0F
:101B200001213046FFF7C2FC09F052FB0094024647
:101B30000B46324807F09CFC0A21384807F04EFA61
:101B400021463046FFF7B2FC09F042FB0094024602
:101B50000B462A4807F08CFC0A21314807F03EFA70
:101B600003213046FFF7A2FC09F032FB0094024645
:101B70000B46224807F07CFC0A212A4807F02EFA7F
:101B800004213046FFF792FC09F022FB0094024644
:101B90000B461A4807F06CFC0A21234807F01EFA8E
:101BA00005213046FFF782FC09F012FB0094024643
:101BB0000B46124807F05CFC01211C4807F00EFAA6
:101BC00008F101080D4807F0FBFBB8F13F0F0AF1DF
:101BD000080A06F1B4067FF42BAF0FB0BDE8F08F12
:101BE00001210B4807F0FAF93FE700BFF8030100B5
:101BF00000007A449005010030060100C887FF1FED
:101C0000D41301003C060100400601000C0801004D
:101C10001C0801004806010054060100600601008E
:101C20006C060100780601008406010090060100A0
:101C30002DE9F04100F1D40582B0012705E001371C
:101C40003F2F05F1B40500F08B802846FFF73CFCE0
:101C50000028F4D03946444807F002FC01214348EB
:101C600007F0BCF900244FF0020821462846FEF791
:101C7000E5FC09F0ADFACDF8008002460B463A4883
:101C800007F0F6FB01340121384807F0A7F9082CCA
:101C90004FF00206E9D100212846FFF707FC09F0C2
:101CA00097FA009602460B462F4807F0E1FB012108
:101CB0002E4807F093F901212846FFF7F7FB09F0BA
:101CC00087FA009602460B46274807F0D1FB012110
:101CD000264807F083F931462846FFF7E7FB09F06D
:101CE00077FA009602460B461F4807F0C1FB012118
:101CF0001E4807F073F903212846FFF7D7FB09F0C8
:101D000067FA009602460B46174807F0B1FB01211F
:101D1000164807F063F904212846FFF7C7FB09F0CE
:101D200057FA009602460B460F4807F0A1FB012127
:101D30000E4807F053F905212846FFF7B7FB09F0D5
:101D400047FA009602460B46074807F091FB013719
:101D5000054807F035FB3F2F05F1B4057FF475AF5B
:101D600002B0BDE8F08100BFC887FF1F94060100E4
:101D7000F8B53148314C324F324E04F021FA324B33
:101D8000324A334933485A60012510221A701D72B5
:101D9000314A324DD9601C613149586100243148C3
:101DA0005F621E62304F9A614FF07C562F4A9D62EF
:101DB000D9622F4D1C630E2140F61C4458630A2043
:101DC0009F635E6441F204075A269A64DD6402222E
:101DD000284D19659C6600216424D8664FF49670DE
:101DE0001F675E67DD61DD6383F8401099675866A1
:101DF000D8654FF47A7741F28830FF265A705A72CC
:101E00005A6505259C65DA67C3F88010C3F89C10F5
:101E10003221C3F8AC20C3F8B040C3F89870C3F8BF
:101E2000A460A3F8B650C3F89000A3F8B400C3F8B8
:101E30009410C3F8A010F8BD9806010000004040BF
:101E4000CDCCCC3D333373403493FF1F20A107002A
:101E50006666864033338340CDCC4C4000008242DE
:101E6000000020C1000020420000A0409A99794063
:101E70000AD7233DCDCC4C3EF0B54FF47A6085B007
:101E800005F0F8FF00210E2005F0CCFF00210F2007
:101E900005F0C8FF0021112005F0C4FF002110202B
:101EA00005F0C0FF0021122005F0BCFF0021132027
:101EB00005F0B8FF01210B2005F0B4FF01210C2033
:101EC00005F0B0FF0121142005F0ACFF0121152021
:101ED00005F0A8FF0121162005F0A4FF012117201D
:101EE00005F0A0FF0121052005F09CFF8E4C8F4DD1
:101EF0000121062005F096FF01210D2005F092FF3B
:101F0000208809F0B7FD0146162005F0F5FE20886F
:101F100009F0B0FD0146172005F0EEFE208809F01B
:101F2000A9FD0146052005F0E7FE208809F0A2FD85
:101F300000240146062005F0DFFE009423467C4A7B
:101F40007C497D4804F0BCFBE6B2324677497A48CA
:101F500004F064FB2B79754977486FF30003013473
:101F600032462B7104F050FB082CEDD10924E6B267
:101F700032466E49704804F051FB2B796B496E482C
:101F800043F00103013432462B7104F03DFB0D2C6C
:101F9000EDD16A4C4FF0FF322068102104F05CFF55
:101FA00020684FF0FF32102104F02EFF20684FF020
:101FB000FF32022104F03CFF20684FF0FF32022183
:101FC00004F040FF00220E21206804F04FFF0C2196
:101FD0005B4807F003F85B4807F0F2F914215A4810
:101FE00006F0FCFF574807F0EBF9564807F0E8F910
:101FF0001721564806F0F2FF524807F0E1F9544B1A
:102000001B789A0600F1BE80514B1B781B0700F12C
:10201000C5804F4B1B785F0700F1CC804C4B1B7881
:102020009E0700F1D3804B4B1B781D0600F1DA8030
:10203000484B1B785C0600F1E180464B1B78980604
:1020400000F1E880434B1B78590700F1EF80414BCA
:102050001B781A0700F1F6803E4B1B789B0700F1B6
:10206000FD80384807F0ACF972B63B4A4CF2205379
:102070004DF628112024138023461180013BFDD109
:10208000364D3748374900234FF480562E80038061
:102090000B8032F80E3C9BB243F0D30322F80E3C87
:1020A00062B69D2006F08CF821462F482F4D06F091
:1020B00095FF244807F084F905F1B8062F462C4611
:1020C000601B05F0B5FB04F8010BB442F8D13B7876
:1020D000102B01D0FFF74CFE2548FFF7B3FA042080
:1020E00003F0BAFF234B224800221A60FFF7A8FA38
:1020F00001210D2005F082FE796D1D48FFF7B4FB2C
:102100007A6C97F840101A48FFF7B0FB1A4B1B493E
:102110001A68039203981B680293029A184B08608E
:102120001A6005B0F0BD00BF2487FF1FF893FF1FA2
:10213000F0C2FF1F20A1070054C1FF1F9494FF1F8E
:10214000B8060100C887FF1FC8060100E0060100AD
:1021500001F0074000F007400E2005400420054034
:102160000620054016200540E40701003493FF1FB8
:10217000C894FF1F5492FF1FFCC2FF1FC094FF1F93
:102180000094FF1F2121394806F028FF384807F046
:1021900017F9384B1B781B077FF53BAF0C213648EE
:1021A00006F01CFF324807F00BF9324B1B785F0733
:1021B0007FF534AF0E21314806F010FF2C4807F0B0
:1021C000FFF82C4B1B789E077FF52DAF17212C486D
:1021D00006F004FF264807F0F3F82A4B1B781D068B
:1021E0007FF526AF0E21284806F0F8FE204807F0BC
:1021F000E7F8244B1B785C067FF51FAF12212348BC
:1022000006F0ECFE1A4807F0DBF81E4B1B78980628
:102210007FF518AF13211E4806F0E0FE144807F0C2
:10222000CFF8184B1B7859077FF511AF1C211948BF
:1022300006F0D4FE0E4807F0C3F8124B1B781A07BD
:102240007FF50AAF1921144806F0C8FE084807F0C8
:10225000B7F80C4B1B789B077FF503AF18210F488D
:1022600006F0BCFE024807F0ABF8FAE6F8060100FB
:10227000C887FF1F01F007401C0701002C07010061
:102280003C07010000F0074054070100640701000B
:10229000780701008C070100AC070100C8070100A6
:1022A00070B5464C464D4748E66800232B70FFF753
:1022B000B5FA0146304609F0D3FD08B104232B706E
:1022C0004048FFF785FA216909F0CAFD18B12B785B
:1022D00043F010032B703B48FFF7E6FAA16A09F0C0
:1022E000DDFD18B12B7843F040032B7000233548F7
:1022F0006B70FFF7D9FAE16A314E09F0B1FD08B110
:102300000123737000232F48EB70FFF787FA05460F
:102310002C482B4EFFF75CFA0146284609F0F8FAE4
:10232000E16B09F0BBFD08B10123F370264D254890
:1023300000232B70FFF772FA616A0646E06809F025
:10234000E7FA0146304609F0A9FD08B104232B70D5
:102350001C48FFF73DFA616A0646206909F0DAFA7F
:102360000146304609F07CFD18B12B7843F010038C
:102370002B701448FFF798FAA16B0646A06A09F083
:10238000C7FA0146304609F089FD18B12B7843F0B1
:1023900040032B7000230B486B70FFF785FAA16B8D
:1023A0000546E06A084C09F0B5FA0146284609F0EE
:1023B00057FD08B10123637070BD00BF3493FF1F48
:1023C0003093FF1FC894FF1FF093FF1F2DE9F041CA
:1023D0007C4C2368012B82B031D0022B00F0A88006
:1023E000032B00F0C8803BBB774B784AD3F8A01092
:1023F000D3F8A43012685B1A632B0EDD744803FB1C
:1024000002F380FB0302DB17C3EB621319440620BF
:1024100002B0BDE8F04105F071BB6E4803FB02233A
:1024200080FB0302DB17C3EB22121144062002B02B
:10243000BDE8F04105F062BB02B0BDE8F081664E38
:1024400033680A33B3F57A7F00F3B78018463360F8
:1024500009F014FB614909F065FB80465A4DD5F837
:10246000A00009F00BFB0746D5F8A40009F006FB15
:10247000394609F04DFA414609F054FB584909F034
:1024800005FC394609F046FA09F028FD0146062008
:1024900005F034FB0221534806F0A0FD524806F037
:1024A0008FFF0621514806F099FD306809F0E6FAE1
:1024B0004A4909F037FB08F08BFE022702460B461B
:1024C0000097494806F0D4FF0D21494806F086FDE3
:1024D000D5F8A00009F0D2FA8046306809F0CEFAAB
:1024E0003E4909F01FFB0646D5F8A40009F0C6FADC
:1024F000414609F00DFA0146304609F013FB384910
:1025000009F0C4FB414609F005FA08F061FE0097A6
:102510000B460246344806F0ABFF3946314806F018
:102520005DFD314806F04CFF2368022B7FF458AF65
:10253000294B254E00221A60D6F8A00009F09EFA19
:102540000546D6F8A40009F099FA294609F0E0F901
:10255000002109F0E7FA224909F098FB294609F021
:10256000D9F909F0BBFC0146062005F0C7FA23683B
:10257000032B7FF438AF184B134E4FF47A721A6066
:10258000D6F8A00009F07AFA0546D6F8A40009F0BA
:1025900075FA294609F0BCF9114909F0C3FA104946
:1025A00009F074FB294609F0B5F909F097FC0146DA
:1025B000062005F0A3FA236815E700234FF0000872
:1025C00033604BE77494FF1F3493FF1F3487FF1F62
:1025D0001F85EB51CBF08D285892FF1FCDCCCC3D01
:1025E0000000C842D4130100C887FF1F080801007B
:1025F0001008010070B5A248A24C06F0E1FEA04808
:1026000006F0DEFE9E4806F0DBFE0D219E4806F039
:10261000E5FCD4F89C30012B11D09C4C98482178D3
:1026200000230A2206F0DCFE2378052B67D8DFE8BA
:1026300013F0E900EE00F300F800FD00E4000921CA
:10264000934806F0CBFC9348FFF7C2F8216909F0E4
:1026500007FC18B10F21904806F0C0FC8D48FFF729
:10266000DDF8E16809F01AFC18B10E218B4806F07C
:10267000B5FC8848FFF7D2F805468648FFF7A8F86A
:102680000146284609F044F9E16B09F007FC18B14E
:102690001121834806F0A2FC7E48FFF705F9A16AE4
:1026A00009F0FCFB18B10C217E4806F097FC794834
:1026B000FFF7FAF8E16A09F0D3FB18B10D217A4867
:1026C00006F08CFC794B73481B68012B00F0C2802C
:1026D000FFF77EF821696B4D09F0E0FB78B16D489A
:1026E000FFF79CF8E96809F0BBFB40B1674B1B782A
:1026F000052B00F0C08008216D4806F06FFC022118
:102700006C4806F06BFC122005F07EFB012800F0FF
:102710009C80112005F078FB012800F09180664B29
:102720001B68012B00F087800221624806F056FCEE
:10273000624B5348196806F093FE514806F040FE7C
:1027400004215F4806F04AFC0B2005F05DFB0023E6
:1027500001460A224A4806F043FE0C2005F054FBCD
:10276000002301460A22464806F03AFE142005F0EE
:102770004BFB002301460A22414806F031FE15209A
:1027800005F042FB002301460A223D4806F028FEE0
:1027900006214C4806F022FC4B4B394819680222AE
:1027A000002306F01DFE0421484806F017FC112006
:1027B00005F02AFB002301460A22314806F010FEEC
:1027C000102005F021FB002301460A222C4806F0C8
:1027D00007FE122005F018FB002301460A222848B4
:1027E00006F0FEFD132005F00FFB002301460A2230
:1027F0002348BDE8704006F0F3BD0721344806F0D9
:10280000EDFB7CE70621334806F0E8FB77E707217C
:10281000314806F0E3FB72E70721304806F0DEFBA3
:102820006DE708212E4806F0D9FB68E70B212D48FB
:1028300006F0D4FB63E711212B4806F0CFFB73E7CA
:102840000A212A4806F0CAFB69E70E21284806F04B
:10285000C5FB5EE7FEF7BCFF216A09F01FFB0028FD
:102860003FF449AF1621234806F0B8FB0A2122485D
:1028700006F0B4FB43E70A211F4806F0AFFB3EE732
:10288000C887FF1F3493FF1F200801008094FF1F9B
:1028900030080100C894FF1F3C0801004C080100EB
:1028A0005C08010070080100800801006892FF1FA9
:1028B000B4080100D41301009C94FF1F7894FF1FFB
:1028C0002809010030090100EC93FF1F38090100BD
:1028D000F0080100C0080100C8080100DC08010080
:1028E000E4080100D00801001409010008090100F2
:1028F000F808010090080100A80801002DE9F04F38
:10290000934C944FE36F012B8DB000F04981032B62
:1029100050D0914E914DA36F9148012B09BF29686A
:10292000296801F10041296004F074FE3368002B2E
:1029300040F0CE808A4804F043FEE36F3860012BFC
:10294000064600F0D280874909F0A8FA78B986498E
:10295000304609F085FA50B9844A854B12680B92CB
:102960000B9A1A6000232B600DB0BDE8F08FDFF8E2
:10297000FC817F4CD8F800300A930A9823687D4F79
:10298000C01A09F077F8314609F0CCF87A4909F015
:102990007DF9794909F07AF9396808F0BBFFD8F870
:1029A00000300993099B2360002338602B600DB031
:1029B000BDE8F08FDFF8C881704DD8F80000664E92
:1029C000012300220E212B6004F050FA2B68012B0A
:1029D000336800F00381002B40F0A6810021D8F875
:1029E0000000DFF8B891664D04F092FA33681FFAE0
:1029F00080FBC9F800B0002B40F07B810021D8F8A3
:102A00000000564DDFF878A104F008FAB4F88630DB
:102A100040F6E44101FB0BF1B1FBF0F0C01A00B24B
:102A200009F02CF857498346D4F8880009F07AF861
:102A30000146584609F02AF9D9F800302860632B7E
:102A4000DFF858B100F3498100232B603368002B75
:102A50003FF461AF02214C4806F0C0FAD9F80020DB
:102A6000D8F8000040F6E443002103FB02F804F02C
:102A7000D5F9B8FBF0F008F0FDFF8046B4F8860009
:102A800008F0FCFF0146404608F042FF08F0A0FBBA
:102A90004FF0020802460B46CDF800803B4806F096
:102AA000E7FC4146384806F099FA286808F090FBA0
:102AB000CDF8008002460B46344806F0D9FC41466A
:102AC000334806F08BFA41462F4806F087FA22E792
:102AD000234804F075FD08F07BFB022602460B46F6
:102AE00000962A4806F0C4FC24E7244B1B68012BFF
:102AF00000F02681022B7FF435AF264909F0CEF98C
:102B000030B92549304609F0ABF9002800F047817B
:102B1000DFF85880164CD8F80030079307982368E0
:102B2000144FC01A08F0A6FF314608F0FBFF124907
:102B300009F0ACF8104909F0A9F8396808F0EAFE84
:102B4000D8F800300693069B386023600AE700BF80
:102B50003493FF1F7492FF1FBC94FF1F6492FF1FEA
:102B60000C93FF1F0000FA430000FAC3FCC2FF1FD2
:102B70009094FF1F7892FF1F00007A446487FF1F24
:102B80009494FF1F17B7D138D4130100C887FF1FD3
:102B90007C09010000C82F4800A08CC62C93FF1FA1
:102BA0003D689849284609F05BF930B128469649B6
:102BB00009F074F900287FF4FDAEDFF85882934DD8
:102BC000D8F80000924E022300220F212B6004F05F
:102BD0004DF92B68012B33687FF4FDAE002B40F0DC
:102BE00000810021D8F80000DFF86C92894D04F0D4
:102BF0008FF933681FFA80FBC9F800B0002B40F052
:102C0000D5800021D8F80000834D04F007F9B4F80E
:102C1000843040F6E44A0AFB0BFBBBFBF0F0C01A21
:102C200000B208F02BFF7D498346D4F88C0008F0F1
:102C300079FF0146584609F029F8D9F80030286094
:102C40000021D8F800000AFB03FA04F0E7F8B4F812
:102C50008430BAFBF0F00FFA80FAC3EB0A03002BC2
:102C6000B4F8B620B8BF5B429342BCBF00232B60D0
:102C70003368002B3FF44FAE0221694806F0AEF9ED
:102C8000D9F80020D8F8000040F6E443002103FB07
:102C900002F804F0C3F8B4F88410B8FBF0F000B206
:102CA000411A604806F0DCFB02215D4806F096F907
:102CB000286808F08DFA4FF0020802460B46CDF85E
:102CC0000080584806F0D4FB0321574806F086F9E7
:102CD0004146534806F082F91DE6DAF8000000216B
:102CE00004F09CF8DBF8003064389842FFF4ACAE96
:102CF000ACE60021286804F091F840F6E441002396
:102D00000A2201FB0BF1B1FBF0F1464806F068FB2B
:102D10000221434806F062F9B4F88610414806F0F3
:102D20009FFBD9F800B069E63E4806F049FB0C214C
:102D30003E4806F053F90C213D4806F04FF94DE6A8
:102D40003C4909F0ABF858B93B49304609F088F8DE
:102D500030B93A4A3A4B12680592059A1A6001E670
:102D6000DFF8D880364CD8F80030049304982368F4
:102D7000344FC01A08F07EFE314608F0D3FE3249C7
:102D800008F084FF304908F081FF396808F0C2FD7F
:102D9000D8F800300393039B38602360E2E5274AAC
:102DA000274B12680892089A1A60DBE50021286810
:102DB00004F034F840F6E44100230A2201FB0BF151
:102DC000B1FBF0F1174806F00BFB01211F4806F09C
:102DD00005F9B4F88410134806F042FBD9F800B0A6
:102DE0000FE7104806F0ECFAE36F012B4FF00B01F0
:102DF0000CBF1748174806F0F1F80C210C4806F0F4
:102E0000EDF8EEE600709446007094C66487FF1FEC
:102E1000BC94FF1F9494FF1F6492FF1F17B7D13813
:102E2000D4130100C887FF1F680901006C09010065
:102E3000580901000000FA430000FAC3FCC2FF1F5A
:102E40009094FF1F7892FF1F00007A441C08010035
:102E5000400901004C0901002C93FF1F2DE9F047A8
:102E6000B24D2B6884B0002B7ED0B14CDFF8C88205
:102E7000B04EE36FAE4D012B00F08F80D4F8803060
:102E8000AB4F012B00F0BC80D6F80090D7F858A0CB
:102E90007D6DA94F05FB0AF54FF47A7000FB05F034
:102EA00008F0ECFDA5490546484608F03BFE2946DA
:102EB00008F0ECFEA24908F035FE09F00FF863288F
:102EC000C8F800004BDD28469C4908F0DFFE64236B
:102ED00030603B609B4B1B68002B3DD0E36F944DF3
:102EE000012B00F0BB80032B00F00981022B00F0C6
:102EF0000C810221944806F071F8944B186808F090
:102F000067F9022402460B460094914806F0B0FA95
:102F10002146904806F062F821468B4806F05EF89C
:102F2000D8F800108A4806F09BFA06218A4806F075
:102F300055F83068814908F0F5FD08F049F900942A
:102F400002460B46824806F093FA0321834806F0B6
:102F500045F87F4806F034FA04B0BDE8F087002851
:102F6000BCBF00233B60B5E77D4E714C33680293D4
:102F7000029A42F228339A4200F2BA8033680393ED
:102F8000039A42F210739A4274D8E36FDFF8A88173
:102F9000684E674D012B7FF471AF7248FEF7C4FC99
:102FA0007149D5F86890EF6E08F0BCFD08F0BCFFE1
:102FB0002A6F6B6FC9EB0202DB1B80B29A42C9EB2E
:102FC000000040F3AD8003FB0000531C90FBF3F3C3
:102FD0001F44A06D636DC8F8007000FB07F003FB91
:102FE00000F000EB8000400008F048FD5349504FCE
:102FF00008F04CFED4F880303060012B7FF444AFF1
:103000005848FEF791FC5849D7F86890FD6E08F0D3
:1030100089FD08F089FF3A6F7B6FD4F858A0C9EB9F
:1030200002025B1B80B29A42C9EB0000C6BF03FBE1
:1030300000000132584390FBF2F02844656D00FB1C
:103040000AF005FB00F000EB8000400008F016FDE0
:103050003A4908F01BFE814630601AE7434B1B6873
:10306000012B4FF00A010CBF4148424805F0B6FF62
:10307000EB6F38E73B48FEF757FC3B49A76EE66E1F
:1030800008F050FD08F050FF226F636FD21B9B1BAE
:1030900080B29A42A0EB07003CDD03FB0000531C0A
:1030A00090FBF3F39819A26DDFF88C80636DC8F87C
:1030B000000002FB00F003FB00F000EB800040008A
:1030C00008F0DCFC1D491B4E08F0E0FD01233060D8
:1030D00002211D482B6005F081FF1D4806F070F9A4
:1030E0005921254805F07AFF194806F069F9C0E62C
:1030F0001C48626C94F84010FEF7B8FB3EE71021C4
:103100001E4805F06BFFE36FF0E607211C4805F051
:1031100065FFEEE603FB00F393FBF2F39819C2E7B9
:1031200003FB00F393FBF2F31F4452E75C92FF1F93
:103130003493FF1F7892FF1F3487FF1FE4388E3EC1
:103140000000C8427087FF1FD41301007492FF1F54
:10315000C887FF1F7C090100100A0100180A01003E
:10316000FCC2FF1FC894FF1F00007A446487FF1F42
:10317000DC090100E809010080090100F4090100EF
:10318000080A0100F0B5112083B004F03DFE0128CB
:1031900013D000210B2004F031FE00210C2004F09C
:1031A0002DFE0021152004F029FE1D491D4B012094
:1031B000002208701A6003B0F0BD014604461520D5
:1031C00004F01CFE1849194A194B09680191D2F8FC
:1031D00090001B680199134D034402268B422E6018
:1031E00017D8D2F8980008F049FC124B196808F07B
:1031F00037FE074668B921460B2004F0FFFD084A58
:10320000032339460C2016702B6004F0F7FD03B041
:10321000F0BD01210C2004F0F1FD03B0F0BD00BFB2
:103220008094FF1FB894FF1FFCC2FF1F3493FF1F41
:10323000C094FF1F7492FF1FF0B5684E684D34684C
:103240002B689C4287B039D014F0010155D014F09E
:10325000020149D014F004013DD0E3070ED52B68DC
:10326000DF070BD45F4F3A68002A00F082805E4B84
:103270001B680193019B93426DD83468A0070DD55C
:103280002B6899070AD4594F3A68002A4CD0564BFC
:103290001B680393039B934238D8346862070DD5AB
:1032A0002B685B070BD4524F3A68002A7ED04E4BF6
:1032B0001B680593059B934268D834680CB107B02E
:1032C000F0BD2146162004F019FC2146172004F019
:1032D00015FC07B0F0BD052004F010FC2B68346825
:1032E00003F0FB032B60B8E7172004F007FC2B6802
:1032F000346803F0FD032B60ACE7162004F0FEFBFE
:103300002B68346803F0FE032B60A0E7394B1720CD
:10331000D3F8941004F0F2FB2B68346843F00203F6
:1033200000222B603A60B9E7334806F049F80C21D7
:10333000324805F053FE304806F042F8FF211720CE
:1033400004F0DCFB284B2E4A19680291029912689E
:103350000A443A609CE7274B1620D3F8941004F0F7
:10336000CDFB2B68346843F0010300222B603A60E8
:1033700084E7FF21162004F0C1FB1B4B204A19688B
:103380000091009912680A443A6071E7194B0520D0
:10339000D3F8941004F0B2FB2B68346843F00403B4
:1033A00000222B603A60002C89D18AE7124806F08F
:1033B00007F80C21134805F011FE0F4806F000F83D
:1033C000FF21052004F09AFB074B0D4A1968049170
:1033D000049912680A443A606AE700BFB894FF1F74
:1033E000EC93FF1F6894FF1FFCC2FF1F6C94FF1F2C
:1033F0007094FF1F3493FF1FC887FF1F1C0A010032
:103400006C87FF1F2C0A01002DE9F8434B4DDFF8B4
:10341000589128684A4E4B4F00220E2103F026FD9A
:10342000012322214848C9F8003005F0D7FD336850
:10343000132B1EDC40F6E4480021286803F068FDE9
:1034400000210446286803F0E9FC3B88A4B201216E
:1034500008FB04F4B4FBF0F43C481C443C8005F049
:10346000BDFD642004F006FD33680133132B336087
:10347000E2DD3B88364A3748A2FB03129B1A02EB77
:103480005303C3F30F1319463B8005F0E9FF1D21D9
:103490003148324F05F0A2FD0221314805F09EFD72
:1034A0002C4805F08DFF00231A460F212868336051
:1034B00003F0DCFC022322212348C9F8003005F088
:1034C0008DFD3368132B1EDC40F6E448002128688C
:1034D00003F01EFD00210446286803F09FFC3B8892
:1034E000A4B2012108FB04F4B4FBF0F417481C4417
:1034F0003C8005F073FD642004F0BCFC33680133AC
:10350000132B3360E2DD3B88114A1248A2FB031201
:103510009B1A02EB5303C3F30F1319463B8005F0CC
:103520009FFF1D210F4805F059FD02210C4805F0B1
:1035300055FD0848BDE8F84305F042BF9494FF1FCD
:103540007C94FF1F5087FF1F3C0A0100800A010086
:1035500087611886C887FF1F600A01005287FF1F16
:10356000D4130100840A01006487FF1FF8B5774B6C
:10357000774C784D1B68286D40F25131082221604C
:10358000E271002B00F0DD8008F078FA296A064627
:1035900008F0C8FA704908F0C5FA08F0C5FC80B216
:1035A000031263726D4A6E4B12681B68A969207220
:1035B0001512A37230461B12E3722273657308F072
:1035C000B1FA654908F0AEFA08F0AEFC83B21A12FF
:1035D0005F496448A373E27303F06AFA624B634A7B
:1035E0001B6812885A49A272DFB207EB870603EB09
:1035F0008305760045F3D71512121B122772267326
:1036000065730826002540F255375648E27263720A
:103610002760E671A573E57303F04AFA40F256336A
:1036200053482360E671FEF71DF9524908F07AFA13
:1036300008F07AFC20724E48FEF714F94D4908F064
:1036400071FA08F071FC4C4A4A49C0F3072310682C
:10365000637208F01BFB08F041FC40FA06F20346D7
:103660004348E272A372FEF71FF93B4908F05AFA89
:1036700008F05AFC20733E48FEF716F9364908F068
:1036800051FA08F051FC3249A573C0F307233548BD
:103690006373E57303F00CFA022004F0EBFB374B85
:1036A0002B49187893F801E09F78DA78207240F27D
:1036B0005A332C48E67125736573A573E57384F856
:1036C00009E0A772E272236003F0F2F92C4B204963
:1036D00018785D789A782072187993F803E05F790A
:1036E0006572A2729D79DA79207340F25E331D48CB
:1036F00084F80BE0E2732360E6716773A57303F04F
:10370000D7F9022004F0B6FB1E4BE6711D785A78FB
:1037100093F802E0D8781F795E79257262729D79FC
:10372000DA79E0724FF45C7384F80AE02773667309
:10373000A573E273236006490A48BDE8F84003F028
:10374000B7B908F09BF96969064621E76892FF1F3F
:10375000A894FF1F3493FF1F000020418C94FF1F8B
:103760004C92FF1F54C1FF1F3487FF1F3887FF1F74
:10377000C894FF1F0000C8427492FF1F3093FF1FC0
:103780002887FF1F5487FF1F38B5284B1B68012B64
:1037900000D038BD264D2748FEF71AF8E96C08F02E
:1037A000B9F804462348FEF739F80146204608F0E8
:1037B00057FB0028EDD0204C1E4840F2C3320823AE
:1037C0002260E371FEF704F8AD6C294608F048FB6F
:1037D000B8B11A49284608F0A5F908F0A5FB80B24F
:1037E00003126072237200230122A272E372237318
:1037F0006373A373E37310491148BDE8384003F0C5
:1038000057B90C48FDF7E4FF0C4908F08BF908F0B4
:103810008BFBC0F3072307482372FDF7D9FF074945
:1038200008F080F908F080FB6072DCE79C94FF1FD1
:103830003493FF1FC894FF1FA894FF1F0000C842C5
:1038400054C1FF1FF0B5984C984D83B005F060FB54
:1038500023682860042B00F0A482022B4BD0082B95
:1038600000F09280072B40F04981332801F0A583B6
:1038700000F3A680312801F0B383322840F0A980FC
:1038800005F082FB002840F337818948894E05F016
:1038900029FF08F0F3F8884908F044F96123012270
:1038A000F06322602B601846A0F152031F2B01F237
:1038B0006283DFE813F0060B600B600B600B600B9C
:1038C000600B600B600B600B600B600B600B600BA0
:1038D000600B600BB003790C3705A5057104600B14
:1038E000600B600B2404600B7C0C600B600B600BA6
:1038F000600B600BF40AA0F13102422A69D8DFE8BC
:1039000012F0EB062C07D106F7060A071907680024
:103910006800680068006800680068006800680067
:103920006800680068006800680068006800680057
:103930006800680068006800680068006800680047
:103940006800680068006800680068006800680037
:103950006800680068006800680068006800680027
:103960006800680068002607680068006800680052
:103970006800680068006800680068006800680007
:10398000680064006800E306322800F0278371288D
:103990001BD031281DD105F0F7FA002840F34086EE
:1039A0004348444E05F09EFEC0B286F8400002280F
:1039B0008ABF0021014686F84010726C3F4821E31F
:1039C000342801F0E882712803D10023732023609A
:1039D0002860002B08BF73280CBF0120002000289E
:1039E00060D0334805F0ECFC0421354805F0F6FAC8
:1039F0002F4805F0E5FC1021324805F0EFFA2C487D
:103A000005F0DEFC1321304805F0E8FA2F4B28487A
:103A1000196805F025FD264805F0D2FC14212C4834
:103A200005F0DCFA224805F0CBFC1E21294805F000
:103A3000D5FA1F4805F0C4FC1521274805F0CEFA39
:103A40001B4805F0BDFC1E21244805F0C7FA1848A4
:103A500005F0B6FC2021224805F0C0FA144805F014
:103A6000AFFC19211F4805F0B9FA114805F0A8FC70
:103A700012211D4805F0B2FA0D4805F0A1FC0F21F6
:103A80001A4805F0ABFA0A4805F09AFC0D211848CF
:103A900005F0A4FA064805F093FC164A002101231C
:103AA0001160236003B0F0BDC494FF1F7092FF1F2C
:103AB000C887FF1F3493FF1F6F12833AC894FF1FFC
:103AC00050120100581201006C1201002087FF1FE4
:103AD0008012010098120100B8120100D0120100FA
:103AE000F01201001413010030130100441301000F
:103AF000541301007087FF1F23682868062B40F0CD
:103B00008D80A0F13102402A3FF663AF01A151F848
:103B100022F000BF334500005F4500008B450000E8
:103B2000B1450000D7450000F5450000D33900003D
:103B3000D3390000D3390000D3390000D339000055
:103B4000D3390000D3390000D3390000D339000045
:103B5000D3390000D3390000D3390000D339000035
:103B6000D3390000D3390000D3390000D339000025
:103B7000D3390000D3390000D3390000D339000015
:103B8000D3390000D3390000D3390000D339000005
:103B9000D3390000D3390000D3390000D3390000F5
:103BA000D3390000D3390000D3390000D3390000E5
:103BB000D3390000D3390000D3390000D3390000D5
:103BC000D3390000D3390000D3390000D3390000C5
:103BD000D3390000D3390000D3390000D3390000B5
:103BE000D3390000D3390000D3390000D3390000A5
:103BF000D3390000D3390000D3390000D339000095
:103C0000D3390000D3390000D3390000D339000084
:103C1000D3390000CB39000023682868052B15D163
:103C2000332801F0F38140F34781352801F01582F4
:103C3000C1F2FD8171287FF4CCAEDC4A00237320F1
:103C4000136023602860C4E623682868032B40F0D3
:103C5000A480A0F13002422A3FF6BBAE01A151F888
:103C600022F000BF713D0000574C00007F4C000067
:103C7000A74C0000C94C0000EB4C0000134D0000A5
:103C80003B4D0000594D00007D4D0000D339000030
:103C9000D3390000D3390000D3390000D3390000F4
:103CA000D3390000D3390000D3390000D3390000E4
:103CB000D3390000D3390000D3390000D3390000D4
:103CC000D3390000D3390000D3390000D3390000C4
:103CD000D3390000D3390000D3390000D3390000B4
:103CE000D3390000D3390000D3390000D3390000A4
:103CF000D3390000D3390000D3390000D339000094
:103D0000D3390000D3390000D3390000D339000083
:103D1000D3390000D3390000D3390000D339000073
:103D2000D3390000D3390000A54D00003948000008
:103D3000FF4D0000C34D0000E14D00001D4E00008E
:103D400015480000D3390000D3390000D3390000F2
:103D5000D3390000D3390000D3390000D339000033
:103D6000D3390000D3390000734E00007F4E0000AD
:103D700005F00AF9002841F307818D488D4E05F0C2
:103D8000B1FC01270346014662228B487365276018
:103D90002A60FDF769FD23682868012B7FF419AEBE
:103DA00082E5A0F13102402A3FF613AE01A151F89D
:103DB00022F000BF11480000B5470000F3470000A3
:103DC000B9470000BD470000D9470000EF47000099
:103DD000774700008F470000D3390000D339000037
:103DE000D3390000D3390000D3390000D3390000A3
:103DF000D3390000D3390000D3390000D339000093
:103E0000D3390000D3390000D3390000D339000082
:103E1000D3390000D3390000D3390000D339000072
:103E2000D3390000D3390000D3390000D339000062
:103E3000D3390000D3390000D3390000D339000052
:103E4000D3390000D3390000D3390000D339000042
:103E5000D3390000D3390000D3390000D339000032
:103E6000D3390000D3390000D3390000D339000022
:103E7000D3390000D3390000D3390000D339000012
:103E8000D3390000D3390000D3390000D339000002
:103E9000D3390000D3390000D3390000D3390000F2
:103EA000D3390000D3390000D3390000D3390000E2
:103EB000D3390000CB390000312801F0DC803228F2
:103EC0007FF487AD05F060F800287FF7BDAE384875
:103ED000384E05F007FC01226B23C6F898002260DB
:103EE0002B6001E005F014F805F04EF80028F9D138
:103EF0002F4805F065FA2E4805F062FA2C4805F0C7
:103F00005FFA2B4805F05CFA294805F059FA21219F
:103F10002A4805F063F8264805F052FA152128488A
:103F200005F05CF8D6F89010214805F099FA0221C6
:103F3000244805F053F81E4805F042FA1E21224895
:103F400005F04CF8D6F89810194805F089FA0321C5
:103F50001E4805F043F8164805F032FA1E211C48A9
:103F600005F03CF8D6F89410114805F079FA10489D
:103F700005F026FA1D21174805F030F8D6F8A010F4
:103F80000B4805F06DFA0A4805F01AFA1E2112488E
:103F900005F024F8D6F8A410054805F061FA0448A5
:103FA00005F00EFA052323607CE500BF7494FF1F23
:103FB000C887FF1F3493FF1FC894FF1FF00C010038
:103FC000140D0100480C01002C0D010068090100CE
:103FD0004C0D01006C0D01008C0D010004F0D4FFAC
:103FE000002840F31983B548B54E05F07BFB07F078
:103FF00045FDB44907F096FD96F840100346024689
:10400000B1487364FDF732FC012369202360286006
:104010004AE404F07DFF04F0B7FF05460028F8D11C
:10402000A648A74E05F0CCF9A44805F0C9F9A34865
:1040300005F0C6F9A14805F0C3F9A04805F0C0F99C
:104040001F21A24804F0CAFF9C4805F0B9F91C21C1
:104050009F4804F0C3FF706A9E4907F063FD07F0B4
:10406000B7F8009502460B46944805F001FA022184
:10407000994804F0B3FF914805F0A2F9232197482D
:1040800004F0ACFFF06B934907F04CFD07F0A0F88B
:10409000009502460B46894805F0EAF902218E4850
:1040A00004F09CFF854805F08BF919218C4804F039
:1040B00095FFB06B07F08CF802250B460246009581
:1040C0007E4805F0D5F92946864804F087FF7B48ED
:1040D00005F076F91921844804F080FFB6F8B41091
:1040E000764805F0BDF90321804804F077FF734856
:1040F00005F066F907232360D4E404F009FF04F017
:1041000043FF05460028F8D16C486D4E05F058F97C
:104110006A4805F055F9694805F052F9674805F015
:104120004FF9664805F04CF91521714804F056FF27
:10413000624805F045F918216E4804F04FFF2B4600
:104140000A2296F840105D4805F04AF95B4805F0F0
:1041500037F92821684804F041FF706C5D4907F089
:10416000E1FC07F035F800950B460246534805F090
:104170007FF90221584804F031FF504805F020F93A
:1041800013215E4804F02AFF4C4805F019F9082372
:10419000236087E404F0BCFE04F0F6FE0546002828
:1041A000F8D14648464E05F00BF9444805F008F9A9
:1041B000424805F005F9414805F002F93F4805F08D
:1041C000FFF811214E4804F009FF3C4805F0F8F8CB
:1041D00028214C4804F002FF70693E4907F0A2FC18
:1041E00006F0F6FF009502460B46344805F040F90C
:1041F0000221394804F0F2FE304805F0E1F81621BA
:10420000414804F0EBFEF069324907F08BFC06F000
:10421000DFFF00950B460246284805F029F90221E8
:104220002D4804F0DBFE254805F0CAF8D6F8AC307E
:10423000002B32DD1D21354804F0D0FEF06D07F073
:104240001DFC334907F06EFC06F0C2FF0225024652
:104250000B460095194805F00BF901212D4804F093
:10426000BDFE164805F0ACF81F212B4804F0B6FE41
:10427000306E07F003FC264907F054FC06F0A8FF57
:10428000009502460B460D4805F0F2F80121214841
:1042900004F0A4FE094805F093F811211F4804F02A
:1042A0009DFED6F8AC30052B00F22686DFE813F031
:1042B00059065E0654064F064A062006C887FF1FA9
:1042C0003493FF1F6F12833AC894FF1F4C0C0100F8
:1042D0006C0C010000007A441C0B01008C0C0100E6
:1042E000B00C0100CC0C0100D00C0100EC0C010062
:1042F00018130100D40A0100F00A0100200B01008C
:10430000BC120100340B0100600B0100780B0100AE
:10431000CDCCCC3DD00F0100980B0100B80B0100B3
:1043200004F0F6FD04F030FE0028F9D1BF48C04E7D
:1043300005F046F8BD4805F043F8BC4805F040F8E4
:10434000BA4805F03DF8B94805F03AF81F21B948D8
:1043500004F044FEB54805F033F81E21B64804F0D9
:104360003DFEB24805F02CF81A21B44804F036FEA0
:10437000F36F022B00F0E786032B00F0DB86012BA6
:1043800000F0EA860921AE4804F028FEA74805F0AF
:1043900017F81421AB48A64F04F020FEB16FA348D4
:1043A00005F05EF8A14805F00BF81C21A64804F0C2
:1043B00015FED6F880109D4805F052F89B4804F091
:1043C000FFFF1C21A14804F009FED6F8A810974869
:1043D00005F046F8954804F0F3FFF56F25F0020567
:1043E000012D00F061861321994804F0F7FD8F48F4
:1043F00004F0E6FF02232360FFF754BB04F088FDBE
:1044000004F0C2FD0028F9D1884804F0D9FF87489C
:1044100004F0D6FF854804F0D3FF844804F0D0FFB1
:10442000824804F0CDFF13218A4804F0D7FD7F486D
:1044300004F0C6FF0D21884804F0D0FD7B4804F04D
:10444000BFFF0F21854804F0C9FD854B77481968E7
:1044500005F006F8754804F0B3FF1321814804F015
:10446000BDFD814B7148196804F0FAFF6F4804F0F4
:10447000A7FF12217D4804F0B1FD7D4B6B48196800
:1044800004F0EEFF694804F09BFF1121794804F025
:10449000A5FD794B6548196804F0E2FF634804F014
:1044A0008FFF0E21754804F099FD614B5F48D3F8EA
:1044B0009C1004F0D5FF5D4804F082FF192170487C
:1044C00004F08CFD6F4B5948196804F0C9FF574838
:1044D00004F076FF11216C4804F080FD6B4B5348CB
:1044E000196804F0BDFF514804F06AFF10216848C4
:1044F00004F074FD674B4D48196804F0B1FF4B4858
:1045000004F05EFF1C21644804F068FD634B4748DB
:10451000196804F0A5FF454804F052FF13214C48E8
:1045200004F05CFD414804F04BFF04232360FFF7D7
:10453000B9BA04F029FD00287FF76EAB3B483C4E2A
:1045400005F0D0F807F09AFA554907F09FFB65236C
:104550000122706122602B601846FFF7A5B904F0B4
:1045600013FD00287FF758AB3048314E05F0BAF8FC
:1045700007F084FA4A4907F089FB65230122F061BC
:1045800022602B601846FFF78FB904F0FDFC00286D
:104590007FF742AB2548264E05F0A4F800EB8000DB
:1045A000430001226520F36522602860FFF77CB993
:1045B00004F0EAFC00287FF72FAB1C481C4E05F0E6
:1045C00091F800EB800043000122652033662260F1
:1045D0002860FFF769B9164AD2F8AC300133052BD1
:1045E000C8BF0023C2F8AC306520012323602860D7
:1045F000FFF75AB904F0C8FC00287FF70DAB0B4851
:104600000B4E05F06FF865230122C6F8B00022605A
:104610002B601846FFF748B923682868FFF722B9CE
:10462000034E96F84000FFF7C2B900BFC887FF1FCE
:104630003493FF1F900E0100B00E0100D00E010058
:10464000480F0100540F01006C0F01008C0F010096
:10465000200B0100AC0D0100C00D0100D00D0100C8
:104660006494FF1FE00D0100BC94FF1FF40D0100D6
:10467000A494FF1F080E01009894FF1F1C0E010058
:104680002C0E01007894FF1F480E01007494FF1F48
:104690005C0E01006C92FF1F700E01006087FF1F0F
:1046A00000007A440123236004F06EFC002805DD3D
:1046B00069486A4E05F016F8C6F8A8000123632081
:1046C00023602860FFF7F0B8644AD36F0133032BEF
:1046D000C8BF0023D367F1E7604EB36FB3FA83F32B
:1046E0005B0901226320B36722602860FFF7DCB812
:1046F0000123236004F048FC002807DD5648574E8C
:1047000004F0F0FF07F0BAF9C6F88C0063202860C7
:104710002368FFF7A7B80123236004F035FC0028C5
:10472000F4DD4D484D4E04F0DDFF07F0A7F9C6F863
:104730008800EBE70123236004F026FC0028E5DD78
:104740004548464E04F0CEFFA6F8B600DEE7FEF779
:104750005BFE23682868FFF782B8404ED6F88030A9
:10476000B3FA83F35B0901226320C6F8803022602C
:104770002860FFF799B83A4A1368B3FA83F35B09E4
:1047800001216420136021602860FFF78DB80123A8
:10479000236004F0F9FB002800F37E84314B1A6893
:1047A000042AC4BF02221A6064232B602368642099
:1047B000FFF755B82C4ADFE72C4ADDE7274ED6F83D
:1047C0009C30B3FA83F35B0901226420C6F89C3065
:1047D00022602860FFF768B8012325482360FCF7B2
:1047E000D3FE244A2368106064222A60DFE7224A4D
:1047F000C2E7224A224F1368002B0CBF012300237B
:104800004FF001001360206040F07E840346EBE728
:104810001C4AB1E704F0B8FB00280DDD0E480F4E2E
:1048200004F060FF07F02AF9174907F02FFA012278
:104830006223306222602B6004F0A6FB002840F364
:10484000A3830548054E04F04DFF01226223B066A4
:1048500022602B601CE000BFC887FF1F3493FF1F3E
:104860006C92FF1F6087FF1FBC94FF1F9894FF1F6F
:10487000C894FF1F7894FF1F7494FF1FA494FF1F18
:10488000C494FF1F6494FF1F00007A4404F040FBAF
:1048900004F07AFB05460028F8D1C24804F090FDE8
:1048A000C04804F08DFDBF4804F08AFDBD4804F007
:1048B00087FDBC4804F084FD1521BB4804F08EFB45
:1048C000B84804F07DFD1421B84804F087FBB548D2
:1048D00004F076FD1B21B64804F080FBB14804F0DB
:1048E0006FFD1321B34804F079FBAE4804F068FD76
:1048F000AC4804F065FDAB4804F062FD2021AE48F1
:1049000004F06CFBF068AD4907F00CF906F060FCB0
:10491000009502460B46A34804F0AAFD0221A848D0
:1049200004F05CFB0221A74804F058FB9D4804F00A
:1049300047FD2121A44804F051FB30699F4907F04D
:10494000F1F806F045FC009502460B46954804F048
:104950008FFD02219A4804F041FB0221994804F09E
:104960003DFB904804F02CFD1F21984804F036FBD5
:10497000B06A06F02DFC022702460B4600978948D4
:1049800004F076FD0121924804F028FB39468D4859
:1049900004F024FB834804F013FD20218D4804F02B
:1049A0001DFBF06A06F014FC009702460B467D489A
:1049B00004F05EFD0121864804F010FB3946814871
:1049C00004F00CFB774804F0FBFC2321824804F040
:1049D00005FBB06C794907F0A5F806F0F9FB0095E6
:1049E00002460B466F4804F043FD3946744804F014
:1049F000F5FA3946734804F0F1FA6A4804F0E0FC2D
:104A00001F21764804F0EAFAF06C6C4907F08AF846
:104A100006F0DEFB009502460B46624804F028FDD6
:104A20003946674804F0DAFA3946664804F0D6FA9F
:104A30005C4804F0C5FC1921694804F0CFFAB16D57
:104A4000584804F00DFD3946664804F0C7FA394667
:104A50005C4804F0C3FA534804F0B2FC18216248E1
:104A600004F0BCFA706E07F009F8604907F05AF8D4
:104A700006F0AEFB009702460B464A4804F0F8FCED
:104A800001215B4804F0AAFA39464E4804F0A6FA20
:104A9000444804F095FC2B21564804F09FFAB06975
:104AA000464907F03FF806F093FB009502460B4697
:104AB0003C4804F0DDFC3946414804F08FFA3946A1
:104AC000404804F08BFA374804F07AFC1F214A482A
:104AD00004F084FA716D334804F0C2FC3946394859
:104AE00004F07CFA2F4804F06BFC2021434804F0CA
:104AF00075FA316D2B4804F0B3FC3946314804F0A7
:104B00006DFA284804F05CFC10213D4804F066FA78
:104B1000B16E244804F0A4FC3946294804F05EFA3A
:104B20003946284804F05AFA1E4804F049FC13217B
:104B3000344804F053FAF16E1A4804F091FC012154
:104B4000314804F04BFA39461E4804F047FA15483C
:104B500004F036FC10212D4804F040FA316F114862
:104B600004F07EFC3946164804F038FA39461548F8
:104B700004F034FA0B4804F023FC1421244804F018
:104B80002DFA716F074804F06BFC01211E4804F0F8
:104B900025FA39460B4804F021FA024804F010FCCB
:104BA000162137E0C887FF1F1810010030100100E0
:104BB00048100100200B01006410010000007A443D
:104BC0001C0B0100D413010088100100AC1001007F
:104BD00090060100CC100100F0100100141101003A
:104BE000341101005011010054110100CDCCCC3D15
:104BF000D00F0100701101009C110100BC110100D7
:104C0000E0110100F4110100081201000C12010072
:104C100020120100AC4804F0E1F9306AAB4906F01B
:104C200081FF06F0D5FA00950B460246A84804F02D
:104C30001FFC3946A74804F0D1F93946A64804F0CC
:104C4000CDF9A34804F0BCFBA14804F0B9FB032351
:104C50002360FEF727BF04F097F9002840F3948102
:104C60009B489E4E04F03EFD06F008FF974907F072
:104C70000DF801226223F06022602B6008E604F048
:104C800083F9002840F380819148944E04F02AFD76
:104C900006F0F4FE8D4906F0F9FF0122622330612F
:104CA00022602B60F4E504F06FF9002840F36C817A
:104CB00087488A4E04F016FD06F0E0FE01226223CA
:104CC000B06222602B60E3E504F05EF9002840F357
:104CD0005B817F48814E04F005FD06F0CFFE012286
:104CE0006223F06222602B60D2E504F04DF90028C7
:104CF00040F34A817648794E04F0F4FC06F0BEFE9B
:104D0000724906F0C3FF01226223B06422602B6067
:104D1000BEE504F039F9002840F336816C486F4E47
:104D200004F0E0FC06F0AAFE684906F0AFFF01229D
:104D30006223F06422602B60AAE504F025F90028C4
:104D400040F322816248654E04F0CCFC01226223CC
:104D5000B06522602B609BE504F016F9002840F353
:104D600013815B485D4E04F0BDFC00EB8000430006
:104D700001216222736621602A6089E504F004F94A
:104D8000002840F301815248544E04F0ABFC06F079
:104D900075FE4E4906F07AFF01226223B06122605F
:104DA0002B6075E504F0F0F8002840F3ED804848EA
:104DB0004A4E04F097FC01226223306522602B608A
:104DC00066E504F0E1F8002840F3DE804048434EF9
:104DD00004F088FC01226223306722602B6057E5D3
:104DE00004F0D2F8002840F3CF8039483B4E04F05D
:104DF00079FC01226223706722602B6048E504F091
:104E0000C3F8002840F3C0803148344E04F06AFCF7
:104E100001226223F06622602B6039E5FCF7A8FFCF
:104E200002212D482D4E04F0D9F8294804F0C8FA83
:104E30000221294804F0D2F8254804F0C1FA0221E1
:104E4000254804F0CBF8224804F0BAFA1721244888
:104E500004F0C4F81E4804F0B3FA02211E4804F01E
:104E6000BDF81B4804F0ACFA0122622322602B60DB
:104E70000EE50022732322602B60FEF7B2BD194BB2
:104E80001548164E002202211A6004F0A7F81048B7
:104E900004F096FA0B21144804F0A0F8DDE7B822DC
:104EA00000210E4802F0DEFC2868104AA0F17300D1
:104EB00001210023B0FA80F0400911602360FEF761
:104EC0008EBD03F055FB00BF3812010000007A448C
:104ED000C887FF1F1C0B0100D41301003493FF1F70
:104EE000B00A01005C92FF1FC80A01007087FF1F13
:104EF0000F21B04804F072F8AF48B04D04F060FAEA
:104F0000D6F8AC30002B0FDD1821AD4804F066F860
:104F1000D5F8B010A84804F0A3FA0221A94804F07B
:104F20005DF8A54804F04CFAA34804F049FA1321AF
:104F3000A54804F053F8A04804F042FA0623236081
:104F4000FEF7B0BD0D21A14804F048F8D4E70D21CB
:104F50009F4804F043F8CFE70C219E4804F03EF848
:104F6000CAE70D219C4804F039F8C5E70C219B489D
:104F700004F034F8C0E72368002B08BF73280CBF87
:104F800001200020FEF72BBD23682868012B7EF44A
:104F900020ADFEF789BC03F0F7FF00287EF7ACAD2B
:104FA0008548864E04F09EFB61230122A6F8B400DA
:104FB00022602B601846FEF777BC03F0E5FF00285F
:104FC0007EF79AAD7C487D4E04F08CFB06F056FDD2
:104FD00061230122B06322602B601846FEF764BC97
:104FE00003F0D2FF00287EF787AD7348734E04F0BC
:104FF00079FB06F043FD7A4906F094FD6123012216
:10500000706222602B601846FEF74EBC03F0BCFFB6
:1050100000287EF719AE6848684E04F063FB012251
:105020006B23C6F8940022602B60FEF75DBF03F08F
:10503000ABFF00287EF708AE5F48604E04F052FBDD
:10504000684BC6F8A00002221A60FDF7BFF90122E2
:105050006B2322602B60FEF747BF03F095FF00280B
:105060007EF7F2AD5448554E04F03CFB5D4BC6F85C
:10507000A4000322E8E703F087FF00287EF7E4ADF1
:105080004D484E4E04F02EFB01226B23C6F89000D3
:1050900022602B60FEF728BF474804F023FB524BE9
:1050A00002461860FFF77CBB1C21504803F096FFB6
:1050B000D7F88C004E4906F035FD06F089F80095CA
:1050C00002460B463C4804F0D3F90521494803F059
:1050D00085FF394804F074F9FD6F012D45D0032D8B
:1050E0007FF481A91C21444803F078FFB6F8B6107C
:1050F000314804F0B5F90321404803F06FFF2E4812
:1051000004F05EF9FFF76FB93D4B002631460B20E6
:105110001E6002F073FE31460C2002F06FFE314635
:10512000142002F06BFE3146152002F067FE3B684A
:10513000FFF75ABB2021334803F050FF1E4804F00C
:105140003FF9FFF726B917212F4803F047FF1A4808
:1051500004F036F9FFF71DB91E212C4803F03EFF7D
:10516000154804F02DF9FFF714B91D21284803F064
:1051700035FFD7F888001E4906F0D4FC06F028F861
:1051800000950B4602460C4804F072F905211948B7
:1051900003F024FF084804F013F9FB6F23F0020327
:1051A000012B9FD0FFF71FB9044EFFF771BB034ED1
:1051B000FEF79ABE1C0C0100C887FF1F3493FF1F27
:1051C0002C0C0100480C0100200B01000C0C01000C
:1051D000FC0B0100EC0B0100CC0B0100DC0B01000F
:1051E0006F12833A7494FF1F6087FF1FAC0F01009A
:1051F000CDCCCC3DCC0F0100F40F01001410010008
:10520000B894FF1F0C0F0100300F0100EC0E0100DD
:10521000D40F010038B5164C164A2368101D12F839
:10522000011F904241EA0323F9D12360124C03F19C
:1052300000432360114BDB6F022B11D0104B1B6816
:10524000012B00D038BD0F4804F0BAF821680D4892
:1052500004F006F903210C48BDE8384003F0BEBE57
:1052600020680A4D06F00AFC2860FDF747FBE5E7D9
:105270004492FF1F8392FF1F8894FF1F3493FF1FE8
:105280006494FF1FC887FF1F641301006492FF1F0F
:1052900030B53F4C3F4883B0214601F001FB236805
:1052A00040F2C232934258D06FF4C0615A18B2F53E
:1052B000FF7F4CD903F100436FF4C0621344B3F590
:1052C000FF7F3FD9344B1B68012B01D003B030BDA9
:1052D000324B1B68012BF9D1314B32481B680193CB
:1052E0000A220023019904F07BF82268284B002A47
:1052F000DB7945DB2C492D4807F0F2FB2B4807F002
:105300001FFC0146294803F069FE2568204B15F073
:10531000804526D1DB798BB1631925491A7A234858
:1053200007F0DEFB214807F00BFC01461F4803F0A5
:1053300055FE0135E379EDB2AB42EDD8194804F0E2
:105340003FF8C3E712491B48FCF744F9BAE7104994
:105350001848FCF73FF92368ACE7FFF75BFF2368C9
:10536000A2E7154D114C0FCD0FC495E8030044F88A
:10537000040B204620F81419152103F02FFEDDE759
:105380000E490A4822F0604207F0AAFBB6E700BFC8
:105390007C92FF1F54C1FF1F7087FF1F6494FF1F83
:1053A000FCC2FF1FC887FF1F901301008C92FF1FD4
:1053B000BC130100C894FF1FA4130100681301006F
:1053C0002DE9F84F7E4B7F4C1B78052B08D07E488B
:1053D000FCF76AFAE16A06F043FD002800F08180DC
:1053E0007A4E7B4D002333602B607A4B76481B68E6
:1053F000744F012B33D0FCF711FAE16980466069E4
:1054000006F086FA0146404606F048FD00283AD1EB
:105410006D48FCF703FAE16806F040FD08B100238F
:105420002B606948674FFCF7D3F9216906F018FD36
:1054300048B1002333602B68654A002BBCBF0023B2
:105440001360BDE8F88F6048FCF7C2F9B96906F04F
:1054500007FD0028EDD13368002BEADBEBE7FCF712
:10546000DDF9E1698046206A06F052FA01464046BD
:1054700006F014FD0028CBD05348FCF7CFF9D7F83D
:105480002090834605E05048FCF7C8F9D7F81490FF
:105490008346F969484606F03BFA8246F86D06F005
:1054A000EDFA8046386E06F0E9FA414606F030FA29
:1054B00051460746584606F02BFA0146384606F094
:1054C00031FB51460746484606F022FA0146384667
:1054D00006F0DCFB414606F01DFA06F0FFFC2860F2
:1054E00096E73948FCF7E0F9216B06F0B9FC20B3E8
:1054F000364E636E34483360FCF7D6F98146E06D72
:10550000E76A334D06F0BAFA39468046484606F057
:10551000FFF90146404606F005FB39468046206B00
:1055200006F0F6F90146404606F0B0FB002106F011
:10553000F1F906F0D3FC286057E72348FCF7B4F9EB
:10554000616B06F08DFC30B1204E214D626EE36D33
:1055500032602B6049E71C48FCF7A6F9A16A06F007
:105560007FFC00283FF43CAF1748184E184DFCF75D
:105570009BF98146606ED4F8348006F07FFA41468C
:105580000746484606F0C4F939468146002006F031
:10559000BFF90146484606F0C5FA41468146A06A71
:1055A00006F0B6F90146484606F070FB394606F0AB
:1055B000B1F906F093FCE36D30602B6015E700BF96
:1055C0008094FF1F3493FF1FC894FF1F8C94FF1F0C
:1055D0004C92FF1F6892FF1F08B5274803F0F0FEAA
:1055E0000721264803F0FAFC112002F00DFC0621E9
:1055F000F8B1234803F0F2FC122002F005FC06216A
:1056000000B3204803F0EAFC122002F0FDFB062163
:1056100008B31D4803F0E2FC132002F0F5FB06215D
:1056200010BB1A4803F0DAFC1348BDE8084003F049
:10563000C7BE174803F0D2FC122002F0E5FB06219A
:105640000028DED1134803F0C9FC122002F0DCFB75
:1056500006210028DDD1104803F0C0FC132002F021
:10566000D3FB06210028DCD00C4803F0B7FC02482D
:10567000BDE8084003F0A4BEC887FF1FC81301009F
:10568000D0130100E0130100F01301000814010021
:10569000D8130100E8130100F81301000014010001
:1056A00010B5254C2368042B27DC01210B2002F0C8
:1056B000A5FB01210C2002F0A1FB0121142002F026
:1056C0009DFB0121152002F099FBFF21162002F01D
:1056D00015FAFF21172002F011FAFF21052002F030
:1056E0000DFAFF21062002F009FA236801330A2B84
:1056F0002360C4BF0023236010BD00210B2002F0F3
:105700007DFB00210C2002F079FB0021142002F027
:1057100075FB0021152002F071FB0021162002F01C
:10572000EDF90021172002F0E9F90021052002F02F
:10573000E5F90021D6E700BFA094FF1F2DE9F04155
:105740008B4DD5F8AC30042B3ED0032B6ED0012B03
:1057500000F09880022B01D0BDE8F081854C86488E
:10576000237240F20E32012321462260E37101F0E0
:105770009FF9824B1B685B00FF2BC8BFFF230421EE
:1057800040224FF441702060E17122726372286DF3
:1057900006F074F9696906F0C5F97949054606F01D
:1057A0007DFB002800F0DA802946284606F0B2F892
:1057B00006F0BAFB80B20312E072A3726D496E4824
:1057C000BDE8F04101F074B96A4C6E4AA3792260D9
:1057D00043F001030822E271A371286D06F04EF92F
:1057E000696906F09FF9684906F09CF906F09CFB90
:1057F000624B664A1B68126893FBF2F380B2002684
:105800001A120712607221465B48E372A272277275
:1058100026736673A673E67301F04AF9A279D5F888
:10582000AC3066F30002032BA27190D1514C286D6D
:10583000A3720122E823072140F2FF26227263723D
:105840002660E17106F01AF9696906F06BF94E49B4
:1058500006F068F906F068FB484B4C4A1B68126872
:1058600093FBF2F382B21E12171221464248637371
:10587000E2722773A67301F01BF9D5F8AC30012B47
:105880007FF468AF424B3B4C1B68236007228023A8
:105890001020E271237202F0B7FA002865D13D4B67
:1058A0001B68DFF8D880394F286D324E03EB830335
:1058B0005B001A12A3726272D8F800303A6893FB48
:1058C000F2F31A126273A37306F0D8F8696906F04E
:1058D00029F9314B196806F01BF82B4906F022F91B
:1058E00006F022FB80B20312314620732248E37295
:1058F00001F0DEF8022002F0BDFA284B1B6823609D
:10590000072280231020E271237202F07DFA50BB3F
:10591000204B1B68286D03EB83035B001A12B372E4
:10592000727206F0ABF8696906F0FCF8164906F0E9
:10593000F9F806F0F9FA82B216123868D8F8003091
:10594000227393FBF0F30B490B48A3731A12E67210
:10595000627301F0ADF8D5F8AC30FBE6012290237C
:10596000A272E3722AE70E4BD3E70D4B98E700BF14
:105970003493FF1FA894FF1F54C1FF1F4C92FF1FB9
:1059800000004843F4E50618000020414887FF1F47
:105990006887FF1F4087FF1F5C87FF1F3087FF1F3F
:1059A0004487FF1F2DE9F04790B001E0FFF770FC3E
:1059B000AC4800F03FFF0028F8D103F0E5FA0028DA
:1059C00001DDFDF73FFFA84EA84D3368012B13D032
:1059D000FDF732FCD5F89C40012C00F06B81A44F00
:1059E0003B78052B00F2A880DFE813F0CC00A8007C
:1059F0001801F000350194009E4C23689E4A0793DD
:105A0000079B11689B4F5B1AB3F5FA7F30D8236868
:105A10000C930C9B994A23680B930B9B1068D5F849
:105A2000B010944E914D1B1A8B420DD933680D93D3
:105A3000D5F89C300D991160012B00F0B4818C4B8E
:105A40001B78032B00F0AF8123688D4A0E938D499C
:105A50000E9B10680968874C1B1A8B4205D9236876
:105A60000F930F9B1360FDF78FFE10B0BDE8F0871A
:105A70003B680893089B84481360FBF7E5FDD5F865
:105A80009C30DFF8E8818048012B00F09E81FBF715
:105A90009FFED8F8101006F0E3F9002800F06381AB
:105AA00023687A4A0993099B12689A4202D9704B7B
:105AB00005221A70764B1B68002B40F07E81754BD7
:105AC0001B68002B40F07581734B1B68002B40F066
:105AD0006D813368002B00F06381FFF7E1FD6F4EAD
