:1000000000800020BD010000797400003174000000
:10001000317400003174000031740000317400004C
:1000200031740000317400003174000079740000F4
:100030007974000031740000858D0000898E000005
:1000400079740000797400007974000079740000FC
:1000500079740000797400007974000079740000EC
:1000600079740000797400007974000079740000DC
:1000700079740000797400007974000079740000CC
:1000800079740000797400007974000079740000BC
:1000900079740000797400007974000079740000AC
:1000A000797400007974000079740000797400009C
:1000B000797400004D680000596800005D68000018
:1000C000696800006D6800007168000079740000C4
:1000D000797400007974000079740000797400006C
:1000E000797400007974000079740000797400005C
:1000F000797400004D94000079740000ED7A0000DE
:1001000079740000057E00007974000079740000A5
:10011000797400007974000079740000797400002B
:10012000797400007974000079740000797400001B
:10013000797400007974000079740000797400000B
:1001400079740000797400007974000079740000FB
:1001500079740000797400007974000079740000EB
:1001600079740000518000007974000079740000F7
:1001700079740000797400007974000079740000CB
:1001800079740000797400007974000079740000BB
:1001900079740000797400007974000079740000AB
:1001A000797400007974000079740000797400009B
:1001B000797400007974000079740000564B4CF299
:1001C000205210B51A804DF628121A8000BF00BFC9
:1001D00007F056F9514B4FF010621A60504A9A607E
:1001E000504ADA60504A136813F4807304D14F49BF
:1001F0000B604FF4A85313604D4B1A78110703D5C9
:100200001A7842F008021A704A4B4B492A221A7097
:100210004A4A4B4B8B4204D252F8040F43F8040B6A
:10022000F8E7484B484900228B4202D243F8042B9E
:10023000FAE74649464A002352F8230041F82300D2
:1002400001336F2BF8D1434B434A802103F8011B44
:100250009342FBD1414B3D4A1A60414B8A221A70AE
:10026000A3F5805324225A70A0221A709A7992071B
:10027000FCD59A79D406FCD43A4A937903F00C035E
:10028000082B384BF9D103221A7140225A719A79FE
:100290009006FCD5334A9179324B4906FBD5324A58
:1002A000324911600221516020221A709A7902F0BD
:1002B0000C020C2AFAD12E4B2E4A1A602E4B2F4AD2
:1002C0001A6000225A60072243F8042C2C4AC3F813
:1002D0000C2D62B607F08AFB144B1B68DA0705D5B4
:1002E000284807F067F9284B284A1A60284B1B78E2
:1002F0005B0609D5244C254B22689A4204D121483B
:1003000007F058F9002323600BF0A4FB07F0BEF8B8
:1003100008F05CFFFEE700BF0E200540308004407F
:10032000823F04000100002B10D0034014D0034092
:1003300002D0074000E007402092FF1F2414010074
:100340002087FF1F2092FF1FDCC5FF1F0082FF1FB9
:100350000000000000E400E05FE400E008ED00E0E1
:100360000050064000400640448004400000030165
:1003700004800440C010050014E000E0FF76010096
:100380000000202051DE125C1CE00340A5C3945AFB
:1003900000F00740FFFFFFFFFFFFFFFFFFFFFFFF32
:1003A000FFFFFFFFFFFFFFFFFFFFFFFFFFFFFFFF5D
:1003B000FFFFFFFFFFFFFFFFFFFFFFFFFFFFFFFF4D
:1003C000FFFFFFFFFFFFFFFFFFFFFFFFFFFFFFFF3D
:1003D000FFFFFFFFFFFFFFFFFFFFFFFFFFFFFFFF2D
:1003E000FFFFFFFFFFFFFFFFFFFFFFFFFFFFFFFF1D
:1003F000FFFFFFFFFFFFFFFFFFFFFFFFFFFFFFFF0D
:10040000FFFFFFFFFFFFFFFFFFFFFFFFDEF9FFFF23
:1004100010B5054C237833B9044B13B10448AFF33E
:1004200000800123237010BD2092FF1F00000000F8
:1004300020140100084B10B51BB108490848AFF360
:1004400000800848036803B910BD074B002BFBD0A0
:10045000BDE81040184700BF000000002492FF1FB5
:10046000201401002092FF1F00000000F0B400F1F2
:100470001C06134F00243146031F00F13C0243F8D1
:10048000044FB34241F8047F4FF0000542F8044F97
:10049000F5D10C4A0C490566002345668566C5669C
:1004A000056745678567C0F88850C267C0F8842033
:1004B000C0F8801080F8903080F8A830F0BC704709
:1004C0000000A040000048430000C8C22DE9F041F0
:1004D00090F8A84084B0202364008DF80530E4B281
:1004E000042380468DF804408DF80630032720460B
:1004F00007F024FC02210DF1050007F029FC8DF81E
:10050000044005F029FB30B30921404808F0D4FA33
:100510000023102221463E4808F0D0FC01213D482E
:1005200008F0CAFA002310229DF80510384808F098
:10053000C5FC0121374808F0BFFA002310229DF8BE
:100540000610334808F0BAFC0121324808F0B4FA2A
:100550002F4808F0A3FC02208DF8044007F0F8F9BA
:1005600005F0FAFA00284CD102AE002407F006FC90
:1005700070B3072C1FD101E007F010FC07F0FEFB61
:100580000028F9D105F0E8FA10B1214808F086FCFE
:100590009DF80B009DF80C109DF80D209DF80E3075
:1005A000C8F89400C8F89810C8F89C20C8F8A03083
:1005B00004B0BDE8F08107F0F1FB054606F8010B39
:1005C00005F0CAFA70B9013407F0D8FB0028D0D181
:1005D000072CD3D005F0C0FA78B9013FD8D09DF8E8
:1005E000044084E7E9B200231022094808F066FCC1
:1005F0000121084808F060FAE5E7054808F04EFCDC
:10060000EBE70721044808F057FAADE718FC0000B3
:10061000C487FF1FFC02010024FC000090F8980032
:10062000704700BF90F89400704700BF90F89C009E
:10063000704700BF90F8A000704700BF082994BF22
:1006400050F82100002070472DE9F0410B4E804604
:10065000041F00F11C0754F8045F314628460BF0D4
:100660006FF930B1D8F88C1028460BF087F900B13B
:100670002E46BC42EFD13046BDE8F081000020415B
:100680002DE9F041D0F88C704FF00008041F00F104
:100690001C0654F8045F394628460BF06FF90849E8
:1006A00048B128460BF04CF9414620B128460BF0E2
:1006B00065F900B1A846B442EBD14046BDE8F081EF
:1006C000000070422DE9F047D0F88C7082464FF060
:1006D0000009041F00F11C064FF0000854F8045FE5
:1006E000394628460BF04AF90C4950B128460BF020
:1006F00027F930B1484629460AF07CFE08F1010886
:100700008146B442EAD1CAF8AC8040460AF026FFDE
:10071000014648460BF02AF8BDE8F0870000704219
:10072000D0F8AC00704700BF38B5846E456E2146E6
:1007300028460BF005F900B92C46204638BD00BF0D
:10074000D0F8A4302DE9F041002B79D1866E456EAA
:100750000446314628460AF04DFEE76E394680468B
:100760000AF048FE7E490BF001F84FF07C51044638
:100770000BF004F9002861D04FF07C5128460BF0B3
:10078000FDF84FF07C51002860D128460BF0D8F8D6
:1007900038B14FF07C5130460BF0F0F8002840F0B3
:1007A000A7804FF07C5128460BF0E8F8002860D174
:1007B0004FF07C5128460BF0E1F8002840F0A18072
:1007C0004FF07C5128460BF0D9F800286CD14FF03F
:1007D0007C5128460BF0B4F84FF07C5110B33046F2
:1007E0000BF0CCF838B14FF07C5138460BF0A8F83C
:1007F000002840F0B0804FF07C5130460BF0A0F85C
:10080000002861D04FF07C5138460BF0B7F8002833
:1008100040F0A38038464FF07C510BF091F868B15E
:10082000504C10E028460BF08BF80028E3D1284606
:100830004FF07C510BF084F8002845D1BDE8F081E1
:1008400000EB8300046E2046BDE8F08130460BF0DB
:1008500095F84FF07C5100283ED038460BF08EF8CA
:100860000028F0D14FF07C5128460BF069F80028A1
:1008700059D14FF07C5130460BF062F8002840D03F
:100880004FF07C5138460BF079F8002841D14FF0F9
:100890007C5130460BF072F868B14FF07C5138460D
:1008A0000BF04EF800284FD14FF07C5130460BF042
:1008B00047F800288BD04FF07C5138460BF040F8B9
:1008C000002884D02C46BEE730464FF07C510BF018
:1008D00037F80028B2D09DE728460BF031F8002801
:1008E000C7D04FF07C5130460BF048F80028C0D0FC
:1008F0004FF07C5138460BF041F800283FF451AFDF
:1009000018E04FF07C5130460BF038F80028CBD07F
:10091000C3E7394628460AF06DFD4FF07C510AF0D6
:1009200071FE04468FE74FF07C5138460BF026F8F5
:1009300000289ED0394630460AF05CFD4FF07C51CD
:100940000AF060FE04467EE740464FF07C510AF014
:1009500059FE044677E7344675E73C4673E700BF27
:10096000000040400000A0C270B50446FFF7E8FE5A
:100970004FF07C510BF002F828B3666E4FF07C51BB
:1009800030460AF0FBFFA56EF0B9E46E4FF07C51E3
:1009900028460AF0F3FF58B1294630460AF0EEFF28
:1009A00030B1214628460AF0CBFF08B12C4620E0A2
:1009B0004FF07C5120460AF0E1FF20B12846214645
:1009C0000AF0DCFF78B970BD304629460AF0B8FF5E
:1009D000E46E0028DAD0304621460AF0B1FF002844
:1009E000D4D0344605E0304621460AF0C7FF00283F
:1009F000E9D0204670BD00BF01392DE9F84380469B
:100A00001546032900F2E280DFE801F0AE855C02C2
:100A1000537B107B03EB00200AF0A0FD6D490AF028
:100A2000F1FDC8F81800EB7BA87B03EB00200AF06F
:100A300095FD68490AF0E6FDD8F86860D8F864705A
:100A4000D8F80040C8F81C004046FFF78DFFD8F8E2
:100A50007C1005460AF074FF08B1C8F87C5039468E
:100A600030460AF08BFF002840F0A7803946D8F8BE
:100A700080000AF065FF10B13E46C8F8806008F1BA
:100A80002006C14608F14005002701E059F8044F4F
:100A9000306821460AF072FF0137214628B1D8F8A4
:100AA0008C000AF057FF00B13460214628680AF034
:100AB00047FF043600B12C60082F05F10405E5D18D
:100AC000BDE8F883507A32380AF048FDC8F874005F
:100AD000A87A32380AF042FDC8F878006B7B287B90
:100AE00003EB00200AF03AFD3A490AF08BFDC8F802
:100AF0001000EB7BA87B03EB00200AF02FFD3549AB
:100B00000AF080FDD8F86860C8F81400D8F864705E
:100B1000D8F8004098E7507A32380AF01FFDC8F83C
:100B20006C00A87A32380AF019FDC8F870006B7BA7
:100B3000287B03EB00200AF011FD26490AF062FD34
:100B4000C8F80800EB7BA87B03EB00200AF006FD49
:100B500020490AF057FDD8F86860C8F80C00D8F8AA
:100B60006470D8F800406FE7137AC0F8B030907A1C
:100B700032380AF0F3FCC8F864000746E87A3238E5
:100B80000AF0ECFCC8F868006B7B0646287B03EB98
:100B900000200AF0E3FC0F490AF034FDC8F8000019
:100BA000EB7B0446A87B03EB00200AF0D7FC094945
:100BB0000AF028FDC8F8040046E7D8F8801030464F
:100BC0000AF0DCFE00287FF458AF58E7866E476EC7
:100BD000046839E70AD7233C2DE9F04F90F8A83094
:100BE00091B007465B008DF80830FFF76FFCD7F82F
:100BF0009C00D7F8A040D7F89830D7F8942097F801
:100C0000A8108DE81100C94805F0A0F830223D2356
:100C100003268DF809208DF80A300DF10A059DF89C
:100C2000089049F00108404607F088F80DF10900E6
:100C3000022107F08DF88DF80880424602AB0020B3
:100C40005040082410F0800F4FEA400018BF80F099
:100C50000700013CC0B2F5D19D4202D013F8012F2C
:100C6000EEE707F06BF804F077FF002840F07C8295
:100C700002208DF8089006F06BFE04F06DFF00284E
:100C800040F0B8820DF10C0AD146002407F076F846
:100C9000002843D0032C34D101E007F07FF807F09F
:100CA0006DF80028F9D104F057FF10B1A04808F002
:100CB000F5F8312303268DF809308DF80A609DF888
:100CC000089049F00108404607F038F80DF1090096
:100CD000022107F03DF88DF80880424602AB002063
:100CE0005040082410F0800F4FEA400018BF80F0F9
:100CF0000700013CC0B2F5D19D4228D013F8012F66
:100D0000EEE707F04BF809F8010B804604F024FFEA
:100D100068B9013407F032F80028BBD1032CBED0EB
:100D200004F01AFF78B9013E7FF479AFC1E75FFAAA
:100D300088F1002310227E4808F0C0F801217D4888
:100D400007F0BAFEE5E77A4808F0A8F8EBE706F006
:100D5000F5FF04F001FF002840F0C58102208DF866
:100D6000089006F0F5FD04F0F7FE002840F03D8203
:100D70000DF10C09002407F001F8002844D0032CE1
:100D800035D101E007F00AF806F0F8FF0028F9D1A4
:100D900004F0E2FE10B1664808F080F83422012326
:100DA0008DF809208DF80A3003269DF8089049F047
:100DB0000108404606F0C2FF0DF10900022106F0CD
:100DC000C7FF8DF80880424602AB0020504008243F
:100DD00010F0800F4FEA400018BF80F00700013C80
:100DE000C0B2F5D19D4228D013F8012FEEE706F0EE
:100DF000D5FF09F8010B804604F0AEFE68B9013456
:100E000006F0BCFF0028BAD1032CBDD004F0A4FE2C
:100E100078B9013E7FF453AFC0E75FFA88F1002351
:100E20001022434808F04AF80121424807F044FEE6
:100E3000E5E73F4808F032F8EBE706F07FFF04F003
:100E40008BFE002840F00E8102208DF8089006F0FD
:100E50007FFD04F081FE002840F0D6810DF10C09E1
:100E6000002406F08BFF002800F08480032C72D150
:100E700001E006F093FF06F081FF0028F9D104F0AD
:100E80006BFE10B12A4808F009F8012212238DF8F0
:100E900009208DF80A304FF003089DF808402046DD
:100EA00006F04CFF02210DF1090006F051FF8DF80C
:100EB000084004F051FE30B309211F4807F0FCFD43
:100EC0000023102221461A4807F0F8FF0121194893
:100ED00007F0F2FD002310229DF80910144807F0D6
:100EE000EDFF0121134807F0E7FD002310229DF8D4
:100EF0000A100F4807F0E2FF01210E4807F0DCFD61
:100F00000B4807F0CBFF06208DF8084006F020FDC7
:100F100004F022FE002840F0728103AD002606F0A6
:100F20002DFF00283FD0162E2FD109E02CFC000009
:100F3000C487FF1FFC02010018FC000006F02EFF12
:100F400006F01CFF0028F9D104F006FE1626002842
:100F50007DD1152035E006F021FF09F8010B804610
:100F600004F0FAFD00285BD1013406F007FF0028E9
:100F70007FF47CAF032C3FF47EAF04F0EDFD00283E
:100F80006CD1013E7FF411AF7FE706F007FF05F853
:100F9000010B044604F0E0FD00284DD1013606F0B7
:100FA000EDFE0028BFD1162ECAD004F0D5FD0028D2
:100FB0004DD1B8F101087FF470AF701E002840F3E6
:100FC0002482002303AA1C4612F8011B08254C406A
:100FD00014F0800F4FEA440418BF84F00704013D69
:100FE000E4B2F5D101338342EEDB9DF821808948DC
:100FF0004146224604F0AAFE162EC146A34602D15F
:10100000A04500F0138197F8A8108348CDF800B0F0
:101010004B46324604F0C8FE002011B0BDE8F08F08
:101020005FFA88F1002310227C4807F047FF012176
:101030007B4807F041FD97E7E1B200231022774893
:1010400007F03CFF0121764807F036FDA6E773481C
:1010500007F024FF162EACD11520B2E76F4807F039
:101060001DFF8EE709216F4807F026FD2346102259
:1010700041466A4807F022FF0121694807F01CFD3C
:10108000234610229DF80910644807F017FF01213C
:10109000634807F011FD102223469DF80A105F48AF
:1010A00007F00CFF01215E4807F006FD21460DF117
:1010B0000B0002AA12F8014B6140C9B2082311F0DB
:1010C000800F4FEA410118BF81F00701013BC9B20F
:1010D000F5D19042EED11022504807F0EFFE4F4874
:1010E00007F0DCFEB0E609214E4807F0E5FC234698
:1010F00010224146494807F0E1FE0121484807F027
:10110000DBFC234610229DF80910444807F0D6FE68
:101110000121434807F0D0FC102223469DF80A1015
:101120003E4807F0CBFE01213D4807F0C5FC2146B3
:101130000DF10B0002AA12F8014B6140C9B208235D
:1011400011F0800F4FEA410118BF81F00701013B08
:10115000C9B2F5D19042EED11022304807F0AEFE70
:101160002E4807F09BFEF9E509212E4807F0A4FC64
:10117000234610224146294807F0A0FE01212848B5
:1011800007F09AFC234610229DF80910234807F027
:1011900095FE0121224807F08FFC102223469DF87E
:1011A0000A101E4807F08AFE01211D4807F084FC42
:1011B00021460DF10B0002AA12F8014B6140C9B2A1
:1011C000082311F0800F4FEA410118BF81F0070199
:1011D000013BC9B2F5D19042EED110220F4807F081
:1011E0006DFE0E4807F05AFE42E507210E4807F053
:1011F00063FCBDE507210C4807F05EFC42E50721D2
:10120000094807F059FC88E60721074807F054FC15
:1012100024E600BF60FC0000ACFC0000C487FF1F98
:10122000FC02010018FC000024FC00009DF80C30BA
:1012300097F8A820B3EB420F7FF4EEAE9DF80D3087
:10124000012B7FF4E9AE9DF80E30122B7FF4E4AE53
:101250009DF810309DF80F0003EB00200AF07EF996
:1012600072490AF0CFF9D7F88810386604460AF0B8
:1012700085FB08B1C7F88840D7F8841020460AF0EB
:101280005FFB08B1C7F88440A7F1040907F1200605
:1012900007F140054FF008089AF806309AF8050063
:1012A00003EB00200AF05AF961490AF0ABF949F85A
:1012B000040F316804460AF043FB0AF1020A30B118
:1012C000D7F88C1020460AF04FFB00B13460296833
:1012D00020460AF053FB043600B12C60B8F1010837
:1012E00005F10405D8D19DF81E309DF81D0003EBD3
:1012F000002002300AF032F94E490AF037FA01466E
:101300004D480AF033FA4D490AF072F84C490AF098
:1013100079F9054608F0E4F90446284608F0E0F9B2
:10132000484908F04FFA4849054620460AF06AF94C
:1013300046490AF05FF84649044628460AF062F931
:10134000014620460AF056F801464FF07E500AF05A
:101350000DFA40490AF04CF89DF81F209DF8203006
:10136000786603EB022009300AF0F8F83A490AF0EF
:10137000FDF9014630480AF0F9F930490AF038F829
:101380002F490AF03FF9054608F0AAF90446284615
:1013900008F0A6F92B4908F015FA2B490546204616
:1013A0000AF030F929490AF025F829490446284667
:1013B0000AF028F9014620460AF01CF801464FF0D1
:1013C0007E500AF0D3F923490AF012F8B8660446B1
:1013D0003846FFF7C9FAF96F05460AF0B1FA00B1CD
:1013E000FD677D6E204629460AF0C8FAB0B9294645
:1013F000D7F880000AF0A4FA10B12C46C7F8804054
:10140000164804F0A3FC012007E69DF8219014483B
:1014100049464246C34604F099FCF4E5D7F88010EB
:1014200020460AF0ABFA0028E8D1E9E71357053B5C
:101430002003C839001601470AD7E33FE17A644028
:1014400000007A4400004040A40D8F395A80473A8A
:1014500046A6DB3333938843002C014784FC00000D
:1014600060FC00002DE9F8430026D0F88C80066669
:101470008146044600F1200754F8045B41462846A3
:101480000AF07CFA084950B128460AF059FA30B1FE
:101490003046294609F0AEFF0646C9F86000BC4256
:1014A000EAD13046BDE8F8830000704205299ABFB2
:1014B00000EB8100406E0020704700BF3E2998BFBE
:1014C00080F8A810704700BF90F89000704700BFE8
:1014D000C0F8A410704700BF80F89010704700BF9C
:1014E00030B50F4CC0F88C1083B020460D4607F085
:1014F000D5FC204607F0D2FC284609F0D9FB02258E
:1015000002460B460095204607F022FD204607F0D4
:10151000C5FC204603B0BDE8304007F0BFBC00BFAB
:10152000C487FF1F70B500F5315506462C3500F114
:1015300020042046B434FEF799FFAC42F9D106F1FD
:10154000D405012428460021FFF7C6FF214628467E
:101550000134FFF7B3FF3F2C05F1B405F2D142F699
:10156000744400250548064A064B35550021306174
:101570007161B261F361304670BD00BF00007A4412
:10158000000048430000C8C22DE9F04142F678430C
:1015900000F53156374600228046C2502C36383787
:1015A00000F1D40402E0B434B4420DD02046FFF779
:1015B0008BFF0028F7D020463D68FFF7B1F8B43420
:1015C0002844B4423860F1D142F6784358F8030019
:1015D000BDE8F081F8B50E46096801F47F65002981
:1015E0000446A5F5C06511DB2D0901F00F07B423F2
:1015F00003FB0544203420460121FFF76DFF3246EE
:1016000039462046BDE8F840FFF7F6B90A4801F030
:101610000F0707F043FC1221084807F04DFA316824
:10162000054801F0004100230A2207F047FC024868
:101630002D0907F033FCDAE7C487FF1FFCFC00002C
:10164000704700BF704700BF704700BF2DE9F043EF
:101650000446002383B0064644F8D43B012504E049
:1016600001353F2D04F1B40469D02046FFF72CFF6B
:101670000028F5D0504804F069FB29464F4804F093
:1016800065FB2046FFF7A8FA2046FFF7EBFE09F0BE
:101690000FFB02460B464A4804F058FB2046FEF773
:1016A000D3FF80462046FEF7EBFF0746404609F091
:1016B000FFFA80463846894609F0FAFA42464B4618
:1016C000CDE900013F4804F041FB00212046FFF72F
:1016D000EDFE012180462046FFF7E8FE0746404622
:1016E00009F0E6FA80463846894609F0E1FA4246B2
:1016F0004B46CDE90001344804F028FB2046FFF7B3
:10170000B1FE0146306809F075FE30602046FFF7F3
:101710002BF9B1690AF014F9002833D12046FFF7FC
:1017200003F8F1690AF02AF9002899D02046FEF75B
:10173000FBFF01353F2DF06104F1B40495D17068D1
:1017400009F00CFF014630680AF010F8716930604A
:1017500004460AF013F900B17461316920460AF0B9
:10176000EFF800B134610B2006F0BCF842F6744388
:10177000F35C60B99BB142F674430122F25403B0AA
:10178000BDE8F0832046FFF7EFF8B061C6E753B934
:1017900042F674430022F25403B0BDE8F0830B48D4
:1017A00004F002FBE7E70A4804F0E8FA42F6744363
:1017B0000022F254F0E700BFF8FE000010FD000028
:1017C0004CFD000060FD00008CFD0000A8FD000045
:1017D000E0FD000070B5114B836000F53155064601
:1017E0002C3500F1D40402E0B434AC4213D02046CE
:1017F000FFF76AFE0028F7D02046FEF725FFB16804
:101800000AF09EF80028EFD02046FEF71DFFB43402
:10181000AC42B060EBD1B06870BD00BF0000A0402A
:1018200070B5002300F531550646C3602C3500F134
:10183000D40402E0B434AC4213D02046FFF744FE97
:101840000028F7D02046FEF71BFFF1680AF096F853
:101850000028EFD02046FEF713FFB434AC42F0600E
:10186000EBD1F06870BD00BF006870474160704701
:10187000F8B500F531550F4616462C3500F1D40465
:1018800002E0B434AC420FD02046FFF71DFE002822
:10189000F7D020463946FFF71BFE20463146B434C8
:1018A000FFF71EFEAC42EFD1F8BD00BF2DE9F843B3
:1018B00000F5315542F670432E4600278146C75049
:1018C0004FF000082C35303600F1D40402E0B43477
:1018D000AC4213D02046FFF7F7FD0028F7D033685D
:1018E000013333602046FEF72BFF0F490AF046F81C
:1018F00088B9B434AC4207F10107EBD142F670432A
:1019000059F80300C01B09F029FE0146404609F0C2
:101910002DFFBDE8F8832046FEF712FF0146404642
:1019200009F068FD8046D2E700008CC2F8B500F5EA
:101930003155074600262C3500F1D40402E0B434BA
:10194000AC420FD02046FFF7BFFD0028F7D020465D
:10195000FEF7B8FE0146304609F04CFDB434AC4207
:101960000646EFD142F67043F85809F0F7FD0146FC
:10197000304609F0FBFEF8BD2DE9F04F06468DB06C
:10198000934804F08BF9924804F088F9904804F0E9
:1019900085F942F670433046F758FFF7F5FD0B9096
:1019A000306809F085F9044630460D46FFF7BEFF62
:1019B0000A90B06809F07CF98246F0688B4609F01D
:1019C00077F9804630468946FFF770FF09F070F9D5
:1019D0000A9BCDE908011846CDE904ABCDE906899B
:1019E00009F066F90B9ACDE90201CDE900453946C7
:1019F000784804F053F9764804F050F9D4364FF0A3
:101A000001094FF0000A07E009F10109B9F13F0FA0
:101A100006F1B40600F0D3803046FFF755FD0028EC
:101A2000F2D03046FEF7FAFD3046FEF7FBFD3046B9
:101A3000FEF7FCFD3046FEF7FDFD0821664807F085
:101A40003BF84946654807F079FAB9F1090F40F3C8
:101A5000B9800221624807F02FF83046FFF702FDF7
:101A600009F026F9022402460B4600945B4807F071
:101A70006FFA01215B4807F01FF8554600241FE06C
:101A80000621594807F018F82946544807F056FA35
:101A90000221564807F010F821463046FEF7CEFDE9
:101AA00009F006F9009702460B464C4807F050FA39
:101AB000013401214B4806F0FFFF082C0BD04546AE
:101AC000092D4FF0020705F10108D9DC0121484832
:101AD00006F0F2FFD4E7414807F0E0F90921454854
:101AE00006F0EAFF00213046FFF7E0FC09F0E0F8DD
:101AF000009702460B46394807F02AFA0A213E4869
:101B000006F0DAFF01213046FFF7D0FC09F0D0F8EB
:101B1000009702460B46314807F01AFA0A21374867
:101B200006F0CAFF39463046FFF7C0FC09F0C0F89E
:101B3000009702460B46294807F00AFA0A21304866
:101B400006F0BAFF03213046FFF7B0FC09F0B0F809
:101B5000009702460B46214807F0FAF90A21294866
:101B600006F0AAFF04213046FFF7A0FC09F0A0F818
:101B7000009702460B46194807F0EAF90A21224865
:101B800006F09AFF05213046FFF790FC09F090F827
:101B9000009702460B46114807F0DAF901211B486D
:101BA00006F08AFF09F101090C4807F077F9B9F14D
:101BB0003F0F0AF1080A06F1B4067FF42DAF0DB00D
:101BC000BDE8F08F01210A4806F076FF41E700BF2B
:101BD000F8FE00009000010010010100C487FF1F03
:101BE000CC0D01001C01010020010100EC020100EC
:101BF000FC02010028010100340101004001010044
:101C00004C01010058010100640101007001010054
:101C10002DE9F04100F1D40582B0012705E001373C
:101C20003F2F05F1B40500F08B802846FFF74CFCF0
:101C30000028F4D03946444807F080F90121434890
:101C400006F03AFF00244FF0020821462846FEF72E
:101C5000F5FC09F02DF8CDF8008002460B463A4815
:101C600007F076F901340121384806F025FF082CE9
:101C70004FF00206E9D100212846FFF717FC09F0D2
:101C800017F8009602460B462F4807F061F901212C
:101C90002E4806F011FF01212846FFF707FC09F046
:101CA00007F8009602460B46274807F051F9012134
:101CB000264806F001FF31462846FFF7F7FB08F0FB
:101CC000F7FF009602460B461F4807F041F9012135
:101CD0001E4806F0F1FE03212846FFF7E7FB08F057
:101CE000E7FF009602460B46174807F031F901213D
:101CF000164806F0E1FE04212846FFF7D7FB08F05E
:101D0000D7FF009602460B460F4807F021F9012144
:101D10000E4806F0D1FE05212846FFF7C7FB08F064
:101D2000C7FF009602460B46074807F011F9013736
:101D3000054807F0B3F83F2F05F1B4057FF475AF00
:101D400002B0BDE8F08100BFC487FF1F740101002D
:101D5000F8B52F482F4C304F304E03F09FFF304BDB
:101D6000304A314831495A60012510221D725861AC
:101D70002F4D30481A70D9602F4A30491C615F627C
:101D800000242F4F1E629D624FF07C562D4D5863EC
:101D90000A209A61D9622C4A1C630E2140F61C4429
:101DA0009F635E6441F204075A26DD64D866274DBE
:101DB0009A644FF49670022219659C66002164248F
:101DC0001F675E67DD61DD635866D86541F288375D
:101DD00032204FF47A76FF255A705A725A6583F88A
:101DE000401099679C65DA67C3F88010C3F89C10AF
:101DF000C3F8AC20C3F8B040C3F89070C3F8986043
:101E0000C3F8A450C3F89400C3F8A000F8BD00BF05
:101E10007801010000004040CDCCCC3D333373400D
:101E20002493FF1F20A1070033338340666686405A
:101E30000000824200002042CDCC4C40000020C176
:101E40000000A0400AD7233D9A997940CDCC4C3E62
:101E5000F0B54FF47A6083B005F07AFD00210E20D2
:101E600005F04EFD00210F2005F04AFD0021112054
:101E700005F046FD0021102005F042FD0021122052
:101E800005F03EFD0021132005F03AFD01210B2055
:101E900005F036FD01210C2005F032FD0121142052
:101EA00005F02EFD0121152005F02AFD0121162047
:101EB00005F026FD0121172005F022FD0121052056
:101EC00005F01EFD894C8A4D0121062005F018FD04
:101ED00001210D2005F014FD208809F03BFB01468F
:101EE000162005F077FC208809F034FB0146172006
:101EF00005F070FC208809F02DFB0146052005F057
:101F000069FC208809F026FB00240146062005F024
:101F100061FC00942346774A7749784804F03EF9FB
:101F2000E6B232467249754804F0E6F82B797049FA
:101F300072486FF30003013432462B7104F0D2F87B
:101F4000082CEDD10924E6B2324669496B4804F009
:101F5000D3F82B796649694843F0010301343246CE
:101F60002B7104F0BFF80D2CEDD1654C4FF0FF3212
:101F70002068102104F0DEFC20684FF0FF321021B1
:101F800004F0B0FC20684FF0FF32022104F0BEFCE8
:101F900020684FF0FF32022104F0C2FC00220E2123
:101FA000206804F0D1FC0C21564806F085FD564807
:101FB00006F074FF1421554806F07EFD524806F0E5
:101FC0006DFF514806F06AFF1721514806F074FD75
:101FD0004D4806F063FF4F4B1B789A0600F1AE8028
:101FE0004C4B1B781B0700F1B5804A4B1B785F07F1
:101FF00000F1BC80474B1B789E0700F1C380464B25
:102000001B781D0600F1CA80434B1B785C0600F16B
:10201000D180414B1B78980600F1D8803E4B1B784D
:10202000590700F1DF803C4B1B781A0700F1E6806E
:10203000394B1B789B0700F1ED80334806F02EFFEB
:1020400072B6364A4CF220534DF6281120241380E4
:1020500023461180013BFDD1314D324832490023E6
:102060004FF480562E8003800B8032F80E3C9BB2DA
:1020700043F0D30322F80E3C62B69D2005F00EFE1D
:1020800021462A482A4D06F017FD1F4806F006FF94
:1020900005F1B4062F462C46601B05F037F904F80D
:1020A000010BB442F8D13B78102B01D0FFF750FE62
:1020B0002048FFF7C9FA042003F048FD1E4B1D48D5
:1020C00000221A60FFF7BEFA01210D2005F004FC82
:1020D000796D1848FFF7CAFB7A6C97F840101548DD
:1020E00003B0BDE8F040FFF7C3BB00BF2C87FF1F64
:1020F000E493FF1FD8C2FF1F20A107003CC1FF1FB0
:102100007894FF1F98010100C487FF1FA8010100F8
:10211000C001010001F0074000F007400E2005401B
:10212000042005400620054016200540C402010099
:102130002493FF1FB094FF1F4892FF1F21213948AD
:1021400006F0BAFC384806F0A9FE384B1B781B078E
:102150007FF54BAF0C21364806F0AEFC324806F056
:102160009DFE324B1B785F077FF544AF0E2131484F
:1021700006F0A2FC2C4806F091FE2C4B1B789E0723
:102180007FF53DAF17212C4806F096FC264806F057
:1021900085FE2A4B1B781D067FF536AF0E21284899
:1021A00006F08AFC204806F079FE244B1B785C067A
:1021B0007FF52FAF1221234806F07EFC1A4806F067
:1021C0006DFE1E4B1B7898067FF528AF13211E4825
:1021D00006F072FC144806F061FE184B1B78590794
:1021E0007FF521AF1C21194806F066FC0E4806F069
:1021F00055FE124B1B781A077FF51AAF19211448A8
:1022000006F05AFC084806F049FE0C4B1B789B0769
:102210007FF513AF18210F4806F04EFC024806F078
:102220003DFE0AE7D8010100C487FF1F01F0074007
:10223000FC0101000C0201001C02010000F007403B
:102240003402010044020100580201006C02010046
:102250008C020100A802010070B5464C464D47486B
:10226000E66800232B70FFF7DBFA0146304609F0E1
:1022700067FB08B104232B704048FFF7ABFA2169D4
:1022800009F05EFB18B12B7843F010032B703B482C
:10229000FFF70CFBA16A09F071FB18B12B7843F032
:1022A00040032B70002335486B70FFF7FFFAE16A9B
:1022B000314E09F045FB08B10123737000232F480C
:1022C000EB70FFF7ADFA05462C482B4EFFF782FA6C
:1022D0000146284609F08CF8E16B09F04FFB08B184
:1022E0000123F370264D254800232B70FFF798FA41
:1022F000616A0646E06809F07BF80146304609F05D
:102300003DFB08B104232B701C48FFF763FA616A98
:102310000646206909F06EF80146304609F010FBC8
:1023200018B12B7843F010032B701448FFF7BEFA56
:10233000A16B0646A06A09F05BF80146304609F039
:102340001DFB18B12B7843F040032B7000230B4882
:102350006B70FFF7ABFAA16B0546E06A084C09F019
:1023600049F80146284609F0EBFA08B101236370E9
:1023700070BD00BF2493FF1F2093FF1FB094FF1F69
:102380006094FF1F514B1B68002B74D0F0B5504D6B
:102390002B680533B3F57A7F83B040F38E8000233A
:1023A00000272B604B4CD4F8A00009F0D7F8064664
:1023B000D4F8A40009F0D2F8314609F019F83946EA
:1023C00009F020F9444909F0D1F9314609F012F831
:1023D00009F0F4FA0146062005F0FEF802213F4814
:1023E00006F06AFB3E4806F059FD06213D4806F01E
:1023F00063FB286809F0B2F83B4909F003F908F0DB
:1024000057FC022602460B460096354806F0A0FD12
:102410000D21364806F050FBD4F8A00009F09EF8D4
:102420000746286809F09AF82F4909F0EBF80546A5
:10243000D4F8A40009F092F8394608F0D9FF014613
:10244000284609F0DFF8244909F090F9394608F0E8
:10245000D1FF08F02DFC009602460B46204806F0FE
:1024600077FD31461D4806F027FB1D4803B0BDE847
:10247000F04006F013BD174B1D4AD3F8A010D3F857
:10248000A43012685B1A632B0BDD1A4803FB02F3BE
:1024900080FB0302DB17C3EB62131944062005F02F
:1024A0009BB8154803FB022380FB0302DB17C3EB39
:1024B00022121144062005F08FB818462B6009F04F
:1024C0004DF8094909F09EF807466BE75494FF1F41
:1024D0004C92FF1F2493FF1F0000C842CC0D010047
:1024E000C487FF1FE8020100CDCCCC3DF002010003
:1024F0003C87FF1F1F85EB51CBF08D2838B54E4828
:102500004E4C06F0CBFC4C4806F0C8FC4A4806F09E
:10251000C5FC0D214A4806F0CFFAD4F89C30012BB7
:102520000ED0484C4448217800230A2206F0C6FC0D
:102530002378052B35D8DFE803F04C51565B604714
:102540000921414806F0B8FA4048FFF743F92169EC
:1025500009F0F6F918B10F213D4806F0ADFA3B48F5
:10256000FFF75EF9E16809F009FA18B10E21394860
:1025700006F0A2FA3548314DFFF72CF9216909F030
:10258000FDF970B13148FFF74BF9E96809F0D8F966
:1025900038B12C4B1B78052B48D008212E4806F06B
:1025A0008BFA02212D4806F087FA122005F09AF9DD
:1025B00001282DD0112005F095F9012831D0284BA4
:1025C0001B68012B1ED038BD0721264806F074FA7F
:1025D000E7E70621244806F06FFAE2E707212348DF
:1025E00006F06AFADDE70721214806F065FAD8E728
:1025F0000821204806F060FAD3E70B211E4806F0B8
:102600005BFACEE711211D48BDE8384006F054BA08
:102610000E211B4806F050FA112005F063F901283D
:10262000CDD10A21174806F047FAC8E70A21164813
:1026300006F042FAB5E700BFC487FF1F2493FF1FCF
:10264000000301005C94FF1F10030100B094FF1F02
:102650001C0301002C03010048030100CC0D010004
:102660008094FF1F84030100540301005C030100F8
:10267000700301007803010064030100A803010056
:102680008C0301009C0301003C0301002DE9F04F85
:10269000934C944FE36F012B8DB000F04981032BD5
:1026A00050D0914E914DA36F9148012B09BF2968DD
:1026B000296801F10041296004F01AFD3368002BFC
:1026C00040F0CE808A4804F0E9FCE36F3860012BCB
:1026D000064600F0D280874909F050F978B986495A
:1026E000304609F02DF950B9844A854B12680B9297
:1026F0000B9A1A6000232B600DB0BDE8F08FDFF855
:10270000FC817F4CD8F800300A930A9823687D4FEB
:10271000C01A08F01FFF314608F074FF7A4909F02B
:1027200025F8794909F022F8396808F063FED8F8ED
:1027300000300993099B2360002338602B600DB0A3
:10274000BDE8F08FDFF8C881704DD8F80000664E04
:10275000012300220E212B6004F0F6F82B68012BD8
:10276000336800F00381002B40F097810021D8F8F6
:102770000000DFF8B891664D04F038F933681FFAAD
:1027800080FBC9F800B0002B40F06C810021D8F824
:102790000000564DDFF878A104F0AEF8B4F88630AA
:1027A00040F6E44101FB0BF1B1FBF0F0C01A00B2BE
:1027B00008F0D4FE57498346D4F8880008F022FF79
:1027C0000146584608F0D2FFD9F800302860632B44
:1027D000DFF858B100F33A8100232B603368002BF7
:1027E0003FF461AF02214C4806F066F9D9F80020A9
:1027F000D8F8000040F6E443002103FB02F804F09F
:102800007BF8B8FBF0F008F0A5FE8046B4F886002F
:1028100008F0A4FE0146404608F0EAFD08F048FA38
:102820004FF0020802460B46CDF800803B4806F008
:102830008FFB4146384806F03FF9286808F038FA1F
:10284000CDF8008002460B46344806F081FB414635
:10285000334806F031F941462F4806F02DF922E7BA
:10286000234804F01BFC08F023FA022602460B461C
:1028700000962A4806F06CFB24E7244B1B68012BCA
:1028800000F01781022B7FF435AF264909F076F866
:1028900030B92549304609F053F8002800F0388156
:1028A000DFF85880164CD8F8003007930798236853
:1028B000144FC01A08F04EFE314608F0A3FE12492C
:1028C00008F054FF104908F051FF396808F092FDF4
:1028D000D8F800300693069B386023600AE700BFF3
:1028E0002493FF1F6092FF1FA494FF1F5492FF1FA9
:1028F000FC92FF1F0000FA430000FAC3E4C2FF1F6E
:102900007494FF1F6892FF1F00007A442887FF1FFE
:102910007894FF1F17B7D138CC0D0100C487FF1F73
:10292000F803010000C82F4800A08CC61C93FF1FAD
:102930003D689749284609F003F830B12846954983
:1029400009F01CF800287FF4FDAEDFF85482924DA8
:10295000D8F80000914E022300220F212B6003F0D3
:10296000F3FF2B68012B33687FF4FDAE002B40F0A2
:10297000D6800021D8F80000DFF86892884D04F076
:1029800035F833681FFA80FBC9F800B0002B40F01F
:10299000E3800021D8F80000824DDFF804A203F0A4
:1029A000ABFFB4F8843040F6E44101FB0BF1B1FB1E
:1029B000F0F0C01A00B208F0D1FD7B498346D4F88C
:1029C0008C0008F01FFE0146584608F0CFFED9F8EB
:1029D00000302860632BDFF80CB200F3B1800023D5
:1029E0002B603368002B3FF45EAE02216F4806F087
:1029F00063F8D9F80020D8F8000040F6E44300213D
:102A000003FB02F803F078FFB4F88410B8FBF0F091
:102A100000B2411A664806F091FA0221634806F0B6
:102A20004BF8286808F044F94FF0020802460B46BC
:102A3000CDF800805E4806F08BFA03215D4806F071
:102A40003BF84146594806F037F82CE6DAF8000022
:102A5000002103F051FFDBF8003064389842FFF4A6
:102A6000BBAEBBE60021286803F046FF40F6E44118
:102A700000230A2201FB0BF1B1FBF0F14C4806F0F8
:102A80001DFA0221494806F017F8B4F886104848A4
:102A900006F054FAD9F800B078E6454806F0FEF999
:102AA0000C21454806F008F80C21444806F004F8CB
:102AB0005CE6434908F062FF58B94249304608F0E5
:102AC0003FFF30B9404A414B12680592059A1A609F
:102AD00010E6DFF8F4803D4CD8F8003004930498F9
:102AE00023683B4FC01A08F035FD314608F08AFDD7
:102AF000384908F03BFE374908F038FE396808F0DD
:102B000079FCD8F800300393039B38602360F1E52B
:102B10002D4A2E4B12680892089A1A60EAE524485A
:102B200006F0BCF9E36F012B4FF00B010CBF2A48F4
:102B30002A4805F0C1FF0C21204805F0BDFF18E729
:102B4000DAF80000002103F0D7FEDBF8003064382B
:102B50009842FFF444AF44E70021286803F0CCFE1C
:102B600040F6E44100230A2201FB0BF1B1FBF0F136
:102B70000F4806F0A3F90121194805F09DFFB4F8AC
:102B800084100B4806F0DAF9D9F800B001E700BF6D
:102B900000709446007094C62887FF1FA494FF1FFE
:102BA0007894FF1F5492FF1F17B7D138CC0D010046
:102BB000C487FF1FE4030100E8030100D403010000
:102BC0000000FA430000FAC3E4C2FF1F7494FF1F21
:102BD0006892FF1F00007A44BC030100C803010093
:102BE000FC0201001C93FF1F2DE9F047B24D2B683A
:102BF00084B0002B7ED0B14CDFF8C882B04EE36FBA
:102C0000AE4D012B00F08F80D4F88030AB4F012BFC
:102C100000F0BC80D6F80090D7F858A07D6DA94F81
:102C200005FB0AF54FF47A7000FB05F008F096FCFE
:102C3000A5490546484608F0E5FC294608F096FDFA
:102C4000A24908F0DFFC08F0B9FE6328C8F80000CC
:102C50004BDD28469C4908F089FD642330603B60C9
:102C60009B4B1B68002B3DD0E36F944D012B00F074
:102C7000BB80032B00F00981022B00F00C810221A4
:102C8000944805F019FF944B186808F011F80224D5
:102C900002460B460094914806F05AF921469048A6
:102CA00005F00AFF21468B4805F006FFD8F8001012
:102CB0008A4806F043F906218A4805F0FDFE30688F
:102CC000814908F09FFC07F0F3FF009402460B4691
:102CD000824806F03DF90321834805F0EDFE7F4868
:102CE00006F0DCF804B0BDE8F0870028BCBF002384
:102CF0003B60B5E77D4E714C33680293029A42F215
:102D000028339A4200F2BA8033680393039A42F25E
:102D100010739A4274D8E36FDFF8A881684E674D4C
:102D2000012B7FF471AF7248FEF700FE7149D5F8B0
:102D30006890EF6E08F066FC08F066FE2A6F6B6F15
:102D4000C9EB0202DB1B80B29A42C9EB000040F3E0
:102D5000AD8003FB0000531C90FBF3F31F44A06DF8
:102D6000636DC8F8007000FB07F003FB00F000EB98
:102D70008000400008F0F2FB5349504F08F0F6FC89
:102D8000D4F880303060012B7FF444AF5848FEF710
:102D9000CDFD5849D7F86890FD6E08F033FC08F077
:102DA00033FE3A6F7B6FD4F858A0C9EB02025B1B6D
:102DB00080B29A42C9EB0000C6BF03FB000001329B
:102DC000584390FBF2F02844656D00FB0AF005FBC8
:102DD00000F000EB8000400008F0C0FB3A4908F02A
:102DE000C5FC814630601AE7434B1B68012B4FF04E
:102DF0000A010CBF4148424805F05EFEEB6F38E720
:102E00003B48FEF793FD3B49A76EE66E08F0FAFBE0
:102E100008F0FAFD226F636FD21B9B1B80B29A42AF
:102E2000A0EB07003CDD03FB0000531C90FBF3F319
:102E30009819A26DDFF88C80636DC8F8000002FB62
:102E400000F003FB00F000EB8000400008F086FB80
:102E50001D491B4E08F08AFC0123306002211D48E9
:102E60002B6005F029FE1D4806F018F85921254869
:102E700005F022FE194806F011F8C0E61C48626C05
:102E800094F84010FEF7F4FC3EE710211E4805F0D0
:102E900013FEE36FF0E607211C4805F00DFEEEE699
:102EA00003FB00F393FBF2F39819C2E703FB00F373
:102EB00093FBF2F31F4452E75092FF1F2493FF1F2E
:102EC0006892FF1F3C87FF1FE4388E3E0000C84217
:102ED0004487FF1FCC0D01006092FF1FC487FF1FB6
:102EE000F80301008C04010094040100E4C2FF1FF8
:102EF000B094FF1F00007A442887FF1F5804010088
:102F000064040100FC03010070040100840401005A
:102F1000F0B5112083B004F0E5FC012813D00021A6
:102F20000B2004F0D9FC00210C2004F0D5FC00217A
:102F3000152004F0D1FC1D491D4B01200022087012
:102F40001A6003B0F0BD01460446152004F0C4FC2D
:102F50001849194A194B09680191D2F890001B6869
:102F60000199134D034402268B422E6017D8D2F8E4
:102F7000980008F0F3FA124B196808F0E1FC0746D4
:102F800068B921460B2004F0A7FC084A0323394600
:102F90000C2016702B6004F09FFC03B0F0BD0121E3
:102FA0000C2004F099FC03B0F0BD00BF5C94FF1F3F
:102FB000A094FF1FE4C2FF1F2493FF1FA894FF1FCC
:102FC0006092FF1F2DE9F041484E494D33682C684F
:102FD000A34284B012D013F001016DD09B0719D524
:102FE000444FDFF81C813B682BB3D8F800200192D6
:102FF000019A9A4231D83468A10769D43CB9214674
:10300000162004F0E9FA2146172004F0E5FA04B08E
:10301000BDE8F0810021172004F0DEFA2B68346847
:1030200003F0FD03E7072B60E6D5324FDFF8D080D1
:103030003B68002BD9D1FF21162004F0CDFAD8F837
:1030400000202D4B0092009A1B681344D8F80020F2
:103050000192019A3B609A42CDD9284B1620D3F8B1
:10306000941004F0B9FA2B68346843F0010300228D
:10307000A0072B603A60C1D5FF21172004F0ACFAFD
:10308000D8F800201C4B0292029A1B681344D8F80F
:1030900000200392039A3B609A4225D9174B1720D0
:1030A000D3F8941004F098FA2B68346843F00203C4
:1030B00000222B603A60A1E7162004F08DFA2B68FD
:1030C000326803F0FE032B609307A3D5D20787D4A1
:1030D000084FDFF82C803B68002BCDD0D8F80020BB
:1030E0000392039A9A42D9D8346887E7A094FF1FC5
:1030F000D893FF1FDC93FF1F6C87FF1F2493FF1FD4
:10310000E4C2FF1F2DE9F8434B4DDFF858912868C2
:103110004A4E4B4F00220E2103F016FC01232221C0
:103120004848C9F8003005F0C7FC3368132B1EDC93
:1031300040F6E4480021286803F058FC00210446CA
:10314000286803F0D9FB3B88A4B2012108FB04F4F2
:10315000B4FBF0F43C481C443C8005F0ADFC64201A
:1031600004F0F6FB33680133132B3360E2DD3B8858
:10317000364A3748A2FB03129B1A02EB5303C3F3F0
:103180000F1319463B8005F0D9FE1D213148324FFF
:1031900005F092FC0221314805F08EFC2C4805F028
:1031A0007DFE00231A460F212868336003F0CCFB14
:1031B000022322212348C9F8003005F07DFC336842
:1031C000132B1EDC40F6E4480021286803F00EFCB7
:1031D00000210446286803F08FFB3B88A4B201213C
:1031E00008FB04F4B4FBF0F417481C443C8005F0E1
:1031F00063FC642004F0ACFB33680133132B3360B1
:10320000E2DD3B88114A1248A2FB03129B1A02EB33
:103210005303C3F30F1319463B8005F08FFE1D21A6
:103220000F4805F049FC02210C4805F045FC084810
:10323000BDE8F84305F032BE7894FF1F5C92FF1F93
:103240005887FF1F98040100DC040100876118867D
:10325000C487FF1FBC0401005A87FF1FCC0D01006B
:10326000E00401002887FF1F2DE9F843744D754CD9
:10327000286D754EDFF8FC81082740F2513323603A
:10328000E77108F06BF96969814608F0BBF96F498D
:1032900008F0B8F908F0B8FB6D4B6E4A1B68D2F81D
:1032A00000E0A37282B23B41A9692272E3723A4103
:1032B0004EFA07F3484684F80CE06272637308F034
:1032C000A1F9624908F09EF908F09EFB83B243FA27
:1032D00007F221463046A373E27303F057F95E4BC1
:1032E0005E4A1B681288A272DDB240F2553121603D
:1032F00005EB850E43FA07F103EB83034FEA4E0E0D
:103300003A4143F3D71361722572214600253046B6
:1033100084F80CE0E272E7716373A573E57303F060
:1033200035F940F2563340462360E771FEF79CFAC8
:103330004B4908F067F908F067FB20724046FEF73A
:1033400093FA474908F05EF908F05EFB454A4449A4
:10335000C0F307231068637208F008FA08F02EFB28
:1033600040FA07F203464046E272A372FEF79EFA65
:10337000364908F047F908F047FB20734046FEF74E
:1033800095FA324908F03EF908F03EFB2146C0F3B9
:10339000072330466373A573E57303F0F7F8022043
:1033A00004F0D6FA304BE771187893F801E09A7878
:1033B000207240F25A31DB7821603046214684F891
:1033C00009E025736573A573E573A272E37203F0D8
:1033D000DDF8264BE77118785D789A78207240F214
:1033E0005E3118792160D9786572A2725D799A7917
:1033F000E172DB79207321463046A273E373657373
:1034000003F0C4F8022004F0A3FA194BE7711D7809
:103410005A789978DF78257230464FF45C765D797A
:10342000266062721E799A79DB79A172E772214671
:1034300026736573A273E373BDE8F84303F0A6B87F
:103440002493FF1F9094FF1F3CC1FF1F00002041E9
:103450004492FF1F7094FF1F3C87FF1F4087FF1F90
:103460000000C8426092FF1F2093FF1F3087FF1F9C
:103470006087FF1FB094FF1F38B5284B1B68012BD6
:1034800000D038BD264D2748FEF7A4F9E96C07F0B7
:10349000B1FF04462348FEF7C3F90146204608F071
:1034A0004FFA0028EDD0204C1E4840F2C3320823CA
:1034B0002260E371FEF78EF9AD6C294608F040FA00
:1034C000B8B11A49284608F09DF808F09DFA80B274
:1034D00003126072237200230122A272E37223732B
:1034E0006373A373E37310491148BDE8384003F0D8
:1034F0004DB80C48FEF76EF90C4908F083F808F057
:1035000083FAC0F3072307482372FEF763F90749DC
:1035100008F078F808F078FA6072DCE78094FF1F12
:103520002493FF1FB094FF1F9094FF1F0000C84218
:103530003CC1FF1FF0B5B24CB24D83B005F056FA56
:1035400023682860042B00F0E282022B7ED0082B37
:1035500000F00A81072B40F08381322800F0FF83BE
:1035600040F37481332800F00F84712803D10023C5
:10357000732023602860002B08BF73280CBF012034
:103580000020002860D0A04805F088FC04219F4856
:1035900005F092FA9C4805F081FC10219C4805F04A
:1035A0008BFA994805F07AFC13219A4805F084FAC1
:1035B000994B9548196805F0C1FC934805F06EFCDD
:1035C0001421964805F078FA8F4805F067FC1E2113
:1035D000934805F071FA8C4805F060FC152191487C
:1035E00005F06AFA884805F059FC1E218E4805F05E
:1035F00063FA854805F052FC20218C4805F05CFAFE
:10360000814805F04BFC1921894805F055FA7E48A0
:1036100005F044FC1221874805F04EFA7A4805F07F
:103620003DFC0F21844805F047FA774805F036FC49
:103630000D21824805F040FA734805F02FFC804ABE
:10364000002101231160236003B0F0BDA0F131021D
:10365000422A90D801A151F822F000BF973E000005
:10366000AD3E0000C73E0000E93E00001F3F0000E5
:10367000773500007735000077350000773500009A
:10368000773500007735000077350000773500008A
:10369000773500007735000077350000773500007A
:1036A000773500007735000077350000773500006A
:1036B000773500007735000077350000773500005A
:1036C000773500007735000077350000773500004A
:1036D000773500007735000077350000773500003A
:1036E000773500007735000077350000773500002A
:1036F000773500007735000077350000773500001A
:103700007735000077350000773500007735000009
:1037100077350000773500007735000077350000F9
:10372000773500003D3F0000773500007735000019
:1037300077350000773500007735000077350000D9
:1037400077350000773500007735000077350000C9
:103750007735000077350000773500006F350000C1
:10376000773500000F3F0000322800F0E382712817
:103770003FF4FDAE31287FF4FEAE05F073F900286A
:1037800040F3858320482F4E05F01CFDC0B286F81B
:103790004000022894BF01460021726C2A4888BF6D
:1037A00086F84010FEF764F8012369202360286042
:1037B000A0F152031F2B01F21B82DFE813F06C090A
:1037C000190A190A190A190A190A190A190A190AE1
:1037D000190A190A190A190A190A190A0D09E60A11
:1037E0006E094108B307190A190A190A6B07190A61
:1037F000E30A190A190A190A190A190A400700BF27
:10380000AC94FF1F4092FF1FC487FF1F480C0100AC
:10381000500C0100640C01002087FF1F780C010090
:10382000900C0100B00C0100C80C0100E80C010074
:103830000C0D0100280D01003C0D01004C0D010094
:103840004487FF1F2493FF1FB094FF1F31287FF48C
:1038500092AE05F007F9002800F3A48323682868D6
:10386000062B40F08D80A0F13102402A3FF683AE56
:1038700001A151F822F000BF333E00005D3E000080
:10388000AD3D0000D13D0000F53D0000113E0000BF
:103890007735000077350000773500007735000078
:1038A0007735000077350000773500007735000068
:1038B0007735000077350000773500007735000058
:1038C0007735000077350000773500007735000048
:1038D0007735000077350000773500007735000038
:1038E0007735000077350000773500007735000028
:1038F0007735000077350000773500007735000018
:103900007735000077350000773500007735000007
:1039100077350000773500007735000077350000F7
:1039200077350000773500007735000077350000E7
:1039300077350000773500007735000077350000D7
:1039400077350000773500007735000077350000C7
:1039500077350000773500007735000077350000B7
:1039600077350000773500007735000077350000A7
:1039700077350000773500006F3500002368286830
:10398000052B1AD1332801F0658140F34B8135288E
:1039900001F04F81BFF6E9AD05F064F800280ADDBB
:1039A000D948DA4E05F00EFC01226B23C6F8A000C0
:1039B00022602B604BE123682868032B40F0A38032
:1039C000A0F13002422A3FF6D6AD01A151F822F013
:1039D000DD3A0000C9440000F1440000F743000054
:1039E0001D46000079440000A14400001945000074
:1039F000374500005B450000773500007735000053
:103A00007735000077350000773500007735000006
:103A100077350000773500007735000077350000F6
:103A200077350000773500007735000077350000E6
:103A300077350000773500007735000077350000D6
:103A400077350000773500007735000077350000C6
:103A500077350000773500007735000077350000B6
:103A600077350000773500007735000077350000A6
:103A70007735000077350000773500007735000096
:103A80007735000077350000773500007735000086
:103A900077350000834500001D4000005B440000B6
:103AA000A1450000BF450000DD450000F93F0000D2
:103AB0007735000077350000773500007735000056
:103AC0007735000077350000773500007735000046
:103AD00077350000194400002544000004F0C2FFBF
:103AE000002841F38E808848884E05F06BFB012743
:103AF0000346014662228648736527602A60FDF707
:103B0000B5FE23682868012B7FF435AD50E6A0F19F
:103B10003102402A3FF62FAD01A151F822F000BF3B
:103B2000A13F0000993F00009D3F00005F3F000063
:103B3000633F00007D3F0000953F0000493F0000CB
:103B400077350000773500007735000077350000C5
:103B500077350000773500007735000077350000B5
:103B600077350000773500007735000077350000A5
:103B70007735000077350000773500007735000095
:103B80007735000077350000773500007735000085
:103B90007735000077350000773500007735000075
:103BA0007735000077350000773500007735000065
:103BB0007735000077350000773500007735000055
:103BC0007735000077350000773500007735000045
:103BD0007735000077350000773500007735000035
:103BE0007735000077350000773500007735000025
:103BF0007735000077350000773500007735000015
:103C00007735000077350000773500007735000004
:103C100077350000773500007735000077350000F4
:103C20006F350000312800F0F38732287FF4A3AC11
:103C300004F018FF00287FF7BEAE3348334E05F07E
:103C4000C1FA01226B23C6F8980022602B602E482F
:103C500005F024F92C4805F021F92B4805F01EF950
:103C6000294805F01BF9284805F018F921212948B1
:103C700004F022FF244805F011F91521264804F02C
:103C80001BFFD6F89010204805F058F90221234870
:103C900004F012FF1C4805F001F91E21204804F031
:103CA0000BFFD6F89810184805F048F903211D4875
:103CB00004F002FF144805F0F1F81E211A4804F040
:103CC000FBFED6F89410104805F038F90E4805F0C0
:103CD000E5F81D21154804F0EFFED6F8A0100A48BB
:103CE00005F02CF9084805F0D9F81E21104804F019
:103CF000E3FED6F8A410044805F020F9024805F0C8
:103D0000CDF8052323609FE4C487FF1F2493FF1F82
:103D1000B094FF1F2C07010050070100A40601000A
:103D200068070100E403010088070100A8070100FB
:103D3000C807010004F096FE002840F3A480A248C2
:103D4000A24E05F03FFA07F009FCA14907F05AFC22
:103D50000346024696F840109E48736422E504F03C
:103D600081FE00287FF77AAD9748984E05F02AFA31
:103D700007F0F4FB964907F045FC61230122F0634C
:103D800022602B60184613E504F06CFE00287FF7D4
:103D900065AD8D488D4E05F015FA07F0DFFB612308
:103DA0000122B06322602B60184601E504F05AFE40
:103DB00000287FF7E3AD8448844E05F003FA00EB5A
:103DC0008000430001226520F36522602860EFE453
:103DD00004F048FE00287FF7D1AD7B487B4E05F00C
:103DE000F1F900EB80004300012265203366226078
:103DF0002860DDE4754AD2F8AC300133052BC8BF2A
:103E00000023C2F8AC306520012323602860CFE492
:103E100004F028FE00287FF7B1AD6B486B4E05F02B
:103E2000D1F965230122C6F8B00022602B60184644
:103E3000BEE404F017FE00287FF7A0AD6248634E91
:103E400005F0C0F907F08AFB634907F08FFC652392
:103E50000122706122602B601846A9E404F002FE82
:103E600000287FF78BAD5848584E05F0ABF907F0A6
:103E700075FB594907F07AFC65230122F061226045
:103E80002B60184694E423682868FFF763BB4F4E05
:103E900096F840007DE44D4EB36FB3FA83F35B09AF
:103EA00001226320B3672260286081E4474ED6F880
:103EB0008030B3FA83F35B0901226320C6F88030B7
:103EC0002260286074E40123236004F0CBFD002805
:103ED00005DD3D483D4E05F075F9C6F8A800012303
:103EE00063202360286063E40123236004F0BAFDAB
:103EF000002807DD3448354E05F064F907F02EFB45
:103F0000C6F88C00632028602368FFF723BB2F4A84
:103F1000D36F0133032BC8BF0023D367DFE701232F
:103F2000236004F09FFD0028ECDD2748274E05F0B4
:103F300049F907F013FBC6F88800E3E7FFF7E2F85A
:103F400023682868FFF703BB244A1368B3FA83F396
:103F50005B090121642013602160286028E4204A65
:103F6000F3E71A4ED6F89C30B3FA83F35B090122CB
:103F70006420C6F89C302260286019E401231548AB
:103F80002360FDF701FB174A236810606420286056
:103F9000FFF7DDBA144AD8E7144AD6E7144AD4E743
:103FA000144AD2E70848094E05F00CF907F0D6FA92
:103FB000074907F027FB61230122706222602B6012
:103FC0001846FFF7F5BB00BFC487FF1F2493FF1FF0
:103FD0006F12833AB094FF1F00007A448C94FF1F45
:103FE0007C94FF1F5894FF1F5494FF1FA494FF1F3D
:103FF0008894FF1F5094FF1F04F034FD00280DDD4E
:10400000C148C24E05F0DEF807F0A8FAC04907F033
:10401000ADFB01226223306222602B6004F022FD9E
:10402000002840F3EE85B848B84E05F0CBF80122E1
:104030006223B06622602B60B34804F02FFFB248C1
:1040400004F02CFFB04804F029FFAF4804F026FF2D
:10405000AD4804F023FF1521AE4804F02DFDAA4819
:1040600004F01CFF1421AC4804F026FDA64804F01F
:1040700015FF1B21A94804F01FFDA34804F00EFF03
:104080001321A74804F018FD9F4804F007FF9E483D
:1040900004F004FF9C4804F001FF2021A14804F033
:1040A0000BFDF0689A4907F0ADFA06F001FE002713
:1040B00002460B460097944804F04AFF02219A48B2
:1040C00004F0FAFC0221994804F0F6FC8E4804F052
:1040D000E5FE2121964804F0EFFC30698C4907F099
:1040E00091FA06F0E5FD009702460B46864804F07B
:1040F0002FFF02218C4804F0DFFC02218B4804F0E2
:10410000DBFC814804F0CAFE1F218A4804F0D4FC7D
:10411000B06A06F0CDFD022502460B4600957A48AE
:1041200004F016FF0121844804F0C6FC29467F48AC
:1041300004F0C2FC744804F0B1FE20217F4804F072
:10414000BBFCF06A06F0B4FD009502460B466E48D3
:1041500004F0FEFE0121784804F0AEFC29467348C5
:1041600004F0AAFC684804F099FE2321744804F086
:10417000A3FCB06C664907F045FA06F099FD00977C
:1041800002460B46604804F0E3FE2946664804F008
:1041900093FC2946654804F08FFC5B4804F07EFEE2
:1041A0001F21684804F088FCF06C594907F02AFA8E
:1041B00006F07EFD009702460B46534804F0C8FE09
:1041C0002946594804F078FC2946584804F074FC04
:1041D0004D4804F063FE19215B4804F06DFCB16D9D
:1041E000494804F0ABFE2946584804F065FC2946CE
:1041F0004E4804F061FC444804F050FE1821544835
:1042000004F05AFC706E07F0A9F9524907F0FAF968
:1042100006F04EFD009502460B463B4804F098FE22
:1042200001214D4804F048FC2946404804F044FC74
:10423000354804F033FE2B21484804F03DFCB069BA
:10424000334907F0DFF906F033FD009702460B46CD
:104250002D4804F07DFE2946334804F02DFC294604
:10426000324804F029FC284804F018FE1F213C487D
:1042700004F022FC716D244804F060FE29462B48AE
:1042800004F01AFC204804F009FE2021354804F00F
:1042900013FC316D1C4804F051FE2946234804F0FC
:1042A0000BFC194804F0FAFD10212F4804F004FC1F
:1042B000B16E154804F042FE29461B4804F0FCFB91
:1042C00029461A4804F0F8FB0F4804F0E7FD1321D3
:1042D000264804F0F1FBF16E0B4804F02FFE01219B
:1042E000234804F0E9FB2946104804F0E5FB0648A2
:1042F00004F0D4FD10211F4804F0DEFB316F0248AA
:1043000004F01CFE294637E0C487FF1F2493FF1FDB
:1043100000007A44100A0100280A0100400A010046
:104320007C0501005C0A010078050100CC0D01004C
:10433000800A0100A40A010070010100C40A010002
:10434000E80A01000C0B01002C0B0100480B0100D6
:104350004C0B0100CDCCCC3DEC090100680B0100F9
:10436000940B0100B40B0100D80B0100EC0B010011
:10437000000C0100040C0100BA4804F09DFB294622
:10438000B94804F099FBB94804F088FD1421B848F5
:1043900004F092FB716FB54804F0D0FD0121B548DF
:1043A00004F08AFB2946B04804F086FBAF4804F0CD
:1043B00075FD1621B04804F07FFB306AAF4907F065
:1043C00021F906F075FC00970B460246A74804F059
:1043D000BFFD2946A34804F06FFB2946A24804F01C
:1043E0006BFBA24804F05AFDA04804F057FD0323DC
:1043F0002360FFF729B904F035FB002840F301845E
:104400009A489F4E04F0DEFE07F0A8F801226223CE
:10441000B06222602B600FE60022732322602B60C3
:10442000FFF7B1B8974B9048954E002202211A60D1
:1044300004F042FB8D4804F031FD0B21924804F05A
:104440003BFB0221884804F037FB884804F026FD36
:104450000122622322602B60EEE504F003FB0028BA
:1044600040F3CF838148864E04F0ACFE01226223E4
:10447000F06622602B60DFE504F0F4FA002840F3D8
:10448000C0837A487E4E04F09DFE07F067F87B49B2
:1044900007F06CF901226223B06422602B60CBE547
:1044A00004F0E0FA002840F3AC837048744E04F046
:1044B00089FE07F053F8714907F058F90122622389
:1044C000F06422602B60B7E504F0CCFA002840F3DA
:1044D000988366486A4E04F075FE07F03FF8674916
:1044E00007F044F901226223F06022602B60A3E50B
:1044F00004F0B8FA002840F384835C48604E04F06E
:1045000061FE07F02BF85D4907F030F901226223C4
:10451000306122602B608FE504F0A4FA002840F39C
:1045200070835248564E04F04DFE01226223B0655E
:1045300022602B6080E504F095FA002840F3618347
:104540004A484F4E04F03EFE00EB8000430001213C
:104550006222736621602A606EE504F083FA002807
:1045600040F34F834148464E04F02CFE06F0F6FF20
:10457000424907F0FBF801226223B06122602B6000
:104580005AE504F06FFA002840F33B8337483C4E6D
:1045900004F018FE01226223306522602B604BE597
:1045A00004F060FA002840F32C833048344E04F0C5
:1045B00009FE01226223306722602B603CE504F093
:1045C00051FA002840F31D8328482D4E04F0FAFDCF
:1045D00001226223706722602B602DE5FDF7B8FB96
:1045E00002212148264E04F067FA204804F056FCC8
:1045F00002211D4804F060FA1C4804F04FFC02211F
:10460000194804F059FA194804F048FC17211F48CA
:1046100004F052FA154804F041FC12E704F022FAC3
:10462000002840F3EE821148154E04F0CBFD06F051
:1046300095FF01226223F06222602B60FCE4B42229
:1046400000210F4802F07CFE2868114AA0F1730097
:1046500001210023B0FA80F0400911602360FEF7C9
:1046600090BF00BF78050100CC0D0100C487FF1F7B
:10467000180C0100000C0100300C010000007A440D
:104680002493FF1F5092FF1F240501000C05010019
:104690004487FF1FAF48B04D04F000FCAD4804F064
:1046A000FDFBAC4804F0FAFBAA4804F0F7FBA9486C
:1046B00004F0F4FB1521A94804F0FEF9A54804F024
:1046C000EDFB1821A64804F0F7F900230A2295F81B
:1046D0004010A04804F0F2FB9E4804F0DFFB2821C4
:1046E000A04804F0E9F9686C9F4906F08BFF06F0DA
:1046F000DFFA00250B4602460095964804F028FC98
:1047000002219A4804F0D8F9924804F0C7FB13211B
:10471000974804F0D1F98F4804F0C0FB08232360C8
:10472000FEF792BF8B488C4E04F0B8FB894804F02A
:10473000B5FB884804F0B2FB864804F0AFFB85481F
:1047400004F0ACFB11218B4804F0B6F9814804F069
:10475000A5FB2821884804F0AFF97069824906F06A
:1047600051FF06F0A5FA002502460B460095794850
:1047700004F0EEFB02217D4804F09EF9754804F038
:104780008DFB16217D4804F097F9F069764906F013
:1047900039FF06F08DFA00950B4602466D4804F08D
:1047A000D7FB0221714804F087F96A4804F076FBD0
:1047B000D6F8AC30AB4232DD1D21714804F07CF9F3
:1047C000F06D06F0CBFE6F4906F01CFF06F070FAA4
:1047D000022502460B4600955E4804F0B9FB012114
:1047E000694804F069F95B4804F058FB1F216748E9
:1047F00004F062F9306E06F0B1FE624906F002FF85
:1048000006F056FA009502460B46524804F0A0FB0B
:1048100001215D4804F050F94E4804F03FFB11219E
:104820005B4804F049F9D6F8AC30052B00F2A181C1
:10483000DFE813F0D401D901CF01CA01C5019B0102
:10484000444804F02BFB434804F028FB414804F0A3
:1048500025FB404804F022FB3E4804F01FFB1321D7
:104860004C4804F029F93B4804F018FB0D214A4854
:1048700004F022F9374804F011FB0F21474804F0F7
:104880001BF9474B3348196804F058FB314804F0D2
:1048900005FB1321434804F00FF9434B2D481968D9
:1048A00004F04CFB2B4804F0F9FA12213F4804F0C5
:1048B00003F93F4B2748196804F040FB254804F0F2
:1048C000EDFA11213B4804F0F7F83B4B21481968F9
:1048D00004F034FB1F4804F0E1FA0E21374804F0DD
:1048E000EBF81D4B1B48D3F89C1004F027FB19482C
:1048F00004F0D4FA1921324804F0DEF8314B15489F
:10490000196804F01BFB134804F0C8FA11212E4863
:1049100004F0D2F82D4B0F48196804F00FFB0D4836
:1049200004F0BCFA10212A4804F0C6F8294B0948C3
:10493000196804F003FB074804F0B0FA13210C488F
:1049400004F0BAF8034804F0A9FA04232360FEF740
:104950007BBE00BFC487FF1F2493FF1F100D010003
:10496000300501004C05010000007A447805010083
:104970007C050100B40C010090050100BC0501009C
:10498000D4050100CDCCCC3DEC090100F4050100BB
:1049900014060100E8070100FC0701000C080100F3
:1049A0005094FF1F1C080100A494FF1F3008010051
:1049B0008894FF1F440801007C94FF1F58080100E1
:1049C000680801005894FF1F840801005494FF1FD9
:1049D000980801008C94FF1FC148C24D04F05EFA94
:1049E000BF4804F05BFABE4804F058FABC4804F033
:1049F00055FABB4804F052FA1F21BB4804F05CF89A
:104A0000B74804F04BFA1C21B84804F055F8686A1E
:104A1000B74906F0F7FD06F04BF9002602460B46B3
:104A20000096AF4804F094FA0221B24804F044F82A
:104A3000AB4804F033FA2321AF4804F03DF8E86BAB
:104A4000AB4906F0DFFD06F033F9009602460B464F
:104A5000A34804F07DFA0221A64804F02DF8A048EE
:104A600004F01CFA1921A54804F026F8A86B06F0FA
:104A70001FF902250B4602460095994804F068FA92
:104A800029469F4804F018F8954804F007FA0723D0
:104A90002360FEF7D9BD03F0D9FA9148914E04F096
:104AA000FDF98F4804F0FAF98D4804F0F7F98C48C5
:104AB00004F0F4F98A4804F0F1F91F21914803F059
:104AC000FBFF874804F0EAF91E218F4803F0F4FF4A
:104AD000834804F0E3F91A218C4803F0EDFFF36FEB
:104AE000022B00F04781032B00F03C81012B00F0EA
:104AF00031810921864803F0DFFF794804F0CEF9BF
:104B000014218448774F03F0D7FFB16F744804F045
:104B100015FA734804F0C2F91C217F4803F0CCFF5A
:104B2000D6F880106E4804F009FA6D4804F0B6F922
:104B30001C217A4803F0C0FFD6F8A810684804F09A
:104B4000FDF9674804F0AAF9F56F25F00205012D7B
:104B500000F091801321724803F0AEFF604804F02A
:104B60009DF902232360FEF76FBD0F216D4803F00E
:104B7000A3FF5B485B4D04F091F9D6F8AC30002BF5
:104B80000FDD1821684803F097FFD5F8B01054489E
:104B900004F0D4F90221654803F08EFF504804F078
:104BA0007DF94F4804F07AF913215D4803F084FF42
:104BB0004B4804F073F906232360FEF745BD0D2131
:104BC0005B4803F079FFD4E70D215A4803F074FFE6
:104BD000CFE70C21584803F06FFFCAE70D21574873
:104BE00003F06AFFC5E70C21554803F065FFC0E7F5
:104BF0002368002B08BF73280CBF01200020FEF79C
:104C0000C0BC23682868012B7EF4B5ACFEF7D0BD8C
:104C100003F028FF00287EF7CEAE3148314E04F075
:104C2000D1FA01226B23C6F8900022602B60FFF7B7
:104C30000EB803F017FF00287EF7BDAE2848294EB6
:104C400004F0C0FA01226B23C6F8A40022602B6096
:104C5000FEF7FDBF03F006FF00287EF7ACAE20484C
:104C6000204E04F0AFFA01226B23C6F894002260B4
:104C70002B60FEF7ECBF1C21324803F01DFFD7F874
:104C80008C00314906F0BEFC06F012F80095024691
:104C90000B46134804F05CF905212C4803F00CFF87
:104CA0000F4804F0FBF8FD6F012D7FF453AF1D2179
:104CB000274803F001FFD7F88800234906F0A2FC3B
:104CC00005F0F6FF009502460B46054804F040F952
:104CD00005211E4803F0F0FE014804F0DFF839E733
:104CE000C487FF1F2493FF1FA8060100C806010008
:104CF00000007A4478050100E80601000C07010075
:104D000028070100AC080100CC080100EC080100F4
:104D1000640901007009010088090100A809010067
:104D20007C0501007806010088060100A406010048
:104D30006806010058060100480601002806010027
:104D400038060100C8090100CDCCCC3DE8090100BE
:104D5000F00901001E210E4803F0AEFE0D4804F0DC
:104D60009DF8CDE620210C4803F0A6FE094804F08A
:104D700095F8C5E61721094803F09EFE054804F0A2
:104D80008DF8BDE6064EFEF762BF054EFFF754B93B
:104D900008090100C487FF1F280901004C09010010
:104DA0002493FF1F38B5164C164A2368101D12F8BD
:104DB000011F904241EA0323F9D12360124C03F111
:104DC00000432360114BDB6F022B11D0104B1B688B
:104DD000012B00D038BD0F4804F060F821680D4861
:104DE00004F0ACF803210C48BDE8384003F064BE81
:104DF00020680A4D06F0B2FB2860FDF747FCE5E7A6
:104E00003C92FF1F7392FF1F6894FF1F2493FF1FA4
:104E10005094FF1FC487FF1F5C0D01005492FF1FB9
:104E200030B53F4C3F4883B0214601F0A7FA2368D4
:104E300040F2C232934258D06FF4C0615A18B2F5B2
:104E4000FF7F4CD903F100436FF4C0621344B3F504
:104E5000FF7F3FD9344B1B68012B01D003B030BD1D
:104E6000324B1B68012BF9D1314B32481B6801933F
:104E70000A220023019904F021F82268284B002A15
:104E8000DB7945DB2C492D4807F09AFB2B4807F0CE
:104E9000D7FB0146294803F00FFE2568204B15F08B
:104EA000804526D1DB798BB1631925491A7A2348CD
:104EB00007F086FB214807F0C3FB01461F4803F0BB
:104EC000FBFD0135E379EDB2AB42EDD8194803F0B3
:104ED000E5FFC3E712491B48FCF77CFBBAE7104922
:104EE0001848FCF777FB2368ACE7FFF75BFF236804
:104EF000A2E7154D114C0FCD0FC495E8030044F8FF
:104F0000040B204620F81419152103F0D5FDDDE728
:104F10000E490A4822F0604207F052FBB6E700BF94
:104F20006C92FF1F3CC1FF1F4487FF1F5094FF1F5F
:104F3000E4C2FF1FC487FF1F880D01007C92FF1F82
:104F4000B40D0100B094FF1F9C0D0100600D010025
:104F50002DE9F84F7E4B7F4C1B78052B08D07E48FF
:104F6000FCF7A4FCE16A06F0EBFC002800F081806D
:104F70007A4E7B4D002333602B607A4B76481B685A
:104F8000744F012B33D0FCF74BFCE169804660691C
:104F900006F02EFA0146404606F0F0FC00283AD111
:104FA0006D48FCF73DFCE16806F0E8FC08B1002321
:104FB0002B606948674FFCF70DFC216906F0C0FCC7
:104FC00048B1002333602B68654A002BBCBF002327
:104FD0001360BDE8F88F6048FCF7FCFBB96906F088
:104FE000AFFC0028EDD13368002BEADBEBE7FCF7E0
:104FF00017FCE1698046206A06F0FAF9014640464E
:1050000006F0BCFC0028CBD05348FCF709FCD7F8CD
:105010002090834605E05048FCF702FCD7F8149036
:105020008346F969484606F0E3F98246F86D06F0D2
:1050300095FA8046386E06F091FA414606F0D8F9A6
:1050400051460746584606F0D3F90146384606F061
:10505000D9FA51460746484606F0CAF9014638468D
:1050600006F084FB414606F0C5F906F0A7FC28606F
:1050700096E73948FCF71AFC216B06F061FC20B377
:10508000364E636E34483360FCF710FC8146E06DA9
:10509000E76A334D06F062FA39468046484606F024
:1050A000A7F90146404606F0ADFA39468046206B26
:1050B00006F09EF90146404606F058FB002106F036
:1050C00099F906F07BFC286057E72348FCF7EEFBD4
:1050D000616B06F035FC30B1204E214D626EE36D00
:1050E00032602B6049E71C48FCF7E0FBA16A06F040
:1050F00027FC00283FF43CAF1748184E184DFCF72A
:10510000D5FB8146606ED4F8348006F027FA41461C
:105110000746484606F06CF939468146002006F0FD
:1051200067F90146484606F06DFA41468146A06A95
:1051300006F05EF90146484606F018FB394606F0CF
:1051400059F906F03BFCE36D30602B6015E700BFBA
:105150005C94FF1F2493FF1FB094FF1F7094FF1FE8
:105160004492FF1F5892FF1F08B5274803F096FE90
:105170000721264803F0A0FC112002F0B3FB062112
:10518000F8B1234803F098FC122002F0ABFB062193
:1051900000B3204803F090FC122002F0A3FB06218C
:1051A00008B31D4803F088FC132002F09BFB062186
:1051B00010BB1A4803F080FC1348BDE8084003F018
:1051C0006DBE174803F078FC122002F08BFB06211D
:1051D0000028DED1134803F06FFC122002F082FB9E
:1051E00006210028DDD1104803F066FC132002F0F0
:1051F00079FB06210028DCD00C4803F05DFC024856
:10520000BDE8084003F04ABEC487FF1FC00D01007F
:10521000C80D0100D80D0100E80D0100000E0100CD
:10522000D00D0100E00D0100F00D0100F80D0100AE
:1052300010B5254C2368042B27DC01210B2002F03C
:105240004BFB01210C2002F047FB0121142002F04E
:1052500043FB0121152002F03FFB0121162002F043
:105260003BFB0121172002F037FB0121052002F052
:1052700033FB0121062002F02FFB236801330A2BA8
:105280002360C4BF0023236010BD00210B2002F067
:1052900023FB00210C2002F01FFB0021142002F050
:1052A0001BFB0021152002F017FB0021162002F045
:1052B00013FB0021172002F00FFB0021052002F054
:1052C0000BFB0021D6E700BF8494FF1F2DE9F041BE
:1052D0008C4DD5F8AC30042B3ED0032B71D0012B74
:1052E00000F09B80022B01D0BDE8F081864C8748FE
:1052F000237240F20E32012321462260E37101F055
:1053000045F9834B1B685B00FF2BC8BFFF230421BB
:1053100040224FF441702060E17122726372286D67
:1053200006F01CF9696906F06DF97A49054606F040
:1053300025FB002800F0DD802946284606F05AF8B3
:1053400006F062FB80B20312E072A3726E496F48EE
:10535000BDE8F04101F01AB96B4C6F4AA3792260A5
:1053600043F001030822E271A371286D06F0F6F8FC
:10537000696906F047F9694906F044F906F044FB0B
:10538000634B674A1B68126893FBF2F380B20026F6
:105390004FEA202E1F120122607221465B48E37201
:1053A000227384F808E0A7726673A673E67301F0AF
:1053B000EDF8A279D5F8AC3066F30002032BA271A8
:1053C0008DD1514C286DA3720122E823072140F2B0
:1053D000FF26227263722660E17106F0BFF86969E8
:1053E00006F010F94D4906F00DF906F00DFB484B9B
:1053F0004B4A1B68126893FBF2F382B21E1217121B
:10540000214642486373E2722773A67301F0BEF827
:10541000D5F8AC30012B7FF465AF424B3A4C1B689A
:105420002360072280231020E271237202F05AFACF
:10543000002865D13C4B1B68DFF8D480384F286DBD
:10544000314E03EB83035B001A12A3726272D8F829
:1054500000303A6893FBF2F31A126273A37306F0FA
:105460007DF8696906F0CEF8304B196805F0C0FF89
:105470002A4906F0C7F806F0C7FA80B2031231468F
:1054800020732248E37201F081F8022002F060FAF2
:10549000274B1B682360072280231020E2712372B0
:1054A00002F020FA50BB204B1B68286D03EB8303EE
:1054B0005B001A12B372727206F050F8696906F056
:1054C000A1F8164906F09EF806F09EFA82B216126E
:1054D0003868D8F80030227393FBF0F30A490B4880
:1054E000A3731A12E672627301F050F8D5F8AC306B
:1054F000F8E601229023A272E37227E70D4BD3E76F
:105500000C4B98E72493FF1F9094FF1F3CC1FF1F93
:105510004492FF1F00004843F4E5061800002041B4
:105520005087FF1F6887FF1F2487FF1F5C87FF1FAF
:105530003887FF1F4C87FF1F2DE9F04F8FB001E028
:10554000FFF76EFCA64800F0E3FE0028F8D103F058
:1055500089FA002801DDFDF7EDFFA24F3B68012B22
:1055600001D0FDF72FFDA04DD5F89C40012C00F097
:105570005D819E4E3378052B2CD8DFE813F0B60002
:10558000CA00EF00060009011001994B0022012119
:1055900014201A6002F0A0F99648FCF741F9A96CB2
:1055A00006F0ECF9002840F02282934B18609148F5
:1055B000FCF736F9696906F0E1F9002840F010823D
:1055C000122002F08FF928B90146142002F084F964
:1055D00001233370894CEB6F23F00203012B39D088
:1055E0002368874A0793079B116884485B1AB3F5C1
:1055F000FA7F32D823680A930A9B824A2368099368
:10560000099B1068D5F8B0107C4F774D1B1A8B4260
:105610000CD93B680B93D5F89C300B991160012B8A
:1056200000F060813378032B00F05C812368764AB8
:105630000C9376490C9B10680968704C1B1A8B42BE
:1056400005D923680D930D9B1360FDF715FF0FB06F
:10565000BDE8F08FFDF71AF8C2E703680893089BCE
:1056600064481360FBF7F2FF6248FCF7B3F829695E
:1056700006F066F9002835D1654B1B68002B40F019
:105680003781644B1B68002B40F03B81624B1B68E9
:10569000002B40F033813B68002B40F026815F4FA8
:1056A000FDF7A2FAFFF754FCFDF7DEFDFCF76AFEFA
:1056B0003B68504893B1FBF767FF3B6898421CBFBB
:1056C00005233370FCF7C8FD72B6554B4AF20261F0
:1056D0004BF2804219801A8062B68BE7FBF754FFC9
:1056E0003860EFE705233370C6E7414B434C4FF07A
:1056F000000841461420C3F8008002F0EDF841464E
:105700000B2002F0E9F8474A0123C2F80080337009
:1057100061E7374B3748344C00221A60FCF780F8B9
:10572000A96C06F02BF9002840F04281324B002290
:105730001A60122002F0D6F8012800F0A78111208B
:1057400002F0D0F801282D4C7FF445AF2268364B8B
:105750000692069A1A60042333703CE7244B4FF0FC
:1057600001081120C3F8008002F0BCF804460028AC
:105770007FF430AF0146152002F0AEF821460B2031
:1057800002F0AAF8274B86F800801C601B4C22E729
:10579000174B1A4C00221A60FDF7BAFB1BE7144B9B
:1057A000002212201A6002F09DF8012808BF03238E
:1057B000104808BF3370FBF7E7FE184B1B68984290
:1057C0007FF408AF0B48FCF705F8296906F0CCF820
:1057D00000283FF4FFAE0123084C3370FBE600BF06
:1057E0003CC1FF1F8894FF1F2493FF1F5C94FF1F81
:1057F0006494FF1FB094FF1F8094FF1FE4C2FF1F3B
:105800006C94FF1F6492FF1FE093FF1F5487FF1FDC
:105810004487FF1F8C94FF1F7C94FF1F5894FF1F29
:105820000C200540A094FF1FA894FF1FDFF8CC8236
:10583000AB4ED8F80030DFF8C89243F004030022E2
:105840001120C8F80030327002F04CF8D9F800305E
:1058500000285AD1012B00F0ED80A248A24CFBF7A2
:10586000DFFFA96C06F08AF8002853D19F4B002275
:105870001A60D9F800409B48012C7ED0FBF7D0FF7E
:10588000E968DFF8649206F079F8002800F0B68045
:10589000974C0021142002F01FF82268D8F800303D
:1058A0000292944A0299116003F0FD03C8F8003097
:1058B0008C48DFF83492FBF78DFF296906F040F839
:1058C00000283BD000210B2002F006F82268D8F80F
:1058D00000300492884A0499116003F0FE03C8F86E
:1058E000003078E6FFF7F2FCA0E6FFF7A1FCD6E671
:1058F000FCF704FE7B48FCF73FF8C2E6FFF734FCF8
:10590000C9E67848FCF784F9C0E6002BA5D1C9F8B0
:105910000040A2E77348FBF783FF82467148FBF71C
:1059200059FFE16C05F066FD0146504606F026F889
:1059300000289BD06D4B01221A609AE76948FBF75B
:1059400049FFD9F8181005F0FBFF0028BAD1012152
:105950000B2001F0C1FF684B2268D9F890101B683A
:105960000592059A0B449342BFF435AED8F8003047
:1059700043F00103C8F800302DE6FBF751FF296A18
:10598000DFF864A105F0FAFF8146002855D0584C95
:105990000021142001F0A0FF2268D8F80030009206
:1059A000544A0099116003F0FD03C8F800307FE706
:1059B0004C48FBF735FF80464A48FBF70BFFE16C8C
:1059C00005F018FD0146404605F0D8FF00283FF4D9
:1059D000ADAE4448FBF734FE444B01221A60A8E602
:1059E0000021142001F078FF01233370E8E53D48E1
:1059F000FBF726FE3D4B01221A60D8E53948FBF73C
:105A00000FFFD9F8141005F0B9FF00287FF440AF5C
:105A10003448FBF705FFD9F81C100446D9F81400E8
:105A200005F0E6FC0146204605F08AFF00283FD13C
:105A30002F4C3DE7C9F800000FE72A48FBF7F0FEBE
:105A4000DAF81C108346DAF8200005F0D1FC014694
:105A5000584605F075FF0028EAD021461420244C52
:105A600001F03AFF234A2168DAF8900013680191A7
:105A7000019903448B427FF61BAFD8F80030C2F87F
:105A8000009043F00203C8F8003011E71548FBF717
:105A9000C7FEE9690446686905F0AAFC014620468C
:105AA00005F04EFF00283FF44AAE0323337046E66C
:105AB000012114200E4C01F00FFF0E4B2268D9F883
:105AC00090101B680392039A0B449342BFF4F0AE0C
:105AD000D8F8003043F00203C8F80030E8E600BF11
