:1000000000800020BD0100009978000051780000B8
:1000100051780000517800005178000051780000BC
:100020005178000051780000517800009978000064
:100030009978000051780000A5910000A992000075
:10004000997800009978000099780000997800006C
:10005000997800009978000099780000997800005C
:10006000997800009978000099780000997800004C
:10007000997800009978000099780000997800003C
:10008000997800009978000099780000997800002C
:10009000997800009978000099780000997800001C
:1000A000997800009978000099780000997800000C
:1000B000997800006D6C0000796C00007D6C000088
:1000C000896C00008D6C0000916C00009978000034
:1000D00099780000997800009978000099780000DC
:1000E00099780000997800009978000099780000CC
:1000F000997800006D980000997800000D7F00004D
:100100009978000025820000997800009978000015
:10011000997800009978000099780000997800009B
:10012000997800009978000099780000997800008B
:10013000997800009978000099780000997800007B
:10014000997800009978000099780000997800006B
:10015000997800009978000099780000997800005B
:100160009978000071840000997800009978000067
:10017000997800009978000099780000997800003B
:10018000997800009978000099780000997800002B
:10019000997800009978000099780000997800001B
:1001A000997800009978000099780000997800000B
:1001B000997800009978000099780000564B4CF22D
:1001C000205210B51A804DF628121A8000BF00BFC9
:1001D00007F066FB514B4FF010621A60504A9A606C
:1001E000504ADA60504A136813F4807304D14F49BF
:1001F0000B604FF4A85313604D4B1A78110703D5C9
:100200001A7842F008021A704A4B4B492A221A7097
:100210004A4A4B4B8B4204D252F8040F43F8040B6A
:10022000F8E7484B484900228B4202D243F8042B9E
:10023000FAE74649464A002352F8230041F82300D2
:1002400001336F2BF8D1434B434A802103F8011B44
:100250009342FBD1414B3D4A1A60414B8A221A70AE
:10026000A3F5805324225A70A0221A709A7992071B
:10027000FCD59A79D406FCD43A4A937903F00C035E
:10028000082B384BF9D103221A7140225A719A79FE
:100290009006FCD5334A9179324B4906FBD5324A58
:1002A000324911600221516020221A709A7902F0BD
:1002B0000C020C2AFAD12E4B2E4A1A602E4B2F4AD2
:1002C0001A6000225A60072243F8042C2C4AC3F813
:1002D0000C2D62B607F09AFD144B1B68DA0705D5A2
:1002E000284807F077FB284B284A1A60284B1B78D0
:1002F0005B0609D5244C254B22689A4204D121483B
:1003000007F068FB002323600BF0B4FD07F0CEFA82
:1003100009F06CF9FEE700BF0E2005403080044074
:10032000823F04000100002B10D0034014D0034092
:1003300002D0074000E007402092FF1FEC180100A8
:100340002087FF1F2092FF1FECC5FF1F0082FF1FA9
:100350000000000000E400E05FE400E008ED00E0E1
:100360000050064000400640448004400000030165
:1003700004800440C010050014E000E0FF76010096
:1003800000002020AD063A5C1CE00340A5C3945A4F
:1003900000F00740FFFFFFFFFFFFFFFFFFFFFFFF32
:1003A000FFFFFFFFFFFFFFFFFFFFFFFFFFFFFFFF5D
:1003B000FFFFFFFFFFFFFFFFFFFFFFFFFFFFFFFF4D
:1003C000FFFFFFFFFFFFFFFFFFFFFFFFFFFFFFFF3D
:1003D000FFFFFFFFFFFFFFFFFFFFFFFFFFFFFFFF2D
:1003E000FFFFFFFFFFFFFFFFFFFFFFFFFFFFFFFF1D
:1003F000FFFFFFFFFFFFFFFFFFFFFFFFFFFFFFFF0D
:10040000FFFFFFFFFFFFFFFFFFFFFFFFDEF9FFFF23
:1004100010B5054C237833B9044B13B10448AFF33E
:1004200000800123237010BD2092FF1F00000000F8
:10043000E8180100084B10B51BB108490848AFF394
:1004400000800848036803B910BD074B002BFBD0A0
:10045000BDE81040184700BF000000002492FF1FB5
:10046000E81801002092FF1F00000000F0B400F126
:100470001C06134F00243146031F00F13C0243F8D1
:10048000044FB34241F8047F4FF0000542F8044F97
:10049000F5D10C4A0C490566002345668566C5669C
:1004A000056745678567C0F88850C267C0F8842033
:1004B000C0F8801080F8903080F8A830F0BC704709
:1004C0000000A040000048430000C8C22DE9F041F0
:1004D00090F8A84084B0202364008DF80530E4B281
:1004E000042380468DF804408DF80630032720460B
:1004F00007F034FE02210DF1050007F039FE8DF8FA
:10050000044005F039FD30B30921404808F0E4FC0F
:100510000023102221463E4808F0E0FE01213D481C
:1005200008F0DAFC002310229DF80510384808F086
:10053000D5FE0121374808F0CFFC002310229DF89A
:100540000610334808F0CAFE0121324808F0C4FC06
:100550002F4808F0B3FE02208DF8044007F008FC95
:1005600005F00AFD00284CD102AE002407F016FE6B
:1005700070B3072C1FD101E007F020FE07F00EFE3C
:100580000028F9D105F0F8FC10B1214808F096FEDA
:100590009DF80B009DF80C109DF80D209DF80E3075
:1005A000C8F89400C8F89810C8F89C20C8F8A03083
:1005B00004B0BDE8F08107F001FE054606F8010B26
:1005C00005F0DAFC70B9013407F0E8FD0028D0D15D
:1005D000072CD3D005F0D0FC78B9013FD8D09DF8D6
:1005E000044084E7E9B200231022094808F076FEAF
:1005F0000121084808F070FCE5E7054808F05EFEB8
:10060000EBE70721044808F067FCADE7180001009C
:10061000C487FF1FFC0601002400010090F8980029
:10062000704700BF90F89400704700BF90F89C009E
:10063000704700BF90F8A000704700BF082994BF22
:1006400050F82100002070472DE9F0410B4E804604
:10065000041F00F11C0754F8045F314628460BF0D4
:100660007FFB30B1D8F88C1028460BF097FB00B117
:100670002E46BC42EFD13046BDE8F081000020415B
:100680002DE9F041D0F88C704FF00008041F00F104
:100690001C0654F8045F394628460BF07FFB0849D6
:1006A00048B128460BF05CFB414620B128460BF0D0
:1006B00075FB00B1A846B442EBD14046BDE8F081DD
:1006C000000070422DE9F047D0F88C7082464FF060
:1006D0000009041F00F11C064FF0000854F8045FE5
:1006E000394628460BF05AFB0C4950B128460BF00E
:1006F00037FB30B1484629460BF08CF808F1010869
:100700008146B442EAD1CAF8AC8040460BF036F9D3
:10071000014648460BF03AFABDE8F0870000704207
:10072000D0F8AC00704700BF38B5846E456E2146E6
:1007300028460BF015FB00B92C46204638BD00BFFB
:10074000D0F8A4302DE9F041002B79D1866E456EAA
:100750000446314628460BF05DF8E76E3946804680
:100760000BF058F87E490BF011FA4FF07C5104461B
:100770000BF014FB002861D04FF07C5128460BF0A1
:100780000DFB4FF07C51002860D128460BF0E8FAB1
:1007900038B14FF07C5130460BF000FB002840F0A0
:1007A000A7804FF07C5128460BF0F8FA002860D162
:1007B0004FF07C5128460BF0F1FA002840F0A18060
:1007C0004FF07C5128460BF0E9FA00286CD14FF02D
:1007D0007C5128460BF0C4FA4FF07C5110B33046E0
:1007E0000BF0DCFA38B14FF07C5138460BF0B8FA18
:1007F000002840F0B0804FF07C5130460BF0B0FA4A
:10080000002861D04FF07C5138460BF0C7FA002821
:1008100040F0A38038464FF07C510BF0A1FA68B14C
:10082000504C10E028460BF09BFA0028E3D12846F4
:100830004FF07C510BF094FA002845D1BDE8F081CF
:1008400000EB8300046E2046BDE8F08130460BF0DB
:10085000A5FA4FF07C5100283ED038460BF09EFAA6
:100860000028F0D14FF07C5128460BF079FA00288F
:1008700059D14FF07C5130460BF072FA002840D02D
:100880004FF07C5138460BF089FA002841D14FF0E7
:100890007C5130460BF082FA68B14FF07C513846FB
:1008A0000BF05EFA00284FD14FF07C5130460BF030
:1008B00057FA00288BD04FF07C5138460BF050FA95
:1008C000002884D02C46BEE730464FF07C510BF018
:1008D00047FA0028B2D09DE728460BF041FA0028DD
:1008E000C7D04FF07C5130460BF058FA0028C0D0EA
:1008F0004FF07C5138460BF051FA00283FF451AFCD
:1009000018E04FF07C5130460BF048FA0028CBD06D
:10091000C3E7394628460AF07DFF4FF07C510BF0C3
:1009200081F804468FE74FF07C5138460BF036FAD9
:1009300000289ED0394630460AF06CFF4FF07C51BB
:100940000BF070F804467EE740464FF07C510BF008
:1009500069F8044677E7344675E73C4673E700BF1D
:10096000000040400000A0C270B50446FFF7E8FE5A
:100970004FF07C510BF012FA28B3666E4FF07C51A9
:1009800030460BF00BFAA56EF0B9E46E4FF07C51D7
:1009900028460BF003FA58B1294630460BF0FEF911
:1009A00030B1214628460BF0DBF908B12C4620E097
:1009B0004FF07C5120460BF0F1F920B1284621463A
:1009C0000BF0ECF978B970BD304629460BF0C8F948
:1009D000E46E0028DAD0304621460BF0C1F9002839
:1009E000D4D0344605E0304621460BF0D7F9002834
:1009F000E9D0204670BD00BF01392DE9F84380469B
:100A00001546032900F2E280DFE801F0AE855C02C2
:100A1000537B107B03EB00200AF0B0FF6D490BF015
:100A200001F8C8F81800EB7BA87B03EB00200AF064
:100A3000A5FF68490AF0F6FFD8F86860D8F8647036
:100A4000D8F80040C8F81C004046FFF78DFFD8F8E2
:100A50007C1005460BF084F908B1C8F87C50394683
:100A600030460BF09BF9002840F0A7803946D8F8B3
:100A700080000BF075F910B13E46C8F8806008F1AF
:100A80002006C14608F14005002701E059F8044F4F
:100A9000306821460BF082F90137214628B1D8F899
:100AA0008C000BF067F900B13460214628680BF028
:100AB00057F9043600B12C60082F05F10405E5D183
:100AC000BDE8F883507A32380AF058FFC8F874004D
:100AD000A87A32380AF052FFC8F878006B7B287B7E
:100AE00003EB00200AF04AFF3A490AF09BFFC8F8DE
:100AF0001000EB7BA87B03EB00200AF03FFF354999
:100B00000AF090FFD8F86860C8F81400D8F864704C
:100B1000D8F8004098E7507A32380AF02FFFC8F82A
:100B20006C00A87A32380AF029FFC8F870006B7B95
:100B3000287B03EB00200AF021FF26490AF072FF10
:100B4000C8F80800EB7BA87B03EB00200AF016FF37
:100B500020490AF067FFD8F86860C8F80C00D8F898
:100B60006470D8F800406FE7137AC0F8B030907A1C
:100B700032380AF003FFC8F864000746E87A3238D2
:100B80000AF0FCFEC8F868006B7B0646287B03EB86
:100B900000200AF0F3FE0F490AF044FFC8F80000F5
:100BA000EB7B0446A87B03EB00200AF0E7FE094933
:100BB0000AF038FFC8F8040046E7D8F8801030463D
:100BC0000BF0ECF800287FF458AF58E7866E476EBC
:100BD000046839E70AD7233C2DE9F04F90F8A83094
:100BE00091B007465B008DF80830FFF76FFCD7F82F
:100BF0009C00D7F8A040D7F89830D7F8942097F801
:100C0000A8108DE81100C94805F0B0FA30223D2344
:100C100003268DF809208DF80A300DF10A059DF89C
:100C2000089049F00108404607F098FA0DF10900D4
:100C3000022107F09DFA8DF80880424602AB0020A1
:100C40005040082410F0800F4FEA400018BF80F099
:100C50000700013CC0B2F5D19D4202D013F8012F2C
:100C6000EEE707F07BFA05F087F9002840F07C8278
:100C700002208DF8089007F07BF805F07DF9002838
:100C800040F0B8820DF10C0AD146002407F086FA34
:100C9000002843D0032C34D101E007F08FFA07F08D
:100CA0007DFA0028F9D105F067F910B1A04808F0E5
:100CB00005FB312303268DF809308DF80A609DF875
:100CC000089049F00108404607F048FA0DF1090084
:100CD000022107F04DFA8DF80880424602AB002051
:100CE0005040082410F0800F4FEA400018BF80F0F9
:100CF0000700013CC0B2F5D19D4228D013F8012F66
:100D0000EEE707F05BFA09F8010B804605F034F9CD
:100D100068B9013407F042FA0028BBD1032CBED0D9
:100D200005F02AF978B9013E7FF479AFC1E75FFA9F
:100D300088F1002310227E4808F0D0FA01217D4876
:100D400008F0CAF8E5E77A4808F0B8FAEBE707F0E8
:100D500005FA05F011F9002840F0C58102208DF850
:100D6000089007F005F805F007F9002840F03D82EB
:100D70000DF10C09002407F011FA002844D0032CCF
:100D800035D101E007F01AFA07F008FA0028F9D186
:100D900005F0F2F810B1664808F090FA3422012309
:100DA0008DF809208DF80A3003269DF8089049F047
:100DB0000108404607F0D2F90DF10900022107F0C1
:100DC000D7F98DF80880424602AB00205040082435
:100DD00010F0800F4FEA400018BF80F00700013C80
:100DE000C0B2F5D19D4228D013F8012FEEE707F0ED
:100DF000E5F909F8010B804605F0BEF868B9013441
:100E000007F0CCF90028BAD1032CBDD005F0B4F816
:100E100078B9013E7FF453AFC0E75FFA88F1002351
:100E20001022434808F05AFA0121424808F054F8C9
:100E3000E5E73F4808F042FAEBE707F08FF905F0E5
:100E40009BF8002840F00E8102208DF8089006F0F3
:100E50008FFF05F091F8002840F0D6810DF10C09C4
:100E6000002407F09BF9002800F08480032C72D145
:100E700001E007F0A3F907F091F90028F9D105F096
:100E80007BF810B12A4808F019FA012212238DF8D4
:100E900009208DF80A304FF003089DF808402046DD
:100EA00007F05CF902210DF1090007F061F98DF8F6
:100EB000084005F061F830B309211F4808F00CF82C
:100EC0000023102221461A4808F008FA0121194887
:100ED00008F002F8002310229DF80910144808F0C9
:100EE000FDF90121134807F0F7FF002310229DF8B8
:100EF0000A100F4808F0F2F901210E4807F0ECFF44
:100F00000B4808F0DBF906208DF8084006F030FFAA
:100F100005F032F8002840F0728103AD002607F09A
:100F20003DF900283FD0162E2FD109E02C000100FA
:100F3000C487FF1FFC0601001800010007F03EF9FE
:100F400007F02CF90028F9D105F016F8162600282C
:100F50007DD1152035E007F031F909F8010B804605
:100F600005F00AF800285BD1013407F017F90028D2
:100F70007FF47CAF032C3FF47EAF04F0FDFF00282C
:100F80006CD1013E7FF411AF7FE707F017F905F848
:100F9000010B044604F0F0FF00284DD1013607F0A4
:100FA000FDF80028BFD1162ECAD004F0E5FF0028B6
:100FB0004DD1B8F101087FF470AF701E002840F3E6
:100FC0002482002303AA1C4612F8011B08254C406A
:100FD00014F0800F4FEA440418BF84F00704013D69
:100FE000E4B2F5D101338342EEDB9DF821808948DC
:100FF0004146224605F0BAF8162EC146A34602D154
:10100000A04500F0138197F8A8108348CDF800B0F0
:101010004B46324605F0D8F8002011B0BDE8F08FFD
:101020005FFA88F1002310227C4808F057F901216B
:101030007B4807F051FF97E7E1B200231022774881
:1010400008F04CF90121764807F046FFA6E77348FF
:1010500008F034F9162EACD11520B2E76F4808F02D
:101060002DF98EE709216F4807F036FF234610223D
:1010700041466A4808F032F90121694807F02CFF1F
:10108000234610229DF80910644808F027F9012131
:10109000634807F021FF102223469DF80A105F489D
:1010A00008F01CF901215E4807F016FF21460DF1FA
:1010B0000B0002AA12F8014B6140C9B2082311F0DB
:1010C000800F4FEA410118BF81F00701013BC9B20F
:1010D000F5D19042EED11022504808F0FFF84F4869
:1010E00008F0ECF8B0E609214E4807F0F5FE23467B
:1010F00010224146494808F0F1F80121484807F01C
:10110000EBFE234610229DF80910444808F0E6F84B
:101110000121434807F0E0FE102223469DF80A1003
:101120003E4808F0DBF801213D4807F0D5FE214696
:101130000DF10B0002AA12F8014B6140C9B208235D
:1011400011F0800F4FEA410118BF81F00701013B08
:10115000C9B2F5D19042EED11022304808F0BEF865
:101160002E4808F0ABF8F9E509212E4807F0B4FE47
:10117000234610224146294808F0B0F801212848AA
:1011800007F0AAFE234610229DF80910234808F014
:10119000A5F80121224807F09FFE102223469DF862
:1011A0000A101E4808F09AF801211D4807F094FE25
:1011B00021460DF10B0002AA12F8014B6140C9B2A1
:1011C000082311F0800F4FEA410118BF81F0070199
:1011D000013BC9B2F5D19042EED110220F4808F080
:1011E0007DF80E4808F06AF842E507210E4807F03E
:1011F00073FEBDE507210C4807F06EFE42E50721AE
:10120000094807F069FE88E60721074807F064FEF1
:1012100024E600BF60000100AC000100C487FF1F8E
:10122000FC06010018000100240001009DF80C30AC
:1012300097F8A820B3EB420F7FF4EEAE9DF80D3087
:10124000012B7FF4E9AE9DF80E30122B7FF4E4AE53
:101250009DF810309DF80F0003EB00200AF08EFB84
:1012600072490AF0DFFBD7F88810386604460AF0A6
:1012700095FD08B1C7F88840D7F8841020460AF0D9
:101280006FFD08B1C7F88440A7F1040907F12006F3
:1012900007F140054FF008089AF806309AF8050063
:1012A00003EB00200AF06AFB61490AF0BBFB49F836
:1012B000040F316804460AF053FD0AF1020A30B106
:1012C000D7F88C1020460AF05FFD00B13460296821
:1012D00020460AF063FD043600B12C60B8F1010825
:1012E00005F10405D8D19DF81E309DF81D0003EBD3
:1012F000002002300AF042FB4E490AF047FC01464A
:101300004D480AF043FC4D490AF082FA4C490AF074
:1013100089FB054608F0F4FB0446284608F0F0FB7C
:10132000484908F05FFC4849054620460AF07AFB28
:1013300046490AF06FFA4649044628460AF072FB0D
:10134000014620460AF066FA01464FF07E500AF048
:101350001DFC40490AF05CFA9DF81F209DF82030E2
:10136000786603EB022009300AF008FB3A490AF0DC
:101370000DFC014630480AF009FC30490AF048FAF1
:101380002F490AF04FFB054608F0BAFB04462846F1
:1013900008F0B6FB2B4908F025FC2B4905462046F2
:1013A0000AF040FB29490AF035FA29490446284643
:1013B0000AF038FB014620460AF02CFA01464FF0AD
:1013C0007E500AF0E3FB23490AF022FAB86604468D
:1013D0003846FFF7C9FAF96F05460AF0C1FC00B1BB
:1013E000FD677D6E204629460AF0D8FCB0B9294633
:1013F000D7F880000AF0B4FC10B12C46C7F8804042
:10140000164804F0B3FE012007E69DF82190144829
:1014100049464246C34604F0A9FEF4E5D7F88010D9
:1014200020460AF0BBFC0028E8D1E9E71357053B4A
:101430002003C839001601470AD7E33FE17A644028
:1014400000007A4400004040A40D8F395A80473A8A
:1014500046A6DB3333938843002C01478400010008
:10146000600001002DE9F8430026D0F88C80066664
:101470008146044600F1200754F8045B41462846A3
:101480000AF08CFC084950B128460AF069FC30B1DA
:10149000304629460AF0BEF90646C9F86000BC424B
:1014A000EAD13046BDE8F8830000704205299ABFB2
:1014B00000EB8100406E0020704700BF3E2998BFBE
:1014C00080F8A810704700BF90F89000704700BFE8
:1014D000C0F8A410704700BF80F89010704700BF9C
:1014E00030B50F4CC0F88C1083B020460D4607F085
:1014F000E5FE204607F0E2FE284609F0E9FD022558
:1015000002460B460095204607F032FF204607F0C2
:10151000D5FE204603B0BDE8304007F0CFBE00BF87
:10152000C487FF1F70B500F5315506462C3500F114
:1015300020042046B434FEF799FFAC42F9D106F1FD
:10154000D405012428460021FFF7C6FF214628467E
:101550000134FFF7B3FF3F2C05F1B405F2D142F699
:10156000744400250548064A064B35550021306174
:101570007161B261F361304670BD00BF00007A4412
:10158000000048430000C8C22DE9F04142F678430C
:1015900000F53156374600228046C2502C36383787
:1015A00000F1D40402E0B434B4420DD02046FFF779
:1015B0008BFF0028F7D020463D68FFF7B1F8B43420
:1015C0002844B4423860F1D142F6784358F8030019
:1015D000BDE8F081F8B50E46096801F47F65002981
:1015E0000446A5F5C06511DB2D0901F00F07B423F2
:1015F00003FB0544203420460121FFF76DFF3246EE
:1016000039462046BDE8F840FFF7F6B90A4801F030
:101610000F0707F053FE1221084807F05DFC316800
:10162000054801F0004100230A2207F057FE024856
:101630002D0907F043FEDAE7C487FF1FFC00010015
:10164000704700BF704700BF2DE9F04304460023F8
:1016500083B0064644F8D43B012504E001353F2D14
:1016600004F1B40469D02046FFF72EFF0028F5D01E
:10167000504804F07BFD29464F4804F077FD204692
:10168000FFF7AAFA2046FFF7EDFE09F021FD02461A
:101690000B464A4804F06AFD2046FEF7D5FF804617
:1016A0002046FEF7EDFF0746404609F011FD804653
:1016B0003846894609F00CFD42464B46CDE900010B
:1016C0003F4804F053FD00212046FFF7EFFE0121C3
:1016D00080462046FFF7EAFE0746404609F0F8FC40
:1016E00080463846894609F0F3FC42464B46CDE930
:1016F0000001344804F03AFD2046FFF7B3FE0146EE
:1017000030680AF087F830602046FFF72DF9B1699C
:101710000AF026FB002833D12046FFF705F8F169CF
:101720000AF03CFB002899D02046FEF7FDFF01356A
:101730003F2DF06104F1B40495D170680AF01EF9F0
:10174000014630680AF022FA7169306004460AF0F6
:1017500025FB00B17461316920460AF001FB00B13C
:1017600034610B2006F0CEFA42F67443F35C60B9A4
:101770009BB142F674430122F25403B0BDE8F083FA
:101780002046FFF7F1F8B061C6E753B942F674435B
:101790000022F25403B0BDE8F0830B4804F014FDBE
:1017A000E7E70A4804F0FAFC42F674430022F254D8
:1017B000F0E700BFF8020100100101004C01010038
:1017C000600101008C010100A8010100E00101009D
:1017D00070B5114B836000F5315506462C3500F18C
:1017E000D40402E0B434AC4213D02046FFF76CFEC0
:1017F0000028F7D02046FEF727FFB1680AF0B0FABC
:101800000028EFD02046FEF71FFFB434AC42B06092
:10181000EBD1B06870BD00BF0000A04070B50023E0
:1018200000F531550646C3602C3500F1D40402E0C2
:10183000B434AC4213D02046FFF746FE0028F7D060
:101840002046FEF71DFFF1680AF0A8FA0028EFD045
:101850002046FEF715FFB434AC42F060EBD1F068DF
:1018600070BD00BF0068704741607047F8B500F573
:1018700031550F4616462C3500F1D40402E0B4343D
:10188000AC420FD02046FFF71FFE0028F7D02046BD
:101890003946FFF71DFE20463146B434FFF720FEDF
:1018A000AC42EFD1F8BD00BF2DE9F84300F531554A
:1018B00042F670432E4600278146C7504FF000087D
:1018C0002C35303600F1D40402E0B434AC4213D0ED
:1018D0002046FFF7F9FD0028F7D033680133336065
:1018E0002046FEF72DFF0F490AF058FA88B9B434A4
:1018F000AC4207F10107EBD142F6704359F80300FF
:10190000C01B0AF03BF8014640460AF03FF9BDE82B
:10191000F8832046FEF714FF0146404609F07AFF9F
:101920008046D2E700008CC2F8B500F53155074675
:1019300000262C3500F1D40402E0B434AC420FD0C0
:101940002046FFF7C1FD0028F7D02046FEF7BAFE7B
:101950000146304609F05EFFB434AC420646EFD192
:1019600042F67043F8580AF009F8014630460AF08A
:101970000DF9F8BD2DE9F04F06468DB0934804F0FF
:101980009DFB924804F09AFB904804F097FB42F6C6
:1019900070433046F758FFF7F7FD0B90306809F0B9
:1019A00097FB044630460D46FFF7BEFF0A90B0682D
:1019B00009F08EFB8246F0688B4609F089FB804671
:1019C00030468946FFF770FF09F082FB0A9BCDE99C
:1019D00008011846CDE904ABCDE9068909F078FB8A
:1019E0000B9ACDE90201CDE900453946784804F06B
:1019F00065FB764804F062FBD4364FF001094FF0E6
:101A0000000A07E009F10109B9F13F0F06F1B40638
:101A100000F0D3803046FFF757FD0028F2D0304663
:101A2000FEF7FCFD3046FEF7FDFD3046FEF7FEFDFD
:101A30003046FEF7FFFD0821664807F04DFA49469B
:101A4000654807F08BFCB9F1090F40F3B98002211A
:101A5000624807F041FA3046FFF704FD09F038FB11
:101A6000022402460B4600945B4807F081FC0121EA
:101A70005B4807F031FA554600241FE0062159481B
:101A800007F02AFA2946544807F068FC0221564814
:101A900007F022FA21463046FEF7D0FD09F018FB88
:101AA000009702460B464C4807F062FC01340121C6
:101AB0004B4807F011FA082C0BD04546092D4FF082
:101AC000020705F10108D9DC0121484807F004FAB2
:101AD000D4E7414807F0F2FB0921454807F0FCF93B
:101AE00000213046FFF7E2FC09F0F2FA00970246C7
:101AF0000B46394807F03CFC0A213E4807F0ECF958
:101B000001213046FFF7D2FC09F0E2FA00970246C5
:101B10000B46314807F02CFC0A21374807F0DCF966
:101B200039463046FFF7C2FC09F0D2FA0097024668
:101B30000B46294807F01CFC0A21304807F0CCF975
:101B400003213046FFF7B2FC09F0C2FA00970246C3
:101B50000B46214807F00CFC0A21294807F0BCF984
:101B600004213046FFF7A2FC09F0B2FA00970246C2
:101B70000B46194807F0FCFB0A21224807F0ACF994
:101B800005213046FFF792FC09F0A2FA00970246C1
:101B90000B46114807F0ECFB01211B4807F09CF9AC
:101BA00009F101090C4807F089FBB9F13F0F0AF16F
:101BB000080A06F1B4067FF42DAF0DB0BDE8F08F32
:101BC00001210A4807F088F941E700BFF802010047
:101BD0009004010010050100C487FF1F941201004A
:101BE0001C05010020050100EC060100FC060100B7
:101BF0002805010034050100400501004C050100E5
:101C00005805010064050100700501002DE9F0414F
:101C100000F1D40582B0012705E001373F2F05F11F
:101C2000B40500F08B802846FFF74EFC0028F4D066
:101C30003946444807F092FB0121434807F04CF92C
:101C400000244FF0020821462846FEF7F7FC09F071
:101C50003FFACDF8008002460B463A4807F088FB71
:101C600001340121384807F037F9082C4FF00206FB
:101C7000E9D100212846FFF719FC09F029FA00965E
:101C800002460B462F4807F073FB01212E4807F050
:101C900023F901212846FFF709FC09F019FA0096FB
:101CA00002460B46274807F063FB0121264807F050
:101CB00013F931462846FFF7F9FB09F009FA0096B7
:101CC00002460B461F4807F053FB01211E4807F050
:101CD00003F903212846FFF7E9FB09F0F9F900961B
:101CE00002460B46174807F043FB0121164807F050
:101CF000F3F804212846FFF7D9FB09F0E9F900962B
:101D000002460B460F4807F033FB01210E4807F04F
:101D1000E3F805212846FFF7C9FB09F0D9F9009639
:101D200002460B46074807F023FB0137054807F03A
:101D3000C5FA3F2F05F1B4057FF475AF02B0BDE8D9
:101D4000F08100BFC487FF1F74050100F8B531485A
:101D5000314C324F324E04F0B1F9324B324A3349F2
:101D600033485A60012510221A701D72314A324DD3
:101D7000D9601C6131495861002431485F621E629C
:101D8000304F9A614FF07C562F4A9D62D9622F4D99
:101D90001C630E2140F61C4458630A209F635E6456
:101DA00041F204075A269A64DD640222284D19651F
:101DB0009C6600216424D8664FF496701F675E67A6
:101DC000DD61DD6383F8401099675866D8654FF48C
:101DD0007A7741F28830FF265A705A725A65052583
:101DE0009C65DA67C3F88010C3F89C103221C3F8F1
:101DF000AC20C3F8B040C3F89870C3F8A460A3F84F
:101E0000B650C3F89000A3F8B400C3F89410C3F818
:101E1000A010F8BD7805010000004040CDCCCC3DBD
:101E2000333373402C93FF1F20A107006666864062
:101E300033338340CDCC4C4000008242000020C1AF
:101E4000000020420000A0409A9979400AD7233D23
:101E5000CDCC4C3EF0B54FF47A6085B005F088FFEC
:101E600000210E2005F05CFF00210F2005F058FF37
:101E70000021112005F054FF0021102005F050FF33
:101E80000021122005F04CFF0021132005F048FF2F
:101E900001210B2005F044FF01210C2005F040FF3B
:101EA0000121142005F03CFF0121152005F038FF29
:101EB0000121162005F034FF0121172005F030FF25
:101EC0000121052005F02CFF8E4C8F4D01210620AD
:101ED00005F026FF01210D2005F022FF208809F0E2
:101EE00049FD0146162005F085FE208809F042FDD7
:101EF0000146172005F07EFE208809F03BFD0146D3
:101F0000052005F077FE208809F034FD0024014605
:101F1000062005F06FFE009423467C4A7C497D48EC
:101F200004F04CFBE6B2324677497A4804F0F4FA02
:101F30002B79754977486FF30003013432462B71D2
:101F400004F0E0FA082CEDD10924E6B232466E49DD
:101F5000704804F0E1FA2B796B496E4843F00103B5
:101F6000013432462B7104F0CDFA0D2CEDD16A4CC0
:101F70004FF0FF322068102104F0ECFE20684FF093
:101F8000FF32102104F0BEFE20684FF0FF32022124
:101F900004F0CCFE20684FF0FF32022104F0D0FEA6
:101FA00000220E21206804F0DFFE0C215B4806F0C1
:101FB00093FF5B4807F082F914215A4806F08CFF22
:101FC000574807F07BF9564807F078F9172156482B
:101FD00006F082FF524807F071F9544B1B789A06BD
:101FE00000F1BE80514B1B781B0700F1C5804F4BA1
:101FF0001B785F0700F1CC804C4B1B789E0700F1EB
:10200000D3804B4B1B781D0600F1DA80484B1B78C0
:102010005C0600F1E180464B1B78980600F1E880F1
:10202000434B1B78590700F1EF80414B1B781A078F
:1020300000F1F6803E4B1B789B0700F1FD8038488D
:1020400007F03CF972B63B4A4CF220534DF628118A
:102050002024138023461180013BFDD1364D3748A3
:10206000374900234FF480562E8003800B8032F8CE
:102070000E3C9BB243F0D30322F80E3C62B69D2087
:1020800006F01CF821462F482F4D06F025FF244866
:1020900007F014F905F1B8062F462C46601B05F031
:1020A00045FB04F8010BB442F8D13B78102B01D06A
:1020B000FFF74CFE2548FFF7C5FA042003F056FF52
:1020C000234B224800221A60FFF7BAFA01210D20A3
:1020D00005F012FE796D1D48FFF7C6FB7A6C97F884
:1020E00040101A48FFF7C2FB1A4B1B491A680392AB
:1020F00003981B680293029A184B08601A6005B097
:10210000F0BD00BF2487FF1FF093FF1FE8C2FF1F31
:1021100020A107004CC1FF1F8C94FF1F98050100F0
:10212000C487FF1FA8050100C005010001F007409A
:1021300000F007400E200540042005400620054021
:1021400016200540C40601002C93FF1FC094FF1FFA
:102150004C92FF1FF4C2FF1FB894FF1FF893FF1F9C
:102160002121394806F0B8FE384807F0A7F8384B67
:102170001B781B077FF53BAF0C21364806F0ACFE01
:10218000324807F09BF8324B1B785F077FF534AF7E
:102190000E21314806F0A0FE2C4807F08FF82C4B9A
:1021A0001B789E077FF52DAF17212C4806F094FE73
:1021B000264807F083F82A4B1B781D067FF526AFCB
:1021C0000E21284806F088FE204807F077F8244BB7
:1021D0001B785C067FF51FAF1221234806F07CFEBA
:1021E0001A4807F06BF81E4B1B7898067FF518AF5E
:1021F00013211E4806F070FE144807F05FF8184BD4
:102200001B7859077FF511AF1C21194806F064FEB1
:102210000E4807F053F8124B1B781A077FF50AAFE8
:102220001921144806F058FE084807F047F80C4BEF
:102230001B789B077FF503AF18210F4806F04CFE73
:10224000024807F03BF8FAE6D8050100C487FF1FF3
:1022500001F00740FC0501000C0601001C0601000E
:1022600000F0074034060100440601005806010052
:102270006C0601008C060100A806010070B5464CF2
:10228000464D4748E66800232B70FFF7C7FA014622
:10229000304609F065FD08B104232B704048FFF774
:1022A00097FA216909F05CFD18B12B7843F010030F
:1022B0002B703B48FFF7F8FAA16A09F06FFD18B1DF
:1022C0002B7843F040032B70002335486B70FFF7E9
:1022D000EBFAE16A314E09F043FD08B10123737056
:1022E00000232F48EB70FFF799FA05462C482B4E38
:1022F000FFF76EFA0146284609F08AFAE16B09F009
:102300004DFD08B10123F370264D254800232B70A5
:10231000FFF784FA616A0646E06809F079FA014637
:10232000304609F03BFD08B104232B701C48FFF731
:102330004FFA616A0646206909F06CFA0146304698
:1023400009F00EFD18B12B7843F010032B701448E0
:10235000FFF7AAFAA16B0646A06A09F059FA0146EE
:10236000304609F01BFD18B12B7843F040032B7069
:1023700000230B486B70FFF797FAA16B0546E06AE4
:10238000084C09F047FA0146284609F0E9FC08B173
:102390000123637070BD00BF2C93FF1F2893FF1FA4
:1023A000C094FF1FE893FF1F2DE9F0417C4C236888
:1023B000012B82B031D0022B00F0A880032B00F05B
:1023C000C8803BBB774B784AD3F8A010D3F8A43031
:1023D00012685B1A632B0EDD744803FB02F380FB6B
:1023E0000302DB17C3EB62131944062002B0BDE8F9
:1023F000F04105F001BB6E4803FB022380FB0302A2
:10240000DB17C3EB22121144062002B0BDE8F041F5
:1024100005F0F2BA02B0BDE8F081664E33680A33C7
:10242000B3F57A7F00F3B7801846336009F0A6FA57
:10243000614909F0F7FA80465A4DD5F8A00009F035
:102440009DFA0746D5F8A40009F098FA394609F034
:10245000DFF9414609F0E6FA584909F097FB394699
:1024600009F0D8F909F0BAFC0146062005F0C4FAD3
:102470000221534806F030FD524806F01FFF0621A6
:10248000514806F029FD306809F078FA4A4909F008
:10249000C9FA08F01DFE022702460B46009749487C
:1024A00006F066FF0D21494806F016FDD5F8A0009C
:1024B00009F064FA8046306809F060FA3E4909F094
:1024C000B1FA0646D5F8A40009F058FA414609F0D9
:1024D0009FF90146304609F0A5FA384909F056FB44
:1024E000414609F097F908F0F3FD00970B460246C4
:1024F000344806F03DFF3946314806F0EDFC3148DE
:1025000006F0DCFE2368022B7FF458AF294B254EE2
:1025100000221A60D6F8A00009F030FA0546D6F875
:10252000A40009F02BFA294609F072F9002109F0FC
:1025300079FA224909F02AFB294609F06BF909F0DA
:102540004DFC0146062005F057FA2368032B7FF463
:1025500038AF184B134E4FF47A721A60D6F8A000B9
:1025600009F00CFA0546D6F8A40009F007FA294646
:1025700009F04EF9114909F055FA104909F006FB26
:10258000294609F047F909F029FC0146062005F023
:1025900033FA236815E700234FF0000833604BE758
:1025A0006C94FF1F2C93FF1F3487FF1F1F85EB5177
:1025B000CBF08D285092FF1FCDCCCC3D0000C842FF
:1025C00094120100C487FF1FE8060100F006010015
:1025D00070B5A248A24C06F071FEA04806F06EFE4F
:1025E0009E4806F06BFE0D219E4806F075FCD4F85F
:1025F0009C30012B11D09C4C9848217800230A2252
:1026000006F06CFE2378052B67D8DFE813F0E900AD
:10261000EE00F300F800FD00E4000921934806F005
:102620005BFC9348FFF7D4F8216909F099FB18B1D6
:102630000F21904806F050FC8D48FFF7EFF8E16855
:1026400009F0ACFB18B10E218B4806F045FC884818
:10265000FFF7E4F805468648FFF7BAF80146284632
:1026600009F0D6F8E16B09F099FB18B11121834804
:1026700006F032FC7E48FFF717F9A16A09F08EFBDD
:1026800018B10C217E4806F027FC7948FFF70CF9B9
:10269000E16A09F065FB18B10D217A4806F01CFCCF
:1026A000794B73481B68012B00F0C280FFF790F84C
:1026B00021696B4D09F072FB78B16D48FFF7AEF8F8
:1026C000E96809F04DFB40B1674B1B78052B00F022
:1026D000C08008216D4806F0FFFB02216C4806F01F
:1026E000FBFB122005F00EFB012800F09C8011205E
:1026F00005F008FB012800F09180664B1B68012B58
:1027000000F087800221624806F0E6FB624B5348E6
:10271000196806F023FE514806F0D0FD04215F48F9
:1027200006F0DAFB0B2005F0EDFA002301460A2241
:102730004A4806F0D3FD0C2005F0E4FA00230146D8
:102740000A22464806F0CAFD142005F0DBFA0023F1
:1027500001460A22414806F0C1FD152005F0D2FAD3
:10276000002301460A223D4806F0B8FD06214C48E8
:1027700006F0B2FB4B4B394819680222002306F0E1
:10278000ADFD0421484806F0A7FB112005F0BAFA78
:10279000002301460A22314806F0A0FD102005F072
:1027A000B1FA002301460A222C4806F097FD1220B8
:1027B00005F0A8FA002301460A22284806F08EFDFB
:1027C000132005F09FFA002301460A222348BDE8A2
:1027D000704006F083BD0721344806F07DFB7CE79E
:1027E0000621334806F078FB77E70721314806F0E9
:1027F00073FB72E70721304806F06EFB6DE7082196
:102800002E4806F069FB68E70B212D4806F064FBB3
:1028100063E711212B4806F05FFB73E70A212A4882
:1028200006F05AFB69E70E21284806F055FB5EE7E3
:10283000FEF7CEFF216A09F0B1FA00283FF449AF54
:102840001621234806F048FB0A21224806F044FBE3
:1028500043E70A211F4806F03FFB3EE7C487FF1FFE
:102860002C93FF1F000701007894FF1F1007010041
:10287000C094FF1F1C0701002C0701003C0701004A
:1028800050070100600701006092FF1F94070100DC
:10289000941201009494FF1F7094FF1F0808010018
:1028A00010080100E493FF1F18080100D007010081
:1028B000A0070100A8070100BC070100C407010030
:1028C000B0070100F4070100E8070100D807010084
:1028D00070070100880701002DE9F04F934C944FD9
:1028E000E36F012B8DB000F04981032B50D0914E46
:1028F000914DA36F9148012B09BF2968296801F107
:102900000041296004F004FE3368002B40F0CE80C3
:102910008A4804F0D3FDE36F3860012B064600F0CF
:10292000D280874909F03AFA78B98649304609F0E9
:1029300017FA50B9844A854B12680B920B9A1A60A9
:1029400000232B600DB0BDE8F08FDFF8FC817F4CD9
:10295000D8F800300A930A9823687D4FC01A09F00E
:1029600009F8314609F05EF87A4909F00FF979491A
:1029700009F00CF9396808F04DFFD8F800300993D8
:10298000099B2360002338602B600DB0BDE8F08FF9
:10299000DFF8C881704DD8F80000664E0123002290
:1029A0000E212B6004F0E0F92B68012B336800F056
:1029B0000381002B40F0A6810021D8F80000DFF849
:1029C000B891664D04F022FA33681FFA80FBC9F80B
:1029D00000B0002B40F07B810021D8F80000564D5C
:1029E000DFF878A104F098F9B4F8863040F6E441B5
:1029F00001FB0BF1B1FBF0F0C01A00B208F0BEFF12
:102A000057498346D4F8880009F00CF80146584627
:102A100009F0BCF8D9F800302860632BDFF858B112
:102A200000F3498100232B603368002B3FF461AF32
:102A300002214C4806F050FAD9F80020D8F80000DE
:102A400040F6E443002103FB02F804F065F9B8FB0B
:102A5000F0F008F08FFF8046B4F8860008F08EFF93
:102A60000146404608F0D4FE08F032FB4FF0020861
:102A700002460B46CDF800803B4806F079FC414603
:102A8000384806F029FA286808F022FBCDF80080C3
:102A900002460B46344806F06BFC4146334806F0CC
:102AA0001BFA41462F4806F017FA22E7234804F0A4
:102AB00005FD08F00DFB022602460B4600962A484B
:102AC00006F056FC24E7244B1B68012B00F02681FE
:102AD000022B7FF435AF264909F060F930B925495A
:102AE000304609F03DF9002800F04781DFF85880B2
:102AF000164CD8F80030079307982368144FC01A73
:102B000008F038FF314608F08DFF124909F03EF811
:102B1000104909F03BF8396808F07CFED8F800301D
:102B20000693069B386023600AE700BF2C93FF1FC3
:102B30006C92FF1FB494FF1F5C92FF1F0493FF1F52
:102B40000000FA430000FAC3F4C2FF1F8894FF1F7D
:102B50007092FF1F00007A446087FF1F8C94FF1F54
:102B600017B7D13894120100C487FF1F5C08010019
:102B700000C82F4800A08CC62493FF1F3D689849C9
:102B8000284609F0EDF830B12846964909F006F9D3
:102B900000287FF4FDAEDFF85882934DD8F800008E
:102BA000924E022300220F212B6004F0DDF82B68E7
:102BB000012B33687FF4FDAE002B40F00081002133
:102BC000D8F80000DFF86C92894D04F01FF93368E3
:102BD0001FFA80FBC9F800B0002B40F0D58000211F
:102BE000D8F80000834D04F097F8B4F8843040F62C
:102BF000E44A0AFB0BFBBBFBF0F0C01A00B208F082
:102C0000BDFE7D498346D4F88C0008F00BFF0146D9
:102C1000584608F0BBFFD9F8003028600021D8F8EA
:102C200000000AFB03FA04F077F8B4F88430BAFB2A
:102C3000F0F00FFA80FAC3EB0A03002BB4F8B620C9
:102C4000B8BF5B429342BCBF00232B603368002BAC
:102C50003FF44FAE0221694806F03EF9D9F8002052
:102C6000D8F8000040F6E443002103FB02F804F02A
:102C700053F8B4F88410B8FBF0F000B2411A604881
:102C800006F06CFB02215D4806F026F9286808F082
:102C90001FFA4FF0020802460B46CDF80080584854
:102CA00006F066FB0321574806F016F941465348E3
:102CB00006F012F91DE6DAF80000002104F02CF805
:102CC000DBF8003064389842FFF4ACAEACE600218B
:102CD000286804F021F840F6E44100230A2201FBB1
:102CE0000BF1B1FBF0F1464806F0F8FA0221434837
:102CF00006F0F2F8B4F88610414806F02FFBD9F838
:102D000000B069E63E4806F0D9FA0C213E4806F0CC
:102D1000E3F80C213D4806F0DFF84DE63C4909F0A8
:102D20003DF858B93B49304609F01AF830B93A4AEB
:102D30003A4B12680592059A1A6001E6DFF8D880CE
:102D4000364CD8F80030049304982368344FC01AE6
:102D500008F010FE314608F065FE324908F016FF13
:102D6000304908F013FF396808F054FDD8F80030F6
:102D70000393039B38602360E2E5274A274B1268E0
:102D80000892089A1A60DBE50021286803F0C4FF66
:102D900040F6E44100230A2201FB0BF1B1FBF0F104
:102DA000174806F09BFA01211F4806F095F8B4F881
:102DB0008410134806F0D2FAD9F800B00FE7104893
:102DC00006F07CFAE36F012B4FF00B010CBF1748A4
:102DD000174806F081F80C210C4806F07DF8EEE665
:102DE00000709446007094C66087FF1FB494FF1F64
:102DF0008C94FF1F5C92FF1F17B7D138941201000B
:102E0000C487FF1F480801004C0801003808010072
:102E10000000FA430000FAC3F4C2FF1F8894FF1FAA
:102E20007092FF1F00007A44FC0601002008010098
:102E30002C0801002493FF1F2DE9F047B24D2B68A9
:102E400084B0002B7ED0B14CDFF8C882B04EE36F67
:102E5000AE4D012B00F08F80D4F88030AB4F012BAA
:102E600000F0BC80D6F80090D7F858A07D6DA94F2F
:102E700005FB0AF54FF47A7000FB05F008F07EFDC3
:102E8000A5490546484608F0CDFD294608F07EFED6
:102E9000A24908F0C7FD08F0A1FF6328C8F80000A8
:102EA0004BDD28469C4908F071FE642330603B608E
:102EB0009B4B1B68002B3DD0E36F944D012B00F022
:102EC000BB80032B00F00981022B00F00C81022152
:102ED000944806F001F8944B186808F0F9F80224B9
:102EE00002460B460094914806F042FA214690486B
:102EF00005F0F2FF21468B4805F0EEFFD8F80010F0
:102F00008A4806F02BFA06218A4805F0E5FF30686A
:102F1000814908F087FD08F0DBF8009402460B4673
:102F2000824806F025FA0321834805F0D5FF7F4843
:102F300006F0C4F904B0BDE8F0870028BCBF002348
:102F40003B60B5E77D4E714C33680293029A42F2C2
:102F500028339A4200F2BA8033680393039A42F20C
:102F600010739A4274D8E36FDFF8A881684E674DFA
:102F7000012B7FF471AF7248FEF7D6FC7149D5F88A
:102F80006890EF6E08F04EFD08F04EFF2A6F6B6FF1
:102F9000C9EB0202DB1B80B29A42C9EB000040F38E
:102FA000AD8003FB0000531C90FBF3F31F44A06DA6
:102FB000636DC8F8007000FB07F003FB00F000EB46
:102FC0008000400008F0DAFC5349504F08F0DEFD65
:102FD000D4F880303060012B7FF444AF5848FEF7BE
:102FE000A3FC5849D7F86890FD6E08F01BFD08F067
:102FF0001BFF3A6F7B6FD4F858A0C9EB02025B1B32
:1030000080B29A42C9EB0000C6BF03FB0000013248
:10301000584390FBF2F02844656D00FB0AF005FB75
:1030200000F000EB8000400008F0A8FC3A4908F0EE
:10303000ADFD814630601AE7434B1B68012B4FF012
:103040000A010CBF4148424805F046FFEB6F38E7E4
:103050003B48FEF769FC3B49A76EE66E08F0E2FCD0
:1030600008F0E2FE226F636FD21B9B1B80B29A4274
:10307000A0EB07003CDD03FB0000531C90FBF3F3C7
:103080009819A26DDFF88C80636DC8F8000002FB10
:1030900000F003FB00F000EB8000400008F06EFC45
:1030A0001D491B4E08F072FD0123306002211D48AE
:1030B0002B6005F011FF1D4806F000F95921254845
:1030C00005F00AFF194806F0F9F8C0E61C48626CE2
:1030D00094F84010FEF7CAFB3EE710211E4805F0A9
:1030E000FBFEE36FF0E607211C4805F0F5FEEEE677
:1030F00003FB00F393FBF2F39819C2E703FB00F321
:1031000093FBF2F31F4452E75492FF1F2C93FF1FCF
:103110007092FF1F3487FF1FE4388E3E0000C842C4
:103120006C87FF1F941201006C92FF1FC487FF1F62
:103130005C080100F0080100F8080100F4C2FF1F5C
:10314000C094FF1F00007A446087FF1FBC08010085
:10315000C808010060080100D4080100E808010067
:10316000F0B5112083B004F0CDFD012813D000216B
:103170000B2004F0C1FD00210C2004F0BDFD002156
:10318000152004F0B9FD1D491D4B012000220870D7
:103190001A6003B0F0BD01460446152004F0ACFDF2
:1031A0001849194A194B09680191D2F890001B6817
:1031B0000199134D034402268B422E6017D8D2F892
:1031C000980008F0DBFB124B196808F0C9FD0746B0
:1031D00068B921460B2004F08FFD084A03233946C5
:1031E0000C2016702B6004F087FD03B0F0BD0121A8
:1031F0000C2004F081FD03B0F0BD00BF7894FF1FE8
:10320000B094FF1FF4C2FF1F2C93FF1FB894FF1F41
:103210006C92FF1FF0B5684E684D34682B689C4275
:1032200087B039D014F0010155D014F0020149D013
:1032300014F004013DD0E3070ED52B68DF070BD453
:103240005F4F3A68002A00F082805E4B1B68019352
:10325000019B93426DD83468A0070DD52B68990760
:103260000AD4594F3A68002A4CD0564B1B68039336
:10327000039B934238D8346862070DD52B685B07EF
:103280000BD4524F3A68002A7ED04E4B1B680593F0
:10329000059B934268D834680CB107B0F0BD214655
:1032A000162004F0A9FB2146172004F0A5FB07B067
:1032B000F0BD052004F0A0FB2B68346803F0FB038D
:1032C0002B60B8E7172004F097FB2B68346803F0F5
:1032D000FD032B60ACE7162004F08EFB2B683468EE
:1032E00003F0FE032B60A0E7394B1720D3F89410AE
:1032F00004F082FB2B68346843F0020300222B6049
:103300003A60B9E7334805F0D9FF0C21324805F09F
:10331000E3FD304805F0D2FFFF21172004F06CFBDD
:10332000284B2E4A19680291029912680A443A60A1
:103330009CE7274B1620D3F8941004F05DFB2B6814
:10334000346843F0010300222B603A6084E7FF21D8
:10335000162004F051FB1B4B204A1968009100997C
:1033600012680A443A6071E7194B0520D3F89410AB
:1033700004F042FB2B68346843F0040300222B6006
:103380003A60002C89D18AE7124805F097FF0C219A
:10339000134805F0A1FD0F4805F090FFFF2105201F
:1033A00004F02AFB074B0D4A19680491049912682E
:1033B0000A443A606AE700BFB094FF1FE493FF1F1E
:1033C0006094FF1FF4C2FF1F6494FF1F6894FF1FE7
:1033D0002C93FF1FC487FF1FFC0801006887FF1F95
:1033E0000C0901002DE9F8434B4DDFF8589128688E
:1033F0004A4E4B4F00220E2103F0B6FC012322213E
:103400004848C9F8003005F067FD3368132B1EDC0F
:1034100040F6E4480021286803F0F8FC0021044647
:10342000286803F079FC3B88A4B2012108FB04F46E
:10343000B4FBF0F43C481C443C8005F04DFD642096
:1034400004F096FC33680133132B3360E2DD3B88D4
:10345000364A3748A2FB03129B1A02EB5303C3F30D
:103460000F1319463B8005F079FF1D213148324F7B
:1034700005F032FD0221314805F02EFD2C4805F003
:103480001DFF00231A460F212868336003F06CFCEF
:10349000022322212348C9F8003005F01DFD3368BE
:1034A000132B1EDC40F6E4480021286803F0AEFC34
:1034B00000210446286803F02FFC3B88A4B20121B8
:1034C00008FB04F4B4FBF0F417481C443C8005F0FE
:1034D00003FD642004F04CFC33680133132B33608C
:1034E000E2DD3B88114A1248A2FB03129B1A02EB51
:1034F0005303C3F30F1319463B8005F02FFF1D2123
:103500000F4805F0E9FC02210C4805F0E5FC0848ED
:10351000BDE8F84305F0D2BE8C94FF1F7494FF1FE2
:103520005087FF1F1C090100600901008761188690
:10353000C487FF1F400901005287FF1F941201003A
:10354000640901006087FF1FF8B5774B774C784D11
:103550001B68286D40F2513108222160E271002B76
:1035600000F0DD8008F00AFA296A064608F05AFAE7
:10357000704908F057FA08F057FC80B203126372E2
:103580006D4A6E4B12681B68A96920721512A372EE
:1035900030461B12E3722273657308F043FA6549E3
:1035A00008F040FA08F040FC83B21A125F49644800
:1035B000A373E27303F0FAF9624B634A1B68128843
:1035C0005A49A272DFB207EB870603EB8305760048
:1035D00045F3D71512121B1227722673657308263E
:1035E000002540F255375648E27263722760E67153
:1035F000A573E57303F0DAF940F2563353482360BC
:10360000E671FEF72FF9524908F00CFA08F00CFCAD
:1036100020724E48FEF726F94D4908F003FA08F0EB
:1036200003FC4C4A4A49C0F307231068637208F050
:10363000ADFA08F0D3FB40FA06F203464348E272C3
:10364000A372FEF731F93B4908F0ECF908F0ECFB06
:1036500020733E48FEF728F9364908F0E3F908F0F0
:10366000E3FB3249A573C0F3072335486373E57361
:1036700003F09CF9022004F07BFB374B2B491878B0
:1036800093F801E09F78DA78207240F25A332C48A0
:10369000E67125736573A573E57384F809E0A77275
:1036A000E272236003F082F92C4B204918785D7890
:1036B0009A782072187993F803E05F796572A272A4
:1036C0009D79DA79207340F25E331D4884F80BE06F
:1036D000E2732360E6716773A57303F067F9022054
:1036E00004F046FB1E4BE6711D785A7893F802E011
:1036F000D8781F795E79257262729D79DA79E072E5
:103700004FF45C7384F80AE027736673A573E27361
:10371000236006490A48BDE8F84003F047B908F0BD
:103720002DF96969064621E76092FF1FA094FF1FEB
:103730002C93FF1F000020418494FF1F4492FF1F21
:103740004CC1FF1F3487FF1F3887FF1FC094FF1F26
:103750000000C8426C92FF1F2893FF1F2887FF1F9D
:103760005487FF1F38B5284B1B68012B00D038BD8C
:10377000264D2748FEF72CF8E96C08F04BF8044674
:103780002348FEF74BF80146204608F0E9FA0028E6
:10379000EDD0204C1E4840F2C33208232260E37172
:1037A000FEF716F8AD6C294608F0DAFAB8B11A49F6
:1037B000284608F037F908F037FB80B20312607230
:1037C000237200230122A272E37223736373A37333
:1037D000E37310491148BDE8384003F0E7B80C48DE
:1037E000FDF7F6FF0C4908F01DF908F01DFBC0F3CA
:1037F000072307482372FDF7EBFF074908F012F98A
:1038000008F012FB6072DCE79494FF1F2C93FF1FFB
:10381000C094FF1FA094FF1F0000C8424CC1FF1FAF
:10382000F0B5984C984D83B005F0F0FA2368286005
:10383000042B00F0A482022B4BD0082B00F09280C6
:10384000072B40F04981332801F02E8300F3A68036
:10385000312801F03C83322840F0A98005F012FBAA
:10386000002840F337818948894E05F0BBFE08F0F7
:1038700085F8884908F0D6F861230122F0632260B8
:103880002B601846A0F152031F2B01F2EB82DFE8F8
:1038900013F02A0AE90AE90AE90AE90AE90AE90A3F
:1038A000E90AE90AE90AE90AE90AE90AE90AE90A80
:1038B000BB09320C3E0AEF086108E90AE90AE90A85
:1038C0001908E90A2F0CE90AE90AE90AE90AE90AEA
:1038D0002C0AA0F13102422A69D8DFE812F048042C
:1038E000540462046F048204910468006800680054
:1038F0006800680068006800680068006800680088
:103900006800680068006800680068006800680077
:103910006800680068006800680068006800680067
:103920006800680068006800680068006800680057
:103930006800680068006800680068006800680047
:103940006800350468006800680068006800680066
:10395000680068006800680068006800680064002B
:1039600068003B04322800F01F8371281BD03128E7
:103970001DD105F087FA002840F3A4834348444E44
:1039800005F030FEC0B286F8400002288ABF002150
:10399000014686F84010726C3F4819E3342801F064
:1039A0007182712803D10023732023602860002BCB
:1039B00008BF73280CBF01200020002860D03348C6
:1039C00005F07CFC0421354805F086FA2F4805F007
:1039D00075FC1021324805F07FFA2C4805F06EFC8A
:1039E0001321304805F078FA2F4B2848196805F064
:1039F000B5FC264805F062FC14212C4805F06CFA51
:103A0000224805F05BFC1E21294805F065FA1F4895
:103A100005F054FC1521274805F05EFA1B4805F017
:103A20004DFC1E21244805F057FA184805F046FCC5
:103A30002021224805F050FA144805F03FFC1921D6
:103A40001F4805F049FA114805F038FC12211D48BD
:103A500005F042FA0D4805F031FC0F211A4805F037
:103A60003BFA0A4805F02AFC0D21184805F034FA03
:103A7000064805F023FC164A00210123116023604B
:103A800003B0F0BDBC94FF1F6892FF1FC487FF1FE7
:103A90002C93FF1F6F12833AC094FF1F1011010077
:103AA000181101002C1101002087FF1F4011010097
:103AB000581101007811010090110100B0110100AE
:103AC000D4110100F01101000412010014120100D0
:103AD0006C87FF1F23682868062B40F08D80A0F1BB
:103AE0003102402A3FF663AF01A151F822F000BF36
:103AF000DF3F00002D40000009400000974000001B
:103B00005740000073400000AF390000AF3900009B
:103B1000AF390000AF390000AF390000AF39000005
:103B2000AF390000AF390000AF390000AF390000F5
:103B3000AF390000AF390000AF390000AF390000E5
:103B4000AF390000AF390000AF390000AF390000D5
:103B5000AF390000AF390000AF390000AF390000C5
:103B6000AF390000AF390000AF390000AF390000B5
:103B7000AF390000AF390000AF390000AF390000A5
:103B8000AF390000AF390000AF390000AF39000095
:103B9000AF390000AF390000AF390000AF39000085
:103BA000AF390000AF390000AF390000AF39000075
:103BB000AF390000AF390000AF390000AF39000065
:103BC000AF390000AF390000AF390000AF39000055
:103BD000AF390000AF390000AF390000AF39000045
:103BE000AF390000AF390000AF390000AF39000035
:103BF000A739000023682868052B15D1332801F068
:103C0000EB8140F34781352801F0D881C1F2C081B2
:103C100071287FF4CCAED84A002373201360236050
:103C20002860C4E623682868032B40F0A480A0F134
:103C30003002422A3FF6BBAE01A151F822F000BF8C
:103C40004D3D000019470000414700008546000037
:103C5000A7460000C9460000F14600006947000081
:103C600087470000AB470000AF390000AF390000C4
:103C7000AF390000AF390000AF390000AF390000A4
:103C8000AF390000AF390000AF390000AF39000094
:103C9000AF390000AF390000AF390000AF39000084
:103CA000AF390000AF390000AF390000AF39000074
:103CB000AF390000AF390000AF390000AF39000064
:103CC000AF390000AF390000AF390000AF39000054
:103CD000AF390000AF390000AF390000AF39000044
:103CE000AF390000AF390000AF390000AF39000034
:103CF000AF390000AF390000AF390000AF39000024
:103D0000AF390000D3470000754200002D48000085
:103D1000F14700000F4800004B48000051420000EE
:103D2000AF390000AF390000AF390000AF390000F3
:103D3000AF390000AF390000AF390000AF390000E3
:103D4000AF3900008B4800004F46000005F09AF89C
:103D5000002841F390808948894E05F043FC0127F3
:103D60000346014662228748736527602A60FDF793
:103D70007BFD23682868012B7FF419AE82E5A0F152
:103D80003102402A3FF613AE01A151F822F000BFE4
:103D9000F340000045410000CD4000000B41000011
:103DA0000F4100002B4100003D4100004141000057
:103DB000AF390000AF390000AF390000AF39000063
:103DC000AF390000AF390000AF390000AF39000053
:103DD000AF390000AF390000AF390000AF39000043
:103DE000AF390000AF390000AF390000AF39000033
:103DF000AF390000AF390000AF390000AF39000023
:103E0000AF390000AF390000AF390000AF39000012
:103E1000AF390000AF390000AF390000AF39000002
:103E2000AF390000AF390000AF390000AF390000F2
:103E3000AF390000AF390000AF390000AF390000E2
:103E4000AF390000AF390000AF390000AF390000D2
:103E5000AF390000AF390000AF390000AF390000C2
:103E6000AF390000AF390000AF390000AF390000B2
:103E7000AF390000AF390000AF390000AF390000A2
:103E8000AF390000AF390000AF390000AF39000092
:103E9000A7390000312801F0308032287FF487AD47
:103EA00004F0F0FF00287FF7BDAE3448344E05F033
:103EB00099FB01226B23C6F8980022602B602F48E3
:103EC00005F0FCF92D4805F0F9F92C4805F0F6F954
:103ED0002A4805F0F3F9294805F0F0F921212A488C
:103EE00004F0FAFF254805F0E9F91521274804F008
:103EF000F3FFD6F89010214805F030FA022124484B
:103F000004F0EAFF1D4805F0D9F91E21214804F00C
:103F1000E3FFD6F89810194805F020FA03211E484F
:103F200004F0DAFF154805F0C9F91E211B4804F01A
:103F3000D3FFD6F89410114805F010FA0F4805F099
:103F4000BDF91D21164804F0C7FFD6F8A0100B4894
:103F500005F004FA094805F0B1F91E21114804F0F2
:103F6000BBFFD6F8A410054805F0F8F9034805F0A2
:103F7000A5F90523236083E56C94FF1FC487FF1F09
:103F80002C93FF1FC094FF1FD00B0100F40B010006
:103F9000280B01000C0C0100480801002C0C01004A
:103FA0004C0C01006C0C010004F06CFF002840F385
:103FB00085809A489A4E05F015FB07F0DFFC994979
:103FC00007F030FD96F840100346024696487364A9
:103FD000FDF74CFC012369202360286052E404F0C3
:103FE00051FF00287FF706AE8C488D4E05F0FAFA97
:103FF00007F0C4FC8D4907F0C9FD652301227061FB
:1040000022602B6018463DE404F03CFF00287FF757
:10401000F1AD8248824E05F0E5FA00EB80004300E6
:1040200001226520F365226028602BE404F02AFF5A
:1040300000287FF7DFAD7948794E05F0D3FA07F015
:104040009DFC7A4907F0A2FD65230122F061226000
:104050002B60184616E4724AD2F8AC300133052BB7
:10406000C8BF0023C2F8AC3065200123236028605C
:1040700008E404F007FF00287FF7BCAD6748684EEE
:1040800005F0B0FA65230122C6F8B00022602B606B
:104090001846FFF7F7BB04F0F5FE00287FF7AAAD3E
:1040A0005E485F4E05F09EFA00EB8000430001225F
:1040B0006520336622602860FFF7E4BB2368286828
:1040C000FFF7BEBB564E96F840005EE4584A594F83
:1040D0001368002B0CBF012300234FF00100136075
:1040E000206040F0B987034664222A606420FFF70D
:1040F000A4BB514A1368B3FA83F35B09012164201E
:10410000136021602860FFF7BDBB4C4AF2E7444EC4
:10411000D6F89C30B3FA83F35B0901226420C6F819
:104120009C3022602860FFF7ADBB01233E4823602E
:10413000FDF72AFA424A23681060D5E7414AD9E7D9
:10414000414AD7E7414AD5E7FFF74CF92368286889
:10415000FFF773BB324AD36F0133032BC8BF002371
:10416000D3670123632023602860FFF78BBB2C4EAD
:10417000B36FB3FA83F35B0901226320B367226054
:104180002860FFF77FBB264ED6F88030B3FA83F362
:104190005B0901226320C6F8803022602860FFF7A7
:1041A00071BB0123236004F06DFE0028D9DD1B489C
:1041B0001B4E05F017FAC6F8A800D2E701232360CA
:1041C00004F060FE002807DD1448154E05F00AFAD9
:1041D00007F0D4FBC6F88C00632028602368FFF743
:1041E0002FBB0123236004F04DFE0028F4DD0B48B3
:1041F0000B4E05F0F7F907F0C1FBC6F88800EBE7B6
:104200000123236004F03EFE0028E5DD0348044E50
:1042100005F0E8F9A6F8B600DEE700BFC487FF1F87
:104220002C93FF1F6F12833AC094FF1F00007A4443
:104230009C94FF1FBC94FF1F5C94FF1F9094FF1F72
:104240007094FF1F6C94FF1F6492FF1FB494FF1FB4
:1042500004F018FE00280DDDC148C24E05F0C2F979
:1042600007F08CFBC04907F091FC01226223306209
:1042700022602B6004F006FE002840F3FC85B8485D
:10428000B84E05F0AFF901226223B06622602B60C0
:10429000B34805F013F8B24805F010F8B04805F03F
:1042A0000DF8AF4805F00AF8AD4805F007F81521FC
:1042B000AE4804F011FEAA4805F000F81421AC48FD
:1042C00004F00AFEA64804F0F9FF1B21A94804F0F7
:1042D00003FEA34804F0F2FF1321A74804F0FCFDFD
:1042E0009F4804F0EBFF9E4804F0E8FF9C4804F070
:1042F000E5FF2021A14804F0EFFDF0689A4907F09E
:1043000091FB06F0E5FE002702460B460097944815
:1043100005F02EF802219A4804F0DEFD02219948AA
:1043200004F0DAFD8E4804F0C9FF2121964804F01C
:10433000D3FD30698C4907F075FB06F0C9FE009784
:1043400002460B46864805F013F802218C4804F01B
:10435000C3FD02218B4804F0BFFD814804F0AEFF8D
:104360001F218A4804F0B8FDB06A06F0B1FE0225AC
:1043700002460B4600957A4804F0FAFF0121844872
:1043800004F0AAFD29467F4804F0A6FD744804F015
:1043900095FF20217F4804F09FFDF06A06F098FE0B
:1043A000009502460B466E4804F0E2FF0121784872
:1043B00004F092FD2946734804F08EFD684804F02D
:1043C0007DFF2321744804F087FDB06C664907F037
:1043D00029FB06F07DFE009702460B46604804F07C
:1043E000C7FF2946664804F077FD2946654804F072
:1043F00073FD5B4804F062FF1F21684804F06CFD08
:10440000F06C594907F00EFB06F062FE0097024679
:104410000B46534804F0ACFF2946594804F05CFDB4
:104420002946584804F058FD4D4804F047FF19212B
:104430005B4804F051FDB16D494804F08FFF2946F7
:10444000584804F049FD29464E4804F045FD4448CB
:1044500004F034FF1821544804F03EFD706E07F05C
:104460008DFA524907F0DEFA06F032FE0095024658
:104470000B463B4804F07CFF01214D4804F02CFD25
:104480002946404804F028FD354804F017FF2B2149
:10449000484804F021FDB069334907F0C3FA06F03B
:1044A00017FE009702460B462D4804F061FF29468F
:1044B000334804F011FD2946324804F00DFD284828
:1044C00004F0FCFE1F213C4804F006FD716D2448F9
:1044D00004F044FF29462B4804F0FEFC204804F079
:1044E000EDFE2021354804F0F7FC316D1C4804F046
:1044F00035FF2946234804F0EFFC194804F0DEFE9E
:1045000010212F4804F0E8FCB16E154804F026FF96
:1045100029461B4804F0E0FC29461A4804F0DCFC5C
:104520000F4804F0CBFE1321264804F0D5FCF16EB1
:104530000B4804F013FF0121234804F0CDFC294669
:10454000104804F0C9FC064804F0B8FE10211F48CA
:1045500004F0C2FC316F024804F000FF294637E046
:10456000C487FF1F2C93FF1F00007A44D80E010060
:10457000F00E0100080F0100000A0100240F0100E5
:10458000FC09010094120100480F01006C0F0100AA
:10459000700501008C0F0100B00F0100D40F010065
:1045A000F40F01001010010014100100CDCCCC3D1F
:1045B000900E0100301001005C1001007C10010021
:1045C000A0100100B4100100C8100100CC100100BF
:1045D000B14804F081FC2946B04804F07DFCB048A5
:1045E00004F06CFE1421AF4804F076FC716FAC4807
:1045F00004F0B4FE0121AC4804F06EFC2946A74843
:1046000004F06AFCA64804F059FE1621A74804F0FD
:1046100063FC306AA64907F005FA06F059FD0097D9
:104620000B4602469E4804F0A3FE29469A4804F031
:1046300053FC2946994804F04FFC994804F03EFE8B
:10464000974804F03BFE03232360FFF719BA994B08
:104650009248994E002202211A6004F03DFC9048D5
:1046600004F02CFE0B21954804F036FC02218B4807
:1046700004F032FC8A4804F021FE01226223226009
:104680002B6005E604F0FEFB002840F3F483844829
:10469000894E04F0A7FF07F071F901226223B0628E
:1046A00022602B60F4E504F0EDFB002840F3E38387
:1046B0007B48814E04F096FF07F060F901226223E7
:1046C000F06222602B60E3E504F0DCFB002840F39D
:1046D000D2837348784E04F085FF07F04FF9744990
:1046E00007F054FA01226223B06422602B60CFE508
:1046F00004F0C8FB002840F3BE8369486E4E04F006
:1047000071FF07F03BF96A4907F040FA0122622382
:10471000F06422602B60BBE504F0B4FB002840F39A
:10472000AA835F48644E04F05DFF07F027F96049F3
:1047300007F02CFA01226223F06022602B60A7E5CB
:1047400004F0A0FB002840F3968355485A4E04F02D
:1047500049FF07F013F9564907F018FA01226223BE
:10476000306122602B6093E504F08CFB002840F35D
:1047700082834B48504E04F035FF01226223B0651E
:1047800022602B6084E504F07DFB002840F37383F6
:104790004348494E04F026FF00EB8000430001210E
:1047A0006222736621602A6072E504F06BFB0028C8
:1047B00040F361833A48404E04F014FF07F0DEF8FE
:1047C0003B4907F0E3F901226223B06122602B60CC
:1047D0005EE504F057FB002840F34D833048364E29
:1047E00004F000FF01226223306522602B604FE558
:1047F00004F048FB002840F33E8329482E4E04F085
:10480000F1FE01226223306722602B6040E504F054
:1048100039FB002840F32F832148274E04F0E2FEA5
:1048200001226223706722602B6031E504F02AFBCD
:10483000002840F320831A481F4E04F0D3FE0122C3
:104840006223F06622602B6022E5FDF77FFA0221E9
:104850001248194E04F040FB114804F02FFD0221CC
:104860000E4804F039FB0E4804F028FD02210B48E5
:1048700004F032FB0A4804F021FD1721104804F02F
:104880002BFB074804F01AFDF0E600227323226098
:104890002B60FFF794B800BFFC09010094120100DF
:1048A000C487FF1FE0100100C8100100F8100100CC
:1048B00000007A445492FF1F2C93FF1FA8090100A7
:1048C00090090100AF48B04D04F0F8FCAD4804F089
:1048D000F5FCAC4804F0F2FCAA4804F0EFFCA9484F
:1048E00004F0ECFC1521A94804F0F6FAA54804F000
:1048F000E5FC1821A64804F0EFFA00230A2295F8F7
:104900004010A04804F0EAFC9E4804F0D7FC28219F
:10491000A04804F0E1FA686C9F4907F083F806F0BC
:10492000D7FB00250B4602460095964804F020FD73
:1049300002219A4804F0D0FA924804F0BFFC1321F7
:10494000974804F0C9FA8F4804F0B8FC08232360A4
:10495000FFF796B88B488C4E04F0B0FC894804F001
:10496000ADFC884804F0AAFC864804F0A7FC854802
:1049700004F0A4FC11218B4804F0AEFA814804F045
:104980009DFC2821884804F0A7FA7069824907F045
:1049900049F806F09DFB002502460B460095794834
:1049A00004F0E6FC02217D4804F096FA754804F014
:1049B00085FC16217D4804F08FFAF069764907F0EE
:1049C00031F806F085FB00950B4602466D4804F071
:1049D000CFFC0221714804F07FFA6A4804F06EFCB3
:1049E000D6F8AC30AB4232DD1D21714804F074FAC8
:1049F000F06D06F0C3FF6F4907F014F806F068FB8E
:104A0000022502460B4600955E4804F0B1FC0121E8
:104A1000694804F061FA5B4804F050FC1F216748C4
:104A200004F05AFA306E06F0A9FF624906F0FAFF68
:104A300006F04EFB009502460B46524804F098FCE7
:104A400001215D4804F048FA4E4804F037FC11217A
:104A50005B4804F041FAD6F8AC30052B00F2C38174
:104A6000DFE813F0F601FB01F101EC01E701BD0104
:104A7000444804F023FC434804F020FC414804F07F
:104A80001DFC404804F01AFC3E4804F017FC1321BA
:104A90004C4804F021FA3B4804F010FC0D214A4830
:104AA00004F01AFA374804F009FC0F21474804F0D3
:104AB00013FA474B3348196804F050FC314804F0AE
:104AC000FDFB1321434804F007FA434B2D481968B6
:104AD00004F044FC2B4804F0F1FB12213F4804F0A1
:104AE000FBF93F4B2748196804F038FC254804F0CF
:104AF000E5FB11213B4804F0EFF93B4B21481968D5
:104B000004F02CFC1F4804F0D9FB0E21374804F0B8
:104B1000E3F91D4B1B48D3F89C1004F01FFC194807
:104B200004F0CCFB1921324804F0D6F9314B15487A
:104B3000196804F013FC134804F0C0FB11212E483F
:104B400004F0CAF92D4B0F48196804F007FC0D4812
:104B500004F0B4FB10212A4804F0BEF9294B09489F
:104B6000196804F0FBFB074804F0A8FB13210C486C
:104B700004F0B2F9034804F0A1FB04232360FEF71C
:104B80007FBF00BFC487FF1F2C93FF1FD8110100F8
:104B9000B4090100D009010000007A44FC090100B9
:104BA000000A01007C110100140A0100400A010002
:104BB000580A0100CDCCCC3D900E0100780A0100CE
:104BC000980A01008C0C0100A00C0100B00C01003F
:104BD0005C94FF1FC00C0100B494FF1FD40C0100B3
:104BE0009C94FF1FE80C01009094FF1FFC0C010037
:104BF0000C0D01007094FF1F280D01006C94FF1F25
:104C00003C0D01006492FF1FC448C54D04F056FBE3
:104C1000C24804F053FBC14804F050FBBF4804F005
:104C20004DFBBE4804F04AFB1F21BE4804F054F976
:104C3000BA4804F043FB1C21BB4804F04DF9686AF4
:104C4000BA4906F0EFFE06F043FA002602460B468C
:104C50000096B24804F08CFB0221B54804F03CF900
:104C6000AE4804F02BFB2321B24804F035F9E86B81
:104C7000AE4906F0D7FE06F02BFA009602460B4628
:104C8000A64804F075FB0221A94804F025F9A348C1
:104C900004F014FB1921A84804F01EF9A86B06F0D3
:104CA00017FA02260B46024600969C4804F060FB69
:104CB0003146A24804F010F9984804F0FFFA19218F
:104CC0009F4804F009F9B5F8B410944804F046FB85
:104CD00003219C4804F000F9904804F0EFFA072300
:104CE0002360FEF7CDBE03F0C1FBB82200218C4843
:104CF00002F036FD2868944AA0F1730001210023D8
:104D0000B0FA80F0400911602360FEF756BE834878
:104D1000834E04F0D3FA814804F0D0FA7F4804F0BF
:104D2000CDFA7E4804F0CAFA7C4804F0C7FA1F2185
:104D3000864804F0D1F8794804F0C0FA1E2184486E
:104D400004F0CAF8754804F0B9FA1A21814804F051
:104D5000C3F8F36F022B00F09D81032B00F09281CA
:104D6000012B00F09F8109217B4804F0B5F86B48C6
:104D700004F0A4FA14217948694F04F0ADF8B16F3A
:104D8000664804F0EBFA654804F098FA1C21744870
:104D900004F0A2F8D6F88010604804F0DFFA5F480B
:104DA00004F08CFA1C216F4804F096F8D6F8A8108D
:104DB0005A4804F0D3FA594804F080FAF56F25F008
:104DC0000205012D00F019811321674804F084F8D1
:104DD000524804F073FA02232360FEF751BE0F21FC
:104DE000624804F079F84D484D4D04F067FAD6F862
:104DF000AC30002B0FDD18215D4804F06DF8D5F8BC
:104E0000B010464804F0AAFA02215A4804F064F8A7
:104E1000424804F053FA414804F050FA1321524832
:104E200004F05AF83D4804F049FA06232360FEF7DF
:104E300027BE0D21504804F04FF8D4E70D214F480C
:104E400004F04AF8CFE70C214D4804F045F8CAE7D2
:104E50000D214C4804F040F8C5E70C214A4804F005
:104E60003BF8C0E72368002B08BF73280CBF012064
:104E70000020FEF7A2BD23682868012B7EF497ADC1
:104E8000FEF700BD03F0FEFF00287EF723AE2348A7
:104E9000234E04F0A7FB61230122A6F8B400226090
:104EA0002B601846FEF7EEBC03F0ECFF00287EF7FF
:104EB00011AE1A481A4E04F095FB06F05FFD61230F
:104EC0000122B06322602B601846FEF7DBBC03F0C2
:104ED000D9FF00287EF7FEAD1048114E04F082FB8A
:104EE00006F04CFD294906F09DFD61230122706208
:104EF00022602B601846FEF7C5BC03F0C3FF0028F4
:104F00007EF790AE0548064E04F06CFB01226B2341
:104F1000C6F8900022602B60FEF7D1BFC487FF1F48
:104F20002C93FF1F2C0B01004C0B010000007A4456
:104F3000FC0901006C0B0100900B0100AC0B01009F
:104F4000B00B0100CC0B01006C87FF1F500D01005E
:104F5000700D0100900D0100080E0100140E0100FB
:104F60002C0E01004C0E0100000A0100FC0A010099
:104F70000C0B0100280B0100EC0A0100DC0A010007
:104F8000CC0A0100AC0A0100BC0A01006F12833A8E
:104F900003F078FF00287EF745AE5848584E04F0DD
:104FA00021FB584BC6F8A00002221A60FDF7FCF95D
:104FB00001226B2322602B60FEF781BF03F062FFAA
:104FC00000287EF72FAE4D484D4E04F00BFB4D4BA5
:104FD000C6F8A4000322E8E703F054FF00287EF798
:104FE00021AE4648464E04F0FDFA01226B23C6F876
:104FF000940022602B60FEF762BF1C21424803F040
:105000006BFFD7F88C00414906F00CFD06F060F804
:10501000009502460B46394804F0AAF905213C48A0
:1050200003F05AFF354804F049F9FD6F012D41D0D6
:10503000032D7FF4C9AE1C21364803F04DFFB6F8AE
:10504000B6102E4804F08AF90321334803F044FFD8
:105050002A4804F033F9B7E6304B002631460B20DE
:105060001E6002F049FE31460C2002F045FE31463A
:10507000142002F041FE3146152002F03DFE3B684F
:10508000FFF732B82021264803F026FF1B4804F022
:1050900015F96FE61721234803F01EFF174804F0A7
:1050A0000DF967E61E21204803F016FF134804F0AF
:1050B00005F95FE61D211D4803F00EFFD7F88800B3
:1050C000124906F0AFFC06F003F800950B460246C5
:1050D0000A4804F04DF905210D4803F0FDFE07488C
:1050E00004F0ECF8FB6F23F00203012BA3D06BE676
:1050F000034EFEF7E4BE024EFFF7CAB8C487FF1F97
:105100002C93FF1F6C94FF1F6C0E0100CDCCCC3D87
:105110008C0E0100B40E0100D40E0100B094FF1FEC
:10512000CC0D0100F00D0100AC0D0100940E01004A
:1051300038B5164C164A2368101D12F8011F90420C
:1051400041EA0323F9D12360124C03F100432360A9
:10515000114BDB6F022B11D0104B1B68012B00D0C1
:1051600038BD0F4804F0AAF821680D4804F0F6F89D
:1051700003210C48BDE8384003F0AEBE20680A4D5C
:1051800006F0FCFB2860FDF7A7FBE5E73C92FF1F5C
:105190007B92FF1F8094FF1F2C93FF1F5C94FF1FC7
:1051A000C487FF1F241201005C92FF1F30B53F4CE3
:1051B0003F4883B0214601F0F1FA236840F2C23241
:1051C000934258D06FF4C0615A18B2F5FF7F4CD9A2
:1051D00003F100436FF4C0621344B3F5FF7F3FD97E
:1051E000344B1B68012B01D003B030BD324B1B6820
:1051F000012BF9D1314B32481B6801930A2200235D
:10520000019904F06BF82268284B002ADB7945DB12
:105210002C492D4807F0E4FB2B4807F011FC014610
:10522000294803F059FE2568204B15F0804526D10A
:10523000DB798BB1631925491A7A234807F0D0FB33
:10524000214807F0FDFB01461F4803F045FE0135EC
:10525000E379EDB2AB42EDD8194804F02FF8C3E77B
:1052600012491B48FCF7B6F9BAE710491848FCF791
:10527000B1F92368ACE7FFF75BFF2368A2E7154DA0
:10528000114C0FCD0FC495E8030044F8040B2046E1
:1052900020F81419152103F01FFEDDE70E490A4816
:1052A00022F0604207F09CFBB6E700BF7492FF1F3C
:1052B0004CC1FF1F6C87FF1F5C94FF1FF4C2FF1FD0
:1052C000C487FF1F501201008492FF1F7C1201004F
:1052D000C094FF1F64120100281201002DE9F84F4D
:1052E0007E4B7F4C1B78052B08D07E48FCF7DCFA00
:1052F000E16A06F035FD002800F081807A4E7B4D92
:10530000002333602B607A4B76481B68744F012B67
:1053100033D0FCF783FAE1698046606906F078FAD9
:105320000146404606F03AFD00283AD16D48FCF7A8
:1053300075FAE16806F032FD08B100232B60694878
:10534000674FFCF745FA216906F00AFD48B10023D2
:1053500033602B68654A002BBCBF00231360BDE897
:10536000F88F6048FCF734FAB96906F0F9FC0028B8
:10537000EDD13368002BEADBEBE7FCF74FFAE1698C
:105380008046206A06F044FA0146404606F006FDD3
:105390000028CBD05348FCF741FAD7F82090834639
:1053A00005E05048FCF73AFAD7F814908346F969BB
:1053B000484606F02DFA8246F86D06F0DFFA804680
:1053C000386E06F0DBFA414606F022FA51460746EF
:1053D000584606F01DFA0146384606F023FB5146B2
:1053E0000746484606F014FA0146384606F0CEFB5A
:1053F000414606F00FFA06F0F1FC286096E73948BE
:10540000FCF752FA216B06F0ABFC20B3364E636E0C
:1054100034483360FCF748FA8146E06DE76A334D63
:1054200006F0ACFA39468046484606F0F1F90146E6
:10543000404606F0F7FA39468046206B06F0E8F958
:105440000146404606F0A2FB002106F0E3F906F013
:10545000C5FC286057E72348FCF726FA616B06F085
:105460007FFC30B1204E214D626EE36D32602B60C7
:1054700049E71C48FCF718FAA16A06F071FC0028FD
:105480003FF43CAF1748184E184DFCF70DFA814613
:10549000606ED4F8348006F071FA414607464846FB
:1054A00006F0B6F939468146002006F0B1F901460A
:1054B000484606F0B7FA41468146A06A06F0A8F9C8
:1054C0000146484606F062FB394606F0A3F906F0AD
:1054D00085FCE36D30602B6015E700BF7894FF1FFB
:1054E0002C93FF1FC094FF1F8494FF1F4492FF1F43
:1054F0006092FF1F08B5274803F0E0FE0721264809
:1055000003F0EAFC112002F0FDFB0621F8B123486C
:1055100003F0E2FC122002F0F5FB062100B3204864
:1055200003F0DAFC122002F0EDFB062108B31D485F
:1055300003F0D2FC132002F0E5FB062110BB1A4851
:1055400003F0CAFC1348BDE8084003F0B7BE174893
:1055500003F0C2FC122002F0D5FB06210028DED1A8
:10556000134803F0B9FC122002F0CCFB06210028FE
:10557000DDD1104803F0B0FC132002F0C3FB06217C
:105580000028DCD00C4803F0A7FC0248BDE8084026
:1055900003F094BEC487FF1F88120100901201001F
:1055A000A0120100B0120100C812010098120100FF
:1055B000A8120100B8120100C012010010B5254C5C
:1055C0002368042B27DC01210B2002F095FB01212D
:1055D0000C2002F091FB0121142002F08DFB01212F
:1055E000152002F089FBFF21162002F005FAFF21A9
:1055F000172002F001FAFF21052002F0FDF9FF213A
:10560000062002F0F9F9236801330A2B2360C4BF96
:105610000023236010BD00210B2002F06DFB002150
:105620000C2002F069FB0021142002F065FB002130
:10563000152002F061FB0021162002F0DDF90021A7
:10564000172002F0D9F90021052002F0D5F9002138
:10565000D6E700BF9894FF1F2DE9F0418B4DD5F898
:10566000AC30042B3ED0032B6ED0012B00F0988081
:10567000022B01D0BDE8F081854C8648237240F2B0
:105680000E32012321462260E37101F08FF9824B33
:105690001B685B00FF2BC8BFFF23042140224FF48F
:1056A00041702060E17122726372286D06F066F924
:1056B000696906F0B7F97949054606F06FFB0028DD
:1056C00000F0DA802946284606F0A4F806F0ACFB84
:1056D00080B20312E072A3726D496E48BDE8F041DA
:1056E00001F064B96A4C6E4AA379226043F0010369
:1056F0000822E271A371286D06F040F9696906F08D
:1057000091F9684906F08EF906F08EFB624B664A05
:105710001B68126893FBF2F380B200261A1207127C
:10572000607221465B48E372A27227722673667329
:10573000A673E67301F03AF9A279D5F8AC3066F3B6
:105740000002032BA27190D1514C286DA37201224B
:10575000E823072140F2FF26227263722660E1717E
:1057600006F00CF9696906F05DF94E4906F05AF940
:1057700006F05AFB484B4C4A1B68126893FBF2F345
:1057800082B21E121712214642486373E2722773D7
:10579000A67301F00BF9D5F8AC30012B7FF468AF9C
:1057A000424B3B4C1B682360072280231020E27190
:1057B000237202F0A7FA002865D13D4B1B68DFF881
:1057C000D880394F286D324E03EB83035B001A12E9
:1057D000A3726272D8F800303A6893FBF2F31A129F
:1057E0006273A37306F0CAF8696906F01BF9314BBE
:1057F000196806F00DF82B4906F014F906F014FBB1
:1058000080B20312314620732248E37201F0CEF8D1
:10581000022002F0ADFA284B1B6823600722802388
:105820001020E271237202F06DFA50BB204B1B680E
:10583000286D03EB83035B001A12B372727206F0D9
:105840009DF8696906F0EEF8164906F0EBF806F0E7
:10585000EBFA82B216123868D8F80030227393FB44
:10586000F0F30B490B48A3731A12E672627301F04E
:105870009DF8D5F8AC30FBE601229023A272E372CA
:105880002AE70E4BD3E70D4B98E700BF2C93FF1F81
:10589000A094FF1F4CC1FF1F4492FF1F000048430C
:1058A000F4E50618000020414887FF1F6487FF1FAA
:1058B0004087FF1F5C87FF1F3087FF1F4487FF1F44
:1058C0002DE9F04790B001E0FFF770FCAC4800F024
:1058D0002FFF0028F8D103F0D5FA002801DDFDF7ED
:1058E0009FFFA84EA84D3368012B13D0FDF792FC03
:1058F000D5F89C40012C00F06B81A44F3B78052B20
:1059000000F2A880DFE813F0CC00A8001801F00036
:10591000350194009E4C23689E4A0793079B1168AB
:105920009B4F5B1AB3F5FA7F30D823680C930C9B1E
:10593000994A23680B930B9B1068D5F8B010944ECE
:10594000914D1B1A8B420DD933680D93D5F89C30BD
:105950000D991160012B00F0B4818C4B1B78032B47
:1059600000F0AF8123688D4A0E938D490E9B10681D
:105970000968874C1B1A8B4205D923680F930F9B2C
:105980001360FDF7EFFE10B0BDE8F0873B680893A9
:10599000089B84481360FBF757FED5F89C30DFF86E
:1059A000E8818048012B00F09C81FBF711FFD8F8BB
:1059B000101006F0D5F9002800F0638123687A4AB8
:1059C0000993099B12689A4202D9704B05221A70FA
:1059D000764B1B68002B40F07E81754B1B68002BBB
:1059E00040F07581734B1B68002B40F06D8133686C
:1059F000002B00F06381FFF7E1FD6F4EFDF71CFA0D
:105A0000FFF76CFCFDF7A0FD33686648002B40F003
:105A10004B81FBF7B9FD3060FCF730FC72B6674B89
:105A20004AF202614BF2804219801A8062B67CE72A
:105A3000634B002212201A6002F064F9012808BFAB
:105A400003234FF0110008BF3B7002F05BF9002800
:105A500000F079814E4C3EE0594B52484A4C0022AE
:105A60001A60FBF7DBFEA96C06F098F9002840F0FD
:105A70005581544B00221A60122002F043F901288C
:105A800000F02282112002F03DF90128404C22D181
:105A900022684D4B0692069A1A6004233B701AE066
:105AA000474B3B4C4FF0000841461520C3F800809F
:105AB00002F022F94146142002F01EF941460C2062
:105AC00002F01AF941460B2002F016F93F4A012371
:105AD000C2F800803B70EB6F23F00203012B7FF4D0
