:1000000000800020BD0100002D7A0000E57900008D
:10001000E5790000E5790000E5790000E579000068
:10002000E5790000E5790000E57900002D7A00000F
:100030002D7A0000E5790000399300003D9400001E
:100040002D7A00002D7A00002D7A00002D7A000014
:100050002D7A00002D7A00002D7A00002D7A000004
:100060002D7A00002D7A00002D7A00002D7A0000F4
:100070002D7A00002D7A00002D7A00002D7A0000E4
:100080002D7A00002D7A00002D7A00002D7A0000D4
:100090002D7A00002D7A00002D7A00002D7A0000C4
:1000A0002D7A00002D7A00002D7A00002D7A0000B4
:1000B0002D7A0000016E00000D6E0000116E000030
:1000C0001D6E0000216E0000256E00002D7A0000DC
:1000D0002D7A00002D7A00002D7A00002D7A000084
:1000E0002D7A00002D7A00002D7A00002D7A000074
:1000F0002D7A0000FD9900002D7A0000A1800000FB
:100100002D7A0000B98300002D7A00002D7A0000BE
:100110002D7A00002D7A00002D7A00002D7A000043
:100120002D7A00002D7A00002D7A00002D7A000033
:100130002D7A00002D7A00002D7A00002D7A000023
:100140002D7A00002D7A00002D7A00002D7A000013
:100150002D7A00002D7A00002D7A00002D7A000003
:100160002D7A0000058600002D7A00002D7A00000F
:100170002D7A00002D7A00002D7A00002D7A0000E3
:100180002D7A00002D7A00002D7A00002D7A0000D3
:100190002D7A00002D7A00002D7A00002D7A0000C3
:1001A0002D7A00002D7A00002D7A00002D7A0000B3
:1001B0002D7A00002D7A00002D7A0000564B4CF26B
:1001C000205210B51A804DF628121A8000BF00BFC9
:1001D00007F030FC514B4FF010621A60504A9A60A1
:1001E000504ADA60504A136813F4807304D14F49BF
:1001F0000B604FF4A85313604D4B1A78110703D5C9
:100200001A7842F008021A704A4B4B492A221A7097
:100210004A4A4B4B8B4204D252F8040F43F8040B6A
:10022000F8E7484B484900228B4202D243F8042B9E
:10023000FAE74649464A002352F8230041F82300D2
:1002400001336F2BF8D1434B434A802103F8011B44
:100250009342FBD1414B3D4A1A60414B8A221A70AE
:10026000A3F5805324225A70A0221A709A7992071B
:10027000FCD59A79D406FCD43A4A937903F00C035E
:10028000082B384BF9D103221A7140225A719A79FE
:100290009006FCD5334A9179324B4906FBD5324A58
:1002A000324911600221516020221A709A7902F0BD
:1002B0000C020C2AFAD12E4B2E4A1A602E4B2F4AD2
:1002C0001A6000225A60072243F8042C2C4AC3F813
:1002D0000C2D62B607F064FE144B1B68DA0705D5D7
:1002E000284807F041FC284B284A1A60284B1B7805
:1002F0005B0609D5244C254B22689A4204D121483B
:1003000007F032FC002323600BF07CFE07F098FB23
:1003100009F034FAFEE700BF0E20054030800440AB
:10032000823F04000100002B10D0034014D0034092
:1003300002D0074000E007402092FF1FAC1A0100E6
:100340002087FF1F2092FF1FECC5FF1F0082FF1FA9
:100350000000000000E400E05FE400E008ED00E0E1
:100360000050064000400640448004400000030165
:1003700004800440C010050014E000E0FF76010096
:100380000000202065B84D5C1CE00340A5C3945AD2
:1003900000F00740FFFFFFFFFFFFFFFFFFFFFFFF32
:1003A000FFFFFFFFFFFFFFFFFFFFFFFFFFFFFFFF5D
:1003B000FFFFFFFFFFFFFFFFFFFFFFFFFFFFFFFF4D
:1003C000FFFFFFFFFFFFFFFFFFFFFFFFFFFFFFFF3D
:1003D000FFFFFFFFFFFFFFFFFFFFFFFFFFFFFFFF2D
:1003E000FFFFFFFFFFFFFFFFFFFFFFFFFFFFFFFF1D
:1003F000FFFFFFFFFFFFFFFFFFFFFFFFFFFFFFFF0D
:10040000FFFFFFFFFFFFFFFFFFFFFFFFDEF9FFFF23
:1004100010B5054C237833B9044B13B10448AFF33E
:1004200000800123237010BD2092FF1F00000000F8
:10043000A81A0100084B10B51BB108490848AFF3D2
:1004400000800848036803B910BD074B002BFBD0A0
:10045000BDE81040184700BF000000002492FF1FB5
:10046000A81A01002092FF1F00000000F0B400F164
:100470001C06134F00243146031F00F13C0243F8D1
:10048000044FB34241F8047F4FF0000542F8044F97
:10049000F5D10C4A0C490566002345668566C5669C
:1004A000056745678567C0F88850C267C0F8842033
:1004B000C0F8801080F8903080F8A830F0BC704709
:1004C0000000A040000048430000C8C22DE9F041F0
:1004D00090F8A84084B0202364008DF80530E4B281
:1004E000042380468DF804408DF80630032720460B
:1004F00007F0FEFE02210DF1050007F003FF8DF865
:10050000044005F0F7FD30B30921404808F0AEFD86
:100510000023102221463E4808F0AAFF01213D4851
:1005200008F0A4FD002310229DF80510384808F0BB
:100530009FFF0121374808F099FD002310229DF804
:100540000610334808F094FF0121324808F08EFD70
:100550002F4808F07DFF02208DF8044007F0D2FC00
:1005600005F0C8FD00284CD102AE002407F0E0FEE3
:1005700070B3072C1FD101E007F0EAFE07F0D8FEA8
:100580000028F9D105F0B6FD10B1214808F060FF50
:100590009DF80B009DF80C109DF80D209DF80E3075
:1005A000C8F89400C8F89810C8F89C20C8F8A03083
:1005B00004B0BDE8F08107F0CBFE054606F8010B5C
:1005C00005F098FD70B9013407F0B2FE0028D0D1D3
:1005D000072CD3D005F08EFD78B9013FD8D09DF817
:1005E000044084E7E9B200231022094808F040FFE4
:1005F0000121084808F03AFDE5E7054808F028FF22
:10060000EBE70721044808F031FDADE79801010050
:10061000C487FF1F9C080100A401010090F8980006
:10062000704700BF90F89400704700BF90F89C009E
:10063000704700BF90F8A000704700BF082994BF22
:1006400050F82100002070472DE9F0410B4E804604
:10065000041F00F11C0754F8045F314628460BF0D4
:1006600047FC30B1D8F88C1028460BF05FFC00B185
:100670002E46BC42EFD13046BDE8F081000020415B
:100680002DE9F041D0F88C704FF00008041F00F104
:100690001C0654F8045F394628460BF047FC08490D
:1006A00048B128460BF024FC414620B128460BF007
:1006B0003DFC00B1A846B442EBD14046BDE8F08114
:1006C000000070422DE9F047D0F88C7082464FF060
:1006D0000009041F00F11C064FF0000854F8045FE5
:1006E000394628460BF022FC0C4950B128460BF045
:1006F000FFFB30B1484629460BF054F908F10108D8
:100700008146B442EAD1CAF8AC8040460BF0FEF90B
:10071000014648460BF002FBBDE8F087000070423E
:10072000D0F8AC00704700BF38B5846E456E2146E6
:1007300028460BF0DDFB00B92C46204638BD00BF33
:10074000D0F8A4302DE9F041002B79D1866E456EAA
:100750000446314628460BF025F9E76E39468046B7
:100760000BF020F97E490BF0D9FA4FF07C5104468A
:100770000BF0DCFB002861D04FF07C5128460BF0D9
:10078000D5FB4FF07C51002860D128460BF0B0FB20
:1007900038B14FF07C5130460BF0C8FB002840F0D8
:1007A000A7804FF07C5128460BF0C0FB002860D199
:1007B0004FF07C5128460BF0B9FB002840F0A18097
:1007C0004FF07C5128460BF0B1FB00286CD14FF064
:1007D0007C5128460BF08CFB4FF07C5110B3304617
:1007E0000BF0A4FB38B14FF07C5138460BF080FB86
:1007F000002840F0B0804FF07C5130460BF078FB81
:10080000002861D04FF07C5138460BF08FFB002858
:1008100040F0A38038464FF07C510BF069FB68B183
:10082000504C10E028460BF063FB0028E3D128462B
:100830004FF07C510BF05CFB002845D1BDE8F08106
:1008400000EB8300046E2046BDE8F08130460BF0DB
:100850006DFB4FF07C5100283ED038460BF066FB14
:100860000028F0D14FF07C5128460BF041FB0028C6
:1008700059D14FF07C5130460BF03AFB002840D064
:100880004FF07C5138460BF051FB002841D14FF01E
:100890007C5130460BF04AFB68B14FF07C51384632
:1008A0000BF026FB00284FD14FF07C5130460BF067
:1008B0001FFB00288BD04FF07C5138460BF018FB03
:1008C000002884D02C46BEE730464FF07C510BF018
:1008D0000FFB0028B2D09DE728460BF009FB00284B
:1008E000C7D04FF07C5130460BF020FB0028C0D021
:1008F0004FF07C5138460BF019FB00283FF451AF04
:1009000018E04FF07C5130460BF010FB0028CBD0A4
:10091000C3E7394628460BF045F84FF07C510BF001
:1009200049F904468FE74FF07C5138460BF0FEFA48
:1009300000289ED0394630460BF034F84FF07C51F9
:100940000BF038F904467EE740464FF07C510BF03F
:1009500031F9044677E7344675E73C4673E700BF54
:10096000000040400000A0C270B50446FFF7E8FE5A
:100970004FF07C510BF0DAFA28B3666E4FF07C51E1
:1009800030460BF0D3FAA56EF0B9E46E4FF07C510F
:1009900028460BF0CBFA58B1294630460BF0C6FA80
:1009A00030B1214628460BF0A3FA08B12C4620E0CE
:1009B0004FF07C5120460BF0B9FA20B12846214671
:1009C0000BF0B4FA78B970BD304629460BF090FAB6
:1009D000E46E0028DAD0304621460BF089FA002870
:1009E000D4D0344605E0304621460BF09FFA00286B
:1009F000E9D0204670BD00BF01392DE9F84380469B
:100A00001546032900F2E280DFE801F0AE855C02C2
:100A1000537B107B03EB00200BF078F86D490BF053
:100A2000C9F8C8F81800EB7BA87B03EB00200BF09B
:100A30006DF868490BF0BEF8D8F86860D8F86470B3
:100A4000D8F80040C8F81C004046FFF78DFFD8F8E2
:100A50007C1005460BF04CFA08B1C8F87C503946BA
:100A600030460BF063FA002840F0A7803946D8F8EA
:100A700080000BF03DFA10B13E46C8F8806008F1E6
:100A80002006C14608F14005002701E059F8044F4F
:100A9000306821460BF04AFA0137214628B1D8F8D0
:100AA0008C000BF02FFA00B13460214628680BF05F
:100AB0001FFA043600B12C60082F05F10405E5D1BA
:100AC000BDE8F883507A32380BF020F8C8F874008B
:100AD000A87A32380BF01AF8C8F878006B7B287BBC
:100AE00003EB00200BF012F83A490BF063F8C8F85A
:100AF0001000EB7BA87B03EB00200BF007F83549D7
:100B00000BF058F8D8F86860C8F81400D8F864708A
:100B1000D8F8004098E7507A32380AF0F7FFC8F862
:100B20006C00A87A32380AF0F1FFC8F870006B7BCD
:100B3000287B03EB00200AF0E9FF26490BF03AF886
:100B4000C8F80800EB7BA87B03EB00200AF0DEFF6F
:100B500020490BF02FF8D8F86860C8F80C00D8F8D6
:100B60006470D8F800406FE7137AC0F8B030907A1C
:100B700032380AF0CBFFC8F864000746E87A32380A
:100B80000AF0C4FFC8F868006B7B0646287B03EBBD
:100B900000200AF0BBFF0F490BF00CF8C8F800006A
:100BA000EB7B0446A87B03EB00200AF0AFFF09496A
:100BB0000BF000F8C8F8040046E7D8F8801030467B
:100BC0000BF0B4F900287FF458AF58E7866E476EF3
:100BD000046839E70AD7233C2DE9F04F90F8A83094
:100BE00091B007465B008DF80830FFF76FFCD7F82F
:100BF0009C00D7F8A040D7F89830D7F8942097F801
:100C0000A8108DE81100C94805F07AFB30223D2379
:100C100003268DF809208DF80A300DF10A059DF89C
:100C2000089049F00108404607F062FB0DF1090009
:100C3000022107F067FB8DF80880424602AB0020D6
:100C40005040082410F0800F4FEA400018BF80F099
:100C50000700013CC0B2F5D19D4202D013F8012F2C
:100C6000EEE707F045FB05F045FA002840F07C82EE
:100C700002208DF8089007F045F905F03BFA0028AE
:100C800040F0B8820DF10C0AD146002407F050FB69
:100C9000002843D0032C34D101E007F059FB07F0C2
:100CA00047FB0028F9D105F025FA10B1A04808F05B
:100CB000CFFB312303268DF809308DF80A609DF8AB
:100CC000089049F00108404607F012FB0DF10900B9
:100CD000022107F017FB8DF80880424602AB002086
:100CE0005040082410F0800F4FEA400018BF80F0F9
:100CF0000700013CC0B2F5D19D4228D013F8012F66
:100D0000EEE707F025FB09F8010B804605F0F2F944
:100D100068B9013407F00CFB0028BBD1032CBED00E
:100D200005F0E8F978B9013E7FF479AFC1E75FFAE1
:100D300088F1002310227E4808F09AFB01217D48AB
:100D400008F094F9E5E77A4808F082FBEBE707F052
:100D5000CFFA05F0CFF9002840F0C58102208DF8C8
:100D6000089007F0CFF805F0C5F9002840F03D8263
:100D70000DF10C09002407F0DBFA002844D0032C05
:100D800035D101E007F0E4FA07F0D2FA0028F9D1F2
:100D900005F0B0F910B1664808F05AFB342201237F
:100DA0008DF809208DF80A3003269DF8089049F047
:100DB0000108404607F09CFA0DF10900022107F0F6
:100DC000A1FA8DF80880424602AB0020504008246A
:100DD00010F0800F4FEA400018BF80F00700013C80
:100DE000C0B2F5D19D4228D013F8012FEEE707F0ED
:100DF000AFFA09F8010B804605F07CF968B90134B7
:100E000007F096FA0028BAD1032CBDD005F072F98C
:100E100078B9013E7FF453AFC0E75FFA88F1002351
:100E20001022434808F024FB0121424808F01EF933
:100E3000E5E73F4808F00CFBEBE707F059FA05F04F
:100E400059F9002840F00E8102208DF8089007F033
:100E500059F805F04FF9002840F0D6810DF10C0942
:100E6000002407F065FA002800F08480032C72D17A
:100E700001E007F06DFA07F05BFA0028F9D105F000
:100E800039F910B12A4808F0E3FA012212238DF84B
:100E900009208DF80A304FF003089DF808402046DD
:100EA00007F026FA02210DF1090007F02BFA8DF860
:100EB000084005F01FF930B309211F4808F0D6F8A3
:100EC0000023102221461A4808F0D2FA01211948BD
:100ED00008F0CCF8002310229DF80910144808F0FF
:100EE000C7FA0121134808F0C1F8002310229DF829
:100EF0000A100F4808F0BCFA01210E4808F0B6F8B5
:100F00000B4808F0A5FA06208DF8084006F0FAFF15
:100F100005F0F0F8002840F0728103AD002607F0DC
:100F200007FA00283FD0162E2FD109E0AC010100AE
:100F3000C487FF1F9C0801009801010007F008FA10
:100F400007F0F6F90028F9D105F0D4F816260028A4
:100F50007DD1152035E007F0FBF909F8010B80463B
:100F600005F0C8F800285BD1013407F0E1F900284A
:100F70007FF47CAF032C3FF47EAF05F0BBF8002874
:100F80006CD1013E7FF411AF7FE707F0E1F905F87E
:100F9000010B044605F0AEF800284DD1013607F0EC
:100FA000C7F90028BFD1162ECAD005F0A3F8002833
:100FB0004DD1B8F101087FF470AF701E002840F3E6
:100FC0002482002303AA1C4612F8011B08254C406A
:100FD00014F0800F4FEA440418BF84F00704013D69
:100FE000E4B2F5D101338342EEDB9DF821808948DC
:100FF0004146224605F084F9162EC146A34602D189
:10100000A04500F0138197F8A8108348CDF800B0F0
:101010004B46324605F0A2F9002011B0BDE8F08F32
:101020005FFA88F1002310227C4808F021FA0121A0
:101030007B4808F01BF897E7E1B2002310227748BD
:1010400008F016FA0121764808F010F8A6E7734870
:1010500008F0FEF9162EACD11520B2E76F4808F063
:10106000F7F98EE709216F4808F000F823461022AF
:1010700041466A4808F0FCF90121694807F0F6FF8B
:10108000234610229DF80910644808F0F1F9012167
:10109000634807F0EBFF102223469DF80A105F48D3
:1010A00008F0E6F901215E4807F0E0FF21460DF166
:1010B0000B0002AA12F8014B6140C9B2082311F0DB
:1010C000800F4FEA410118BF81F00701013BC9B20F
:1010D000F5D19042EED11022504808F0C9F94F489E
:1010E00008F0B6F9B0E609214E4807F0BFFF2346E5
:1010F00010224146494808F0BBF90121484807F051
:10110000B5FF234610229DF80910444808F0B0F9B5
:101110000121434807F0AAFF102223469DF80A1038
:101120003E4808F0A5F901213D4807F09FFF214600
:101130000DF10B0002AA12F8014B6140C9B208235D
:1011400011F0800F4FEA410118BF81F00701013B08
:10115000C9B2F5D19042EED11022304808F088F99A
:101160002E4808F075F9F9E509212E4807F07EFFB1
:10117000234610224146294808F07AF901212848DF
:1011800007F074FF234610229DF80910234808F049
:101190006FF90121224807F069FF102223469DF8CC
:1011A0000A101E4808F064F901211D4807F05EFF8F
:1011B00021460DF10B0002AA12F8014B6140C9B2A1
:1011C000082311F0800F4FEA410118BF81F0070199
:1011D000013BC9B2F5D19042EED110220F4808F080
:1011E00047F90E4808F034F942E507210E4807F0A8
:1011F0003DFFBDE507210C4807F038FF42E5072118
:10120000094807F033FF88E60721074807F02EFF5B
:1012100024E600BFE00101002C020100C487FF1F8B
:101220009C08010098010100A40101009DF80C3008
:1012300097F8A820B3EB420F7FF4EEAE9DF80D3087
:10124000012B7FF4E9AE9DF80E30122B7FF4E4AE53
:101250009DF810309DF80F0003EB00200AF056FCBB
:1012600072490AF0A7FCD7F88810386604460AF0DD
:101270005DFE08B1C7F88840D7F8841020460AF010
:1012800037FE08B1C7F88440A7F1040907F120062A
:1012900007F140054FF008089AF806309AF8050063
:1012A00003EB00200AF032FC61490AF083FC49F8A4
:1012B000040F316804460AF01BFE0AF1020A30B13D
:1012C000D7F88C1020460AF027FE00B13460296858
:1012D00020460AF02BFE043600B12C60B8F101085C
:1012E00005F10405D8D19DF81E309DF81D0003EBD3
:1012F000002002300AF00AFC4E490AF00FFD0146B8
:101300004D480AF00BFD4D490AF04AFB4C490AF0E2
:1013100051FC054608F0BCFC0446284608F0B8FC21
:10132000484908F027FD4849054620460AF042FC96
:1013300046490AF037FB4649044628460AF03AFC7B
:10134000014620460AF02EFB01464FF07E500AF07F
:10135000E5FC40490AF024FB9DF81F209DF8203051
:10136000786603EB022009300AF0D0FB3A490AF014
:10137000D5FC014630480AF0D1FC30490AF010FB98
:101380002F490AF017FC054608F082FC044628465F
:1013900008F07EFC2B4908F0EDFC2B490546204661
:1013A0000AF008FC29490AF0FDFA294904462846B2
:1013B0000AF000FC014620460AF0F4FA01464FF01C
:1013C0007E500AF0ABFC23490AF0EAFAB8660446FC
:1013D0003846FFF7C9FAF96F05460AF089FD00B1F2
:1013E000FD677D6E204629460AF0A0FDB0B929466A
:1013F000D7F880000AF07CFD10B12C46C7F8804079
:10140000164804F07DFF012007E69DF8219014485E
:1014100049464246C34604F073FFF4E5D7F880100E
:1014200020460AF083FD0028E8D1E9E71357053B81
:101430002003C839001601470AD7E33FE17A644028
:1014400000007A4400004040A40D8F395A80473A8A
:1014500046A6DB3333938843002C01470402010086
:10146000E00101002DE9F8430026D0F88C800666E3
:101470008146044600F1200754F8045B41462846A3
:101480000AF054FD084950B128460AF031FD30B148
:10149000304629460AF086FA0646C9F86000BC4282
:1014A000EAD13046BDE8F8830000704205299ABFB2
:1014B00000EB8100406E0020704700BF3E2998BFBE
:1014C00080F8A810704700BF90F89000704700BFE8
:1014D000C0F8A410704700BF80F89010704700BF9C
:1014E00030B50F4CC0F88C1083B020460D4607F085
:1014F000AFFF204607F0ACFF284609F0B1FE0225F9
:1015000002460B460095204607F0FAFF204607F0FA
:101510009FFF204603B0BDE8304007F099BF00BFF1
:10152000C487FF1F70B500F5315506462C3500F114
:1015300020042046B434FEF799FFAC42F9D106F1FD
:10154000D405012428460021FFF7C6FF214628467E
:101550000134FFF7B3FF3F2C05F1B405F2D142F699
:10156000744400250548064A064B35550021306174
:101570007161B261F361304670BD00BF00007A4412
:10158000000048430000C8C22DE9F04142F678430C
:1015900000F53156374600228046C2502C36383787
:1015A00000F1D40402E0B434B4420DD02046FFF779
:1015B0008BFF0028F7D020463D68FFF7B1F8B43420
:1015C0002844B4423860F1D142F6784358F8030019
:1015D000BDE8F081F8B50E46096801F47F65002981
:1015E0000446A5F5C06511DB2D0901F00F07B423F2
:1015F00003FB0544203420460121FFF76DFF3246EE
:1016000039462046BDE8F840FFF7F6B90A4801F030
:101610000F0707F01DFF1221084807F027FD31686A
:10162000054801F0004100230A2207F021FF02488B
:101630002D0907F00DFFDAE7C487FF1F7C020100C8
:10164000704700BF704700BF2DE9F04304460023F8
:1016500083B0064644F8D43B012504E001353F2D14
:1016600004F1B40469D02046FFF72EFF0028F5D01E
:10167000504804F045FE29464F4804F041FE2046FC
:10168000FFF7AAFA2046FFF7EDFE09F0E9FD024652
:101690000B464A4804F034FE2046FEF7D5FF80464C
:1016A0002046FEF7EDFF0746404609F0D9FD80468B
:1016B0003846894609F0D4FD42464B46CDE9000143
:1016C0003F4804F01DFE00212046FFF7EFFE0121F8
:1016D00080462046FFF7EAFE0746404609F0C0FD77
:1016E00080463846894609F0BBFD42464B46CDE967
:1016F0000001344804F004FE2046FFF7B3FE014623
:1017000030680AF04FF930602046FFF72DF9B169D3
:101710000AF0EEFB002833D12046FFF705F8F16907
:101720000AF004FC002899D02046FEF7FDFF0135A1
:101730003F2DF06104F1B40495D170680AF0E6F928
:10174000014630680AF0EAFA7169306004460AF02E
:10175000EDFB00B17461316920460AF0C9FB00B1AC
:1017600034610B2006F098FB42F67443F35C60B9D9
:101770009BB142F674430122F25403B0BDE8F083FA
:101780002046FFF7F1F8B061C6E753B942F674435B
:101790000022F25403B0BDE8F0830B4804F0DEFDF4
:1017A000E7E70A4804F0C4FD42F674430022F2540D
:1017B000F0E700BF7804010090020100CC020100B4
:1017C000E00201000C030100280301006003010096
:1017D00070B5114B836000F5315506462C3500F18C
:1017E000D40402E0B434AC4213D02046FFF76CFEC0
:1017F0000028F7D02046FEF727FFB1680AF078FBF3
:101800000028EFD02046FEF71FFFB434AC42B06092
:10181000EBD1B06870BD00BF0000A04070B50023E0
:1018200000F531550646C3602C3500F1D40402E0C2
:10183000B434AC4213D02046FFF746FE0028F7D060
:101840002046FEF71DFFF1680AF070FB0028EFD07C
:101850002046FEF715FFB434AC42F060EBD1F068DF
:1018600070BD00BF0068704741607047F8B500F573
:1018700031550F4616462C3500F1D40402E0B4343D
:10188000AC420FD02046FFF71FFE0028F7D02046BD
:101890003946FFF71DFE20463146B434FFF720FEDF
:1018A000AC42EFD1F8BD00BF2DE9F84300F531554A
:1018B00042F670432E4600278146C7504FF000087D
:1018C0002C35303600F1D40402E0B434AC4213D0ED
:1018D0002046FFF7F9FD0028F7D033680133336065
:1018E0002046FEF72DFF0F490AF020FB88B9B434DB
:1018F000AC4207F10107EBD142F6704359F80300FF
:10190000C01B0AF003F9014640460AF007FABDE899
:10191000F8832046FEF714FF014640460AF042F8DD
:101920008046D2E700008CC2F8B500F53155074675
:1019300000262C3500F1D40402E0B434AC420FD0C0
:101940002046FFF7C1FD0028F7D02046FEF7BAFE7B
:10195000014630460AF026F8B434AC420646EFD1D0
:1019600042F67043F8580AF0D1F8014630460AF0C2
:10197000D5F9F8BD2DE9F04F06468FB09B488B4650
:1019800004F066FC994804F063FC984804F060FC9D
:1019900042F670433046F2580D92FFF7F5FD73683A
:1019A0000C930746306809F05BFC80463046894658
:1019B000FFF7BAFF82463046B468F568FFF774FF58
:1019C00009F04EFCCDE90A012146284609F0E8FF5E
:1019D00087490AF0EFF809F043FCCDE908012846F1
:1019E00009F03EFCCDE90601204609F039FCCDE9BD
:1019F0000401504609F034FC0D9A0C9BCDE902011C
:101A0000CDE9008911467B483A4604F021FC77482D
:101A100004F01EFCD4364FF001084FF0000A07E036
:101A200008F10108B8F13F0F06F1B40600F0D580C7
:101A30003046FFF749FD0028F2D03046FEF7EEFDB4
:101A40003046FEF7EFFD3046FEF7F0FD3046FEF77C
:101A5000F1FD0821684807F009FB4146674807F097
:101A600047FDB8F1090F40F3BB800221644807F03D
:101A7000FDFA3046FFF7F6FC09F0F2FB5FFA8BF94E
:101A800002460B46CDF800905C4807F039FD012175
:101A90005C4807F0EBFA5546002420E006215A483E
:101AA00007F0E4FA2946554807F022FD022157487D
:101AB00007F0DCFA21463046FEF7C0FD09F0D0FB06
:101AC000CDF8009002460B464C4807F019FD013452
:101AD00001214C4807F0CAFA082C09D03D46092DCF
:101AE00005F10107DADC0121494807F0BFFAD5E723
:101AF000424807F0ADFC0921464807F0B7FA00213B
:101B00003046FFF7D3FC09F0ABFB022402460B463C
:101B100000943A4807F0F4FC0A213F4807F0A6FA7F
:101B200001213046FFF7C2FC09F09AFB00940246FF
:101B30000B46324807F0E4FC0A21384807F096FAD1
:101B400021463046FFF7B2FC09F08AFB00940246BA
:101B50000B462A4807F0D4FC0A21314807F086FAE0
:101B600003213046FFF7A2FC09F07AFB00940246FD
:101B70000B46224807F0C4FC0A212A4807F076FAEF
:101B800004213046FFF792FC09F06AFB00940246FC
:101B90000B461A4807F0B4FC0A21234807F066FAFE
:101BA00005213046FFF782FC09F05AFB00940246FB
:101BB0000B46124807F0A4FC01211C4807F056FA16
:101BC00008F101080D4807F043FCB8F13F0F0AF196
:101BD000080A06F1B4067FF42BAF0FB0BDE8F08F12
:101BE00001210B4807F042FA3FE700BF78040100EB
:101BF00000007A4410060100B0060100C487FF1FF0
:101C000054140100BC060100C00601008C0801004C
:101C10009C080100C8060100D4060100E00601008E
:101C2000EC060100F806010004070100100701009E
:101C30002DE9F04100F1D40582B0012705E001371C
:101C40003F2F05F1B40500F08B802846FFF73CFCE0
:101C50000028F4D03946444807F04AFC01214348A3
:101C600007F004FA00244FF0020821462846FEF748
:101C7000E5FC09F0F5FACDF8008002460B463A483B
:101C800007F03EFC01340121384807F0EFF9082C39
:101C90004FF00206E9D100212846FFF707FC09F0C2
:101CA000DFFA009602460B462F4807F029FC012177
:101CB0002E4807F0DBF901212846FFF7F7FB09F072
:101CC000CFFA009602460B46274807F019FC01217F
:101CD000264807F0CBF931462846FFF7E7FB09F025
:101CE000BFFA009602460B461F4807F009FC012187
:101CF0001E4807F0BBF903212846FFF7D7FB09F080
:101D0000AFFA009602460B46174807F0F9FB01218F
:101D1000164807F0ABF904212846FFF7C7FB09F086
:101D20009FFA009602460B460F4807F0E9FB012197
:101D30000E4807F09BF905212846FFF7B7FB09F08D
:101D40008FFA009602460B46074807F0D9FB013789
:101D5000054807F07DFB3F2F05F1B4057FF475AF13
:101D600002B0BDE8F08100BFC487FF1F1407010067
:101D7000F8B53948394F3A4D3A4E3B4C04F068FAC1
:101D80003A4B3B4A3B495A6010203B4A1870DF608F
:101D90003A48196100273A495D615E62394D9C619C
:101DA0004FF07C56384C9A62D862384A1F630C2038
:101DB000374F59639D6340F61C410A255E649C645D
:101DC00041F204065A24DA641865022201201F62D7
:101DD0009966304FDD66002164251E675C674FF40D
:101DE000967632245A705A7218725865DF61DF6332
:101DF00083F840105E66DE651C664FF47A7E9D6552
:101E0000254F9967254EDA67C3F88010C3F89440D0
:101E1000C3F8A040C3F89C10FF2441F28831C3F8F6
:101E2000A800C3F8AC20052040F2D662C3F8B05039
:101E3000C3F898E0C3F88870C3F88C60C3F8A44076
:101E4000A3F8B600C3F89010A3F8B410A3F8842048
:101E5000A3F88620F8BD00BF18070100666686401B
:101E600033338340CDCCCC3DCDCC4C402093FF1FB1
:101E700020A107000000404000008242000020C175
:101E8000000020420000A0409A9979400AD7233DE3
:101E900033337340CDCC4C3E0000684200C0204438
:101EA000F0B54FF47A6085B006F02CF800210F20D1
:101EB00006F000F800210E2005F0FCFF00211120A3
:101EC00005F0F8FF0021102005F0F4FF002112209A
:101ED00005F0F0FF0021132005F0ECFF01210B209D
:101EE00005F0E8FF01210C2005F0E4FF012114209A
:101EF00005F0E0FF0121152005F0DCFF012116208F
:101F000005F0D8FF0121172005F0D4FF012105209D
:101F100005F0D0FF8E4C8F4D0121062005F0CAFF41
:101F200001210D2005F0C6FF208809F0EBFD0146D8
:101F3000162005F029FF208809F0E4FD014617204E
:101F400005F022FF208809F0DDFD0146052005F09F
:101F50001BFF208809F0D6FD00240146062005F06D
:101F600013FF009423467C4A7C497D4804F0F0FB33
:101F7000E6B2324677497A4804F098FB2B797549E6
:101F800077486FF30003013432462B7104F084FB71
:101F9000082CEDD10924E6B232466E49704804F0AF
:101FA00085FB2B796B496E4843F0010301343246BF
:101FB0002B7104F071FB0D2CEDD16A4C4FF0FF3208
:101FC0002068102104F090FF20684FF0FF321021AC
:101FD00004F062FF20684FF0FF32022104F070FF2E
:101FE00020684FF0FF32022104F074FF00220F211D
:101FF000206804F083FF0C215B4807F037F85B484A
:1020000007F026FA14215A4807F030F8574807F02D
:102010001FFA564807F01CFA1721564807F026F811
:10202000524807F015FA544B1B789A0600F1BE800F
:10203000514B1B781B0700F1C5804F4B1B785F0786
:1020400000F1CC804C4B1B789E0700F1D3804B4BAA
:102050001B781D0600F1DA80484B1B785C0600F106
:10206000E180464B1B78980600F1E880434B1B78D3
:10207000590700F1EF80414B1B781A0700F1F680F9
:102080003E4B1B789B0700F1FD80384807F0E0F9D4
:1020900072B63B4A4CF220534DF62811202413808F
:1020A00023461180013BFDD1364D37483749002387
:1020B0004FF480562E8003800B8032F80E3C9BB28A
:1020C00043F0D30322F80E3C62B69D2006F0C0F820
:1020D00021462F482F4D06F0C9FF244807F0B8F9D4
:1020E00005F1B8062F462C46601B05F0E9FB04F805
:1020F000010BB442F8D13B78102B01D0FFF738FE2A
:102100002548FFF79FFA042003F0EEFF234B2248F7
:1021100000221A60FFF794FA01210D2005F0B6FEA7
:10212000796D1D48FFF7A0FB7A6C97F840101A48AC
:10213000FFF79CFB1A4B1B491A68039203981B6814
:102140000293029A184B08601A6005B0F0BD00BFF8
:102150002487FF1FE093FF1FE8C2FF1F20A1070095
:102160004CC1FF1F8C94FF1F38070100C487FF1F5D
:10217000480701006007010001F0074000F0074038
:102180000E2005400420054006200540162005408D
:10219000640801002093FF1FC094FF1F4C92FF1F93
:1021A000F4C2FF1FBC94FF1FE893FF1F2121394891
:1021B00006F05CFF384807F04BF9384B1B781B07DB
:1021C0007FF53BAF0C21364806F050FF324807F050
:1021D0003FF9324B1B785F077FF534AF0E21314852
:1021E00006F044FF2C4807F033F92C4B1B789E0770
:1021F0007FF52DAF17212C4806F038FF264807F051
:1022000027F92A4B1B781D067FF526AF0E2128489B
:1022100006F02CFF204807F01BF9244B1B785C06C6
:102220007FF51FAF1221234806F020FF1A4807F060
:102230000FF91E4B1B7898067FF518AF13211E4827
:1022400006F014FF144807F003F9184B1B785907E0
:102250007FF511AF1C21194806F008FF0E4807F062
:10226000F7F8124B1B781A077FF50AAF19211448AB
:1022700006F0FCFE084807F0EBF80C4B1B789B07B8
:102280007FF503AF18210F4806F0F0FE024807F073
:10229000DFF8FAE678070100C487FF1F01F0074066
:1022A0009C070100AC070100BC07010000F00740DB
:1022B000D4070100E4070100F80701000C08010041
:1022C0002C0801004808010070B5464C464D4748AF
:1022D000E66800232B70FFF7A1FA0146304609F0AB
:1022E00007FE08B104232B704048FFF771FA2169FB
:1022F00009F0FEFD18B12B7843F010032B703B481A
:10230000FFF7D2FAA16A09F011FE18B12B7843F059
:1023100040032B70002335486B70FFF7C5FAE16A64
:10232000314E09F0E5FD08B10123737000232F48F9
:10233000EB70FFF773FA05462C482B4EFFF748FA6F
:102340000146284609F02CFBE16B09F0EFFD08B1CE
:102350000123F370264D254800232B70FFF75EFA0A
:10236000616A0646E06809F01BFB0146304609F049
:10237000DDFD08B104232B701C48FFF729FA616AC0
:102380000646206909F00EFB0146304609F0B0FD13
:1023900018B12B7843F010032B701448FFF784FA20
:1023A000A16B0646A06A09F0FBFA0146304609F027
:1023B000BDFD18B12B7843F040032B7000230B4870
:1023C0006B70FFF771FAA16B0546E06A084C09F0E3
:1023D000E9FA0146284609F08BFD08B10123637034
:1023E00070BD00BF2093FF1F1C93FF1FC094FF1FF1
:1023F0007C94FF1F2DE9F0417C4C2368012B82B0B7
:1024000031D0022B00F0A880032B00F0C8803BBB2A
:10241000774B784AD3F8A010D3F8A43012685B1A2F
:10242000632B0EDD744803FB02F380FB0302DB1712
:10243000C3EB62131944062002B0BDE8F04105F079
:10244000A5BB6E4803FB022380FB0302DB17C3EB33
:1024500022121144062002B0BDE8F04105F096BBFF
:1024600002B0BDE8F081664E33680A33B3F57A7F77
:1024700000F3B7801846336009F048FB614909F062
:1024800099FB80465A4DD5F8A00009F03FFB07465E
:10249000D5F8A40009F03AFB394609F081FA414623
:1024A00009F088FB584909F039FC394609F07AFAF5
:1024B00009F05CFD0146062005F068FB0221534847
:1024C00006F0D4FD524806F0C3FF0621514806F03D
:1024D000CDFD306809F01AFB4A4909F06BFB08F0A2
:1024E000BFFE022702460B460097494807F008F84E
:1024F0000D21494806F0BAFDD5F8A00009F006FB09
:102500008046306809F002FB3E4909F053FB06465D
:10251000D5F8A40009F0FAFA414609F041FA01465B
:10252000304609F047FB384909F0F8FB414609F00D
:1025300039FA08F095FE00970B460246344806F03B
:10254000DFFF3946314806F091FD314806F080FF43
:102550002368022B7FF458AF294B254E00221A60C6
:10256000D6F8A00009F0D2FA0546D6F8A40009F082
:10257000CDFA294609F014FA002109F01BFB224983
:1025800009F0CCFB294609F00DFA09F0EFFC0146F1
:10259000062005F0FBFA2368032B7FF438AF184BB5
:1025A000134E4FF47A721A60D6F8A00009F0AEFA12
:1025B0000546D6F8A40009F0A9FA294609F0F0F971
:1025C000114909F0F7FA104909F0A8FB294609F06A
:1025D000E9F909F0CBFC0146062005F0D7FA23689B
:1025E00015E700234FF0000833604BE76C94FF1FA2
:1025F0002093FF1F3087FF1F1F85EB51CBF08D28E5
:102600005092FF1FCDCCCC3D0000C84254140100B5
:10261000C487FF1F880801009008010070B5A24818
:10262000A24C06F015FFA04806F012FF9E4806F0E7
:102630000FFF0D219E4806F019FDD4F89C30012BA8
:1026400011D09C4C9848217800230A2206F010FFF4
:102650002378052B67D8DFE813F0E900EE00F300DC
:10266000F800FD00E4000921934806F0FFFC9348C0
:10267000FFF7AEF8216909F03BFC18B10F21904833
:1026800006F0F4FC8D48FFF7C9F8E16809F04EFC4C
:1026900018B10E218B4806F0E9FC8848FFF7BEF818
:1026A00005468648FFF794F80146284609F078F970
:1026B000E16B09F03BFC18B11121834806F0D6FC10
:1026C0007E48FFF7F1F8A16A09F030FC18B10C213F
:1026D0007E4806F0CBFC7948FFF7E6F8E16A09F09E
:1026E00007FC18B10D217A4806F0C0FC794B7348FD
:1026F0001B68012B00F0C280FFF76AF821696B4D5F
:1027000009F014FC78B16D48FFF788F8E96809F022
:10271000EFFB40B1674B1B78052B00F0C080082110
:102720006D4806F0A3FC02216C4806F09FFC1220C5
:1027300005F0B2FB012800F09C80112005F0ACFBF5
:10274000012800F09180664B1B68012B00F0878008
:102750000221624806F08AFC624B5348196806F071
:10276000C7FE514806F074FE04215F4806F07EFC67
:102770000B2005F091FB002301460A224A4806F08F
:1027800077FE0C2005F088FB002301460A2246480C
:1027900006F06EFE142005F07FFB002301460A229E
:1027A000414806F065FE152005F076FB0023014642
:1027B0000A223D4806F05CFE06214C4806F056FC15
:1027C0004B4B394819680222002306F051FE0421C0
:1027D000484806F04BFC112005F05EFB0023014643
:1027E0000A22314806F044FE102005F055FB002374
:1027F00001460A222C4806F03BFE122005F04CFB55
:10280000002301460A22284806F032FE132005F074
:1028100043FB002301460A222348BDE8704006F02E
:1028200027BE0721344806F021FC7CE70621334807
:1028300006F01CFC77E70721314806F017FC72E729
:102840000721304806F012FC6DE708212E4806F0FB
:102850000DFC68E70B212D4806F008FC63E7112109
:102860002B4806F003FC73E70A212A4806F0FEFB1A
:1028700069E70E21284806F0F9FB5EE7FEF7A8FF9E
:10288000216A09F053FB00283FF449AF1621234881
:1028900006F0ECFB0A21224806F0E8FB43E70A2198
:1028A0001F4806F0E3FB3EE7C487FF1F2093FF1F8E
:1028B000A00801007894FF1FB0080100C094FF1F1A
:1028C000BC080100CC080100DC080100F008010090
:1028D000000901005C92FF1F34090100541401003B
:1028E0009494FF1F7094FF1FA8090100B009010014
:1028F000D893FF1FB80901007009010040090100C9
:10290000480901005C090100640901005009010047
:1029100094090100880901007809010010090100EB
:10292000280901002DE9F04F934C944FE36F012BE0
:102930008DB000F04981032B50D0914E914DA36F83
:102940009148012B09BF2968296801F100412960DC
:1029500004F0A8FE3368002B40F0CE808A4804F0D3
:1029600077FEE36F3860012B064600F0D28087497E
:1029700009F0DCFA78B98649304609F0B9FA50B95D
:10298000844A854B12680B920B9A1A6000232B60C5
:102990000DB0BDE8F08FDFF8FC817F4CD8F8003037
:1029A0000A930A9823687D4FC01A09F0ABF83146A4
:1029B00009F000F97A4909F0B1F9794909F0AEF95D
:1029C000396808F0EFFFD8F800300993099B2360BD
:1029D000002338602B600DB0BDE8F08FDFF8C881B0
:1029E000704DD8F80000664E012300220F212B60A5
:1029F00004F084FA2B68012B336800F00381002B6C
:102A000040F0A6810021D8F80000DFF8B891664DAB
:102A100004F0C6FA33681FFA80FBC9F800B0002B37
:102A200040F07B810021D8F80000564DDFF878A1F6
:102A300004F03CFAB4F8863040F6E44101FB0BF1B7
:102A4000B1FBF0F0C01A00B209F060F857498346B4
:102A5000D4F8880009F0AEF80146584609F05EF94E
:102A6000D9F800302860632BDFF858B100F34981B2
:102A700000232B603368002B3FF461AF02214C48E8
:102A800006F0F4FAD9F80020D8F8000040F6E44344
:102A9000002103FB02F804F009FAB8FBF0F009F09A
:102AA00031F88046B4F8860009F030F80146404617
:102AB00008F076FF08F0D4FB4FF0020802460B4600
:102AC000CDF800803B4806F01BFD4146384806F033
:102AD000CDFA286808F0C4FBCDF8008002460B460A
:102AE000344806F00DFD4146334806F0BFFA414632
:102AF0002F4806F0BBFA22E7234804F0A9FD08F0AE
:102B0000AFFB022602460B4600962A4806F0F8FC68
:102B100024E7244B1B68012B00F02681022B7FF455
:102B200035AF264909F002FA30B92549304609F097
:102B3000DFF9002800F04781DFF85880164CD8F8FC
:102B40000030079307982368144FC01A08F0DAFF83
:102B5000314609F02FF8124909F0E0F8104909F060
:102B6000DDF8396808F01EFFD8F800300693069BA0
:102B7000386023600AE700BF2093FF1F6892FF1FA1
:102B8000B894FF1F5892FF1FF892FF1F0000FA43EE
:102B90000000FAC3F4C2FF1F8894FF1F7092FF1F4A
:102BA00000007A445087FF1F8C94FF1F17B7D1385D
:102BB00054140100C487FF1FFC09010000C82F48FE
:102BC00000A08CC61893FF1F3D689849284609F05D
:102BD0008FF930B12846964909F0A8F900287FF40A
:102BE000FDAEDFF85882934DD8F80000924E0223D4
:102BF00000220E212B6004F081F92B68012B336831
:102C00007FF4FDAE002B40F000810021D8F80000D9
:102C1000DFF86C92894D04F0C3F933681FFA80FB2A
:102C2000C9F800B0002B40F0D5800021D8F8000092
:102C3000834D04F03BF9B4F8843040F6E44A0AFBD3
:102C40000BFBBBFBF0F0C01A00B208F05FFF7D4940
:102C50008346D4F88C0008F0ADFF0146584609F0D1
:102C60005DF8D9F8003028600021D8F800000AFB90
:102C700003FA04F01BF9B4F88430BAFBF0F00FFA51
:102C800080FAC3EB0A03002BB4F8B620B8BF5B424E
:102C90009342BCBF00232B603368002B3FF44FAE40
:102CA0000221694806F0E2F9D9F80020D8F80000BE
:102CB00040F6E443002103FB02F804F0F7F8B4F80F
:102CC0008410B8FBF0F000B2411A604806F010FC26
:102CD00002215D4806F0CAF9286808F0C1FA4FF0F1
:102CE000020802460B46CDF80080584806F008FC62
:102CF0000321574806F0BAF94146534806F0B6F9A1
:102D00001DE6DAF80000002104F0D0F8DBF800300E
:102D100064389842FFF4ACAEACE60021286804F0B9
:102D2000C5F840F6E44100230A2201FB0BF1B1FB98
:102D3000F0F1464806F09CFB0221434806F096F964
:102D4000B4F88610414806F0D3FBD9F800B069E624
:102D50003E4806F07DFB0C213E4806F087F90C2129
:102D60003D4806F083F94DE63C4909F0DFF858B9D3
:102D70003B49304609F0BCF830B93A4A3A4B126840
:102D80000592059A1A6001E6DFF8D880364CD8F82B
:102D90000030049304982368344FC01A08F0B2FE40
:102DA000314608F007FF324908F0B8FF304908F013
:102DB000B5FF396808F0F6FDD8F800300393039B9F
:102DC00038602360E2E5274A274B12680892089A88
:102DD0001A60DBE50021286804F068F840F6E44159
:102DE00000230A2201FB0BF1B1FBF0F1174806F0BA
:102DF0003FFB01211F4806F039F9B4F8841013484D
:102E000006F076FBD9F800B00FE7104806F020FB7B
:102E1000E36F012B4FF00B010CBF1748174806F06A
:102E200025F90C210C4806F021F9EEE600709446D5
:102E3000007094C65087FF1FB894FF1F8C94FF1F2B
:102E40005892FF1F17B7D13854140100C487FF1FD1
:102E5000E8090100EC090100D80901000000FA436B
:102E60000000FAC3F4C2FF1F8894FF1F7092FF1F77
:102E700000007A449C080100C0090100CC0901004F
:102E80001893FF1F2DE9F047B24D2B6884B0002B3B
:102E90007ED0B14CDFF8C882B04EE36FAE4D012B4F
:102EA00000F08F80D4F88030AB4F012B00F0BC8055
:102EB000D6F80090D7F858A07D6DA94F05FB0AF50C
:102EC0004FF47A7000FB05F008F020FEA549054696
:102ED000484608F06FFE294608F020FFA24908F096
:102EE00069FE09F043F86328C8F800004BDD284666
:102EF0009C4908F013FF642330603B609B4B1B68C8
:102F0000002B3DD0E36F944D012B00F0BB80032BD1
:102F100000F00981022B00F00C810221944806F098
:102F2000A5F8944B186808F09BF9022402460B465A
:102F30000094914806F0E4FA2146904806F096F88D
:102F400021468B4806F092F8D8F800108A4806F01F
:102F5000CFFA06218A4806F089F83068814908F0DE
:102F600029FE08F07DF9009402460B46824806F0DF
:102F7000C7FA0321834806F079F87F4806F068FA1B
:102F800004B0BDE8F0870028BCBF00233B60B5E774
:102F90007D4E714C33680293029A42F228339A4272
:102FA00000F2BA8033680393039A42F210739A4294
:102FB00074D8E36FDFF8A881684E674D012B7FF46A
:102FC00071AF7248FEF7B0FC7149D5F86890EF6EAA
:102FD00008F0F0FD08F0F0FF2A6F6B6FC9EB0202FA
:102FE000DB1B80B29A42C9EB000040F3AD8003FBCB
:102FF0000000531C90FBF3F31F44A06D636DC8F8F1
:10300000007000FB07F003FB00F000EB80004000C5
:1030100008F07CFD5349504F08F080FED4F8803012
:103020003060012B7FF444AF5848FEF77DFC5849CF
:10303000D7F86890FD6E08F0BDFD08F0BDFF3A6F4F
:103040007B6FD4F858A0C9EB02025B1B80B29A4296
:10305000C9EB0000C6BF03FB00000132584390FBE0
:10306000F2F02844656D00FB0AF005FB00F000EB70
:103070008000400008F04AFD3A4908F04FFE8146C2
:1030800030601AE7434B1B68012B4FF00A010CBF5D
:103090004148424805F0EAFFEB6F38E73B48FEF74E
:1030A00043FC3B49A76EE66E08F084FD08F084FF00
:1030B000226F636FD21B9B1B80B29A42A0EB07006A
:1030C0003CDD03FB0000531C90FBF3F39819A26D49
:1030D000DFF88C80636DC8F8000002FB00F003FB92
:1030E00000F000EB8000400008F010FD1D491B4E71
:1030F00008F014FE0123306002211D482B6005F00A
:10310000B5FF1D4806F0A4F95921254805F0AEFF8A
:10311000194806F09DF9C0E61C48626C94F840100E
:10312000FEF7A4FB3EE710211E4805F09FFFE36F6A
:10313000F0E607211C4805F099FFEEE603FB00F3DB
:1031400093FBF2F39819C2E703FB00F393FBF2F34E
:103150001F4452E75492FF1F2093FF1F7092FF1FDE
:103160003087FF1FE4388E3E0000C8423887FF1FBB
:10317000541401006892FF1FC487FF1FFC0901005F
:10318000900A0100980A0100F4C2FF1FC094FF1FBB
:1031900000007A445087FF1F5C0A0100680A0100A2
:1031A000000A0100740A0100880A0100F0B511202C
:1031B00083B004F071FE012813D000210B2004F02D
:1031C00065FE00210C2004F061FE0021152004F0B2
:1031D0005DFE1D491D4B0120002208701A6003B0DE
:1031E000F0BD01460446152004F050FE1849194A66
:1031F000194B09680191D2F890001B680199134D91
:10320000034402268B422E6017D8D2F8980008F0AB
:103210007DFC124B196808F06BFE074668B9214621
:103220000B2004F033FE084A032339460C201670A5
:103230002B6004F02BFE03B0F0BD01210C2004F044
:1032400025FE03B0F0BD00BF7894FF1FB494FF1FAC
:10325000F4C2FF1F2093FF1FBC94FF1F6892FF1F43
:10326000F0B5684E684D34682B689C4287B039D001
:1032700014F0010155D014F0020149D014F00401FA
:103280003DD0E3070ED52B68DF070BD45F4F3A68BC
:10329000002A00F082805E4B1B680193019B9342E1
:1032A0006DD83468A0070DD52B6899070AD4594FFB
:1032B0003A68002A4CD0564B1B680393039B9342F9
:1032C00038D8346862070DD52B685B070BD4524F92
:1032D0003A68002A7ED04E4B1B680593059B9342AB
:1032E00068D834680CB107B0F0BD2146162004F050
:1032F0004DFC2146172004F049FC07B0F0BD052025
:1033000004F044FC2B68346803F0FB032B60B8E73F
:10331000172004F03BFC2B68346803F0FD032B609E
:10332000ACE7162004F032FC2B68346803F0FE038F
:103330002B60A0E7394B1720D3F8941004F026FC3B
:103340002B68346843F0020300222B603A60B9E72F
:10335000334806F07DF80C21324805F087FE3048EE
:1033600006F076F8FF21172004F010FC284B2E4AB7
:1033700019680291029912680A443A609CE7274B47
:103380001620D3F8941004F001FC2B68346843F045
:10339000010300222B603A6084E7FF21162004F02D
:1033A000F5FB1B4B204A19680091009912680A44EA
:1033B0003A6071E7194B0520D3F8941004F0E6FB4E
:1033C0002B68346843F0040300222B603A60002C21
:1033D00089D18AE7124806F03BF80C21134805F022
:1033E00045FE0F4806F034F8FF21052004F0CEFB1F
:1033F000074B0D4A19680491049912680A443A600F
:103400006AE700BFB494FF1FD893FF1F5094FF1FBB
:10341000F4C2FF1F5494FF1F5894FF1F2093FF1FF7
:10342000C487FF1F9C0A01006C87FF1FAC0A0100C4
:103430002DE9F047544EDFF87481DFF8749130685D
:10344000524D00220F2103F059FD002301222221B9
:103450004F48C8F80030C9F8002005F007FED8F83A
:103460000030132B22DC40F6E44700213068B5F829
:1034700084A003F095FD00210446306803F016FD9A
:10348000A4B2012107FB04F4B4FBF0F44148544416
:10349000A5F8844005F0EAFD642004F033FDD8F877
:1034A00000300133132BC8F80030DEDDB5F884306E
:1034B000394A3A48A2FB03129B1A02EB5303C3F3A7
:1034C0000F131946A5F8843006F012F81D21344870
:1034D00005F0CCFD0221334805F0C8FD2F4805F06A
:1034E000B7FF00231A460E213068C8F8003003F0F9
:1034F00005FD022322212648C9F8003005F0B6FD5B
:10350000D8F80030132B22DC40F6E4470021306865
:10351000B5F8869003F044FD00210446306803F0BE
:10352000C5FCA4B2012107FB04F4B4FBF0F4194874
:103530004C44A5F8864005F099FD642004F0E2FCB7
:10354000D8F800300133132BC8F80030DEDDB5F8B1
:103550008630114A1148A2FB03129B1A02EB530357
:10356000C3F30F131946A5F8863005F0C1FF1D21DE
:103570000D4805F07BFD02210A4805F077FD07485C
:10358000BDE8F04705F064BF8C94FF1F2093FF1F38
:10359000BC0A0100000B010087611886C487FF1F69
:1035A000E00A010054140100040B01007494FF1F91
:1035B0005087FF1FF8B5774B774C784D1B68286D07
:1035C00040F2513108222160E271002B00F0DD80D1
:1035D00008F09CFA296A064608F0ECFA704908F0EF
:1035E000E9FA08F0E9FC80B2031263726D4A6E4B8F
:1035F00012681B68A96920721512A37230461B124B
:10360000E3722273657308F0D5FA654908F0D2FABF
:1036100008F0D2FC83B21A125F496448A373E273C4
:1036200003F08EFA624B634A1B6812885A49A272F1
:10363000DFB207EB870603EB8305760045F3D7156A
:1036400012121B122772267365730826002540F29A
:1036500055375648E27263722760E671A573E573C9
:1036600003F06EFA40F2563353482360E671FEF7DA
:10367000F9F8524908F09EFA08F09EFC20724E4874
:10368000FEF7F0F84D4908F095FA08F095FC4C4A21
:103690004A49C0F307231068637208F03FFB08F043
:1036A00065FC40FA06F203464348E272A372FEF755
:1036B000FBF83B4908F07EFA08F07EFC20733E4898
:1036C000FEF7F2F8364908F075FA08F075FC324951
:1036D000A573C0F3072335486373E57303F030FA2D
:1036E000022004F00FFC374B2B49187893F801E0C7
:1036F0009F78DA78207240F25A332C48E6712573AD
:103700006573A573E57384F809E0A772E27223601C
:1037100003F016FA2C4B204918785D789A782072BD
:10372000187993F803E05F796572A2729D79DA796E
:10373000207340F25E331D4884F80BE0E27323608F
:10374000E6716773A57303F0FBF9022004F0DAFB5E
:103750001E4BE6711D785A7893F802E0D8781F79ED
:103760005E79257262729D79DA79E0724FF45C734A
:1037700084F80AE027736673A573E2732360064931
:103780000A48BDE8F84003F0DBB908F0BFF9696901
:10379000064621E75C92FF1FA494FF1F2093FF1FA2
:1037A000000020418494FF1F4492FF1F4CC1FF1F63
:1037B0003087FF1F3487FF1FC094FF1F0000C842DF
:1037C0006892FF1F1C93FF1F2887FF1F5487FF1F4E
:1037D00038B5284B1B68012B00D038BD264D274833
:1037E000FDF7F6FFE96C08F0DDF804462348FEF724
:1037F00015F80146204608F07BFB0028EDD0204C50
:103800001E4840F2C33208232260E371FDF7E0FF57
:10381000AD6C294608F06CFBB8B11A49284608F08F
:10382000C9F908F0C9FB80B2031260722372002349
:103830000122A272E37223736373A373E3731049CB
:103840001148BDE8384003F07BB90C48FDF7C0FFD4
:103850000C4908F0AFF908F0AFFBC0F307230748A5
:103860002372FDF7B5FF074908F0A4F908F0A4FB9F
:103870006072DCE79494FF1F2093FF1FC094FF1F2A
:10388000A494FF1F0000C8424CC1FF1FF0B5984C24
:10389000984D83B005F084FB23682860042B00F06A
:1038A000A482022B4BD0082B00F09280072B40F013
:1038B0004981332801F0A58300F3A680312801F067
:1038C000B383322840F0A98005F0A6FB002840F31E
:1038D00037818948894E05F04DFF08F017F988496E
:1038E00008F068F961230122F06322602B6018461A
:1038F000A0F152031F2B01F26283DFE813F0060BE5
:10390000600B600B600B600B600B600B600B600B5F
:10391000600B600B600B600B600B600BB003790CED
:103920003705A5057104600B600B600B2404600B68
:103930007C0C600B600B600B600B600BF40AA0F159
:103940003102422A69D8DFE812F0EB062C07D106D3
:10395000F7060A0719076800680068006800680031
:103960006800680068006800680068006800680017
:103970006800680068006800680068006800680007
:1039800068006800680068006800680068006800F7
:1039900068006800680068006800680068006800E7
:1039A0006800680068006800680068006800260712
:1039B00068006800680068006800680068006800C7
:1039C0006800680068006800680064006800E3063A
:1039D000322800F0278371281BD031281DD105F033
:1039E0001BFB002840F340864348444E05F0C2FECE
:1039F000C0B286F8400002288ABF0021014686F83E
:103A00004010726C3F4821E3342801F0E8827128AD
:103A100003D10023732023602860002B08BF732884
:103A20000CBF01200020002860D0334805F010FDB5
:103A30000421354805F01AFB2F4805F009FD102137
:103A4000324805F013FB2C4805F002FD13213048E5
:103A500005F00CFB2F4B2848196805F049FD264856
:103A600005F0F6FC14212C4805F000FB224805F077
:103A7000EFFC1E21294805F0F9FA1F4805F0E8FC83
:103A80001521274805F0F2FA1B4805F0E1FC1E213C
:103A9000244805F0EBFA184805F0DAFC202122480A
:103AA00005F0E4FA144805F0D3FC19211F4805F08D
:103AB000DDFA114805F0CCFC12211D4805F0D6FABC
:103AC0000D4805F0C5FC0F211A4805F0CFFA0A4849
:103AD00005F0BEFC0D21184805F0C8FA064805F0AF
:103AE000B7FC164A002101231160236003B0F0BD2A
:103AF0007492FF1F6492FF1FC487FF1F2093FF1F54
:103B00006F12833AC094FF1FD0120100D812010037
:103B1000EC1201002087FF1F0013010018130100A1
:103B200038130100501301007013010094130100B9
:103B3000B0130100C4130100D41301003887FF1F24
:103B400023682868062B40F08D80A0F13102402ABE
:103B50003FF663AF01A151F822F000BF7B450000A2
:103B6000A7450000D3450000F94500001F460000AE
:103B70003D4600001B3A00001B3A00001B3A0000C3
:103B80001B3A00001B3A00001B3A00001B3A0000E1
:103B90001B3A00001B3A00001B3A00001B3A0000D1
:103BA0001B3A00001B3A00001B3A00001B3A0000C1
:103BB0001B3A00001B3A00001B3A00001B3A0000B1
:103BC0001B3A00001B3A00001B3A00001B3A0000A1
:103BD0001B3A00001B3A00001B3A00001B3A000091
:103BE0001B3A00001B3A00001B3A00001B3A000081
:103BF0001B3A00001B3A00001B3A00001B3A000071
:103C00001B3A00001B3A00001B3A00001B3A000060
:103C10001B3A00001B3A00001B3A00001B3A000050
:103C20001B3A00001B3A00001B3A00001B3A000040
:103C30001B3A00001B3A00001B3A00001B3A000030
:103C40001B3A00001B3A00001B3A00001B3A000020
:103C50001B3A00001B3A00001B3A0000133A000018
:103C600023682868052B15D1332801F0F38140F330
:103C70004781352801F01582C1F2FD8171287FF45A
:103C8000CCAEDC4A00237320136023602860C4E6B6
:103C900023682868032B40F0A480A0F13002422A58
:103CA0003FF6BBAE01A151F822F000BFB93D0000C4
:103CB0009F4C0000C74C0000EF4C0000114D00006D
:103CC000334D00005B4D0000834D0000A14D00000E
:103CD000C54D00001B3A00001B3A00001B3A0000D3
:103CE0001B3A00001B3A00001B3A00001B3A000080
:103CF0001B3A00001B3A00001B3A00001B3A000070
:103D00001B3A00001B3A00001B3A00001B3A00005F
:103D10001B3A00001B3A00001B3A00001B3A00004F
:103D20001B3A00001B3A00001B3A00001B3A00003F
:103D30001B3A00001B3A00001B3A00001B3A00002F
:103D40001B3A00001B3A00001B3A00001B3A00001F
:103D50001B3A00001B3A00001B3A00001B3A00000F
:103D60001B3A00001B3A00001B3A00001B3A0000FF
:103D7000ED4D000081480000474E00000B4E000052
:103D8000294E0000654E00005D4800001B3A00000F
:103D90001B3A00001B3A00001B3A00001B3A0000CF
:103DA0001B3A00001B3A00001B3A00001B3A0000BF
:103DB000BB4E0000C74E000005F02EF9002841F36D
:103DC00007818D488D4E05F0D5FC0127034601463D
:103DD00062228B48736527602A60FDF745FD2368E2
:103DE0002868012B7FF419AE82E5A0F13102402A48
:103DF0003FF613AE01A151F822F000BF5948000070
:103E0000FD4700003B480000014800000548000055
:103E10002148000037480000BF470000D747000096
:103E20001B3A00001B3A00001B3A00001B3A00003E
:103E30001B3A00001B3A00001B3A00001B3A00002E
:103E40001B3A00001B3A00001B3A00001B3A00001E
:103E50001B3A00001B3A00001B3A00001B3A00000E
:103E60001B3A00001B3A00001B3A00001B3A0000FE
:103E70001B3A00001B3A00001B3A00001B3A0000EE
:103E80001B3A00001B3A00001B3A00001B3A0000DE
:103E90001B3A00001B3A00001B3A00001B3A0000CE
:103EA0001B3A00001B3A00001B3A00001B3A0000BE
:103EB0001B3A00001B3A00001B3A00001B3A0000AE
:103EC0001B3A00001B3A00001B3A00001B3A00009E
:103ED0001B3A00001B3A00001B3A00001B3A00008E
:103EE0001B3A00001B3A00001B3A00001B3A00007E
:103EF0001B3A00001B3A00001B3A0000133A000076
:103F0000312801F0DC8032287FF487AD05F084F899
:103F100000287FF7BDAE3848384E05F02BFC012253
:103F20006B23C6F8980022602B6001E005F038F89A
:103F300005F072F80028F9D12F4805F089FA2E48CB
:103F400005F086FA2C4805F083FA2B4805F080FA34
:103F5000294805F07DFA21212A4805F087F82648EE
:103F600005F076FA1521284805F080F8D6F890106B
:103F7000214805F0BDFA0221244805F077F81E48D3
:103F800005F066FA1E21224805F070F8D6F8981060
:103F9000194805F0ADFA03211E4805F067F81648E8
:103FA00005F056FA1E211C4805F060F8D6F894106A
:103FB000114805F09DFA104805F04AFA1D211748EE
:103FC00005F054F8D6F8A0100B4805F091FA0A480D
:103FD00005F03EFA1E21124805F048F8D6F8A41064
:103FE000054805F085FA044805F032FA05232360F8
:103FF0007CE500BF6C94FF1FC487FF1F2093FF1F49
:10400000C094FF1F700D0100940D0100C80C010049
:10401000AC0D0100E8090100CC0D0100EC0D010020
:104020000C0E010004F0F8FF002840F31983B54896
:10403000B54E05F09FFB07F069FDB44907F0BAFDE6
:1040400096F8401003460246B1487364FDF70EFC33
:1040500001236920236028604AE404F0A1FF04F0F2
:10406000DBFF05460028F8D1A648A74E05F0F0F979
:10407000A44805F0EDF9A34805F0EAF9A14805F0D8
:10408000E7F9A04805F0E4F91F21A24804F0EEFF8B
:104090009C4805F0DDF91C219F4804F0E7FF706A99
:1040A0009E4907F087FD07F0DBF8009502460B46B6
:1040B000944805F025FA0221994804F0D7FF914869
:1040C00005F0C6F92321974804F0D0FFF06B93491F
:1040D00007F070FD07F0C4F8009502460B468948CA
:1040E00005F00EFA02218E4804F0C0FF854805F065
:1040F000AFF919218C4804F0B9FFB06B07F0B0F8A4
:1041000002250B46024600957E4805F0F9F929463E
:10411000864804F0ABFF7B4805F09AF919218448E2
:1041200004F0A4FFB6F8B410764805F0E1F90321D5
:10413000804804F09BFF734805F08AF90723236049
:10414000D4E404F02DFF04F067FF05460028F8D101
:104150006C486D4E05F07CF96A4805F079F96948BC
:1041600005F076F9674805F073F9664805F070F9CF
:104170001521714804F07AFF624805F069F91821A9
:104180006E4804F073FF2B460A2296F840105D48F3
:1041900005F06EF95B4805F05BF92821684804F0EA
:1041A00065FF706C5D4907F005FD07F059F8009553
:1041B0000B460246534805F0A3F90221584804F083
:1041C00055FF504805F044F913215E4804F04EFFB6
:1041D0004C4805F03DF90823236087E404F0E0FE35
:1041E00004F01AFF05460028F8D14648464E05F06F
:1041F0002FF9444805F02CF9424805F029F94148C7
:1042000005F026F93F4805F023F911214E4804F046
:104210002DFF3C4805F01CF928214C4804F026FFEE
:1042200070693E4907F0C6FC07F01AF8009502468F
:104230000B46344805F064F90221394804F016FFB2
:10424000304805F005F91621414804F00FFFF069E8
:10425000324907F0AFFC07F003F800950B46024621
:10426000284805F04DF902212D4804F0FFFE2548AD
:1042700005F0EEF8D6F8AC30002B32DD1D213548C4
:1042800004F0F4FEF06D07F041FC334907F092FCB6
:1042900006F0E6FF022502460B460095194805F098
:1042A0002FF901212D4804F0E1FE164805F0D0F861
:1042B0001F212B4804F0DAFE306E07F027FC264958
:1042C00007F078FC06F0CCFF009502460B460D483F
:1042D00005F016F90121214804F0C8FE094805F04F
:1042E000B7F811211F4804F0C1FED6F8AC30052BF9
:1042F00000F22686DFE813F059065E0654064F06E4
:104300004A062006C487FF1F2093FF1F6F12833ABF
:10431000C094FF1FCC0C0100EC0C010000007A449B
:104320009C0B01000C0D0100300D01004C0D010033
:10433000500D01006C0D010098130100540B010099
:10434000700B0100A00B01003C130100B40B010035
:10435000E00B0100F80B0100CDCCCC3D501001006A
:10436000180C0100380C010004F01AFE04F054FE91
:104370000028F9D1BF48C04E05F06AF8BD4805F0E5
:1043800067F8BC4805F064F8BA4805F061F8B94828
:1043900005F05EF81F21B94804F068FEB54805F045
:1043A00057F81E21B64804F061FEB24805F050F8F7
:1043B0001A21B44804F05AFEF36F022B00F0E7868E
:1043C000032B00F0DB86012B00F0EA860921AE48C2
:1043D00004F04CFEA74805F03BF81421AB48A64F6B
:1043E00004F044FEB16FA34805F082F8A14805F03F
:1043F0002FF81C21A64804F039FED6F880109D48FD
:1044000005F076F89B4805F023F81C21A14804F03C
:104410002DFED6F8A810974805F06AF8954805F0E3
:1044200017F8F56F25F00205012D00F061861321C4
:10443000994804F01BFE8F4805F00AF80223236018
:10444000FFF754BB04F0ACFD04F0E6FD0028F9D101
:10445000884804F0FDFF874804F0FAFF854804F01F
:10446000F7FF844804F0F4FF824804F0F1FF1321C1
:104470008A4804F0FBFD7F4804F0EAFF0D218848DC
:1044800004F0F4FD7B4804F0E3FF0F21854804F0BD
:10449000EDFD854B7748196805F02AF8754804F05A
:1044A000D7FF1321814804F0E1FD814B7148196861
:1044B00005F01EF86F4804F0CBFF12217D4804F090
:1044C000D5FD7D4B6B48196805F012F8694804F07A
:1044D000BFFF1121794804F0C9FD794B654819687F
:1044E00005F006F8634804F0B3FF0E21754804F0A8
:1044F000BDFD614B5F48D3F89C1004F0F9FF5D48A7
:1045000004F0A6FF1921704804F0B0FD6F4B594824
:10451000196804F0EDFF574804F09AFF11216C4828
:1045200004F0A4FD6B4B5348196804F0E1FF5148B7
:1045300004F08EFF1021684804F098FD674B4D4849
:10454000196804F0D5FF4B4804F082FF1C21644831
:1045500004F08CFD634B4748196804F0C9FF4548D7
:1045600004F076FF13214C4804F080FD414804F02C
:104570006FFF04232360FFF7B9BA04F04DFD002854
:104580007FF76EAB3B483C4E05F0F4F807F0BEFAFF
:10459000554907F0C3FB65230122706122602B603F
:1045A0001846FFF7A5B904F037FD00287FF758AB90
:1045B0003048314E05F0DEF807F0A8FA4A4907F016
:1045C000ADFB65230122F06122602B601846FFF7E6
:1045D0008FB904F021FD00287FF742AB2548264E15
:1045E00005F0C8F800EB8000430001226520F36568
:1045F00022602860FFF77CB904F00EFD00287FF7E9
:104600002FAB1C481C4E05F0B5F800EB80004300B2
:1046100001226520336622602860FFF769B9164AD7
:10462000D2F8AC300133052BC8BF0023C2F8AC3040
:104630006520012323602860FFF75AB904F0ECFCE1
:1046400000287FF70DAB0B480B4E05F093F8652360
:104650000122C6F8B00022602B601846FFF748B967
:1046600023682868FFF722B9034E96F84000FFF749
:10467000C2B900BFC487FF1F2093FF1F100F0100A6
:10468000300F0100500F0100C80F0100D40F0100CE
:10469000EC0F01000C100100A00B01002C0E01001A
:1046A000400E0100500E01004C94FF1F600E0100EF
:1046B000B894FF1F740E01009C94FF1F880E010028
:1046C000A094FF1F9C0E0100AC0E01007094FF1F10
:1046D000C80E01006C94FF1FDC0E01006092FF1FEA
:1046E000F00E01006087FF1F00007A440123236061
:1046F00004F092FC002805DD69486A4E05F03AF89E
:10470000C6F8A8000123632023602860FFF7F0B8F3
:10471000644AD36F0133032BC8BF0023D367F1E78B
:10472000604EB36FB3FA83F35B0901226320B36772
:1047300022602860FFF7DCB80123236004F06CFCE2
:10474000002807DD5648574E05F014F807F0DEF94B
:10475000C6F88C00632028602368FFF7A7B8012300
:10476000236004F059FC0028F4DD4D484D4E05F05F
:1047700001F807F0CBF9C6F88800EBE701232360C6
:1047800004F04AFC0028E5DD4548464E04F0F2FFFF
:10479000A6F8B600DEE7FEF74BFE23682868FFF7B1
:1047A00082B8404ED6F88030B3FA83F35B09012219
:1047B0006320C6F8803022602860FFF799B83A4A33
:1047C0001368B3FA83F35B0901216420136021604D
:1047D0002860FFF78DB80123236004F01DFC00283A
:1047E00000F37E84314B1A68042AC4BF02221A6087
:1047F00064232B6023686420FFF755B82C4ADFE759
:104800002C4ADDE7274ED6F89C30B3FA83F35B09D8
:1048100001226420C6F89C3022602860FFF768B847
:10482000012325482360FCF7AFFE244A236810606B
:1048300064222A60DFE7224AC2E7224A224F136835
:10484000002B0CBF012300234FF0010013602060F8
:1048500040F07E840346EBE71C4AB1E704F0DCFB42
:1048600000280DDD0E480F4E04F084FF07F04EF9CE
:10487000174907F053FA01226223306222602B604D
:1048800004F0CAFB002840F3A3830548054E04F05A
:1048900071FF01226223B06622602B601CE000BF22
:1048A000C487FF1F2093FF1F6092FF1F6087FF1FB9
:1048B000B894FF1FA094FF1FC094FF1F7094FF1FA8
:1048C0006C94FF1F9C94FF1F7492FF1F4C94FF1F5A
:1048D00000007A4404F064FB04F09EFB05460028C7
:1048E000F8D1C24804F0B4FDC04804F0B1FDBF489F
:1048F00004F0AEFDBD4804F0ABFDBC4804F0A8FDDB
:104900001521BB4804F0B2FBB84804F0A1FD142106
:10491000B84804F0ABFBB54804F09AFD1B21B6483B
:1049200004F0A4FBB14804F093FD1321B34804F054
:104930009DFBAE4804F08CFDAC4804F089FDAB480B
:1049400004F086FD2021AE4804F090FBF068AD49EC
:1049500007F030F906F084FC009502460B46A348A8
:1049600004F0CEFD0221A84804F080FB0221A748F4
:1049700004F07CFB9D4804F06BFD2121A44804F069
:1049800075FB30699F4907F015F906F069FC009541
:1049900002460B46954804F0B3FD02219A4804F004
:1049A00065FB0221994804F061FB904804F050FD3A
:1049B0001F21984804F05AFBB06A06F051FC022708
:1049C00002460B460097894804F09AFD012192485F
:1049D00004F04CFB39468D4804F048FB834804F052
:1049E00037FD20218D4804F041FBF06A06F038FCC9
:1049F000009702460B467D4804F082FD012186485F
:104A000004F034FB3946814804F030FB774804F069
:104A10001FFD2321824804F029FBB06C794907F07F
:104A2000C9F806F01DFC009502460B466F4804F0DD
:104A300067FD3946744804F019FB3946734804F0A1
:104A400015FB6A4804F004FD1F21764804F00EFBB4
:104A5000F06C6C4907F0AEF806F002FC00950246D7
:104A60000B46624804F04CFD3946674804F0FEFAF4
:104A70003946664804F0FAFA5C4804F0E9FC19216A
:104A8000694804F0F3FAB16D584804F031FD394635
:104A9000664804F0EBFA39465C4804F0E7FA5348FC
:104AA00004F0D6FC1821624804F0E0FA706E07F0BA
:104AB0002DF8604907F07EF806F0D2FB0097024619
:104AC0000B464A4804F01CFD01215B4804F0CEFA75
:104AD00039464E4804F0CAFA444804F0B9FC2B2188
:104AE000564804F0C3FAB069464907F063F806F087
:104AF000B7FB009502460B463C4804F001FD3946E1
:104B0000414804F0B3FA3946404804F0AFFA374858
:104B100004F09EFC1F214A4804F0A8FA716D334846
:104B200004F0E6FC3946394804F0A0FA2F4804F0B6
:104B30008FFC2021434804F099FA316D2B4804F092
:104B4000D7FC3946314804F091FA284804F080FC3B
:104B500010213D4804F08AFAB16E244804F0C8FCE4
:104B60003946294804F082FA3946284804F07EFA8A
:104B70001E4804F06DFC1321344804F077FAF16EFE
:104B80001A4804F0B5FC0121314804F06FFA3946A7
:104B90001E4804F06BFA154804F05AFC10212D4809
:104BA00004F064FA316F114804F0A2FC394616484B
:104BB00004F05CFA3946154804F058FA0B4804F042
:104BC00047FC1421244804F051FA716F074804F09F
:104BD0008FFC01211E4804F049FA39460B4804F0C5
:104BE00045FA024804F034FC162137E0C487FF1F61
:104BF00098100100B0100100C8100100A00B0100C6
:104C0000E410010000007A449C0B010054140100E0
:104C1000081101002C110100100701004C110100C6
:104C20007011010094110100B4110100D0110100B4
:104C3000D4110100CDCCCC3D50100100F011010089
:104C40001C1201003C1201006012010074120100EC
:104C5000881201008C120100A0120100AC4804F07F
:104C600005FA306AAB4906F0A5FF06F0F9FA00959F
:104C70000B460246A84804F043FC3946A74804F016
:104C8000F5F93946A64804F0F1F9A34804F0E0FB31
:104C9000A14804F0DDFB03232360FEF727BF04F0E7
:104CA000BBF9002840F394819B489E4E04F062FDBE
:104CB00006F02CFF974907F031F801226223F060DB
:104CC00022602B6008E604F0A7F9002840F38081F9
:104CD0009148944E04F04EFD06F018FF8D4907F000
:104CE0001DF801226223306122602B60F4E504F09C
:104CF00093F9002840F36C8187488A4E04F03AFD0E
:104D000006F004FF01226223B06222602B60E3E51B
:104D100004F082F9002840F35B817F48814E04F063
:104D200029FD06F0F3FE01226223F06222602B606F
:104D3000D2E504F071F9002840F34A817648794EB3
:104D400004F018FD06F0E2FE724906F0E7FF0122CA
:104D50006223B06422602B60BEE504F05DF9002898
:104D600040F336816C486F4E04F004FD06F0CEFE31
:104D7000684906F0D3FF01226223F06422602B60B1
:104D8000AAE504F049F9002840F322816248654E03
:104D900004F0F0FC01226223B06522602B609BE5E9
:104DA00004F03AF9002840F313815B485D4E04F0AB
:104DB000E1FC00EB80004300012162227366216068
:104DC0002A6089E504F028F9002840F3018152485F
:104DD000544E04F0CFFC06F099FE4E4906F09EFFBB
:104DE00001226223B06122602B6075E504F014F9A2
:104DF000002840F3ED8048484A4E04F0BBFC0122F5
:104E00006223306522602B6066E504F005F9002816
:104E100040F3DE804048434E04F0ACFC01226223A4
:104E2000306722602B6057E504F0F6F8002840F365
:104E3000CF8039483B4E04F09DFC0122622370670D
:104E400022602B6048E504F0E7F8002840F3C080BA
:104E50003148344E04F08EFC01226223F066226059
:104E60002B6039E5FCF784FF02212D482D4E04F01C
:104E7000FDF8294804F0ECFA0221294804F0F6F87C
:104E8000254804F0E5FA0221254804F0EFF822480D
:104E900004F0DEFA1721244804F0E8F81E4804F074
:104EA000D7FA02211E4804F0E1F81B4804F0D0FABA
:104EB0000122622322602B600EE500227323226010
:104EC0002B60FEF7B2BD194B1548164E0022022189
:104ED0001A6004F0CBF8104804F0BAFA0B21144819
:104EE00004F0C4F8DDE7B82200210E4802F002FD0C
:104EF0002868104AA0F1730001210023B0FA80F065
:104F0000400911602360FEF78EBD03F079FB00BFFE
:104F1000B812010000007A44C487FF1F9C0B0100F7
:104F2000541401002093FF1F300B01005492FF1F07
:104F3000480B01003887FF1F0F21B04804F096F896
:104F4000AF48B04D04F084FAD6F8AC30002B0FDD3A
:104F50001821AD4804F08AF8D5F8B010A84804F03C
:104F6000C7FA0221A94804F081F8A54804F070FAB4
:104F7000A34804F06DFA1321A54804F077F8A0487F
:104F800004F066FA06232360FEF7B0BD0D21A148A8
:104F900004F06CF8D4E70D219F4804F067F8CFE7E0
:104FA0000C219E4804F062F8CAE70D219C4804F0E9
:104FB0005DF8C5E70C219B4804F058F8C0E723686A
:104FC000002B08BF73280CBF01200020FEF72BBD6B
:104FD00023682868012B7EF420ADFEF789BC04F01D
:104FE0001BF800287EF7ACAD8548864E04F0C2FB66
:104FF00061230122A6F8B40022602B601846FEF758
:1050000077BC04F009F800287EF79AAD7C487D4E05
:1050100004F0B0FB06F07AFD61230122B063226048
:105020002B601846FEF764BC03F0F6FF00287EF7FD
:1050300087AD7348734E04F09DFB06F067FD7A4917
:1050400006F0B8FD61230122706222602B601846D1
:10505000FEF74EBC03F0E0FF00287EF719AE68486B
:10506000684E04F087FB01226B23C6F8940022608F
:105070002B60FEF75DBF03F0CFFF00287EF708AE80
:105080005F48604E04F076FB684BC6F8A000022231
:105090001A60FDF7AFF901226B2322602B60FEF747
:1050A00047BF03F0B9FF00287EF7F2AD5448554ED4
:1050B00004F060FB5D4BC6F8A4000322E8E703F0B0
:1050C000ABFF00287EF7E4AD4D484E4E04F052FB96
:1050D00001226B23C6F8900022602B60FEF728BFE8
:1050E000474804F047FB524B02461860FFF77CBB71
:1050F0001C21504803F0BAFFD7F88C004E4906F047
:1051000059FD06F0ADF8009502460B463C4804F008
:10511000F7F90521494803F0A9FF394804F098F947
:10512000FD6F012D45D0032D7FF481A91C2144483A
:1051300003F09CFFB6F8B610314804F0D9F903210A
:10514000404803F093FF2E4804F082F9FFF76FB94F
:105150003D4B002631460B201E6002F097FE314683
:105160000C2002F093FE3146142002F08FFE3146EF
:10517000152002F08BFE3B68FFF75ABB2021334815
:1051800003F074FF1E4804F063F9FFF726B91721F6
:105190002F4803F06BFF1A4804F05AF9FFF71DB9C6
:1051A0001E212C4803F062FF154804F051F9FFF767
:1051B00014B91D21284803F059FFD7F888001E496B
:1051C00006F0F8FC06F04CF800950B4602460C4839
:1051D00004F096F90521194803F048FF084804F047
:1051E00037F9FB6F23F00203012B9FD0FFF71FB9A4
:1051F000044EFFF771BB034EFEF79ABE9C0C0100F4
:10520000C487FF1F2093FF1FAC0C0100C80C0100D6
:10521000A00B01008C0C01007C0C01006C0C010047
:105220004C0C01005C0C01006F12833A6C94FF1F60
:105230006087FF1F2C100100CDCCCC3D4C1001002D
:105240007410010094100100B494FF1F8C0F010032
:10525000B00F01006C0F01005410010038B5164C5E
:10526000164A2368101D12F8011F904241EA0323D9
:10527000F9D12360124C03F100432360114BDB6F23
:10528000022B11D0104B1B68012B00D038BD0F48EA
:1052900004F0DEF821680D4804F02AF903210C48D7
:1052A000BDE8384003F0E2BE20680A4D06F02EFC4F
:1052B0002860FDF737FBE5E73C92FF1F6394FF1F73
:1052C0008094FF1F2093FF1F4C94FF1FC487FF1F74
:1052D000E41301005892FF1F30B53F4C3F4883B0A4
:1052E000214601F025FB236840F2C232934258D098
:1052F0006FF4C0615A18B2F5FF7F4CD903F1004337
:105300006FF4C0621344B3F5FF7F3FD9344B1B6881
:10531000012B01D003B030BD324B1B68012BF9D1FA
:10532000314B32481B6801930A220023019904F093
:105330009FF82268284B002ADB7945DB2C492D4851
:1053400007F016FC2B4807F03BFC0146294803F008
:105350008DFE2568204B15F0804526D1DB798BB179
:10536000631925491A7A234807F002FC214807F0FF
:1053700027FC01461F4803F079FE0135E379EDB2C1
:10538000AB42EDD8194804F063F8C3E712491B4853
:10539000FCF720F9BAE710491848FCF71BF9236815
:1053A000ACE7FFF75BFF2368A2E7154D114C0FCD6B
:1053B0000FC495E8030044F8040B204620F81419A4
:1053C000152103F053FEDDE70E490A4822F0604242
:1053D00007F0CEFBB6E700BF5C94FF1F4CC1FF1F78
:1053E0003887FF1F4C94FF1FF4C2FF1FC487FF1FA5
:1053F000101401007892FF1F3C140100C094FF1F9D
:1054000024140100E81301002DE9F84F7E4B7F4C76
:105410001B78052B08D07E48FCF746FAE16A06F0B7
:1054200067FD002800F081807A4E7B4D00233360B9
:105430002B607A4B76481B68744F012B33D0FCF7F6
:10544000EDF9E1698046606906F0AAFA0146404636
:1054500006F06CFD00283AD16D48FCF7DFF9E168F1
:1054600006F064FD08B100232B606948674FFCF724
:10547000AFF9216906F03CFD48B1002333602B6889
:10548000654A002BBCBF00231360BDE8F88F60485D
:10549000FCF79EF9B96906F02BFD0028EDD13368C1
:1054A000002BEADBEBE7FCF7B9F9E1698046206AFB
:1054B00006F076FA0146404606F038FD0028CBD0CB
:1054C0005348FCF7ABF9D7F82090834605E05048E5
:1054D000FCF7A4F9D7F814908346F969484606F01A
:1054E0005FFA8246F86D06F011FB8046386E06F0D2
:1054F0000DFB414606F054FA51460746584606F061
:105500004FFA0146384606F055FB514607464846D5
:1055100006F046FA0146384606F000FC414606F021
:1055200041FA06F023FD286096E73948FCF7BCF9FC
:10553000216B06F0DDFC20B3364E636E34483360D9
:10554000FCF7B2F98146E06DE76A334D06F0DEFA0A
:1055500039468046484606F023FA0146404606F0A2
:1055600029FB39468046206B06F01AFA0146404670
:1055700006F0D4FB002106F015FA06F0F7FC2860CF
:1055800057E72348FCF790F9616B06F0B1FC30B1A6
:10559000204E214D626EE36D32602B6049E71C485E
:1055A000FCF782F9A16A06F0A3FC00283FF43CAFA7
:1055B0001748184E184DFCF777F98146606ED4F8FD
:1055C000348006F0A3FA41460746484606F0E8F95B
:1055D00039468146002006F0E3F90146484606F0C8
:1055E000E9FA41468146A06A06F0DAF901464846E2
:1055F00006F094FB394606F0D5F906F0B7FCE36DEA
:1056000030602B6015E700BF7894FF1F2093FF1FC9
:10561000C094FF1F8494FF1F4492FF1F5C92FF1FE2
:1056200008B5274803F014FF0721264803F01EFDA4
:10563000112002F031FC0621F8B1234803F016FDD9
:10564000122002F029FC062100B3204803F00EFDD1
:10565000122002F021FC062108B31D4803F006FDCC
:10566000132002F019FC062110BB1A4803F0FEFCBF
:105670001348BDE8084003F0EBBE174803F0F6FC02
:10568000122002F009FC06210028DED1134803F0A5
:10569000EDFC122002F000FC06210028DDD11048AC
:1056A00003F0E4FC132002F0F7FB06210028DCD015
:1056B0000C4803F0DBFC0248BDE8084003F0C8BE1C
:1056C000C487FF1F4814010050140100601401003A
:1056D00070140100881401005814010068140100BE
:1056E000781401008014010010B5254C2368042BA8
:1056F00027DC01210B2002F0C9FB01210C2002F064
:10570000C5FB0121142002F0C1FB0121152002F08C
:10571000BDFBFF21162002F039FAFF21172002F00D
:1057200035FAFF21052002F031FAFF21062002F0B0
:105730002DFA236801330A2B2360C4BF00232360A2
:1057400010BD00210B2002F0A1FB00210C2002F073
:105750009DFB0021142002F099FB0021152002F08E
:1057600095FB0021162002F011FA0021172002F00B
:105770000DFA0021052002F009FA0021D6E700BF4A
:105780009894FF1F2DE9F0418B4DD5F8AC30042BD8
:105790003ED0032B6ED0012B00F09880022B01D05D
:1057A000BDE8F081854C8648237240F20E32012319
:1057B00021462260E37101F0C3F9824B1B685B0054
:1057C000FF2BC8BFFF23042140224FF4417020600B
:1057D000E17122726372286D06F098F9696906F02A
:1057E000E9F97949054606F0A1FB002800F0DA80C6
:1057F0002946284606F0D6F806F0DEFB80B20312F2
:10580000E072A3726D496E48BDE8F04101F098B9AD
:105810006A4C6E4AA379226043F001030822E271C8
:10582000A371286D06F072F9696906F0C3F9684939
:1058300006F0C0F906F0C0FB624B664A1B681268AE
:1058400093FBF2F380B200261A120712607221460F
:105850005B48E372A272277226736673A673E673BF
:1058600001F06EF9A279D5F8AC3066F30002032B93
:10587000A27190D1514C286DA3720122E823072117
:1058800040F2FF26227263722660E17106F03EF953
:10589000696906F08FF94E4906F08CF906F08CFB29
:1058A000484B4C4A1B68126893FBF2F382B21E12FB
:1058B0001712214642486373E2722773A67301F000
:1058C0003FF9D5F8AC30012B7FF468AF424B3B4C2D
:1058D0001B682360072280231020E271237202F0EC
:1058E000DBFA002865D13D4B1B68DFF8D880394FC3
:1058F000286D324E03EB83035B001A12A3726272AF
:10590000D8F800303A6893FBF2F31A126273A3736B
:1059100006F0FCF8696906F04DF9314B196806F09C
:105920003FF82B4906F046F906F046FB80B2031219
:10593000314620732248E37201F002F9022002F09E
:10594000E1FA284B1B682360072280231020E271B4
:10595000237202F0A1FA50BB204B1B68286D03EBA9
:1059600083035B001A12B372727206F0CFF8696992
:1059700006F020F9164906F01DF906F01DFB82B26B
:1059800016123868D8F80030227393FBF0F30B49F5
:105990000B48A3731A12E672627301F0D1F8D5F8BE
:1059A000AC30FBE601229023A272E3722AE70E4B91
:1059B000D3E70D4B98E700BF2093FF1FA494FF1F70
:1059C0004CC1FF1F4492FF1F00004843F4E5061836
:1059D000000020414887FF1F6487FF1F4087FF1F8B
:1059E0005C87FF1F6887FF1F4487FF1F2DE9F04773
:1059F00090B001E0FFF770FCAC4800F063FF0028B6
:105A0000F8D103F009FB002801DDFDF73FFFA84EA8
:105A1000A84D3368012B13D0FDF722FCD5F89C402C
:105A2000012C00F06B81A44F3B78052B00F2A8807D
:105A3000DFE813F0CC00A8001801F0003501940055
:105A40009E4C23689E4A0793079B11689B4F5B1AE5
:105A5000B3F5FA7F30D823680C930C9B994A2368DE
:105A60000B930B9B1068D5F8B010944E914D1B1AF8
:105A70008B420DD933680D93D5F89C300D99116088
:105A8000012B00F0C1818C4B1B78032B00F0BC81F3
:105A900023688D4A0E938D490E9B10680968874CC8
:105AA0001B1A8B4205D923680F930F9B1360FDF7D8
:105AB0008FFE10B0BDE8F0873B680893089B8448D0
:105AC0001360FBF7C1FDD5F89C30DFF8E881804812
:105AD000012B00F0AB81FBF77BFED8F8101006F02D
