:1000000000800020BD010000757E00002D7E0000F4
:100010002D7E00002D7E00002D7E00002D7E000034
:100020002D7E00002D7E00002D7E0000757E0000DC
:10003000757E00002D7E0000A99D0000AD9E000091
:10004000757E0000757E0000757E0000757E0000E4
:10005000757E0000757E0000757E0000757E0000D4
:10006000757E0000757E0000757E0000757E0000C4
:10007000757E0000757E0000757E0000757E0000B4
:10008000757E0000757E0000757E0000757E0000A4
:10009000757E0000757E0000757E0000757E000094
:1000A000757E0000757E0000757E0000757E000084
:1000B000757E000049720000557200005972000000
:1000C00065720000697200006D720000757E0000AC
:1000D000757E0000757E0000757E0000757E000054
:1000E000757E0000757E0000757E0000757E000044
:1000F000757E0000B5A50000757E0000118B000024
:10010000757E0000298E0000757E0000757E00005F
:10011000757E0000757E0000757E0000757E000013
:10012000757E0000757E0000757E0000757E000003
:10013000757E0000757E0000757E0000757E0000F3
:10014000757E0000757E0000757E0000757E0000E3
:10015000757E0000757E0000757E0000757E0000D3
:10016000757E000075900000757E0000757E0000B1
:10017000757E0000757E0000757E0000757E0000B3
:10018000757E0000757E0000757E0000757E0000A3
:10019000757E0000757E0000757E0000757E000093
:1001A000757E0000757E0000757E0000757E000083
:1001B000757E0000757E0000757E0000564B4CF287
:1001C000205210B51A804DF628121A8000BF00BFC9
:1001D00007F054FE514B4FF010621A60504A9A607B
:1001E000504ADA60504A136813F4807304D14F49BF
:1001F0000B604FF4A85313604D4B1A78110703D5C9
:100200001A7842F008021A704A4B4B492A221A7097
:100210004A4A4B4B8B4204D252F8040F43F8040B6A
:10022000F8E7484B484900228B4202D243F8042B9E
:10023000FAE74649464A002352F8230041F82300D2
:1002400001336F2BF8D1434B434A802103F8011B44
:100250009342FBD1414B3D4A1A60414B8A221A70AE
:10026000A3F5805324225A70A0221A709A7992071B
:10027000FCD59A79D406FCD43A4A937903F00C035E
:10028000082B384BF9D103221A7140225A719A79FE
:100290009006FCD5334A9179324B4906FBD5324A58
:1002A000324911600221516020221A709A7902F0BD
:1002B0000C020C2AFAD12E4B2E4A1A602E4B2F4AD2
:1002C0001A6000225A60072243F8042C2C4AC3F813
:1002D0000C2D62B608F088F8144B1B68DA0705D5B8
:1002E000284807F065FE284B284A1A60284B1B78DF
:1002F0005B0609D5244C254B22689A4204D121483B
:1003000007F056FE002323600CF058FC07F0BCFDFC
:100310000AF010F8FEE700BF0E20054030800440D0
:10032000823F04000100002B10D0034014D0034092
:1003300002D0074000E007403092FF1FCC270100A9
:100340002087FF1F3092FF1F14C6FF1F0082FF1F70
:100350000000000000E400E05FE400E008ED00E0E1
:100360000050064000400640448004400000030165
:1003700004800440C010050014E000E0FF76010096
:1003800000002020940C675C1CE00340A5C3945A35
:1003900000F00740FFFFFFFFFFFFFFFFFFFFFFFF32
:1003A000FFFFFFFFFFFFFFFFFFFFFFFFFFFFFFFF5D
:1003B000FFFFFFFFFFFFFFFFFFFFFFFFFFFFFFFF4D
:1003C000FFFFFFFFFFFFFFFFFFFFFFFFFFFFFFFF3D
:1003D000FFFFFFFFFFFFFFFFFFFFFFFFFFFFFFFF2D
:1003E000FFFFFFFFFFFFFFFFFFFFFFFFFFFFFFFF1D
:1003F000FFFFFFFFFFFFFFFFFFFFFFFFFFFFFFFF0D
:10040000FFFFFFFFFFFFFFFFFFFFFFFFDEF9FFFF23
:1004100010B5054C237833B9044B13B10448AFF33E
:1004200000800123237010BD3092FF1F00000000E8
:10043000C8270100084B10B51BB108490848AFF3A5
:1004400000800848036803B910BD074B002BFBD0A0
:10045000BDE81040184700BF000000003492FF1FA5
:10046000C82701003092FF1F00000000F0B400F127
:100470001C06134F00243146031F00F13C0243F8D1
:10048000044FB34241F8047F4FF0000542F8044F97
:10049000F5D10C4A0C490566002345668566C5669C
:1004A000056745678567C0F88850C267C0F8842033
:1004B000C0F8801080F8903080F8A830F0BC704709
:1004C0000000A040000048430000C8C22DE9F041F0
:1004D00090F8A84084B0202364008DF80530E4B281
:1004E000042380468DF804408DF80630032720460B
:1004F00008F036FC02210DF1050008F03BFC8DF8F8
:10050000044006F01BF830B30921404809F0E6FA30
:100510000023102221463E4809F086FD01213D4876
:1005200009F0DCFA002310229DF80510384809F084
:100530007BFD0121374809F0D1FA002310229DF8F4
:100540000610334809F070FD0121324809F0C6FA5F
:100550002F4809F059FD02208DF8044007F0F6FEFF
:1005600005F0ECFF00284CD102AE002408F018FC86
:1005700070B3072C1FD101E008F022FC08F010FC3A
:100580000028F9D105F0DAFF10B1214809F03CFD4F
:100590009DF80B009DF80C109DF80D209DF80E3075
:1005A000C8F89400C8F89810C8F89C20C8F8A03083
:1005B00004B0BDE8F08108F003FC054606F8010B25
:1005C00005F0BCFF70B9013408F0EAFB0028D0D177
:1005D000072CD3D005F0B2FF78B9013FD8D09DF8F1
:1005E000044084E7E9B200231022094809F01CFD09
:1005F0000121084809F072FAE5E7054809F004FD11
:10060000EBE70721044809F069FAADE7580D01004E
:10061000D087FF1F5C140100640D010090F8980062
:10062000704700BF90F89400704700BF90F89C009E
:10063000704700BF90F8A000704700BF082994BF22
:1006400050F82100002070472DE9F0410B4E804604
:10065000041F00F11C0754F8045F314628460CF0D3
:1006600023FA30B1D8F88C1028460CF03BFA00B1D0
:100670002E46BC42EFD13046BDE8F081000020415B
:100680002DE9F041D0F88C704FF00008041F00F104
:100690001C0654F8045F394628460CF023FA084932
:1006A00048B128460CF000FA414620B128460CF02B
:1006B00019FA00B1A846B442EBD14046BDE8F0813A
:1006C000000070422DE9F047D0F88C7082464FF060
:1006D0000009041F00F11C064FF0000854F8045FE5
:1006E000394628460CF0FEF90C4950B128460CF06A
:1006F000DBF930B1484629460BF030FF08F101081C
:100700008146B442EAD1CAF8AC8040460BF0DAFF29
:10071000014648460CF0DEF8BDE8F0870000704264
:10072000D0F8AC00704700BF38B5846E456E2146E6
:1007300028460CF0B9F900B92C46204638BD00BF58
:10074000D0F8A4302DE9F041002B79D1866E456EAA
:100750000446314628460BF001FFE76E39468046D5
:100760000BF0FCFE7E490CF0B5F84FF07C510446CE
:100770000CF0B8F9002861D04FF07C5128460CF0FD
:10078000B1F94FF07C51002860D128460CF08CF96B
:1007900038B14FF07C5130460CF0A4F9002840F0FD
:1007A000A7804FF07C5128460CF09CF9002860D1BE
:1007B0004FF07C5128460CF095F9002840F0A180BC
:1007C0004FF07C5128460CF08DF900286CD14FF089
:1007D0007C5128460CF068F94FF07C5110B330463C
:1007E0000CF080F938B14FF07C5138460CF05CF9D0
:1007F000002840F0B0804FF07C5130460CF054F9A6
:10080000002861D04FF07C5138460CF06BF900287D
:1008100040F0A38038464FF07C510CF045F968B1A8
:10082000504C10E028460CF03FF90028E3D1284650
:100830004FF07C510CF038F9002845D1BDE8F0812B
:1008400000EB8300046E2046BDE8F08130460CF0DA
:1008500049F94FF07C5100283ED038460CF042F95F
:100860000028F0D14FF07C5128460CF01DF90028EB
:1008700059D14FF07C5130460CF016F9002840D089
:100880004FF07C5138460CF02DF9002841D14FF043
:100890007C5130460CF026F968B14FF07C51384657
:1008A0000CF002F900284FD14FF07C5130460CF08B
:1008B000FBF800288BD04FF07C5138460CF0F4F850
:1008C000002884D02C46BEE730464FF07C510CF017
:1008D000EBF80028B2D09DE728460CF0E5F8002898
:1008E000C7D04FF07C5130460CF0FCF80028C0D047
:1008F0004FF07C5138460CF0F5F800283FF451AF2A
:1009000018E04FF07C5130460CF0ECF80028CBD0CA
:10091000C3E7394628460BF021FE4FF07C510BF01F
:1009200025FF04468FE74FF07C5138460CF0DAF88B
:1009300000289ED0394630460BF010FE4FF07C5117
:100940000BF014FF04467EE740464FF07C510BF05D
:100950000DFF044677E7344675E73C4673E700BF72
:10096000000040400000A0C270B50446FFF7E8FE5A
:100970004FF07C510CF0B6F828B3666E4FF07C5106
:1009800030460CF0AFF8A56EF0B9E46E4FF07C5134
:1009900028460CF0A7F858B1294630460CF0A2F8CA
:1009A00030B1214628460CF07FF808B12C4620E0F3
:1009B0004FF07C5120460CF095F820B12846214696
:1009C0000CF090F878B970BD304629460CF06CF800
:1009D000E46E0028DAD0304621460CF065F8002895
:1009E000D4D0344605E0304621460CF07BF8002890
:1009F000E9D0204670BD00BF01392DE9F84380469B
:100A00001546032900F2E280DFE801F0AE855C02C2
:100A1000537B107B03EB00200BF054FE6D490BF071
:100A2000A5FEC8F81800EB7BA87B03EB00200BF0B9
:100A300049FE68490BF09AFED8F86860D8F86470EF
:100A4000D8F80040C8F81C004046FFF78DFFD8F8E2
:100A50007C1005460CF028F808B1C8F87C503946DF
:100A600030460CF03FF8002840F0A7803946D8F80F
:100A700080000CF019F810B13E46C8F8806008F10B
:100A80002006C14608F14005002701E059F8044F4F
:100A9000306821460CF026F80137214628B1D8F8F5
:100AA0008C000CF00BF800B13460214628680BF084
:100AB000FBFF043600B12C60082F05F10405E5D1D9
:100AC000BDE8F883507A32380BF0FCFDC8F87400AA
:100AD000A87A32380BF0F6FDC8F878006B7B287BDB
:100AE00003EB00200BF0EEFD3A490BF03FFEC8F897
:100AF0001000EB7BA87B03EB00200BF0E3FD3549F6
:100B00000BF034FED8F86860C8F81400D8F86470A8
:100B1000D8F8004098E7507A32380BF0D3FDC8F887
:100B20006C00A87A32380BF0CDFDC8F870006B7BF2
:100B3000287B03EB00200BF0C5FD26490BF016FEC9
:100B4000C8F80800EB7BA87B03EB00200BF0BAFD94
:100B500020490BF00BFED8F86860C8F80C00D8F8F4
:100B60006470D8F800406FE7137AC0F8B030907A1C
:100B700032380BF0A7FDC8F864000746E87A32382F
:100B80000BF0A0FDC8F868006B7B0646287B03EBE2
:100B900000200BF097FD0F490BF0E8FDC8F80000AE
:100BA000EB7B0446A87B03EB00200BF08BFD09498F
:100BB0000BF0DCFDC8F8040046E7D8F8801030469A
:100BC0000BF090FF00287FF458AF58E7866E476E11
:100BD000046839E70AD7233C2DE9F04F90F8A83094
:100BE00091B007465B008DF80830FFF76FFCD7F82F
:100BF0009C00D7F8A040D7F89830D7F8942097F801
:100C0000A8108DE81100C94805F09EFD30223D2353
:100C100003268DF809208DF80A300DF10A059DF89C
:100C2000089049F00108404608F09AF80DF10900D3
:100C3000022108F09FF88DF80880424602AB0020A0
:100C40005040082410F0800F4FEA400018BF80F099
:100C50000700013CC0B2F5D19D4202D013F8012F2C
:100C6000EEE708F07DF805F069FC002840F07C8292
:100C700002208DF8089007F069FB05F05FFC002862
:100C800040F0B8820DF10C0AD146002408F088F833
:100C9000002843D0032C34D101E008F091F808F08B
:100CA0007FF80028F9D105F049FC10B1A04809F0FF
:100CB000ABF9312303268DF809308DF80A609DF8D1
:100CC000089049F00108404608F04AF80DF1090083
:100CD000022108F04FF88DF80880424602AB002050
:100CE0005040082410F0800F4FEA400018BF80F0F9
:100CF0000700013CC0B2F5D19D4228D013F8012F66
:100D0000EEE708F05DF809F8010B804605F016FCE7
:100D100068B9013408F044F80028BBD1032CBED0D8
:100D200005F00CFC78B9013E7FF479AFC1E75FFABA
:100D300088F1002310227E4809F076F901217D48D0
:100D400008F0CCFEE5E77A4809F05EF9EBE708F039
:100D500007F805F0F3FB002840F0C58102208DF86C
:100D6000089007F0F3FA05F0E9FB002840F03D8217
:100D70000DF10C09002408F013F8002844D0032CCE
:100D800035D101E008F01CF808F00AF80028F9D184
:100D900005F0D4FB10B1664809F036F9342201237E
:100DA0008DF809208DF80A3003269DF8089049F047
:100DB0000108404607F0D4FF0DF10900022107F0B9
:100DC000D9FF8DF80880424602AB0020504008242D
:100DD00010F0800F4FEA400018BF80F00700013C80
:100DE000C0B2F5D19D4228D013F8012FEEE707F0ED
:100DF000E7FF09F8010B804605F0A0FB68B9013454
:100E000007F0CEFF0028BAD1032CBDD005F096FB29
:100E100078B9013E7FF453AFC0E75FFA88F1002351
:100E20001022434809F000F90121424808F056FE1B
:100E3000E5E73F4809F0E8F8EBE707F091FF05F038
:100E40007DFB002840F00E8102208DF8089007F00D
:100E50007DFA05F073FB002840F0D6810DF10C09F6
:100E6000002407F09DFF002800F08480032C72D13D
:100E700001E007F0A5FF07F093FF0028F9D105F086
:100E80005DFB10B12A4809F0BFF8012212238DF84A
:100E900009208DF80A304FF003089DF808402046DD
:100EA00007F05EFF02210DF1090007F063FF8DF8E6
:100EB000084005F043FB30B309211F4808F00EFE3F
:100EC0000023102221461A4809F0AEF801211948E2
:100ED00008F004FE002310229DF80910144809F0C0
:100EE000A3F80121134808F0F9FD002310229DF812
:100EF0000A100F4809F098F801210E4808F0EEFD9D
:100F00000B4809F081F806208DF8084007F01EFA1A
:100F100005F014FB002840F0728103AD002607F0B5
:100F20003FFF00283FD0162E2FD109E06C0D0100A5
:100F3000D087FF1F5C140100580D010007F040FF2F
:100F400007F02EFF0028F9D105F0F8FA1626002840
:100F50007DD1152035E007F033FF09F8010B8046FD
:100F600005F0ECFA00285BD1013407F019FF0028E6
:100F70007FF47CAF032C3FF47EAF05F0DFFA00284E
:100F80006CD1013E7FF411AF7FE707F019FF05F840
:100F9000010B044605F0D2FA00284DD1013607F0C6
:100FA000FFFE0028BFD1162ECAD005F0C7FA0028D0
:100FB0004DD1B8F101087FF470AF701E002840F3E6
:100FC0002482002303AA1C4612F8011B08254C406A
:100FD00014F0800F4FEA440418BF84F00704013D69
:100FE000E4B2F5D101338342EEDB9DF821808948DC
:100FF0004146224605F0A8FB162EC146A34602D163
:10100000A04500F0138197F8A8108348CDF800B0F0
:101010004B46324605F0C6FB002011B0BDE8F08F0C
:101020005FFA88F1002310227C4808F0FDFF0121BF
:101030007B4808F053FD97E7E1B200231022774880
:1010400008F0F2FF0121764808F048FDA6E7734852
:1010500008F0DAFF162EACD11520B2E76F4808F081
:10106000D3FF8EE709216F4808F038FD2346102290
:1010700041466A4808F0D8FF0121694808F02EFD72
:10108000234610229DF80910644808F0CDFF012185
:10109000634808F023FD102223469DF80A105F489C
:1010A00008F0C2FF01215E4808F018FD21460DF14D
:1010B0000B0002AA12F8014B6140C9B2082311F0DB
:1010C000800F4FEA410118BF81F00701013BC9B20F
:1010D000F5D19042EED11022504808F0A5FF4F48BC
:1010E00008F092FFB0E609214E4808F0F7FC2346CD
:1010F00010224146494808F097FF0121484808F06E
:10110000EDFC234610229DF80910444808F08CFF9E
:101110000121434808F0E2FC102223469DF80A1002
:101120003E4808F081FF01213D4808F0D7FC2146E8
:101130000DF10B0002AA12F8014B6140C9B208235D
:1011400011F0800F4FEA410118BF81F00701013B08
:10115000C9B2F5D19042EED11022304808F064FFB8
:101160002E4808F051FFF9E509212E4808F0B6FC99
:10117000234610224146294808F056FF01212848FD
:1011800008F0ACFC234610229DF80910234808F013
:101190004BFF0121224808F0A1FC102223469DF8B4
:1011A0000A101E4808F040FF01211D4808F096FC77
:1011B00021460DF10B0002AA12F8014B6140C9B2A1
:1011C000082311F0800F4FEA410118BF81F0070199
:1011D000013BC9B2F5D19042EED110220F4808F080
:1011E00023FF0E4808F010FF42E507210E4808F0E3
:1011F00075FCBDE507210C4808F070FC42E50721AD
:10120000094808F06BFC88E60721074808F066FCEF
:1012100024E600BFA00D0100EC0D0100D087FF1FE8
:101220005C140100580D0100640D01009DF80C30A4
:1012300097F8A820B3EB420F7FF4EEAE9DF80D3087
:10124000012B7FF4E9AE9DF80E30122B7FF4E4AE53
:101250009DF810309DF80F0003EB00200BF032FAE0
:1012600072490BF083FAD7F88810386604460BF001
:1012700039FC08B1C7F88840D7F8841020460BF035
:1012800013FC08B1C7F88440A7F1040907F1200650
:1012900007F140054FF008089AF806309AF8050063
:1012A00003EB00200BF00EFA61490BF05FFA49F8EE
:1012B000040F316804460BF0F7FB0AF1020A30B163
:1012C000D7F88C1020460BF003FC00B1346029687D
:1012D00020460BF007FC043600B12C60B8F1010881
:1012E00005F10405D8D19DF81E309DF81D0003EBD3
:1012F000002002300BF0E6F94E490BF0EBFA014604
:101300004D480BF0E7FA4D490BF026F94C490BF02C
:101310002DFA054609F098FA0446284609F094FA91
:10132000484909F003FB4849054620460BF01EFAE0
:1013300046490BF013F94649044628460BF016FAC5
:10134000014620460BF00AF901464FF07E500BF0A3
:10135000C1FA40490BF000F99DF81F209DF820309C
:10136000786603EB022009300BF0ACF93A490BF038
:10137000B1FA014630480BF0ADFA30490BF0ECF809
:101380002F490BF0F3F9054609F05EFA04462846AA
:1013900009F05AFA2B4909F0C9FA2B4905462046AB
:1013A0000BF0E4F929490BF0D9F8294904462846FD
:1013B0000BF0DCF9014620460BF0D0F801464FF067
:1013C0007E500BF087FA23490BF0C6F8B866044646
:1013D0003846FFF7C9FAF96F05460BF065FB00B117
:1013E000FD677D6E204629460BF07CFBB0B929468F
:1013F000D7F880000BF058FB10B12C46C7F880409E
:10140000164805F0A1F9012007E69DF8219014483F
:1014100049464246C34605F097F9F4E5D7F88010EF
:1014200020460BF05FFB0028E8D1E9E71357053BA6
:101430002003C839001601470AD7E33FE17A644028
:1014400000007A4400004040A40D8F395A80473A8A
:1014500046A6DB3333938843002C0147C40D0100BB
:10146000A00D01002DE9F8430026D0F88C80066617
:101470008146044600F1200754F8045B41462846A3
:101480000BF030FB084950B128460BF00DFB30B192
:10149000304629460BF062F80646C9F86000BC42A7
:1014A000EAD13046BDE8F8830000704205299ABFB2
:1014B00000EB8100406E0020704700BF3E2998BFBE
:1014C00080F8A810704700BF90F89000704700BFE8
:1014D000C0F8A410704700BF80F89010704700BF9C
:1014E00030B50F4CC0F88C1083B020460D4608F084
:1014F0008BFD204608F088FD28460AF08DFC022569
:1015000002460B460095204608F0D6FD204608F01E
:101510007BFD204603B0BDE8304008F075BD00BF3C
:10152000D087FF1F70B500F531550646343500F100
:1015300028042046B434FEF799FFAC42F9D106F1F5
:10154000DC05012428460021FFF7C6FF2146284676
:101550000134FFF7B3FF3F2C05F1B405F2D142F699
:101560007C4400250548064A064B3555002130616C
:101570007161B261F361304670BD00BF00007A4412
:10158000000048430000C8C2F8B500F532570023F8
:1015900000F531563B60343600F1DC0402E0B4342F
:1015A000B4420DD02046FFF78FFF0028F7D0204629
:1015B0003D68FFF7B5F8B4342844B4423860F1D13F
:1015C0003868F8BDF8B50E46096801F47F65002952
:1015D0000446A5F5C06511DB2D0901F00F07B42302
:1015E00003FB0544283420460121FFF775FF3246EE
:1015F00039462046BDE8F840FFF7FEB90A4801F039
:101600000F0708F001FD1221084808F067FA316859
:10161000054801F0004100230A2208F005FD0248B8
:101620002D0908F0F1FCDAE7D087FF1F3C0E01001E
:10163000704700BF704700BF2DE9F0430446002308
:1016400083B0064644F8DC3B012504E001353F2D1C
:1016500004F1B40469D02046FFF736FF0028F5D026
:10166000504805F071F829464F4805F06DF82046BE
:10167000FFF7B2FA2046FFF7F5FE0AF0CDFB02466F
:101680000B464A4805F060F82046FEF7DDFF80462D
:101690002046FEF7F5FF074640460AF0BDFB8046B0
:1016A000384689460AF0B8FB42464B46CDE9000170
:1016B0003F4805F049F800212046FFF7F7FE0121D9
:1016C00080462046FFF7F2FE074640460AF0A4FB9C
:1016D0008046384689460AF09FFB42464B46CDE994
:1016E0000001344805F030F82046FFF7BBFE014604
:1016F00030680AF033FF30602046FFF735F9B169F2
:101700000BF0D2F9002833D12046FFF70DF8F1692C
:101710000BF0E8F9002899D02046FFF705F80135CD
:101720003F2DF06104F1B40495D170680AF0CAFF4E
:10173000014630680BF0CEF87169306004460BF05A
:10174000D1F900B17461316920460BF0ADF900B1F7
:1017500034610B2006F0C4FD42F67C43F35C60B9B3
:101760009BB142F67C430122F25403B0BDE8F08302
:101770002046FFF7F9F8B061C6E753B942F67C435B
:101780000022F25403B0BDE8F0830B4805F00AF8DC
:10179000E7E70A4804F0F0FF42F67C430022F254E7
:1017A000F0E700BF38100100500E01008C0E010060
:1017B000A00E0100CC0E0100E80E0100200F010078
:1017C00070B5114B836000F531550646343500F194
:1017D000DC0402E0B434AC4213D02046FFF774FEC0
:1017E0000028F7D02046FEF72FFFB1680BF05CF918
:1017F0000028EFD02046FEF727FFB434AC42B0609B
:10180000EBD1B06870BD00BF0000A04070B50023F0
:1018100000F531550646C360343500F1DC0402E0C2
:10182000B434AC4213D02046FFF74EFE0028F7D068
:101830002046FEF725FFF1680BF054F90028EFD0A1
:101840002046FEF71DFFB434AC42F060EBD1F068E7
:1018500070BD00BF0068704741607047F8B500F583
:1018600031550F461646343500F1DC0402E0B4343D
:10187000AC420FD02046FFF727FE0028F7D02046C5
:101880003946FFF725FE20463146B434FFF728FEDF
:10189000AC42EFD1F8BD00BF2DE9F84300F531555A
:1018A00042F678432E4600278046C7504FF0000985
:1018B0003435383600F1DC0402E0B434A54213D0EC
:1018C0002046FFF701FE0028F7D03368013333606C
:1018D0002046FEF735FF1D490BF004F988B9B434F2
:1018E000A54207F10107EBD142F6784358F803000F
:1018F000C01B0AF0E7FE014648460AF0EBFFBDE8D0
:10190000F8832046FEF71CFF014648460AF026FEF3
:1019100081462046FEF714FFD8F820100BF0E2F8BD
:1019200070B92046FEF70CFFD8F824100BF0BCF875
:101930000028C2D02046FEF703FFC8F82400BCE709
:101940002046FEF7FDFEC8F82000EAE700008CC242
:10195000006A7047406A7047F8B500F53155074690
:101960000026343500F1DC0402E0B434AC420FD080
:101970002046FFF7A9FD0028F7D02046FEF7A2FE7B
:10198000014630460AF0EAFDB434AC420646EFD1D7
:1019900042F67843F8580AF095FE014630460AF0C0
:1019A00099FFF8BD2DE9F04F06468FB09B488B4656
:1019B00004F072FE994804F06FFE984804F06CFE43
:1019C00042F678433046F2580D92FFF7DDFD73681A
:1019D0000C93074630680AF01FFA80463046894665
:1019E000FFF7BAFF82463046B468F568FFF754FF48
:1019F0000AF012FACDE90A01214628460AF0ACFDA8
:101A000087490AF0B3FE0AF007FACDE90801284633
:101A10000AF002FACDE9060120460AF0FDF9CDE907
:101A2000040150460AF0F8F90D9A0C9BCDE9020129
:101A3000CDE9008911467B483A4604F02DFE7748EF
:101A400004F02AFEDC364FF001084FF0000A07E0F0
:101A500008F10108B8F13F0F06F1B40600F0D58097
:101A60003046FFF731FD0028F2D03046FEF7D6FDB4
:101A70003046FEF7D7FD3046FEF7D8FD3046FEF77C
:101A8000D9FD0821684808F029F84146674808F060
:101A90000BFBB8F1090F40F3BB800221644808F04A
:101AA0001DF83046FFF7DEFC0AF0B6F95FFA8BF955
:101AB00002460B46CDF800905C4808F0FDFA012183
:101AC0005C4808F00BF85546002420E006215A48EF
:101AD00008F004F82946554808F0E6FA022157486C
:101AE00007F0FCFF21463046FEF7A8FD0AF094F906
:101AF000CDF8009002460B464C4808F0DDFA013460
:101B000001214C4807F0EAFF082C09D03D46092D79
:101B100005F10107DADC0121494807F0DFFFD5E7CD
:101B2000424808F071FA0921464807F0D7FF002122
:101B30003046FFF7BBFC0AF06FF9022402460B4661
:101B400000943A4808F0B8FA0A213F4807F0C6FF67
:101B500001213046FFF7AAFC0AF05EF90094024624
:101B60000B46324808F0A8FA0A21384807F0B6FFB9
:101B700021463046FFF79AFC0AF04EF900940246DF
:101B80000B462A4808F098FA0A21314807F0A6FFC8
:101B900003213046FFF78AFC0AF03EF90094024622
:101BA0000B46224808F088FA0A212A4807F096FFD7
:101BB00004213046FFF77AFC0AF02EF90094024621
:101BC0000B461A4808F078FA0A21234807F086FFE6
:101BD00005213046FFF76AFC0AF01EF90094024620
:101BE0000B46124808F068FA01211C4807F076FFFE
:101BF00008F101080D4808F007FAB8F13F0F0AF1A3
:101C0000080A06F1B4067FF42BAF0FB0BDE8F08FE1
:101C100001210B4807F062FF3FE700BF38100100C9
:101C200000007A44D011010070120100D087FF1F1C
:101C3000802001007C120100801201004C14010080
:101C40005C1401008812010094120100A01201002E
:101C5000AC120100B8120100C4120100D012010040
:101C60002DE9F04100F1DC0582B0012705E00137E4
:101C70003F2F05F1B40500F08B802846FFF724FCC8
:101C80000028F4D03946444808F00EFA01214348B0
:101C900007F024FF00244FF0020821462846FEF7F3
:101CA000CDFC0AF0B9F8CDF8008002460B463A4860
:101CB00008F002FA01340121384807F00FFF082C20
:101CC0004FF00206E9D100212846FFF7EFFB0AF0AA
:101CD000A3F8009602460B462F4808F0EDF90121C3
:101CE0002E4807F0FBFE01212846FFF7DFFB0AF034
:101CF00093F8009602460B46274808F0DDF90121CB
:101D0000264807F0EBFE31462846FFF7CFFB0AF0E6
:101D100083F8009602460B461F4808F0CDF90121D2
:101D20001E4807F0DBFE03212846FFF7BFFB0AF041
:101D300073F8009602460B46174808F0BDF90121DA
:101D4000164807F0CBFE04212846FFF7AFFB0AF048
:101D500063F8009602460B460F4808F0ADF90121E2
:101D60000E4807F0BBFE05212846FFF79FFB0AF04F
:101D700053F8009602460B46074808F09DF90137D4
:101D8000054808F041F93F2F05F1B4057FF475AF20
:101D900002B0BDE8F08100BFD087FF1FD412010060
:101DA000F8B53B483B4F3C4D3C4E3D4C04F074FC79
:101DB0003C4B3D4A3D485A60DF60102200273C49B9
:101DC0001A7018613B4A3C485D615E623B4D9C6104
:101DD0004FF07C563A4C1F633A4F9962DA623A49A7
:101DE00058630C2239489D635E6440F61C450A2600
:101DF0009C641F6241F20404354FD9641A650221C4
:101E00000122C3F8B8009D6600206425DE661C67C9
:101E10004FF496763224DF61DF635A275970597286
:101E20001A725A6583F840005E66DE651C669D6521
:101E30004FF47A7E5F67274E274F9867D967C3F8BC
:101E40008000C3F89440C3F8A040C3F89C00FF246E
:101E5000C3F8A820C3F8AC10052041F2883183F8FC
:101E6000BC2040F2D662C3F8B050C3F898E0C3F883
:101E70008870C3F88C60C3F8A440A3F8B600C3F818
:101E80009010A3F8B410A3F88420A3F88620F8BD1E
:101E9000D81201006666864033338340CDCCCC3DFA
:101EA000CDCC4C403493FF1F20A1070000004040E0
:101EB00000008242000020C1000020420000A0403B
:101EC0009A997940333373400AD7233D9A99993EC2
:101ED000CDCC4C3E00C0204400006842F0B54FF429
:101EE0007A6085B006F032FA00210F2006F006FA7B
:101EF00000210E2006F002FA0021112006F0FEF962
:101F00000021102006F0FAF90021122006F0F6F95F
:101F10000021132006F0F2F901210B2006F0EEF962
:101F200001210C2006F0EAF90121142006F0E6F95F
:101F30000121152006F0E2F90121162006F0DEF954
:101F40000121172006F0DAF90121052006F0D6F963
:101F50008E4C8F4D0121062006F0D0F901210D2075
:101F600006F0CCF920880AF0A9FB0146162006F0FD
:101F70002FF920880AF0A2FB0146172006F028F965
:101F800020880AF09BFB0146052006F021F92088F5
:101F90000AF094FB00240146062006F019F900948B
:101FA00023467C4A7C497D4804F0F6FDE6B2324681
:101FB00077497A4804F09EFD2B79754977486FF38D
:101FC0000003013432462B7104F08AFD082CEDD158
:101FD0000924E6B232466E49704804F08BFD2B7935
:101FE0006B496E4843F00103013432462B7104F013
:101FF00077FD0D2CEDD16A4C4FF0FF322068102197
:1020000005F096F920684FF0FF32102105F068F9CD
:1020100020684FF0FF32022105F076F920684FF07A
:10202000FF32022105F07AF900220F21206805F025
:1020300089F90C215B4807F051FD5B4807F0E4FF8C
:1020400014215A4807F04AFD574807F0DDFF56486B
:1020500007F0DAFF1721564807F040FD524807F015
:10206000D3FF544B1B789A0600F1BE80514B1B786E
:102070001B0700F1C5804F4B1B785F0700F1CC8038
:102080004C4B1B789E0700F1D3804B4B1B781D06F1
:1020900000F1DA80484B1B785C0600F1E180464B8A
:1020A0001B78980600F1E880434B1B78590700F134
:1020B000EF80414B1B781A0700F1F6803E4B1B78EE
:1020C0009B0700F1FD80384807F09EFF72B63B4A3F
:1020D0004CF220534DF62811202413802346118002
:1020E000013BFDD1364D3748374900234FF4805628
:1020F0002E8003800B8032F80E3C9BB243F0D3035A
:1021000022F80E3C62B69D2006F0DAFD21462F48EB
:102110002F4D07F0E3FC244807F076FF05F1C006D9
:102120002F462C46601B05F0EFFD04F8010BB4426E
:10213000F8D13B78102B01D0FFF732FE2548FFF78E
:1021400079FA042004F0F4F9234B224800221A60A3
:10215000FFF76EFA01210D2006F0BCF8796D1D48DD
:10216000FFF77AFB7A6C97F840101A48FFF776FB76
:102170001A4B1B491A68039203981B680293029A30
:10218000184B08601A6005B0F0BD00BF2487FF1F20
:102190000094FF1F10C3FF1F20A1070074C1FF1F81
:1021A000AC94FF1FF8120100D087FF1F0813010035
:1021B0002013010001F0074000F007400E20054009
:1021C0000420054006200540162005402414010087
:1021D0003493FF1FE094FF1F5C92FF1F1CC3FF1F7F
:1021E000DC94FF1F0894FF1F2121394807F076FC7B
:1021F000384807F009FF384B1B781B077FF53BAFCA
:102200000C21364807F06AFC324807F0FDFE324BDD
:102210001B785F077FF534AF0E21314807F05EFC75
:102220002C4807F0F1FE2C4B1B789E077FF52DAF55
:1022300017212C4807F052FC264807F0E5FE2A4BF0
:102240001B781D067FF526AF0E21284807F046FCB7
:10225000204807F0D9FE244B1B785C067FF51FAFA2
:102260001221234807F03AFC1A4807F0CDFE1E4B16
:102270001B7898067FF518AF13211E4807F02EFC37
:10228000144807F0C1FE184B1B7859077FF511AFB2
:102290001C21194807F022FC0E4807F0B5FE124B2E
:1022A0001B781A077FF50AAF1921144807F016FCAE
:1022B000084807F0A9FE0C4B1B789B077FF503AF7E
:1022C00018210F4807F00AFC024807F09DFEFAE6C5
:1022D00038130100D087FF1F01F007405C13010095
:1022E0006C1301007C13010000F0074094130100FF
:1022F000A4130100B8130100CC130100EC1301007A
:102300000814010070B5464C464D4748E668002366
:102310002B70FFF77BFA014630460AF0C5FB08B187
:1023200004232B704048FFF74BFA21690AF0BCFBED
:1023300018B12B7843F010032B703B48FFF7ACFA31
:10234000A16A0AF0CFFB18B12B7843F040032B7041
:10235000002335486B70FFF79FFAE16A314E0AF0AF
:10236000A3FB08B10123737000232F48EB70FFF724
:102370004DFA05462C482B4EFFF722FA0146284617
:102380000AF0EAF8E16B0AF0ADFB08B10123F37043
:10239000264D254800232B70FFF738FA616A064660
:1023A000E0680AF0D9F8014630460AF09BFB08B114
:1023B00004232B701C48FFF703FA616A0646206964
:1023C0000AF0CCF8014630460AF06EFB18B12B78C3
:1023D00043F010032B701448FFF75EFAA16B06461A
:1023E000A06A0AF0B9F8014630460AF07BFB18B142
:1023F0002B7843F040032B7000230B486B70FFF7E2
:102400004BFAA16B0546E06A084C0AF0A7F80146B2
:1024100028460AF049FB08B10123637070BD00BF74
:102420003493FF1F3093FF1FE094FF1F9C94FF1F06
:102430002DE9F0417C4C2368012B82B031D0022B76
:1024400000F0A880032B00F0C8803BBB774B784A94
:10245000D3F8A010D3F8A43012685B1A632B0EDDFA
:10246000744803FB02F380FB0302DB17C3EB621328
:102470001944062002B0BDE8F04105F0ABBD6E483E
:1024800003FB022380FB0302DB17C3EB2212114480
:10249000062002B0BDE8F04105F09CBD02B0BDE8E9
:1024A000F081664E33680A33B3F57A7F00F3B78064
:1024B000184633600AF006F961490AF057F9804678
:1024C0005A4DD5F8A0000AF0FDF80746D5F8A4004B
:1024D0000AF0F8F839460AF03FF841460AF046F9A2
:1024E00058490AF0F7F939460AF038F80AF01AFBA9
:1024F0000146062005F06EFD0221534807F0EEFA72
:10250000524807F081FD0621514807F0E7FA30688C
:102510000AF0D8F84A490AF029F909F07DFC0227A7
:1025200002460B460097494807F0C6FD0D21494871
:1025300007F0D4FAD5F8A0000AF0C4F88046306855
:102540000AF0C0F83E490AF011F90646D5F8A40091
:102550000AF0B8F8414609F0FFFF014630460AF09C
:1025600005F938490AF0B6F9414609F0F7FF09F0D4
:1025700053FC00970B460246344807F09DFD394650
:10258000314807F0ABFA314807F03EFD2368022BD3
:102590007FF458AF294B254E00221A60D6F8A000D0
:1025A0000AF090F80546D6F8A4000AF08BF8294600
:1025B00009F0D2FF00210AF0D9F822490AF08AF97D
:1025C000294609F0CBFF0AF0ADFA0146062005F0D6
:1025D00001FD2368032B7FF438AF184B134E4FF4E3
:1025E0007A721A60D6F8A0000AF06CF80546D6F8A0
:1025F000A4000AF067F8294609F0AEFF11490AF075
:10260000B5F810490AF066F9294609F0A7FF0AF063
:1026100089FA0146062005F0DDFC236815E7002352
:102620004FF0000833604BE78C94FF1F3493FF1F7B
:102630003087FF1F1F85EB51CBF08D286092FF1F65
:10264000CDCCCC3D0000C84280200100D087FF1FC8
:10265000481401005014010070B5A248A24C07F0C4
:10266000D3FCA04807F0D0FC9E4807F0CDFC0D211C
:102670009E4807F033FAD4F89C30012B11D09C4CC3
:102680009848217800230A2207F0CEFC2378052BF6
:1026900067D8DFE813F0E900EE00F300F800FD0072
:1026A000E4000921934807F019FA9348FFF788F8E6
:1026B00021690AF0F9F918B10F21904807F00EFAD4
:1026C0008D48FFF7A3F8E1680AF00CFA18B10E2163
:1026D0008B4807F003FA8848FFF798F805468648C4
:1026E000FFF76EF80146284609F036FFE16B0AF065
:1026F000F9F918B11121834807F0F0F97E48FFF786
:10270000CBF8A16A0AF0EEF918B10C217E4807F067
:10271000E5F97948FFF7C0F8E16A0AF0C5F918B1A0
:102720000D217A4807F0DAF9794B73481B68012BC1
:1027300000F0C280FFF744F821696B4D0AF0D2F92E
:1027400078B16D48FFF762F8E9680AF0ADF940B179
:10275000674B1B78052B00F0C08008216D4807F0FF
:10276000BDF902216C4807F0B9F9122005F0B8FD57
:10277000012800F09C80112005F0B2FD012800F036
:102780009180664B1B68012B00F087800221624814
:1027900007F0A4F9624B5348196807F085FC5148CB
:1027A00007F032FC04215F4807F098F90B2005F090
:1027B00097FD002301460A224A4807F035FC0C2009
:1027C00005F08EFD002301460A22464807F02CFC46
:1027D000142005F085FD002301460A22414807F038
:1027E00023FC152005F07CFD002301460A223D480C
:1027F00007F01AFC06214C4807F070F94B4B39489A
:1028000019680222002307F00FFC0421484807F052
:1028100065F9112005F064FD002301460A223148C4
:1028200007F002FC102005F05BFD002301460A22A0
:102830002C4807F0F9FB122005F052FD0023014659
:102840000A22284807F0F0FB132005F049FD002379
:1028500001460A222348BDE8704007F0E5BB072186
:10286000344807F03BF97CE70621334807F036F996
:1028700077E70721314807F031F972E7072130483F
:1028800007F02CF96DE708212E4807F027F968E7D3
:102890000B212D4807F022F963E711212B4807F09F
:1028A0001DF973E70A212A4807F018F969E70E2194
:1028B000284807F013F95EE7FEF782FF216A0AF065
:1028C00011F900283FF449AF1621234807F006F913
:1028D0000A21224807F002F943E70A211F4807F0BE
:1028E000FDF83EE7D087FF1F3493FF1F60140100FF
:1028F0009894FF1F70140100E094FF1F7C140100E6
:102900008C1401009C140100B0140100C0140100DB
:102910006C92FF1FF414010080200100B494FF1F8B
:102920009094FF1F6815010070150100F493FF1FBC
:10293000781501003015010000150100081501008F
:102940001C1501002415010010150100541501008B
:102950004815010038150100D0140100E8140100E9
:102960002DE9F04F934C944FE36F012B8DB000F0A5
:102970004981032B50D0914E914DA36F9148012B6B
:1029800009BF2968296801F10041296005F0AEF806
:102990003368002B40F0CE808A4805F07DF8E36F65
:1029A0003860012B064600F0D28087490AF09AF879
:1029B00078B9864930460AF077F850B9844A854B91
:1029C00012680B920B9A1A6000232B600DB0BDE8C1
:1029D000F08FDFF8FC817F4CD8F800300A930A981A
:1029E00023687D4FC01A09F069FE314609F0BEFE2A
:1029F0007A4909F06FFF794909F06CFF396809F0ED
:102A0000ADFDD8F800300993099B2360002338609E
:102A10002B600DB0BDE8F08FDFF8C881704DD8F89D
:102A20000000664E012300220F212B6004F08AFC77
:102A30002B68012B336800F00381002B40F0A68146
:102A40000021D8F80000DFF8B891664D04F0CCFC06
:102A500033681FFA80FBC9F800B0002B40F07B817F
:102A60000021D8F80000564DDFF878A104F042FCB0
:102A7000B4F8863040F6E44101FB0BF1B1FBF0F015
:102A8000C01A00B209F01EFE57498346D4F88800E8
:102A900009F06CFE0146584609F01CFFD9F80030D9
:102AA0002860632BDFF858B100F3498100232B60C5
:102AB0003368002B3FF461AF02214C4807F00EF859
:102AC000D9F80020D8F8000040F6E443002103FBC9
:102AD00002F804F00FFCB8FBF0F009F0EFFD8046BF
:102AE000B4F8860009F0EEFD0146404609F034FDD9
:102AF00009F092F94FF0020802460B46CDF800802B
:102B00003B4807F0D9FA4146384806F0E7FF286805
:102B100009F082F9CDF8008002460B46344807F0F0
:102B2000CBFA4146334806F0D9FF41462F4806F01C
:102B3000D5FF22E7234804F0AFFF09F06DF9022624
:102B400002460B4600962A4807F0B6FA24E7244BC3
:102B50001B68012B00F02681022B7FF435AF26493C
:102B600009F0C0FF30B92549304609F09DFF002823
:102B700000F04781DFF85880164CD8F800300793F2
:102B800007982368144FC01A09F098FD314609F0E0
:102B9000EDFD124909F09EFE104909F09BFE3968CF
:102BA00009F0DCFCD8F800300693069B38602360FF
:102BB0000AE700BF3493FF1F7892FF1FD894FF1FCE
:102BC0006892FF1F0C93FF1F0000FA430000FAC336
:102BD0001CC3FF1FA894FF1F8492FF1F00007A44AC
:102BE0005087FF1FAC94FF1F17B7D138802001001A
:102BF000D087FF1FBC15010000C82F4800A08CC65D
:102C00002C93FF1F3D689849284609F04DFF30B1CD
:102C10002846964909F066FF00287FF4FDAEDFF8EC
:102C20005882934DD8F80000924E022300220E21C4
:102C30002B6004F087FB2B68012B33687FF4FDAE1B
:102C4000002B40F000810021D8F80000DFF86C92E2
:102C5000894D04F0C9FB33681FFA80FBC9F800B046
:102C6000002B40F0D5800021D8F80000834D04F0FF
:102C700041FBB4F8843040F6E44A0AFB0BFBBBFB93
:102C8000F0F0C01A00B209F01DFD7D498346D4F86A
:102C90008C0009F06BFD0146584609F01BFED9F87F
:102CA000003028600021D8F800000AFB03FA04F085
:102CB00021FBB4F88430BAFBF0F00FFA80FAC3EBD2
:102CC0000A03002BB4F8B620B8BF5B429342BCBFE6
:102CD00000232B603368002B3FF44FAE022169487C
:102CE00006F0FCFED9F80020D8F8000040F6E443D6
:102CF000002103FB02F804F0FDFAB4F88410B8FBDD
:102D0000F0F000B2411A604807F0CEF902215D48A8
:102D100006F0E4FE286809F07FF84FF0020802464A
:102D20000B46CDF80080584807F0C6F903215748F4
:102D300006F0D4FE4146534806F0D0FE1DE6DAF810
:102D40000000002104F0D6FADBF800306438984225
:102D5000FFF4ACAEACE60021286804F0CBFA40F6F4
:102D6000E44100230A2201FB0BF1B1FBF0F14648DC
:102D700007F05AF90221434806F0B0FEB4F8861075
:102D8000414807F091F9D9F800B069E63E4807F0EC
:102D90003BF90C213E4806F0A1FE0C213D4806F00F
:102DA0009DFE4DE63C4909F09DFE58B93B49304631
:102DB00009F07AFE30B93A4A3A4B12680592059A00
:102DC0001A6001E6DFF8D880364CD8F8003004935A
:102DD00004982368344FC01A09F070FC314609F09A
:102DE000C5FC324909F076FD304909F073FD3968B8
:102DF00009F0B4FBD8F800300393039B38602360DC
:102E0000E2E5274A274B12680892089A1A60DBE528
:102E10000021286804F06EFA40F6E44100230A22FB
:102E200001FB0BF1B1FBF0F1174807F0FDF80121B0
:102E30001F4806F053FEB4F88410134807F034F925
:102E4000D9F800B00FE7104807F0DEF8E36F012B68
:102E50004FF00B010CBF1748174806F03FFE0C213E
:102E60000C4806F03BFEEEE600709446007094C6F7
:102E70005087FF1FD894FF1FAC94FF1F6892FF1F5D
:102E800017B7D13880200100D087FF1FA815010097
:102E9000AC150100981501000000FA430000FAC3C8
:102EA0001CC3FF1FA894FF1F8492FF1F00007A44D9
:102EB0005C140100801501008C1501002C93FF1F8C
:102EC0002DE9F047B24D2B6884B0002B7ED0B14C79
:102ED000DFF8C882B04EE36FAE4D012B00F08F805B
:102EE000D4F88030AB4F012B00F0BC80D6F80090B6
:102EF000D7F858A07D6DA94F05FB0AF54FF47A70FD
:102F000000FB05F009F0DEFBA5490546484609F03F
:102F10002DFC294609F0DEFCA24909F027FC09F046
:102F200001FE6328C8F800004BDD28469C4909F0E3
:102F3000D1FC642330603B609B4B1B68002B3DD071
:102F4000E36F944D012B00F0BB80032B00F009814F
:102F5000022B00F00C810221944806F0BFFD944B37
:102F6000186808F059FF022402460B460094914865
:102F700007F0A2F82146904806F0B0FD21468B48A4
:102F800006F0ACFDD8F800108A4807F08DF806214D
:102F90008A4806F0A3FD3068814909F0E7FB08F094
:102FA0003BFF009402460B46824807F085F8032158
:102FB000834806F093FD7F4807F026F804B0BDE88B
:102FC000F0870028BCBF00233B60B5E77D4E714C05
:102FD00033680293029A42F228339A4200F2BA808E
:102FE00033680393039A42F210739A4274D8E36FE2
:102FF000DFF8A881684E674D012B7FF471AF7248EE
:10300000FEF7AAFC7149D5F86890EF6E09F0AEFBA7
:1030100009F0AEFD2A6F6B6FC9EB0202DB1B80B2B9
:103020009A42C9EB000040F3AD8003FB0000531C43
:1030300090FBF3F31F44A06D636DC8F8007000FBB4
:1030400007F003FB00F000EB8000400009F03AFBC2
:103050005349504F09F03EFCD4F880303060012BCA
:103060007FF444AF5848FEF777FC5849D7F868908A
:10307000FD6E09F07BFB09F07BFD3A6F7B6FD4F8A6
:1030800058A0C9EB02025B1B80B29A42C9EB000058
:10309000C6BF03FB00000132584390FBF2F0284406
:1030A000656D00FB0AF005FB00F000EB80004000BE
:1030B00009F008FB3A4909F00DFC814630601AE737
:1030C000434B1B68012B4FF00A010CBF414842489B
:1030D00006F004FDEB6F38E73B48FEF73DFC3B494B
:1030E000A76EE66E09F042FB09F042FD226F636FA6
:1030F000D21B9B1B80B29A42A0EB07003CDD03FB76
:103100000000531C90FBF3F39819A26DDFF88C803C
:10311000636DC8F8000002FB00F003FB00F000EB59
:103120008000400009F0CEFA1D491B4E09F0D2FB89
:103130000123306002211D482B6006F0CFFC1D48A2
:1031400006F062FF5921254806F0C8FC194806F030
:103150005BFFC0E61C48626C94F84010FEF77EFBF3
:103160003EE710211E4806F0B9FCE36FF0E60721A8
:103170001C4806F0B3FCEEE603FB00F393FBF2F30E
:103180009819C2E703FB00F393FBF2F31F4452E7E5
:103190006492FF1F3493FF1F8492FF1F3087FF1F2D
:1031A000E4388E3E0000C8423887FF1F80200100AF
:1031B0007892FF1FD087FF1FBC1501005016010039
:1031C000581601001CC3FF1FE094FF1F00007A4443
:1031D0005087FF1F1C16010028160100C0150100B2
:1031E0003416010048160100F0B5112083B005F037
:1031F00077F8012813D000210B2005F06BF800218F
:103200000C2005F067F80021152005F063F81D4932
:103210001D4B0120002208701A6003B0F0BD01466A
:103220000446152005F056F81849194A194B096843
:103230000191D2F890001B680199134D03440226B6
:103240008B422E6017D8D2F8980009F03BFA124B47
:10325000196809F029FC074668B921460B2005F0DA
:1032600039F8084A032339460C2016702B6005F004
:1032700031F803B0F0BD01210C2005F02BF803B0AC
:10328000F0BD00BF9894FF1FD494FF1F1CC3FF1F05
:103290003493FF1FDC94FF1F7892FF1FF0B5684E38
:1032A000684D34682B689C4287B039D014F0010116
:1032B00055D014F0020149D014F004013DD0E307C9
:1032C0000ED52B68DF070BD45F4F3A68002A00F059
:1032D00082805E4B1B680193019B93426DD83468DA
:1032E000A0070DD52B6899070AD4594F3A68002AD0
:1032F0004CD0564B1B680393039B934238D83468D9
:1033000062070DD52B685B070BD4524F3A68002A31
:103310007ED04E4B1B680593059B934268D834685A
:103320000CB107B0F0BD2146162004F053FE214633
:10333000172004F04FFE07B0F0BD052004F04AFE50
:103340002B68346803F0FB032B60B8E7172004F008
:1033500041FE2B68346803F0FD032B60ACE71620B8
:1033600004F038FE2B68346803F0FE032B60A0E7FE
:10337000394B1720D3F8941004F02CFE2B683468D6
:1033800043F0020300222B603A60B9E7334806F0AD
:103390003BFE0C21324806F0A1FB304806F034FE1B
:1033A000FF21172004F016FE284B2E4A19680291BF
:1033B000029912680A443A609CE7274B1620D3F81A
:1033C000941004F007FE2B68346843F001030022D8
:1033D0002B603A6084E7FF21162004F0FBFD1B4BB5
:1033E000204A19680091009912680A443A6071E70E
:1033F000194B0520D3F8941004F0ECFD2B683468C9
:1034000043F0040300222B603A60002C89D18AE744
:10341000124806F0F9FD0C21134806F05FFB0F4837
:1034200006F0F2FDFF21052004F0D4FD074B0D4A04
:1034300019680491049912680A443A606AE700BF67
:10344000D494FF1FF493FF1F7094FF1F1CC3FF1F32
:103450007494FF1F7894FF1F3493FF1FD087FF1FC2
:103460005C1601006887FF1F6C1601002DE9F0470C
:10347000544EDFF87481DFF874913068524D0022A9
:103480000F2103F05FFF0023012222214F48C8F8DB
:103490000030C9F8002006F021FBD8F80030132BCB
:1034A00022DC40F6E44700213068B5F884A003F040
:1034B0009BFF00210446306803F01CFFA4B20121E9
:1034C00007FB04F4B4FBF0F441485444A5F88440ED
:1034D00006F004FB642004F039FFD8F80030013313
:1034E000132BC8F80030DEDDB5F88430394A3A488D
:1034F000A2FB03129B1A02EB5303C3F30F131946EB
:10350000A5F8843006F0D0FD1D21344806F0E6FA17
:103510000221334806F0E2FA2F4806F075FD002339
:103520001A460E213068C8F8003003F00BFF022362
:1035300022212648C9F8003006F0D0FAD8F8003029
:10354000132B22DC40F6E44700213068B5F8869062
:1035500003F04AFF00210446306803F0CBFEA4B21A
:10356000012107FB04F4B4FBF0F419484C44A5F81E
:10357000864006F0B3FA642004F0E8FED8F8003084
:103580000133132BC8F80030DEDDB5F88630114A60
:103590001148A2FB03129B1A02EB5303C3F30F1350
:1035A0001946A5F8863006F07FFD1D210D4806F06E
:1035B00095FA02210A4806F091FA0748BDE8F0475B
:1035C00006F022BDAC94FF1F3493FF1F7C16010050
:1035D000C016010087611886D087FF1FA016010062
:1035E00080200100C41601009494FF1F5087FF1F24
:1035F000F8B5774B774C784D1B68286D40F2513108
:1036000008222160E271002B00F0DD8009F05AF8F9
:10361000296A064609F0AAF8704909F0A7F809F0E6
:10362000A7FA80B2031263726D4A6E4B12681B6870
:10363000A96920721512A37230461B12E37222731D
:10364000657309F093F8654909F090F809F090FA6C
:1036500083B21A125F496448A373E27303F094FCC7
:10366000624B634A1B6812885A49A272DFB207EBA9
:10367000870603EB8305760045F3D71512121B125C
:103680002772267365730826002540F25537564881
:10369000E27263722760E671A573E57303F074FC50
:1036A00040F2563353482360E671FEF7D3F852498F
:1036B00009F05CF809F05CFA20724E48FEF7CAF88F
:1036C0004D4909F053F809F053FA4C4A4A49C0F3FE
:1036D00007231068637209F0FDF809F023FA40FA35
:1036E00006F203464348E272A372FEF7D5F83B495F
:1036F00009F03CF809F03CFA20733E48FEF7CCF89C
:10370000364909F033F809F033FA3249A573C0F3AA
:10371000072335486373E57303F036FC022004F099
:1037200015FE374B2B49187893F801E09F78DA782B
:10373000207240F25A332C48E67125736573A573E5
:10374000E57384F809E0A772E272236003F01CFCC1
:103750002C4B204918785D789A782072187993F864
:1037600003E05F796572A2729D79DA79207340F285
:103770005E331D4884F80BE0E2732360E6716773E3
:10378000A57303F001FC022004F0E0FD1E4BE6717E
:103790001D785A7893F802E0D8781F795E792572FF
:1037A00062729D79DA79E0724FF45C7384F80AE012
:1037B00027736673A573E273236006490A48BDE860
:1037C000F84003F0E1BB08F07DFF6969064621E798
:1037D0006C92FF1FC494FF1F3493FF1F0000204111
:1037E000A494FF1F5492FF1F74C1FF1F3087FF1F57
:1037F0003487FF1FE094FF1F0000C8427892FF1F2C
:103800003093FF1F2887FF1F5487FF1F38B5284BB1
:103810001B68012B00D038BD264D2748FDF7D0FF8F
:10382000E96C08F09BFE04462348FDF7EFFF0146D4
:10383000204609F039F90028EDD0204C1E4840F20E
:10384000C33208232260E371FDF7BAFFAD6C29464D
:1038500009F02AF9B8B11A49284608F087FF09F09B
:1038600087F980B203126072237200230122A272D0
:10387000E37223736373A373E37310491148BDE8C4
:10388000384003F081BB0C48FDF79AFF0C4908F063
:103890006DFF09F06DF9C0F3072307482372FDF7A8
:1038A0008FFF074908F062FF09F062F96072DCE7F8
:1038B000B494FF1F3493FF1FE094FF1FC494FF1FB5
:1038C0000000C84274C1FF1FF0B59C4C9C4D83B0F2
:1038D00006F09EF823682860042B00F0AC82022BCF
:1038E0004BD0082B00F09280072B40F051813328F9
:1038F00001F0D68300F3AD80312801F0E483322853
:1039000040F0B08006F0C0F8002840F33F818D48B9
:103910008D4E06F00BFD08F0D5FE8C4908F026FF11
:1039200061230122F06322602B601846A0F152034C
:103930001F2B01F2A583DFE813F0360BA30BA30BBB
:10394000A30BA30BA30BA30BA30BA30BA30BA30B07
:10395000A30BA30BA30BA30BB203BC0C3905A70548
:103960007304A30BA30BA30B2604A30BBF0CA30B85
:10397000A30BA30BA30BA30B240BA0F13102422A30
:1039800070D8DFE812F022072E07E606F3060607D6
:1039900015076F006F006F006F006F006F006F0002
:1039A0006F006F006F006F006F006F006F006F009F
:1039B0006F006F006F006F006F006F006F006F008F
:1039C0006F006F006F006F006F006F006F006F007F
:1039D0006F006F006F006F006F006F006F006F006F
:1039E0006F006F006F006F006F00D3066F006F00F5
:1039F0006F006F006F006F006F006F006F006F004F
:103A00006F006F006F006B006F00D906322800F066
:103A10002F83712822D0312824D106F035F80028D0
:103A200040F342864748484E06F080FCC0B286F814
:103A30004000022894BF01460021726C444888BFB0
:103A400086F84010FDF70AFF0123692023602860F3
:103A50006CE7342801F04D83712803D100237320D3
:103A600023602860002B08BF73280CBF01200020B2
:103A7000002860D0334806F0C7FA0421354806F024
:103A80002DF8304806F0C0FA1021334806F026F829
:103A90002C4806F0B9FA1321304806F01FF8304BD5
:103AA0002848196806F000FB264806F0ADFA1421F4
:103AB0002C4806F013F8234806F0A6FA1E212A48DF
:103AC00006F00CF81F4806F09FFA1521274806F06B
:103AD00005F81C4806F098FA1E21254805F0FEFF5F
:103AE000184806F091FA2021224805F0F7FF154802
:103AF00006F08AFA1921204805F0F0FF114806F077
:103B000083FA12211D4805F0E9FF0E4806F07CFA01
:103B10000F211B4805F0E2FF0A4806F075FA0D2157
:103B2000184805F0DBFF074806F06EFA164A002138
:103B300001231160236003B0F0BD00BF8892FF1F16
:103B40007492FF1FD087FF1F3493FF1F6F12833AB9
:103B5000E094FF1FFC1E0100041F0100181F01005C
:103B60002087FF1F2C1F0100441F0100641F01005C
:103B70007C1F01009C1F0100C01F0100DC1F010011
:103B8000F01F0100002001003887FF1F236828680C
:103B9000062B40F08D80A0F13102402A3FF662AF43
:103BA00001A151F822F000BFDF4500000B460000E4
:103BB000374600005D46000083460000BB4500001C
:103BC000653A0000653A0000653A0000653A000079
:103BD000653A0000653A0000653A0000653A000069
:103BE000653A0000653A0000653A0000653A000059
:103BF000653A0000653A0000653A0000653A000049
:103C0000653A0000653A0000653A0000653A000038
:103C1000653A0000653A0000653A0000653A000028
:103C2000653A0000653A0000653A0000653A000018
:103C3000653A0000653A0000653A0000653A000008
:103C4000653A0000653A0000653A0000653A0000F8
:103C5000653A0000653A0000653A0000653A0000E8
:103C6000653A0000653A0000653A0000653A0000D8
:103C7000653A0000653A0000653A0000653A0000C8
:103C8000653A0000653A0000653A0000653A0000B8
:103C9000653A0000653A0000653A0000653A0000A8
:103CA000653A0000653A00005D3A00002368286824
:103CB000052B15D1332801F0638240F34781352865
:103CC00001F05082C1F2278271287FF4CBAEDC4A2A
:103CD00000237320136023602860C3E623682868EC
:103CE000032B40F0A480A0F13002422A3FF6BAAE86
:103CF00001A151F822F000BF053E0000334F000043
:103D00005B4F0000174E0000394E00005B4E000074
:103D1000834E0000AB4E0000C94E0000ED4E000087
:103D2000653A0000653A0000653A0000653A000017
:103D3000653A0000653A0000653A0000653A000007
:103D4000653A0000653A0000653A0000653A0000F7
:103D5000653A0000653A0000653A0000653A0000E7
:103D6000653A0000653A0000653A0000653A0000D7
:103D7000653A0000653A0000653A0000653A0000C7
:103D8000653A0000653A0000653A0000653A0000B7
:103D9000653A0000653A0000653A0000653A0000A7
:103DA000653A0000653A0000653A0000653A000097
:103DB000653A0000653A0000653A0000154F0000C2
:103DC000E74800003B4D0000654D0000834D0000BA
:103DD000D74D00009D480000C1480000653A000032
:103DE000653A0000653A0000653A0000653A000057
:103DF000653A0000653A0000653A0000594D000040
:103E0000A14D000005F040FE002841F342818D489D
:103E10008D4E06F08BFA01270346014662228B483D
:103E2000736527602A60FDF717FD23682868012B5A
:103E30007FF418AE7AE5A0F13102402A3FF612AEC7
:103E400001A151F822F000BFFF4700001748000011
:103E50001B48000041480000814800004548000020
:103E6000574800005B4800005F480000653A0000CA
:103E7000653A0000653A0000653A0000653A0000C6
:103E8000653A0000653A0000653A0000653A0000B6
:103E9000653A0000653A0000653A0000653A0000A6
:103EA000653A0000653A0000653A0000653A000096
:103EB000653A0000653A0000653A0000653A000086
:103EC000653A0000653A0000653A0000653A000076
:103ED000653A0000653A0000653A0000653A000066
:103EE000653A0000653A0000653A0000653A000056
:103EF000653A0000653A0000653A0000653A000046
:103F0000653A0000653A0000653A0000653A000035
:103F1000653A0000653A0000653A0000653A000025
:103F2000653A0000653A0000653A0000653A000015
:103F3000653A0000653A0000653A0000653A000005
:103F4000653A0000653A00005D3A0000312801F052
:103F5000F88032287FF486AD05F096FD00287FF7C3
:103F6000BDAE3848384E06F0E1F901226B23C6F8A1
:103F7000980022602B6001E005F04AFD05F084FD09
:103F80000028F9D12F4806F03FF82E4806F03CF8FB
:103F90002C4806F039F82B4806F036F8294806F088
:103FA00033F821212A4805F099FD264806F02CF81F
:103FB0001521284805F092FDD6F89010214806F00A
:103FC00073F80221244805F089FD1E4806F01CF80C
:103FD0001E21224805F082FDD6F89810194806F0F7
:103FE00063F803211E4805F079FD164806F00CF829
:103FF0001E211C4805F072FDD6F89410114806F0F9
:1040000053F8104806F000F81D21174805F066FD2A
:10401000D6F8A0100B4806F047F80A4805F0F4FF60
:104020001E21124805F05AFDD6F8A410054806F0E6
:104030003BF8044805F0E8FF052323607BE500BF5B
:104040008C94FF1FD087FF1F3493FF1FE094FF1F46
:10405000741901009819010084180100B0190100B9
:10406000A8150100D0190100F0190100101A010073
:1040700005F00AFD002840F31383B248B24E06F063
:1040800055F908F01FFBB14908F070FB03460246E2
:1040900096F84010AE487364D4E405F0B9FC05F01E
:1040A000F3FC05460028F8D1A648A74E05F0ACFF62
:1040B000A44805F0A9FFA34805F0A6FFA14805F014
:1040C000A3FFA04805F0A0FF1F21A24805F006FDB0
:1040D0009C4805F099FF1C219F4805F0FFFC706A81
:1040E0009E4908F043FB07F097FE009502460B46F9
:1040F000944805F0E1FF0221994805F0EFFC914852
:1041000005F082FF2321974805F0E8FCF06B934906
:1041100008F02CFB07F080FE009502460B4689480C
:1041200005F0CAFF02218E4805F0D8FC854805F04D
:104130006BFF19218C4805F0D1FCB06B07F06CFEC9
:1041400002250B46024600957E4805F0B5FF29463C
:10415000864805F0C3FC7B4805F056FF19218448CA
:1041600005F0BCFCB6F8B410764805F09DFF0321BD
:10417000804805F0B3FC734805F046FF0723236031
:10418000D9E405F045FC05F07FFC05460028F8D190
:104190006C486D4E05F038FF6A4805F035FF6948F8
:1041A00005F032FF674805F02FFF664805F02CFF49
:1041B0001521714805F092FC624805F025FF182191
:1041C0006E4805F08BFC2B460A2296F840105D489D
:1041D00005F02AFF5B4805F017FF2821684805F025
:1041E0007DFC706C5D4908F0C1FA07F015FE009582
:1041F0000B460246534805F05FFF0221584805F080
:104200006DFC504805F000FF13215E4805F066FC88
:104210004C4805F0F9FE082323608CE405F0F8FB18
:1042200005F032FC05460028F8D14648464E05F018
:10423000EBFE444805F0E8FE424805F0E5FE414843
:1042400005F0E2FE3F4805F0DFFE11214E4805F083
:1042500045FC3C4805F0D8FE28214C4805F03EFCC2
:1042600070693E4908F082FA07F0D6FD00950246D3
:104270000B46344805F020FF0221394805F02EFC9A
:10428000304805F0C1FE1621414805F027FCF069D1
:10429000324908F06BFA07F0BFFD00950B46024665
:1042A000284805F009FF02212D4805F017FC254894
:1042B00005F0AAFED6F8AC30002B32DD1D213548C2
:1042C00005F00CFCF06D08F0FDF9334908F04EFAEA
:1042D00007F0A2FD022502460B460095194805F09D
:1042E000EBFE01212D4805F0F9FB164805F08CFE88
:1042F0001F212B4805F0F2FB306E08F0E3F9264948
:1043000008F034FA07F088FD009502460B460D4888
:1043100005F0D2FE0121214805F0E0FB094805F037
:1043200073FE11211F4805F0D9FBD6F8AC30052BE0
:1043300000F25686DFE813F090068B0650069F06C3
:104340009A069506D087FF1F3493FF1F6F12833A9A
:10435000E094FF1FD0180100F018010000007A441B
:104360005C170100101901003419010050190100F7
:104370005419010070190100C41F01001417010035
:104380003017010060170100681F01007417010059
:10439000A0170100B8170100CDCCCC3D541C010082
:1043A000D8170100F817010005F032FB05F06CFB8F
:1043B0000028F9D1BF48C04E05F026FEBD4805F0E3
:1043C00023FEBC4805F020FEBA4805F01DFEB948A2
:1043D00005F01AFE1F21B94805F080FBB54805F02D
:1043E00013FE1E21B64805F079FBB24805F00CFE1D
:1043F0001A21B44805F072FBF36F022B00F02887F6
:10440000032B00F01C87012B00F02B870921AE48FD
:1044100005F064FBA74805F0F7FD1421AB48A64F53
:1044200005F05CFBB16FA34805F03EFEA14805F026
:10443000EBFD1C21A64805F051FBD6F880109D48E5
:1044400005F032FE9B4805F0DFFD1C21A14805F078
:1044500045FBD6F8A810974805F026FE954805F0CC
:10446000D3FDF56F25F00205012D00F0A286132182
:10447000994805F033FB8F4805F0C6FD0223236001
:10448000FFF759BB05F0C4FA05F0FEFA0028F9D190
:10449000884805F0B9FD874805F0B6FD854805F068
:1044A000B3FD844805F0B0FD824805F0ADFD132151
:1044B0008A4805F013FB7F4805F0A6FD0D218848CA
:1044C00005F00CFB7B4805F09FFD0F21854805F0AA
:1044D00005FB854B7748196805F0E6FD754805F042
:1044E00093FD1321814805F0F9FA814B7148196851
:1044F00005F0DAFD6F4805F087FD12217D4805F0D3
:10450000EDFA7D4B6B48196805F0CEFD694805F062
:104510007BFD1121794805F0E1FA794B654819686E
:1045200005F0C2FD634805F06FFD0E21754805F0EA
:10453000D5FA614B5F48D3F89C1005F0B5FD5D4896
:1045400005F062FD1921704805F0C8FA6F4B594813
:10455000196805F0A9FD574805F056FD11216C4872
:1045600005F0BCFA6B4B5348196805F09DFD5148A6
:1045700005F04AFD1021684805F0B0FA674B4D4838
:10458000196805F091FD4B4805F03EFD1C2164487B
:1045900005F0A4FA634B4748196805F085FD4548C6
:1045A00005F032FD13214C4805F098FA414805F01A
:1045B0002BFD04232360FFF7BEBA05F065FA00283F
:1045C0007FF774AB3B483C4E05F0B0FE65230122FB
:1045D000C6F8B00022602B601846FFF7A7B905F0B7
:1045E00053FA00287FF762AB3248334E05F09EFE47
:1045F00008F068F84C4908F06DF9652301227061F4
:1046000022602B601846FFF791B905F03DFA0028AB
:104610007FF74CAB2748284E05F088FE08F052F88B
:10462000414908F057F965230122F06122602B60AF
:104630001846FFF77BB905F027FA00287FF736AB5D
:104640001C481D4E05F072FE00EB80004300012265
:104650006520F36522602860FFF768B905F014FA59
:1046600000287FF723AB1348134E05F05FFE00EBE5
:104670008000430001226520336622602860FFF736
:1046800055B90D4AD2F8AC300133052BC8BF002311
:10469000C2F8AC306520012323602860FFF746B9DB
:1046A00023682868FFF720B9034E96F84000FFF70B
:1046B000C0B900BFD087FF1F3493FF1F141B010038
:1046C000341B0100541B0100CC1B0100D81B01004E
:1046D000F01B0100101C010060170100301A0100DE
:1046E000441A0100541A01006C94FF1F641A01005F
:1046F000D894FF1F781A0100BC94FF1F8C1A010088
:10470000C094FF1FA01A0100B01A01009094FF1F6F
:10471000CC1A01008C94FF1FE01A01007092FF1F59
:10472000F41A01005C87FF1F00007A44FEF79EFE2A
:1047300023682868FFF7D5B8724AD36F0133032B7B
:10474000C8BF0023D3670123632023602860FFF7DD
:10475000EDB80123236005F097F90028F3DD6A48DE
:10476000684E05F0E3FDC6F8A800ECE701232360DE
:1047700005F08AF9002807DD6348624E05F0D6FD92
:1047800007F0A0FFC6F88C00632028602368FFF7BD
:10479000ABB80123236005F077F90028F4DD5A480F
:1047A000584E05F0C3FD07F08DFFC6F88800EBE713
:1047B0000123236005F068F90028E5DD5248514ED9
:1047C00005F0B4FDA6F8B600DEE74E4EB36FB3FABF
:1047D00083F35B0901226320B36722602860FFF73F
:1047E000A5B8484ED6F88030B3FA83F35B090122AE
:1047F0006320C6F8803022602860FFF797B8434AEC
:104800001368B3FA83F35B0901216420136021600C
:104810002860FFF78BB83E4AF2E73E4A3E4F1368E6
:10482000002B0CBF012300234FF001001360206018
:1048300040F0EF84034664222A606420FFF751B8F9
:10484000364ADDE7012336482360FCF79DFE354AF2
:1048500023681060EFE7344AD2E7344AD0E70123F7
:10486000236005F011F9002800F39B84304B1A688F
:10487000042AC4BF02221A6064232B602368DCE789
:10488000204ED6F89C30B3FA83F35B0901226420F2
:10489000C6F89C3022602860FFF748B805F0F4F8AD
:1048A00000280DDD1848174E05F040FD07F00AFFFF
:1048B000204908F00FF801226223306222602B6049
:1048C00005F0E2F800280EDD0F480E4E05F02EFD33
:1048D00007F0F8FE174907F0FDFF01226223C6F832
:1048E000B80022602B6005F0CFF8002840F3D18398
:1048F0000548044E05F01AFD01226223B0662260CD
:104900002B601BE03493FF1FD087FF1F6C94FF1FA9
:10491000D894FF1FBC94FF1F8892FF1FC094FF1FF5
:10492000E094FF1F9094FF1F8C94FF1F7092FF1F55
:104930005C87FF1F00007A4405F06AF805F0A4F8D0
:1049400005460028F8D1C24805F05EFBC04805F0D6
:104950005BFBBF4805F058FBBD4805F055FBBC4864
:1049600005F052FB1521BB4805F0B8F8B84805F032
:104970004BFB1421B84805F0B1F8B54805F044FBED
:104980001B21B64805F0AAF8B14805F03DFB1321FC
:10499000B34805F0A3F8AE4805F036FBAC4805F087
:1049A00033FBAB4805F030FB2021AE4805F096F80C
:1049B000F068AD4907F0DAFE07F02EFA00950246DE
:1049C0000B46A34805F078FB0221A84805F086F8BD
:1049D0000221A74805F082F89D4805F015FB21212A
:1049E000A44805F07BF830699F4907F0BFFE07F047
:1049F00013FA009502460B46954805F05DFB02212F
:104A00009A4805F06BF80221994805F067F890483C
:104A100005F0FAFA1F21984805F060F8B06A07F02F
:104A2000FBF9022702460B460097894805F044FB34
:104A30000121924805F052F839468D4805F04EF8AC
:104A4000834805F0E1FA20218D4805F047F8F06A27
:104A500007F0E2F9009702460B467D4805F02CFB73
:104A60000121864805F03AF83946814805F036F8C4
:104A7000774805F0C9FA2321824805F02FF8B06C79
:104A8000794907F073FE07F0C7F9009502460B4617
:104A90006F4805F011FB3946744805F01FF8394698
:104AA000734805F01BF86A4805F0AEFA1F217648F6
:104AB00005F014F8F06C6C4907F058FE07F0ACF9FB
:104AC000009502460B46624805F0F6FA39466748FB
:104AD00005F004F83946664805F000F85C4805F032
:104AE00093FA1921694804F0F9FFB16D584805F0AF
:104AF000DBFA3946664804F0F1FF39465C4804F0B9
:104B0000EDFF534805F080FA1821624804F0E6FFF3
:104B1000706E07F0D7FD604907F028FE07F07CF9BA
:104B2000009702460B464A4805F0C6FA01215B4849
:104B300004F0D4FF39464E4804F0D0FF444805F055
:104B400063FA2B21564804F0C9FFB069464907F0C3
:104B50000DFE07F061F9009502460B463C4805F052
:104B6000ABFA3946414804F0B9FF3946404804F0F1
:104B7000B5FF374805F048FA1F214A4804F0AEFF58
:104B8000716D334805F090FA3946394804F0A6FFB4
:104B90002F4805F039FA2021434804F09FFF316D7A
:104BA0002B4805F081FA3946314804F097FF284830
:104BB00005F02AFA10213D4804F090FFB16E244818
:104BC00005F072FA3946294804F088FF394628482A
:104BD00004F084FF1E4805F017FA1321344804F04E
:104BE0007DFFF16E1A4805F05FFA0121314804F0AB
:104BF00075FF39461E4804F071FF154805F004FAA8
:104C000010212D4804F06AFF316F114805F04CFA6D
:104C10003946164804F062FF3946154804F05EFF35
:104C20000B4805F0F1F91421244804F057FF716F87
:104C3000074805F039FA01211E4804F04FFF3946B4
:104C40000B4804F04BFF024805F0DEF9162137E06F
:104C5000D087FF1F9C1C0100B41C0100CC1C01006C
:104C600060170100E81C010000007A445C17010095
:104C7000802001000C1D0100301D0100D012010038
:104C8000501D0100741D0100981D0100B81D010098
:104C9000D41D0100D81D0100CDCCCC3D541C010019
:104CA000F41D0100201E0100401E0100641E0100D1
:104CB000781E01008C1E0100901E0100A41E010040
:104CC000BA4804F00BFF306AB94907F04FFD07F00E
:104CD000A3F8009502460B46B64805F0EDF93946B3
:104CE000B54804F0FBFE3946B44804F0F7FEB1487D
:104CF00005F08AF92421B24804F0F0FED6F8B80095
:104D0000AB4907F033FD07F087F800950B460246E4
:104D1000A84805F0D1F93946A74804F0DFFE394626
:104D2000A64804F0DBFEA34805F06EF9A14805F0A3
:104D30006BF903232360FEF7FEBE04F0A5FE0028F6
:104D400040F3A7819B489F4E05F0F0FA01226223B1
:104D5000F06622602B60F1E50022732322602B6055
:104D6000FEF788BE04F090FE002840F3928191483F
:104D7000944E05F0DBFA01226223306722602B603B
:104D8000DCE504F081FE002840F3838189488D4EE4
:104D900005F0CCFA01226223706722602B60CDE51A
:104DA000894B8648874E002202211A6004F096FE45
:104DB000804805F029F90B21844804F08FFE022178
:104DC0007E4804F08BFE7B4805F01EF90122622329
:104DD00022602B60B2E5FCF7E3FF02217748794EB1
:104DE00004F07CFE734805F00FF90221734804F0CB
:104DF00075FE704805F008F90221704804F06EFE57
:104E00006C4805F001F91721714804F067FE694804
:104E100005F0FAF8D3E704F037FE002840F33981B3
:104E20006448684E05F082FA07F04CFC01226223C8
:104E3000B06222602B6081E504F026FE002840F37A
:104E400028815C485F4E05F071FA07F03BFC0122B7
:104E50006223F06222602B6070E504F015FE0028EA
:104E600040F317815348574E05F060FA07F02AFCCB
:104E70004F4907F02FFD01226223B06422602B60AE
:104E80005CE504F001FE002840F3038149484D4EE3
:104E900005F04CFA07F016FC454907F01BFD01220E
:104EA0006223F06422602B6048E504F0EDFD0028E9
:104EB00040F3EF803F48434E05F038FA0122622369
:104EC000B06522602B6039E504F0DEFD002840F378
:104ED000E08038483B4E05F029FA00EB80004300A3
:104EE00001216222736621602A6027E504F0CCFD6F
:104EF000002840F3CE802F48324E05F017FA07F015
:104F0000E1FB2B4907F0E6FC01226223B06122603D
:104F10002B6013E504F0B8FD002840F3BA80254863
:104F2000284E05F003FA01226223306522602B60CF
:104F300004E504F0A9FD002840F3AB801D48214E94
:104F400005F0F4F907F0BEFB194907F0C3FC012294
:104F50006223F06022602B60F0E404F095FD0028ED
:104F600040F397801348174E05F0E0F907F0AAFBCD
:104F70000F4907F0AFFC01226223306122602B60F1
:104F8000DCE4C02200210F4802F0D8FE2868114A54
:104F9000A0F1730001210023B0FA80F040091160F4
:104FA0002360FEF765BD04F063F800BFBC1E01007E
:104FB00000007A44D087FF1F5C17010080200100A9
:104FC000D41E01003493FF1F6492FF1F08170100D5
:104FD000F01601003887FF1F0C21B94804F07EFD50
:104FE000B848B94D05F010F8D6F8AC30002B0FDDFD
:104FF0001821B64804F072FDD5F8B010B14805F09C
:1050000053F80221B24804F069FDAE4804F0FCFFF9
:10501000AC4804F0F9FF1B21AE4804F05FFD96F8A0
:10502000BC30012B15BF12211421AB48AB4804F052
:1050300055FDA44804F0E8FF1321A94804F04EFDF3
:10504000A04804F0E1FF06232360FEF774BD0C21A5
:10505000A44804F043FDC3E70D21A34804F03EFD3E
:10506000BEE70B21A14804F039FDB9E70D21A048A6
:1050700004F034FDB4E70D219E4804F02FFDAFE7A6
:105080002368002B08BF73280CBF01200020FEF707
:10509000EFBC23682868012B7EF4E4ACFEF746BC25
:1050A00004F0F2FC00287EF771AD8648864E05F0CC
:1050B0003DF907F007FB61230122B06322602B60FA
:1050C0001846FEF733BC04F0DFFC00287EF75EAD27
:1050D0007C487D4E05F02AF907F0F4FA864907F07E
:1050E00045FB61230122706222602B601846FEF7A7
:1050F0001DBC04F0C9FC00287EF748AD7148724E13
:1051000005F014F961230122A6F8B40022602B6097
:105110001846FEF70BBC04F0B7FC00287EF7DEADA6
:105120006848694E05F002F9744BC6F8A0000222E7
:105130001A60FDF77DF901226B2322602B60FEF7D8
:105140001DBF04F0A1FC00287EF7C8AD5D485E4E8F
:1051500005F0ECF801226B23C6F8900022602B606A
:10516000FEF70CBF04F090FC00287EF7B7AD554861
:10517000554E05F0DBF8614BC6F8A4000322D7E7D3
:1051800004F082FC00287EF7A9AD4E484E4E05F093
:10519000CDF801226B23C6F8940022602B60FEF745
:1051A000EDBE484805F0C2F8554B02461860FFF7BF
:1051B0005FBB1C21534804F091FCD7F88C00524986
:1051C00007F0D4FA06F028FE009502460B463D484B
:1051D00004F072FF05214D4804F080FC394804F0CA
:1051E00013FFFD6F012D45D0032D7FF440A91C2135
:1051F000474804F073FCB6F8B610324804F054FF88
:105200000321444804F06AFC2E4804F0FDFEFFF739
:105210002EB9414B002631460B201E6003F05AF890
:1052200031460C2003F056F83146142003F052F8B2
:105230003146152003F04EF83B68FFF7FCBA2021F9
:10524000364804F04BFC1F4804F0DEFEFFF7E5B8DB
:105250001721334804F042FC1A4804F0D5FEFFF74A
:10526000DCB81E212F4804F039FC164804F0CCFEAF
:10527000FFF7D3B81D212C4804F030FCD7F8880084
:10528000214907F073FA06F0C7FD00950B46024668
:105290000C4804F011FF05211C4804F01FFC0948CC
:1052A00004F0B2FEFB6F23F00203012B9FD0FFF747
:1052B000DEB8054EFFF742BB034EFEF75FBE00BFF0
:1052C0002C180100D087FF1F3493FF1F68180100BE
:1052D0008418010088180100A4180100B818010002
:1052E000601701001C1801000C1801005C18010077
:1052F0004C1801003C1801006F12833A8C94FF1F78
:105300005C87FF1F301C0100CDCCCC3D501C010040
:10531000781C0100981C0100D494FF1F901B010011
:10532000B41B0100701B0100581C010038B5164C5D
:10533000164A2368101D12F8011F904241EA032308
:10534000F9D12360124C03F100432360114BDB6F52
:10535000022B11D0104B1B68012B00D038BD0F4819
:1053600004F052FE21680D4804F09EFE03210C4813
:10537000BDE8384004F0B2BB20680A4D07F0A2F93E
:105380002860FDF7EDFAE5E74C92FF1F8394FF1FBD
:10539000A094FF1F3493FF1F6C94FF1FD087FF1F43
:1053A000102001006892FF1F30B53F4C3F4883B08A
:1053B000214601F0E1FC236840F2C232934258D00A
:1053C0006FF4C0615A18B2F5FF7F4CD903F1004366
:1053D0006FF4C0621344B3F5FF7F3FD9344B1B68B1
:1053E000012B01D003B030BD324B1B68012BF9D12A
:1053F000314B32481B6801930A220023019904F0C3
:1054000013FE2268284B002ADB7945DB2C492D4806
:1054100008F08AF92B4808F0B3F90146294804F04E
:105420005DFB2568204B15F0804526D1DB798BB1DB
:10543000631925491A7A234808F076F9214808F0BB
:105440009FF901461F4804F049FB0135E379EDB2AD
:10545000AB42EDD8194804F0D7FDC3E712491B4809
:10546000FCF7B0F8BAE710491848FCF7ABF8236826
:10547000ACE7FFF75BFF2368A2E7154D114C0FCD9A
:105480000FC495E8030044F8040B204620F81419D3
:10549000152104F023FBDDE70E490A4822F06042A3
:1054A00008F042F9B6E700BF7C94FF1F74C1FF1FEC
:1054B0003887FF1F6C94FF1F1CC3FF1FD087FF1F7F
:1054C0003C2001008C92FF1F68200100E094FF1F28
:1054D00050200100142001002DE9F84F9A4B9B4CFD
:1054E0001B78052B08D09A48FCF7D6F9E16A07F03B
:1054F000DBFA002800F09380964E974D002333602E
:105500002B60964B92481B68904F012B45D0FCF7BF
:105510007DF9E1698046606907F01EF80146404662
:1055200007F0E0FA00284CD18948FCF76FF9E168F0
:1055300007F0D8FA08B100232B608548834FFCF7A9
:105540003FF9216907F0B0FA58B1002333602B68A6
:10555000814A002B01DBBDE8F88F00231360BDE812
:10556000F88F7B48FCF72CF9B96907F09DFA002801
:10557000EBD17748FCF724F9D7F8B8100446B8699E
:1055800006F0ECFF0146204607F0ACFA002873D085
:10559000786E30600028D8DBD9E7FCF737F9E1698D
:1055A0008046206A06F0D8FF0146404607F09AFA86
:1055B0000028B9D06648FCF729F9D7F8209083462F
:1055C00005E06348FCF722F9D7F814908346F9699F
:1055D000484606F0C1FF8246F86D07F073F8804632
:1055E000386E07F06FF8414606F0B6FF51460746A1
:1055F000584606F0B1FF0146384607F0B7F8514665
:105600000746484606F0A8FF0146384607F062F90B
:10561000414606F0A3FF07F085FA286084E74C486E
:10562000FCF73AF9216B07F03FFA002849D0494EC0
:10563000636E47483360FCF72FF98146E06DE76AF7
:10564000454D07F03FF839468046484606F084FF4E
:105650000146404607F08AF839468046206B06F03E
:105660007BFF0146404607F035F9002106F076FF42
:1056700007F058FA286044E73548FCF7A1F881465E
:10568000F86DBC6907F01EF821468046484606F0D2
:1056900063FF0146404607F069F8D7F8B810804626
:1056A000204606F05BFF214606F056FF01464046C5
:1056B00007F010F9002106F051FF07F033FA3060CF
:1056C00068E72348FCF7E8F8616B07F0EDF930B1C3
:1056D000204E214D626EE36D32602B6011E71C4855
:1056E000FCF7DAF8A16A07F0DFF900283FF404AF0D
:1056F0001748184E184DFCF7CFF88146606ED4F865
:10570000348006F0DFFF41460746484606F024FF96
:1057100039468146002006F01FFF0146484607F043
:1057200025F841468146A06A06F016FF0146484624
:1057300007F0D0F8394606F011FF07F0F3F9E36DF2
:1057400030602B60DDE600BF9894FF1F3493FF1F8D
:10575000E094FF1FA494FF1F5492FF1F6C92FF1F41
:1057600008B5274804F050FC0721264804F0B6F994
:10577000112002F0B5FD0621F8B1234804F0AEF97E
:10578000122002F0ADFD062100B3204804F0A6F976
:10579000122002F0A5FD062108B31D4804F09EF971
:1057A000132002F09DFD062110BB1A4804F096F963
:1057B0001348BDE8084004F027BC174804F08EF9F0
:1057C000122002F08DFD06210028DED1134804F0DE
:1057D00085F9122002F084FD06210028DDD1104851
:1057E00004F07CF9132002F07BFD06210028DCD0B8
:1057F0000C4804F073F90248BDE8084004F004BC0A
:10580000D087FF1F742001007C2001008C20010044
:105810009C200100B420010084200100942001009C
:10582000A4200100AC20010010B5254C2368042BF6
:1058300027DC01210B2002F04DFD01210C2002F09C
:1058400049FD0121142002F045FD0121152002F03F
:1058500041FDFF21162002F0BDFBFF21172002F0C1
:10586000B9FBFF21052002F0B5FBFF21062002F065
:10587000B1FB236801330A2B2360C4BF00232360DC
:1058800010BD00210B2002F025FD00210C2002F0AC
:1058900021FD0021142002F01DFD0021152002F041
:1058A00019FD0021162002F095FB0021172002F0BF
:1058B00091FB0021052002F08DFB0021D6E700BFFF
:1058C000B894FF1F10B5092182B0974803F01CF867
:1058D000222002F0C1FF954B1B78052B0BD8DFE887
:1058E00013F00A010F01140119011E01060007211E
:1058F0008F4803F009F8222002F0AEFFFF2002F0EB
:10590000ABFFFF2002F0A8FF8A4CFF2002F0A4FFAB
:105910000821894802F0F8FF2168884804F0C4FB98
:10592000FF2002F099FFFF2002F096FFFF2002F017
:1059300093FF0921824802F0E7FF21687F4804F0C5
:10594000B3FBFF2002F088FFFF2002F085FFFF205D
:1059500002F082FF0C217B4802F0D6FF7A4B1C68D4
:105960000021204607F0BEF8002800F0C180204644
:10597000764906F0AFFF06F04FFA002402460B46C8
:1059800000946E4804F098FBFF2002F065FFFF20B2
:1059900002F062FFFF2002F05FFF09216C4802F075
:1059A000B3FF6C48FBF778FF06F036FA0094024626
:1059B0000B46624804F080FBFF2002F04DFFFF2001
:1059C00002F04AFFFF2002F047FF0C21624802F07C
:1059D0009BFF6048FBF7BEFF06F01EFA00940246EC
:1059E0000B46564804F068FBFF2002F035FFFF200D
:1059F00002F032FFFF2002F02FFF0D21574802F086
:105A000083FF5448FBF7A4FF06F006FA0094024611
:105A10000B464A4804F050FBFF2002F01DFFFF2018
:105A200002F01AFFFF2002F017FF09214C4802F094
:105A30006BFF4848FBF70EFF06F0EEF900940246B4
:105A40000B463E4804F038FBFF2002F005FFFF2024
:105A500002F002FFFF2002F0FFFE0C21414802F09D
:105A600053FF3C48FBF7ACFE384906F07FFE06F0DA
:105A7000D3F9009402460B46304804F01DFBFF208A
:105A800002F0EAFEFF2002F0E7FEFF2002F0E4FE53
:105A90000D21354802F038FF2E48FBF7B7FE2B49A1
:105AA00006F064FE06F0B8F9009402460B4623485F
:105AB00004F002FBFF2002F0CFFEFF2002F0CCFE3C
:105AC000FF2002F0C9FE0921284802F01DFF284BE3
:105AD0001A48196804F0E8FAFF2002F0BDFEFF2022
