:1000000000800020BD010000157B0000CD7A0000BB
:10001000CD7A0000CD7A0000CD7A0000CD7A0000C4
:10002000CD7A0000CD7A0000CD7A0000157B00006B
:10003000157B0000CD7A000021940000259500007A
:10004000157B0000157B0000157B0000157B000070
:10005000157B0000157B0000157B0000157B000060
:10006000157B0000157B0000157B0000157B000050
:10007000157B0000157B0000157B0000157B000040
:10008000157B0000157B0000157B0000157B000030
:10009000157B0000157B0000157B0000157B000020
:1000A000157B0000157B0000157B0000157B000010
:1000B000157B0000E96E0000F56E0000F96E00008F
:1000C000056F0000096F00000D6F0000157B000038
:1000D000157B0000157B0000157B0000157B0000E0
:1000E000157B0000157B0000157B0000157B0000D0
:1000F000157B0000E59A0000157B00008981000057
:10010000157B0000A1840000157B0000157B00001A
:10011000157B0000157B0000157B0000157B00009F
:10012000157B0000157B0000157B0000157B00008F
:10013000157B0000157B0000157B0000157B00007F
:10014000157B0000157B0000157B0000157B00006F
:10015000157B0000157B0000157B0000157B00005F
:10016000157B0000ED860000157B0000157B00006C
:10017000157B0000157B0000157B0000157B00003F
:10018000157B0000157B0000157B0000157B00002F
:10019000157B0000157B0000157B0000157B00001F
:1001A000157B0000157B0000157B0000157B00000F
:1001B000157B0000157B0000157B0000564B4CF2B0
:1001C000205210B51A804DF628121A8000BF00BFC9
:1001D00007F0A4FC514B4FF010621A60504A9A602D
:1001E000504ADA60504A136813F4807304D14F49BF
:1001F0000B604FF4A85313604D4B1A78110703D5C9
:100200001A7842F008021A704A4B4B492A221A7097
:100210004A4A4B4B8B4204D252F8040F43F8040B6A
:10022000F8E7484B484900228B4202D243F8042B9E
:10023000FAE74649464A002352F8230041F82300D2
:1002400001336F2BF8D1434B434A802103F8011B44
:100250009342FBD1414B3D4A1A60414B8A221A70AE
:10026000A3F5805324225A70A0221A709A7992071B
:10027000FCD59A79D406FCD43A4A937903F00C035E
:10028000082B384BF9D103221A7140225A719A79FE
:100290009006FCD5334A9179324B4906FBD5324A58
:1002A000324911600221516020221A709A7902F0BD
:1002B0000C020C2AFAD12E4B2E4A1A602E4B2F4AD2
:1002C0001A6000225A60072243F8042C2C4AC3F813
:1002D0000C2D62B607F0D8FE144B1B68DA0705D563
:1002E000284807F0B5FC284B284A1A60284B1B7891
:1002F0005B0609D5244C254B22689A4204D121483B
:1003000007F0A6FC002323600BF0F0FE07F00CFCC6
:1003100009F0A8FAFEE700BF0E2005403080044037
:10032000823F04000100002B10D0034014D0034092
:1003300002D0074000E007402092FF1FD41B0100BD
:100340002087FF1F2092FF1FF8C5FF1F0082FF1F9D
:100350000000000000E400E05FE400E008ED00E0E1
:100360000050064000400640448004400000030165
:1003700004800440C010050014E000E0FF76010096
:1003800000002020A1704F5C1CE00340A5C3945ADC
:1003900000F00740FFFFFFFFFFFFFFFFFFFFFFFF32
:1003A000FFFFFFFFFFFFFFFFFFFFFFFFFFFFFFFF5D
:1003B000FFFFFFFFFFFFFFFFFFFFFFFFFFFFFFFF4D
:1003C000FFFFFFFFFFFFFFFFFFFFFFFFFFFFFFFF3D
:1003D000FFFFFFFFFFFFFFFFFFFFFFFFFFFFFFFF2D
:1003E000FFFFFFFFFFFFFFFFFFFFFFFFFFFFFFFF1D
:1003F000FFFFFFFFFFFFFFFFFFFFFFFFFFFFFFFF0D
:10040000FFFFFFFFFFFFFFFFFFFFFFFFDEF9FFFF23
:1004100010B5054C237833B9044B13B10448AFF33E
:1004200000800123237010BD2092FF1F00000000F8
:10043000D01B0100084B10B51BB108490848AFF3A9
:1004400000800848036803B910BD074B002BFBD0A0
:10045000BDE81040184700BF000000002492FF1FB5
:10046000D01B01002092FF1F00000000F0B400F13B
:100470001C06134F00243146031F00F13C0243F8D1
:10048000044FB34241F8047F4FF0000542F8044F97
:10049000F5D10C4A0C490566002345668566C5669C
:1004A000056745678567C0F88850C267C0F8842033
:1004B000C0F8801080F8903080F8A830F0BC704709
:1004C0000000A040000048430000C8C22DE9F041F0
:1004D00090F8A84084B0202364008DF80530E4B281
:1004E000042380468DF804408DF80630032720460B
:1004F00007F072FF02210DF1050007F077FF8DF87C
:10050000044005F06BFE30B30921404808F022FE9C
:100510000023102221463E4809F01EF801213D48E3
:1005200008F018FE002310229DF80510384809F045
:1005300013F80121374808F00DFE002310229DF822
:100540000610334809F008F80121324808F002FE8D
:100550002F4808F0F1FF02208DF8044007F046FD17
:1005600005F03CFE00284CD102AE002407F054FFF9
:1005700070B3072C1FD101E007F05EFF07F04CFFBE
:100580000028F9D105F02AFE10B1214808F0D4FF67
:100590009DF80B009DF80C109DF80D209DF80E3075
:1005A000C8F89400C8F89810C8F89C20C8F8A03083
:1005B00004B0BDE8F08107F03FFF054606F8010BE7
:1005C00005F00CFE70B9013407F026FF0028D0D1E9
:1005D000072CD3D005F002FE78B9013FD8D09DF8A2
:1005E000044084E7E9B200231022094808F0B4FF70
:1005F0000121084808F0AEFDE5E7054808F09CFF3A
:10060000EBE70721044808F0A5FDADE798020100DB
:10061000C087FF1F9C090100A402010090F8980008
:10062000704700BF90F89400704700BF90F89C009E
:10063000704700BF90F8A000704700BF082994BF22
:1006400050F82100002070472DE9F0410B4E804604
:10065000041F00F11C0754F8045F314628460BF0D4
:10066000BBFC30B1D8F88C1028460BF0D3FC00B19D
:100670002E46BC42EFD13046BDE8F081000020415B
:100680002DE9F041D0F88C704FF00008041F00F104
:100690001C0654F8045F394628460BF0BBFC084999
:1006A00048B128460BF098FC414620B128460BF093
:1006B000B1FC00B1A846B442EBD14046BDE8F081A0
:1006C000000070422DE9F047D0F88C7082464FF060
:1006D0000009041F00F11C064FF0000854F8045FE5
:1006E000394628460BF096FC0C4950B128460BF0D1
:1006F00073FC30B1484629460BF0C8F908F10108EF
:100700008146B442EAD1CAF8AC8040460BF072FA96
:10071000014648460BF076FBBDE8F08700007042CA
:10072000D0F8AC00704700BF38B5846E456E2146E6
:1007300028460BF051FC00B92C46204638BD00BFBE
:10074000D0F8A4302DE9F041002B79D1866E456EAA
:100750000446314628460BF099F9E76E3946804643
:100760000BF094F97E490BF04DFB4FF07C510446A1
:100770000BF050FC002861D04FF07C5128460BF064
:1007800049FC4FF07C51002860D128460BF024FC36
:1007900038B14FF07C5130460BF03CFC002840F063
:1007A000A7804FF07C5128460BF034FC002860D124
:1007B0004FF07C5128460BF02DFC002840F0A18022
:1007C0004FF07C5128460BF025FC00286CD14FF0EF
:1007D0007C5128460BF000FC4FF07C5110B33046A2
:1007E0000BF018FC38B14FF07C5138460BF0F4FB9D
:1007F000002840F0B0804FF07C5130460BF0ECFB0D
:10080000002861D04FF07C5138460BF003FC0028E3
:1008100040F0A38038464FF07C510BF0DDFB68B10F
:10082000504C10E028460BF0D7FB0028E3D12846B7
:100830004FF07C510BF0D0FB002845D1BDE8F08192
:1008400000EB8300046E2046BDE8F08130460BF0DB
:10085000E1FB4FF07C5100283ED038460BF0DAFB2C
:100860000028F0D14FF07C5128460BF0B5FB002852
:1008700059D14FF07C5130460BF0AEFB002840D0F0
:100880004FF07C5138460BF0C5FB002841D14FF0AA
:100890007C5130460BF0BEFB68B14FF07C513846BE
:1008A0000BF09AFB00284FD14FF07C5130460BF0F3
:1008B00093FB00288BD04FF07C5138460BF08CFB1B
:1008C000002884D02C46BEE730464FF07C510BF018
:1008D00083FB0028B2D09DE728460BF07DFB002863
:1008E000C7D04FF07C5130460BF094FB0028C0D0AD
:1008F0004FF07C5138460BF08DFB00283FF451AF90
:1009000018E04FF07C5130460BF084FB0028CBD030
:10091000C3E7394628460BF0B9F84FF07C510BF08D
:10092000BDF904468FE74FF07C5138460BF072FB5F
:1009300000289ED0394630460BF0A8F84FF07C5185
:100940000BF0ACF904467EE740464FF07C510BF0CB
:10095000A5F9044677E7344675E73C4673E700BFE0
:10096000000040400000A0C270B50446FFF7E8FE5A
:100970004FF07C510BF04EFB28B3666E4FF07C516C
:1009800030460BF047FBA56EF0B9E46E4FF07C519A
:1009900028460BF03FFB58B1294630460BF03AFB96
:1009A00030B1214628460BF017FB08B12C4620E059
:1009B0004FF07C5120460BF02DFB20B128462146FC
:1009C0000BF028FB78B970BD304629460BF004FBCC
:1009D000E46E0028DAD0304621460BF0FDFA0028FC
:1009E000D4D0344605E0304621460BF013FB0028F6
:1009F000E9D0204670BD00BF01392DE9F84380469B
:100A00001546032900F2E280DFE801F0AE855C02C2
:100A1000537B107B03EB00200BF0ECF86D490BF0DF
:100A20003DF9C8F81800EB7BA87B03EB00200BF026
:100A3000E1F868490BF032F9D8F86860D8F86470CA
:100A4000D8F80040C8F81C004046FFF78DFFD8F8E2
:100A50007C1005460BF0C0FA08B1C8F87C50394646
:100A600030460BF0D7FA002840F0A7803946D8F876
:100A700080000BF0B1FA10B13E46C8F8806008F172
:100A80002006C14608F14005002701E059F8044F4F
:100A9000306821460BF0BEFA0137214628B1D8F85C
:100AA0008C000BF0A3FA00B13460214628680BF0EB
:100AB00093FA043600B12C60082F05F10405E5D146
:100AC000BDE8F883507A32380BF094F8C8F8740017
:100AD000A87A32380BF08EF8C8F878006B7B287B48
:100AE00003EB00200BF086F83A490BF0D7F8C8F872
:100AF0001000EB7BA87B03EB00200BF07BF8354963
:100B00000BF0CCF8D8F86860C8F81400D8F8647016
:100B1000D8F8004098E7507A32380BF06BF8C8F8F4
:100B20006C00A87A32380BF065F8C8F870006B7B5F
:100B3000287B03EB00200BF05DF826490BF0AEF8A4
:100B4000C8F80800EB7BA87B03EB00200BF052F801
:100B500020490BF0A3F8D8F86860C8F80C00D8F862
:100B60006470D8F800406FE7137AC0F8B030907A1C
:100B700032380BF03FF8C8F864000746E87A32389C
:100B80000BF038F8C8F868006B7B0646287B03EB4F
:100B900000200BF02FF80F490BF080F8C8F8000088
:100BA000EB7B0446A87B03EB00200BF023F80949FC
:100BB0000BF074F8C8F8040046E7D8F88010304607
:100BC0000BF028FA00287FF458AF58E7866E476E7E
:100BD000046839E70AD7233C2DE9F04F90F8A83094
:100BE00091B007465B008DF80830FFF76FFCD7F82F
:100BF0009C00D7F8A040D7F89830D7F8942097F801
:100C0000A8108DE81100C94805F0EEFB30223D2305
:100C100003268DF809208DF80A300DF10A059DF89C
:100C2000089049F00108404607F0D6FB0DF1090095
:100C3000022107F0DBFB8DF80880424602AB002062
:100C40005040082410F0800F4FEA400018BF80F099
:100C50000700013CC0B2F5D19D4202D013F8012F2C
:100C6000EEE707F0B9FB05F0B9FA002840F07C8206
:100C700002208DF8089007F0B9F905F0AFFA0028C6
:100C800040F0B8820DF10C0AD146002407F0C4FBF5
:100C9000002843D0032C34D101E007F0CDFB07F04E
:100CA000BBFB0028F9D105F099FA10B1A04808F073
:100CB00043FC312303268DF809308DF80A609DF836
:100CC000089049F00108404607F086FB0DF1090045
:100CD000022107F08BFB8DF80880424602AB002012
:100CE0005040082410F0800F4FEA400018BF80F0F9
:100CF0000700013CC0B2F5D19D4228D013F8012F66
:100D0000EEE707F099FB09F8010B804605F066FA5B
:100D100068B9013407F080FB0028BBD1032CBED09A
:100D200005F05CFA78B9013E7FF479AFC1E75FFA6C
:100D300088F1002310227E4808F00EFC01217D4836
:100D400008F008FAE5E77A4808F0F6FBEBE707F069
:100D500043FB05F043FA002840F0C58102208DF8DE
:100D6000089007F043F905F039FA002840F03D8279
:100D70000DF10C09002407F04FFB002844D0032C90
:100D800035D101E007F058FB07F046FB0028F9D108
:100D900005F024FA10B1664808F0CEFB3422012396
:100DA0008DF809208DF80A3003269DF8089049F047
:100DB0000108404607F010FB0DF10900022107F081
:100DC00015FB8DF80880424602AB002050400824F5
:100DD00010F0800F4FEA400018BF80F00700013C80
:100DE000C0B2F5D19D4228D013F8012FEEE707F0ED
:100DF00023FB09F8010B804605F0F0F968B90134CE
:100E000007F00AFB0028BAD1032CBDD005F0E6F9A3
:100E100078B9013E7FF453AFC0E75FFA88F1002351
:100E20001022434808F098FB0121424808F092F94B
:100E3000E5E73F4808F080FBEBE707F0CDFA05F067
:100E4000CDF9002840F00E8102208DF8089007F0BF
:100E5000CDF805F0C3F9002840F0D6810DF10C095A
:100E6000002407F0D9FA002800F08480032C72D106
:100E700001E007F0E1FA07F0CFFA0028F9D105F018
:100E8000ADF910B12A4808F057FB012212238DF862
:100E900009208DF80A304FF003089DF808402046DD
:100EA00007F09AFA02210DF1090007F09FFA8DF878
:100EB000084005F093F930B309211F4808F04AF9BA
:100EC0000023102221461A4808F046FB0121194848
:100ED00008F040F9002310229DF80910144808F08A
:100EE0003BFB0121134808F035F9002310229DF83F
:100EF0000A100F4808F030FB01210E4808F02AF9CB
:100F00000B4808F019FB06208DF8084007F06EF832
:100F100005F064F9002840F0728103AD002607F067
:100F20007BFA00283FD0162E2FD109E0AC02010039
:100F3000C087FF1F9C0901009802010007F07CFA9E
:100F400007F06AFA0028F9D105F048F916260028BA
:100F50007DD1152035E007F06FFA09F8010B8046C6
:100F600005F03CF900285BD1013407F055FA002860
:100F70007FF47CAF032C3FF47EAF05F02FF90028FF
:100F80006CD1013E7FF411AF7FE707F055FA05F809
:100F9000010B044605F022F900284DD1013607F077
:100FA0003BFA0028BFD1162ECAD005F017F9002849
:100FB0004DD1B8F101087FF470AF701E002840F3E6
:100FC0002482002303AA1C4612F8011B08254C406A
:100FD00014F0800F4FEA440418BF84F00704013D69
:100FE000E4B2F5D101338342EEDB9DF821808948DC
:100FF0004146224605F0F8F9162EC146A34602D115
:10100000A04500F0138197F8A8108348CDF800B0F0
:101010004B46324605F016FA002011B0BDE8F08FBD
:101020005FFA88F1002310227C4808F095FA01212C
:101030007B4808F08FF897E7E1B200231022774849
:1010400008F08AFA0121764808F084F8A6E7734888
:1010500008F072FA162EACD11520B2E76F4808F0EE
:101060006BFA8EE709216F4808F074F823461022C6
:1010700041466A4808F070FA0121694808F06AF8A8
:10108000234610229DF80910644808F065FA0121F2
:10109000634808F05FF8102223469DF80A105F4865
:1010A00008F05AFA01215E4808F054F821460DF183
:1010B0000B0002AA12F8014B6140C9B2082311F0DB
:1010C000800F4FEA410118BF81F00701013BC9B20F
:1010D000F5D19042EED11022504808F03DFA4F4829
:1010E00008F02AFAB0E609214E4808F033F8234602
:1010F00010224146494808F02FFA0121484808F0DB
:1011000029F8234610229DF80910444808F024FAD3
:101110000121434808F01EF8102223469DF80A10CA
:101120003E4808F019FA01213D4808F013F821461D
:101130000DF10B0002AA12F8014B6140C9B208235D
:1011400011F0800F4FEA410118BF81F00701013B08
:10115000C9B2F5D19042EED11022304808F0FCF926
:101160002E4808F0E9F9F9E509212E4807F0F2FFC9
:10117000234610224146294808F0EEF9012128486B
:1011800007F0E8FF234610229DF80910234808F0D5
:10119000E3F90121224807F0DDFF102223469DF8E4
:1011A0000A101E4808F0D8F901211D4807F0D2FFA7
:1011B00021460DF10B0002AA12F8014B6140C9B2A1
:1011C000082311F0800F4FEA410118BF81F0070199
:1011D000013BC9B2F5D19042EED110220F4808F080
:1011E000BBF90E4808F0A8F942E507210E4807F0C0
:1011F000B1FFBDE507210C4807F0ACFF42E5072130
:10120000094807F0A7FF88E60721074807F0A2FF73
:1012100024E600BFE00201002C030100C087FF1F8D
:101220009C09010098020100A40201009DF80C3005
:1012300097F8A820B3EB420F7FF4EEAE9DF80D3087
:10124000012B7FF4E9AE9DF80E30122B7FF4E4AE53
:101250009DF810309DF80F0003EB00200AF0CAFC47
:1012600072490AF01BFDD7F88810386604460AF068
:10127000D1FE08B1C7F88840D7F8841020460AF09C
:10128000ABFE08B1C7F88440A7F1040907F12006B6
:1012900007F140054FF008089AF806309AF8050063
:1012A00003EB00200AF0A6FC61490AF0F7FC49F8BC
:1012B000040F316804460AF08FFE0AF1020A30B1C9
:1012C000D7F88C1020460AF09BFE00B134602968E4
:1012D00020460AF09FFE043600B12C60B8F10108E8
:1012E00005F10405D8D19DF81E309DF81D0003EBD3
:1012F000002002300AF07EFC4E490AF083FD0146D0
:101300004D480AF07FFD4D490AF0BEFB4C490AF0FA
:10131000C5FC054608F030FD0446284608F02CFDC3
:10132000484908F09BFD4849054620460AF0B6FCAE
:1013300046490AF0ABFB4649044628460AF0AEFC93
:10134000014620460AF0A2FB01464FF07E500AF00B
:1013500059FD40490AF098FB9DF81F209DF8203068
:10136000786603EB022009300AF044FC3A490AF09F
:1013700049FD014630480AF045FD30490AF084FB3A
:101380002F490AF08BFC054608F0F6FC0446284677
:1013900008F0F2FC2B4908F061FD2B490546204678
:1013A0000AF07CFC29490AF071FB294904462846C9
:1013B0000AF074FC014620460AF068FB01464FF033
:1013C0007E500AF01FFD23490AF05EFBB866044612
:1013D0003846FFF7C9FAF96F05460AF0FDFD00B17E
:1013E000FD677D6E204629460AF014FEB0B92946F5
:1013F000D7F880000AF0F0FD10B12C46C7F8804005
:10140000164804F0F1FF012007E69DF821901448EA
:1014100049464246C34604F0E7FFF4E5D7F880109A
:1014200020460AF0F7FD0028E8D1E9E71357053B0D
:101430002003C839001601470AD7E33FE17A644028
:1014400000007A4400004040A40D8F395A80473A8A
:1014500046A6DB3333938843002C01470403010085
:10146000E00201002DE9F8430026D0F88C800666E2
:101470008146044600F1200754F8045B41462846A3
:101480000AF0C8FD084950B128460AF0A5FD30B160
:10149000304629460AF0FAFA0646C9F86000BC420E
:1014A000EAD13046BDE8F8830000704205299ABFB2
:1014B00000EB8100406E0020704700BF3E2998BFBE
:1014C00080F8A810704700BF90F89000704700BFE8
:1014D000C0F8A410704700BF80F89010704700BF9C
:1014E00030B50F4CC0F88C1083B020460D4608F084
:1014F00023F8204608F020F8284609F025FF0225A9
:1015000002460B460095204608F06EF8204608F08B
:1015100013F8204603B0BDE8304008F00DB800BF16
:10152000C087FF1F70B500F5315506462C3500F118
:1015300020042046B434FEF799FFAC42F9D106F1FD
:10154000D405012428460021FFF7C6FF214628467E
:101550000134FFF7B3FF3F2C05F1B405F2D142F699
:10156000744400250548064A064B35550021306174
:101570007161B261F361304670BD00BF00007A4412
:10158000000048430000C8C22DE9F04142F678430C
:1015900000F53156374600228046C2502C36383787
:1015A00000F1D40402E0B434B4420DD02046FFF779
:1015B0008BFF0028F7D020463D68FFF7B1F8B43420
:1015C0002844B4423860F1D142F6784358F8030019
:1015D000BDE8F081F8B50E46096801F47F65002981
:1015E0000446A5F5C06511DB2D0901F00F07B423F2
:1015F00003FB0544203420460121FFF76DFF3246EE
:1016000039462046BDE8F840FFF7F6B90A4801F030
:101610000F0707F091FF1221084807F09BFD316882
:10162000054801F0004100230A2207F095FF024817
:101630002D0907F081FFDAE7C087FF1F7C03010057
:10164000704700BF704700BF2DE9F04304460023F8
:1016500083B0064644F8D43B012504E001353F2D14
:1016600004F1B40469D02046FFF72EFF0028F5D01E
:10167000504804F0B9FE29464F4804F0B5FE204614
:10168000FFF7AAFA2046FFF7EDFE09F05DFE0246DD
:101690000B464A4804F0A8FE2046FEF7D5FF8046D8
:1016A0002046FEF7EDFF0746404609F04DFE804616
:1016B0003846894609F048FE42464B46CDE90001CE
:1016C0003F4804F091FE00212046FFF7EFFE012184
:1016D00080462046FFF7EAFE0746404609F034FE02
:1016E00080463846894609F02FFE42464B46CDE9F2
:1016F0000001344804F078FE2046FFF7B3FE0146AF
:1017000030680AF0C3F930602046FFF72DF9B1695F
:101710000AF062FC002833D12046FFF705F8F16992
:101720000AF078FC002899D02046FEF7FDFF01352D
:101730003F2DF06104F1B40495D170680AF05AFAB3
:10174000014630680AF05EFB7169306004460AF0B9
:1017500061FC00B17461316920460AF03DFC00B1C2
:1017600034610B2006F00CFC42F67443F35C60B964
:101770009BB142F674430122F25403B0BDE8F083FA
:101780002046FFF7F1F8B061C6E753B942F674435B
:101790000022F25403B0BDE8F0830B4804F052FE7F
:1017A000E7E70A4804F038FE42F674430022F25498
:1017B000F0E700BF7805010090030100CC030100B1
:1017C000E00301000C040100280401006004010092
:1017D00070B5114B836000F5315506462C3500F18C
:1017E000D40402E0B434AC4213D02046FFF76CFEC0
:1017F0000028F7D02046FEF727FFB1680AF0ECFB7F
:101800000028EFD02046FEF71FFFB434AC42B06092
:10181000EBD1B06870BD00BF0000A04070B50023E0
:1018200000F531550646C3602C3500F1D40402E0C2
:10183000B434AC4213D02046FFF746FE0028F7D060
:101840002046FEF71DFFF1680AF0E4FB0028EFD008
:101850002046FEF715FFB434AC42F060EBD1F068DF
:1018600070BD00BF0068704741607047F8B500F573
:1018700031550F4616462C3500F1D40402E0B4343D
:10188000AC420FD02046FFF71FFE0028F7D02046BD
:101890003946FFF71DFE20463146B434FFF720FEDF
:1018A000AC42EFD1F8BD00BF2DE9F84300F531554A
:1018B00042F670432E4600278146C7504FF000087D
:1018C0002C35303600F1D40402E0B434AC4213D0ED
:1018D0002046FFF7F9FD0028F7D033680133336065
:1018E0002046FEF72DFF0F490AF094FB88B9B43467
:1018F000AC4207F10107EBD142F6704359F80300FF
:10190000C01B0AF077F9014640460AF07BFABDE8B1
:10191000F8832046FEF714FF014640460AF0B6F869
:101920008046D2E700008CC2F8B500F53155074675
:1019300000262C3500F1D40402E0B434AC420FD0C0
:101940002046FFF7C1FD0028F7D02046FEF7BAFE7B
:10195000014630460AF09AF8B434AC420646EFD15C
:1019600042F67043F8580AF045F9014630460AF04D
:1019700049FAF8BD2DE9F04F06468FB09B488B46DB
:1019800004F0DAFC994804F0D7FC984804F0D4FC41
:1019900042F670433046F2580D92FFF7F5FD73683A
:1019A0000C930746306809F0CFFC804630468946E4
:1019B000FFF7BAFF82463046B468F568FFF774FF58
:1019C00009F0C2FCCDE90A01214628460AF05CF87C
:1019D00087490AF063F909F0B7FCCDE90801284608
:1019E00009F0B2FCCDE90601204609F0ADFCCDE9D5
:1019F0000401504609F0A8FC0D9A0C9BCDE90201A8
:101A0000CDE9008911467B483A4604F095FC7748B9
:101A100004F092FCD4364FF001084FF0000A07E0C2
:101A200008F10108B8F13F0F06F1B40600F0D580C7
:101A30003046FFF749FD0028F2D03046FEF7EEFDB4
:101A40003046FEF7EFFD3046FEF7F0FD3046FEF77C
:101A5000F1FD0821684807F07DFB4146674807F023
:101A6000BBFDB8F1090F40F3BB800221644807F0C9
:101A700071FB3046FFF7F6FC09F066FC5FFA8BF964
:101A800002460B46CDF800905C4807F0ADFD012101
:101A90005C4807F05FFB5546002420E006215A48C9
:101AA00007F058FB2946554807F096FD0221574894
:101AB00007F050FB21463046FEF7C0FD09F044FC1C
:101AC000CDF8009002460B464C4807F08DFD0134DE
:101AD00001214C4807F03EFB082C09D03D46092D5A
:101AE00005F10107DADC0121494807F033FBD5E7AE
:101AF000424807F021FD0921464807F02BFB002151
:101B00003046FFF7D3FC09F01FFC022402460B46C7
:101B100000943A4807F068FD0A213F4807F01AFB95
:101B200001213046FFF7C2FC09F00EFC009402468A
:101B30000B46324807F058FD0A21384807F00AFBE7
:101B400021463046FFF7B2FC09F0FEFB0094024646
:101B50000B462A4807F048FD0A21314807F0FAFAF7
:101B600003213046FFF7A2FC09F0EEFB0094024689
:101B70000B46224807F038FD0A212A4807F0EAFA06
:101B800004213046FFF792FC09F0DEFB0094024688
:101B90000B461A4807F028FD0A21234807F0DAFA15
:101BA00005213046FFF782FC09F0CEFB0094024687
:101BB0000B46124807F018FD01211C4807F0CAFA2D
:101BC00008F101080D4807F0B7FCB8F13F0F0AF122
:101BD000080A06F1B4067FF42BAF0FB0BDE8F08F12
:101BE00001210B4807F0B6FA3FE700BF7805010076
:101BF00000007A4410070100B0070100C087FF1FF2
:101C00007C150100BC070100C00701008C09010020
:101C10009C090100C8070100D4070100E00701008A
:101C2000EC070100F807010004080100100801009A
:101C30002DE9F04100F1D40582B0012705E001371C
:101C40003F2F05F1B40500F08B802846FFF73CFCE0
:101C50000028F4D03946444807F0BEFC012143482F
:101C600007F078FA00244FF0020821462846FEF7D4
:101C7000E5FC09F069FBCDF8008002460B463A48C6
:101C800007F0B2FC01340121384807F063FA082C50
:101C90004FF00206E9D100212846FFF707FC09F0C2
:101CA00053FB009602460B462F4807F09DFC01218E
:101CB0002E4807F04FFA01212846FFF7F7FB09F0FD
:101CC00043FB009602460B46274807F08DFC012196
:101CD000264807F03FFA31462846FFF7E7FB09F0B0
:101CE00033FB009602460B461F4807F07DFC01219E
:101CF0001E4807F02FFA03212846FFF7D7FB09F00B
:101D000023FB009602460B46174807F06DFC0121A5
:101D1000164807F01FFA04212846FFF7C7FB09F011
:101D200013FB009602460B460F4807F05DFC0121AD
:101D30000E4807F00FFA05212846FFF7B7FB09F018
:101D400003FB009602460B46074807F04DFC01379F
:101D5000054807F0F1FB3F2F05F1B4057FF475AF9F
:101D600002B0BDE8F08100BFC087FF1F140801006A
:101D7000F8B53A483A4F3B4D3B4E3C4C04F0DCFA48
:101D80003B4B3C4A3C49DF60102000275A601870EA
:101D90003A4A3B4819615D613A493B4D5E629C613C
:101DA0004FF07C56394C1F63394F9A62D862394ADA
:101DB00059630C2038499D635E6440F61C450A2631
:101DC0009C641F6241F20404344FDA6418650222F5
:101DD0000120C3F8B8109D6600216425DE661C67EB
:101DE0004FF496763224DF61DF635A275A705A72B5
:101DF0001872586583F840105E66DE651C669D6546
:101E00004FF47A7E5F67264E264F9967DA67C3F8EC
:101E10008010C3F89440C3F8A040C3F89C10FF247E
:101E200041F28831C3F8A800C3F8AC20052040F285
:101E3000D662C3F8B050C3F898E0C3F88870C3F80E
:101E40008C60C3F8A440A3F8B600C3F89010A3F8C0
:101E5000B410A3F88420A3F88620F8BD1808010068
:101E60006666864033338340CDCCCC3DCDCC4C40F0
:101E70002493FF1F20A10700000040400000824281
:101E8000000020C1000020420000A0409A99794043
:101E9000333373400AD7233D9A99993ECDCC4C3EBB
:101EA00000C0204400006842F0B54FF47A6085B06D
:101EB00006F09CF800210F2006F070F800210E209B
:101EC00006F06CF80021112006F068F800211020BF
:101ED00006F064F80021122006F060F800211320BB
:101EE00006F05CF801210B2006F058F801210C20C7
:101EF00006F054F80121142006F050F801211520B5
:101F000006F04CF80121162006F048F801211720B0
:101F100006F044F80121052006F040F88E4C8F4D64
:101F20000121062006F03AF801210D2006F036F8CE
:101F3000208809F05BFE0146162005F099FF2088F5
:101F400009F054FE0146172005F092FF208809F0A1
:101F50004DFE0146052005F08BFF208809F046FE66
:101F600000240146062005F083FF009423467C4AA6
:101F70007C497D4804F060FCE6B2324677497A48F5
:101F800004F008FC2B79754977486FF3000301349E
:101F900032462B7104F0F4FB082CEDD10924E6B293
:101FA00032466E49704804F0F5FB2B796B496E4858
:101FB00043F00103013432462B7104F0E1FB0D2C98
:101FC000EDD16A4C4FF0FF322068102105F000F887
:101FD00020684FF0FF32102104F0D2FF20684FF04C
:101FE000FF32022104F0E0FF20684FF0FF320221AF
:101FF00004F0E4FF00220F21206804F0F3FF0C211D
:102000005B4807F0A7F85B4807F096FA14215A4896
:1020100007F0A0F8574807F08FFA564807F08CFAF7
:102020001721564807F096F8524807F085FA544BA6
:102030001B789A0600F1BE80514B1B781B0700F1FC
:10204000C5804F4B1B785F0700F1CC804C4B1B7851
:102050009E0700F1D3804B4B1B781D0600F1DA8000
:10206000484B1B785C0600F1E180464B1B789806D4
:1020700000F1E880434B1B78590700F1EF80414B9A
:102080001B781A0700F1F6803E4B1B789B0700F186
:10209000FD80384807F050FA72B63B4A4CF22053A4
:1020A0004DF628112024138023461180013BFDD1D9
:1020B000364D3748374900234FF480562E80038031
:1020C0000B8032F80E3C9BB243F0D30322F80E3C57
:1020D00062B69D2006F030F921462F482F4D07F0BB
:1020E00039F8244807F028FA05F1BC062F462C469B
:1020F000601B05F059FC04F8010BB442F8D13B78A1
:10210000102B01D0FFF734FE2548FFF79BFA04207F
:1021100004F05EF8234B224800221A60FFF790FA81
:1021200001210D2005F026FF796D1D48FFF79CFB6E
:102130007A6C97F840101A48FFF798FB1A4B1B4926
:102140001A68039203981B680293029A184B08605E
:102150001A6005B0F0BD00BF2487FF1FEC93FF1F7E
:10216000F4C2FF1F20A1070058C1FF1F9894FF1F52
:1021700038080100C087FF1F4808010060080100FF
:1021800001F0074000F007400E2005400420054004
:102190000620054016200540640901002493FF1F16
:1021A000CC94FF1F4C92FF1F00C3FF1FC894FF1F5A
:1021B000F493FF1F2121394806F0CCFF384807F07F
:1021C000BBF9384B1B781B077FF53BAF0C2136481A
:1021D00006F0C0FF324807F0AFF9324B1B785F07BB
:1021E0007FF534AF0E21314806F0B4FF2C4807F0DC
:1021F000A3F92C4B1B789E077FF52DAF17212C4898
:1022000006F0A8FF264807F097F92A4B1B781D0611
:102210007FF526AF0E21284806F09CFF204807F0E6
:102220008BF9244B1B785C067FF51FAF12212348E6
:1022300006F090FF1A4807F07FF91E4B1B789806AE
:102240007FF518AF13211E4806F084FF144807F0ED
:1022500073F9184B1B7859077FF511AF1C211948EA
:1022600006F078FF0E4807F067F9124B1B781A0743
:102270007FF50AAF1921144806F06CFF084807F0F3
:102280005BF90C4B1B789B077FF503AF18210F48B8
:1022900006F060FF024807F04FF9FAE678080100FF
:1022A000C087FF1F01F007409C080100AC08010037
:1022B000BC08010000F00740D4080100E408010058
:1022C000F80801000C0901002C090100480901006F
:1022D00070B5464C464D4748E66800232B70FFF723
:1022E0009DFA0146304609F077FE08B104232B70B1
:1022F0004048FFF76DFA216909F06EFE18B12B789E
:1023000043F010032B703B48FFF7CEFAA16A09F0A7
:1023100081FE18B12B7843F040032B700023354821
:102320006B70FFF7C1FAE16A314E09F055FE08B152
:102330000123737000232F48EB70FFF76FFA0546F7
:102340002C482B4EFFF744FA0146284609F09CFB27
:10235000E16B09F05FFE08B10123F370264D2548BB
:1023600000232B70FFF75AFA616A0646E06809F00D
:102370008BFB0146304609F04DFE08B104232B705B
:102380001C48FFF725FA616A0646206909F07EFBC2
:102390000146304609F020FE18B12B7843F01003B7
:1023A0002B701448FFF780FAA16B0646A06A09F06B
:1023B0006BFB0146304609F02DFE18B12B7843F037
:1023C00040032B7000230B486B70FFF76DFAA16B75
:1023D0000546E06A084C09F059FB0146284609F019
:1023E000FBFD08B10123637070BD00BF2493FF1F84
:1023F0002093FF1FCC94FF1F8894FF1F2DE9F0410D
:102400007C4C2368012B82B031D0022B00F0A880D5
:10241000032B00F0C8803BBB774B784AD3F8A01061
:10242000D3F8A43012685B1A632B0EDD744803FBEB
:1024300002F380FB0302DB17C3EB6213194406208F
:1024400002B0BDE8F04105F015BC6E4803FB022365
:1024500080FB0302DB17C3EB22121144062002B0FB
:10246000BDE8F04105F006BC02B0BDE8F081664E63
:1024700033680A33B3F57A7F00F3B78018463360C8
:1024800009F0B8FB614909F009FC80465A4DD5F8BE
:10249000A00009F0AFFB0746D5F8A40009F0AAFB9D
:1024A000394609F0F1FA414609F0F8FB584909F0BC
:1024B000A9FC394609F0EAFA09F0CCFD01460620EC
:1024C00005F0D8FB0221534806F044FE524807F0BD
:1024D00033F80621514806F03DFE306809F08AFBCA
:1024E0004A4909F0DBFB08F02FFF022702460B46A2
:1024F0000097494807F078F80D21494806F02AFE70
:10250000D5F8A00009F076FB8046306809F072FB30
:102510003E4909F0C3FB0646D5F8A40009F06AFB62
:10252000414609F0B1FA0146304609F0B7FB384997
:1025300009F068FC414609F0A9FA08F005FF009788
:102540000B460246344807F04FF83946314806F04A
:1025500001FE314806F0F0FF2368022B7FF458AFEC
:10256000294B254E00221A60D6F8A00009F042FB44
:102570000546D6F8A40009F03DFB294609F084FA87
:10258000002109F08BFB224909F03CFC294609F0A7
:102590007DFA09F05FFD0146062005F06BFB23681C
:1025A000032B7FF438AF184B134E4FF47A721A6036
:1025B000D6F8A00009F01EFB0546D6F8A40009F0E5
:1025C00019FB294609F060FA114909F067FB104927
:1025D00009F018FC294609F059FA09F03BFD0146BB
:1025E000062005F047FB236815E700234FF000089D
:1025F00033604BE77894FF1F2493FF1F3087FF1F42
:102600001F85EB51CBF08D285092FF1FCDCCCC3DD8
:102610000000C8427C150100C087FF1F8809010027
:102620009009010070B5A248A24C06F085FFA048B1
:1026300006F082FF9E4806F07FFF0D219E4806F0BF
:1026400089FDD4F89C30012B11D09C4C98482178FE
:1026500000230A2206F080FF2378052B67D8DFE8E5
:1026600013F0E900EE00F300F800FD00E40009219A
:10267000934806F06FFD9348FFF7AAF8216909F027
:10268000ABFC18B10F21904806F064FD8D48FFF7B0
:10269000C5F8E16809F0BEFC18B10E218B4806F0C0
:1026A00059FD8848FFF7BAF805468648FFF790F8C5
:1026B0000146284609F0E8F9E16B09F0ABFC18B1D6
:1026C0001121834806F046FD7E48FFF7EDF8A16A28
:1026D00009F0A0FC18B10C217E4806F03BFD7948BA
:1026E000FFF7E2F8E16A09F077FC18B10D217A48AA
:1026F00006F030FD794B73481B68012B00F0C28057
:10270000FFF766F821696B4D09F084FC78B16D48DC
:10271000FFF784F8E96809F05FFC40B1674B1B786C
:10272000052B00F0C08008216D4806F013FD022142
:102730006C4806F00FFD122005F022FC012800F085
:102740009C80112005F01CFC012800F09180664B54
:102750001B68012B00F087800221624806F0FAFC1A
:10276000624B5348196806F037FF514806F0E4FE03
:1027700004215F4806F0EEFC0B2005F001FC00236D
:1027800001460A224A4806F0E7FE0C2005F0F8FB55
:10279000002301460A22464806F0DEFE142005F01A
:1027A000EFFB002301460A22414806F0D5FE152022
:1027B00005F0E6FB002301460A223D4806F0CCFE68
:1027C00006214C4806F0C6FC4B4B394819680222DA
:1027D000002306F0C1FE0421484806F0BBFC11208E
:1027E00005F0CEFB002301460A22314806F0B4FE74
:1027F000102005F0C5FB002301460A222C4806F0F4
:10280000ABFE122005F0BCFB002301460A2228483B
:1028100006F0A2FE132005F0B3FB002301460A22B6
:102820002348BDE8704006F097BE0721344806F003
:1028300091FC7CE70621334806F08CFC77E7072102
:10284000314806F087FC72E70721304806F082FC29
:102850006DE708212E4806F07DFC68E70B212D4826
:1028600006F078FC63E711212B4806F073FC73E750
:102870000A212A4806F06EFC69E70E21284806F076
:1028800069FC5EE7FEF7A4FF216A09F0C3FB00289C
:102890003FF449AF1621234806F05CFC0A21224888
:1028A00006F058FC43E70A211F4806F053FC3EE7B8
:1028B000C087FF1F2493FF1FA00901008494FF1FFE
:1028C000B0090100CC94FF1FBC090100CC09010034
:1028D000DC090100F0090100000A01005C92FF1F01
:1028E000340A01007C150100A094FF1F7C94FF1F97
:1028F000A80A0100B00A0100E093FF1FB80A010016
:10290000700A0100400A0100480A01005C0A010047
:10291000640A0100500A0100940A0100880A0100BB
:10292000780A0100100A0100280A01002DE9F04F81
:10293000934C944FE36F012B8DB000F04981032B32
:1029400050D0914E914DA36F9148012B09BF29683A
:10295000296801F10041296004F018FF3368002B59
:1029600040F0CE808A4804F0E7FEE36F3860012B28
:10297000064600F0D280874909F04CFB78B98649B9
:10298000304609F029FB50B9844A854B12680B92F6
:102990000B9A1A6000232B600DB0BDE8F08FDFF8B2
:1029A000FC817F4CD8F800300A930A9823687D4F49
:1029B000C01A09F01BF9314609F070F97A4909F09B
:1029C00021FA794909F01EFA396809F05FF8D8F858
:1029D00000300993099B2360002338602B600DB001
:1029E000BDE8F08FDFF8C881704DD8F80000664E62
:1029F000012300220F212B6004F0F4FA2B68012B35
:102A0000336800F00381002B40F0A6810021D8F844
:102A10000000DFF8B891664D04F036FB33681FFA0A
:102A200080FBC9F800B0002B40F07B810021D8F872
:102A30000000564DDFF878A104F0ACFAB4F8863007
:102A400040F6E44101FB0BF1B1FBF0F0C01A00B21B
:102A500009F0D0F857498346D4F8880009F01EF9E8
:102A60000146584609F0CEF9D9F800302860632BAA
:102A7000DFF858B100F3498100232B603368002B45
:102A80003FF461AF02214C4806F064FBD9F8002006
:102A9000D8F8000040F6E443002103FB02F804F0FC
:102AA00079FAB8FBF0F009F0A1F88046B4F8860096
:102AB00009F0A0F80146404608F0E6FF08F044FCA3
:102AC0004FF0020802460B46CDF800803B4806F066
:102AD0008BFD4146384806F03DFB286808F034FC81
:102AE000CDF8008002460B46344806F07DFD414695
:102AF000334806F02FFB41462F4806F02BFB22E718
:102B0000234804F019FE08F01FFC022602460B467B
:102B100000962A4806F068FD24E7244B1B68012B29
:102B200000F02681022B7FF435AF264909F072FAB6
:102B300030B92549304609F04FFA002800F04781A6
:102B4000DFF85880164CD8F80030079307982368B0
:102B5000144FC01A09F04AF8314609F09FF812499B
:102B600009F050F9104909F04DF9396808F08EFF65
:102B7000D8F800300693069B386023600AE700BF50
:102B80002493FF1F6892FF1FC494FF1F5892FF1FDA
:102B9000FC92FF1F0000FA430000FAC300C3FF1FAE
:102BA0009494FF1F7492FF1F00007A445087FF1F08
:102BB0009894FF1F17B7D1387C150100C087FF1FFD
:102BC000FC0A010000C82F4800A08CC61C93FF1F00
:102BD0003D689849284609F0FFF930B128469649E2
:102BE00009F018FA00287FF4FDAEDFF85882934D03
:102BF000D8F80000924E022300220E212B6004F030
:102C0000F1F92B68012B33687FF4FDAE002B40F007
:102C100000810021D8F80000DFF86C92894D04F0A3
:102C200033FA33681FFA80FBC9F800B0002B40F07C
:102C3000D5800021D8F80000834D04F0ABF9B4F83A
:102C4000843040F6E44A0AFB0BFBBBFBF0F0C01AF1
:102C500000B208F0CFFF7D498346D4F88C0009F01C
:102C60001DF80146584609F0CDF8D9F80030286023
:102C70000021D8F800000AFB03FA04F08BF9B4F83D
:102C80008430BAFBF0F00FFA80FAC3EB0A03002B92
:102C9000B4F8B620B8BF5B429342BCBF00232B60A0
:102CA0003368002B3FF44FAE0221694806F052FA18
:102CB000D9F80020D8F8000040F6E443002103FBD7
:102CC00002F804F067F9B4F88410B8FBF0F000B231
:102CD000411A604806F080FC02215D4806F03AFA8D
:102CE000286808F031FB4FF0020802460B46CDF889
:102CF0000080584806F078FC0321574806F02AFA6D
:102D00004146534806F026FA1DE6DAF80000002195
:102D100004F040F9DBF8003064389842FFF4ACAEC0
:102D2000ACE60021286804F035F940F6E4410023C0
:102D30000A2201FB0BF1B1FBF0F1464806F00CFC56
:102D40000221434806F006FAB4F88610414806F01E
:102D500043FCD9F800B069E63E4806F0EDFB0C21D3
:102D60003E4806F0F7F90C213D4806F0F3F94DE630
:102D70003C4909F04FF958B93B49304609F02CF964
:102D800030B93A4A3A4B12680592059A1A6001E640
:102D9000DFF8D880364CD8F80030049304982368C4
:102DA000344FC01A08F022FF314608F077FF32494D
:102DB00009F028F8304909F025F8396808F066FE6E
:102DC000D8F800300393039B38602360E2E5274A7C
:102DD000274B12680892089A1A60DBE500212868E0
:102DE00004F0D8F840F6E44100230A2201FB0BF17D
:102DF000B1FBF0F1174806F0AFFB01211F4806F0C8
:102E0000A9F9B4F88410134806F0E6FBD9F800B02D
:102E10000FE7104806F090FBE36F012B4FF00B011A
:102E20000CBF1748174806F095F90C210C4806F01E
:102E300091F9EEE600709446007094C65087FF1F2B
:102E4000C494FF1F9894FF1F5892FF1F17B7D138E3
:102E50007C150100C087FF1FE80A0100EC0A010091
:102E6000D80A01000000FA430000FAC300C3FF1FA4
:102E70009494FF1F7492FF1F00007A449C09010084
:102E8000C00A0100CC0A01001C93FF1F2DE9F04786
:102E9000B24D2B6884B0002B7ED0B14CDFF8C882D5
:102EA000B04EE36FAE4D012B00F08F80D4F8803030
:102EB000AB4F012B00F0BC80D6F80090D7F858A09B
:102EC0007D6DA94F05FB0AF54FF47A7000FB05F004
:102ED00008F090FEA5490546484608F0DFFE294661
:102EE00008F090FFA24908F0D9FE09F0B3F8632872
:102EF000C8F800004BDD28469C4908F083FF642396
:102F000030603B609B4B1B68002B3DD0E36F944DC2
:102F1000012B00F0BB80032B00F00981022B00F095
:102F20000C810221944806F015F9944B186808F0BA
:102F30000BFA022402460B460094914806F054FB1B
:102F40002146904806F006F921468B4806F002F922
:102F5000D8F800108A4806F03FFB06218A4806F0A0
:102F6000F9F83068814908F099FE08F0EDF900940D
:102F700002460B46824806F037FB0321834806F0E1
:102F8000E9F87F4806F0D8FA04B0BDE8F0870028D9
:102F9000BCBF00233B60B5E77D4E714C33680293A4
:102FA000029A42F228339A4200F2BA8033680393BD
:102FB000039A42F210739A4274D8E36FDFF8A88143
:102FC000684E674D012B7FF471AF7248FEF7ACFC81
:102FD0007149D5F86890EF6E08F060FE09F060F86E
:102FE0002A6F6B6FC9EB0202DB1B80B29A42C9EBFE
:102FF000000040F3AD8003FB0000531C90FBF3F393
:103000001F44A06D636DC8F8007000FB07F003FB60
:1030100000F000EB8000400008F0ECFD5349504FF9
:1030200008F0F0FED4F880303060012B7FF444AF1C
:103030005848FEF779FC5849D7F86890FD6E08F0BB
:103040002DFE09F02DF83A6F7B6FD4F858A0C9EB2C
:1030500002025B1B80B29A42C9EB0000C6BF03FBB1
:1030600000000132584390FBF2F02844656D00FBEC
:103070000AF005FB00F000EB8000400008F0BAFD0C
:103080003A4908F0BFFE814630601AE7434B1B689F
:10309000012B4FF00A010CBF4148424806F05AF894
:1030A000EB6F38E73B48FEF73FFC3B49A76EE66E07
:1030B00008F0F4FD08F0F4FF226F636FD21B9B1B36
:1030C00080B29A42A0EB07003CDD03FB0000531CDA
:1030D00090FBF3F39819A26DDFF88C80636DC8F84C
:1030E000000002FB00F003FB00F000EB800040005A
:1030F00008F080FD1D491B4E08F084FE012330605E
:1031000002211D482B6006F025F81D4806F014FA30
:103110005921254806F01EF8194806F00DFAC0E6B8
:103120001C48626C94F84010FEF7A0FB3EE71021AB
:103130001E4806F00FF8E36FF0E607211C4806F082
:1031400009F8EEE603FB00F393FBF2F39819C2E7EC
:1031500003FB00F393FBF2F31F4452E75492FF1F6B
:103160002493FF1F7492FF1F3087FF1FE4388E3EA9
:103170000000C8423887FF1F7C1501006892FF1FBE
:10318000C087FF1FFC0A0100900B0100980B010093
:1031900000C3FF1FCC94FF1F00007A445087FF1F1D
:1031A0005C0B0100680B0100000B0100740B0100B7
:1031B000880B0100F0B5112083B004F0E1FE012876
:1031C00013D000210B2004F0D5FE00210C2004F0C8
:1031D000D1FE0021152004F0CDFE1D491D4B01201C
:1031E000002208701A6003B0F0BD014604461520A5
:1031F00004F0C0FE1849194A194B09680191D2F828
:1032000090001B680199134D034402268B422E60E7
:1032100017D8D2F8980008F0EDFC124B196808F0A6
:10322000DBFE074668B921460B2004F0A3FE084ADE
:10323000032339460C2016702B6004F09BFE03B06C
:10324000F0BD01210C2004F095FE03B0F0BD00BFDD
:103250008494FF1FC094FF1F00C3FF1F2493FF1F10
:10326000C894FF1F6892FF1FF0B5684E684D346820
:103270002B689C4287B039D014F0010155D014F06E
:10328000020149D014F004013DD0E3070ED52B68AC
:10329000DF070BD45F4F3A68002A00F082805E4B54
:1032A0001B680193019B93426DD83468A0070DD52C
:1032B0002B6899070AD4594F3A68002A4CD0564BCC
:1032C0001B680393039B934238D8346862070DD57B
:1032D0002B685B070BD4524F3A68002A7ED04E4BC6
:1032E0001B680593059B934268D834680CB107B0FE
:1032F000F0BD2146162004F0BDFC2146172004F045
:10330000B9FC07B0F0BD052004F0B4FC2B683468AC
:1033100003F0FB032B60B8E7172004F0ABFC2B682D
:10332000346803F0FD032B60ACE7162004F0A2FC28
:103330002B68346803F0FE032B60A0E7394B17209D
:10334000D3F8941004F096FC2B68346843F0020321
:1033500000222B603A60B9E7334806F0EDF80C2103
:10336000324805F0F7FE304806F0E6F8FF21172056
:1033700004F080FC284B2E4A1968029102991268C9
:103380000A443A609CE7274B1620D3F8941004F0C7
:1033900071FC2B68346843F0010300222B603A6013
:1033A00084E7FF21162004F065FC1B4B204A1968B6
:1033B0000091009912680A443A6071E7194B0520A0
:1033C000D3F8941004F056FC2B68346843F00403DF
:1033D00000222B603A60002C89D18AE7124806F05F
:1033E000ABF80C21134805F0B5FE0F4806F0A4F821
:1033F000FF21052004F03EFC074B0D4A196804919B
:10340000049912680A443A606AE700BFC094FF1F3B
:10341000E093FF1F5C94FF1F00C3FF1F6094FF1F1A
:103420006494FF1F2493FF1FC087FF1F9C0B0100A4
:103430006887FF1FAC0B01002DE9F047544EDFF801
:103440007481DFF874913068524D00220F2103F02F
:10345000C9FD0023012222214F48C8F80030C9F8D5
:10346000002005F077FED8F80030132B22DC40F660
:10347000E44700213068B5F884A003F005FE002180
:103480000446306803F086FDA4B2012107FB04F472
:10349000B4FBF0F441485444A5F8844005F05AFECA
:1034A000642004F0A3FDD8F800300133132BC8F8D2
:1034B0000030DEDDB5F88430394A3A48A2FB031209
:1034C0009B1A02EB5303C3F30F131946A5F884307C
:1034D00006F082F81D21344805F03CFE02213348F5
:1034E00005F038FE2F4806F027F800231A460E2173
:1034F0003068C8F8003003F075FD02232221264809
:10350000C9F8003005F026FED8F80030132B22DC75
:1035100040F6E44700213068B5F8869003F0B4FD2A
:1035200000210446306803F035FDA4B2012107FBF9
:1035300004F4B4FBF0F419484C44A5F8864005F0B7
:1035400009FE642004F052FDD8F800300133132B3B
:10355000C8F80030DEDDB5F88630114A1148A2FB0C
:1035600003129B1A02EB5303C3F30F131946A5F87A
:10357000863006F031F81D210D4805F0EBFD0221E3
:103580000A4805F0E7FD0748BDE8F04705F0D4BF5D
:103590009894FF1F2493FF1FBC0B0100000C010037
:1035A00087611886C087FF1FE00B01007C150100B2
:1035B000040C01008094FF1F5087FF1FF8B5774B64
:1035C000774C784D1B68286D40F2513108222160FC
:1035D000E271002B00F0DD8008F00CFB296A064642
:1035E00008F05CFB704908F059FB08F059FD80B207
:1035F000031263726D4A6E4B12681B68A9692072D0
:103600001512A37230461B12E3722273657308F021
:1036100045FB654908F042FB08F042FD83B21A12EF
:103620005F496448A373E27303F0FEFA624B634A96
:103630001B6812885A49A272DFB207EB870603EBB8
:103640008305760045F3D71512121B1227722673D5
:1036500065730826002540F255375648E2726372BA
:103660002760E671A573E57303F0DEFA40F2563386
:1036700053482360E671FEF7F5F8524908F00EFB57
:1036800008F00EFD20724E48FEF7ECF84D4908F0A8
:1036900005FB08F005FD4C4A4A49C0F307231068B2
:1036A000637208F0AFFB08F0D5FC40FA06F203465F
:1036B0004348E272A372FEF7F7F83B4908F0EEFACE
:1036C00008F0EEFC20733E48FEF7EEF8364908F0AD
:1036D000E5FA08F0E5FC3249A573C0F30723354845
:1036E0006373E57303F0A0FA022004F07FFC374B0C
:1036F0002B49187893F801E09F78DA78207240F22D
:103700005A332C48E67125736573A573E57384F805
:1037100009E0A772E272236003F086FA2C4B20497D
:1037200018785D789A782072187993F803E05F79B9
:103730006572A2729D79DA79207340F25E331D487A
:1037400084F80BE0E2732360E6716773A57303F0FE
:103750006BFA022004F04AFC1E4BE6711D785A7881
:1037600093F802E0D8781F795E79257262729D79AC
:10377000DA79E0724FF45C7384F80AE027736673B9
:10378000A573E273236006490A48BDE8F84003F0D8
:103790004BBA08F02FFA6969064621E75C92FF1FD1
:1037A000B094FF1F2493FF1F000020419094FF1F3F
:1037B0004492FF1F58C1FF1F3087FF1F3487FF1F30
:1037C000CC94FF1F0000C8426892FF1F2093FF1F88
:1037D0002887FF1F5487FF1F38B5284B1B68012B14
:1037E00000D038BD264D2748FDF7F2FFE96C08F000
:1037F0004DF904462348FEF711F80146204608F02B
:10380000EBFB0028EDD0204C1E4840F2C3320823C9
:103810002260E371FDF7DCFFAD6C294608F0DCFBAC
:10382000B8B11A49284608F039FA08F039FC80B2D4
:1038300003126072237200230122A272E3722373C7
:103840006373A373E37310491148BDE8384003F074
:10385000EBB90C48FDF7BCFF0C4908F01FFA08F063
:103860001FFCC0F3072307482372FDF7B1FF074988
:1038700008F014FA08F014FC6072DCE7A094FF1F53
:103880002493FF1FCC94FF1FB094FF1F0000C84279
:1038900058C1FF1FF0B59C4C9C4D83B005F0F4FB64
:1038A00023682860042B00F0AC82022B4BD0082B3D
:1038B00000F09280072B40F05181332801F0C5833E
:1038C00000F3AD80312801F0D383322840F0B0807E
:1038D00005F016FC002840F33F818D488D4E05F021
:1038E000BDFF08F087F98C4908F0D8F9612301225F
:1038F000F06322602B601846A0F152031F2B01F2E7
:103900009483DFE813F0360B920B920B920B920B21
:10391000920B920B920B920B920B920B920B920BBF
:10392000920B920BB203AB0C3905A7057304920BF3
:10393000920B920B2604920BAE0C920B920B920BF5
:10394000920B920B240BA0F13102422A70D8DFE8CF
:1039500012F022072E07E606F306060715076F008A
:103960006F006F006F006F006F006F006F006F00DF
:103970006F006F006F006F006F006F006F006F00CF
:103980006F006F006F006F006F006F006F006F00BF
:103990006F006F006F006F006F006F006F006F00AF
:1039A0006F006F006F006F006F006F006F006F009F
:1039B0006F006F006F00D3066F006F006F006F0025
:1039C0006F006F006F006F006F006F006F006F007F
:1039D0006F006B006F00D906322800F02F8371282A
:1039E00022D0312824D105F08BFB002840F34286F9
:1039F0004748484E05F032FFC0B286F84000022822
:103A000094BF01460021726C444888BF86F840107C
:103A1000FDF72CFF01236920236028606CE7342820
:103A200001F03C83712803D10023732023602860B8
:103A3000002B08BF73280CBF01200020002860D095
:103A4000334805F079FD0421354805F083FB304803
:103A500005F072FD1021334805F07CFB2C4805F081
:103A60006BFD1321304805F075FB304B2848196871
:103A700005F0B2FD264805F05FFD14212C4805F045
:103A800069FB234805F058FD1E212A4805F062FB1A
:103A90001F4805F051FD1521274805F05BFB1C4828
:103AA00005F04AFD1E21254805F054FB184805F095
:103AB00043FD2021224805F04DFB154805F03CFD53
:103AC0001921204805F046FB114805F035FD12216B
:103AD0001D4805F03FFB0E4805F02EFD0F211B4849
:103AE00005F038FB0A4805F027FD0D21184805F0C0
:103AF00031FB074805F020FD164A00210123116023
:103B0000236003B0F0BD00BF7892FF1F6492FF1FD7
:103B1000C087FF1F2493FF1F6F12833ACC94FF1FAF
:103B2000F813010000140100141401002087FF1F86
:103B300028140100401401006014010078140100F1
:103B400098140100BC140100D8140100EC14010009
:103B5000FC1401003887FF1F23682868062B40F0FB
:103B60008D80A0F13102402A3FF662AF01A151F8E9
:103B700022F000BFAB450000D7450000034600001F
:103B8000294600004F46000087450000313A0000FA
:103B9000313A0000313A0000313A0000313A000079
:103BA000313A0000313A0000313A0000313A000069
:103BB000313A0000313A0000313A0000313A000059
:103BC000313A0000313A0000313A0000313A000049
:103BD000313A0000313A0000313A0000313A000039
:103BE000313A0000313A0000313A0000313A000029
:103BF000313A0000313A0000313A0000313A000019
:103C0000313A0000313A0000313A0000313A000008
:103C1000313A0000313A0000313A0000313A0000F8
:103C2000313A0000313A0000313A0000313A0000E8
:103C3000313A0000313A0000313A0000313A0000D8
:103C4000313A0000313A0000313A0000313A0000C8
:103C5000313A0000313A0000313A0000313A0000B8
:103C6000313A0000313A0000313A0000313A0000A8
:103C7000313A0000293A000023682868052B15D145
:103C8000332801F0528240F34781352801F03F820A
:103C9000C1F2168271287FF4CBAEDC4A0023732078
:103CA000136023602860C3E623682868032B40F074
:103CB000A480A0F13002422A3FF6BAAE01A151F829
:103CC00022F000BFD13D0000FF4E0000274F000052
:103CD000E34D0000054E0000274E00004F4E00004F
:103CE000774E0000954E0000B94E0000313A0000BA
:103CF000313A0000313A0000313A0000313A000018
:103D0000313A0000313A0000313A0000313A000007
:103D1000313A0000313A0000313A0000313A0000F7
:103D2000313A0000313A0000313A0000313A0000E7
:103D3000313A0000313A0000313A0000313A0000D7
:103D4000313A0000313A0000313A0000313A0000C7
:103D5000313A0000313A0000313A0000313A0000B7
:103D6000313A0000313A0000313A0000313A0000A7
:103D7000313A0000313A0000313A0000313A000097
:103D8000313A0000313A0000E14E0000B348000033
:103D9000074D0000314D00004F4D0000A34D0000C5
:103DA000694800008D480000313A0000313A0000B7
:103DB000313A0000313A0000313A0000313A000057
:103DC000313A0000313A0000254D00006D4D0000F1
:103DD00005F096F9002841F331818D488D4E05F0AC
:103DE0003DFD01270346014662228B48736527602B
:103DF0002A60FDF739FD23682868012B7FF418AE8F
:103E00007AE5A0F13102402A3FF612AE01A151F845
:103E100022F000BFCB470000E3470000E747000067
:103E20000D4800004D4800001148000023480000E4
:103E3000274800002B480000313A0000313A0000CA
:103E4000313A0000313A0000313A0000313A0000C6
:103E5000313A0000313A0000313A0000313A0000B6
:103E6000313A0000313A0000313A0000313A0000A6
:103E7000313A0000313A0000313A0000313A000096
:103E8000313A0000313A0000313A0000313A000086
:103E9000313A0000313A0000313A0000313A000076
:103EA000313A0000313A0000313A0000313A000066
:103EB000313A0000313A0000313A0000313A000056
:103EC000313A0000313A0000313A0000313A000046
:103ED000313A0000313A0000313A0000313A000036
:103EE000313A0000313A0000313A0000313A000026
:103EF000313A0000313A0000313A0000313A000016
:103F0000313A0000313A0000313A0000313A000005
:103F1000313A0000293A0000312801F0E7803228C8
:103F20007FF486AD05F0ECF800287FF7BDAE384889
:103F3000384E05F093FC01226B23C6F898002260EE
:103F40002B6001E005F0A0F805F0DAF80028F9D1BF
:103F50002F4805F0F1FA2E4805F0EEFA2C4805F04E
:103F6000EBFA2B4805F0E8FA294805F0E5FA21219B
:103F70002A4805F0EFF8264805F0DEFA1521284812
:103F800005F0E8F8D6F89010214805F025FB02214D
:103F9000244805F0DFF81E4805F0CEFA1E2122481D
:103FA00005F0D8F8D6F89810194805F015FB03214C
:103FB0001E4805F0CFF8164805F0BEFA1E211C4831
:103FC00005F0C8F8D6F89410114805F005FB104824
:103FD00005F0B2FA1D21174805F0BCF8D6F8A0107C
:103FE0000B4805F0F9FA0A4805F0A6FA1E21124816
:103FF00005F0B0F8D6F8A410054805F0EDFA04482D
:1040000005F09AFA052323607BE500BF7894FF1F33
:10401000C087FF1F2493FF1FCC94FF1F700E010069
:10402000940E0100C80D0100AC0E0100E80A010069
:10403000CC0E0100EC0E01000C0F010005F060F841
:10404000002840F31383B248B24E05F007FC07F096
:10405000D1FDB14907F022FE0346024696F8401012
:10406000AE487364D4E405F00FF805F049F805464E
:104070000028F8D1A648A74E05F05EFAA44805F03E
:104080005BFAA34805F058FAA14805F055FAA04894
:1040900005F052FA1F21A24805F05CF89C4805F093
:1040A0004BFA1C219F4805F055F8706A9E4907F0AD
:1040B000F5FD07F049F9009502460B46944805F0D6
:1040C00093FA0221994805F045F8914805F034FA31
:1040D0002321974805F03EF8F06B934907F0DEFD89
:1040E00007F032F9009502460B46894805F07CFA44
:1040F00002218E4805F02EF8854805F01DFA192199
:104100008C4805F027F8B06B07F01EF902250B4626
:10411000024600957E4805F067FA2946864805F074
:1041200019F87B4805F008FA1921844805F012F8BF
:10413000B6F8B410764805F04FFA0321804805F030
:1041400009F8734805F0F8F907232360D9E404F06F
:104150009BFF04F0D5FF05460028F8D16C486D4E52
:1041600005F0EAF96A4805F0E7F9694805F0E4F96D
:10417000674805F0E1F9664805F0DEF91521714858
:1041800004F0E8FF624805F0D7F918216E4804F002
:10419000E1FF2B460A2296F840105D4805F0DCF955
:1041A0005B4805F0C9F92821684804F0D3FF706C1A
:1041B0005D4907F073FD07F0C7F800950B4602460E
:1041C000534805F011FA0221584804F0C3FF504843
:1041D00005F0B2F913215E4804F0BCFF4C4805F02D
:1041E000ABF9082323608CE404F04EFF04F088FF51
:1041F00005460028F8D14648464E05F09DF944484A
:1042000005F09AF9424805F097F9414805F094F90C
:104210003F4805F091F911214E4804F09BFF3C48BE
:1042200005F08AF928214C4804F094FF70693E4952
:1042300007F034FD07F088F8009502460B46344835
:1042400005F0D2F90221394804F084FF304805F026
:1042500073F91621414804F07DFFF069324907F0F7
:104260001DFD07F071F800950B460246284805F041
:10427000BBF902212D4804F06DFF254805F05CF9DB
:10428000D6F8AC30002B32DD1D21354804F062FF3A
:10429000F06D07F0AFFC334907F000FD07F054F86C
:1042A000022502460B460095194805F09DF90121AB
:1042B0002D4804F04FFF164805F03EF91F212B480A
:1042C00004F048FF306E07F095FC264907F0E6FC45
:1042D00007F03AF8009502460B460D4805F084F9C0
:1042E0000121214804F036FF094805F025F9112184
:1042F0001F4804F02FFFD6F8AC30052B00F256868D
:10430000DFE813F07F067A0650068E0689068406DB
:10431000C087FF1F2493FF1F6F12833ACC94FF1FA7
:10432000CC0D0100EC0D010000007A449C0C010052
:104330000C0E0100300E01004C0E0100500E010069
:104340006C0E0100C0140100540C0100700C01003F
:10435000A00C010064140100B40C0100E00C010089
:10436000F80C0100CDCCCC3D50110100180D01001E
:10437000380D010004F088FE04F0C2FE0028F9D1D7
:10438000BF48C04E05F0D8F8BD4805F0D5F8BC4888
:1043900005F0D2F8BA4805F0CFF8B94805F0CCF8E6
:1043A0001F21B94804F0D6FEB54805F0C5F81E2116
:1043B000B64804F0CFFEB24805F0BEF81A21B44862
:1043C00004F0C8FEF36F022B00F01787032B00F0F8
:1043D0000B87012B00F01A870921AE4804F0BAFEC2
:1043E000A74805F0A9F81421AB48A64F04F0B2FE87
:1043F000B16FA34805F0F0F8A14805F09DF81C2125
:10440000A64804F0A7FED6F880109D4805F0E4F811
:104410009B4805F091F81C21A14804F09BFED6F8BA
:10442000A810974805F0D8F8954805F085F8F56F7D
:1044300025F00205012D00F091861321994804F022
:1044400089FE8F4805F078F802232360FFF759BBF7
:1044500004F01AFE04F054FE0028F9D1884805F053
:104460006BF8874805F068F8854805F065F88448DA
:1044700005F062F8824805F05FF813218A4804F0DD
:1044800069FE7F4805F058F80D21884804F062FE67
:104490007B4805F051F80F21854804F05BFE854B01
:1044A0007748196805F098F8754805F045F8132124
:1044B000814804F04FFE814B7148196805F08CF873
:1044C0006F4805F039F812217D4804F043FE7D4B1A
:1044D0006B48196805F080F8694805F02DF811213E
:1044E000794804F037FE794B6548196805F074F88F
:1044F000634805F021F80E21754804F02BFE614B4E
:104500005F48D3F89C1005F067F85D4805F014F893
:104510001921704804F01EFE6F4B5948196805F0C8
:104520005BF8574805F008F811216C4804F012FEBA
:104530006B4B5348196805F04FF8514804F0FCFFE5
:104540001021684804F006FE674B4D48196805F0D5
:1045500043F84B4804F0F0FF1C21644804F0FAFDD6
:10456000634B4748196805F037F8454804F0E4FF05
:1045700013214C4804F0EEFD414804F0DDFF042314
:104580002360FFF7BEBA04F0BBFD00287FF774ABD1
:104590003B483C4E05F062F965230122C6F8B000A5
:1045A00022602B601846FFF7A7B904F0A9FD002888
:1045B0007FF762AB3248334E05F050F907F01AFB33
:1045C0004C4907F01FFC65230122706122602B60BB
:1045D0001846FFF791B904F093FD00287FF74CAB24
:1045E0002748284E05F03AF907F004FB414907F047
:1045F00009FC65230122F06122602B601846FFF759
:104600007BB904F07DFD00287FF736AB1C481D4EBA
:1046100005F024F900EB8000430001226520F365DA
:1046200022602860FFF768B904F06AFD00287FF770
:1046300023AB1348134E05F011F900EB8000430043
:1046400001226520336622602860FFF755B90D4AC4
:10465000D2F8AC300133052BC8BF0023C2F8AC3010
:104660006520012323602860FFF746B92368286886
:10467000FFF720B9034E96F84000FFF7C0B900BF1E
:10468000C087FF1F2493FF1F10100100301001008E
:1046900050100100C8100100D4100100EC100100FE
:1046A0000C110100A00C01002C0F0100400F0100B3
:1046B000500F01005894FF1F600F0100C494FF1FAA
:1046C000740F0100A894FF1F880F0100AC94FF1F16
:1046D0009C0F0100AC0F01007C94FF1FC80F01006C
:1046E0007894FF1FDC0F01006092FF1FF00F0100A4
:1046F0005C87FF1F00007A44FEF79EFE236828684F
:10470000FFF7D5B8724AD36F0133032BC8BF00231C
:10471000D3670123632023602860FFF7EDB80123EE
:10472000236004F0EDFC0028F3DD6A48684E05F0D4
:1047300095F8C6F8A800ECE70123236004F0E0FC3C
:10474000002807DD6348624E05F088F807F052FA4A
:10475000C6F88C00632028602368FFF7ABB80123FC
:10476000236004F0CDFC0028F4DD5A48584E05F0D3
:1047700075F807F03FFAC6F88800EBE701232360DD
:1047800004F0BEFC0028E5DD5248514E05F066F805
:10479000A6F8B600DEE74E4EB36FB3FA83F35B09BB
:1047A00001226320B36722602860FFF7A5B8484E56
:1047B000D6F88030B3FA83F35B0901226320C6F890
:1047C000803022602860FFF797B8434A1368B3FA35
:1047D00083F35B0901216420136021602860FFF7E7
:1047E0008BB83E4AF2E73E4A3E4F1368002B0CBF9F
:1047F000012300234FF001001360206040F0DE84AD
:10480000034664222A606420FFF751B8364ADDE788
:10481000012336482360FCF7B7FE354A2368106051
:10482000EFE7344AD2E7344AD0E70123236004F0AB
:1048300067FC002800F38A84304B1A68042AC4BF3E
:1048400002221A6064232B602368DCE7204ED6F82E
:104850009C30B3FA83F35B0901226420C6F89C30D4
:1048600022602860FFF748B804F04AFC00280DDDFC
:104870001848174E04F0F2FF07F0BCF9204907F082
:10488000C1FA01226223306222602B6004F038FCFE
:1048900000280EDD0F480E4E04F0E0FF07F0AAF9E5
:1048A000174907F0AFFA01226223C6F8B800226068
:1048B0002B6004F025FC002840F3C0830548044E1B
:1048C00004F0CCFF01226223B06622602B601BE063
:1048D0002493FF1FC087FF1F5894FF1FC494FF1F1E
:1048E000A894FF1F7892FF1FAC94FF1FCC94FF1F6A
:1048F0007C94FF1F7894FF1F6092FF1F5C87FF1F4F
:1049000000007A4404F0C0FB04F0FAFB05460028DE
:10491000F8D1C24804F010FEC04804F00DFEBF48B4
:1049200004F00AFEBD4804F007FEBC4804F004FE93
:104930001521BB4804F00EFCB84804F0FDFD14211D
:10494000B84804F007FCB54804F0F6FD1B21B64852
:1049500004F000FCB14804F0EFFD1321B34804F06B
:10496000F9FBAE4804F0E8FDAC4804F0E5FDAB48C7
:1049700004F0E2FD2021AE4804F0ECFBF068AD4904
:1049800007F08CF906F0E0FC009502460B46A348C0
:1049900004F02AFE0221A84804F0DCFB0221A7480B
:1049A00004F0D8FB9D4804F0C7FD2121A44804F081
:1049B000D1FB30699F4907F071F906F0C5FC0095FD
:1049C00002460B46954804F00FFE02219A4804F077
:1049D000C1FB0221994804F0BDFB904804F0ACFDF6
:1049E0001F21984804F0B6FBB06A06F0ADFC022720
:1049F00002460B460097894804F0F6FD01219248D3
:104A000004F0A8FB39468D4804F0A4FB834804F069
:104A100093FD20218D4804F09DFBF06A06F094FC84
:104A2000009702460B467D4804F0DEFD01218648D2
:104A300004F090FB3946814804F08CFB774804F081
:104A40007BFD2321824804F085FBB06C794907F097
:104A500025F906F079FC009502460B466F4804F0F4
:104A6000C3FD3946744804F075FB3946734804F0B9
:104A700071FB6A4804F060FD1F21764804F06AFB70
:104A8000F06C6C4907F00AF906F05EFC00950246EE
:104A90000B46624804F0A8FD3946674804F05AFB0B
:104AA0003946664804F056FB5C4804F045FD192180
:104AB000694804F04FFBB16D584804F08DFD39464C
:104AC000664804F047FB39465C4804F043FB534812
:104AD00004F032FD1821624804F03CFB706E07F0D0
:104AE00089F8604907F0DAF806F02EFC00970246D4
:104AF0000B464A4804F078FD01215B4804F02AFB8C
:104B000039464E4804F026FB444804F015FD2B219D
:104B1000564804F01FFBB069464907F0BFF806F09D
:104B200013FC009502460B463C4804F05DFD3946F7
:104B3000414804F00FFB3946404804F00BFB37486E
:104B400004F0FAFC1F214A4804F004FB716D33485D
:104B500004F042FD3946394804F0FCFA2F4804F0CD
:104B6000EBFC2021434804F0F5FA316D2B4804F0AA
:104B700033FD3946314804F0EDFA284804F0DCFCF6
:104B800010213D4804F0E6FAB16E244804F024FDFB
:104B90003946294804F0DEFA3946284804F0DAFAA2
:104BA0001E4804F0C9FC1321344804F0D3FAF16E16
:104BB0001A4804F011FD0121314804F0CBFA3946BE
:104BC0001E4804F0C7FA154804F0B6FC10212D4821
:104BD00004F0C0FA316F114804F0FEFC3946164863
:104BE00004F0B8FA3946154804F0B4FA0B4804F05A
:104BF000A3FC1421244804F0ADFA716F074804F0B7
:104C0000EBFC01211E4804F0A5FA39460B4804F0DC
:104C1000A1FA024804F090FC162137E0C087FF1F7C
:104C200098110100B0110100C8110100A00C010091
:104C3000E411010000007A449C0C01007C15010085
:104C4000081201002C120100100801004C12010092
:104C50007012010094120100B4120100D012010080
:104C6000D4120100CDCCCC3D50110100F012010056
:104C70001C1301003C1301006013010074130100B8
:104C8000881301008C130100A0130100BA4804F03E
:104C900061FA306AB94907F001F806F055FB009552
:104CA00002460B46B64804F09FFC3946B54804F06E
:104CB00051FA3946B44804F04DFAB14804F03CFCCE
:104CC0002421B24804F046FAD6F8B800AB4906F001
:104CD000E5FF06F039FB00950B460246A84804F0B4
:104CE00083FC3946A74804F035FA3946A64804F053
:104CF00031FAA34804F020FCA14804F01DFC032372
:104D00002360FEF7FEBE04F0FBF9002840F3968115
:104D10009B489F4E04F0A2FD01226223F0662260B0
:104D20002B60F1E50022732322602B60FEF788BE22
:104D300004F0E6F9002840F381819148944E04F094
:104D40008DFD01226223306722602B60DCE504F0D8
:104D5000D7F9002840F3728189488D4E04F07EFD1A
:104D600001226223706722602B60CDE5894B864863
:104D7000874E002202211A6004F0ECF9804804F00A
:104D8000DBFB0B21844804F0E5F902217E4804F0A6
:104D9000E1F97B4804F0D0FB0122622322602B6002
:104DA000B2E5FCF7E5FF02217748794E04F0D2F92D
:104DB000734804F0C1FB0221734804F0CBF970483A
:104DC00004F0BAFB0221704804F0C4F96C4804F006
:104DD000B3FB1721714804F0BDF9694804F0ACFB3E
:104DE000D3E704F08DF9002840F328816448684E29
:104DF00004F034FD06F0FEFE01226223B062226060
:104E00002B6081E504F07CF9002840F317815C48B1
:104E10005F4E04F023FD06F0EDFE01226223F062F6
:104E200022602B6070E504F06BF9002840F30681E6
:104E30005348574E04F012FD06F0DCFE4F4906F0D1
:104E4000E1FF01226223B06422602B605CE504F084
:104E500057F9002840F3F28049484D4E04F0FEFC1B
:104E600006F0C8FE454906F0CDFF01226223F0643A
:104E700022602B6048E504F043F9002840F3DE800F
:104E80003F48434E04F0EAFC01226223B0652260F1
:104E90002B6039E504F034F9002840F3CF8038481E
:104EA0003B4E04F0DBFC00EB80004300012162225A
:104EB000736621602A6027E504F022F9002840F398
:104EC000BD802F48324E04F0C9FC06F093FE2B49FA
:104ED00006F098FF01226223B06122602B6013E587
:104EE00004F00EF9002840F3A9802548284E04F06C
:104EF000B5FC01226223306522602B6004E504F0DA
:104F0000FFF8002840F39A801D48214E04F0A6FCCB
:104F100006F070FE194906F075FF01226223F06069
:104F200022602B60F0E404F0EBF8002840F3868068
:104F30001348174E04F092FC06F05CFE0F4906F091
:104F400061FF01226223306122602B60DCE4BC221D
:104F500000210F4802F042FD2868114AA0F17300B9
:104F600001210023B0FA80F0400911602360FEF7B0
:104F700065BD03F0B9FB00BFB813010000007A441F
:104F8000C087FF1F9C0C01007C150100D01301009D
:104F90002493FF1F5492FF1F480C0100300C0100A6
:104FA0003887FF1F0C21B04804F0D4F8AF48B04D4B
:104FB00004F0C2FAD6F8AC30002B0FDD1821AD4852
:104FC00004F0C8F8D5F8B010A84804F005FB022199
:104FD000A94804F0BFF8A54804F0AEFAA34804F0CD
:104FE000ABFA1321A54804F0B5F8A04804F0A4FAE0
:104FF00006232360FEF785BD0C21A14804F0AAF822
:10500000D4E70D219F4804F0A5F8CFE70F219E4873
:1050100004F0A0F8CAE70D219C4804F09BF8C5E70E
:105020000D219B4804F096F8C0E72368002B08BFC9
:1050300073280CBF01200020FEF700BD23682868FC
:10504000012B7EF4F5ACFEF757BC04F059F80028AC
:105050007EF782AD8548864E04F000FC06F0CAFD5E
:1050600061230122B06322602B601846FEF744BC26
:1050700004F046F800287EF76FAD7C487C4E04F0C3
:10508000EDFB06F0B7FD834906F008FE612301221F
:10509000706222602B601846FEF72EBC04F030F8D8
:1050A00000287EF759AD7148714E04F0D7FB61239B
:1050B0000122A6F8B40022602B601846FEF71CBC43
:1050C00004F01EF800287EF7EFAD6848684E04F043
:1050D000C5FB714BC6F8A00002221A60FDF78EF9DD
:1050E00001226B2322602B60FEF72EBF04F008F82C
:1050F00000287EF7D9AD5D485D4E04F0AFFB01227C
:105100006B23C6F8900022602B60FEF71DBF03F0F2
:10511000F7FF00287EF7C8AD5448554E04F09EFBBB
:105120005D4BC6F8A4000322D7E703F0E9FF00288F
:105130007EF7BAAD4D484E4E04F090FB01226B2332
:10514000C6F8940022602B60FEF7FEBE474804F0CC
:1051500085FB524B02461860FFF770BB1C2150487C
:1051600003F0F8FFD7F88C004E4906F097FD06F0E3
:10517000EBF8009502460B463C4804F035FA052151
:10518000494803F0E7FF394804F0D6F9FD6F012DD7
:1051900045D0032D7FF451A91C21444803F0DAFFC8
:1051A000B6F8B610314804F017FA0321404803F06E
:1051B000D1FF2E4804F0C0F9FFF73FB93D4B002660
:1051C00031460B201E6002F0D5FE31460C2002F065
:1051D000D1FE3146142002F0CDFE3146152002F0FA
:1051E000C9FE3B68FFF70DBB2021334803F0B2FF37
:1051F0001E4804F0A1F9FFF7F6B817212F4803F075
:10520000A9FF1A4804F098F9FFF7EDB81E212C48C1
:1052100003F0A0FF154804F08FF9FFF7E4B81D2153
:10522000284803F097FFD7F888001E4906F036FD9E
:1052300006F08AF800950B4602460C4804F0D4F9B3
:105240000521194803F086FF084804F075F9FB6F43
:1052500023F00203012B9FD0FFF7EFB8044EFFF7B6
:1052600053BB034EFEF770BE6C0D0100C087FF1FDD
:105270002493FF1FAC0D0100C80D0100A00C01001C
:105280005C0D01004C0D01009C0D01008C0D010016
:105290007C0D01006F12833A7894FF1F5C87FF1F1B
:1052A0002C110100CDCCCC3D4C110100741101003A
:1052B00094110100C094FF1F8C100100B010010078
:1052C0006C1001005411010038B5164C164A2368C1
:1052D000101D12F8011F904241EA0323F9D1236007
:1052E000124C03F100432360114BDB6F022B11D0F2
:1052F000104B1B68012B00D038BD0F4804F01CF97F
:1053000021680D4804F068F903210C48BDE83840D5
:1053100003F020BF20680A4D06F06CFC2860FDF702
:1053200005FBE5E73C92FF1F6F94FF1F8C94FF1F66
:105330002493FF1F5894FF1FC087FF1F0C15010007
:105340005892FF1F30B53F4C3F4883B0214601F0D3
:1053500063FB236840F2C232934258D06FF4C061BD
:105360005A18B2F5FF7F4CD903F100436FF4C062C5
:105370001344B3F5FF7F3FD9344B1B68012B01D099
:1053800003B030BD324B1B68012BF9D1314B324891
:105390001B6801930A220023019904F0DDF82268BA
:1053A000284B002ADB7945DB2C492D4807F054FCBB
:1053B0002B4807F085FC0146294803F0CBFE256801
:1053C000204B15F0804526D1DB798BB16319254937
:1053D0001A7A234807F040FC214807F071FC014687
:1053E0001F4803F0B7FE0135E379EDB2AB42EDD8CB
:1053F000194804F0A1F8C3E712491B48FCF7EAF882
:10540000BAE710491848FCF7E5F82368ACE7FFF75E
:105410005BFF2368A2E7154D114C0FCD0FC495E833
:10542000030044F8040B204620F81419152103F05A
:1054300091FEDDE70E490A4822F0604207F00CFCBD
:10544000B6E700BF6894FF1F58C1FF1F3887FF1FD2
:105450005894FF1F00C3FF1FC087FF1F38150100AE
:105460007C92FF1F64150100CC94FF1F4C150100B6
:10547000101501002DE9F84F9A4B9B4C1B78052B1A
:1054800008D09A48FCF710FAE16A06F0A5FD00285A
:1054900000F09380964E974D002333602B60964B1F
:1054A00092481B68904F012B45D0FCF7B7F9E16992
:1054B0008046606906F0E8FA0146404606F0AAFD1B
:1054C00000284CD18948FCF7A9F9E16806F0A2FD53
:1054D00008B100232B608548834FFCF779F92169D7
:1054E00006F07AFD58B1002333602B68814A002B07
:1054F00001DBBDE8F88F00231360BDE8F88F7B481F
:10550000FCF766F9B96906F067FD0028EBD177482A
:10551000FCF75EF9D7F8B8100446B86906F0B6FA99
:105520000146204606F076FD002873D0786E306084
:105530000028D8DBD9E7FCF771F9E1698046206AD9
:1055400006F0A2FA0146404606F064FD0028B9D0F4
:105550006648FCF763F9D7F82090834605E0634876
:10556000FCF75CF9D7F814908346F969484606F0D1
:105570008BFA8246F86D06F03DFB8046386E06F0E9
:1055800039FB414606F080FA51460746584606F078
:105590007BFA0146384606F081FB514607464846ED
:1055A00006F072FA0146384606F02CFC414606F039
:1055B0006DFA06F04FFD286084E74C48FCF774F95B
:1055C000216B06F009FD002849D0494E636E47481B
:1055D0003360FCF769F98146E06DE76A454D06F0F6
:1055E00009FB39468046484606F04EFA01464046D9
:1055F00006F054FB39468046206B06F045FA01461A
:10560000404606F0FFFB002106F040FA06F022FDBE
:10561000286044E73548FCF7DBF88146F86DBC6943
:1056200006F0E8FA21468046484606F02DFA014683
:10563000404606F033FBD7F8B8108046204606F007
:1056400025FA214606F020FA0146404606F0DAFB2C
:10565000002106F01BFA06F0FDFC306068E72348E5
:10566000FCF722F9616B06F0B7FC30B1204E214DFA
:10567000626EE36D32602B6011E71C48FCF714F991
:10568000A16A06F0A9FC00283FF404AF1748184EA1
:10569000184DFCF709F98146606ED4F8348006F0A5
:1056A000A9FA41460746484606F0EEF939468146D2
:1056B000002006F0E9F90146484606F0EFFA4146B7
:1056C0008146A06A06F0E0F90146484606F09AFBDA
:1056D000394606F0DBF906F0BDFCE36D30602B6067
:1056E000DDE600BF8494FF1F2493FF1FCC94FF1FAF
:1056F0009094FF1F4492FF1F5C92FF1F08B527483C
:1057000003F01AFF0721264803F024FD112002F0C0
:1057100037FC0621F8B1234803F01CFD122002F0EB
:105720002FFC062100B3204803F014FD122002F0E4
:1057300027FC062108B31D4803F00CFD132002F0DE
:105740001FFC062110BB1A4803F004FD1348BDE8F6
:10575000084003F0F1BE174803F0FCFC122002F0F1
:105760000FFC06210028DED1134803F0F3FC1220C1
:1057700002F006FC06210028DDD1104803F0EAFC07
:10578000132002F0FDFB06210028DCD00C4803F0BA
:10579000E1FC0248BDE8084003F0CEBEC087FF1F11
:1057A0007015010078150100881501009815010099
:1057B000B01501008015010090150100A015010031
:1057C000A815010010B5254C2368042B27DC012106
:1057D0000B2002F0CFFB01210C2002F0CBFB0121BA
:1057E000142002F0C7FB0121152002F0C3FBFF21AA
:1057F000162002F03FFAFF21172002F03BFAFF21AA
:10580000052002F037FAFF21062002F033FA236860
:1058100001330A2B2360C4BF0023236010BD002185
:105820000B2002F0A7FB00210C2002F0A3FB0021BB
:10583000142002F09FFB0021152002F09BFB0021A9
:10584000162002F017FA0021172002F013FA0021A7
:10585000052002F00FFA0021D6E700BFA494FF1F35
:105860002DE9F0418D4DD5F8AC30042B3ED0032B03
:105870006ED0012B00F09880022B01D0BDE8F081A2
:10588000874C8848237240F20E3201232146226061
:10589000E37101F0C9F9844B1B685B00FF2BC8BFA3
:1058A000FF23042140224FF441702060E1712272F5
:1058B0006372286D06F09EF9696906F0EFF97B497D
:1058C000054606F0A7FB002800F0DE8029462846A2
:1058D00006F0DCF806F0E4FB80B20312E072A3727B
:1058E0006F497048BDE8F04101F09EB96C4C704AB8
:1058F000A379226043F001030822E271A371286DAD
:1059000006F078F9696906F0C9F96A4906F0C6F93E
:1059100006F0C6FB644B684A1B68126893FBF2F3FF
:1059200080B200261A120712607221465D48E372A7
:10593000A272277226736673A673E67301F074F978
:10594000A279D5F8AC3066F30002032BA27190D196
:10595000534C286DA3720122E823072140F2FF2651
:10596000227263722660E17106F044F9696906F0FB
:1059700095F9504906F092F906F092FB4A4B4E4ACF
:105980001B68126893FBF2F382B21E1217122146B3
:1059900044486373E2722773A67301F045F9D5F8A2
:1059A000AC30012B7FF468AF444B3D4C1B68236047
:1059B000072280231020E271237202F0E1FA00280E
:1059C00069D13F4B1B68DFF8E0803B4F286D344EB8
:1059D00003EB83035B001A12A3726272D8F80030E3
:1059E0003A6893FBF2F31A126273A37306F002F99A
:1059F000696906F053F9334B196806F045F82D49EB
:105A000006F04CF906F04CFB80B2031231462073CD
:105A10002448E37201F008F9022002F0E7FA2A4B69
:105A20001B682360072280231020E271237202F09A
:105A3000A7FA70BB224B1B68286D03EB83035B0046
:105A40001A127272B37206F0D5F8696906F026F977
:105A50001E4B196806F018F8164906F01FF906F0F3
:105A60001FFB82B216123868D8F80030227393FBFD
:105A7000F0F30B490B48A3731A12E672627301F03C
:105A8000D3F8D5F8AC30F7E601229023A272E37286
:105A900026E70F4BCFE70E4B94E700BF2493FF1F81
:105AA000B094FF1F58C1FF1F4492FF1F00004843DE
:105AB000F4E50618000020414887FF1F6087FF1F9C
:105AC0004087FF1FE893FF1F6487FF1F7092FF1F2F
:105AD0004487FF1F2DE9F04790B001E0FFF732FC4B
