:1000000000800020BD010000C1770000797700006A
:100010007977000079770000797700007977000020
:10002000797700007977000079770000C1770000C8
:10003000C177000079770000CD900000D1910000D9
:10004000C1770000C1770000C1770000C1770000D0
:10005000C1770000C1770000C1770000C1770000C0
:10006000C1770000C1770000C1770000C1770000B0
:10007000C1770000C1770000C1770000C1770000A0
:10008000C1770000C1770000C1770000C177000090
:10009000C1770000C1770000C1770000C177000080
:1000A000C1770000C1770000C1770000C177000070
:1000B000C1770000956B0000A16B0000A56B0000EC
:1000C000B16B0000B56B0000B96B0000C177000098
:1000D000C1770000C1770000C1770000C177000040
:1000E000C1770000C1770000C1770000C177000030
:1000F000C177000095970000C1770000357E0000B1
:10010000C17700004D810000C1770000C177000079
:10011000C1770000C1770000C1770000C1770000FF
:10012000C1770000C1770000C1770000C1770000EF
:10013000C1770000C1770000C1770000C1770000DF
:10014000C1770000C1770000C1770000C1770000CF
:10015000C1770000C1770000C1770000C1770000BF
:10016000C177000099830000C1770000C1770000CB
:10017000C1770000C1770000C1770000C17700009F
:10018000C1770000C1770000C1770000C17700008F
:10019000C1770000C1770000C1770000C17700007F
:1001A000C1770000C1770000C1770000C17700006F
:1001B000C1770000C1770000C1770000564B4CF2B8
:1001C000205210B51A804DF628121A8000BF00BFC9
:1001D00007F0FAFA514B4FF010621A60504A9A60D9
:1001E000504ADA60504A136813F4807304D14F49BF
:1001F0000B604FF4A85313604D4B1A78110703D5C9
:100200001A7842F008021A704A4B4B492A221A7097
:100210004A4A4B4B8B4204D252F8040F43F8040B6A
:10022000F8E7484B484900228B4202D243F8042B9E
:10023000FAE74649464A002352F8230041F82300D2
:1002400001336F2BF8D1434B434A802103F8011B44
:100250009342FBD1414B3D4A1A60414B8A221A70AE
:10026000A3F5805324225A70A0221A709A7992071B
:10027000FCD59A79D406FCD43A4A937903F00C035E
:10028000082B384BF9D103221A7140225A719A79FE
:100290009006FCD5334A9179324B4906FBD5324A58
:1002A000324911600221516020221A709A7902F0BD
:1002B0000C020C2AFAD12E4B2E4A1A602E4B2F4AD2
:1002C0001A6000225A60072243F8042C2C4AC3F813
:1002D0000C2D62B607F02EFD144B1B68DA0705D50E
:1002E000284807F00BFB284B284A1A60284B1B783C
:1002F0005B0609D5244C254B22689A4204D121483B
:1003000007F0FCFA002323600BF048FD07F062FAC7
:1003100009F000F9FEE700BF0E20054030800440E0
:10032000823F04000100002B10D0034014D0034092
:1003300002D0074000E007402092FF1F2C18010068
:100340002087FF1F2092FF1FECC5FF1F0082FF1FA9
:100350000000000000E400E05FE400E008ED00E0E1
:100360000050064000400640448004400000030165
:1003700004800440C010050014E000E0FF76010096
:1003800000002020806E325C1CE00340A5C3945A1C
:1003900000F00740FFFFFFFFFFFFFFFFFFFFFFFF32
:1003A000FFFFFFFFFFFFFFFFFFFFFFFFFFFFFFFF5D
:1003B000FFFFFFFFFFFFFFFFFFFFFFFFFFFFFFFF4D
:1003C000FFFFFFFFFFFFFFFFFFFFFFFFFFFFFFFF3D
:1003D000FFFFFFFFFFFFFFFFFFFFFFFFFFFFFFFF2D
:1003E000FFFFFFFFFFFFFFFFFFFFFFFFFFFFFFFF1D
:1003F000FFFFFFFFFFFFFFFFFFFFFFFFFFFFFFFF0D
:10040000FFFFFFFFFFFFFFFFFFFFFFFFDEF9FFFF23
:1004100010B5054C237833B9044B13B10448AFF33E
:1004200000800123237010BD2092FF1F00000000F8
:1004300028180100084B10B51BB108490848AFF354
:1004400000800848036803B910BD074B002BFBD0A0
:10045000BDE81040184700BF000000002492FF1FB5
:10046000281801002092FF1F00000000F0B400F1E6
:100470001C06134F00243146031F00F13C0243F8D1
:10048000044FB34241F8047F4FF0000542F8044F97
:10049000F5D10C4A0C490566002345668566C5669C
:1004A000056745678567C0F88850C267C0F8842033
:1004B000C0F8801080F8903080F8A830F0BC704709
:1004C0000000A040000048430000C8C22DE9F041F0
:1004D00090F8A84084B0202364008DF80530E4B281
:1004E000042380468DF804408DF80630032720460B
:1004F00007F0C8FD02210DF1050007F0CDFD8DF8D4
:10050000044005F0CDFC30B30921404808F078FCE8
:100510000023102221463E4808F074FE01213D4888
:1005200008F06EFC002310229DF80510384808F0F2
:1005300069FE0121374808F063FC002310229DF872
:100540000610334808F05EFE0121324808F058FCDE
:100550002F4808F047FE02208DF8044007F09CFB6E
:1005600005F09EFC00284CD102AE002407F0AAFD45
:1005700070B3072C1FD101E007F0B4FD07F0A2FD16
:100580000028F9D105F08CFC10B1214808F02AFEB2
:100590009DF80B009DF80C109DF80D209DF80E3075
:1005A000C8F89400C8F89810C8F89C20C8F8A03083
:1005B00004B0BDE8F08107F095FD054606F8010B93
:1005C00005F06EFC70B9013407F07CFD0028D0D135
:1005D000072CD3D005F064FC78B9013FD8D09DF842
:1005E000044084E7E9B200231022094808F00AFE1B
:1005F0000121084808F004FCE5E7054808F0F2FD91
:10060000EBE70721044808F0FBFBADE758FF0000CB
:10061000C487FF1F3C06010064FF000090F89800AB
:10062000704700BF90F89400704700BF90F89C009E
:10063000704700BF90F8A000704700BF082994BF22
:1006400050F82100002070472DE9F0410B4E804604
:10065000041F00F11C0754F8045F314628460BF0D4
:1006600013FB30B1D8F88C1028460BF02BFB00B1EF
:100670002E46BC42EFD13046BDE8F081000020415B
:100680002DE9F041D0F88C704FF00008041F00F104
:100690001C0654F8045F394628460BF013FB084942
:1006A00048B128460BF0F0FA414620B128460BF03D
:1006B00009FB00B1A846B442EBD14046BDE8F08149
:1006C000000070422DE9F047D0F88C7082464FF060
:1006D0000009041F00F11C064FF0000854F8045FE5
:1006E000394628460BF0EEFA0C4950B128460BF07B
:1006F000CBFA30B1484629460BF020F808F1010842
:100700008146B442EAD1CAF8AC8040460BF0CAF840
:10071000014648460BF0CEF9BDE8F0870000704274
:10072000D0F8AC00704700BF38B5846E456E2146E6
:1007300028460BF0A9FA00B92C46204638BD00BF68
:10074000D0F8A4302DE9F041002B79D1866E456EAA
:100750000446314628460AF0F1FFE76E39468046E6
:100760000AF0ECFF7E490BF0A5F94FF07C510446EE
:100770000BF0A8FA002861D04FF07C5128460BF00E
:10078000A1FA4FF07C51002860D128460BF07CFA8A
:1007900038B14FF07C5130460BF094FA002840F00D
:1007A000A7804FF07C5128460BF08CFA002860D1CE
:1007B0004FF07C5128460BF085FA002840F0A180CC
:1007C0004FF07C5128460BF07DFA00286CD14FF099
:1007D0007C5128460BF058FA4FF07C5110B330464C
:1007E0000BF070FA38B14FF07C5138460BF04CFAF0
:1007F000002840F0B0804FF07C5130460BF044FAB6
:10080000002861D04FF07C5138460BF05BFA00288D
:1008100040F0A38038464FF07C510BF035FA68B1B8
:10082000504C10E028460BF02FFA0028E3D1284660
:100830004FF07C510BF028FA002845D1BDE8F0813B
:1008400000EB8300046E2046BDE8F08130460BF0DB
:1008500039FA4FF07C5100283ED038460BF032FA7E
:100860000028F0D14FF07C5128460BF00DFA0028FB
:1008700059D14FF07C5130460BF006FA002840D099
:100880004FF07C5138460BF01DFA002841D14FF053
:100890007C5130460BF016FA68B14FF07C51384667
:1008A0000BF0F2F900284FD14FF07C5130460BF09D
:1008B000EBF900288BD04FF07C5138460BF0E4F96F
:1008C000002884D02C46BEE730464FF07C510BF018
:1008D000DBF90028B2D09DE728460BF0D5F90028B7
:1008E000C7D04FF07C5130460BF0ECF90028C0D057
:1008F0004FF07C5138460BF0E5F900283FF451AF3A
:1009000018E04FF07C5130460BF0DCF90028CBD0DA
:10091000C3E7394628460AF011FF4FF07C510BF02F
:1009200015F804468FE74FF07C5138460BF0CAF9B2
:1009300000289ED0394630460AF000FF4FF07C5127
:100940000BF004F804467EE740464FF07C510AF075
:10095000FDFF044677E7344675E73C4673E700BF82
:10096000000040400000A0C270B50446FFF7E8FE5A
:100970004FF07C510BF0A6F928B3666E4FF07C5116
:1009800030460BF09FF9A56EF0B9E46E4FF07C5144
:1009900028460BF097F958B1294630460BF092F9EA
:1009A00030B1214628460BF06FF908B12C4620E003
:1009B0004FF07C5120460BF085F920B128462146A6
:1009C0000BF080F978B970BD304629460BF05CF920
:1009D000E46E0028DAD0304621460BF055F90028A5
:1009E000D4D0344605E0304621460BF06BF90028A0
:1009F000E9D0204670BD00BF01392DE9F84380469B
:100A00001546032900F2E280DFE801F0AE855C02C2
:100A1000537B107B03EB00200AF044FF6D490AF082
:100A200095FFC8F81800EB7BA87B03EB00200AF0C9
:100A300039FF68490AF08AFFD8F86860D8F864700E
:100A4000D8F80040C8F81C004046FFF78DFFD8F8E2
:100A50007C1005460BF018F908B1C8F87C503946EF
:100A600030460BF02FF9002840F0A7803946D8F81F
:100A700080000BF009F910B13E46C8F8806008F11B
:100A80002006C14608F14005002701E059F8044F4F
:100A9000306821460BF016F90137214628B1D8F805
:100AA0008C000BF0FBF800B13460214628680BF095
:100AB000EBF8043600B12C60082F05F10405E5D1F0
:100AC000BDE8F883507A32380AF0ECFEC8F87400BA
:100AD000A87A32380AF0E6FEC8F878006B7B287BEB
:100AE00003EB00200AF0DEFE3A490AF02FFFC8F8B7
:100AF0001000EB7BA87B03EB00200AF0D3FE354906
:100B00000AF024FFD8F86860C8F81400D8F86470B8
:100B1000D8F8004098E7507A32380AF0C3FEC8F897
:100B20006C00A87A32380AF0BDFEC8F870006B7B02
:100B3000287B03EB00200AF0B5FE26490AF006FFE9
:100B4000C8F80800EB7BA87B03EB00200AF0AAFEA4
:100B500020490AF0FBFED8F86860C8F80C00D8F805
:100B60006470D8F800406FE7137AC0F8B030907A1C
:100B700032380AF097FEC8F864000746E87A32383F
:100B80000AF090FEC8F868006B7B0646287B03EBF2
:100B900000200AF087FE0F490AF0D8FEC8F80000CE
:100BA000EB7B0446A87B03EB00200AF07BFE09499F
:100BB0000AF0CCFEC8F8040046E7D8F880103046AA
:100BC0000BF080F800287FF458AF58E7866E476E28
:100BD000046839E70AD7233C2DE9F04F90F8A83094
:100BE00091B007465B008DF80830FFF76FFCD7F82F
:100BF0009C00D7F8A040D7F89830D7F8942097F801
:100C0000A8108DE81100C94805F044FA30223D23B0
:100C100003268DF809208DF80A300DF10A059DF89C
:100C2000089049F00108404607F02CFA0DF1090040
:100C3000022107F031FA8DF80880424602AB00200D
:100C40005040082410F0800F4FEA400018BF80F099
:100C50000700013CC0B2F5D19D4202D013F8012F2C
:100C6000EEE707F00FFA05F01BF9002840F07C8250
:100C700002208DF8089007F00FF805F011F9002810
:100C800040F0B8820DF10C0AD146002407F01AFAA0
:100C9000002843D0032C34D101E007F023FA07F0F9
:100CA00011FA0028F9D105F0FBF810B1A04808F0BE
:100CB00099FA312303268DF809308DF80A609DF8E2
:100CC000089049F00108404607F0DCF90DF10900F1
:100CD000022107F0E1F98DF80880424602AB0020BE
:100CE0005040082410F0800F4FEA400018BF80F0F9
:100CF0000700013CC0B2F5D19D4228D013F8012F66
:100D0000EEE707F0EFF909F8010B804605F0C8F8A7
:100D100068B9013407F0D6F90028BBD1032CBED046
:100D200005F0BEF878B9013E7FF479AFC1E75FFA0C
:100D300088F1002310227E4808F064FA01217D48E2
:100D400008F05EF8E5E77A4808F04CFAEBE707F0C0
:100D500099F905F0A5F8002840F0C58102208DF82A
:100D6000089006F099FF05F09BF8002840F03D82BE
:100D70000DF10C09002407F0A5F9002844D0032C3C
:100D800035D101E007F0AEF907F09CF90028F9D160
:100D900005F086F810B1664808F024FA34220123E1
:100DA0008DF809208DF80A3003269DF8089049F047
:100DB0000108404607F066F90DF10900022107F02D
:100DC0006BF98DF80880424602AB002050400824A1
:100DD00010F0800F4FEA400018BF80F00700013C80
:100DE000C0B2F5D19D4228D013F8012FEEE707F0ED
:100DF00079F909F8010B804605F052F868B9013419
:100E000007F060F90028BAD1032CBDD005F048F8EE
:100E100078B9013E7FF453AFC0E75FFA88F1002351
:100E20001022434808F0EEF90121424807F0E8FF9C
:100E3000E5E73F4808F0D6F9EBE707F023F905F0BE
:100E40002FF8002840F00E8102208DF8089006F05F
:100E500023FF05F025F8002840F0D6810DF10C099C
:100E6000002407F02FF9002800F08480032C72D1B1
:100E700001E007F037F907F025F90028F9D105F06E
:100E80000FF810B12A4808F0ADF9012212238DF8AD
:100E900009208DF80A304FF003089DF808402046DD
:100EA00007F0F0F802210DF1090007F0F5F88DF8D0
:100EB000084004F0F5FF30B309211F4807F0A0FFF8
:100EC0000023102221461A4808F09CF901211948F4
:100ED00007F096FF002310229DF80910144808F02F
:100EE00091F90121134807F08BFF002310229DF890
:100EF0000A100F4808F086F901210E4807F080FF1C
:100F00000B4808F06FF906208DF8084006F0C4FE83
:100F100004F0C6FF002840F0728103AD002607F000
:100F2000D1F800283FD0162E2FD109E06CFF000029
:100F3000C487FF1F3C06010058FF000007F0D2F8ED
:100F400007F0C0F80028F9D104F0AAFF16260028FF
:100F50007DD1152035E007F0C5F809F8010B804672
:100F600004F09EFF00285BD1013407F0ABF80028A5
:100F70007FF47CAF032C3FF47EAF04F091FF002898
:100F80006CD1013E7FF411AF7FE707F0ABF805F8B5
:100F9000010B044604F084FF00284DD1013607F010
:100FA00091F80028BFD1162ECAD004F079FF00288E
:100FB0004DD1B8F101087FF470AF701E002840F3E6
:100FC0002482002303AA1C4612F8011B08254C406A
:100FD00014F0800F4FEA440418BF84F00704013D69
:100FE000E4B2F5D101338342EEDB9DF821808948DC
:100FF0004146224605F04EF8162EC146A34602D1C0
:10100000A04500F0138197F8A8108348CDF800B0F0
:101010004B46324605F06CF8002011B0BDE8F08F69
:101020005FFA88F1002310227C4808F0EBF80121D8
:101030007B4807F0E5FE97E7E1B2002310227748EE
:1010400008F0E0F80121764807F0DAFEA6E77348D9
:1010500008F0C8F8162EACD11520B2E76F4808F09A
:10106000C1F88EE709216F4807F0CAFE2346102217
:1010700041466A4808F0C6F80121694807F0C0FEF9
:10108000234610229DF80910644808F0BBF801219E
:10109000634807F0B5FE102223469DF80A105F480A
:1010A00008F0B0F801215E4807F0AAFE21460DF1D4
:1010B0000B0002AA12F8014B6140C9B2082311F0DB
:1010C000800F4FEA410118BF81F00701013BC9B20F
:1010D000F5D19042EED11022504808F093F84F48D5
:1010E00008F080F8B0E609214E4807F089FE234653
:1010F00010224146494808F085F80121484807F088
:101100007FFE234610229DF80910444808F07AF823
:101110000121434807F074FE102223469DF80A106F
:101120003E4808F06FF801213D4807F069FE21466E
:101130000DF10B0002AA12F8014B6140C9B208235D
:1011400011F0800F4FEA410118BF81F00701013B08
:10115000C9B2F5D19042EED11022304808F052F8D1
:101160002E4808F03FF8F9E509212E4807F048FE1F
:10117000234610224146294808F044F80121284816
:1011800007F03EFE234610229DF80910234808F080
:1011900039F80121224807F033FE102223469DF83A
:1011A0000A101E4808F02EF801211D4807F028FEFD
:1011B00021460DF10B0002AA12F8014B6140C9B2A1
:1011C000082311F0800F4FEA410118BF81F0070199
:1011D000013BC9B2F5D19042EED110220F4808F080
:1011E00011F80E4807F0FEFF42E507210E4807F010
:1011F00007FEBDE507210C4807F002FE42E5072186
:10120000094807F0FDFD88E60721074807F0F8FDCB
:1012100024E600BFA0FF0000ECFF0000C487FF1F12
:101220003C06010058FF000064FF00009DF80C30F0
:1012300097F8A820B3EB420F7FF4EEAE9DF80D3087
:10124000012B7FF4E9AE9DF80E30122B7FF4E4AE53
:101250009DF810309DF80F0003EB00200AF022FBF0
:1012600072490AF073FBD7F88810386604460AF012
:1012700029FD08B1C7F88840D7F8841020460AF045
:1012800003FD08B1C7F88440A7F1040907F120065F
:1012900007F140054FF008089AF806309AF8050063
:1012A00003EB00200AF0FEFA61490AF04FFB49F80F
:1012B000040F316804460AF0E7FC0AF1020A30B173
:1012C000D7F88C1020460AF0F3FC00B1346029688E
:1012D00020460AF0F7FC043600B12C60B8F1010892
:1012E00005F10405D8D19DF81E309DF81D0003EBD3
:1012F000002002300AF0D6FA4E490AF0DBFB014624
:101300004D480AF0D7FB4D490AF016FA4C490AF04D
:101310001DFB054608F088FB0446284608F084FBC0
:10132000484908F0F3FB4849054620460AF00EFB01
:1013300046490AF003FA4649044628460AF006FBE5
:10134000014620460AF0FAF901464FF07E500AF0B5
:10135000B1FB40490AF0F0F99DF81F209DF82030BC
:10136000786603EB022009300AF09CFA3A490AF049
:10137000A1FB014630480AF09DFB30490AF0DCF938
:101380002F490AF0E3FA054608F04EFB04462846CA
:1013900008F04AFB2B4908F0B9FB2B4905462046CB
:1013A0000AF0D4FA29490AF0C9F92949044628461D
:1013B0000AF0CCFA014620460AF0C0F901464FF087
:1013C0007E500AF077FB23490AF0B6F9B866044666
:1013D0003846FFF7C9FAF96F05460AF055FC00B127
:1013E000FD677D6E204629460AF06CFCB0B929469F
:1013F000D7F880000AF048FC10B12C46C7F88040AE
:10140000164804F047FE012007E69DF82190144895
:1014100049464246C34604F03DFEF4E5D7F8801045
:1014200020460AF04FFC0028E8D1E9E71357053BB6
:101430002003C839001601470AD7E33FE17A644028
:1014400000007A4400004040A40D8F395A80473A8A
:1014500046A6DB3333938843002C0147C4FF0000CA
:10146000A0FF00002DE9F8430026D0F88C80066626
:101470008146044600F1200754F8045B41462846A3
:101480000AF020FC084950B128460AF0FDFB30B1B3
:10149000304629460AF052F90646C9F86000BC42B7
:1014A000EAD13046BDE8F8830000704205299ABFB2
:1014B00000EB8100406E0020704700BF3E2998BFBE
:1014C00080F8A810704700BF90F89000704700BFE8
:1014D000C0F8A410704700BF80F89010704700BF9C
:1014E00030B50F4CC0F88C1083B020460D4607F085
:1014F00079FE204607F076FE284609F07DFD02259C
:1015000002460B460095204607F0C6FE204607F02F
:1015100069FE204603B0BDE8304007F063BE00BF5F
:10152000C487FF1F70B500F5315506462C3500F114
:1015300020042046B434FEF799FFAC42F9D106F1FD
:10154000D405012428460021FFF7C6FF214628467E
:101550000134FFF7B3FF3F2C05F1B405F2D142F699
:10156000744400250548064A064B35550021306174
:101570007161B261F361304670BD00BF00007A4412
:10158000000048430000C8C22DE9F04142F678430C
:1015900000F53156374600228046C2502C36383787
:1015A00000F1D40402E0B434B4420DD02046FFF779
:1015B0008BFF0028F7D020463D68FFF7B1F8B43420
:1015C0002844B4423860F1D142F6784358F8030019
:1015D000BDE8F081F8B50E46096801F47F65002981
:1015E0000446A5F5C06511DB2D0901F00F07B423F2
:1015F00003FB0544203420460121FFF76DFF3246EE
:1016000039462046BDE8F840FFF7F6B90A4801F030
:101610000F0707F0E7FD1221084807F0F1FB3168DA
:10162000054801F0004100230A2207F0EBFD0248C3
:101630002D0907F0D7FDDAE7C487FF1F3C00010042
:10164000704700BF704700BF2DE9F04304460023F8
:1016500083B0064644F8D43B012504E001353F2D14
:1016600004F1B40469D02046FFF72EFF0028F5D01E
:10167000504804F00FFD29464F4804F00BFD20466A
:10168000FFF7AAFA2046FFF7EDFE09F0B5FC024687
:101690000B464A4804F0FEFC2046FEF7D5FF804684
:1016A0002046FEF7EDFF0746404609F0A5FC8046C0
:1016B0003846894609F0A0FC42464B46CDE9000178
:1016C0003F4804F0E7FC00212046FFF7EFFE012130
:1016D00080462046FFF7EAFE0746404609F08CFCAC
:1016E00080463846894609F087FC42464B46CDE99C
:1016F0000001344804F0CEFC2046FFF7B3FE01465B
:1017000030680AF01BF830602046FFF72DF9B16908
:101710000AF0BAFA002833D12046FFF705F8F1693C
:101720000AF0D0FA002899D02046FEF7FDFF0135D7
:101730003F2DF06104F1B40495D170680AF0B2F85D
:10174000014630680AF0B6F97169306004460AF063
:10175000B9FA00B17461316920460AF095FA00B116
:1017600034610B2006F062FA42F67443F35C60B910
:101770009BB142F674430122F25403B0BDE8F083FA
:101780002046FFF7F1F8B061C6E753B942F674435B
:101790000022F25403B0BDE8F0830B4804F0A8FC2B
:1017A000E7E70A4804F08EFC42F674430022F25444
:1017B000F0E700BF38020100500001008C0001007A
:1017C000A0000100CC000100E800010020010100A0
:1017D00070B5114B836000F5315506462C3500F18C
:1017E000D40402E0B434AC4213D02046FFF76CFEC0
:1017F0000028F7D02046FEF727FFB1680AF044FA28
:101800000028EFD02046FEF71FFFB434AC42B06092
:10181000EBD1B06870BD00BF0000A04070B50023E0
:1018200000F531550646C3602C3500F1D40402E0C2
:10183000B434AC4213D02046FFF746FE0028F7D060
:101840002046FEF71DFFF1680AF03CFA0028EFD0B1
:101850002046FEF715FFB434AC42F060EBD1F068DF
:1018600070BD00BF0068704741607047F8B500F573
:1018700031550F4616462C3500F1D40402E0B4343D
:10188000AC420FD02046FFF71FFE0028F7D02046BD
:101890003946FFF71DFE20463146B434FFF720FEDF
:1018A000AC42EFD1F8BD00BF2DE9F84300F531554A
:1018B00042F670432E4600278146C7504FF000087D
:1018C0002C35303600F1D40402E0B434AC4213D0ED
:1018D0002046FFF7F9FD0028F7D033680133336065
:1018E0002046FEF72DFF0F490AF0ECF988B9B43411
:1018F000AC4207F10107EBD142F6704359F80300FF
:10190000C01B09F0CFFF014640460AF0D3F8BDE8FE
:10191000F8832046FEF714FF0146404609F00EFF0B
:101920008046D2E700008CC2F8B500F53155074675
:1019300000262C3500F1D40402E0B434AC420FD0C0
:101940002046FFF7C1FD0028F7D02046FEF7BAFE7B
:101950000146304609F0F2FEB434AC420646EFD1FF
:1019600042F67043F85809F09DFF014630460AF0F0
:10197000A1F8F8BD2DE9F04F06468DB0934804F06C
:1019800031FB924804F02EFB904804F02BFB42F60A
:1019900070433046F758FFF7F7FD0B90306809F0B9
:1019A0002BFB044630460D46FFF7BEFF0A90B06899
:1019B00009F022FB8246F0688B4609F01DFB804649
:1019C00030468946FFF770FF09F016FB0A9BCDE908
:1019D00008011846CDE904ABCDE9068909F00CFBF6
:1019E0000B9ACDE90201CDE900453946784804F06B
:1019F000F9FA764804F0F6FAD4364FF001094FF0C0
:101A0000000A07E009F10109B9F13F0F06F1B40638
:101A100000F0D3803046FFF757FD0028F2D0304663
:101A2000FEF7FCFD3046FEF7FDFD3046FEF7FEFDFD
:101A30003046FEF7FFFD0821664807F0E1F9494608
:101A4000654807F01FFCB9F1090F40F3B980022186
:101A5000624807F0D5F93046FFF704FD09F0CCFAEB
:101A6000022402460B4600945B4807F015FC012156
:101A70005B4807F0C5F9554600241FE00621594888
:101A800007F0BEF92946544807F0FCFB02215648EE
:101A900007F0B6F921463046FEF7D0FD09F0ACFA62
:101AA000009702460B464C4807F0F6FB0134012133
:101AB0004B4807F0A5F9082C0BD04546092D4FF0EF
:101AC000020705F10108D9DC0121484807F098F91F
:101AD000D4E7414807F086FB0921454807F090F913
:101AE00000213046FFF7E2FC09F086FA0097024633
:101AF0000B46394807F0D0FB0A213E4807F080F931
:101B000001213046FFF7D2FC09F076FA0097024631
:101B10000B46314807F0C0FB0A21374807F070F93F
:101B200039463046FFF7C2FC09F066FA00970246D4
:101B30000B46294807F0B0FB0A21304807F060F94E
:101B400003213046FFF7B2FC09F056FA009702462F
:101B50000B46214807F0A0FB0A21294807F050F95D
:101B600004213046FFF7A2FC09F046FA009702462E
:101B70000B46194807F090FB0A21224807F040F96C
:101B800005213046FFF792FC09F036FA009702462D
:101B90000B46114807F080FB01211B4807F030F984
:101BA00009F101090C4807F01DFBB9F13F0F0AF1DB
:101BB000080A06F1B4067FF42DAF0DB0BDE8F08F32
:101BC00001210A4807F01CF941E700BF3802010073
:101BD000D003010050040100C487FF1FD41101008D
:101BE0005C040100600401002C0601003C060100B9
:101BF0006804010074040100800401008C040100E9
:101C000098040100A4040100B00401002DE9F04192
:101C100000F1D40582B0012705E001373F2F05F11F
:101C2000B40500F08B802846FFF74EFC0028F4D066
:101C30003946444807F026FB0121434807F0E0F805
:101C400000244FF0020821462846FEF7F7FC09F071
:101C5000D3F9CDF8008002460B463A4807F01CFB4A
:101C600001340121384807F0CBF8082C4FF0020668
:101C7000E9D100212846FFF719FC09F0BDF90096CB
:101C800002460B462F4807F007FB01212E4807F0BC
:101C9000B7F801212846FFF709FC09F0ADF90096D5
:101CA00002460B46274807F0F7FA0121264807F0BD
:101CB000A7F831462846FFF7F9FB09F09DF9009691
:101CC00002460B461F4807F0E7FA01211E4807F0BD
:101CD00097F803212846FFF7E9FB09F08DF90096F4
:101CE00002460B46174807F0D7FA0121164807F0BD
:101CF00087F804212846FFF7D9FB09F07DF9009603
:101D000002460B460F4807F0C7FA01210E4807F0BC
:101D100077F805212846FFF7C9FB09F06DF9009611
:101D200002460B46074807F0B7FA0137054807F0A7
:101D300059FA3F2F05F1B4057FF475AF02B0BDE845
:101D4000F08100BFC487FF1FB4040100F8B531481B
:101D5000314C324F324E04F045F9324B324A33495E
:101D600033485A60012510221A701D72314A324DD3
:101D7000D9601C6131495861002431485F621E629C
:101D8000304F9A614FF07C562F4A9D62D9622F4D99
:101D90001C630E2140F61C4458630A209F635E6456
:101DA00041F204075A269A64DD640222284D19651F
:101DB0009C6600216424D8664FF496701F675E67A6
:101DC000DD61DD6383F8401099675866D8654FF48C
:101DD0007A7741F28830FF265A705A725A65052583
:101DE0009C65DA67C3F88010C3F89C103221C3F8F1
:101DF000AC20C3F8B040C3F89870C3F8A460A3F84F
:101E0000B650C3F89000A3F8B400C3F89410C3F818
:101E1000A010F8BDB804010000004040CDCCCC3D7E
:101E2000333373402C93FF1F20A107006666864062
:101E300033338340CDCC4C4000008242000020C1AF
:101E4000000020420000A0409A9979400AD7233D23
:101E5000CDCC4C3EF0B54FF47A6085B005F01CFF58
:101E600000210E2005F0F0FE00210F2005F0ECFE11
:101E70000021112005F0E8FE0021102005F0E4FE0D
:101E80000021122005F0E0FE0021132005F0DCFE09
:101E900001210B2005F0D8FE01210C2005F0D4FE15
:101EA0000121142005F0D0FE0121152005F0CCFE03
:101EB0000121162005F0C8FE0121172005F0C4FEFF
:101EC0000121052005F0C0FE8E4C8F4D012106201A
:101ED00005F0BAFE01210D2005F0B6FE208809F0BC
:101EE000DDFC0146162005F019FE208809F0D6FC1D
:101EF0000146172005F012FE208809F0CFFC0146AC
:101F0000052005F00BFE208809F0C8FC00240146DE
:101F1000062005F003FE009423467C4A7C497D4858
:101F200004F0E0FAE6B2324677497A4804F088FADB
:101F30002B79754977486FF30003013432462B71D2
:101F400004F074FA082CEDD10924E6B232466E4949
:101F5000704804F075FA2B796B496E4843F0010321
:101F6000013432462B7104F061FA0D2CEDD16A4C2C
:101F70004FF0FF322068102104F080FE20684FF0FF
:101F8000FF32102104F052FE20684FF0FF32022190
:101F900004F060FE20684FF0FF32022104F064FE7E
:101FA00000220E21206804F073FE0C215B4806F02D
:101FB00027FF5B4807F016F914215A4806F020FF66
:101FC000574807F00FF9564807F00CF91721564803
:101FD00006F016FF524807F005F9544B1B789A0695
:101FE00000F1BE80514B1B781B0700F1C5804F4BA1
:101FF0001B785F0700F1CC804C4B1B789E0700F1EB
:10200000D3804B4B1B781D0600F1DA80484B1B78C0
:102010005C0600F1E180464B1B78980600F1E880F1
:10202000434B1B78590700F1EF80414B1B781A078F
:1020300000F1F6803E4B1B789B0700F1FD8038488D
:1020400007F0D0F872B63B4A4CF220534DF62811F7
:102050002024138023461180013BFDD1364D3748A3
:10206000374900234FF480562E8003800B8032F8CE
:102070000E3C9BB243F0D30322F80E3C62B69D2087
:1020800005F0B0FF21462F482F4D06F0B9FE244839
:1020900007F0A8F805F1B8062F462C46601B05F09E
:1020A000D9FA04F8010BB442F8D13B78102B01D0D7
:1020B000FFF74CFE2548FFF7C5FA042003F0EAFEBF
:1020C000234B224800221A60FFF7BAFA01210D20A3
:1020D00005F0A6FD796D1D48FFF7C6FB7A6C97F8F1
:1020E00040101A48FFF7C2FB1A4B1B491A680392AB
:1020F00003981B680293029A184B08601A6005B097
:10210000F0BD00BF2487FF1FF093FF1FE8C2FF1F31
:1021100020A107004CC1FF1F8C94FF1FD8040100B1
:10212000C487FF1FE80401000005010001F007401B
:1021300000F007400E200540042005400620054021
:1021400016200540040601002C93FF1FC094FF1FBA
:102150004C92FF1FF4C2FF1FB894FF1FF893FF1F9C
:102160002121394806F04CFE384807F03BF8384B3F
:102170001B781B077FF53BAF0C21364806F040FE6D
:10218000324807F02FF8324B1B785F077FF534AFEA
:102190000E21314806F034FE2C4807F023F82C4B72
:1021A0001B789E077FF52DAF17212C4806F028FEDF
:1021B000264807F017F82A4B1B781D067FF526AF37
:1021C0000E21284806F01CFE204807F00BF8244B8F
:1021D0001B785C067FF51FAF1221234806F010FE26
:1021E0001A4806F0FFFF1E4B1B7898067FF518AFC4
:1021F00013211E4806F004FE144806F0F3FF184BA6
:102200001B7859077FF511AF1C21194806F0F8FD1E
:102210000E4806F0E7FF124B1B781A077FF50AAF4E
:102220001921144806F0ECFD084806F0DBFF0C4BC2
:102230001B789B077FF503AF18210F4806F0E0FDE0
:10224000024806F0CFFFFAE618050100C487FF1F19
:1022500001F007403C0501004C0501005C05010050
:1022600000F0074074050100840501009805010095
:10227000AC050100CC050100E805010070B5464C35
:10228000464D4748E66800232B70FFF7C7FA014622
:10229000304609F0F9FC08B104232B704048FFF7E1
:1022A00097FA216909F0F0FC18B12B7843F010037C
:1022B0002B703B48FFF7F8FAA16A09F003FD18B14B
:1022C0002B7843F040032B70002335486B70FFF7E9
:1022D000EBFAE16A314E09F0D7FC08B101237370C3
:1022E00000232F48EB70FFF799FA05462C482B4E38
:1022F000FFF76EFA0146284609F01EFAE16B09F075
:10230000E1FC08B10123F370264D254800232B7012
:10231000FFF784FA616A0646E06809F00DFA0146A3
:10232000304609F0CFFC08B104232B701C48FFF79E
:102330004FFA616A0646206909F000FA0146304604
:1023400009F0A2FC18B12B7843F010032B7014484D
:10235000FFF7AAFAA16B0646A06A09F0EDF901465B
:10236000304609F0AFFC18B12B7843F040032B70D6
:1023700000230B486B70FFF797FAA16B0546E06AE4
:10238000084C09F0DBF90146284609F07DFC08B14C
:102390000123637070BD00BF2C93FF1F2893FF1FA4
:1023A000C094FF1FE893FF1F514B1B68002B74D094
:1023B000F0B5504D2B680533B3F57A7F83B040F309
:1023C0008E80002300272B604B4CD4F8A00009F02E
:1023D00069FA0646D4F8A40009F064FA314609F017
:1023E000ABF9394609F0B2FA444909F063FB3146CA
:1023F00009F0A4F909F086FC0146062005F090FAE0
:1024000002213F4806F0FCFC3E4806F0EBFE0621A8
:102410003D4806F0F5FC286809F044FA3B4909F00C
:1024200095FA08F0E9FD022602460B46009635486B
:1024300006F032FF0D21364806F0E2FCD4F8A00089
:1024400009F030FA0746286809F02CFA2F4909F0FC
:102450007DFA0546D4F8A40009F024FA394609F0BB
:102460006BF90146284609F071FA244909F022FB6C
:10247000394609F063F908F0BFFD009602460B46A5
:10248000204806F009FF31461D4806F0B9FC1D48FA
:1024900003B0BDE8F04006F0A5BE174B1D4AD3F8C7
:1024A000A010D3F8A43012685B1A632B0BDD1A4816
:1024B00003FB02F380FB0302DB17C3EB6213194437
:1024C000062005F02DBA154803FB022380FB03020A
:1024D000DB17C3EB22121144062005F021BA18467F
:1024E0002B6009F0DFF9094909F030FA07466BE77C
:1024F0006C94FF1F5092FF1F2C93FF1F0000C842D7
:10250000D4110100C487FF1F28060100CDCCCC3DAB
:10251000300601003487FF1F1F85EB51CBF08D285B
:1025200070B5A248A24C06F05DFEA04806F05AFE27
:102530009E4806F057FE0D219E4806F061FCD4F837
:102540009C30012B11D09C4C9848217800230A2202
:1025500006F058FE2378052B67D8DFE813F0E90072
:10256000EE00F300F800FD00E4000921934806F0B6
:1025700047FC9348FFF72CF9216909F085FB18B156
:102580000F21904806F03CFC8D48FFF747F9E168C1
:1025900009F098FB18B10E218B4806F031FC8848F1
:1025A000FFF73CF905468648FFF712F90146284631
:1025B00009F0C2F8E16B09F085FB18B111218348DD
:1025C00006F01EFC7E48FFF76FF9A16A09F07AFB5E
:1025D00018B10C217E4806F013FC7948FFF764F926
:1025E000E16A09F051FB18B10D217A4806F008FCA8
:1025F000794B73481B68012B00F0C280FFF7E8F8A5
:1026000021696B4D09F05EFB78B16D48FFF706F963
:10261000E96809F039FB40B1674B1B78052B00F0E6
:10262000C08008216D4806F0EBFB02216C4806F0E3
:10263000E7FB122005F0FAFA012800F09C80112037
:1026400005F0F4FA012800F09180664B1B68012B1D
:1026500000F087800221624806F0D2FB624B5348AB
:10266000196806F00FFE514806F0BCFD04215F48D2
:1026700006F0C6FB0B2005F0D9FA002301460A221A
:102680004A4806F0BFFD0C2005F0D0FA00230146B1
:102690000A22464806F0B6FD142005F0C7FA0023CA
:1026A00001460A22414806F0ADFD152005F0BEFAAC
:1026B000002301460A223D4806F0A4FD06214C48AD
:1026C00006F09EFB4B4B394819680222002306F0A6
:1026D00099FD0421484806F093FB112005F0A6FA65
:1026E000002301460A22314806F08CFD102005F037
:1026F0009DFA002301460A222C4806F083FD122091
:1027000005F094FA002301460A22284806F07AFDD3
:10271000132005F08BFA002301460A222348BDE866
:10272000704006F06FBD0721344806F069FB7CE776
:102730000621334806F064FB77E70721314806F0AD
:102740005FFB72E70721304806F05AFB6DE708216E
:102750002E4806F055FB68E70B212D4806F050FB8C
:1027600063E711212B4806F04BFB73E70A212A4847
:1027700006F046FB69E70E21284806F041FB5EE7BC
:10278000FFF726F8216A09F09DFA00283FF449AFC7
:102790001621234806F034FB0A21224806F030FBBC
:1027A00043E70A211F4806F02BFB3EE7C487FF1FC3
:1027B0002C93FF1F400601007894FF1F5006010074
:1027C000C094FF1F5C0601006C0601007C0601003E
:1027D00090060100A00601006092FF1FD4060100D0
:1027E000D41101009494FF1F7094FF1F480701004B
:1027F00050070100E493FF1F580701001007010074
:10280000E0060100E8060100FC06010004070100E3
:10281000F006010034070100280701001807010035
:10282000B0060100C80601002DE9F04F934C944F0B
:10283000E36F012B8DB000F04981032B50D0914EF6
:10284000914DA36F9148012B09BF2968296801F1B7
:102850000041296004F0F0FD3368002B40F0CE8089
:102860008A4804F0BFFDE36F3860012B064600F094
:10287000D280874909F026FA78B98649304609F0AE
:1028800003FA50B9844A854B12680B920B9A1A606E
:1028900000232B600DB0BDE8F08FDFF8FC817F4C8A
:1028A000D8F800300A930A9823687D4FC01A08F0C0
:1028B000F5FF314609F04AF87A4909F0FBF8794901
:1028C00009F0F8F8396808F039FFD8F800300993B2
:1028D000099B2360002338602B600DB0BDE8F08FAA
:1028E000DFF8C881704DD8F80000664E0123002241
:1028F0000E212B6004F0CCF92B68012B336800F01B
:102900000381002B40F0A6810021D8F80000DFF8F9
:10291000B891664D04F00EFA33681FFA80FBC9F8CF
:1029200000B0002B40F07B810021D8F80000564D0C
:10293000DFF878A104F084F9B4F8863040F6E44179
:1029400001FB0BF1B1FBF0F0C01A00B208F0AAFFD6
:1029500057498346D4F8880008F0F8FF01465846E6
:1029600009F0A8F8D9F800302860632BDFF858B1D7
:1029700000F3498100232B603368002B3FF461AFE3
:1029800002214C4806F03CFAD9F80020D8F80000A3
:1029900040F6E443002103FB02F804F051F9B8FBD0
:1029A000F0F008F07BFF8046B4F8860008F07AFF6C
:1029B0000146404608F0C0FE08F01EFB4FF002083A
:1029C00002460B46CDF800803B4806F065FC4146C8
:1029D000384806F015FA286808F00EFBCDF800809C
:1029E00002460B46344806F057FC4146334806F091
:1029F00007FA41462F4806F003FA22E7234804F07D
:102A0000F1FC08F0F9FA022602460B4600962A4825
:102A100006F042FC24E7244B1B68012B00F02681C2
:102A2000022B7FF435AF264909F04CF930B925491E
:102A3000304609F029F9002800F04781DFF8588076
:102A4000164CD8F80030079307982368144FC01A23
:102A500008F024FF314608F079FF124909F02AF8FE
:102A6000104909F027F8396808F068FED8F80030F6
:102A70000693069B386023600AE700BF2C93FF1F74
:102A80006C92FF1FB494FF1F5C92FF1F0493FF1F03
:102A90000000FA430000FAC3F4C2FF1F8894FF1F2E
:102AA0007092FF1F00007A446087FF1F8C94FF1F05
:102AB00017B7D138D4110100C487FF1F9C0701004C
:102AC00000C82F4800A08CC62493FF1F3D6898497A
:102AD000284609F0D9F830B12846964909F0F2F8AD
:102AE00000287FF4FDAEDFF85882934DD8F800003F
:102AF000924E022300220F212B6004F0C9F82B68AC
:102B0000012B33687FF4FDAE002B40F000810021E3
:102B1000D8F80000DFF86C92894D04F00BF93368A7
:102B20001FFA80FBC9F800B0002B40F0D5800021CF
:102B3000D8F80000834D04F083F8B4F8843040F6F0
:102B4000E44A0AFB0BFBBBFBF0F0C01A00B208F032
:102B5000A9FE7D498346D4F88C0008F0F7FE0146B3
:102B6000584608F0A7FFD9F8003028600021D8F8AF
:102B700000000AFB03FA04F063F8B4F88430BAFBEF
:102B8000F0F00FFA80FAC3EB0A03002BB4F8B6207A
:102B9000B8BF5B429342BCBF00232B603368002B5D
:102BA0003FF44FAE0221694806F02AF9D9F8002017
:102BB000D8F8000040F6E443002103FB02F804F0DB
:102BC0003FF8B4F88410B8FBF0F000B2411A604846
:102BD00006F058FB02215D4806F012F9286808F05B
:102BE0000BFA4FF0020802460B46CDF80080584819
:102BF00006F052FB0321574806F002F941465348BC
:102C000006F0FEF81DE6DAF80000002104F018F8DE
:102C1000DBF8003064389842FFF4ACAEACE600213B
:102C2000286804F00DF840F6E44100230A2201FB75
:102C30000BF1B1FBF0F1464806F0E4FA02214348FB
:102C400006F0DEF8B4F88610414806F01BFBD9F810
:102C500000B069E63E4806F0C5FA0C213E4806F091
:102C6000CFF80C213D4806F0CBF84DE63C4909F081
:102C700029F858B93B49304609F006F830B93A4AC4
:102C80003A4B12680592059A1A6001E6DFF8D8807F
:102C9000364CD8F80030049304982368344FC01A97
:102CA00008F0FCFD314608F051FE324908F002FF01
:102CB000304908F0FFFE396808F040FDD8F80030D0
:102CC0000393039B38602360E2E5274A274B126891
:102CD0000892089A1A60DBE50021286803F0B0FF2B
:102CE00040F6E44100230A2201FB0BF1B1FBF0F1B5
:102CF000174806F087FA01211F4806F081F8B4F85A
:102D00008410134806F0BEFAD9F800B00FE7104857
:102D100006F068FAE36F012B4FF00B010CBF174868
:102D2000174806F06DF80C210C4806F069F8EEE63D
:102D300000709446007094C66087FF1FB494FF1F14
:102D40008C94FF1F5C92FF1F17B7D138D41101007C
:102D5000C487FF1F880701008C0701007807010066
:102D60000000FA430000FAC3F4C2FF1F8894FF1F5B
:102D70007092FF1F00007A443C06010060070100CA
:102D80006C0701002493FF1F2DE9F047B24D2B681B
:102D900084B0002B7ED0B14CDFF8C882B04EE36F18
:102DA000AE4D012B00F08F80D4F88030AB4F012B5B
:102DB00000F0BC80D6F80090D7F858A07D6DA94FE0
:102DC00005FB0AF54FF47A7000FB05F008F06AFD88
:102DD000A5490546484608F0B9FD294608F06AFEAF
:102DE000A24908F0B3FD08F08DFF6328C8F8000081
:102DF0004BDD28469C4908F05DFE642330603B6053
:102E00009B4B1B68002B3DD0E36F944D012B00F0D2
:102E1000BB80032B00F00981022B00F00C81022102
:102E2000944805F0EDFF944B186808F0E5F802248B
:102E300002460B460094914806F02EFA214690482F
:102E400005F0DEFF21468B4805F0DAFFD8F80010C8
:102E50008A4806F017FA06218A4805F0D1FF306843
:102E6000814908F073FD08F0C7F8009402460B464C
:102E7000824806F011FA0321834805F0C1FF7F481C
:102E800006F0B0F904B0BDE8F0870028BCBF00230D
:102E90003B60B5E77D4E714C33680293029A42F273
:102EA00028339A4200F2BA8033680393039A42F2BD
:102EB00010739A4274D8E36FDFF8A881684E674DAB
:102EC000012B7FF471AF7248FEF72EFD7149D5F8E2
:102ED0006890EF6E08F03AFD08F03AFF2A6F6B6FCA
:102EE000C9EB0202DB1B80B29A42C9EB000040F33F
:102EF000AD8003FB0000531C90FBF3F31F44A06D57
:102F0000636DC8F8007000FB07F003FB00F000EBF6
:102F10008000400008F0C6FC5349504F08F0CAFD3D
:102F2000D4F880303060012B7FF444AF5848FEF76E
:102F3000FBFC5849D7F86890FD6E08F007FD08F0D3
:102F400007FF3A6F7B6FD4F858A0C9EB02025B1BF6
:102F500080B29A42C9EB0000C6BF03FB00000132F9
:102F6000584390FBF2F02844656D00FB0AF005FB26
:102F700000F000EB8000400008F094FC3A4908F0B3
:102F800099FD814630601AE7434B1B68012B4FF0D7
:102F90000A010CBF4148424805F032FFEB6F38E7A9
:102FA0003B48FEF7C1FC3B49A76EE66E08F0CEFC3D
:102FB00008F0CEFE226F636FD21B9B1B80B29A4239
:102FC000A0EB07003CDD03FB0000531C90FBF3F378
:102FD0009819A26DDFF88C80636DC8F8000002FBC1
:102FE00000F003FB00F000EB8000400008F05AFC0A
:102FF0001D491B4E08F05EFD0123306002211D4873
:103000002B6005F0FDFE1D4806F0ECF8592125481F
:1030100005F0F6FE194806F0E5F8C0E61C48626CBB
:1030200094F84010FEF722FC3EE710211E4805F000
:10303000E7FEE36FF0E607211C4805F0E1FEEEE64F
:1030400003FB00F393FBF2F39819C2E703FB00F3D1
:1030500093FBF2F31F4452E75492FF1F2C93FF1F80
:103060007092FF1F3487FF1FE4388E3E0000C84275
:103070006C87FF1FD41101006C92FF1FC487FF1FD4
:103080009C0701003008010038080100F4C2FF1F4E
:10309000C094FF1F00007A446087FF1FFC070100F7
:1030A00008080100A0070100140801002808010019
:1030B000F0B5112083B004F0B9FD012813D0002130
:1030C0000B2004F0ADFD00210C2004F0A9FD00212F
:1030D000152004F0A5FD1D491D4B0120002208709C
:1030E0001A6003B0F0BD01460446152004F098FDB7
:1030F0001849194A194B09680191D2F890001B68C8
:103100000199134D034402268B422E6017D8D2F842
:10311000980008F0C7FB124B196808F0B5FD074688
:1031200068B921460B2004F07BFD084A0323394689
:103130000C2016702B6004F073FD03B0F0BD01216C
:103140000C2004F06DFD03B0F0BD00BF7894FF1FAC
:10315000B094FF1FF4C2FF1F2C93FF1FB894FF1FF2
:103160006C92FF1FF0B5684E684D34682B689C4226
:1031700087B039D014F0010155D014F0020149D0C4
:1031800014F004013DD0E3070ED52B68DF070BD404
:103190005F4F3A68002A00F082805E4B1B68019303
:1031A000019B93426DD83468A0070DD52B68990711
:1031B0000AD4594F3A68002A4CD0564B1B680393E7
:1031C000039B934238D8346862070DD52B685B07A0
:1031D0000BD4524F3A68002A7ED04E4B1B680593A1
:1031E000059B934268D834680CB107B0F0BD214606
:1031F000162004F095FB2146172004F091FB07B040
:10320000F0BD052004F08CFB2B68346803F0FB0351
:103210002B60B8E7172004F083FB2B68346803F0B9
:10322000FD032B60ACE7162004F07AFB2B683468B2
:1032300003F0FE032B60A0E7394B1720D3F894105E
:1032400004F06EFB2B68346843F0020300222B600D
:103250003A60B9E7334805F0C5FF0C21324805F064
:10326000CFFD304805F0BEFFFF21172004F058FBCA
:10327000284B2E4A19680291029912680A443A6052
:103280009CE7274B1620D3F8941004F049FB2B68D9
:10329000346843F0010300222B603A6084E7FF2189
:1032A000162004F03DFB1B4B204A19680091009941
:1032B00012680A443A6071E7194B0520D3F894105C
:1032C00004F02EFB2B68346843F0040300222B60CB
:1032D0003A60002C89D18AE7124805F083FF0C215F
:1032E000134805F08DFD0F4805F07CFFFF210520F8
:1032F00004F016FB074B0D4A1968049104991268F3
:103300000A443A606AE700BFB094FF1FE493FF1FCE
:103310006094FF1FF4C2FF1F6494FF1F6894FF1F97
:103320002C93FF1FC487FF1F3C0801006887FF1F05
:103330004C0801002DE9F8434B4DDFF858912868FF
:103340004A4E4B4F00220E2103F0A2FC0123222102
:103350004848C9F8003005F053FD3368132B1EDCD4
:1033600040F6E4480021286803F0E4FC002104460C
:10337000286803F065FC3B88A4B2012108FB04F433
:10338000B4FBF0F43C481C443C8005F039FD64205B
:1033900004F082FC33680133132B3360E2DD3B8899
:1033A000364A3748A2FB03129B1A02EB5303C3F3BE
:1033B0000F1319463B8005F065FF1D213148324F40
:1033C00005F01EFD0221314805F01AFD2C4805F0DC
:1033D00009FF00231A460F212868336003F058FCC8
:1033E000022322212348C9F8003005F009FD336883
:1033F000132B1EDC40F6E4480021286803F09AFCF9
:1034000000210446286803F01BFC3B88A4B201217C
:1034100008FB04F4B4FBF0F417481C443C8005F0AE
:10342000EFFC642004F038FC33680133132B336065
:10343000E2DD3B88114A1248A2FB03129B1A02EB01
:103440005303C3F30F1319463B8005F01BFF1D21E7
:103450000F4805F0D5FC02210C4805F0D1FC0848C6
:10346000BDE8F84305F0BEBE8C94FF1F7494FF1FA7
:103470005087FF1F5C080100A008010087611886C3
:10348000C487FF1F800801005287FF1FD41101006D
:10349000A40801006087FF1F2DE9F843744D754CA7
:1034A000286D754EDFF8FC81082740F25133236008
:1034B000E77108F0F7F96969814608F047FA6F4942
:1034C00008F044FA08F044FC6D4B6E4A1B68D2F8D1
:1034D00000E0A37282B23B41A9692272E3723A41D1
:1034E0004EFA07F3484684F80CE06272637308F002
:1034F0002DFA624908F02AFA08F02AFC83B243FA4E
:1035000007F221463046A373E27303F0E3F95E4B02
:103510005E4A1B681288A272DDB240F2553121600A
:1035200005EB850E43FA07F103EB83034FEA4E0EDA
:103530003A4143F3D7136172257221460025304684
:1035400084F80CE0E272E7716373A573E57303F02E
:10355000C1F940F2563340462360E771FEF782F925
:103560004B4908F0F3F908F0F3FB20724046FEF7F0
:1035700079F9474908F0EAF908F0EAFB454A444975
:10358000C0F307231068637208F094FA08F0BAFBDE
:1035900040FA07F203464046E272A372FEF784F94E
:1035A000364908F0D3F908F0D3FB20734046FEF704
:1035B0007BF9324908F0CAF908F0CAFB2146C0F38A
:1035C000072330466373A573E57303F083F9022084
:1035D00004F062FB304BE771187893F801E09A78B9
:1035E000207240F25A31DB7821603046214684F85F
:1035F00009E025736573A573E573A272E37203F0A6
:1036000069F9264BE77118785D789A78207240F254
:103610005E3118792160D9786572A2725D799A79E4
:10362000E172DB79207321463046A273E373657340
:1036300003F050F9022004F02FFB194BE7711D78BD
:103640005A789978DF78257230464FF45C765D7948
:10365000266062721E799A79DB79A172E77221463F
:1036600026736573A273E373BDE8F84303F032B9C0
:103670002C93FF1FA094FF1F4CC1FF1F000020418F
:103680004492FF1F8494FF1F3487FF1F3887FF1F5A
:103690000000C8426C92FF1F2893FF1F2887FF1F5E
:1036A0005487FF1FC094FF1F38B5284B1B68012BA0
:1036B00000D038BD264D2748FEF78AF8E96C08F09F
:1036C0003DF804462348FEF7A9F80146204608F0D5
:1036D000DBFA0028EDD0204C1E4840F2C33208230C
:1036E0002260E371FEF774F8AD6C294608F0CCFA5D
:1036F000B8B11A49284608F029F908F029FB80B228
:1037000003126072237200230122A272E3722373F8
:103710006373A373E37310491148BDE8384003F0A5
:10372000D9B80C48FEF754F80C4908F00FF908F026
:103730000FFBC0F3072307482372FEF749F8074938
:1037400008F004F908F004FB6072DCE79494FF1FB2
:103750002C93FF1FC094FF1FA094FF1F0000C842BE
:103760004CC1FF1FF0B5A24CA24D83B005F0E2FAA8
:1037700023682860042B00F0A082022B4BD0082B7A
:1037800000F09280072B40F05D81332801F03A83EE
:1037900000F31E83312801F01F83322840F0BC80E3
:1037A00005F004FB002840F34B819348934E05F04D
:1037B000ADFE08F077F8924908F0C8F861230122BD
:1037C000F06322602B601846A0F152031F2B01F218
:1037D000F382DFE813F0AC0AF10AF10AF10AF10A08
:1037E000F10AF10AF10AF10AF10AF10AF10AF10A01
:1037F000F10AF10A3D0A240CD50909097B08F10AEE
:10380000F10AF10A3308F10A210CF10AF10AF10A6E
:10381000F10AF10A0808A0F13102422A7CD8DFE857
:1038200012F053045F046D047A048D049C047B0041
:103830007B007B007B007B007B007B007B007B00B0
:103840007B007B007B007B007B007B007B007B00A0
:103850007B007B007B007B007B007B007B007B0090
:103860007B007B007B007B007B007B007B007B0080
:103870007B007B007B007B007B007B007B007B0070
:103880007B007B007B0040047B007B007B007B0097
:103890007B007B007B007B007B007B007B007B0050
:1038A0007B0077007B004604322800F017837128E4
:1038B0002ED0312830D105F079FA002840F3AF83BB
:1038C0004D484E4E05F022FEC0B286F84000022858
:1038D00094BF01460021726C4A4888BF86F84010A8
:1038E000FDF7C4FF01236920236028606CE723688B
:1038F0002868052B40F03681332801F0018340F31E
:103900007B82352801F0B382C1F2A082712803D1F5
:103910000023732023602860002B08BF73280CBF8E
:1039200001200020002860D0334805F05BFC042112
:10393000354805F065FA304805F054FC102133484D
:1039400005F05EFA2C4805F04DFC1321304805F0D7
:1039500057FA304B2848196805F094FC264805F0C2
:1039600041FC14212C4805F04BFA234805F03AFCA1
:103970001E212A4805F044FA1F4805F033FC1521A2
:10398000274805F03DFA1C4805F02CFC1E2125486F
:1039900005F036FA184805F025FC2021224805F0EC
:1039A0002FFA154805F01EFC1921204805F028FAC9
:1039B000114805F017FC12211D4805F021FA0E48A8
:1039C00005F010FC0F211B4805F01AFA0A4805F013
:1039D00009FC0D21184805F013FA074805F002FC10
:1039E000164A002101231160236003B0F0BD00BF1F
:1039F000BC94FF1F6892FF1FC487FF1F2C93FF1FFB
:103A00006F12833AC094FF1F50100100581001003C
:103A10006C1001002087FF1F80100100981001002A
:103A2000B8100100D0100100F010010014110100C5
:103A30003011010044110100541101006C87FF1F77
:103A400023682868062B7FF454AFA0F13102402A86
:103A50003FF662AF01A151F822F000BF073F00001E
:103A6000553F0000313F0000F13F00007F3F000064
:103A70009B3F000019390000193900001939000076
:103A800019390000193900001939000019390000EE
:103A900019390000193900001939000019390000DE
:103AA00019390000193900001939000019390000CE
:103AB00019390000193900001939000019390000BE
:103AC00019390000193900001939000019390000AE
:103AD000193900001939000019390000193900009E
:103AE000193900001939000019390000193900008E
:103AF000193900001939000019390000193900007E
:103B0000193900001939000019390000193900006D
:103B1000193900001939000019390000193900005D
:103B2000193900001939000019390000193900004D
:103B3000193900001939000019390000193900003D
:103B4000193900001939000019390000193900002D
:103B50001939000019390000193900001139000025
:103B600023682868032B40F0A480A0F13002422A89
:103B70003FF6D2AE01A151F822F000BF893C00000F
:103B8000474600006F460000C5470000D5450000CD
:103B9000F74500001F46000097460000B5460000AC
:103BA000D946000019390000193900001939000000
:103BB00019390000193900001939000019390000BD
:103BC00019390000193900001939000019390000AD
:103BD000193900001939000019390000193900009D
:103BE000193900001939000019390000193900008D
:103BF000193900001939000019390000193900007D
:103C0000193900001939000019390000193900006C
:103C1000193900001939000019390000193900005C
:103C2000193900001939000019390000193900004C
:103C3000193900001939000019390000193900003C
:103C400001470000C54100005B4700001F4700001E
:103C50003D47000079470000A141000019390000EC
:103C6000193900001939000019390000193900000C
:103C700019390000193900001939000019390000FC
:103C8000B94700009F45000005F090F8002841F377
:103C90009C80CA48CA4E05F039FC012703460146FC
:103CA0006222C848736527602A60FDF7DDFD23683E
:103CB0002868012B7FF430AE86E5A0F13102402A5E
:103CC0003FF62AAE01A151F822F000BF4D4000009E
:103CD0009F40000027400000654000006940000050
:103CE00085400000974000009B400000193900000B
:103CF000193900001939000019390000193900007C
:103D0000193900001939000019390000193900006B
:103D1000193900001939000019390000193900005B
:103D2000193900001939000019390000193900004B
:103D3000193900001939000019390000193900003B
:103D4000193900001939000019390000193900002B
:103D5000193900001939000019390000193900001B
:103D6000193900001939000019390000193900000B
:103D700019390000193900001939000019390000FB
:103D800019390000193900001939000019390000EB
:103D900019390000193900001939000019390000DB
:103DA00019390000193900001939000019390000CB
:103DB00019390000193900001939000019390000BB
:103DC00019390000193900001939000011390000B3
:103DD00034287FF49BAD04F0E9FF00287FF730AE74
:103DE0007648774E05F092FB61230122A6F8B400D5
:103DF00022602B601846E7E4312801F01680322853
:103E00007FF48AAD04F0D2FF00287FF7A9AE6B489B
:103E10006B4E05F07BFB01226B23C6F898002260F5
:103E20002B60664805F0DEF9644805F0DBF963486D
:103E300005F0D8F9614805F0D5F9604805F0D2F9E8
:103E40002121614804F0DCFF5C4805F0CBF9152125
:103E50005E4804F0D5FFD6F89010584805F012FAE5
:103E600002215B4804F0CCFF544805F0BBF91E2149
:103E7000584804F0C5FFD6F89810504805F002FAEB
:103E80000321554804F0BCFF4C4805F0ABF91E2156
:103E9000524804F0B5FFD6F89410484805F0F2F9FE
:103EA000464805F09FF91D214D4804F0A9FFD6F8BA
:103EB000A010424805F0E6F9404805F093F91E21AC
:103EC000484804F09DFFD6F8A4103C4805F0DAF904
:103ED0003A4805F087F90523236086E504F066FF7C
:103EE000002840F398803548354E05F00FFB07F069
:103EF000D9FC3D4907F02AFD0346024696F84010DA
:103F000030487364ECE404F051FF00287FF7EFAC15
:103F10002A482B4E05F0FAFA07F0C4FC334907F0A3
:103F2000C9FD65230122706122602B6018464BE4B5
:103F300004F03CFF00287FF7DAAC2048204E05F063
:103F4000E5FA00EB8000430001226520F365226062
:103F5000286039E404F02AFF00287FF7C8AC17482E
:103F6000174E05F0D3FA07F09DFC204907F0A2FD9B
:103F700065230122F06122602B60184624E4104A78
:103F8000D2F8AC300133052BC8BF0023C2F8AC30E7
:103F9000652001232360286016E404F007FF002851
:103FA0007FF7A5AC0548064E05F0B0FA652301225F
:103FB000C6F8B00022602B60184605E4C487FF1FD6
:103FC0002C93FF1FC094FF1F100B0100340B010046
:103FD000680A01004C0B0100880701006C0B01000E
:103FE0008C0B0100AC0B01006F12833A00007A4485
:103FF00004F0DCFE00287FF77AAC5E485E4E05F0E8
:1040000085FA00EB800043000122652033662260C0
:104010002860FFF7D9BB23682868FFF7B3BB564E6B
:1040200096F8400053E4554A554F1368002B0CBFD7
:10403000012300234FF001001360206040F0A087AF
:10404000034664222A606420FFF799BB4D4A136837
:10405000B3FA83F35B0901216420136021602860B7
:10406000FFF7B2BB484AF2E7434ED6F89C30B3FAAA
:1040700083F35B0901226420C6F89C30226028602B
:10408000FFF7A2BB012341482360FDF77DFA404AB8
:1040900023681060D5E73F4AD9E73F4AD7E73F4A50
:1040A000D5E7FFF747F923682868FFF768BB324A6E
:1040B000D36F0133032BC8BF0023D36701236320D1
:1040C00023602860FFF780BB2B4EB36FB3FA83F3F6
:1040D0005B0901226320B36722602860FFF774BB8D
:1040E000254ED6F88030B3FA83F35B0901226320B2
:1040F000C6F8803022602860FFF766BB012323608A
:1041000004F054FE0028D9DD1A481B4E05F0FEF9D4
:10411000C6F8A800D2E70123236004F047FE002878
:1041200007DD1448144E05F0F1F907F0BBFBC6F8A3
:104130008C00632028602368FFF724BB01232360E1
:1041400004F034FE0028F4DD0A480B4E05F0DEF9D9
:1041500007F0A8FBC6F88800EBE70123236004F012
:1041600025FE0028E5DD0348034E05F0CFF9A6F84B
:10417000B600DEE7C487FF1F2C93FF1F9C94FF1F30
:10418000BC94FF1F5C94FF1F9094FF1FC094FF1FFF
:104190007094FF1F6C94FF1F6492FF1FB494FF1F65
:1041A00004F004FE00280DDDC148C24E05F0AEF952
:1041B00007F078FBC04907F07DFC012262233062E2
:1041C00022602B6004F0F2FD002840F3FE85B84821
:1041D000B84E05F09BF901226223B06622602B6085
:1041E000B34804F0FFFFB24804F0FCFFB04804F00D
:1041F000F9FFAF4804F0F6FFAD4804F0F3FF1521D6
:10420000AE4804F0FDFDAA4804F0ECFF1421AC48D0
:1042100004F0F6FDA64804F0E5FF1B21A94804F0D0
:10422000EFFDA34804F0DEFF1321A74804F0E8FDEA
:104230009F4804F0D7FF9E4804F0D4FF9C4804F048
:10424000D1FF2021A14804F0DBFDF0689A4907F076
:104250007DFB06F0D1FE002702460B4600979448EE
:1042600005F01AF802219A4804F0CAFD0221994883
:1042700004F0C6FD8E4804F0B5FF2121964804F0F5
:10428000BFFD30698C4907F061FB06F0B5FE009771
:1042900002460B46864804F0FFFF02218C4804F0DA
:1042A000AFFD02218B4804F0ABFD814804F09AFF7A
:1042B0001F218A4804F0A4FDB06A06F09DFE022585
:1042C00002460B4600957A4804F0E6FF0121844837
:1042D00004F096FD29467F4804F092FD744804F0EE
:1042E00081FF20217F4804F08BFDF06A06F084FEF8
:1042F000009502460B466E4804F0CEFF0121784837
:1043000004F07EFD2946734804F07AFD684804F005
:1043100069FF2321744804F073FDB06C664907F00F
:1043200015FB06F069FE009702460B46604804F054
:10433000B3FF2946664804F063FD2946654804F04A
:104340005FFD5B4804F04EFF1F21684804F058FDF4
:10435000F06C594907F0FAFA06F04EFE0097024653
:104360000B46534804F098FF2946594804F048FD8D
:104370002946584804F044FD4D4804F033FF192104
:104380005B4804F03DFDB16D494804F07BFF2946D0
:10439000584804F035FD29464E4804F031FD4448A4
:1043A00004F020FF1821544804F02AFD706E07F035
:1043B00079FA524907F0CAFA06F01EFE0095024645
:1043C0000B463B4804F068FF01214D4804F018FDFE
:1043D0002946404804F014FD354804F003FF2B2122
:1043E000484804F00DFDB069334907F0AFFA06F014
:1043F00003FE009702460B462D4804F04DFF294668
:10440000334804F0FDFC2946324804F0F9FC284802
:1044100004F0E8FE1F213C4804F0F2FC716D2448D2
:1044200004F030FF29462B4804F0EAFC204804F051
:10443000D9FE2021354804F0E3FC316D1C4804F01E
:1044400021FF2946234804F0DBFC194804F0CAFE8A
:1044500010212F4804F0D4FCB16E154804F012FF6F
:1044600029461B4804F0CCFC29461A4804F0C8FC35
:104470000F4804F0B7FE1321264804F0C1FCF16E8A
:104480000B4804F0FFFE0121234804F0B9FC294643
:10449000104804F0B5FC064804F0A4FE10211F48A3
:1044A00004F0AEFC316F024804F0ECFE294637E020
:1044B000C487FF1F2C93FF1F00007A44180E0100D1
:1044C000300E0100480E010040090100640E010099
:1044D0003C090100D4110100880E0100AC0E01005E
:1044E000B0040100CC0E0100F00E0100140F010019
:1044F000340F0100500F0100540F0100CDCCCC3D12
:10450000D00D0100700F01009C0F0100BC0F0100D5
:10451000E00F0100F40F0100081001000C10010071
:10452000BA4804F06DFC2946B94804F069FCB94862
:1045300004F058FE1421B84804F062FC716FB548CD
:1045400004F0A0FE0121B54804F05AFC2946B04809
:1045500004F056FCAF4804F045FE1621B04804F0C4
:104560004FFC306AAF4907F0F1F906F045FD0097BE
:104570000B460246A74804F08FFE2946A34804F0E4
:104580003FFC2946A24804F03BFCA24804F02AFE66
:10459000A04804F027FE03232360FFF726BAA24BAE
:1045A0009B48A24E002202211A6004F029FC99487F
:1045B00004F018FE0B219E4804F022FC02219448CE
:1045C00004F01EFC934804F00DFE012262232260D9
:1045D0002B6005E604F0EAFB002840F3F6838D48E3
:1045E000924E04F093FF07F05DF901226223F0621E
:1045F00022602B60F4E504F0D9FB002840F3E5834A
:1046000084488A4E04F082FF07F04CF9854907F090
:1046100051FA01226223B06422602B60E0E504F0CD
:10462000C5FB002840F3D1837A48804E04F06EFF2A
:1046300007F038F97B4907F03DFA01226223F06464
:1046400022602B60CCE504F0B1FB002840F3BD8371
:104650007048764E04F05AFF07F024F9714907F0CC
:1046600029FA01226223F06022602B60B8E504F091
:104670009DFB002840F3A98366486C4E04F046FF7A
:1046800007F010F9674907F015FA0122622330613B
:1046900022602B60A4E504F089FB002840F3958399
:1046A0005C48624E04F032FF01226223B065226052
:1046B0002B6095E504F07AFB002840F3868355488B
:1046C0005A4E04F023FF00EB8000430001216222D8
:1046D000736621602A6083E504F068FB002840F3DC
:1046E00074834C48514E04F011FF07F0DBF84D493C
:1046F00007F0E0F901226223B06122602B606FE5D0
:1047000004F054FB002840F360834248474E04F015
:10471000FDFE01226223306522602B6060E504F01B
:1047200045FB002840F351833A48404E04F0EEFE2A
:1047300001226223306722602B6051E504F036FBD2
:10474000002840F342833348384E04F0DFFE012254
:104750006223706722602B6042E504F027FB00288B
:1047600040F333832B48314E04F0D0FE0122622304
:10477000F06622602B6033E5FDF7E8FA0221244859
:104780002A4E04F03DFB234804F02CFD0221204872
:1047900004F036FB1F4804F025FD02211C4804F0FC
:1047A0002FFB1C4804F01EFD1721224804F028FBB3
:1047B000184804F017FD01E70022732322602B60E4
:1047C000FFF7B2B804F0F2FA002840F3FE82114875
:1047D000164E04F09BFE07F065F801226223B062DA
:1047E00022602B60FCE4B8220021104802F04CFF4C
:1047F0002868114AA0F1730001210023B0FA80F06B
:10480000400911602360FFF78DB800BF3C0901002B
:10481000D4110100C487FF1F2010010008100100FF
:104820003810010000007A445492FF1F2C93FF1FA0
:10483000E8080100D00801006C87FF1FAF48B04DA9
:1048400004F0D0FCAD4804F0CDFCAC4804F0CAFC48
:10485000AA4804F0C7FCA94804F0C4FC1521A948E3
:1048600004F0CEFAA54804F0BDFC1821A64804F0D7
:10487000C7FA00230A2295F84010A04804F0C2FCB1
:104880009E4804F0AFFC2821A04804F0B9FA686CF7
:104890009F4907F05BF806F0AFFB00250B46024688
:1048A0000095964804F0F8FC02219A4804F0A8FA12
:1048B000924804F097FC1321974804F0A1FA8F481E
:1048C00004F090FC08232360FFF78FB88B488C4ED0
:1048D00004F088FC894804F085FC884804F082FCD8
:1048E000864804F07FFC854804F07CFC11218B484D
:1048F00004F086FA814804F075FC2821884804F009
:104900007FFA7069824907F021F806F075FB0025EF
:1049100002460B460095794804F0BEFC02217D4812
:1049200004F06EFA754804F05DFC16217D4804F031
:1049300067FAF069764907F009F806F05DFB009523
:104940000B4602466D4804F0A7FC0221714804F0B2
:1049500057FA6A4804F046FCD6F8AC30AB4232DD78
:104960001D21714804F04CFAF06D06F09BFF6F4971
:1049700006F0ECFF06F040FB022502460B460095D0
:104980005E4804F089FC0121694804F039FA5B486B
:1049900004F028FC1F21674804F032FA306E06F05C
:1049A00081FF624906F0D2FF06F026FB0095024621
:1049B0000B46524804F070FC01215D4804F020FAD7
:1049C0004E4804F00FFC11215B4804F019FAD6F8A8
:1049D000AC30052B00F2B181DFE813F0E401E9010E
:1049E000DF01D501AB01DA01444804F0FBFB434889
:1049F00004F0F8FB414804F0F5FB404804F0F2FBFA
:104A00003E4804F0EFFB13214C4804F0F9F93B4811
:104A100004F0E8FB0D214A4804F0F2F9374804F0AD
:104A2000E1FB0F21474804F0EBF9474B3348196885
:104A300004F028FC314804F0D5FB1321434804F06E
:104A4000DFF9434B2D48196804F01CFC2B4804F097
:104A5000C9FB12213F4804F0D3F93F4B274819689E
:104A600004F010FC254804F0BDFB11213B4804F084
:104A7000C7F93B4B2148196804F004FC1F4804F0B7
:104A8000B1FB0E21374804F0BBF91D4B1B48D3F88E
:104A90009C1004F0F7FB194804F0A4FB19213248DC
:104AA00004F0AEF9314B1548196804F0EBFB1348DC
:104AB00004F098FB11212E4804F0A2F92D4B0F4869
:104AC000196804F0DFFB0D4804F08CFB10212A4824
:104AD00004F096F9294B0948196804F0D3FB0748FC
:104AE00004F080FB13210C4804F08AF9034804F019
:104AF00079FB04232360FEF778BF00BFC487FF1F44
:104B00002C93FF1F18110100F40801001009010087
:104B100000007A443C09010040090100BC1001007A
:104B2000540901008009010098090100CDCCCC3D59
:104B3000D00D0100B8090100D8090100CC0B01001B
:104B4000E00B0100F00B01005C94FF1F000C010062
:104B5000B494FF1F140C01009C94FF1F280C01004B
:104B60009094FF1F3C0C01004C0C01007094FF1F3F
:104B7000680C01006C94FF1F7C0C01006492FF1F05
:104B8000C348C44E04F02EFBC14804F02BFBC048C0
:104B900004F028FBBE4804F025FBBD4804F022FBCE
:104BA0001F21BD4804F02CF9B94804F01BFB1E215D
:104BB000BA4804F025F9B64804F014FB1A21B848A5
:104BC00004F01EF9F36F022B00F00082032B00F0BB
:104BD000F581012B00F0EA810921B24804F010F9B7
:104BE000AB4804F0FFFA1421AF48AA4F04F008F9CB
:104BF000B16FA74804F046FBA54804F0F3FA1C2166
:104C0000AA4804F0FDF8D6F88010A14804F03AFB59
:104C10009F4804F0E7FA1C21A54804F0F1F8D6F803
:104C2000A8109B4804F02EFB994804F0DBFAF56FBE
:104C300025F00205012D00F0748113219D4804F038
:104C4000DFF8934804F0CEFA02232360FEF7CDBECE
:104C50008F48904D04F0C6FA8D4804F0C3FA8C4892
:104C600004F0C0FA8A4804F0BDFA894804F0BAFAA0
:104C70001F21914804F0C4F8854804F0B3FA1C21C0
:104C80008E4804F0BDF8686A8D4906F05FFE06F0B4
:104C9000B3F9002602460B4600967D4804F0FCFA64
:104CA0000221884804F0ACF8794804F09BFA2321EB
:104CB000854804F0A5F8E86B814906F047FE06F048
:104CC0009BF9009602460B46714804F0E5FA022172
:104CD0007C4804F095F86E4804F084FA19217B486A
:104CE00004F08EF8A86B06F087F902260B46024600
:104CF0000096674804F0D0FA3146754804F080F811
:104D0000634804F06FFA1921724804F079F8B5F895
:104D1000B4105F4804F0B6FA03216F4804F070F84D
:104D20005B4804F05FFA07232360FEF75EBE03F0E2
:104D300031FB0D21694804F063F85548554D04F0E6
:104D400051FAD6F8AC30002B0FDD1821644804F07E
:104D500057F8D5F8B0104E4804F094FA0221614893
:104D600004F04EF84A4804F03DFA494804F03AFA93
:104D70001321504804F044F8454804F033FA062360
:104D80002360FEF732BE0D21574804F039F8D4E70E
:104D90000F21564804F034F8CFE70C21544804F0B2
:104DA0002FF8CAE70D21534804F02AF8C5E70C2173
:104DB000514804F025F8C0E72368002B08BF73288A
:104DC0000CBF01200020FEF7ADBD23682868012B31
:104DD0007EF4A2ADFEF7F8BC03F0E8FF00287EF7F2
:104DE0002FAE2B482B4E04F091FB06F05BFD4349A0
:104DF00006F0ACFD61230122706222602B60184630
:104E0000FEF7E2BC03F0D2FF00287EF719AE20487F
:104E1000204E04F07BFB06F045FD61230122B063C8
:104E200022602B601846FEF7CFBC03F0BFFF0028BE
:104E30007EF796AE1648174E04F068FB01226B23EE
:104E4000C6F8900022602B60FEF7EBBF03F0AEFFC8
:104E500000287EF785AE0E480E4E04F057FB012267
:104E60006B23C6F8A00022602B60FEF7DABF03F0C8
:104E70009DFF00287EF774AE0548064E04F046FB01
:104E800001226B23C6F8A40022602B60FEF7C9BF85
:104E9000C487FF1F2C93FF1F900C0100B00C010072
:104EA000D00C0100480D0100540D01006C0D0100F3
:104EB0008C0D0100400901006C0A01008C0A010000
:104EC00000007A443C090100AC0A0100D00A01004C
:104ED000EC0A0100F00A01000C0B01002C0A010091
:104EE0004C0A0100680A01001C0A01003C0A01008A
:104EF0000C0A0100EC090100FC0901006F12833A61
:104F000003F054FF00287EF72BAE4648464E04F0CF
:104F1000FDFA01226B23C6F8940022602B60FEF795
:104F200080BF1C21414803F06BFFD7F88C0040493B
:104F300006F00CFD06F060F8009502460B46394875
:104F400004F0AAF905213B4803F05AFF354804F064
:104F500049F9FD6F012D41D0032D7FF46EAE1C2168
:104F6000354803F04DFFB6F8B6102E4804F08AF924
:104F70000321324803F044FF2A4804F033F95CE689
:104F80002F4B002631460B201E6002F049FE3146B1
:104F90000C2002F045FE3146142002F041FE31465D
:104FA000152002F03DFE3B68FFF74BB81E21254857
:104FB00003F026FF1B4804F015F914E620212248CF
:104FC00003F01EFF174804F00DF90CE617211F48E7
:104FD00003F016FF134804F005F904E61D211C48F0
:104FE00003F00EFFD7F88800114906F0AFFC06F079
:104FF00003F800950B4602460A4804F04DF90521D6
:105000000C4803F0FDFE074804F0ECF8FB6F23F0BA
:105010000203012BA3D010E6034EFEF702BF024E9F
:10502000FFF7DEB8C487FF1F2C93FF1FAC0D0100F4
:10503000CDCCCC3DCC0D0100F40D0100140E0100CF
:10504000B094FF1FEC0C01000C0D0100300D0100AD
:10505000D40D010038B5164C164A2368101D12F8FD
:10506000011F904241EA0323F9D12360124C03F15E
:1050700000432360114BDB6F022B11D0104B1B68D8
:10508000012B00D038BD0F4804F0ACF821680D4862
:1050900004F0F8F803210C48BDE8384003F0B0BE36
:1050A00020680A4D06F0FEFB2860FDF7BDFBE5E732
:1050B0003C92FF1F7B92FF1F8094FF1F2C93FF1FCA
:1050C0005C94FF1FC487FF1F641101005C92FF1FE7
:1050D00030B53F4C3F4883B0214601F0F3FA2368D6
:1050E00040F2C232934258D06FF4C0615A18B2F500
:1050F000FF7F4CD903F100436FF4C0621344B3F552
:10510000FF7F3FD9344B1B68012B01D003B030BD6A
:10511000324B1B68012BF9D1314B32481B6801938C
:105120000A220023019904F06DF82268284B002A16
:10513000DB7945DB2C492D4807F0E6FB2B4807F0CF
:105140001FFC0146294803F05BFE2568204B15F043
:10515000804526D1DB798BB1631925491A7A23481A
:1051600007F0D2FB214807F00BFC01461F4803F073
:1051700047FE0135E379EDB2AB42EDD8194804F0B2
:1051800031F8C3E712491B48FCF724FABAE7104983
:105190001848FCF71FFA2368ACE7FFF75BFF2368AA
:1051A000A2E7154D114C0FCD0FC495E8030044F84C
:1051B000040B204620F81419152103F021FEDDE729
:1051C0000E490A4822F0604207F09EFBB6E700BF96
:1051D0007492FF1F4CC1FF1F6C87FF1F5C94FF1F61
:1051E000F4C2FF1FC487FF1F901101008492FF1FAC
:1051F000BC110100C094FF1FA4110100681101003F
:105200002DE9F84F7E4B7F4C1B78052B08D07E484C
:10521000FCF74AFBE16A06F037FD002800F08180C8
:105220007A4E7B4D002333602B607A4B76481B68A7
:10523000744F012B33D0FCF7F1FAE16980466069C5
:1052400006F07AFA0146404606F03CFD00283AD1C5
:105250006D48FCF7E3FAE16806F034FD08B100237D
:105260002B606948674FFCF7B3FA216906F00CFD23
:1052700048B1002333602B68654A002BBCBF002374
:105280001360BDE8F88F6048FCF7A2FAB96906F030
:10529000FBFC0028EDD13368002BEADBEBE7FCF7E1
:1052A000BDFAE1698046206A06F046FA01464046AA
:1052B00006F008FD0028CBD05348FCF7AFFAD7F82A
:1052C0002090834605E05048FCF7A8FAD7F81490E0
:1052D0008346F969484606F02FFA8246F86D06F0D3
:1052E000E1FA8046386E06F0DDFA414606F024FA0F
:1052F00051460746584606F01FFA0146384606F062
:1053000025FB51460746484606F016FA0146384640
:1053100006F0D0FB414606F011FA06F0F3FC2860D7
:1053200096E73948FCF7C0FA216B06F0ADFC20B3D4
:10533000364E636E34483360FCF7B6FA8146E06D52
:10534000E76A334D06F0AEFA39468046484606F025
:10535000F3F90146404606F0F9FA39468046206BDB
:1053600006F0EAF90146404606F0A4FB002106F0EB
:10537000E5F906F0C7FC286057E72348FCF794FAE4
:10538000616B06F081FC30B1204E214D626EE36D01
:1053900032602B6049E71C48FCF786FAA16A06F0E8
:1053A00073FC00283FF43CAF1748184E184DFCF72B
:1053B0007BFA8146606ED4F8348006F073FA414679
:1053C0000746484606F0B8F939468146002006F0FF
:1053D000B3F90146484606F0B9FA41468146A06A4B
:1053E00006F0AAF90146484606F064FB394606F085
:1053F000A5F906F087FCE36D30602B6015E700BF70
:105400007894FF1F2C93FF1FC094FF1F8494FF1FED
:105410004492FF1F6092FF1F08B5274803F0E2FE89
:105420000721264803F0ECFC112002F0FFFB0621C7
:10543000F8B1234803F0E4FC122002F0F7FB062148
:1054400000B3204803F0DCFC122002F0EFFB062141
:1054500008B31D4803F0D4FC132002F0E7FB06213B
:1054600010BB1A4803F0CCFC1348BDE8084003F019
:10547000B9BE174803F0C4FC122002F0D7FB062186
:105480000028DED1134803F0BBFC122002F0CEFB53
:1054900006210028DDD1104803F0B2FC132002F0F1
:1054A000C5FB06210028DCD00C4803F0A9FC02480B
:1054B000BDE8084003F096BEC487FF1FC811010075
:1054C000D0110100E0110100F011010008120100EB
:1054D000D8110100E8110100F811010000120100CB
:1054E00010B5254C2368042B27DC01210B2002F08A
:1054F00097FB01210C2002F093FB0121142002F004
:105500008FFB0121152002F08BFBFF21162002F0FA
:1055100007FAFF21172002F003FAFF21052002F00D
:10552000FFF9FF21062002F0FBF9236801330A2B63
:105530002360C4BF0023236010BD00210B2002F0B4
:105540006FFB00210C2002F06BFB0021142002F005
:1055500067FB0021152002F063FB0021162002F0FA
:10556000DFF90021172002F0DBF90021052002F00D
:10557000D7F90021D6E700BF9894FF1F2DE9F0412D
:105580008C4DD5F8AC30042B3ED0032B71D0012BC1
:1055900000F09B80022B01D0BDE8F081864C87484B
:1055A000237240F20E32012321462260E37101F0A2
:1055B00091F9834B1B685B00FF2BC8BFFF230421BD
:1055C00040224FF441702060E17122726372286DB5
:1055D00006F068F9696906F0B9F97A49054606F0F6
:1055E00071FB002800F0DD802946284606F0A6F869
:1055F00006F0AEFB80B20312E072A3726E496F48F0
:10560000BDE8F04101F066B96B4C6F4AA3792260A6
:1056100043F001030822E271A371286D06F042F9FC
:10562000696906F093F9694906F090F906F090FB74
:10563000634B674A1B68126893FBF2F380B2002643
:105640004FEA202E1F120122607221465B48E3724E
:10565000227384F808E0A7726673A673E67301F0FC
:1056600039F9A279D5F8AC3066F30002032BA271A8
:105670008DD1514C286DA3720122E823072140F2FD
:10568000FF26227263722660E17106F00BF96969E8
:1056900006F05CF94D4906F059F906F059FB484B04
:1056A0004B4A1B68126893FBF2F382B21E12171268
:1056B000214642486373E2722773A67301F00AF928
:1056C000D5F8AC30012B7FF465AF424B3A4C1B68E8
:1056D0002360072280231020E271237202F0A6FAD1
:1056E000002865D13C4B1B68DFF8D480384F286D0B
:1056F000314E03EB83035B001A12A3726272D8F877
:1057000000303A6893FBF2F31A126273A37306F047
:10571000C9F8696906F01AF9304B196806F00CF8F7
:105720002A4906F013F906F013FB80B20312314642
:1057300020732248E37201F0CDF8022002F0ACFAA7
:10574000274B1B682360072280231020E2712372FD
:1057500002F06CFA50BB204B1B68286D03EB8303EF
:105760005B001A12B372727206F09CF8696906F057
:10577000EDF8164906F0EAF806F0EAFA82B21612D7
:105780003868D8F80030227393FBF0F30A490B48CD
:10579000A3731A12E672627301F09CF8D5F8AC306C
:1057A000F8E601229023A272E37227E70D4BD3E7BC
:1057B0000C4B98E72C93FF1FA094FF1F4CC1FF1FB9
:1057C0004492FF1F00004843F4E506180000204102
:1057D0004887FF1F6487FF1F4087FF1F5C87FF1FED
:1057E0003087FF1F4487FF1F2DE9F04790B001E08D
:1057F000FFF76EFCAC4800F02FFF0028F8D103F053
:10580000D5FA002801DDFDF7ADFFA84EA84D33689D
:10581000012B13D0FDF7A6FCD5F89C40012C00F01D
:105820006B81A44F3B78052B00F2A880DFE813F0D2
:10583000CC00A8001801F000350194009E4C2368AC
:105840009E4A0793079B11689B4F5B1AB3F5FA7F3B
:1058500030D823680C930C9B994A23680B930B9BBD
:105860001068D5F8B010944E914D1B1A8B420DD98B
:1058700033680D93D5F89C300D991160012B00F021
:10588000B4818C4B1B78032B00F0AF8123688D4AC9
:105890000E938D490E9B10680968874C1B1A8B422A
:1058A00005D923680F930F9B1360FDF7FDFE10B021
:1058B000BDE8F0873B680893089B84481360FBF7BA
:1058C000C3FED5F89C30DFF8E8818048012B00F05A
:1058D0009C81FBF77DFFD8F8101006F0D5F9002861
:1058E00000F0638123687A4A0993099B12689A42FF
:1058F00002D9704B05221A70764B1B68002B40F0C2
:105900007E81754B1B68002B40F07581734B1B68C3
:10591000002B40F06D813368002B00F06381FFF7AE
:10592000DFFD6F4EFDF730FAFFF76AFCFDF7B4FDBF
:1059300033686648002B40F04B81FBF725FE306052
:10594000FCF79CFC72B6674B4AF202614BF2804254
:1059500019801A8062B67CE7634B002212201A601D
:1059600002F064F9012808BF03234FF0110008BFBB
:105970003B7002F05BF9002800F079814E4C3EE06C
:10598000594B52484A4C00221A60FBF747FFA96C5A
:1059900006F098F9002840F05581544B00221A6017
:1059A000122002F043F9012800F02282112002F0B7
:1059B0003DF90128404C22D122684D4B0692069AAF
:1059C0001A6004233B701AE0474B3B4C4FF0000831
:1059D00041461520C3F8008002F022F94146142008
:1059E00002F01EF941460C2002F01AF941460B2044
:1059F00002F016F93F4A0123C2F800803B70EB6FBA
:105A000023F00203012B7FF41AAFFCF70DFF16E71A
:105A1000354B0022012114201A6002F001F92B48B5
:105A2000FBF7FCFEA96C06F04DF9304B002840F066
:105A3000068118602548FBF7F1FE696906F042F916
:105A4000002840F07781122002F0F0F8002895D16C
:105A50000146142002F0E4F801233B70164CCEE717
:105A6000214B4FF001081120C3F8008002F0DEF84E
:105A70000446002882D10146152002F0D1F82146C3
:105A80000C2002F0CDF821460B2002F0C9F8194B8A
:105A900087F800801C60084CB1E7134B064C0022CD
:105AA0001A60FDF705FBAAE74CC1FF1F9C94FF1F7E
:105AB0002C93FF1F7894FF1FF4C2FF1F4892FF1F13
:105AC0005892FF1FEC93FF1F4C87FF1FC094FF1FCE
:105AD0004092FF1F6C87FF1F6492FF1F9094FF1F6F
