:1000000000800020BD010000418B0000F98A000043
:10001000F98A0000F98A0000F98A0000F98A0000D4
:10002000F98A0000F98A0000F98A0000418B00007B
:10003000418B0000F98A0000598100005D820000B8
:10004000418B0000418B0000418B0000418B000080
:10005000418B0000418B0000418B0000418B000070
:10006000418B0000418B0000418B0000418B000060
:10007000418B0000418B0000418B0000418B000050
:10008000418B0000418B0000418B0000418B000040
:10009000418B0000418B0000418B0000418B000030
:1000A000418B0000418B0000418B0000418B000020
:1000B000418B000045770000517700005577000024
:1000C000617700006577000069770000418B0000D0
:1000D000418B0000418B0000418B0000418B0000F0
:1000E000418B0000418B0000418B0000418B0000E0
:1000F000418B0000D5AD0000418B00003598000019
:10010000418B00004D9B0000418B0000418B0000A3
:10011000418B0000418B0000418B0000418B0000AF
:10012000418B0000418B0000418B0000418B00009F
:10013000418B0000418B0000418B0000418B00008F
:10014000418B0000418B0000418B0000418B00007F
:10015000418B0000418B0000418B0000418B00006F
:10016000418B0000DD9D0000418B0000418B0000B1
:10017000418B0000418B0000418B0000418B00004F
:10018000418B0000418B0000418B0000418B00003F
:10019000418B0000418B0000418B0000418B00002F
:1001A000418B0000418B0000418B0000418B00001F
:1001B000418B0000418B0000418B0000564B4CF2FC
:1001C000205210B51A804DF628121A8000BF00BFC9
:1001D00008F0BAFC514B4FF010621A60504A9A6016
:1001E000504ADA60504A136813F4807304D14F49BF
:1001F0000B604FF4A85313604D4B1A78110703D5C9
:100200001A7842F008021A704A4B4B492A221A7097
:100210004A4A4B4B8B4204D252F8040F43F8040B6A
:10022000F8E7484B484900228B4202D243F8042B9E
:10023000FAE74649464A002352F8230041F82300D2
:1002400001336F2BF8D1434B434A802103F8011B44
:100250009342FBD1414B3D4A1A60414B8A221A70AE
:10026000A3F5805324225A70A0221A709A7992071B
:10027000FCD59A79D406FCD43A4A937903F00C035E
:10028000082B384BF9D103221A7140225A719A79FE
:100290009006FCD5334A9179324B4906FBD5324A58
:1002A000324911600221516020221A709A7902F0BD
:1002B0000C020C2AFAD12E4B2E4A1A602E4B2F4AD2
:1002C0001A6000225A60072243F8042C2C4AC3F813
:1002D0000C2D62B608F018FF144B1B68DA0705D521
:1002E000284808F0F5FC284B284A1A60284B1B7850
:1002F0005B0609D5244C254B22689A4204D121483B
:1003000008F0E6FC002323600DF064F808F022FCFE
:1003100008F050FBFEE700BF0E200540308004408F
:10032000823F04000100002B10D0034014D0034092
:1003300002D0074000E007402892FF1F9C300100D8
:100340002087FF1F2892FF1F10C7FF1F0082FF1F7B
:100350000000000000E400E05FE400E008ED00E0E1
:100360000050064000400640448004400000030165
:1003700004800440C010050014E000E0FF76010096
:10038000000020208FE7F35C1CE00340A5C3945AD3
:1003900000F00740FFFFFFFFFFFFFFFFFFFFFFFF32
:1003A000FFFFFFFFFFFFFFFFFFFFFFFFFFFFFFFF5D
:1003B000FFFFFFFFFFFFFFFFFFFFFFFFFFFFFFFF4D
:1003C000FFFFFFFFFFFFFFFFFFFFFFFFFFFFFFFF3D
:1003D000FFFFFFFFFFFFFFFFFFFFFFFFFFFFFFFF2D
:1003E000FFFFFFFFFFFFFFFFFFFFFFFFFFFFFFFF1D
:1003F000FFFFFFFFFFFFFFFFFFFFFFFFFFFFFFFF0D
:10040000FFFFFFFFFFFFFFFFFFFFFFFFDEF9FFFF23
:1004100010B5054C237833B9044B13B10448AFF33E
:1004200000800123237010BD2892FF1F00000000F0
:1004300098300100084B10B51BB108490848AFF3CC
:1004400000800848036803B910BD074B002BFBD0A0
:10045000BDE81040184700BF000000002C92FF1FAD
:10046000983001002892FF1F00000000F0B400F156
:100470001C06144F00243146031F00F13C0243F8D0
:10048000044FB34241F8047F4FF0000542F8044F97
:10049000F5D100230C4A0D49056645668566C5669B
:1004A000056745678567C0F88850C267C0F8842033
:1004B000C0F8801080F8943080F8953080F8AC3027
:1004C000F0BC70470000A040000048430000C8C2D4
:1004D0002DE9F04190F8AC4084B0202364008DF801
:1004E0000530E4B2042380468DF804408DF80630D0
:1004F0000327204609F0C6FA02210DF1050009F094
:10050000CBFA8DF8044006F097FA30B30921404841
:100510000AF0FAFA0023102221463E4807F05CFF59
:1005200001213D480AF0F0FA002310229DF8051041
:10053000384807F051FF012137480AF0E5FA002357
:1005400010229DF80610334807F046FF012132487B
:100550000AF0DAFA2F4807F02FFF02208DF8044046
:1005600008F084FD06F068FA00284CD102AE0024A1
:1005700009F0A8FA70B3072C1FD101E009F0B2FA14
:1005800009F0A0FA0028F9D106F056FA10B1214876
:1005900007F012FF9DF80B009DF80C109DF80D2040
:1005A0009DF80E30C8F89800C8F89C10C8F8A02034
:1005B000C8F8A43004B0BDE8F08109F093FA05460C
:1005C00006F8010B06F038FA70B9013409F07AFA2E
:1005D0000028D0D1072CD3D006F02EFA78B9013FED
:1005E000D8D09DF8044084E7E9B2002310220948DE
:1005F00007F0F2FE012108480AF086FAE5E705480F
:1006000007F0DAFEEBE7072104480AF07DFAADE7D0
:1006100098150100C887FF1F9C1C0100A41501004C
:1006200090F89C00704700BF90F89800704700BF9A
:1006300090F8A000704700BF90F8A400704700BF7A
:10064000082994BF50F82100002070472DE9F0419F
:100650000B4E8046041F00F11C0754F8045F31461E
:1006600028460CF02DFE30B1D8F88C1028460CF03E
:1006700045FE00B12E46BC42EFD13046BDE8F081C8
:10068000000020412DE9F041D0F88C704FF00008B7
:10069000041F00F11C0654F8045F394628460CF08C
:1006A0002DFE084948B128460CF00AFE414620B10B
:1006B00028460CF023FE00B1A846B442EBD14046D8
:1006C000BDE8F081000070422DE9F047D0F88C7051
:1006D00082464FF00009041F00F11C064FF000088D
:1006E00054F8045F394628460CF008FE0C4950B116
:1006F00028460CF0E5FD30B1484629460CF03AFB9F
:1007000008F101088146B442EAD1CAF8B0804046F7
:100710000CF0E4FB014648460CF0E8FCBDE8F0872D
:1007200000007042D0F8B000704700BF38B5846E4A
:10073000456E214628460CF0C3FD00B92C462046E4
:1007400038BD00BFD0F8A8302DE9F041002B79D199
:10075000866E456E0446314628460CF00BFBE76E6C
:10076000394680460CF006FB7E490CF0BFFC4FF08A
:100770007C5104460CF0C2FD002861D04FF07C5142
:1007800028460CF0BBFD4FF07C51002860D1284674
:100790000CF096FD38B14FF07C5130460CF0AEFDB8
:1007A000002840F0A7804FF07C5128460CF0A6FDB1
:1007B000002860D14FF07C5128460CF09FFD0028A6
:1007C00040F0A1804FF07C5128460CF097FD0028A6
:1007D0006CD14FF07C5128460CF072FD4FF07C51EB
:1007E00010B330460CF08AFD38B14FF07C513846DA
:1007F0000CF066FD002840F0B0804FF07C51304690
:100800000CF05EFD002861D04FF07C5138460CF0B2
:1008100075FD002840F0A38038464FF07C510CF065
:100820004FFD68B1504C10E028460CF049FD0028FF
:10083000E3D128464FF07C510CF042FD002845D111
:10084000BDE8F08100EB8300046E2046BDE8F08136
:1008500030460CF053FD4FF07C5100283ED0384616
:100860000CF04CFD0028F0D14FF07C5128460CF0E4
:1008700027FD002859D14FF07C5130460CF020FD67
:10088000002840D04FF07C5138460CF037FD00284E
:1008900041D14FF07C5130460CF030FD68B14FF043
:1008A0007C5138460CF00CFD00284FD14FF07C51A4
:1008B00030460CF005FD00288BD04FF07C513846B7
:1008C0000CF0FEFC002884D02C46BEE730464FF0EA
:1008D0007C510CF0F5FC0028B2D09DE728460CF0C6
:1008E000EFFC0028C7D04FF07C5130460CF006FDDD
:1008F0000028C0D04FF07C5138460CF0FFFC002897
:100900003FF451AF18E04FF07C5130460CF0F6FC4C
:100910000028CBD0C3E7394628460CF02BFA4FF01D
:100920007C510CF02FFB04468FE74FF07C5138468A
:100930000CF0E4FC00289ED0394630460CF01AFA40
:100940004FF07C510CF01EFB04467EE740464FF012
:100950007C510CF017FB044677E7344675E73C46BC
:1009600073E700BF000040400000A0C270B504461D
:10097000FFF7E8FE4FF07C510CF0C0FC28B3666E28
:100980004FF07C5130460CF0B9FCA56EF0B9E46E26
:100990004FF07C5128460CF0B1FC58B12946304646
:1009A0000CF0ACFC30B1214628460CF089FC08B1B3
:1009B0002C4620E04FF07C5120460CF09FFC20B1EB
:1009C000284621460CF09AFC78B970BD304629467D
:1009D0000CF076FCE46E0028DAD0304621460CF0AC
:1009E0006FFC0028D4D0344605E0304621460CF098
:1009F00085FC0028E9D0204670BD00BF01392DE9F3
:100A0000F84380461546032900F20281DFE801F031
:100A1000C6956402537B107BD8F8904003EB00200E
:100A20000CF05CFA7C490CF0ADFA21460CF0A2F90E
:100A3000C8F81800EB7BA87B03EB00200CF04EFA03
:100A400075490CF09FFA21460CF094F9D8F86860CB
:100A5000D8F86470D8F80040C8F81C004046FFF78A
:100A600085FFD8F87C1005460CF02AFC08B1C8F8C0
:100A70007C50394630460CF041FC002840F0BF80E5
:100A80003946D8F880000CF01BFC10B13E46C8F87F
:100A9000806008F12006C14608F14005002701E00A
:100AA00059F8044F306821460CF028FC01372146E4
:100AB00028B1D8F88C000CF00DFC00B13460214650
:100AC00028680CF0FDFB043600B12C60082F05F1FE
:100AD0000405E5D1BDE8F883507A32380CF0FEF910
:100AE000C8F87400A87A32380CF0F8F9C8F8780021
:100AF0006B7B287BD8F8904003EB00200CF0EEF9DC
:100B000045490CF03FFA21460CF034F9C8F81000C2
:100B1000EB7BA87B03EB00200CF0E0F93E490CF0E6
:100B200031FA21460CF026F9D8F86860C8F81400AC
:100B3000D8F86470D8F8004090E7507A32380CF05A
:100B4000CDF9C8F86C00A87A32380CF0C7F9C8F8AB
:100B500070006B7B287BD8F8904003EB00200CF0F2
:100B6000BDF92D490CF00EFA21460CF003F9C8F836
:100B70000800EB7BA87B03EB00200CF0AFF92649C3
:100B80000CF000FA21460CF0F5F8D8F86860C8F8C7
:100B90000C00D8F86470D8F800405FE7137AC0F80A
:100BA000B430907A32380CF099F9C8F864000746EE
:100BB000E87A32380CF092F9C8F868006B7BD8F804
:100BC00090900646287B03EB00200CF087F9124931
:100BD0000CF0D8F949460CF0CDF8C8F80000EB7BD2
:100BE0000446A87B03EB00200CF078F90A490CF0CE
:100BF000C9F949460CF0BEF8C8F804002EE7D8F849
:100C0000801030460CF07AFB00287FF440AF40E7BC
:100C1000866E476E046821E70AD7233C2DE9F04F22
:100C200090F8AC3091B007465B008DF80830FFF7C4
:100C30004FFCD7F8A000D7F8A440D7F89C30D7F8DD
:100C4000982097F8AC108DE81100C94805F0FAFF1C
:100C500030223D2303268DF809208DF80A300DF14E
:100C60000A059DF8089049F00108404608F00AFF7F
:100C70000DF10900022108F00FFF8DF808804246AF
:100C800002AB00205040082410F0800F4FEA4000D3
:100C900018BF80F00700013CC0B2F5D19D4202D0E0
:100CA00013F8012FEEE708F0EDFE05F0C5FE002871
:100CB00040F07C8202208DF8089008F0D7F905F00A
:100CC000BBFE002840F0B8820DF10C0AD14600248A
:100CD00008F0F8FE002843D0032C34D101E008F0DE
:100CE00001FF08F0EFFE0028F9D105F0A5FE10B1D4
:100CF000A04807F061FB312303268DF809308DF8F9
:100D00000A609DF8089049F00108404608F0BAFED4
:100D10000DF10900022108F0BFFE8DF8088042465F
:100D200002AB00205040082410F0800F4FEA400032
:100D300018BF80F00700013CC0B2F5D19D4228D019
:100D400013F8012FEEE708F0CDFE09F8010B8046FD
:100D500005F072FE68B9013408F0B4FE0028BBD17A
:100D6000032CBED005F068FE78B9013E7FF479AF60
:100D7000C1E75FFA88F1002310227E4807F02CFBC0
:100D800001217D4809F0C0FEE5E77A4807F014FB31
:100D9000EBE708F077FE05F04FFE002840F0C58134
:100DA00002208DF8089008F061F905F045FE002852
:100DB00040F03D820DF10C09002408F083FE00286C
:100DC00044D0032C35D101E008F08CFE08F07AFE07
:100DD0000028F9D105F030FE10B1664807F0ECFAB2
:100DE000342201238DF809208DF80A3003269DF85E
:100DF000089049F00108404608F044FE0DF1090052
:100E0000022108F049FE8DF80880424602AB00201E
:100E10005040082410F0800F4FEA400018BF80F0C7
:100E20000700013CC0B2F5D19D4228D013F8012F34
:100E3000EEE708F057FE09F8010B804605F0FCFDCF
:100E400068B9013408F03EFE0028BAD1032CBDD0A9
:100E500005F0F2FD78B9013E7FF453AFC0E75FFAC9
:100E600088F100231022434807F0B6FA01214248D6
:100E700009F04AFEE5E73F4807F09EFAEBE708F085
:100E800001FE05F0D9FD002840F00E8102208DF80A
:100E9000089008F0EBF805F0CFFD002840F0D6816F
:100EA0000DF10C09002408F00DFE002800F08480EC
:100EB000032C72D101E008F015FE08F003FE0028B3
:100EC000F9D105F0B9FD10B12A4807F075FA0122F1
:100ED00012238DF809208DF80A304FF003089DF891
:100EE0000840204608F0CEFD02210DF1090008F06F
:100EF000D3FD8DF8084005F09FFD30B309211F4850
:100F000009F002FE0023102221461A4807F064FA75
:100F10000121194809F0F8FD002310229DF809105D
:100F2000144807F059FA0121134809F0EDFD002398
:100F300010229DF80A100F4807F04EFA01210E48C2
:100F400009F0E2FD0B4807F037FA06208DF808405B
:100F500008F08CF805F070FD002840F0728103ADB8
:100F6000002608F0AFFD00283FD0162E2FD109E053
:100F7000AC150100C887FF1F9C1C010098150100DB
:100F800008F0B0FD08F09EFD0028F9D105F054FDF1
:100F9000162600287DD1152035E008F0A3FD09F8BC
:100FA000010B804605F048FD00285BD1013408F0B4
:100FB00089FD00287FF47CAF032C3FF47EAF05F061
:100FC0003BFD00286CD1013E7FF411AF7FE708F0B4
:100FD00089FD05F8010B044605F02EFD00284DD1D2
:100FE000013608F06FFD0028BFD1162ECAD005F0DB
:100FF00023FD00284DD1B8F101087FF470AF701EB9
:10100000002840F32482002303AA1C4612F8011B87
:1010100008254C4014F0800F4FEA440418BF84F0B8
:101020000704013DE4B2F5D101338342EEDB9DF8C4
:10103000218089484146224605F004FE162EC1460D
:10104000A34602D1A04500F0138197F8AC10834865
:10105000CDF800B04B46324605F022FE002011B01C
:10106000BDE8F08F5FFA88F1002310227C4807F07A
:10107000B3F901217B4809F047FD97E7E1B200236E
:101080001022774807F0A8F90121764809F03CFDC5
:10109000A6E7734807F090F9162EACD11520B2E7F9
:1010A0006F4807F089F98EE709216F4809F02CFD98
:1010B0002346102241466A4807F08EF9012169480B
:1010C00009F022FD234610229DF80910644807F01C
:1010D00083F90121634809F017FD102223469DF88A
:1010E0000A105F4807F078F901215E4809F00CFD0D
:1010F00021460DF10B0002AA12F8014B6140C9B262
:10110000082311F0800F4FEA410118BF81F0070159
:10111000013BC9B2F5D19042EED11022504807F000
:101120005BF94F4807F048F9B0E609214E4809F04D
:10113000EBFC234610224146494807F04DF90121B6
:10114000484809F0E1FC234610229DF80910444864
:1011500007F042F90121434809F0D6FC102223464A
:101160009DF80A103E4807F037F901213D4809F083
:10117000CBFC21460DF10B0002AA12F8014B614095
:10118000C9B2082311F0800F4FEA410118BF81F066
:101190000701013BC9B2F5D19042EED1102230488F
:1011A00007F01AF92E4807F007F9F9E509212E484A
:1011B00009F0AAFC234610224146294807F00CF901
:1011C0000121284809F0A0FC234610229DF80910AF
:1011D000234807F001F90121224809F095FC10226B
:1011E00023469DF80A101E4807F0F6F801211D4815
:1011F00009F08AFC21460DF10B0002AA12F8014BFE
:101200006140C9B2082311F0800F4FEA410118BFB5
:1012100081F00701013BC9B2F5D19042EED1102215
:101220000F4807F0D9F80E4807F0C6F842E5072145
:101230000E4809F069FCBDE507210C4809F064FC83
:1012400042E50721094809F05FFC88E607210748C5
:1012500009F05AFC24E600BFE01501002C1601003D
:10126000C887FF1F9C1C010098150100A4150100F0
:101270009DF80C3097F8AC20B3EB420F7FF4EEAE44
:101280009DF80D30012B7FF4E9AE9DF80E30122B46
:101290007FF4E4AE9DF810309DF80F0003EB0020C2
:1012A0000BF01CFE72490BF06DFED7F88810386603
:1012B00004460CF023F808B1C7F88840D7F884102A
:1012C00020460BF0FDFF08B1C7F88440A7F10409E0
:1012D00007F1200607F140054FF008089AF806309C
:1012E0009AF8050003EB00200BF0F8FD61490BF0C4
:1012F00049FE49F8040F316804460BF0E1FF0AF19A
:10130000020A30B1D7F88C1020460BF0EDFF00B187
:101310003460296820460BF0F1FF043600B12C60E0
:10132000B8F1010805F10405D8D19DF81E309DF8EB
:101330001D0003EB002002300BF0D0FD4E490BF0F6
:10134000D5FE01464D480BF0D1FE4D490BF010FD86
:101350004C490BF017FE054609F082FE044628466C
:1013600009F07EFE484909F0EDFE48490546204651
:101370000BF008FE46490BF0FDFC464904462846A2
:101380000BF000FE014620460BF0F4FC01464FF046
:101390007E500BF0ABFE40490BF0EAFC9DF81F209D
:1013A0009DF82030786603EB022009300BF096FDA3
:1013B0003A490BF09BFE014630480BF097FE30494E
:1013C0000BF0D6FC2F490BF0DDFD054609F048FE79
:1013D0000446284609F044FE2B4909F0B3FE2B4988
:1013E000054620460BF0CEFD29490BF0C3FC2949E8
:1013F000044628460BF0C6FD014620460BF0BAFC19
:1014000001464FF07E500BF071FE23490BF0B0FC0B
:10141000B86604463846FFF7A9FAF96F05460BF09F
:101420004FFF00B1FD677D6E204629460BF066FF39
:10143000B0B92946D7F880000BF042FF10B12C4616
:10144000C7F88040164805F0FDFB012007E69DF82F
:101450002190144849464246C34605F0F3FBF4E5A3
:10146000D7F8801020460BF049FF0028E8D1E9E7C3
:101470001357053B2003C839001601470AD7E33F3D
:10148000E17A644000007A4400004040A40D8F39A6
:101490005A80473A46A6DB3333938843002C0147F2
:1014A00004160100E01501002DE9F8430026D0F8EC
:1014B0008C8006668146044600F1200754F8045BE0
:1014C000414628460BF01AFF084950B128460BF058
:1014D000F7FE30B1304629460BF04CFC0646C9F801
:1014E0006000BC42EAD13046BDE8F883000070429B
:1014F00005299ABF00EB8100406E0020704700BFB5
:101500003E2998BF80F8AC10704700BF90F8940057
:10151000704700BFC0F8A810704700BF80F8941053
:10152000704700BFC0F88C10704700BFC0F8901023
:10153000704700BF70B500F535550646303500F1EF
:1015400028042046B834FEF791FFAC42F9D106F1E9
:10155000E005012428460021FFF7E0FF2146284648
:101560000134FFF7CDFF3F2C05F1B805F2D142F66B
:10157000785400250548064A064B35550021306150
:101580007161B261F361304670BD00BF00007A4402
:10159000000048430000C8C2012070472DE9F04117
:1015A00042F67C5300F53556374600228046C2503D
:1015B00030363C3700F1E00402E0B834B4420DD0DC
:1015C0002046FFF7A3FF0028F7D020463D68FFF72D
:1015D000A9F8B8342844B4423860F1D142F67C53BB
:1015E00058F80300BDE8F081F8B50E46096801F42B
:1015F0007F6500290446A5F5C06511DB2D0901F0C2
:101600000F07B82303FB0544283420460121FFF7C8
:1016100085FF324639462046BDE8F840FFF7EEB96F
:101620000A4801F00F0706F0C7FE1221084809F02A
:101630006BFA3168054801F0004100230A2206F0E8
:10164000CBFE02482D0906F0B7FEDAE7C887FF1F78
:101650007C160100704700BF704700BF2DE9F043C2
:101660000446002383B0064644F8E03B012504E02D
:1016700001353F2D04F1B80469D02046FFF746FF3D
:101680000028F5D0504805F0DDFA29464F4805F00E
:10169000D9FA2046FFF7C2FA2046FFF705FF0AF005
:1016A000C7FF02460B464A4805F0CCFA2046FEF733
:1016B000CDFF80462046FEF7E5FF074640460AF08C
:1016C000B7FF8046384689460AF0B2FF42464B468D
:1016D000CDE900013F4805F0B5FA00212046FFF7AB
:1016E00007FF012180462046FFF702FF07464046DC
:1016F0000AF09EFF8046384689460AF099FF424626
:101700004B46CDE90001344805F09CFA2046FFF72E
:10171000CBFE014630680BF02DFB30602046FFF712
:1017200025F9B1690BF0CCFD002833D12046FEF736
:10173000FDFFF1690BF0E2FD002899D02046FEF78D
:10174000F5FF01353F2DF06104F1B80495D17068C3
:101750000BF0C4FB014630680BF0C8FC71693060C7
:1017600004460BF0CBFD00B17461316920460BF0EB
:10177000A7FD00B134610B2007F042FC42F678531C
:10178000F35C60B99BB142F678530122F25403B086
:10179000BDE8F0832046FFF7E9F8B061C6E753B92A
:1017A00042F678530022F25403B0BDE8F0830B48B0
:1017B00005F076FAE7E70A4805F05CFA42F6785356
:1017C0000022F254F0E700BF7818010090160100E3
:1017D000CC160100E01601000C17010028170100CB
:1017E0006017010070B5114B836000F53555064652
:1017F000303500F1E00402E0B834AC4213D02046AA
:10180000FFF784FE0028F7D02046FEF71FFFB168DF
:101810000BF056FD0028EFD02046FEF717FFB83436
:10182000AC42B060EBD1B06870BD00BF0000A0401A
:1018300070B5002300F535550646C360303500F11C
:10184000E00402E0B834AC4213D02046FFF75EFE5D
:101850000028F7D02046FEF715FFF1680BF04EFD8B
:101860000028EFD02046FEF70DFFB834AC42F06000
:10187000EBD1F06870BD00BF0068704741607047F1
:101880002DE9F04100F53555884617461E4630359E
:1018900000F1E00402E0B834AC4213D02046FFF778
:1018A00035FE0028F7D020464146FFF733FE20469C
:1018B0003946FFF737FE20463146B834FFF736FE8B
:1018C000AC42EBD1BDE8F0812DE9F84300F5355588
:1018D00042F674532E4600278046C7504FF0000949
:1018E0003035343600F1E00402E0B834A54213D0BC
:1018F0002046FFF70BFE0028F7D033680133336032
:101900002046FEF71FFF1D490BF0F8FC88B9B834DC
:10191000A54207F10107EBD142F6745358F80300D2
:10192000C01B0BF0DBFA014648460BF0DFFBBDE8BD
:10193000F8832046FEF706FF014648460BF01AFAE8
:1019400081462046FEF7FEFED8F820100BF0D6FCAC
:1019500070B92046FEF7F6FED8F824100BF0B0FC64
:101960000028C2D02046FEF7EDFEC8F82400BCE7F0
:101970002046FEF7E7FEC8F82000EAE700008CC228
:10198000006A7047406A7047F8B500F5355507465C
:101990000026303500F1E00402E0B834AC420FD04C
:1019A0002046FFF7B3FD0028F7D02046FEF78CFE57
:1019B000014630460BF0DEF9B834AC420646EFD1B2
:1019C00042F67453F8580BF089FA014630460BF092
:1019D0008DFBF8BD2DE9F04F06468FB09B488B4636
:1019E00005F0D8F8994805F0D5F8984805F0D2F8F0
:1019F00042F674533046F2580D92FFF7CFFD7368EC
:101A00000C93074630680AF013FE8046304689463C
:101A1000FFF7BAFF82463046B468F568FFF754FF17
:101A20000AF006FECDE90A01214628460BF0A0F98E
:101A300087490BF0A7FA0AF0FBFDCDE9080128461B
:101A40000AF0F6FDCDE9060120460AF0F1FDCDE9E8
:101A5000040150460AF0ECFD0D9A0C9BCDE9020101
:101A6000CDE9008911467B483A4605F093F877485E
:101A700005F090F8E0364FF001084FF0000A07E05B
:101A800008F10108B8F13F0F06F1B80600F0D58063
:101A90003046FFF73BFD0028F2D03046FEF7C0FD90
:101AA0003046FEF7C1FD3046FEF7C2FD3046FEF778
:101AB000C3FD0821684809F027F84146674806F049
:101AC000CBFCB8F1090F40F3BB800221644809F058
:101AD0001BF83046FFF7E8FC0AF0AAFD5FFA8BF925
:101AE00002460B46CDF800905C4806F0BDFC012193
:101AF0005C4809F009F85546002420E006215A48C0
:101B000009F002F82946554806F0A6FC022157487C
:101B100008F0FAFF21463046FEF792FD0AF088FDF4
:101B2000CDF8009002460B464C4806F09DFC01346F
:101B300001214C4808F0E8FF082C09D03D46092D4A
:101B400005F10107DADC0121494808F0DDFFD5E79E
:101B5000424806F031FC0921464808F0D5FF002133
:101B60003046FFF7C5FC0AF063FD022402460B462F
:101B700000943A4806F078FC0A213F4808F0C4FF78
:101B800001213046FFF7B4FC0AF052FD00940246F2
:101B90000B46324806F068FC0A21384808F0B4FFCA
:101BA00021463046FFF7A4FC0AF042FD00940246AD
:101BB0000B462A4806F058FC0A21314808F0A4FFD9
:101BC00003213046FFF794FC0AF032FD00940246F0
:101BD0000B46224806F048FC0A212A4808F094FFE8
:101BE00004213046FFF784FC0AF022FD00940246EF
:101BF0000B461A4806F038FC0A21234808F084FFF7
:101C000005213046FFF774FC0AF012FD00940246ED
:101C10000B46124806F028FC01211C4808F074FF0E
:101C200008F101080D4806F0C7FBB8F13F0F0AF1B3
:101C3000080A06F1B8067FF42BAF0FB0BDE8F08FAD
:101C400001210B4808F060FF3FE700BF7818010052
:101C500000007A44101A0100B01A0100C887FF1F63
:101C6000F4280100BC1A0100C01A01008C1C0100FC
:101C70009C1C0100C81A0100D41A0100E01A0100DE
:101C8000EC1A0100F81A0100041B0100101B0100EE
:101C90002DE9F04F85B000F1E0058A4603929B469E
:101CA0002E464FF0010806E008F10108B8F13F0F99
:101CB00006F1B8067BD03046FFF728FC0028F3D0A9
:101CC00000230A2251467D4806F086FB01217C480C
:101CD00008F01AFF03980AF0ABFC002302460093B9
:101CE00076480B4606F0C0FB0121754808F00CFF52
:101CF0005946724806F0B0FB0121714808F004FF14
:101D000041466E4806F0A8FB01216D4808F0FCFE34
:101D100000244FF0020921463046FEF791FC0AF0FC
:101D200087FCCDF8009002460B46644806F09CFB09
:101D300001340121624808F0E7FE082C4FF0020749
:101D4000E9D100213046FFF7D3FB0AF071FC009780
:101D500002460B46594806F087FB0121584808F017
:101D6000D3FE01213046FFF7C3FB0AF061FC009768
:101D700002460B46514806F077FB0121504808F017
:101D8000C3FE39463046FFF7B3FB0AF051FC00971B
:101D900002460B46494806F067FB08F10108474830
:101DA00006F00AFBB8F13F0F06F1B80683D1012710
:101DB0004FF0000904E001373F2F05F1B80579D055
:101DC0002846FFF7A3FB0028F5D000230A2251463E
:101DD0003C4806F001FB0121394807F027FC039835
:101DE0000AF026FCCDF8009002460B46354806F076
:101DF0003BFB0121324807F019FC5946314806F0F7
:101E00002BFB01212E4807F011FC39462D4806F026
:101E100023FB01212A4807F009FC00244FF00208A7
:101E200021462846FEF70CFC0AF002FCCDF80080A3
:101E300002460B46234806F017FB013401212048D7
:101E400007F0F4FB082C4FF00206E9D100212846E8
:101E5000FFF74EFB0AF0ECFB009602460B461948D2
:101E600006F002FB0121164807F0E0FB012128469D
:101E7000FFF73EFB0AF0DCFB009602460B461148DA
:101E800006F0F2FA01210E4807F0D0FB3146284651
:101E9000FFF72EFB0AF0CCFB009602460B460948E2
:101EA00006F0E2FA0137074806F086FA3F2F05F1FF
:101EB000B80585D105B0BDE8F08F00BFC887FF1F0A
:101EC000141B0100AC87FF1F2DE9F84F994C9A486D
:101ED000FFF7FAFCE16A0BF0F3F9002851D0974EB6
:101EE000974D002333602B60964B93481B68914FAE
:101EF000012B5ED0FFF79CFCE169804660690AF027
:101F000037FF014640460BF0F9F9002865D18A48B1
:101F1000FFF78EFCE1680BF0F1F908B100232B60AC
:101F20008548844FFFF75EFC21690BF0C9F958B171
:101F3000002333602B68824A002B01DBBDE8F88F59
:101F400000231360BDE8F88F7B48FFF74BFCB969AD
:101F50000BF0B6F90028EBD17748FFF743FCD7F830
:101F6000BC100446B8690AF005FF014620460BF094
:101F7000C5F9002800F08480B86E30600028D7DBF7
:101F8000D8E76D48FFF7A0FC216B0BF099F900280A
:101F900051D16948FFF798FC616B0BF091F900286B
:101FA00000F09380654E664DA26E236E32602B600A
:101FB0009AE7FFF73DFCE1698046206A0AF0D8FE07
:101FC000014640460BF09AF90028A0D05A48FFF786
:101FD0002FFCD7F82090834605E05748FFF728FCF0
:101FE000D7F814908346F96948460AF0C1FE824644
:101FF000386E0AF073FF8046786E0AF06FFF414634
:102000000AF0B6FE5146074658460AF0B1FE0146B0
:1020100038460AF0B7FF5146074648460AF0A8FE80
:10202000014638460BF062F841460AF0A3FE0BF079
:1020300085F928606BE7414EA36E3F483360FFF798
:1020400043FC8146206EE76A3D4D0AF047FF394662
:10205000804648460AF08CFE014640460AF092FF50
:1020600039468046206B0AF083FE014640460BF05D
:102070003DF800210AF07EFE0BF060F9286033E79E
:102080002D48FFF7AFFB8146386EBC690AF026FF8A
:102090002146804648460AF06BFE014640460AF05B
:1020A00071FFD7F8BC10804620460AF063FE214637
:1020B0000AF05EFE014640460BF018F800210AF0D7
:1020C00059FE0BF03BF9306058E71B48FFF7FCFB6B
:1020D000A16A0BF0F5F800283FF401AF1648174E3F
:1020E000174DFFF7F1FB8146A06ED4F834800AF05B
:1020F000F5FE4146074648460AF03AFE3946814613
:1021000000200AF035FE014648460AF03BFF4146F2
:102110008146A06A0AF02CFE014648460AF0E6FF16
:1021200039460AF027FE0BF009F9236E30602B6068
:10213000DAE600BF3093FF1FE494FF1FA894FF1F4F
:102140004C92FF1F6892FF1FF8B54148414F424C27
:10215000424D04F01FFD424B4248DFF834E1424952
:10216000424A5860102642481E70DF60414E424F7E
:102170001C61C3F818E04FF07C544FF00C0E59610D
:102180005A623E493E4A9D62D8623E4D3E485E6379
:102190009F6340F61C460A279C64C3F854E041F252
:1021A0000404DFF8F0E0D9641A65022101221D62FF
:1021B000C3F8BC0000250020DE661F6764264FF4CC
:1021C00096775C67C3F81CE03224C3F83CE04FF01C
:1021D0005A0E597059721A729A6583F844009F66B4
:1021E0001F665C661D63DE654FF47A7CC3F878E099
:1021F000264FDFF8A4E0D867C3F88010C3F8840046
:10220000C3F89840C3F8A440C3F8A000FF24C3F863
:10221000AC20C3F8B010052041F2883183F8C0200B
:1022200040F2D662C3F8B4601D64C3F89CC0C3F822
:102230008CE0C3F89070C3F8A840A3F8BA00C3F8C4
:102240009410A3F8B810A3F88820A3F88A20F8BD4A
:10225000181B010066668640000040400000824274
:102260003093FF1F20A1070033338340CDCCCC3DFA
:10227000000020C1000020420000A0409A9979404F
:102280000AD7233D333373409A99993E00C02044C6
:10229000CDCC4C40CDCC4C3E00006842F0B54FF464
:1022A0007A6085B006F0E2FE00210F2006F0B6FE4F
:1022B00000210E2006F0B2FE0021112006F0AEFE35
:1022C0000021102006F0AAFE0021122006F0A6FE32
:1022D0000021132006F0A2FE01210B2006F09EFE35
:1022E00001210C2006F09AFE0121142006F096FE32
:1022F0000121152006F092FE0121162006F08EFE27
:102300000121172006F08AFE0121052006F086FE35
:10231000904C914D0121062006F080FE01210D20F8
:1023200006F07CFE20880AF0D5FD0146162006F056
:10233000DFFD20880AF0CEFD0146172006F0D8FD0B
:1023400020880AF0C7FD0146052006F0D1FD20884F
:102350000AF0C0FD00240146062006F0C9FD0094E5
:1023600023467E4A7E497F4804F094FEE6B2324618
:1023700079497C4804F03CFE2B79774979486FF322
:102380000003013432462B7104F028FE082CEDD1F5
:102390000924E6B232467049724804F029FE2B79CE
:1023A0006D49704843F00103013432462B7104F04B
:1023B00015FE0D2CEDD16C4C4FF0FF322068102132
:1023C00005F034FA20684FF0FF32102105F006FACC
:1023D00020684FF0FF32022105F014FA20684FF018
:1023E000FF32022105F018FA00220F21206805F0C3
:1023F00027FA0C215D4808F087FB5D4805F0DCFFFB
:1024000014215C4808F080FB594805F0D5FF40F2E4
:10241000836006F0E9FE564805F0CEFF17215648C6
:1024200008F072FB524805F0C7FF544B1B789A0620
:1024300000F1BE80514B1B781B0700F1C5804F4B4C
:102440001B785F0700F1CC804C4B1B789E0700F196
:10245000D3804B4B1B781D0600F1DA80484B1B786C
:102460005C0600F1E180464B1B78980600F1E8809D
:10247000434B1B78590700F1EF80414B1B781A073B
:1024800000F1F6803E4B1B789B0700F1FD80384839
:1024900005F092FF72B63B4A4CF220534DF62811DC
:1024A0002024138023461180013BFDD1364D37484F
:1024B000374900234FF480562E8003800B8032F87A
:1024C0000E3C9BB243F0D30322F80E3C62B69D2033
:1024D00007F088FA21462F482F4D08F015FB2448B5
:1024E00005F06AFF05F1C4062F462C46601B06F076
:1024F000CFF904F8010BB442F8D13B78102B01D08E
:10250000FFF722FE2548FFF7A7F8042004F08EFA13
:10251000234B224800221A60FFF79CF801210D206E
:1025200006F068FDB96D1D48FFF7A8F93B6CBA6C61
:1025300097F844101948FFF7A3F91A4B1A491A687B
:10254000039203981B680293029A184B08601A6062
:1025500005B0F0BD2487FF1F0094FF1F10C4FF1FAC
:1025600020A1070074C2FF1FB094FF1F381B010099
:10257000C887FF1F481B0100601B010001F00740D6
:1025800000F007400E2005400420054006200540CD
:1025900016200540641C01003093FF1FE494FF1FC8
:1025A0005892FF1F38C4FF1FE094FF1F0894FF1FBD
:1025B0002121394808F0A8FA384805F0FDFE384BCB
:1025C0001B781B077FF53BAF0C21364808F09CFABF
:1025D000324805F0F1FE324B1B785F077FF534AFD0
:1025E0000E21314808F090FA2C4805F0E5FE2C4BFE
:1025F0001B789E077FF52DAF17212C4808F084FA31
:10260000264805F0D9FE2A4B1B781D067FF526AF1C
:102610000E21284808F078FA204805F0CDFE244B1A
:102620001B785C067FF51FAF1221234808F06CFA77
:102630001A4805F0C1FE1E4B1B7898067FF518AFAF
:1026400013211E4808F060FA144805F0B5FE184B37
:102650001B7859077FF511AF1C21194808F054FA6F
:102660000E4805F0A9FE124B1B781A077FF50AAF3A
:102670001921144808F048FA084805F09DFE0C4B53
:102680001B789B077FF503AF18210F4808F03CFA31
:10269000024805F091FEFAE6781B0100C887FF1F8B
:1026A00001F007409C1B0100AC1B0100BC1B01009A
:1026B00000F00740D41B0100E41B0100F81B0100DF
:1026C0000C1C01002C1C0100481C010070B5464C7C
:1026D000464D4748E66800232B70FFF7A9F80146EE
:1026E00030460AF0EDFD08B104232B704048FFF797
:1026F00079F821690AF0E4FD18B12B7843F0100352
:102700002B703B48FFF7E0F8A16A0AF0F7FD18B11B
:102710002B7843F040032B70002335486B70FFF794
:10272000D3F8E16A314E0AF0CBFD08B10123737092
:1027300000232F48EB70FFF77BF805462C482B4E03
:10274000FFF750F8014628460AF012FBE16B0AF049
:10275000D5FD08B10123F370264D254800232B70C9
:10276000FFF766F8616A0646E0680AF001FB014679
:1027700030460AF0C3FD08B104232B701C48FFF754
:1027800031F8616A064620690AF0F4FA01463046DB
:102790000AF096FD18B12B7843F010032B70144803
:1027A000FFF792F8A16B0646A06A0AF0E1FA01462B
:1027B00030460AF0A3FD18B12B7843F040032B708C
:1027C00000230B486B70FFF77FF8A16B0546E06AAA
:1027D000084C0AF0CFFA014628460AF071FD08B10C
:1027E0000123637070BD00BF3093FF1F2C93FF1F48
:1027F000E494FF1FA094FF1F2DE9F0417C4C236857
:10280000012B82B031D0022B00F0A880032B00F006
:10281000C8803BBB774B784AD3F8A410D3F8A830D4
:1028200012685B1A632B0EDD744803FB02F380FB16
:102830000302DB17C3EB62131944062002B0BDE8A4
:10284000F04106F057BA6E4803FB022380FB0302F7
:10285000DB17C3EB22121144062002B0BDE8F041A1
:1028600006F048BA02B0BDE8F081664E33680A331C
:10287000B3F57A7F00F3B780184633600AF02EFB79
:1028800061490AF07FFB80465A4DD5F8A4000AF052
:1028900025FB0746D5F8A8000AF020FB39460AF0C8
:1028A00067FA41460AF06EFB58490AF01FFC3946A8
:1028B0000AF060FA0AF042FD0146062006F01AFA14
:1028C0000221534808F020F9524805F075FD062111
:1028D000514808F019F930680AF000FB4A490AF03B
:1028E00051FB09F0A5FE022702460B460097494816
:1028F00005F0BAFD0D21494808F006F9D5F8A40005
:102900000AF0ECFA804630680AF0E8FA3E490AF02C
:1029100039FB0646D5F8A8000AF0E0FA41460AF06D
:1029200027FA014630460AF02DFB38490AF0DEFB53
:1029300041460AF01FFA09F07BFE00970B4602465B
:10294000344805F091FD3946314808F0DDF831484A
:1029500005F032FD2368022B7FF458AF294B254E3A
:1029600000221A60D6F8A4000AF0B8FA0546D6F894
:10297000A8000AF0B3FA29460AF0FAF900210AF091
:1029800001FB22490AF0B2FB29460AF0F3F90AF0EA
:10299000D5FC0146062006F0ADF92368032B7FF431
:1029A00038AF184B134E4FF47A721A60D6F8A40061
:1029B0000AF094FA0546D6F8A8000AF08FFA2946DC
:1029C0000AF0D6F911490AF0DDFA10490AF08EFB37
:1029D00029460AF0CFF90AF0B1FC0146062006F0BC
:1029E00089F9236815E700234FF0000833604BE7AF
:1029F0008C94FF1F3093FF1F3087FF1F1F85EB5103
:102A0000CBF08D285C92FF1FCDCCCC3D0000C8429E
:102A1000F4280100C887FF1F881C0100901C0100DA
:102A200070B5B548B54C05F0C7FCB34805F0C4FC1B
:102A3000B14805F0C1FC0D21B14808F065F8D4F8A3
:102A4000A030012B11D0AF4CAB48217800230A22D3
:102A500005F0C2FC2378052B67D8DFE813F00601E8
:102A60000B01100115011A0101010921A64808F006
:102A70004BF8A648FEF7B6FE21690AF021FC18B112
:102A80000F21A34808F040F8A048FEF7D1FEE16806
:102A90000AF034FC18B10E219E4808F035F89B4826
:102AA000FEF7C6FE05469948FEF79CFE01462846FD
:102AB0000AF05EF9E16B0AF021FC18B11121964889
:102AC00008F022F89148FEF7FFFEA16A0AF016FC12
:102AD00018B10C21914808F017F88C48FEF7F4FE65
:102AE000E16A0AF0EDFB18B10D218D4808F00CF8F1
:102AF0008C4B86481B68012B00F0E880FEF772FEC5
:102B000021697E4D0AF0FAFB78B18048FEF790FE0D
:102B1000E9680AF0D5FB40B17A4B1B78052B00F031
:102B2000E6800821804807F0EFFF02217F4807F088
:102B3000EBFF122006F064FA012800F0AF801120AC
:102B400006F05EFA012800F0B380794B1B68012B78
:102B500000F0B78002217548764C07F0D5FF764B20
:102B60006548196805F078FC634805F025FC0421E8
:102B7000724807F0C9FF0B2006F042FA0023014615
:102B80000A225D4805F028FC0C2006F039FA0023E3
:102B900001460A22584805F01FFC142006F030FABE
:102BA000002301460A22544805F016FC152006F0C1
:102BB00027FA0A22002301464F4805F00DFC0621A2
:102BC0005F4807F0A1FF2368DD074FF001014CBF0C
:102BD0005C485D4807F098FF236898074FF00101B3
:102BE0004CBF5848584807F08FFF23685A074FF0EA
:102BF00001014CBF5348544807F086FF23681B0768
:102C00004CBF50485048012107F07EFF04214F4837
:102C100007F07AFF112006F0F3F9002301460A229B
:102C2000354805F0D9FB102006F0EAF900230146EB
:102C30000A22314805F0D0FB122006F0E1F900230A
:102C400001460A222C4805F0C7FB132006F0D8F9EC
:102C5000002301460A222848BDE8704005F0BCBBAD
:102C600007213B4807F050FF5FE70621394807F08E
:102C70004BFF5AE70721384807F046FF55E7072181
:102C8000364807F041FF50E70821354807F03CFF80
:102C90004BE70B21334807F037FF46E70E21324858
:102CA00007F032FF112006F0ABF901287FF44DAF99
:102CB0000A212E4807F028FF1D4B1B68012B7FF4CB
:102CC00049AF11212A4807F01FFF43E7FEF78AFDAD
:102CD000216A0AF013FB00283FF423AF1621254890
:102CE00007F012FF0A21244807F00EFF1DE70A2112
:102CF000214807F009FF18E7C887FF1F3093FF1F1F
:102D0000A01C01009C94FF1FB01C0100E494FF1F55
:102D1000BC1C0100CC1C0100DC1C0100F01C0100EB
:102D2000001D01006892FF1F341D0100F4280100FE
:102D3000B894FF1FF493FF1F9094FF1FA81D01007C
:102D4000B01D0100B81D0100982A0100BC1D010042
:102D5000701D0100401D0100481D01005C1D0100A7
:102D6000641D0100501D0100781D0100881D010037
:102D7000941D0100101D0100281D01002DE9F04FD8
:102D80009C4C9D4FD4F88030012B8DB000F05A81BF
:102D9000032B5BD0994E9A4DE36F9A48012B09BFE4
:102DA0002968296801F10041296005F03BF9336881
:102DB000002B40F0D980934805F00AF9D4F8803010
:102DC0003860012B064600F0DC808F490AF096FA45
:102DD000B8B98E4930460AF073FA90B98C4A8D4BD7
:102DE00012680B920B9A1A60D4F8AC000AF076F8CD
:102DF00031460AF0C7F8002338602B600DB0BDE8FB
:102E0000F08FDFF80CA2DFF80C82DAF800300A93BA
:102E10000A98D8F80030DFF82492C01A0AF05AF85D
:102E200031460AF0AFF87C490AF060F97A490AF0B5
:102E30005DF9D9F8001009F09DFFDAF80030099328
:102E4000099BC9F80000C8F80030CDE7DFF8D08151
:102E5000724DD8F80000694E012300220F212B602B
:102E600004F0EEFC2B68012B336800F00981002B85
:102E700040F0AC810021D8F80000DFF8C491684D23
:102E800004F030FD33681FFA80FBC9F800B0002B56
:102E900040F081810021D8F80000594DDFF880A171
:102EA00004F0A6FCB4F88A3040F6E44101FB0BF1D3
:102EB000B1FBF0F0C01A00B20AF010F8594983468D
:102EC000D4F88C000AF05EF8014658460AF00EF974
:102ED000D9F800302860632BDFF864B100F34F812C
:102EE00000232B603368002B3FF456AF02214E487D
:102EF00007F00AFED9F80020D8F8000040F6E443B5
:102F0000002103FB02F804F073FCB8FBF0F009F0B9
:102F1000E1FF8046B4F88A0009F0E0FF0146404630
:102F200009F026FF09F084FB4FF0020802460B4629
:102F3000CDF800803D4805F097FA41463A4807F041
:102F4000E3FD286809F074FBCDF8008002460B46CB
:102F5000364805F089FA4146354807F0D5FD414627
:102F6000314807F0D1FD17E7264805F031F809F0A0
:102F70005FFB022602460B4600962C4805F074FAC9
:102F800019E7264B1B68012B00F02C81022B7FF4E4
:102F90002BAF28490AF0B2F930B9274930460AF078
:102FA0008FF9002800F05381DFF864A0DFF8648017
:102FB000DAF8003007930798D8F80030DFF87C90F3
:102FC000C01A09F087FF314609F0DCFF12490AF008
:102FD0008DF811490AF08AF8D9F8001009F0CAFEF4
:102FE000DAF800300693069BC9F80000C8F80030F4
:102FF000FAE600BF3093FF1F7492FF1FDC94FF1F9F
:103000006492FF1F0893FF1F0000FA430000FAC3F9
:1030100038C4FF1FAC94FF1F00007A444C87FF1F89
:10302000B094FF1F17B7D138F4280100C887FF1FDD
:10303000001E010000C82F4800A08CC68092FF1F10
:103040002893FF1F3D689C4928460AF039F930B1A2
:1030500028469A490AF052F900287FF4F7AEDFF8C3
:103060006882974DD8F80000964E022300220E2168
:103070002B6004F0E5FB2B68012B33687FF4F7AE7F
:10308000002B40F006810021D8F80000DFF878928C
:103090008D4D04F027FC33681FFA80FBC9F800B09F
:1030A000002B40F0DB800021D8F80000874D04F0B1
:1030B0009FFBB4F8883040F6E44A0AFB0BFBBBFBED
:1030C000F0F0C01A00B209F009FF81498346D4F834
:1030D000900009F057FF014658460AF007F8D9F862
:1030E000003028600021D8F800000AFB03FA04F041
:1030F0007FFBB4F88830BAFBF0F00FFA80FAC3EB2C
:103100000A03002BB4F8BA20B8BF5B429342BCBF9D
:1031100000232B603368002B3FF43EAE02216D4844
:1031200007F0F2FCD9F80020D8F8000040F6E4439C
:10313000002103FB02F804F05BFBB4F88810B8FB35
:10314000F0F000B2411A644805F086F902216148A6
:1031500007F0DAFC286809F06BFA4FF00208024623
:103160000B46CDF800805C4805F07EF903215B48F2
:1031700007F0CAFC4146574807F0C6FC0CE6DAF8EF
:103180000000002104F034FBDBF800306438984282
:10319000FFF4A6AEA6E60021286804F029FB40F65D
:1031A000E44100230A2201FB0BF1B1FBF0F14A4894
:1031B00005F012F90221474807F0A6FCB4F88A107E
:1031C000454805F049F9D9F800B063E6424805F0F2
:1031D000F3F80C21424807F097FC0C21414807F016
:1031E00093FC47E640490AF089F858B93F49304610
:1031F0000AF066F830B93E4A3E4B12680592059ACD
:103200001A60F1E5DFF8E8A0DFF8E880DAF80030CE
:1032100004930498D8F80030DFF8F090C01A09F051
:1032200059FE314609F0AEFE334909F05FFF3249DD
:1032300009F05CFFD9F8001009F09CFDDAF80030C5
:103240000393039BC9F80000C8F80030CCE5284A76
:10325000284B12680892089A1A60C5E50021286870
:1032600004F0C6FA40F6E44100230A2201FB0BF108
:10327000B1FBF0F1184805F0AFF801211F4807F045
:1032800043FCB4F88810144805F0E6F8D9F800B00B
:1032900009E7114805F090F8D4F88030012B4FF081
:1032A0000B010CBF1648174807F02EFC0C210D48E7
:1032B00007F02AFCE7E600BF00709446007094C651
:1032C0004C87FF1FDC94FF1FB094FF1F6492FF1F09
:1032D00017B7D138F4280100C887FF1FEC1D010083
:1032E000F01D0100DC1D01000000FA430000FAC3DC
:1032F00038C4FF1FAC94FF1F00007A449C1C0100DF
:10330000C41D0100D01D01002893FF1F8092FF1FE4
:103310002DE9F047B64D2B6884B0002B00F081807A
:10332000B44CDFF8D882B44ED4F88030B14D012BC4
:1033300000F09180D4F88430AE4F012B00F0BE80B5
:10334000D6F80090D7F85CA0BD6DAC4F05FB0AF530
:103350004FF47A7000FB05F009F0C0FDA84905465E
:10336000484609F00FFE294609F0C0FEA54909F0BC
:1033700009FE09F0E3FF6328C8F800004CDD284689
:103380009F4909F0B3FE642330603B609E4B1B688D
:10339000002B3ED0D4F88030964D012B00F0BC803D
:1033A000032B00F00C81022B00F0108102219748C2
:1033B00007F0AAFB964B186809F03AF90224024676
:1033C0000B460094934805F04FF82146924807F0C9
:1033D0009BFB21468D4807F097FBD8F800108D48DD
:1033E00005F03AF806218D4807F08EFB30688449D5
:1033F00009F0C8FD09F01CF9009402460B46854807
:1034000005F032F80321864807F07EFB814804F07E
:10341000D3FF04B0BDE8F0870028BCBF00233B60A9
:10342000B4E7804E734C33680293029A42F2283319
:103430009A4200F2BC8033680393039A42F21073FD
:103440009A4276D8D4F88030DFF8B0816A4E694D60
:10345000012B7FF46FAF7448FEF796FA7349D5F8E5
:103460006C902F6F09F08EFD09F08EFF6A6FAB6FC5
:10347000C9EB0202DB1B80B29A42C9EB000040F3A9
:10348000B08003FB0000531C90FBF3F31F44E06D7E
:10349000A36DC8F8007000FB07F003FB00F000EB21
:1034A0008000400009F01AFD5549524F09F01EFEF8
:1034B000D4F884303060012B7FF442AF5A48FEF7D5
:1034C00063FA5A49D7F86C903D6F09F05BFD09F03B
:1034D0005BFF7A6FBB6FD4F85CA0C9EB02025B1B89
:1034E00080B29A42C9EB0000C6BF03FB0000013264
:1034F000584390FBF2F02844A56D00FB0AF005FB51
:1035000000F000EB8000400009F0E8FC3C4909F0C5
:10351000EDFD8146306018E7454B1B68012B4FF0ED
:103520000A010CBF4348444807F0EEFAD5F8803052
:1035300036E73D48FEF728FA3C49E76E266F09F06A
:1035400021FD09F021FF626FA36FD21B9B1B80B28C
:103550009A42A0EB07003EDD03FB0000531C90FBEA
:10356000F3F39819E26DDFF89480A36DC8F80000BA
:1035700002FB00F003FB00F000EB8000400009F0CC
:10358000ADFC1F491C4E09F0B1FD01233060022142
:103590001E482B6007F0B8FA1E4804F00DFF5921B1
:1035A000264807F0B1FA1B4804F006FFBCE61E48A7
:1035B000236CA26C94F84410FEF762F93BE71021EB
:1035C0001F4807F0A1FAD4F88030ECE607211D4827
:1035D00007F09AFAEAE603FB00F393FBF2F398197B
:1035E000C0E703FB00F393FBF2F31F444FE700BF78
:1035F0006092FF1F3093FF1F8092FF1F3087FF1FD5
:10360000E4388E3E0000C8423887FF1FF4280100CE
:103610007492FF1FC887FF1F001E0100941E010047
:103620009C1E010038C4FF1FE494FF1F00007A4471
:103630004C87FF1F601E01006C1E0100041E01006C
:10364000781E01008C1E010030B5112083B005F0FA
:10365000D7FC012818D0122005F0D2FC012813D085
:1036600000210B2005F0C6FC00210C2005F0C2FC57
:103670000021152005F0BEFC2649274B0120002221
:1036800008701A6003B030BD0121152005F0B2FCAE
:10369000224A234C234B1268D4F8941001921B68E1
:1036A000019A1D4D0B4493424FF00201296005D948
:1036B00001210C2005F09EFC03B030BDD4F89C0025
:1036C00009F00CFC184B196809F0FAFD0028EFD13D
:1036D00001210B2005F08EFC94F8C03003242C60EF
:1036E00043B10C4B02221A7000210C2005F082FC21
:1036F00003B030BD122005F083FC012808BF054B44
:103700004FF0110008BF1C7005F07AFC0128EBD1C6
:10371000E7E700BF9C94FF1FD894FF1F38C4FF1F2A
:103720003093FF1FE094FF1F7492FF1FF0B5684EA7
:10373000684D34682B689C4287B039D014F0010181
:1037400055D014F0020149D014F004013DD0E30734
:103750000ED52B68DF070BD45F4F3A68002A00F0C4
:1037600082805E4B1B680193019B93426DD8346845
:10377000A0070DD52B6899070AD4594F3A68002A3B
:103780004CD0564B1B680393039B934238D8346844
:1037900062070DD52B685B070BD4524F3A68002A9D
:1037A0007ED04E4B1B680593059B934268D83468C6
:1037B0000CB107B0F0BD2146162005F09BFA21465A
:1037C000172005F097FA07B0F0BD052005F092FA32
:1037D0002B68346803F0FB032B60B8E7172005F073
:1037E00089FA2B68346803F0FD032B60ACE71620E0
:1037F00005F080FA2B68346803F0FE032B60A0E725
:10380000394B1720D3F8981005F074FA2B683468F8
:1038100043F0020300222B603A60B9E7334804F01A
:10382000CBFD0C21324807F06FF9304804F0C4FD9D
:10383000FF21172005F05EFA284B2E4A19680291E5
:10384000029912680A443A609CE7274B1620D3F885
:10385000981005F04FFA2B68346843F001030022FA
:103860002B603A6084E7FF21162005F043FA1B4BDA
:10387000204A19680091009912680A443A6071E779
:10388000194B0520D3F8981005F034FA2B683468EA
:1038900043F0040300222B603A60002C89D18AE7B0
:1038A000124804F089FD0C21134807F02DF90F4848
:1038B00004F082FDFF21052005F01CFA074B0D4A9C
:1038C00019680491049912680A443A606AE700BFD3
:1038D000D894FF1FF493FF1F7094FF1F38C4FF1F7D
:1038E0007494FF1F7894FF1F3093FF1FC887FF1F3A
:1038F000A01E01006487FF1FB01E01002DE9F047E4
:10390000544EDFF87481DFF874913068524D002214
:103910000F2103F095FF0023012222214F48C8F810
:103920000030C9F8002007F0EFF8D8F80030132B6A
:1039300022DC40F6E44700213068B5F888A003F0A7
:10394000D1FF00210446306803F052FFA4B20121E8
:1039500007FB04F4B4FBF0F441485444A5F8884054
:1039600007F0D2F8642005F081FBD8F8003001336D
:10397000132BC8F80030DEDDB5F88830394A3A48F4
:10398000A2FB03129B1A02EB5303C3F30F13194656
:10399000A5F8883004F060FD1D21344807F0B4F824
:1039A0000221334807F0B0F82F4804F005FD00234A
:1039B0001A460E213068C8F8003003F041FF022398
:1039C00022212648C9F8003007F09EF8D8F80030C8
:1039D000132B22DC40F6E44700213068B5F88A90CA
:1039E00003F080FF00210446306803F001FFA4B219
:1039F000012107FB04F4B4FBF0F419484C44A5F88A
:103A00008A4007F081F8642005F030FBD8F80030D8
:103A10000133132BC8F80030DEDDB5F88A30114AC7
:103A20001148A2FB03129B1A02EB5303C3F30F13BB
:103A30001946A5F88A3004F00FFD1D210D4807F046
:103A400063F802210A4807F05FF80748BDE8F0472D
:103A500004F0B2BCB094FF1F3093FF1FC01E0100E2
:103A6000041F010087611886C887FF1FE41E01003C
:103A7000F4280100081F01009494FF1F4C87FF1FCA
:103A8000F8B5774B774C784D1B68686D40F2513133
:103A900008222160E271002B00F0DD8009F01EFA9F
:103AA000296A064609F06EFA704909F06BFA09F0C6
:103AB0006BFC80B2031263726D4A6E4B12681B6816
:103AC000A96920721512A37230461B12E372227389
:103AD000657309F057FA654909F054FA09F054FC86
:103AE00083B21A125F496448A373E27303F0CAFCFD
:103AF000624B634A1B6812885A49A272DFB207EB15
:103B0000870603EB8305760045F3D71512121B12C7
:103B10002772267365730826002540F255375648EC
:103B2000E27263722760E671A573E57303F0AAFC85
:103B300040F2563353482360E671FDF79DFE52492B
:103B400009F020FA09F020FC20724E48FDF794FE9F
:103B50004D4909F017FA09F017FC4C4A4A49C0F3DD
:103B600007231068637209F0C1FA09F0E7FB40FA15
:103B700006F203464348E272A372FDF7A5FE3B49F5
:103B800009F000FA09F000FC20733E48FDF79CFEA6
:103B9000364909F0F7F909F0F7FB3249A573C0F38C
:103BA000072335486373E57303F06CFC022005F0CE
:103BB0005DFA374B2B49187893F801E09F78DA7853
:103BC000207240F25A332C48E67125736573A57351
:103BD000E57384F809E0A772E272236003F052FCF7
:103BE0002C4B204918785D789A782072187993F8D0
:103BF00003E05F796572A2729D79DA79207340F2F1
:103C00005E331D4884F80BE0E2732360E67167734E
:103C1000A57303F037FC022005F028FA1E4BE6716D
:103C20001D785A7893F802E0D8781F795E7925726A
:103C300062729D79DA79E0724FF45C7384F80AE07D
:103C400027736673A573E273236006490A48BDE8CB
:103C5000F84003F017BC09F041F96969064621E70D
:103C60006892FF1FC894FF1F3093FF1F0000204180
:103C7000A894FF1F4C92FF1F74C2FF1F3087FF1FC5
:103C80003487FF1FE494FF1F0000C8427492FF1F97
:103C90002C93FF1F2887FF1F5087FF1FF0B58D4C07
:103CA0008D4D83B006F0CAFE23682860042B00F017
:103CB0008C82022B4BD0082B00F09280072B40F017
:103CC0003181332801F0518400F30A83312801F057
:103CD0003684322840F0928006F0ECFE002840F353
:103CE0001F817E487E4E04F0F9FC09F0F7F87D490B
:103CF00009F048F961230122F06322602B60184625
:103D0000A0F152031F2B01F20A84DFE813F0960B97
:103D1000080C080C080C080C080C080C080C080C03
:103D2000080C080C080C080C080C080CBC03190D36
:103D30005E05F705C904080C080C080C3004080CD3
:103D4000160D080C080C080C080C080C840BA0F1CC
:103D50003102422A52D8DFE812F00F072A0738074B
:103D600077078607F80651005100510051005100B5
:103D700051005100510051005100510051005100BB
:103D800051005100510051005100510051005100AB
:103D9000510051005100510051005100510051009B
:103DA000510051005100510051005100510051008B
:103DB00051005100510051005100510051000907BC
:103DC000510051005100510051005100510051006B
:103DD000510051005100510051004D0051001B078E
:103DE000322800F0128340F33383332800F0288315
:103DF000712803D10023732023602860002B08BFA3
:103E000073280CBF01200020002860D0334804F044
:103E1000D3FA0421344806F077FE304804F0CCFA97
:103E20001021324806F070FE2C4804F0C5FA132128
:103E30002F4806F069FE2F4B2848196804F00CFB48
:103E4000264804F0B9FA14212B4806F05DFE2348F9
:103E500004F0B2FA1E21294806F056FE1F4804F06D
:103E6000ABFA1521264806F04FFE1C4804F0A4FAD0
:103E70001E21244806F048FE184804F09DFA20212F
:103E8000214806F041FE154804F096FA19211F4812
:103E900006F03AFE114804F08FFA12211C4806F091
:103EA00033FE0E4804F088FA0F211A4806F02CFE63
:103EB0000A4804F081FA0D21174806F025FE07484C
:103EC00004F07AFA154A002101231160236003B03F
:103ED000F0BD00BF8492FF1F7092FF1FC887FF1FB5
:103EE0003093FF1F6F12833A70270100782701007B
:103EF0008C2701002087FF1FA0270100B8270100A1
:103F0000D8270100F0270100102801003428010003
:103F10005028010064280100742801003887FF1F21
:103F200023682868062B40F08D80A0F13102402ADA
:103F30003FF664AF01A151F822F000BF854A0000AE
:103F4000FD4A0000B14A0000D74A00002F4A000095
:103F50004D4A0000714A0000FD3D0000FD3D00009B
:103F6000FD3D0000FD3D0000FD3D0000FD3D000069
:103F7000FD3D0000FD3D0000FD3D0000FD3D000059
:103F8000FD3D0000FD3D0000FD3D0000FD3D000049
:103F9000FD3D0000FD3D0000FD3D0000FD3D000039
:103FA000FD3D0000FD3D0000FD3D0000FD3D000029
:103FB000FD3D0000FD3D0000FD3D0000FD3D000019
:103FC000FD3D0000FD3D0000FD3D0000FD3D000009
:103FD000FD3D0000FD3D0000FD3D0000FD3D0000F9
:103FE000FD3D0000FD3D0000FD3D0000FD3D0000E9
:103FF000FD3D0000FD3D0000FD3D0000FD3D0000D9
:10400000FD3D0000FD3D0000FD3D0000FD3D0000C8
:10401000FD3D0000FD3D0000FD3D0000FD3D0000B8
:10402000FD3D0000FD3D0000FD3D0000FD3D0000A8
:10403000FD3D0000FD3D0000FD3D0000F53D0000A0
:1040400023682868052B15D1332801F0A18240F39D
:104050005B81352801F0C382C1F2AB8271287FF405
:10406000CDAEB44A00237320136023602860C5E6F8
:1040700023682868032B40F0A480A0F13002422A74
:104080003FF6BCAE01A151F822F000BF99410000FB
:1040900081520000CF51000015520000375200003D
:1040A00059520000675300008F530000AD530000C9
:1040B000D1530000FD3D0000FD3D0000FD3D00002E
:1040C000FD3D0000FD3D0000FD3D0000FD3D000008
:1040D000FD3D0000FD3D0000FD3D0000FD3D0000F8
:1040E000FD3D0000FD3D0000FD3D0000FD3D0000E8
:1040F000FD3D0000FD3D0000FD3D0000FD3D0000D8
:10410000FD3D0000FD3D0000FD3D0000FD3D0000C7
:10411000FD3D0000FD3D0000FD3D0000FD3D0000B7
:10412000FD3D0000FD3D0000FD3D0000FD3D0000A7
:10413000FD3D0000FD3D0000FD3D0000FD3D000097
:10414000FD3D0000FD3D0000FD3D0000FD3D000087
:1041500049530000794D0000F9530000F751000069
:10416000EB520000095300002F4D0000534D00009A
:10417000FD3D0000FD3D0000FD3D0000FD3D000057
:10418000FD3D0000FD3D0000FD3D0000FD3D000047
:10419000A9520000B552000006F08CFC002841F343
:1041A000C7816548654E04F099FA01270346014628
:1041B00062226348B36527602A60FDF75FFB2368CE
:1041C0002868012B7FF41AAE9AE5A0F13102402A4B
:1041D0003FF614AE01A151F822F000BFC94C000017
:1041E000CD4C0000D14C0000F34C0000F74C000017
:1041F000134D0000874C00009F4C0000A34C0000B2
:10420000FD3D0000FD3D0000FD3D0000FD3D0000C6
:10421000FD3D0000FD3D0000FD3D0000FD3D0000B6
:10422000FD3D0000FD3D0000FD3D0000FD3D0000A6
:10423000FD3D0000FD3D0000FD3D0000FD3D000096
:10424000FD3D0000FD3D0000FD3D0000FD3D000086
:10425000FD3D0000FD3D0000FD3D0000FD3D000076
:10426000FD3D0000FD3D0000FD3D0000FD3D000066
:10427000FD3D0000FD3D0000FD3D0000FD3D000056
:10428000FD3D0000FD3D0000FD3D0000FD3D000046
:10429000FD3D0000FD3D0000FD3D0000FD3D000036
:1042A000FD3D0000FD3D0000FD3D0000FD3D000026
:1042B000FD3D0000FD3D0000FD3D0000FD3D000016
:1042C000FD3D0000FD3D0000FD3D0000FD3D000006
:1042D000FD3D0000FD3D0000FD3D0000F53D0000FE
:1042E00034287FF485AD06F0E5FB00287FF718AE93
:1042F0001148124E04F0F2F961230122A6F8B80029
:1043000022602B601846FBE4312801F076813228C8
:104310007FF474AD06F0CEFB00287FF7A9AE064807
:10432000064E04F0DBF901226B23C6F89C002260E4
:104330002B6009E08C94FF1FC887FF1F3093FF1F7D
:10434000E494FF1F06F07AFB06F0B4FB0028F9D1D5
:10435000B84804F031F8B74804F02EF8B54804F036
:104360002BF8B44804F028F8B24804F025F82121CD
:10437000B14806F0C9FBAF4804F01EF81521AF485C
:1043800006F0C2FBD6F89410AA4804F065F80221A2
:10439000AB4806F0B9FBA74804F00EF81E21A94867
:1043A00006F0B2FBD6F89C10A24804F055F80321A1
:1043B000A54806F0A9FB9F4803F0FEFF1E21A34875
:1043C00006F0A2FBD6F898109A4804F045F89948F0
:1043D00003F0F2FF1D219E4806F096FBD6F8A410CC
:1043E000944804F039F8934803F0E6FF1E219948F9
:1043F00006F08AFBD6F8A8108E4804F02DF88D48F8
:1044000003F0DAFF0523236061E506F053FB002883
:104410001BDD8848904E04F061F908F05FFD8F497C
:1044200008F0B0FD336C96F84410074602468C48FD
:10443000B764FDF725FA01236920236028605FE453
:1044400006F038FB002800F36F832368286835E402
:1044500031287FF4D3AC06F02DFB002840F36284B2
:1044600074487D4E04F03AF9C0B286F84400022840
:104470008ABF0021014686F84410336CB26C78483C
:10448000D7E706F0DBFA06F015FB05460028F8D161
:104490006848714E03F090FF664803F08DFF654851
:1044A00003F08AFF634803F087FF624803F084FF4C
:1044B0001F216C4806F028FB5E4803F07DFF1C219D
:1044C000694806F021FB706A684908F05BFD08F056
:1044D000AFF8009502460B46564803F0C5FF02218F
:1044E000634806F011FB534803F066FF232161483F
:1044F00006F00AFBF06B5D4908F044FD08F098F8FF
:10450000009502460B464B4803F0AEFF0221584887
:1045100006F0FAFA474803F04FFF1921564806F013
:10452000F3FAB06B08F084F802250B4602460095BA
:10453000404803F099FF2946504806F0E5FA3D4807
:1045400003F03AFF19214E4806F0DEFAB6F8B8102B
:10455000384803F081FF03214A4806F0D5FA354870
:1045600003F02AFF07232360B1E406F067FA06F0A0
:10457000A1FA05460028F8D12E48374E03F01CFF5B
:104580002C4803F019FF2B4803F016FF294803F0CD
:1045900013FF284803F010FF15213B4806F0B4FA3A
:1045A000244803F009FF1821384806F0ADFA2B46DD
:1045B0000A2296F844101F4803F00EFF1D4803F02E
:1045C000FBFE2821324806F09FFAB06C274908F01C
:1045D000D9FC08F02DF8009502460B46154803F06B
:1045E00043FF0221224806F08FFA124803F0E4FE4E
:1045F0002421284806F088FA306C1C4908F0C2FCD7
:1046000008F016F800950B4602460A4803F02CFF06
:104610000221174806F078FA064803F0CDFE132170
:104620001D4806F071FA034803F0C6FE0823236014
:104630004DE400BFC887FF1FE82101000C220100E4
:10464000F820010024220100EC1D01004422010099
:1046500064220100842201003093FF1F6F12833A0D
:10466000E494FF1F442101006421010000007A440A
:10467000A01F010084210100A8210100C421010024
:10468000C8210100E421010038280100581F010061
:10469000741F0100A41F0100CC1F010006F0CEF919
:1046A00006F008FA05460028F8D17F487F4E03F04F
:1046B00083FE7D4803F080FE7B4803F07DFE7A4850
:1046C00003F07AFE784803F077FE1121784806F06F
:1046D0001BFA754803F070FE2821764806F014FA9C
:1046E0007069754908F04EFC07F0A2FF009502467C
:1046F0000B466D4803F0B8FE0221704806F004FA3C
:10470000694803F059FE16216D4806F0FDF9F0697D
:10471000694908F037FC07F08BFF00950B4602460D
:10472000614803F0A1FE0221644806F0EDF95E48FD
:1047300003F042FED6F8B030002B32DD1D21614877
:1047400006F0E2F9306E08F0C9FB5F4908F01AFC88
:1047500007F06EFF022502460B460095524803F013
:1047600083FE0121594806F0CFF94F4803F024FE9B
:104770001F21574806F0C8F9706E08F0AFFB524988
:1047800008F000FC07F054FF009502460B4646482F
:1047900003F06AFE01214D4806F0B6F9424803F0E5
:1047A0000BFE11214B4806F0AFF9D6F8B030062BBE
:1047B00000F26086DFE813F0A906AE06A4069F06A5
:1047C0009A0695065A0606F039F906F073F900289C
:1047D000F9D13548354E03F0EFFD334803F0ECFDD9
:1047E000314803F0E9FD304803F0E6FD2E4803F0C0
:1047F000E3FD1F21384806F087F92B4803F0DCFD64
:104800001E21364806F080F9274803F0D5FD1A210D
:10481000334806F079F9D6F88030022B00F064872F
:10482000032B00F05887012B00F04C8709212D48FD
:1048300006F06AF91C4803F0BFFD14212A481B4FFB
:1048400006F062F9F16F184803F006FE164803F00F
:10485000B3FD1C21254806F057F9D6F884101248FC
:1048600003F0FAFD104803F0A7FD1C21204806F0D4
:104870004BF9D6F8AC100C4803F0EEFD0A4803F0F3
:104880009BFDD6F8805025F00205012D00F0D3865F
:104890001321184806F038F9034803F08DFD022370
:1048A0002360FFF714BB00BFC887FF1F3093FF1FB3
:1048B000DC270100E01F010000007A44A01F010076
:1048C0000C20010024200100CDCCCC3DC8240100E7
:1048D000442001006420010088230100A823010076
:1048E000C8230100402401004C240100642401007D
:1048F00084240100CC1F010006F0A0F806F0DAF8CD
:104900000028F9D1B74803F057FDB64803F054FD2D
:10491000B44803F051FDB34803F04EFDB14803F035
:104920004BFD1321B04806F0EFF8AE4803F044FD0C
:104930000D21AE4806F0E8F8AA4803F03DFD0F212E
:10494000AB4806F0E1F8AB4BA648196803F084FDCC
:10495000A44803F031FD1321A74806F0D5F8A74B72
:10496000A048196803F078FD9E4803F025FD122148
:10497000A34806F0C9F8A34B9A48196803F06CFDE8
:10498000984803F019FD11219F4806F0BDF89F4B90
:104990009448196803F060FD924803F00DFD0E2164
:1049A0009B4806F0B1F89B4B8E48D3F8A01003F05B
:1049B00053FD8C4803F000FD1921974806F0A4F838
:1049C000964B8848196803F047FD864803F0F4FCCD
:1049D0001121934806F098F8924B8248196803F029
:1049E0003BFD804803F0E8FC10218F4806F08CF86E
:1049F0008E4B7C48196803F02FFD7A4803F0DCFCED
:104A00001C218B4806F080F88A4B7648196803F021
:104A100023FD744803F0D0FC1321874806F074F896
:104A2000704803F0C9FC04232360FFF750BA794AA9
:104A3000D2F8B0300133062BC8BF0023C2F8B03023
:104A40000123652023602860FFF75AB906F032F889
:104A500000287FF7F5AA63486E4E03F03FFE6523FA
:104A60000122C6F8B40022602B601846FFF748B94F
:104A7000684B93F8C020002A00F0D085002283F80C
:104A8000C020DDE706F016F800287FF7D9AA5548C0
:104A9000604E03F023FE08F021FA684908F026FB77
:104AA00065230122706122602B601846FFF728B948
:104AB00006F000F800287FF7C3AA4A48554E03F0D5
:104AC0000DFE00EB8000430001226520336622606A
:104AD0002860FFF715B905F0EDFF00287FF7B0AAB1
:104AE00040484C4E03F0FAFD00EB800043000122E9
:104AF0006520736622602860FFF702B905F0DAFFCF
:104B000000287FF79DAA3748424E03F0E7FD08F0E2
:104B1000E5F94A4908F0EAFA65230122F0612260CA
:104B20002B601846FFF7ECB82E483A4E03F0D6FD3E
:104B300008F0D4F9424908F025FA07460346B26C5A
:104B400096F844103F48376473E40123236005F06E
:104B5000B1FF002805DD23482E4E03F0BFFDA6F867
:104B6000BA00632028602368FFF7A8B8FEF7C6FEE6
:104B700023682868FFF79FB8264EF36FB3FA83F3D4
:104B80005B0901226320F36722602860FFF7B8B851
:104B9000204AD2F880300133032BC8BF0023C2F86B
:104BA00080300123632023602860FFF7A9B8194EE5
:104BB000D6F88430B3FA83F35B0901226320C6F888
:104BC000843022602860FFF79BB80123236005F042
:104BD00071FF0028E5DD03480E4E03F07FFDC6F8A7
:104BE000AC00DEE7C887FF1FA4220100B822010045
:104BF000C82201006C94FF1FD8220100DC94FF1F23
:104C0000EC220100C094FF1F00230100C494FF1F89
:104C1000142301003093FF1F242301009094FF1FF1
:104C2000402301008C94FF1F542301006C92FF1F4E
:104C3000682301005887FF1FCC1F010000007A4441
:104C40006F12833AE494FF1F0123236005F032FFC3
:104C5000002886DD5048514E03F040FD08F03EF933
:104C6000C6F890007DE70123236005F023FF0028AC
:104C70007FF777AF4848494E03F030FD08F02EF932
:104C8000C6F88C006DE7464A1368B3FA83F35B09F4
:104C900001216420136021602860FFF731B8414A88
:104CA000F2E70123236005F005FF002800F3BB8431
:104CB0003D4B1A68042AC4BF02221A6064232B6089
:104CC00023686420FEF7F7BF384ADDE7384ADBE7A0
:104CD000384A394F1368002B0CBF012300234FF0D3
:104CE00001001360206040F0D784034664222A60EC
:104CF000E7E7324AC8E7294ED6F8A030B3FA83F383
:104D00005B0901226420C6F8A03022602860FEF70B
:104D1000F7BF01232A482360FCF740FC294A236897
:104D20001060E3E71D4E96F84400FFF7A0BB05F0C6
:104D3000C1FE00280DDD1848184E03F0CFFC08F026
:104D4000CDF8214908F0D2F90122622330622260B5
:104D50002B6005F0AFFE00280EDD0F480F4E03F06C
:104D6000BDFC08F0BBF8184908F0C0F90122622325
:104D7000C6F8BC0022602B6005F09CFE002840F3C2
:104D8000D7830548054E03F0A9FC01226223F06693
:104D900022602B601CE000BFC887FF1F3093FF1FFD
:104DA0008C94FF1F6C92FF1F5887FF1F6C94FF1F8E
:104DB000DC94FF1FC094FF1F8492FF1FC494FF1F49
:104DC000E494FF1F9094FF1F00007A4405F036FE24
:104DD00005F070FE05460028F8D1C24803F0ECFA51
:104DE000C04803F0E9FABF4803F0E6FABD4803F013
:104DF000E3FABC4803F0E0FA1521BB4805F084FE55
:104E0000B84803F0D9FA1421B84805F07DFEB5483A
:104E100003F0D2FA1B21B64805F076FEB14803F044
:104E2000CBFA1321B34805F06FFEAE4803F0C4FA85
:104E3000AC4803F0C1FAAB4803F0BEFA2021AE48FB
:104E400005F062FEF068AD4908F09CF807F0F0FB51
:104E5000009502460B46A34803F006FB0221A84832
:104E600005F052FE0221A74805F04EFE9D4803F0D2
:104E7000A3FA2121A44805F047FE30699F4908F0B4
:104E800081F807F0D5FB009502460B46954803F0E4
:104E9000EBFA02219A4805F037FE0221994805F005
:104EA00033FE904803F088FA1F21984805F02CFE45
:104EB000B06A07F0BDFB022702460B4600978948FF
:104EC00003F0D2FA0121924805F01EFE39468D48C2
:104ED00005F01AFE834803F06FFA20218D4805F093
:104EE00013FEF06A07F0A4FB009702460B467D48CC
:104EF00003F0BAFA0121864805F006FE39468148DA
:104F000005F002FE774803F057FA2321824805F0A6
:104F1000FBFDF06C794908F035F807F089FB009546
:104F200002460B466F4803F09FFA3946744805F075
:104F3000EBFD3946734805F0E7FD6A4803F03CFA9B
:104F40001F21764805F0E0FD306D6C4908F01AF835
:104F500007F06EFB009502460B46624803F084FAA8
:104F60003946674805F0D0FD3946664805F0CCFD66
:104F70005C4803F021FA1921694805F0C5FDF16D7F
:104F8000584803F069FA3946664805F0BDFD3946D0
:104F90005C4805F0B9FD534803F00EFA1821624849
:104FA00005F0B2FDB06E07F099FF604907F0EAFF27
:104FB00007F03EFB009702460B464A4803F054FABE
:104FC00001215B4805F0A0FD39464E4805F09CFDE7
:104FD000444803F0F1F92B21564805F095FDB069DE
:104FE000464907F0CFFF07F023FB009502460B462A
:104FF0003C4803F039FA3946414805F085FD394609
:10500000404805F081FD374803F0D6F91F214A4892
:1050100005F07AFDB16D334803F01EFA3946394880
:1050200005F072FD2F4803F0C7F92021434805F031
:105030006BFD716D2B4803F00FFA3946314805F0CE
:1050400063FD284803F0B8F910213D4805F05CFDE8
:10505000F16E244803F000FA3946294805F054FD62
:105060003946284805F050FD1E4803F0A5F91321E4
:10507000344805F049FD316F1A4803F0EDF901217C
:10508000314805F041FD39461E4805F03DFD154803
:1050900003F092F910212D4805F036FD716F11488B
:1050A00003F0DAF93946164805F02EFD3946154861
:1050B00005F02AFD0B4803F07FF91421244805F080
:1050C00023FDB16F074803F0C7F901211E4805F021
:1050D0001BFD39460B4805F017FD024803F06CF93B
:1050E000162137E0C887FF1F102501002825010081
:1050F00040250100CC1F01005C25010000007A441E
:10510000A01F0100F428010080250100A425010052
:10511000101B0100C4250100E82501000C26010038
:105120002C260100482601004C260100CDCCCC3DA8
:10513000C82401006826010094260100B42601005D
:10514000D8260100EC2601000027010004270100F9
:1051500018270100BA4805F0D7FC306AB94907F0B2
:1051600011FF07F065FA009502460B46B64803F0BA
:105170007BF93946B54805F0C7FC3946B44805F017
:10518000C3FCB14803F018F92421B24805F0BCFC77
:10519000D6F8BC00AB4907F0F5FE07F049FA0095D8
:1051A0000B460246A84803F05FF93946A74805F0C8
:1051B000ABFC3946A64805F0A7FCA34803F0FCF871
:1051C000A14803F0F9F803232360FEF780BE05F041
:1051D00071FC002840F3AC819B489F4E03F07EFA9F
:1051E00007F07CFE974907F081FF012262233061BE
:1051F00022602B60ECE505F05DFC002840F398810F
:105200009148954E03F06AFA01226223706722608A
:105210002B60DDE505F04EFC002840F389818A48CB
:105220008D4E03F05BFA07F059FE01226223B06253
:1052300022602B60CCE505F03DFC002840F378812E
:105240008148854E03F04AFA07F048FE01226223A6
:10525000F06222602B60BBE505F02CFC002840F3D7
:10526000678179487C4E03F039FA07F037FE7549BB
:1052700007F03CFF01226223F06422602B60A7E567
:1052800005F018FC002840F353816F48724E03F07C
:1052900025FA07F023FE6B4907F028FF012262235D
:1052A000F06022602B6093E50022732322602B6064
:1052B000FEF7ACBD694B6648674E002202211A60BA
:1052C00005F022FC604803F077F80B21644805F0F4
:1052D0001BFC02215E4805F017FC5B4803F06CF8EC
:1052E0000122622322602B6072E505F0E3FB0028B7
:1052F00040F31E815448584E03F0F0F90122622316
:10530000B06722602B6063E5FCF71EFF0221504866
:10531000514E05F0F9FB4C4803F04EF802214C4881
:1053200005F0F2FB484803F047F80221484805F031
:10533000EBFB454803F040F817214A4805F0E4FB31
:10534000414803F039F8C4E705F0B4FB002840F306
:10535000EF803D48404E03F0C1F9012262237065A1
:1053600022602B6034E505F0A5FB002840F3E080C7
:105370003548394E03F0B2F907F0B0FD314907F076
:10538000B5FE01226223306522602B6020E505F026
:1053900091FB002840F3CC802B482F4E03F09EF960
:1053A00001226223F06522602B6011E505F082FB8B
:1053B000002840F3BD802448274E03F08FF900EB0E
:1053C0008000430001216222B36621602A60FFE46D
:1053D00005F070FB002840F3AB801B481E4E03F025
:1053E0007DF907F07BFD174907F080FE012262235B
:1053F000B06122602B60EBE405F05CFB002840F319
:1054000097801148144E03F069F901226223306736
:1054100022602B60DCE4C42200210F4803F052FA22
:105420002868114AA0F1730001210023B0FA80F02E
:10543000400911602360FEF7E7BC04F0CDFC00BF1B
:105440003027010000007A44C887FF1FA01F010019
:10545000F4280100482701003093FF1F6092FF1FCE
:105460004C1F0100341F01003887FF1F0421B6487C
:1054700005F04AFBB548B64D02F09EFFD6F8B030B5
:10548000002B12DD1821B34805F03EFBD5F8B4100F
:10549000AE4802F0E1FF0221AF4805F035FBAB4812
:1054A00002F08AFFA94802F087FF1B21AB4805F0F4
:1054B0002BFB96F8C030012B15BF12211421A848F0
:1054C000A84805F021FBA14802F076FF1321A64869
:1054D00005F01AFB9D4802F06FFF06232360FEF7DC
:1054E000F6BC0B21A14805F00FFBC3E70D21A04836
:1054F00005F00AFBBEE70D219E4805F005FBB9E764
:105500000C219D4805F000FBB4E70D219B4805F0F8
:10551000FBFAAFE70C219A4805F0F6FAAAE72368F0
:10552000002B08BF73280CBF01200020FEF76CBCC5
:1055300023682868012B7EF461ACFEF7E1BB05F01F
:10554000B9FA00287EF7ECAC8048814E03F0C6F82B
:1055500007F0C4FC8B4907F015FD6123012270623E
:1055600022602B601846FEF7CBBB05F0A3FA00289B
:105570007EF7D6AC7548764E03F0B0F807F0AEFC77
:1055800061230122B06322602B601846FEF7B8BB8E
:1055900005F090FA00287EF76BAD6C486C4E03F076
:1055A0009DF801226B23C6F8980022602B60FEF75D
:1055B000CBBE05F07FFA00287EF75AAD6348644EF3
:1055C00003F08CF8704BC6F8A40002221A60FDF7B5
:1055D00013F901226B2322602B60FEF7B5BE05F0A4
:1055E00069FA00287EF744AD5848594E03F076F822
:1055F000654BC6F8A8000322E8E705F05BFA00282F
:105600007EF736AD5148524E03F068F801226B2305
:10561000C6F8940022602B60FEF796BE012283F844
:10562000C020FFF70DBA494803F058F8574B02461F
:105630001860FFF73FBB1C21554805F065FAD7F805
:105640009000544907F09EFC06F0F2FF00950246D8
:105650000B463E4802F008FF05214F4805F054FA7A
:105660003A4802F0A9FED7F88050012D45D0032D0D
:105670007FF40EA91C21494805F046FAB6F8BA1085
:10568000324802F0E9FE0321454805F03DFA2F4873
:1056900002F092FEFFF7FCB8424B002631460B2089
:1056A0001E6003F0A7FC31460C2003F0A3FC31463A
:1056B000142003F09FFC3146152003F09BFC3B684F
:1056C000FFF714BB1E21384805F01EFA1F4802F0F0
:1056D00073FEFFF7B2B82021344805F015FA1B48D5
:1056E00002F06AFEFFF7A9B81721314805F00CFA5D
:1056F000164802F061FEFFF7A0B81D212D4805F005
:1057000003FAD7F88C00234907F03CFC06F090FF21
:1057100000950B4602460D4802F0A6FE05211E48E4
:1057200005F0F2F9094802F047FED7F8803023F07F
:105730000203012B9ED0FFF7ABB8054EFEF704BE67
:10574000034EFFF745BB00BFD4200100C887FF1FF1
:105750003093FF1FDC200100F8200100FC20010035
:10576000182101002C210100CC1F0100C8200100DC
:10577000B8200100A8200100982001007820010035
:10578000882001006F12833A8C94FF1F5887FF1FF7
:10579000A4240100CDCCCC3DC4240100EC240100A4
:1057A0000C250100D894FF1FE4230100042401000C
:1057B00028240100CC24010038B5174C174A23686F
:1057C000101D12F8011F904241EA0323F9D1236012
:1057D000134C03F100432360124BD3F88030022BAB
:1057E00011D0114B1B68012B00D038BD0F4802F0BF
:1057F000E3FD21680D4802F02FFE03210C48BDE8AF
:10580000384005F081B920680A4D07F067FB286031
:10581000FDF7B4FAE5E700BF4492FF1F8394FF1F32
:10582000A494FF1F3093FF1F6C94FF1FC887FF1FB6
:10583000842801006492FF1F30B53F4C3F4883B07D
:10584000214601F017FD236840F2C232934258D03E
:105850006FF4C0615A18B2F5FF7F4CD903F10043D1
:105860006FF4C0621344B3F5FF7F3FD9344B1B681C
:10587000012B01D003B030BD324B1B68012BF9D195
:10588000314B32481B6801930A220023019902F030
:10589000A3FD2268284B002ADB7945DB2C492D48E3
:1058A00008F04EFB2B4808F08BFB0146294805F019
:1058B0002BF92568204B15F0804526D1DB798BB17B
:1058C000631925491A7A234808F03AFB214808F061
:1058D00077FB01461F4805F017F90135E379EDB272
:1058E000AB42EDD8194802F067FDC3E712491B48E7
:1058F000FBF77AFEBAE710491848FBF775FE2368F4
:10590000ACE7FFF759FF2368A2E7154D114C0FCD07
:105910000FC495E8030044F8040B204620F814193E
:10592000152105F0F1F8DDE70E490A4822F0604242
:1059300008F006FBB6E700BF7C94FF1F74C2FF1F90
:105940003887FF1F6C94FF1F38C4FF1FC887FF1FD5
:10595000B02801008892FF1FDC280100E494FF1F9B
:10596000C42801008828010008B5274802F024FD5A
:105970000721264805F0C8F8112003F041FB062155
:10598000F8B1234805F0C0F8122003F039FB0621D6
:1059900000B3204805F0B8F8122003F031FB0621CF
:1059A00008B31D4805F0B0F8132003F029FB0621C9
:1059B00010BB1A4805F0A8F81348BDE8084002F0EB
:1059C000FBBC174805F0A0F8122003F019FB0621D4
:1059D0000028DED1134805F097F8122003F010FBE1
:1059E00006210028DDD1104805F08EF8132003F0C1
:1059F00007FB06210028DCD00C4805F085F802489A
:105A0000BDE8084002F0D8BCC887FF1FE8280100A5
:105A1000F0280100002901001029010028290100B7
:105A2000F828010008290100182901002029010097
:105A300010B5254C2368042B27DC01210B2003F033
:105A4000D9FA01210C2003F0D5FA0121142003F02A
:105A5000D1FA0121152003F0CDFAFF21162003F021
:105A600049F9FF21172003F045F9FF21052003F034
:105A700041F9FF21062003F03DF9236801330A2B89
:105A80002360C4BF0023236010BD00210B2003F05E
:105A9000B1FA00210C2003F0ADFA0021142003F02C
:105AA000A9FA0021152003F0A5FA0021162003F021
:105AB00021F90021172003F01DF90021052003F032
:105AC00019F90021D6E700BFBC94FF1F10B50921CA
:105AD00082B0974803F0AAFD222003F04FFD954BBA
