:1000000000800020BD010000C18A0000798A000044
:10001000798A0000798A0000798A0000798A0000D4
:10002000798A0000798A0000798A0000C18A00007C
:10003000C18A0000798A0000D5800000D9810000C3
:10004000C18A0000C18A0000C18A0000C18A000084
:10005000C18A0000C18A0000C18A0000C18A000074
:10006000C18A0000C18A0000C18A0000C18A000064
:10007000C18A0000C18A0000C18A0000C18A000054
:10008000C18A0000C18A0000C18A0000C18A000044
:10009000C18A0000C18A0000C18A0000C18A000034
:1000A000C18A0000C18A0000C18A0000C18A000024
:1000B000C18A0000C1760000CD760000D176000034
:1000C000DD760000E1760000E5760000C18A0000E0
:1000D000C18A0000C18A0000C18A0000C18A0000F4
:1000E000C18A0000C18A0000C18A0000C18A0000E4
:1000F000C18A000055AD0000C18A0000B59700001C
:10010000C18A0000CD9A0000C18A0000C18A0000A7
:10011000C18A0000C18A0000C18A0000C18A0000B3
:10012000C18A0000C18A0000C18A0000C18A0000A3
:10013000C18A0000C18A0000C18A0000C18A000093
:10014000C18A0000C18A0000C18A0000C18A000083
:10015000C18A0000C18A0000C18A0000C18A000073
:10016000C18A00005D9D0000C18A0000C18A0000B4
:10017000C18A0000C18A0000C18A0000C18A000053
:10018000C18A0000C18A0000C18A0000C18A000043
:10019000C18A0000C18A0000C18A0000C18A000033
:1001A000C18A0000C18A0000C18A0000C18A000023
:1001B000C18A0000C18A0000C18A0000564B4CF27F
:1001C000205210B51A804DF628121A8000BF00BFC9
:1001D00008F07AFC514B4FF010621A60504A9A6056
:1001E000504ADA60504A136813F4807304D14F49BF
:1001F0000B604FF4A85313604D4B1A78110703D5C9
:100200001A7842F008021A704A4B4B492A221A7097
:100210004A4A4B4B8B4204D252F8040F43F8040B6A
:10022000F8E7484B484900228B4202D243F8042B9E
:10023000FAE74649464A002352F8230041F82300D2
:1002400001336F2BF8D1434B434A802103F8011B44
:100250009342FBD1414B3D4A1A60414B8A221A70AE
:10026000A3F5805324225A70A0221A709A7992071B
:10027000FCD59A79D406FCD43A4A937903F00C035E
:10028000082B384BF9D103221A7140225A719A79FE
:100290009006FCD5334A9179324B4906FBD5324A58
:1002A000324911600221516020221A709A7902F0BD
:1002B0000C020C2AFAD12E4B2E4A1A602E4B2F4AD2
:1002C0001A6000225A60072243F8042C2C4AC3F813
:1002D0000C2D62B608F0D8FE144B1B68DA0705D562
:1002E000284808F0B5FC284B284A1A60284B1B7890
:1002F0005B0609D5244C254B22689A4204D121483B
:1003000008F0A6FC002323600DF024F808F0E2FBBF
:1003100008F010FBFEE700BF0E20054030800440CF
:10032000823F04000100002B10D0034014D0034092
:1003300002D0074000E007402892FF1F1C30010058
:100340002087FF1F2892FF1F10C7FF1F0082FF1F7B
:100350000000000000E400E05FE400E008ED00E0E1
:100360000050064000400640448004400000030165
:1003700004800440C010050014E000E0FF76010096
:1003800000002020B20EF85C1CE00340A5C3945A84
:1003900000F00740FFFFFFFFFFFFFFFFFFFFFFFF32
:1003A000FFFFFFFFFFFFFFFFFFFFFFFFFFFFFFFF5D
:1003B000FFFFFFFFFFFFFFFFFFFFFFFFFFFFFFFF4D
:1003C000FFFFFFFFFFFFFFFFFFFFFFFFFFFFFFFF3D
:1003D000FFFFFFFFFFFFFFFFFFFFFFFFFFFFFFFF2D
:1003E000FFFFFFFFFFFFFFFFFFFFFFFFFFFFFFFF1D
:1003F000FFFFFFFFFFFFFFFFFFFFFFFFFFFFFFFF0D
:10040000FFFFFFFFFFFFFFFFFFFFFFFFDEF9FFFF23
:1004100010B5054C237833B9044B13B10448AFF33E
:1004200000800123237010BD2892FF1F00000000F0
:1004300018300100084B10B51BB108490848AFF34C
:1004400000800848036803B910BD074B002BFBD0A0
:10045000BDE81040184700BF000000002C92FF1FAD
:10046000183001002892FF1F00000000F0B400F1D6
:100470001C06144F00243146031F00F13C0243F8D0
:10048000044FB34241F8047F4FF0000542F8044F97
:10049000F5D100230C4A0D49056645668566C5669B
:1004A000056745678567C0F88850C267C0F8842033
:1004B000C0F8801080F8943080F8953080F8AC3027
:1004C000F0BC70470000A040000048430000C8C2D4
:1004D0002DE9F04190F8AC4084B0202364008DF801
:1004E0000530E4B2042380468DF804408DF80630D0
:1004F0000327204609F086FA02210DF1050009F0D4
:100500008BFA8DF8044006F055FA30B309214048C3
:100510000AF0BAFA0023102221463E4807F01AFFDB
:1005200001213D480AF0B0FA002310229DF8051081
:10053000384807F00FFF012137480AF0A5FA0023D9
:1005400010229DF80610334807F004FF01213248BD
:100550000AF09AFA2F4807F0EDFE02208DF80440C9
:1005600008F044FD06F026FA00284CD102AE002423
:1005700009F068FA70B3072C1FD101E009F072FA94
:1005800009F060FA0028F9D106F014FA10B12148F8
:1005900007F0D0FE9DF80B009DF80C109DF80D2083
:1005A0009DF80E30C8F89800C8F89C10C8F8A02034
:1005B000C8F8A43004B0BDE8F08109F053FA05464C
:1005C00006F8010B06F0F6F970B9013409F03AFAB1
:1005D0000028D0D1072CD3D006F0ECF978B9013F30
:1005E000D8D09DF8044084E7E9B2002310220948DE
:1005F00007F0B0FE012108480AF046FAE5E7054891
:1006000007F098FEEBE7072104480AF03DFAADE752
:1006100018150100C887FF1F1C1C010024150100CC
:1006200090F89C00704700BF90F89800704700BF9A
:1006300090F8A000704700BF90F8A400704700BF7A
:10064000082994BF50F82100002070472DE9F0419F
:100650000B4E8046041F00F11C0754F8045F31461E
:1006600028460CF0EDFD30B1D8F88C1028460CF07F
:1006700005FE00B12E46BC42EFD13046BDE8F08108
:10068000000020412DE9F041D0F88C704FF00008B7
:10069000041F00F11C0654F8045F394628460CF08C
:1006A000EDFD084948B128460CF0CAFD414620B18D
:1006B00028460CF0E3FD00B1A846B442EBD1404619
:1006C000BDE8F081000070422DE9F047D0F88C7051
:1006D00082464FF00009041F00F11C064FF000088D
:1006E00054F8045F394628460CF0C8FD0C4950B157
:1006F00028460CF0A5FD30B1484629460CF0FAFA20
:1007000008F101088146B442EAD1CAF8B0804046F7
:100710000CF0A4FB014648460CF0A8FCBDE8F087AD
:1007200000007042D0F8B000704700BF38B5846E4A
:10073000456E214628460CF083FD00B92C46204624
:1007400038BD00BFD0F8A8302DE9F041002B79D199
:10075000866E456E0446314628460CF0CBFAE76EAD
:10076000394680460CF0C6FA7E490CF07FFC4FF00B
:100770007C5104460CF082FD002861D04FF07C5182
:1007800028460CF07BFD4FF07C51002860D12846B4
:100790000CF056FD38B14FF07C5130460CF06EFD38
:1007A000002840F0A7804FF07C5128460CF066FDF1
:1007B000002860D14FF07C5128460CF05FFD0028E6
:1007C00040F0A1804FF07C5128460CF057FD0028E6
:1007D0006CD14FF07C5128460CF032FD4FF07C512B
:1007E00010B330460CF04AFD38B14FF07C5138461A
:1007F0000CF026FD002840F0B0804FF07C513046D0
:100800000CF01EFD002861D04FF07C5138460CF0F2
:1008100035FD002840F0A38038464FF07C510CF0A5
:100820000FFD68B1504C10E028460CF009FD00287F
:10083000E3D128464FF07C510CF002FD002845D151
:10084000BDE8F08100EB8300046E2046BDE8F08136
:1008500030460CF013FD4FF07C5100283ED0384656
:100860000CF00CFD0028F0D14FF07C5128460CF024
:10087000E7FC002859D14FF07C5130460CF0E0FCE9
:10088000002840D04FF07C5138460CF0F7FC00288F
:1008900041D14FF07C5130460CF0F0FC68B14FF084
:1008A0007C5138460CF0CCFC00284FD14FF07C51E5
:1008B00030460CF0C5FC00288BD04FF07C513846F8
:1008C0000CF0BEFC002884D02C46BEE730464FF02A
:1008D0007C510CF0B5FC0028B2D09DE728460CF006
:1008E000AFFC0028C7D04FF07C5130460CF0C6FC5E
:1008F0000028C0D04FF07C5138460CF0BFFC0028D7
:100900003FF451AF18E04FF07C5130460CF0B6FC8C
:100910000028CBD0C3E7394628460CF0EBF94FF05E
:100920007C510CF0EFFA04468FE74FF07C513846CB
:100930000CF0A4FC00289ED0394630460CF0DAF9C1
:100940004FF07C510CF0DEFA04467EE740464FF053
:100950007C510CF0D7FA044677E7344675E73C46FD
:1009600073E700BF000040400000A0C270B504461D
:10097000FFF7E8FE4FF07C510CF080FC28B3666E68
:100980004FF07C5130460CF079FCA56EF0B9E46E66
:100990004FF07C5128460CF071FC58B12946304686
:1009A0000CF06CFC30B1214628460CF049FC08B133
:1009B0002C4620E04FF07C5120460CF05FFC20B12B
:1009C000284621460CF05AFC78B970BD30462946BD
:1009D0000CF036FCE46E0028DAD0304621460CF0EC
:1009E0002FFC0028D4D0344605E0304621460CF0D8
:1009F00045FC0028E9D0204670BD00BF01392DE933
:100A0000F84380461546032900F20281DFE801F031
:100A1000C6956402537B107BD8F8904003EB00200E
:100A20000CF01CFA7C490CF06DFA21460CF062F9CE
:100A3000C8F81800EB7BA87B03EB00200CF00EFA43
:100A400075490CF05FFA21460CF054F9D8F868604B
:100A5000D8F86470D8F80040C8F81C004046FFF78A
:100A600085FFD8F87C1005460CF0EAFB08B1C8F801
:100A70007C50394630460CF001FC002840F0BF8025
:100A80003946D8F880000CF0DBFB10B13E46C8F8C0
:100A9000806008F12006C14608F14005002701E00A
:100AA00059F8044F306821460CF0E8FB0137214625
:100AB00028B1D8F88C000CF0CDFB00B13460214691
:100AC00028680CF0BDFB043600B12C60082F05F13E
:100AD0000405E5D1BDE8F883507A32380CF0BEF950
:100AE000C8F87400A87A32380CF0B8F9C8F8780061
:100AF0006B7B287BD8F8904003EB00200CF0AEF91C
:100B000045490CF0FFF921460CF0F4F8C8F8100044
:100B1000EB7BA87B03EB00200CF0A0F93E490CF026
:100B2000F1F921460CF0E6F8D8F86860C8F814002E
:100B3000D8F86470D8F8004090E7507A32380CF05A
:100B40008DF9C8F86C00A87A32380CF087F9C8F82B
:100B500070006B7B287BD8F8904003EB00200CF0F2
:100B60007DF92D490CF0CEF921460CF0C3F8C8F8F8
:100B70000800EB7BA87B03EB00200CF06FF9264903
:100B80000CF0C0F921460CF0B5F8D8F86860C8F848
:100B90000C00D8F86470D8F800405FE7137AC0F80A
:100BA000B430907A32380CF059F9C8F8640007462E
:100BB000E87A32380CF052F9C8F868006B7BD8F844
:100BC00090900646287B03EB00200CF047F9124971
:100BD0000CF098F949460CF08DF8C8F80000EB7B52
:100BE0000446A87B03EB00200CF038F90A490CF00E
:100BF00089F949460CF07EF8C8F804002EE7D8F8C9
:100C0000801030460CF03AFB00287FF440AF40E7FC
:100C1000866E476E046821E70AD7233C2DE9F04F22
:100C200090F8AC3091B007465B008DF80830FFF7C4
:100C30004FFCD7F8A000D7F8A440D7F89C30D7F8DD
:100C4000982097F8AC108DE81100C94805F0B8FF5E
:100C500030223D2303268DF809208DF80A300DF14E
:100C60000A059DF8089049F00108404608F0CAFEC0
:100C70000DF10900022108F0CFFE8DF808804246F0
:100C800002AB00205040082410F0800F4FEA4000D3
:100C900018BF80F00700013CC0B2F5D19D4202D0E0
:100CA00013F8012FEEE708F0ADFE05F083FE0028F3
:100CB00040F07C8202208DF8089008F097F905F04A
:100CC00079FE002840F0B8820DF10C0AD1460024CC
:100CD00008F0B8FE002843D0032C34D101E008F01E
:100CE000C1FE08F0AFFE0028F9D105F063FE10B197
:100CF000A04807F01FFB312303268DF809308DF83B
:100D00000A609DF8089049F00108404608F07AFE14
:100D10000DF10900022108F07FFE8DF8088042469F
:100D200002AB00205040082410F0800F4FEA400032
:100D300018BF80F00700013CC0B2F5D19D4228D019
:100D400013F8012FEEE708F08DFE09F8010B80463D
:100D500005F030FE68B9013408F074FE0028BBD1FC
:100D6000032CBED005F026FE78B9013E7FF479AFA2
:100D7000C1E75FFA88F1002310227E4807F0EAFA03
:100D800001217D4809F080FEE5E77A4807F0D2FAB4
:100D9000EBE708F037FE05F00DFE002840F0C581B6
:100DA00002208DF8089008F021F905F003FE0028D4
:100DB00040F03D820DF10C09002408F043FE0028AC
:100DC00044D0032C35D101E008F04CFE08F03AFE87
:100DD0000028F9D105F0EEFD10B1664807F0AAFA37
:100DE000342201238DF809208DF80A3003269DF85E
:100DF000089049F00108404608F004FE0DF1090092
:100E0000022108F009FE8DF80880424602AB00205E
:100E10005040082410F0800F4FEA400018BF80F0C7
:100E20000700013CC0B2F5D19D4228D013F8012F34
:100E3000EEE708F017FE09F8010B804605F0BAFD51
:100E400068B9013408F0FEFD0028BAD1032CBDD0EA
:100E500005F0B0FD78B9013E7FF453AFC0E75FFA0B
:100E600088F100231022434807F074FA0121424818
:100E700009F00AFEE5E73F4807F05CFAEBE708F007
:100E8000C1FD05F097FD002840F00E8102208DF88D
:100E9000089008F0ABF805F08DFD002840F0D681F1
:100EA0000DF10C09002408F0CDFD002800F084802D
:100EB000032C72D101E008F0D5FD08F0C3FD002835
:100EC000F9D105F077FD10B12A4807F033FA012275
:100ED00012238DF809208DF80A304FF003089DF891
:100EE0000840204608F08EFD02210DF1090008F0AF
:100EF00093FD8DF8084005F05DFD30B309211F48D2
:100F000009F0C2FD0023102221461A4807F022FAF8
:100F10000121194809F0B8FD002310229DF809109D
:100F2000144807F017FA0121134809F0ADFD00231A
:100F300010229DF80A100F4807F00CFA01210E4804
:100F400009F0A2FD0B4807F0F5F906208DF80840DE
:100F500008F04CF805F02EFD002840F0728103AD3A
:100F6000002608F06FFD00283FD0162E2FD109E093
:100F70002C150100C887FF1F1C1C0100181501005B
:100F800008F070FD08F05EFD0028F9D105F012FDB3
:100F9000162600287DD1152035E008F063FD09F8FC
:100FA000010B804605F006FD00285BD1013408F0F6
:100FB00049FD00287FF47CAF032C3FF47EAF05F0A1
:100FC000F9FC00286CD1013E7FF411AF7FE708F0F7
:100FD00049FD05F8010B044605F0ECFC00284DD155
:100FE000013608F02FFD0028BFD1162ECAD005F01B
:100FF000E1FC00284DD1B8F101087FF470AF701EFC
:10100000002840F32482002303AA1C4612F8011B87
:1010100008254C4014F0800F4FEA440418BF84F0B8
:101020000704013DE4B2F5D101338342EEDB9DF8C4
:10103000218089484146224605F0C2FD162EC14650
:10104000A34602D1A04500F0138197F8AC10834865
:10105000CDF800B04B46324605F0E0FD002011B05F
:10106000BDE8F08F5FFA88F1002310227C4807F07A
:1010700071F901217B4809F007FD97E7E1B20023F0
:101080001022774807F066F90121764809F0FCFC48
:10109000A6E7734807F04EF9162EACD11520B2E73B
:1010A0006F4807F047F98EE709216F4809F0ECFC1B
:1010B0002346102241466A4807F04CF9012169484D
:1010C00009F0E2FC234610229DF80910644807F05D
:1010D00041F90121634809F0D7FC102223469DF80D
:1010E0000A105F4807F036F901215E4809F0CCFC90
:1010F00021460DF10B0002AA12F8014B6140C9B262
:10110000082311F0800F4FEA410118BF81F0070159
:10111000013BC9B2F5D19042EED11022504807F000
:1011200019F94F4807F006F9B0E609214E4809F0D1
:10113000ABFC234610224146494807F00BF9012138
:10114000484809F0A1FC234610229DF809104448A4
:1011500007F000F90121434809F096FC10222346CC
:101160009DF80A103E4807F0F5F801213D4809F0C6
:101170008BFC21460DF10B0002AA12F8014B6140D5
:10118000C9B2082311F0800F4FEA410118BF81F066
:101190000701013BC9B2F5D19042EED1102230488F
:1011A00007F0D8F82E4807F0C5F8F9E509212E48D0
:1011B00009F06AFC234610224146294807F0CAF884
:1011C0000121284809F060FC234610229DF80910EF
:1011D000234807F0BFF80121224809F055FC1022EE
:1011E00023469DF80A101E4807F0B4F801211D4857
:1011F00009F04AFC21460DF10B0002AA12F8014B3E
:101200006140C9B2082311F0800F4FEA410118BFB5
:1012100081F00701013BC9B2F5D19042EED1102215
:101220000F4807F097F80E4807F084F842E50721C9
:101230000E4809F029FCBDE507210C4809F024FC03
:1012400042E50721094809F01FFC88E60721074805
:1012500009F01AFC24E600BF60150100AC1501007E
:10126000C887FF1F1C1C0100181501002415010070
:101270009DF80C3097F8AC20B3EB420F7FF4EEAE44
:101280009DF80D30012B7FF4E9AE9DF80E30122B46
:101290007FF4E4AE9DF810309DF80F0003EB0020C2
:1012A0000BF0DCFD72490BF02DFED7F88810386684
:1012B00004460BF0E3FF08B1C7F88840D7F8841064
:1012C00020460BF0BDFF08B1C7F88440A7F1040920
:1012D00007F1200607F140054FF008089AF806309C
:1012E0009AF8050003EB00200BF0B8FD61490BF004
:1012F00009FE49F8040F316804460BF0A1FF0AF11A
:10130000020A30B1D7F88C1020460BF0ADFF00B1C7
:101310003460296820460BF0B1FF043600B12C6020
:10132000B8F1010805F10405D8D19DF81E309DF8EB
:101330001D0003EB002002300BF090FD4E490BF036
:1013400095FE01464D480BF091FE4D490BF0D0FC47
:101350004C490BF0D7FD054609F042FE04462846ED
:1013600009F03EFE484909F0ADFE484905462046D1
:101370000BF0C8FD46490BF0BDFC46490446284623
:101380000BF0C0FD014620460BF0B4FC01464FF0C7
:101390007E500BF06BFE40490BF0AAFC9DF81F201D
:1013A0009DF82030786603EB022009300BF056FDE3
:1013B0003A490BF05BFE014630480BF057FE3049CE
:1013C0000BF096FC2F490BF09DFD054609F008FE39
:1013D0000446284609F004FE2B4909F073FE2B4908
:1013E000054620460BF08EFD29490BF083FC294968
:1013F000044628460BF086FD014620460BF07AFC99
:1014000001464FF07E500BF031FE23490BF070FC8B
:10141000B86604463846FFF7A9FAF96F05460BF09F
:101420000FFF00B1FD677D6E204629460BF026FFB9
:10143000B0B92946D7F880000BF002FF10B12C4656
:10144000C7F88040164805F0BBFB012007E69DF871
:101450002190144849464246C34605F0B1FBF4E5E5
:10146000D7F8801020460BF009FF0028E8D1E9E703
:101470001357053B2003C839001601470AD7E33F3D
:10148000E17A644000007A4400004040A40D8F39A6
:101490005A80473A46A6DB3333938843002C0147F2
:1014A00084150100601501002DE9F8430026D0F8ED
:1014B0008C8006668146044600F1200754F8045BE0
:1014C000414628460BF0DAFE084950B128460BF099
:1014D000B7FE30B1304629460BF00CFC0646C9F881
:1014E0006000BC42EAD13046BDE8F883000070429B
:1014F00005299ABF00EB8100406E0020704700BFB5
:101500003E2998BF80F8AC10704700BF90F8940057
:10151000704700BFC0F8A810704700BF80F8941053
:10152000704700BFC0F88C10704700BFC0F8901023
:10153000704700BF70B500F535550646303500F1EF
:1015400028042046B834FEF791FFAC42F9D106F1E9
:10155000E005012428460021FFF7E0FF2146284648
:101560000134FFF7CDFF3F2C05F1B805F2D142F66B
:10157000785400250548064A064B35550021306150
:101580007161B261F361304670BD00BF00007A4402
:10159000000048430000C8C2012070472DE9F04117
:1015A00042F67C5300F53556374600228046C2503D
:1015B00030363C3700F1E00402E0B834B4420DD0DC
:1015C0002046FFF7A3FF0028F7D020463D68FFF72D
:1015D000A9F8B8342844B4423860F1D142F67C53BB
:1015E00058F80300BDE8F081F8B50E46096801F42B
:1015F0007F6500290446A5F5C06511DB2D0901F0C2
:101600000F07B82303FB0544283420460121FFF7C8
:1016100085FF324639462046BDE8F840FFF7EEB96F
:101620000A4801F00F0706F085FE1221084809F06C
:101630002BFA3168054801F0004100230A2206F028
:1016400089FE02482D0906F075FEDAE7C887FF1FFC
:10165000FC150100704700BF704700BF2DE9F04343
:101660000446002383B0064644F8E03B012504E02D
:1016700001353F2D04F1B80469D02046FFF746FF3D
:101680000028F5D0504805F09BFA29464F4805F050
:1016900097FA2046FFF7C2FA2046FFF705FF0AF047
:1016A00087FF02460B464A4805F08AFA2046FEF7B5
:1016B000CDFF80462046FEF7E5FF074640460AF08C
:1016C00077FF8046384689460AF072FF42464B460D
:1016D000CDE900013F4805F073FA00212046FFF7ED
:1016E00007FF012180462046FFF702FF07464046DC
:1016F0000AF05EFF8046384689460AF059FF4246A6
:101700004B46CDE90001344805F05AFA2046FFF770
:10171000CBFE014630680BF0EDFA30602046FFF753
:1017200025F9B1690BF08CFD002833D12046FEF776
:10173000FDFFF1690BF0A2FD002899D02046FEF7CD
:10174000F5FF01353F2DF06104F1B80495D17068C3
:101750000BF084FB014630680BF088FC7169306047
:1017600004460BF08BFD00B17461316920460BF02B
:1017700067FD00B134610B2007F002FC42F678539C
:10178000F35C60B99BB142F678530122F25403B086
:10179000BDE8F0832046FFF7E9F8B061C6E753B92A
:1017A00042F678530022F25403B0BDE8F0830B48B0
:1017B00005F034FAE7E70A4805F01AFA42F67853DA
:1017C0000022F254F0E700BFF817010010160100E4
:1017D0004C160100601601008C160100A8160100CD
:1017E000E016010070B5114B836000F535550646D3
:1017F000303500F1E00402E0B834AC4213D02046AA
:10180000FFF784FE0028F7D02046FEF71FFFB168DF
:101810000BF016FD0028EFD02046FEF717FFB83476
:10182000AC42B060EBD1B06870BD00BF0000A0401A
:1018300070B5002300F535550646C360303500F11C
:10184000E00402E0B834AC4213D02046FFF75EFE5D
:101850000028F7D02046FEF715FFF1680BF00EFDCB
:101860000028EFD02046FEF70DFFB834AC42F06000
:10187000EBD1F06870BD00BF0068704741607047F1
:101880002DE9F04100F53555884617461E4630359E
:1018900000F1E00402E0B834AC4213D02046FFF778
:1018A00035FE0028F7D020464146FFF733FE20469C
:1018B0003946FFF737FE20463146B834FFF736FE8B
:1018C000AC42EBD1BDE8F0812DE9F84300F5355588
:1018D00042F674532E4600278046C7504FF0000949
:1018E0003035343600F1E00402E0B834A54213D0BC
:1018F0002046FFF70BFE0028F7D033680133336032
:101900002046FEF71FFF1D490BF0B8FC88B9B8341C
:10191000A54207F10107EBD142F6745358F80300D2
:10192000C01B0BF09BFA014648460BF09FFBBDE83D
:10193000F8832046FEF706FF014648460BF0DAF929
:1019400081462046FEF7FEFED8F820100BF096FCEC
:1019500070B92046FEF7F6FED8F824100BF070FCA4
:101960000028C2D02046FEF7EDFEC8F82400BCE7F0
:101970002046FEF7E7FEC8F82000EAE700008CC228
:10198000006A7047406A7047F8B500F5355507465C
:101990000026303500F1E00402E0B834AC420FD04C
:1019A0002046FFF7B3FD0028F7D02046FEF78CFE57
:1019B000014630460BF09EF9B834AC420646EFD1F2
:1019C00042F67453F8580BF049FA014630460BF0D2
:1019D0004DFBF8BD2DE9F04F06468FB09B488B4676
:1019E00005F096F8994805F093F8984805F090F8B6
:1019F00042F674533046F2580D92FFF7CFFD7368EC
:101A00000C93074630680AF0D3FD8046304689467D
:101A1000FFF7BAFF82463046B468F568FFF754FF17
:101A20000AF0C6FDCDE90A01214628460BF060F90F
:101A300087490BF067FA0AF0BBFDCDE9080128469B
:101A40000AF0B6FDCDE9060120460AF0B1FDCDE968
:101A5000040150460AF0ACFD0D9A0C9BCDE9020141
:101A6000CDE9008911467B483A4605F051F87748A0
:101A700005F04EF8E0364FF001084FF0000A07E09D
:101A800008F10108B8F13F0F06F1B80600F0D58063
:101A90003046FFF73BFD0028F2D03046FEF7C0FD90
:101AA0003046FEF7C1FD3046FEF7C2FD3046FEF778
:101AB000C3FD0821684808F0E7FF4146674806F083
:101AC00089FCB8F1090F40F3BB800221644808F09B
:101AD000DBFF3046FFF7E8FC0AF06AFD5FFA8BF99E
:101AE00002460B46CDF800905C4806F07DFC0121D3
:101AF0005C4808F0C9FF5546002420E006215A48FA
:101B000008F0C2FF2946554806F064FC02215748F8
:101B100008F0BAFF21463046FEF792FD0AF048FD74
:101B2000CDF8009002460B464C4806F05DFC0134AF
:101B300001214C4808F0A8FF082C09D03D46092D8A
:101B400005F10107DADC0121494808F09DFFD5E7DE
:101B5000424806F0EFFB0921464808F095FF0021B6
:101B60003046FFF7C5FC0AF023FD022402460B466F
:101B700000943A4806F038FC0A213F4808F084FFF8
:101B800001213046FFF7B4FC0AF012FD0094024632
:101B90000B46324806F028FC0A21384808F074FF4A
:101BA00021463046FFF7A4FC0AF002FD00940246ED
:101BB0000B462A4806F018FC0A21314808F064FF59
:101BC00003213046FFF794FC0AF0F2FC0094024631
:101BD0000B46224806F008FC0A212A4808F054FF68
:101BE00004213046FFF784FC0AF0E2FC0094024630
:101BF0000B461A4806F0F8FB0A21234808F044FF78
:101C000005213046FFF774FC0AF0D2FC009402462E
:101C10000B46124806F0E8FB01211C4808F034FF8F
:101C200008F101080D4806F085FBB8F13F0F0AF1F5
:101C3000080A06F1B8067FF42BAF0FB0BDE8F08FAD
:101C400001210B4808F020FF3FE700BFF817010013
:101C500000007A4490190100301A0100C887FF1F64
:101C6000742801003C1A0100401A01000C1C0100FC
:101C70001C1C0100481A0100541A0100601A0100DE
:101C80006C1A0100781A0100841A0100901A0100F0
:101C90002DE9F04F85B000F1E0058A4603929B469E
:101CA0002E464FF0010806E008F10108B8F13F0F99
:101CB00006F1B8067BD03046FFF728FC0028F3D0A9
:101CC00000230A2251467D4806F044FB01217C484E
:101CD00008F0DAFE03980AF06BFC0023024600933A
:101CE00076480B4606F080FB0121754808F0CCFED3
:101CF0005946724806F06EFB0121714808F0C4FE97
:101D000041466E4806F066FB01216D4808F0BCFEB6
:101D100000244FF0020921463046FEF791FC0AF0FC
:101D200047FCCDF8009002460B46644806F05CFB89
:101D300001340121624808F0A7FE082C4FF0020789
:101D4000E9D100213046FFF7D3FB0AF031FC0097C0
:101D500002460B46594806F047FB0121584808F057
:101D600093FE01213046FFF7C3FB0AF021FC0097E8
:101D700002460B46514806F037FB0121504808F057
:101D800083FE39463046FFF7B3FB0AF011FC00979B
:101D900002460B46494806F027FB08F10108474870
:101DA00006F0C8FAB8F13F0F06F1B80683D1012753
:101DB0004FF0000904E001373F2F05F1B80579D055
:101DC0002846FFF7A3FB0028F5D000230A2251463E
:101DD0003C4806F0BFFA0121394807F0E7FB0398B9
:101DE0000AF0E6FBCDF8009002460B46354806F0B7
:101DF000FBFA0121324807F0D9FB5946314806F079
:101E0000E9FA01212E4807F0D1FB39462D4806F0AA
:101E1000E1FA01212A4807F0C9FB00244FF002082B
:101E200021462846FEF70CFC0AF0C2FBCDF80080E4
:101E300002460B46234806F0D7FA01340121204818
:101E400007F0B4FB082C4FF00206E9D10021284628
:101E5000FFF74EFB0AF0ACFB009602460B46194812
:101E600006F0C2FA0121164807F0A0FB012128461E
:101E7000FFF73EFB0AF09CFB009602460B4611481A
:101E800006F0B2FA01210E4807F090FB31462846D1
:101E9000FFF72EFB0AF08CFB009602460B46094822
:101EA00006F0A2FA0137074806F044FA3F2F05F181
:101EB000B80585D105B0BDE8F08F00BFC887FF1F0A
:101EC000941A0100AC87FF1F2DE9F84F994C9A48EE
:101ED000FFF7FAFCE16A0BF0B3F9002851D0974EF6
:101EE000974D002333602B60964B93481B68914FAE
:101EF000012B5ED0FFF79CFCE169804660690AF027
:101F0000F7FE014640460BF0B9F9002865D18A4832
:101F1000FFF78EFCE1680BF0B1F908B100232B60EC
:101F20008548844FFFF75EFC21690BF089F958B1B1
:101F3000002333602B68824A002B01DBBDE8F88F59
:101F400000231360BDE8F88F7B48FFF74BFCB969AD
:101F50000BF076F90028EBD17748FFF743FCD7F870
:101F6000BC100446B8690AF0C5FE014620460BF0D5
:101F700085F9002800F08480B86E30600028D7DB37
:101F8000D8E76D48FFF7A0FC216B0BF059F900284A
:101F900051D16948FFF798FC616B0BF051F90028AB
:101FA00000F09380654E664DA26E236E32602B600A
:101FB0009AE7FFF73DFCE1698046206A0AF098FE47
:101FC000014640460BF05AF90028A0D05A48FFF7C6
:101FD0002FFCD7F82090834605E05748FFF728FCF0
:101FE000D7F814908346F96948460AF081FE824684
:101FF000386E0AF033FF8046786E0AF02FFF4146B4
:102000000AF076FE5146074658460AF071FE014630
:1020100038460AF077FF5146074648460AF068FE00
:10202000014638460BF022F841460AF063FE0BF0F9
:1020300045F928606BE7414EA36E3F483360FFF7D8
:1020400043FC8146206EE76A3D4D0AF007FF3946A2
:10205000804648460AF04CFE014640460AF052FFD0
:1020600039468046206B0AF043FE014640460AF09E
:10207000FDFF00210AF03EFE0BF020F9286033E757
:102080002D48FFF7AFFB8146386EBC690AF0E6FECB
:102090002146804648460AF02BFE014640460AF09B
:1020A00031FFD7F8BC10804620460AF023FE2146B7
:1020B0000AF01EFE014640460AF0D8FF00210AF051
:1020C00019FE0BF0FBF8306058E71B48FFF7FCFBEC
:1020D000A16A0BF0B5F800283FF401AF1648174E7F
:1020E000174DFFF7F1FB8146A06ED4F834800AF05B
:1020F000B5FE4146074648460AF0FAFD3946814694
:1021000000200AF0F5FD014648460AF0FBFE414674
:102110008146A06A0AF0ECFD014648460AF0A6FF97
:1021200039460AF0E7FD0BF0C9F8236E30602B60EA
:10213000DAE600BF3093FF1FE494FF1FA894FF1F4F
:102140004C92FF1F6892FF1FF8B54148414F424C27
:10215000424D04F0DDFC424B4248DFF834E1424995
:10216000424A5860102642481E70DF60414E424F7E
:102170001C61C3F818E04FF07C544FF00C0E59610D
:102180005A623E493E4A9D62D8623E4D3E485E6379
:102190009F6340F61C460A279C64C3F854E041F252
:1021A0000404DFF8F0E0D9641A65022101221D62FF
:1021B000C3F8BC0000250020DE661F6764264FF4CC
:1021C00096775C67C3F81CE03224C3F83CE04FF01C
:1021D0005A0E597059721A729A6583F844009F66B4
:1021E0001F665C661D63DE654FF47A7CC3F878E099
:1021F000264FDFF8A4E0D867C3F88010C3F8840046
:10220000C3F89840C3F8A440C3F8A000FF24C3F863
:10221000AC20C3F8B010052041F2883183F8C0200B
:1022200040F2D662C3F8B4601D64C3F89CC0C3F822
:102230008CE0C3F89070C3F8A840A3F8BA00C3F8C4
:102240009410A3F8B810A3F88820A3F88A20F8BD4A
:10225000981A0100666686400000404000008242F5
:102260003093FF1F20A1070033338340CDCCCC3DFA
:10227000000020C1000020420000A0409A9979404F
:102280000AD7233D333373409A99993E00C02044C6
:10229000CDCC4C40CDCC4C3E00006842F0B54FF464
:1022A0007A6085B006F0A2FE00210F2006F076FECF
:1022B00000210E2006F072FE0021112006F06EFEB5
:1022C0000021102006F06AFE0021122006F066FEB2
:1022D0000021132006F062FE01210B2006F05EFEB5
:1022E00001210C2006F05AFE0121142006F056FEB2
:1022F0000121152006F052FE0121162006F04EFEA7
:102300000121172006F04AFE0121052006F046FEB5
:10231000904C914D0121062006F040FE01210D2038
:1023200006F03CFE20880AF095FD0146162006F0D6
:102330009FFD20880AF08EFD0146172006F098FDCB
:1023400020880AF087FD0146052006F091FD2088CF
:102350000AF080FD00240146062006F089FD009465
:1023600023467E4A7E497F4804F052FEE6B232465A
:1023700079497C4804F0FAFD2B79774979486FF365
:102380000003013432462B7104F0E6FD082CEDD138
:102390000924E6B232467049724804F0E7FD2B7911
:1023A0006D49704843F00103013432462B7104F04B
:1023B000D3FD0D2CEDD16C4C4FF0FF322068102175
:1023C00005F0F2F920684FF0FF32102105F0C4F952
:1023D00020684FF0FF32022105F0D2F920684FF05B
:1023E000FF32022105F0D6F900220F21206805F006
:1023F000E5F90C215D4808F047FB5D4805F09AFFC0
:1024000014215C4808F040FB594805F093FF40F266
:10241000836006F0A9FE564805F08CFF1721564848
:1024200008F032FB524805F085FF544B1B789A06A2
:1024300000F1BE80514B1B781B0700F1C5804F4B4C
:102440001B785F0700F1CC804C4B1B789E0700F196
:10245000D3804B4B1B781D0600F1DA80484B1B786C
:102460005C0600F1E180464B1B78980600F1E8809D
:10247000434B1B78590700F1EF80414B1B781A073B
:1024800000F1F6803E4B1B789B0700F1FD80384839
:1024900005F050FF72B63B4A4CF220534DF628111E
:1024A0002024138023461180013BFDD1364D37484F
:1024B000374900234FF480562E8003800B8032F87A
:1024C0000E3C9BB243F0D30322F80E3C62B69D2033
:1024D00007F048FA21462F482F4D08F0D5FA244836
:1024E00005F028FF05F1C4062F462C46601B06F0B8
:1024F0008FF904F8010BB442F8D13B78102B01D0CE
:10250000FFF722FE2548FFF7A7F8042004F04CFA55
:10251000234B224800221A60FFF79CF801210D206E
:1025200006F028FDB96D1D48FFF7A8F93B6CBA6CA1
:1025300097F844101948FFF7A3F91A4B1A491A687B
:10254000039203981B680293029A184B08601A6062
:1025500005B0F0BD2487FF1F0094FF1F10C4FF1FAC
:1025600020A1070074C2FF1FB094FF1FB81A01001A
:10257000C887FF1FC81A0100E01A010001F00740D8
:1025800000F007400E2005400420054006200540CD
:1025900016200540E41B01003093FF1FE494FF1F49
:1025A0005892FF1F38C4FF1FE094FF1F0894FF1FBD
:1025B0002121394808F068FA384805F0BBFE384B4D
:1025C0001B781B077FF53BAF0C21364808F05CFAFF
:1025D000324805F0AFFE324B1B785F077FF534AF12
:1025E0000E21314808F050FA2C4805F0A3FE2C4B80
:1025F0001B789E077FF52DAF17212C4808F044FA71
:10260000264805F097FE2A4B1B781D067FF526AF5E
:102610000E21284808F038FA204805F08BFE244B9C
:102620001B785C067FF51FAF1221234808F02CFAB7
:102630001A4805F07FFE1E4B1B7898067FF518AFF1
:1026400013211E4808F020FA144805F073FE184BB9
:102650001B7859077FF511AF1C21194808F014FAAF
:102660000E4805F067FE124B1B781A077FF50AAF7C
:102670001921144808F008FA084805F05BFE0C4BD5
:102680001B789B077FF503AF18210F4808F0FCF972
:10269000024805F04FFEFAE6F81A0100C887FF1F4E
:1026A00001F007401C1B01002C1B01003C1B01001A
:1026B00000F00740541B0100641B0100781B01005F
:1026C0008C1B0100AC1B0100C81B010070B5464CFF
:1026D000464D4748E66800232B70FFF7A9F80146EE
:1026E00030460AF0ADFD08B104232B704048FFF7D7
:1026F00079F821690AF0A4FD18B12B7843F0100392
:102700002B703B48FFF7E0F8A16A0AF0B7FD18B15B
:102710002B7843F040032B70002335486B70FFF794
:10272000D3F8E16A314E0AF08BFD08B101237370D2
:1027300000232F48EB70FFF77BF805462C482B4E03
:10274000FFF750F8014628460AF0D2FAE16B0AF08A
:1027500095FD08B10123F370264D254800232B7009
:10276000FFF766F8616A0646E0680AF0C1FA0146BA
:1027700030460AF083FD08B104232B701C48FFF794
:1027800031F8616A064620690AF0B4FA014630461B
:102790000AF056FD18B12B7843F010032B70144843
:1027A000FFF792F8A16B0646A06A0AF0A1FA01466B
:1027B00030460AF063FD18B12B7843F040032B70CC
:1027C00000230B486B70FFF77FF8A16B0546E06AAA
:1027D000084C0AF08FFA014628460AF031FD08B18C
:1027E0000123637070BD00BF3093FF1F2C93FF1F48
:1027F000E494FF1FA094FF1F2DE9F0417C4C236857
:10280000012B82B031D0022B00F0A880032B00F006
:10281000C8803BBB774B784AD3F8A410D3F8A830D4
:1028200012685B1A632B0EDD744803FB02F380FB16
:102830000302DB17C3EB62131944062002B0BDE8A4
:10284000F04106F017BA6E4803FB022380FB030237
:10285000DB17C3EB22121144062002B0BDE8F041A1
:1028600006F008BA02B0BDE8F081664E33680A335C
:10287000B3F57A7F00F3B780184633600AF0EEFABA
:1028800061490AF03FFB80465A4DD5F8A4000AF092
:10289000E5FA0746D5F8A8000AF0E0FA39460AF04A
:1028A00027FA41460AF02EFB58490AF0DFFB394669
:1028B0000AF020FA0AF002FD0146062006F0DAF9D5
:1028C0000221534808F0E0F8524805F033FD062194
:1028D000514808F0D9F830680AF0C0FA4A490AF0BD
:1028E00011FB09F065FE022702460B460097494896
:1028F00005F07AFD0D21494808F0C6F8D5F8A40086
:102900000AF0ACFA804630680AF0A8FA3E490AF0AC
:10291000F9FA0646D5F8A8000AF0A0FA41460AF0EE
:10292000E7F9014630460AF0EDFA38490AF09EFB15
:1029300041460AF0DFF909F03BFE00970B460246DC
:10294000344805F051FD3946314808F09DF83148CA
:1029500005F0F0FC2368022B7FF458AF294B254E7D
:1029600000221A60D6F8A4000AF078FA0546D6F8D4
:10297000A8000AF073FA29460AF0BAF900210AF011
:10298000C1FA22490AF072FB29460AF0B3F90AF0AB
:1029900095FC0146062006F06DF92368032B7FF4B1
:1029A00038AF184B134E4FF47A721A60D6F8A40061
:1029B0000AF054FA0546D6F8A8000AF04FFA29465C
:1029C0000AF096F911490AF09DFA10490AF04EFBF7
:1029D00029460AF08FF90AF071FC0146062006F03C
:1029E00049F9236815E700234FF0000833604BE7EF
:1029F0008C94FF1F3093FF1F3087FF1F1F85EB5103
:102A0000CBF08D285C92FF1FCDCCCC3D0000C8429E
:102A100074280100C887FF1F081C0100101C01005A
:102A200070B5B548B54C05F085FCB34805F082FC9F
:102A3000B14805F07FFC0D21B14808F025F8D4F825
:102A4000A030012B11D0AF4CAB48217800230A22D3
:102A500005F080FC2378052B67D8DFE813F006012A
:102A60000B01100115011A0101010921A64808F006
:102A70000BF8A648FEF7B6FE21690AF0E1FB18B193
:102A80000F21A34808F000F8A048FEF7D1FEE16846
:102A90000AF0F4FB18B10E219E4807F0F5FF9B48A1
:102AA000FEF7C6FE05469948FEF79CFE01462846FD
:102AB0000AF01EF9E16B0AF0E1FB18B1112196480A
:102AC00007F0E2FF9148FEF7FFFEA16A0AF0D6FB8D
:102AD00018B10C21914807F0D7FF8C48FEF7F4FE9F
:102AE000E16A0AF0ADFB18B10D218D4807F0CCFF6B
:102AF0008C4B86481B68012B00F0E880FEF772FEC5
:102B000021697E4D0AF0BAFB78B18048FEF790FE4D
:102B1000E9680AF095FB40B17A4B1B78052B00F071
:102B2000E6800821804807F0AFFF02217F4807F0C8
:102B3000ABFF122006F024FA012800F0AF8011202C
:102B400006F01EFA012800F0B380794B1B68012BB8
:102B500000F0B78002217548764C07F095FF764B60
:102B60006548196805F036FC634805F0E3FB04216D
:102B7000724807F089FF0B2006F002FA0023014695
:102B80000A225D4805F0E6FB0C2006F0F9F9002367
:102B900001460A22584805F0DDFB142006F0F0F942
:102BA000002301460A22544805F0D4FB152006F004
:102BB000E7F90A22002301464F4805F0CBFB062126
:102BC0005F4807F061FF2368DD074FF001014CBF4C
:102BD0005C485D4807F058FF236898074FF00101F3
:102BE0004CBF5848584807F04FFF23685A074FF02A
:102BF00001014CBF5348544807F046FF23681B07A8
:102C00004CBF50485048012107F03EFF04214F4877
:102C100007F03AFF112006F0B3F9002301460A221B
:102C2000354805F097FB102006F0AAF9002301466D
:102C30000A22314805F08EFB122006F0A1F900238C
:102C400001460A222C4805F085FB132006F098F96E
:102C5000002301460A222848BDE8704005F07ABBEF
:102C600007213B4807F010FF5FE70621394807F0CE
:102C70000BFF5AE70721384807F006FF55E7072101
:102C8000364807F001FF50E70821354807F0FCFE01
:102C90004BE70B21334807F0F7FE46E70E21324899
:102CA00007F0F2FE112006F06BF901287FF44DAF1A
:102CB0000A212E4807F0E8FE1D4B1B68012B7FF40C
:102CC00049AF11212A4807F0DFFE43E7FEF78AFDEE
:102CD000216A0AF0D3FA00283FF423AF16212548D1
:102CE00007F0D2FE0A21244807F0CEFE1DE70A2194
:102CF000214807F0C9FE18E7C887FF1F3093FF1F60
:102D0000201C01009C94FF1F301C0100E494FF1F55
:102D10003C1C01004C1C01005C1C0100701C0100EB
:102D2000801C01006892FF1FB41C01007428010080
:102D3000B894FF1FF493FF1F9094FF1F281D0100FC
:102D4000301D0100381D0100182A01003C1D010042
:102D5000F01C0100C01C0100C81C0100DC1C0100AB
:102D6000E41C0100D01C0100F81C0100081D01003A
:102D7000141D0100901C0100A81C01002DE9F04F5A
:102D80009C4C9D4FD4F88030012B8DB000F05A81BF
:102D9000032B5BD0994E9A4DE36F9A48012B09BFE4
:102DA0002968296801F10041296005F0F9F83368C4
:102DB000002B40F0D980934805F0C8F8D4F8803053
:102DC0003860012B064600F0DC808F490AF056FA85
:102DD000B8B98E4930460AF033FA90B98C4A8D4B17
:102DE00012680B920B9A1A60D4F8AC000AF036F80D
:102DF00031460AF087F8002338602B600DB0BDE83B
:102E0000F08FDFF80CA2DFF80C82DAF800300A93BA
:102E10000A98D8F80030DFF82492C01A0AF01AF89D
:102E200031460AF06FF87C490AF020F97A490AF035
:102E30001DF9D9F8001009F05DFFDAF800300993A8
:102E4000099BC9F80000C8F80030CDE7DFF8D08151
:102E5000724DD8F80000694E012300220F212B602B
:102E600004F0ACFC2B68012B336800F00981002BC7
:102E700040F0AC810021D8F80000DFF8C491684D23
:102E800004F0EEFC33681FFA80FBC9F800B0002B99
:102E900040F081810021D8F80000594DDFF880A171
:102EA00004F064FCB4F88A3040F6E44101FB0BF115
:102EB000B1FBF0F0C01A00B209F0D0FF59498346C7
:102EC000D4F88C000AF01EF8014658460AF0CEF8F5
:102ED000D9F800302860632BDFF864B100F34F812C
:102EE00000232B603368002B3FF456AF02214E487D
:102EF00007F0CAFDD9F80020D8F8000040F6E443F6
:102F0000002103FB02F804F031FCB8FBF0F009F0FB
:102F1000A1FF8046B4F88A0009F0A0FF01464046B0
:102F200009F0E6FE09F044FB4FF0020802460B46AA
:102F3000CDF800803D4805F057FA41463A4807F081
:102F4000A3FD286809F034FBCDF8008002460B464B
:102F5000364805F049FA4146354807F095FD4146A7
:102F6000314807F091FD17E7264804F0EFFF09F01C
:102F70001FFB022602460B4600962C4805F034FA49
:102F800019E7264B1B68012B00F02C81022B7FF4E4
:102F90002BAF28490AF072F930B9274930460AF0B8
:102FA0004FF9002800F05381DFF864A0DFF8648057
:102FB000DAF8003007930798D8F80030DFF87C90F3
:102FC000C01A09F047FF314609F09CFF12490AF088
:102FD0004DF811490AF04AF8D9F8001009F08AFEB4
:102FE000DAF800300693069BC9F80000C8F80030F4
:102FF000FAE600BF3093FF1F7492FF1FDC94FF1F9F
:103000006492FF1F0893FF1F0000FA430000FAC3F9
:1030100038C4FF1FAC94FF1F00007A444C87FF1F89
:10302000B094FF1F17B7D13874280100C887FF1F5D
:10303000801D010000C82F4800A08CC68092FF1F91
:103040002893FF1F3D689C4928460AF0F9F830B1E3
:1030500028469A490AF012F900287FF4F7AEDFF803
:103060006882974DD8F80000964E022300220E2168
:103070002B6004F0A3FB2B68012B33687FF4F7AEC1
:10308000002B40F006810021D8F80000DFF878928C
:103090008D4D04F0E5FB33681FFA80FBC9F800B0E2
:1030A000002B40F0DB800021D8F80000874D04F0B1
:1030B0005DFBB4F8883040F6E44A0AFB0BFBBBFB2F
:1030C000F0F0C01A00B209F0C9FE81498346D4F875
:1030D000900009F017FF0146584609F0C7FFD9F8DC
:1030E000003028600021D8F800000AFB03FA04F041
:1030F0003DFBB4F88830BAFBF0F00FFA80FAC3EB6E
:103100000A03002BB4F8BA20B8BF5B429342BCBF9D
:1031100000232B603368002B3FF43EAE02216D4844
:1031200007F0B2FCD9F80020D8F8000040F6E443DC
:10313000002103FB02F804F019FBB4F88810B8FB77
:10314000F0F000B2411A644805F044F902216148E8
:1031500007F09AFC286809F02BFA4FF002080246A3
:103160000B46CDF800805C4805F03EF903215B4832
:1031700007F08AFC4146574807F086FC0CE6DAF86F
:103180000000002104F0F2FADBF8003064389842C5
:10319000FFF4A6AEA6E60021286804F0E7FA40F6A0
:1031A000E44100230A2201FB0BF1B1FBF0F14A4894
:1031B00005F0D0F80221474807F066FCB4F88A1001
:1031C000454805F007F9D9F800B063E6424805F034
:1031D000B1F80C21424807F057FC0C21414807F098
:1031E00053FC47E640490AF049F858B93F49304690
:1031F0000AF026F830B93E4A3E4B12680592059A0D
:103200001A60F1E5DFF8E8A0DFF8E880DAF80030CE
:1032100004930498D8F80030DFF8F090C01A09F051
:1032200019FE314609F06EFE334909F01FFF32499D
:1032300009F01CFFD9F8001009F05CFDDAF8003045
:103240000393039BC9F80000C8F80030CCE5284A76
:10325000284B12680892089A1A60C5E50021286870
:1032600004F084FA40F6E44100230A2201FB0BF14A
:10327000B1FBF0F1184805F06DF801211F4807F087
:1032800003FCB4F88810144805F0A4F8D9F800B08D
:1032900009E7114805F04EF8D4F88030012B4FF0C3
:1032A0000B010CBF1648174807F0EEFB0C210D4828
:1032B00007F0EAFBE7E600BF00709446007094C692
:1032C0004C87FF1FDC94FF1FB094FF1F6492FF1F09
:1032D00017B7D13874280100C887FF1F6C1D010083
:1032E000701D01005C1D01000000FA430000FAC3DC
:1032F00038C4FF1FAC94FF1F00007A441C1C01005F
:10330000441D0100501D01002893FF1F8092FF1FE4
:103310002DE9F047954D2B6884B0002B7AD0944C62
:10332000DFF85482934FD4F88430914E012B00F093
:103330008A80D7F80090D6F85CA0B56D8E4E05FB5C
:103340000AF54FF47A7000FB05F009F087FD8B4910
:103350000546484609F0D6FD294609F087FE88490A
:1033600009F0D0FD09F0AAFF6328C8F800004CDD81
:103370002846824909F07AFE642338603360814B25
:103380001B68002B3ED0D4F88030794D012B00F023
:103390008880032B00F0D880022B00F0DC80022113
:1033A000794807F071FB794B186809F001F902249C
:1033B00002460B460094764805F016F821467548FB
:1033C00007F062FB2146704807F05EFBD8F800105A
:1033D0006F4804F0FFFF06216F4807F055FB38687F
:1033E000664909F08FFD09F0E3F8009402460B46A8
:1033F000674804F0F9FF0321684807F045FB64487B
:1034000004F098FF04B0BDE8F0870028BCBF00239B
:103410003360B4E7624E564C33680293029A42F22C
:1034200028339A424AD833680393039A42F21073BE
:103430009A424BD8D4F88430DFF83C814D4F4C4E43
:10344000012B7FF476AF5748FEF79EFA5649D6F81F
:103450006C90356F09F056FD09F056FF726FB36F2F
:10346000D4F85CA0C9EB02025B1B80B29A42C9EBA4
:103470000000C6BF03FB00000132584390FBF2F08E
:103480002844A56D00FB0AF005FB00F000EB80006E
:10349000400009F0E3FC394909F0E8FD8146386055
:1034A0004CE7424B1B68012B4FF00A010CBF404810
:1034B000404807F0E9FAD5F880306AE73948236CCC
:1034C000A26C94F84410FEF7DBF9ACE73548FEF740
:1034D0005BFA3549E76E266F09F014FD09F014FF19
:1034E000626FA36FD21B9B1B80B29A42A0EB0700B6
:1034F00036DD03FB0000531C90FBF3F31E44E06D2C
:10350000A36DDFF874801B4FC8F8006000FB06F065
:1035100003FB00F000EB8000400009F09FFC17491E
:1035200009F0A4FD01233860022117482B6007F041
:10353000ABFA174804F0FEFE59211F4807F0A4FA21
:10354000134804F0F7FEEEE610211C4807F09CFA41
:10355000D4F8803020E70721194807F095FA1EE7D4
:1035600003FB00F393FBF2F31E44C8E76092FF1FD6
:103570003093FF1F8092FF1F3087FF1FE4388E3E7D
:103580000000C8423887FF1F742801007492FF1F93
:10359000C887FF1F801D0100141E01001C1E0100B2
:1035A00038C4FF1FE494FF1F00007A444C87FF1FBC
:1035B000E01D0100EC1D0100841D0100F81D01004B
:1035C0000C1E010030B5112083B005F0D9FC012894
:1035D00018D0122005F0D4FC012813D000210B20B4
:1035E00005F0C8FC00210C2005F0C4FC00211520CA
:1035F00005F0C0FC2649274B0120002208701A6004
:1036000003B030BD0121152005F0B4FC224A234C43
:10361000234B1268D4F8941001921B68019A1D4D37
:103620000B4493424FF00201296005D901210C207F
:1036300005F0A0FC03B030BDD4F89C0009F00EFCEE
:10364000184B196809F0FCFD0028EFD101210B206F
:1036500005F090FC94F8C03003242C6043B10C4B6F
:1036600002221A7000210C2005F084FC03B030BD4A
:10367000122005F085FC012808BF054B4FF0110012
:1036800008BF1C7005F07CFC0128EBD1E7E700BF08
:103690009C94FF1FD894FF1F38C4FF1F3093FF1F57
:1036A000E094FF1F7492FF1FF0B5684E684D3468B8
:1036B0002B689C4287B039D014F0010155D014F02A
:1036C000020149D014F004013DD0E3070ED52B6868
:1036D000DF070BD45F4F3A68002A00F082805E4B10
:1036E0001B680193019B93426DD83468A0070DD5E8
:1036F0002B6899070AD4594F3A68002A4CD0564B88
:103700001B680393039B934238D8346862070DD536
:103710002B685B070BD4524F3A68002A7ED04E4B81
:103720001B680593059B934268D834680CB107B0B9
:10373000F0BD2146162005F09DFA2146172005F020
:1037400099FA07B0F0BD052005F094FA2B683468AB
:1037500003F0FB032B60B8E7172005F08BFA2B680A
:10376000346803F0FD032B60ACE7162005F082FA05
:103770002B68346803F0FE032B60A0E7394B172059
:10378000D3F8981005F076FA2B68346843F00203FA
:1037900000222B603A60B9E7334804F0CBFD0C21DE
:1037A000324807F071F9304804F0C4FDFF211720BA
:1037B00005F060FA284B2E4A1968029102991268A6
:1037C0000A443A609CE7274B1620D3F8981005F07E
:1037D00051FA2B68346843F0010300222B603A60F1
:1037E00084E7FF21162005F045FA1B4B204A196893
:1037F0000091009912680A443A6071E7194B05205C
:10380000D3F8981005F036FA2B68346843F00403B7
:1038100000222B603A60002C89D18AE7124804F01C
:1038200089FD0C21134807F02FF90F4804F082FDA1
:10383000FF21052005F01EFA074B0D4A1968049177
:10384000049912680A443A606AE700BFD894FF1FDF
:10385000F493FF1F7094FF1F38C4FF1F7494FF1F61
:103860007894FF1F3093FF1FC887FF1F201E0100A1
:103870006487FF1F301E01002DE9F047544EDFF82A
:103880007481DFF874913068524D00220F2103F0EB
:1038900095FF0023012222214F48C8F80030C9F8C3
:1038A000002007F0F1F8D8F80030132B22DC40F6A6
:1038B000E44700213068B5F888A003F0D1FF00216B
:1038C0000446306803F052FFA4B2012107FB04F460
:1038D000B4FBF0F441485444A5F8884007F0D4F80C
:1038E000642005F083FBD8F800300133132BC8F8AF
:1038F0000030DEDDB5F88830394A3A48A2FB0312C1
:103900009B1A02EB5303C3F30F131946A5F8883033
:1039100004F060FD1D21344807F0B6F80221334859
:1039200007F0B2F82F4804F005FD00231A460E21D7
:103930003068C8F8003003F041FF022322212648F6
:10394000C9F8003007F0A0F8D8F80030132B22DCBB
:1039500040F6E44700213068B5F88A9003F080FF14
:1039600000210446306803F001FFA4B2012107FBE7
:1039700004F4B4FBF0F419484C44A5F88A4007F06D
:1039800083F8642005F032FBD8F800300133132BA4
:10399000C8F80030DEDDB5F88A30114A1148A2FBC4
:1039A00003129B1A02EB5303C3F30F131946A5F836
:1039B0008A3004F00FFD1D210D4807F065F8022143
:1039C0000A4807F061F80748BDE8F04704F0B2BCC8
:1039D000B094FF1F3093FF1F401E0100841E0100A2
:1039E00087611886C887FF1F641E010074280100C4
:1039F000881E01009494FF1F4C87FF1FF8B5774B7A
:103A0000774C784D1B68686D40F251310822216077
:103A1000E271002B00F0DD8009F020FA296A0646E9
:103A200009F070FA704909F06DFA09F06DFC80B286
:103A3000031263726D4A6E4B12681B68A96920728B
:103A40001512A37230461B12E3722273657309F0DC
:103A500059FA654909F056FA09F056FC83B21A1270
:103A60005F496448A373E27303F0CAFC624B634A84
:103A70001B6812885A49A272DFB207EB870603EB74
:103A80008305760045F3D71512121B122772267391
:103A900065730826002540F255375648E272637276
:103AA0002760E671A573E57303F0AAFC40F2563374
:103AB00053482360E671FDF7DFFE524909F022FA10
:103AC00009F022FC20724E48FDF7D6FE4D4909F060
:103AD00019FA09F019FC4C4A4A49C0F30723106847
:103AE000637209F0C3FA09F0E9FB40FA06F20346F3
:103AF0004348E272A372FDF7E7FE3B4909F002FA80
:103B000009F002FC20733E48FDF7DEFE364909F05D
:103B1000F9F909F0F9FB3249A573C0F307233548D9
:103B20006373E57303F06CFC022005F05FFA374B1A
:103B30002B49187893F801E09F78DA78207240F2E8
:103B40005A332C48E67125736573A573E57384F8C1
:103B500009E0A772E272236003F052FC2C4B20496B
:103B600018785D789A782072187993F803E05F7975
:103B70006572A2729D79DA79207340F25E331D4836
:103B800084F80BE0E2732360E6716773A57303F0BA
:103B900037FC022005F02AFA1E4BE6711D785A7890
:103BA00093F802E0D8781F795E79257262729D7968
:103BB000DA79E0724FF45C7384F80AE02773667375
:103BC000A573E273236006490A48BDE8F84003F094
:103BD00017BC09F043F96969064621E76892FF1F9F
:103BE000C894FF1F3093FF1F00002041A894FF1FBF
:103BF0004C92FF1F74C2FF1F3087FF1F3487FF1FC7
:103C0000E494FF1F0000C8427492FF1F2C93FF1F13
:103C10002887FF1F5087FF1FF0B58D4C8D4D83B057
:103C200006F0CCFE23682860042B00F08C82022B67
:103C30004BD0082B00F09280072B40F031813328C5
:103C400001F0518400F30A83312801F036843228D0
:103C500040F0928006F0EEFE002840F31F817E487F
:103C60007E4E04F0FBFC09F0F9F87D4909F04AF9B1
:103C700061230122F06322602B601846A0F15203F9
:103C80001F2B01F20A84DFE813F0960B080C080CD6
:103C9000080C080C080C080C080C080C080C080C84
:103CA000080C080C080C080CBC03190D5E05F70580
:103CB000C904080C080C080C3004080C160D080C7C
:103CC000080C080C080C080C840BA0F13102422AE5
:103CD00052D8DFE812F00F072A0738077707860760
:103CE000F80651005100510051005100510051009F
:103CF000510051005100510051005100510051003C
:103D0000510051005100510051005100510051002B
:103D1000510051005100510051005100510051001B
:103D2000510051005100510051005100510051000B
:103D3000510051005100510051000907510051003C
:103D400051005100510051005100510051005100EB
:103D50005100510051004D0051001B07322800F066
:103D6000128340F33383332800F02883712803D172
:103D70000023732023602860002B08BF73280CBF2A
:103D800001200020002860D0334804F0D3FA042139
:103D9000344806F079FE304804F0CCFA102132485D
:103DA00006F072FE2C4804F0C5FA13212F4806F0E5
:103DB0006BFE2F4B2848196804F00CFB264804F0D2
:103DC000B9FA14212B4806F05FFE234804F0B2FA3A
:103DD0001E21294806F058FE1F4804F0ABFA1521B1
:103DE000264806F051FE1C4804F0A4FA1E2124487F
:103DF00006F04AFE184804F09DFA2021214806F0FA
:103E000043FE154804F096FA19211F4806F03CFEBF
:103E1000114804F08FFA12211C4806F035FE0E48B6
:103E200004F088FA0F211A4806F02EFE0A4804F022
:103E300081FA0D21174806F027FE074804F07AFAA8
:103E4000154A002101231160236003B0F0BD00BFBB
:103E50008492FF1F7092FF1FC887FF1F3093FF1FC0
:103E60006F12833AF0260100F82601000C270100AA
:103E70002087FF1F20270100382701005827010055
:103E80007027010090270100B4270100D02701000E
:103E9000E4270100F42701003887FF1F2368286802
:103EA000062B40F08D80A0F13102402A3FF664AF2E
:103EB00001A151F822F000BF014A0000794A000038
:103EC0002D4A0000534A0000AB490000C9490000D8
:103ED000ED490000793D0000793D0000793D00008A
:103EE000793D0000793D0000793D0000793D0000FA
:103EF000793D0000793D0000793D0000793D0000EA
:103F0000793D0000793D0000793D0000793D0000D9
:103F1000793D0000793D0000793D0000793D0000C9
:103F2000793D0000793D0000793D0000793D0000B9
:103F3000793D0000793D0000793D0000793D0000A9
:103F4000793D0000793D0000793D0000793D000099
:103F5000793D0000793D0000793D0000793D000089
:103F6000793D0000793D0000793D0000793D000079
:103F7000793D0000793D0000793D0000793D000069
:103F8000793D0000793D0000793D0000793D000059
:103F9000793D0000793D0000793D0000793D000049
:103FA000793D0000793D0000793D0000793D000039
:103FB000793D0000793D0000713D000023682868CC
:103FC000052B15D1332801F0A18240F35B81352800
:103FD00001F0C382C1F2AB8271287FF4CDAEB44A46
:103FE00000237320136023602860C5E623682868D7
:103FF000032B40F0A480A0F13002422A3FF6BCAE71
:1040000001A151F822F000BF15410000FD51000050
:104010004B51000091510000B3510000D5510000F8
:10402000E35200000B530000295300004D530000E1
:10403000793D0000793D0000793D0000793D0000A8
:10404000793D0000793D0000793D0000793D000098
:10405000793D0000793D0000793D0000793D000088
:10406000793D0000793D0000793D0000793D000078
:10407000793D0000793D0000793D0000793D000068
:10408000793D0000793D0000793D0000793D000058
:10409000793D0000793D0000793D0000793D000048
:1040A000793D0000793D0000793D0000793D000038
:1040B000793D0000793D0000793D0000793D000028
:1040C000793D0000793D0000793D0000C5520000B7
:1040D000F54C00007553000073510000675200005A
:1040E00085520000AB4C0000CF4C0000793D000031
:1040F000793D0000793D0000793D0000793D0000E8
:10410000793D0000793D0000793D00002552000016
:104110003152000006F08EFC002841F3C78165484B
:10412000654E04F09BFA012703460146622263486C
:10413000B36527602A60FDF7A1FB23682868012B7F
:104140007FF41AAE9AE5A0F13102402A3FF614AE90
:1041500001A151F822F000BF454C0000494C00007D
:104160004D4C00006F4C0000734C00008F4C000061
:10417000034C00001B4C00001F4C0000793D000068
:10418000793D0000793D0000793D0000793D000057
:10419000793D0000793D0000793D0000793D000047
:1041A000793D0000793D0000793D0000793D000037
:1041B000793D0000793D0000793D0000793D000027
:1041C000793D0000793D0000793D0000793D000017
:1041D000793D0000793D0000793D0000793D000007
:1041E000793D0000793D0000793D0000793D0000F7
:1041F000793D0000793D0000793D0000793D0000E7
:10420000793D0000793D0000793D0000793D0000D6
:10421000793D0000793D0000793D0000793D0000C6
:10422000793D0000793D0000793D0000793D0000B6
:10423000793D0000793D0000793D0000793D0000A6
:10424000793D0000793D0000793D0000793D000096
:10425000793D0000793D0000713D000034287FF475
:1042600085AD06F0E7FB00287FF718AE1148124E27
:1042700004F0F4F961230122A6F8B80022602B6053
:104280001846FBE4312801F0768132287FF474ADC2
:1042900006F0D0FB00287FF7A9AE0648064E04F0D2
:1042A000DDF901226B23C6F89C0022602B6009E037
:1042B0008C94FF1FC887FF1F3093FF1FE494FF1FDC
:1042C00006F07CFB06F0B6FB0028F9D1B84804F0F4
:1042D00031F8B74804F02EF8B54804F02BF8B4488C
:1042E00004F028F8B24804F025F82121B14806F07E
:1042F000CBFBAF4804F01EF81521AF4806F0C4FB15
:10430000D6F89410AA4804F065F80221AB4806F0EC
:10431000BBFBA74804F00EF81E21A94806F0B4FB29
:10432000D6F89C10A24804F055F80321A54806F0E1
:10433000ABFB9F4803F0FEFF1E21A34806F0A4FB41
:10434000D6F898109A4804F045F8994803F0F2FF1F
:104350001D219E4806F098FBD6F8A410944804F05E
:1043600039F8934803F0E6FF1E21994806F08CFBCC
:10437000D6F8A8108E4804F02DF88D4803F0DAFF27
:104380000523236061E506F055FB00281BDD884806
:10439000904E04F063F908F061FD8F4908F0B2FD1A
:1043A000336C96F84410074602468C48B764FDF714
:1043B00067FA01236920236028605FE406F03AFB76
:1043C000002800F36F832368286835E431287FF4E0
:1043D000D3AC06F02FFB002840F3628474487D4E76
:1043E00004F03CF9C0B286F8440002288ABF0021DC
:1043F000014686F84410336CB26C7848D7E706F073
:10440000DDFA06F017FB05460028F8D16848714E22
:1044100003F090FF664803F08DFF654803F08AFFC4
:10442000634803F087FF624803F084FF1F216C4854
:1044300006F02AFB5E4803F07DFF1C21694806F068
:1044400023FB706A684908F05DFD08F0B1F800953B
:1044500002460B46564803F0C7FF0221634806F0A8
:1044600013FB534803F066FF2321614806F00CFB61
:10447000F06B5D4908F046FD08F09AF80095024699
:104480000B464B4803F0B0FF0221584806F0FCFAF7
:10449000474803F04FFF1921564806F0F5FAB06B74
:1044A00008F086F802250B4602460095404803F0C6
:1044B0009BFF2946504806F0E7FA3D4803F03AFFD3
:1044C00019214E4806F0E0FAB6F8B810384803F063
:1044D00081FF03214A4806F0D7FA354803F02AFF46
:1044E00007232360B1E406F069FA06F0A3FA054653
:1044F0000028F8D12E48374E03F01CFF2C4803F05B
:1045000019FF2B4803F016FF294803F013FF284832
:1045100003F010FF15213B4806F0B6FA244803F0DB
:1045200009FF1821384806F0AFFA2B460A2296F800
:1045300044101F4803F00EFF1D4803F0FBFE282126
:10454000324806F0A1FAB06C274908F0DBFC08F00D
:104550002FF8009502460B46154803F045FF02214F
:10456000224806F091FA124803F0E4FE242128487C
:1045700006F08AFA306C1C4908F0C4FC08F018F800
:1045800000950B4602460A4803F02EFF0221174809
:1045900006F07AFA064803F0CDFE13211D4806F016
:1045A00073FA034803F0C6FE082323604DE400BFFE
:1045B000C887FF1F682101008C21010078200100BD
:1045C000A42101006C1D0100C4210100E4210100AF
:1045D000042201003093FF1F6F12833AE494FF1FFF
:1045E000C4200100E420010000007A44201F0100E3
:1045F000042101002821010044210100482101007B
:1046000064210100B8270100D81E0100F41E01003A
:10461000241F01004C1F010006F0D0F906F00AFA31
:1046200005460028F8D17F487F4E03F083FE7D4881
:1046300003F080FE7B4803F07DFE7A4803F07AFEAB
:10464000784803F077FE1121784806F01DFA754886
:1046500003F070FE2821764806F016FA7069754955
:1046600008F050FC07F0A4FF009502460B466D4889
:1046700003F0BAFE0221704806F006FA694803F01A
:1046800059FE16216D4806F0FFF9F069694908F0F6
:1046900039FC07F08DFF00950B460246614803F098
:1046A000A3FE0221644806F0EFF95E4803F042FEE3
:1046B000D6F8B030002B32DD1D21614806F0E4F958
:1046C000306E08F0CBFB5F4908F01CFC07F070FF70
:1046D000022502460B460095524803F085FE012153
:1046E000594806F0D1F94F4803F024FE1F215748DE
:1046F00006F0CAF9706E08F0B1FB524908F002FCEE
:1047000007F056FF009502460B46464803F06CFE44
:1047100001214D4806F0B8F9424803F00BFE112183
:104720004B4806F0B1F9D6F8B030062B00F260869F
:10473000DFE813F0A906AE06A4069F069A069506C2
:104740005A0606F03BF906F075F90028F9D135480C
:10475000354E03F0EFFD334803F0ECFD314803F034
:10476000E9FD304803F0E6FD2E4803F0E3FD1F218C
:10477000384806F089F92B4803F0DCFD1E21364845
:1047800006F082F9274803F0D5FD1A21334806F0D8
:104790007BF9D6F88030022B00F06487032B00F001
:1047A0005887012B00F04C8709212D4806F06CF941
:1047B0001C4803F0BFFD14212A481B4F06F064F982
:1047C000F16F184803F006FE164803F0B3FD1C21F4
:1047D000254806F059F9D6F88410124803F0FAFD7E
:1047E000104803F0A7FD1C21204806F04DF9D6F82B
:1047F000AC100C4803F0EEFD0A4803F09BFDD6F820
:10480000805025F00205012D00F0D38613211848B1
:1048100006F03AF9034803F08DFD02232360FFF709
:1048200014BB00BFC887FF1F3093FF1F5C27010028
:10483000601F010000007A44201F01008C1F01004E
:10484000A41F0100CDCCCC3D48240100C41F0100B1
:10485000E41F010008230100282301004823010070
:10486000C0230100CC230100E42301000424010043
:104870004C1F010006F0A2F806F0DCF80028F9D180
:10488000B74803F057FDB64803F054FDB44803F0B1
:1048900051FDB34803F04EFDB14803F04BFD132129
:1048A000B04806F0F1F8AE4803F044FD0D21AE48E3
:1048B00006F0EAF8AA4803F03DFD0F21AB4806F0E8
:1048C000E3F8AB4BA648196803F084FDA44803F055
:1048D00031FD1321A74806F0D7F8A74BA048196867
:1048E00003F078FD9E4803F025FD1221A34806F051
:1048F000CBF8A34B9A48196803F06CFD984803F075
:1049000019FD11219F4806F0BFF89F4B9448196884
:1049100003F060FD924803F00DFD0E219B4806F068
:10492000B3F89B4B8E48D3F8A01003F053FD8C488E
:1049300003F000FD1921974806F0A6F8964B884829
:10494000196803F047FD864803F0F4FC11219348F1
:1049500006F09AF8924B8248196803F03BFD8048B4
:1049600003F0E8FC10218F4806F08EF88E4B7C484F
:10497000196803F02FFD7A4803F0DCFC1C218B48FA
:1049800006F082F88A4B7648196803F023FD7448D4
:1049900003F0D0FC1321874806F076F8704803F046
:1049A000C9FC04232360FFF750BA794AD2F8B0302B
:1049B0000133062BC8BF0023C2F8B03001236520A5
:1049C00023602860FFF75AB906F034F800287FF713
:1049D000F5AA63486E4E03F041FE65230122C6F836
:1049E000B40022602B601846FFF748B9684B93F873
:1049F000C020002A00F0D085002283F8C020DDE727
:104A000006F018F800287FF7D9AA5548604E03F041
:104A100025FE08F023FA684908F028FB65230122E7
:104A2000706122602B601846FFF728B906F002F883
:104A300000287FF7C3AA4A48554E03F00FFE00EB4B
:104A40008000430001226520336622602860FFF762
:104A500015B905F0EFFF00287FF7B0AA40484C4E8B
:104A600003F0FCFD00EB800043000122652073662B
:104A700022602860FFF702B905F0DCFF00287FF70D
:104A80009DAA3748424E03F0E9FD08F0E7F94A498C
:104A900008F0ECFA65230122F06122602B601846D1
:104AA000FFF7ECB82E483A4E03F0D8FD08F0D6F9DF
:104AB000424908F027FA07460346B26C96F84410BC
:104AC0003F48376473E40123236005F0B3FF0028F7
:104AD00005DD23482E4E03F0C1FDA6F8BA00632081
:104AE00028602368FFF7A8B8FEF7C6FE2368286889
:104AF000FFF79FB8264EF36FB3FA83F35B090122E9
:104B00006320F36722602860FFF7B8B8204AD2F824
:104B100080300133032BC8BF0023C2F8803001234B
:104B2000632023602860FFF7A9B8194ED6F88430B7
:104B3000B3FA83F35B0901226320C6F88430226054
:104B40002860FFF79BB80123236005F073FF00285E
:104B5000E5DD03480E4E03F081FDC6F8AC00DEE74C
:104B6000C887FF1F242201003822010048220100CB
:104B70006C94FF1F58220100DC94FF1F6C2201007F
:104B8000C094FF1F80220100C494FF1F94220100E3
:104B90003093FF1FA42201009094FF1FC022010048
:104BA0008C94FF1FD42201006C92FF1FE8220100A9
:104BB0005887FF1F4C1F010000007A446F12833A90
:104BC000E494FF1F0123236005F034FF002886DDF5
:104BD0005048514E03F042FD08F040F9C6F89000ED
:104BE0007DE70123236005F025FF00287FF777AFDD
:104BF0004848494E03F032FD08F030F9C6F88C0001
:104C00006DE7464A1368B3FA83F35B090121642018
:104C1000136021602860FFF731B8414AF2E70123B1
:104C2000236005F007FF002800F3BB843D4B1A68A2
:104C3000042AC4BF02221A6064232B602368642004
:104C4000FEF7F7BF384ADDE7384ADBE7384A394F25
:104C50001368002B0CBF012300234FF001001360E9
:104C6000206040F0D784034664222A60E7E7324A96
:104C7000C8E7294ED6F8A030B3FA83F35B090122C6
:104C80006420C6F8A03022602860FEF7F7BF012339
:104C90002A482360FCF782FC294A23681060E3E776
:104CA0001D4E96F84400FFF7A0BB05F0C3FE002898
:104CB0000DDD1848184E03F0D1FC08F0CFF821495B
:104CC00008F0D4F901226223306222602B6005F0E3
:104CD000B1FE00280EDD0F480F4E03F0BFFC08F0B8
:104CE000BDF8184908F0C2F901226223C6F8BC00D9
:104CF00022602B6005F09EFE002840F3D783054814
:104D0000054E03F0ABFC01226223F06622602B60AB
:104D10001CE000BFC887FF1F3093FF1F8C94FF1F4C
:104D20006C92FF1F5887FF1F6C94FF1FDC94FF1FBE
:104D3000C094FF1F8492FF1FC494FF1FE494FF1FC1
:104D40009094FF1F00007A4405F038FE05F072FED3
:104D500005460028F8D1C24803F0ECFAC04803F039
:104D6000E9FABF4803F0E6FABD4803F0E3FABC48AD
:104D700003F0E0FA1521BB4805F086FEB84803F0C1
:104D8000D9FA1421B84805F07FFEB54803F0D2FAED
:104D90001B21B64805F078FEB14803F0CBFA132189
:104DA000B34805F071FEAE4803F0C4FAAC4803F016
:104DB000C1FAAB4803F0BEFA2021AE4805F064FE0C
:104DC000F068AD4908F09EF807F0F2FB0095024646
:104DD0000B46A34803F008FB0221A84805F054FE47
:104DE0000221A74805F050FE9D4803F0A3FA2121B7
:104DF000A44805F049FE30699F4908F083F807F0A0
:104E0000D7FB009502460B46954803F0EDFA0221C8
:104E10009A4805F039FE0221994805F035FE904880
:104E200003F088FA1F21984805F02EFEB06A07F0BB
:104E3000BFFB022702460B460097894803F0D4FACD
:104E40000121924805F020FE39468D4805F01CFEF0
:104E5000834803F06FFA20218D4805F015FEF06AB3
:104E600007F0A6FB009702460B467D4803F0BCFA0C
:104E70000121864805F008FE3946814805F004FE08
:104E8000774803F057FA2321824805F0FDFDF06CC6
:104E9000794908F037F807F08BFB009502460B467E
:104EA0006F4803F0A1FA3946744805F0EDFD394624
:104EB000734805F0E9FD6A4803F03CFA1F21764883
:104EC00005F0E2FD306D6C4908F01CF807F070FB4E
:104ED000009502460B46624803F086FA3946674859
:104EE00005F0D2FD3946664805F0CEFD5C4803F07A
:104EF00021FA1921694805F0C7FDF16D584803F002
:104F000069FA3946664805F0BFFD39465C4805F048
:104F1000BBFD534803F00EFA1821624805F0B4FDBA
:104F2000B06E07F09BFF604907F0ECFF07F040FB15
:104F3000009702460B464A4803F056FA01215B48A7
:104F400005F0A2FD39464E4805F09EFD444803F0A9
:104F5000F1F92B21564805F097FDB069464907F055
:104F6000D1FF07F025FB009502460B463C4803F0B5
:104F70003BFA3946414805F087FD3946404805F07F
:104F800083FD374803F0D6F91F214A4805F07CFD20
:104F9000B16D334803F01EFA3946394805F074FD07
:104FA0002F4803F0C7F92021434805F06DFD716DCE
:104FB0002B4803F00FFA3946314805F065FD2848C3
:104FC00003F0B8F910213D4805F05EFDF16E24486C
:104FD00003F000FA3946294805F056FD39462848BD
:104FE00005F052FD1E4803F0A5F91321344805F0E1
:104FF0004BFD316F1A4803F0EDF90121314805F0FE
:1050000043FD39461E4805F03FFD154803F092F96F
:1050100010212D4805F038FD716F114803F0DAF9C1
:105020003946164805F030FD3946154805F02CFD87
:105030000B4803F07FF91421244805F025FDB16FDA
:10504000074803F0C7F901211E4805F01DFD394648
:105050000B4805F019FD024803F06CF9162137E002
:10506000C887FF1F90240100A8240100C02401006C
:105070004C1F0100DC24010000007A44201F0100C5
:10508000742801000025010024250100901A010068
:1050900044250100682501008C250100AC25010094
:1050A000C8250100CC250100CDCCCC3D4824010011
:1050B000E8250100142601003426010058260100CD
:1050C0006C2601008026010084260100982601003C
:1050D000BA4805F0D9FC306AB94907F013FF07F068
:1050E00067FA009502460B46B64803F07DF939464B
:1050F000B54805F0C9FC3946B44805F0C5FCB148CF
:1051000003F018F92421B24805F0BEFCD6F8BC0023
:10511000AB4907F0F7FE07F04BFA00950B46024645
:10512000A84803F061F93946A74805F0ADFC3946B7
:10513000A64805F0A9FCA34803F0FCF8A14803F039
:10514000F9F803232360FEF780BE05F073FC002806
:1051500040F3AC819B489F4E03F080FA07F07EFE3F
:10516000974907F083FF01226223306122602B60A0
:10517000ECE505F05FFC002840F398819148954EDE
:1051800003F06CFA01226223706722602B60DDE578
:1051900005F050FC002840F389818A488D4E03F0C9
:1051A0005DFA07F05BFE01226223B06222602B6091
:1051B000CCE505F03FFC002840F378818148854E1E
:1051C00003F04CFA07F04AFE01226223F0622260EB
:1051D0002B60BBE505F02EFC002840F36781794881
:1051E0007C4E03F03BFA07F039FE754907F03EFFAD
:1051F00001226223F06422602B60A7E505F01AFC0F
:10520000002840F353816F48724E03F027FA07F0ED
:1052100025FE6B4907F02AFF01226223F06022601D
:105220002B6093E50022732322602B60FEF7ACBD58
:10523000694B6648674E002202211A6005F024FC83
:10524000604803F077F80B21644805F01DFC02214B
:105250005E4805F019FC5B4803F06CF801226223FC
:1052600022602B6072E505F0E5FB002840F31E810B
:105270005448584E03F0F2F901226223B0672260CD
:105280002B6063E5FCF760FF02215048514E05F0AA
:10529000FBFB4C4803F04EF802214C4805F0F4FBB0
:1052A000484803F047F80221484805F0EDFB45481F
:1052B00003F040F817214A4805F0E6FB414803F0A7
:1052C00039F8C4E705F0B6FB002840F3EF803D480D
:1052D000404E03F0C3F901226223706522602B6007
:1052E00034E505F0A7FB002840F3E0803548394E4F
:1052F00003F0B4F907F0B2FD314907F0B7FE01221F
:105300006223306522602B6020E505F093FB0028C6
:1053100040F3CC802B482F4E03F0A0F901226223EA
:10532000F06522602B6011E505F084FB002840F356
:10533000BD802448274E03F091F900EB8000430024
:1053400001216222B36621602A60FFE405F072FB4E
:10535000002840F3AB801B481E4E03F07FF907F096
:105360007DFD174907F082FE01226223B0612260B1
:105370002B60EBE405F05EFB002840F397801148BA
:10538000144E03F06BF901226223306722602B6018
:10539000DCE4C42200210F4803F054FA2868114AC3
:1053A000A0F1730001210023B0FA80F040091160E0
:1053B0002360FEF7E7BC04F0CFFC00BFB02601007D
:1053C00000007A44C887FF1F201F010074280100D5
:1053D000C82601003093FF1F6092FF1FCC1E010002
:1053E000B41E01003887FF1F0421B64805F04CFBAE
:1053F000B548B64D02F09EFFD6F8B030002B12DD56
:105400001821B34805F040FBD5F8B410AE4802F0BF
:10541000E1FF0221AF4805F037FBAB4802F08AFFFD
:10542000A94802F087FF1B21AB4805F02DFB96F839
:10543000C030012B15BF12211421A848A84805F03F
:1054400023FBA14802F076FF1321A64805F01CFBC0
:105450009D4802F06FFF06232360FEF7F6BC0B2188
:10546000A14805F011FBC3E70D21A04805F00CFB96
:10547000BEE70D219E4805F007FBB9E70C219D48CA
:1054800005F002FBB4E70D219B4805F0FDFAAFE7FC
:105490000C219A4805F0F8FAAAE72368002B08BF08
:1054A00073280CBF01200020FEF76CBC236828681D
:1054B000012B7EF461ACFEF7E1BB05F0BBFA0028DE
:1054C0007EF7ECAC8048814E03F0C8F807F0C6FCCC
:1054D0008B4907F017FD61230122706222602B6067
:1054E0001846FEF7CBBB05F0A5FA00287EF7D6AC30
:1054F0007548764E03F0B2F807F0B0FC6123012244
:10550000B06322602B601846FEF7B8BB05F092FA34
:1055100000287EF76BAD6C486C4E03F09FF80122BB
:105520006B23C6F8980022602B60FEF7CBBE05F017
:1055300081FA00287EF75AAD6348644E03F08EF876
:10554000704BC6F8A40002221A60FDF755F901223B
:105550006B2322602B60FEF7B5BE05F06BFA0028C6
:105560007EF744AD5848594E03F078F8654BC6F8BD
:10557000A8000322E8E705F05DFA00287EF736ADC3
:105580005148524E03F06AF801226B23C6F894008A
:1055900022602B60FEF796BE012283F8C020FFF741
:1055A0000DBA494803F05AF8574B02461860FFF706
:1055B0003FBB1C21554805F067FAD7F890005449C5
:1055C00007F0A0FC06F0F4FF009502460B463E48AB
:1055D00002F00AFF05214F4805F056FA3A4802F05A
:1055E000A9FED7F88050012D45D0032D7FF40EA9D8
:1055F0001C21494805F048FAB6F8BA10324802F0C2
:10560000E9FE0321454805F03FFA2F4802F092FEDB
:10561000FFF7FCB8424B002631460B201E6003F01A
:10562000A9FC31460C2003F0A5FC3146142003F000
:10563000A1FC3146152003F09DFC3B68FFF714BB2D
:105640001E21384805F020FA1F4802F073FEFFF7CC
:10565000B2B82021344805F017FA1B4802F06AFE60
:10566000FFF7A9B81721314805F00EFA164802F0E5
:1056700061FEFFF7A0B81D212D4805F005FAD7F807
:105680008C00234907F03EFC06F092FF00950B4684
:1056900002460D4802F0A8FE05211E4805F0F4F967
:1056A000094802F047FED7F8803023F00203012BAF
:1056B0009ED0FFF7ABB8054EFEF704BE034EFFF7D2
:1056C00045BB00BF54200100C887FF1F3093FF1F58
:1056D0005C200100782001007C200100982001005E
:1056E000AC2001004C1F01004820010038200100BF
:1056F0002820010018200100F81F010008200100E7
:105700006F12833A8C94FF1F5887FF1F24240100D7
:10571000CDCCCC3D442401006C2401008C2401003C
:10572000D894FF1F6423010084230100A8230100F3
:105730004C24010038B5174C174A2368101D12F885
:10574000011F904241EA0323F9D12360134C03F176
:1057500000432360124BD3F88030022B11D0114B41
:105760001B68012B00D038BD0F4802F0E3FD216813
:105770000D4802F02FFE03210C48BDE8384005F02B
:1057800083B920680A4D07F069FB2860FDF7F6FA37
:10579000E5E700BF4492FF1F8394FF1FA494FF1FFF
:1057A0003093FF1F6C94FF1FC887FF1F0428010060
:1057B0006492FF1F30B53F4C3F4883B0214601F053
:1057C00017FD236840F2C232934258D06FF4C06193
:1057D0005A18B2F5FF7F4CD903F100436FF4C06251
:1057E0001344B3F5FF7F3FD9344B1B68012B01D025
:1057F00003B030BD324B1B68012BF9D1314B32481D
:105800001B6801930A220023019902F0A3FD22687C
:10581000284B002ADB7945DB2C492D4808F050FB4A
:105820002B4808F08DFB0146294805F02DF9256825
:10583000204B15F0804526D1DB798BB163192549C2
:105840001A7A234808F03CFB214808F079FB01460E
:105850001F4805F019F90135E379EDB2AB42EDD8F7
:10586000194802F067FDC3E712491B48FBF7BCFE6D
:10587000BAE710491848FBF7B7FE2368ACE7FFF713
:1058800059FF2368A2E7154D114C0FCD0FC495E8C1
:10589000030044F8040B204620F81419152105F0E4
:1058A000F3F8DDE70E490A4822F0604208F008FBF1
:1058B000B6E700BF7C94FF1F74C2FF1F3887FF1F2D
:1058C0006C94FF1F38C4FF1FC887FF1F30280100DA
:1058D0008892FF1F5C280100E494FF1F4428010008
:1058E0000828010008B5274802F024FD07212648B2
:1058F00005F0CAF8112003F043FB0621F8B1234854
:1059000005F0C2F8122003F03BFB062100B320484B
:1059100005F0BAF8122003F033FB062108B31D4846
:1059200005F0B2F8132003F02BFB062110BB1A4838
:1059300005F0AAF81348BDE8084002F0FBBC174880
:1059400005F0A2F8122003F01BFB06210028DED18F
:10595000134805F099F8122003F012FB06210028E5
:10596000DDD1104805F090F8132003F009FB062163
:105970000028DCD00C4805F087F80248BDE8084054
:1059800002F0D8BCC887FF1F6828010070280100FA
:105990008028010090280100A82801007828010033
:1059A0008828010098280100A028010010B5254C86
:1059B0002368042B27DC01210B2003F0DBFA0121F3
:1059C0000C2003F0D7FA0121142003F0D3FA0121AF
:1059D000152003F0CFFAFF21162003F04BF9FF2129
:1059E000172003F047F9FF21052003F043F9FF21B9
:1059F000062003F03FF9236801330A2B2360C4BF5C
:105A00000023236010BD00210B2003F0B3FA002116
:105A10000C2003F0AFFA0021142003F0ABFA0021B0
:105A2000152003F0A7FA0021162003F023F9002126
:105A3000172003F01FF90021052003F01BF90021B6
:105A4000D6E700BFBC94FF1F10B5092182B097486C
:105A500003F0ACFD222003F051FD954B1B78052B84
:105A60000BD8DFE813F00A010F01140119011E0120
:105A7000060007218F4803F099FD222003F03EFD28
:105A8000FF2003F03BFDFF2003F038FD8A4CFF2090
:105A900003F034FD0821894803F088FD2168884817
:105AA00002F098FCFF2003F029FDFF2003F026FD03
:105AB000FF2003F023FD0921824803F077FD2168D0
:105AC0007F4802F087FCFF2003F018FDFF2003F061
:105AD00015FDFF2003F012FD0C217B4803F066FD4D
