:1000000000800020BD0100008176000039760000EC
:100010003976000039760000397600003976000024
:1000200039760000397600003976000081760000CC
:1000300081760000397600008D8F000091900000DD
:1000400081760000817600008176000081760000D4
:1000500081760000817600008176000081760000C4
:1000600081760000817600008176000081760000B4
:1000700081760000817600008176000081760000A4
:100080008176000081760000817600008176000094
:100090008176000081760000817600008176000084
:1000A0008176000081760000817600008176000074
:1000B00081760000556A0000616A0000656A0000F0
:1000C000716A0000756A0000796A0000817600009C
:1000D0008176000081760000817600008176000044
:1000E0008176000081760000817600008176000034
:1000F000817600005596000081760000F57C0000B6
:10010000817600000D80000081760000817600007D
:100110008176000081760000817600008176000003
:1001200081760000817600008176000081760000F3
:1001300081760000817600008176000081760000E3
:1001400081760000817600008176000081760000D3
:1001500081760000817600008176000081760000C3
:1001600081760000598200008176000081760000CF
:1001700081760000817600008176000081760000A3
:100180008176000081760000817600008176000093
:100190008176000081760000817600008176000083
:1001A0008176000081760000817600008176000073
:1001B000817600008176000081760000564B4CF27B
:1001C000205210B51A804DF628121A8000BF00BFC9
:1001D00007F05AFA514B4FF010621A60504A9A6079
:1001E000504ADA60504A136813F4807304D14F49BF
:1001F0000B604FF4A85313604D4B1A78110703D5C9
:100200001A7842F008021A704A4B4B492A221A7097
:100210004A4A4B4B8B4204D252F8040F43F8040B6A
:10022000F8E7484B484900228B4202D243F8042B9E
:10023000FAE74649464A002352F8230041F82300D2
:1002400001336F2BF8D1434B434A802103F8011B44
:100250009342FBD1414B3D4A1A60414B8A221A70AE
:10026000A3F5805324225A70A0221A709A7992071B
:10027000FCD59A79D406FCD43A4A937903F00C035E
:10028000082B384BF9D103221A7140225A719A79FE
:100290009006FCD5334A9179324B4906FBD5324A58
:1002A000324911600221516020221A709A7902F0BD
:1002B0000C020C2AFAD12E4B2E4A1A602E4B2F4AD2
:1002C0001A6000225A60072243F8042C2C4AC3F813
:1002D0000C2D62B607F08EFC144B1B68DA0705D5AF
:1002E000284807F06BFA284B284A1A60284B1B78DD
:1002F0005B0609D5244C254B22689A4204D121483B
:1003000007F05CFA002323600BF0A8FC07F0C2F9A9
:1003100009F060F8FEE700BF0E2005403080044081
:10032000823F04000100002B10D0034014D0034092
:1003300002D0074000E007402092FF1FA4160100F2
:100340002087FF1F2092FF1FE4C5FF1F0082FF1FB1
:100350000000000000E400E05FE400E008ED00E0E1
:100360000050064000400640448004400000030165
:1003700004800440C010050014E000E0FF76010096
:100380000000202053591A5C1CE00340A5C3945A76
:1003900000F00740FFFFFFFFFFFFFFFFFFFFFFFF32
:1003A000FFFFFFFFFFFFFFFFFFFFFFFFFFFFFFFF5D
:1003B000FFFFFFFFFFFFFFFFFFFFFFFFFFFFFFFF4D
:1003C000FFFFFFFFFFFFFFFFFFFFFFFFFFFFFFFF3D
:1003D000FFFFFFFFFFFFFFFFFFFFFFFFFFFFFFFF2D
:1003E000FFFFFFFFFFFFFFFFFFFFFFFFFFFFFFFF1D
:1003F000FFFFFFFFFFFFFFFFFFFFFFFFFFFFFFFF0D
:10040000FFFFFFFFFFFFFFFFFFFFFFFFDEF9FFFF23
:1004100010B5054C237833B9044B13B10448AFF33E
:1004200000800123237010BD2092FF1F00000000F8
:10043000A0160100084B10B51BB108490848AFF3DE
:1004400000800848036803B910BD074B002BFBD0A0
:10045000BDE81040184700BF000000002492FF1FB5
:10046000A01601002092FF1F00000000F0B400F170
:100470001C06134F00243146031F00F13C0243F8D1
:10048000044FB34241F8047F4FF0000542F8044F97
:10049000F5D10C4A0C490566002345668566C5669C
:1004A000056745678567C0F88850C267C0F8842033
:1004B000C0F8801080F8903080F8A830F0BC704709
:1004C0000000A040000048430000C8C22DE9F041F0
:1004D00090F8A84084B0202364008DF80530E4B281
:1004E000042380468DF804408DF80630032720460B
:1004F00007F028FD02210DF1050007F02DFD8DF814
:10050000044005F02DFC30B30921404808F0D8FB29
:100510000023102221463E4808F0D4FD01213D4829
:1005200008F0CEFB002310229DF80510384808F093
:10053000C9FD0121374808F0C3FB002310229DF8B4
:100540000610334808F0BEFD0121324808F0B8FB20
:100550002F4808F0A7FD02208DF8044007F0FCFAB0
:1005600005F0FEFB00284CD102AE002407F00AFD86
:1005700070B3072C1FD101E007F014FD07F002FD56
:100580000028F9D105F0ECFB10B1214808F08AFDF4
:100590009DF80B009DF80C109DF80D209DF80E3075
:1005A000C8F89400C8F89810C8F89C20C8F8A03083
:1005B00004B0BDE8F08107F0F5FC054606F8010B34
:1005C00005F0CEFB70B9013407F0DCFC0028D0D177
:1005D000072CD3D005F0C4FB78B9013FD8D09DF8E3
:1005E000044084E7E9B200231022094808F06AFDBC
:1005F0000121084808F064FBE5E7054808F052FDD2
:10060000EBE70721044808F05BFBADE718FE0000AC
:10061000C487FF1FFC04010024FE000090F898002E
:10062000704700BF90F89400704700BF90F89C009E
:10063000704700BF90F8A000704700BF082994BF22
:1006400050F82100002070472DE9F0410B4E804604
:10065000041F00F11C0754F8045F314628460BF0D4
:1006600073FA30B1D8F88C1028460BF08BFA00B131
:100670002E46BC42EFD13046BDE8F081000020415B
:100680002DE9F041D0F88C704FF00008041F00F104
:100690001C0654F8045F394628460BF073FA0849E3
:1006A00048B128460BF050FA414620B128460BF0DD
:1006B00069FA00B1A846B442EBD14046BDE8F081EA
:1006C000000070422DE9F047D0F88C7082464FF060
:1006D0000009041F00F11C064FF0000854F8045FE5
:1006E000394628460BF04EFA0C4950B128460BF01B
:1006F0002BFA30B1484629460AF080FF08F101087C
:100700008146B442EAD1CAF8AC8040460BF02AF8E0
:10071000014648460BF02EF9BDE8F0870000704214
:10072000D0F8AC00704700BF38B5846E456E2146E6
:1007300028460BF009FA00B92C46204638BD00BF08
:10074000D0F8A4302DE9F041002B79D1866E456EAA
:100750000446314628460AF051FFE76E3946804686
:100760000AF04CFF7E490BF005F94FF07C5104462E
:100770000BF008FA002861D04FF07C5128460BF0AE
:1007800001FA4FF07C51002860D128460BF0DCF9CB
:1007900038B14FF07C5130460BF0F4F9002840F0AE
:1007A000A7804FF07C5128460BF0ECF9002860D16F
:1007B0004FF07C5128460BF0E5F9002840F0A1806D
:1007C0004FF07C5128460BF0DDF900286CD14FF03A
:1007D0007C5128460BF0B8F94FF07C5110B33046ED
:1007E0000BF0D0F938B14FF07C5138460BF0ACF932
:1007F000002840F0B0804FF07C5130460BF0A4F957
:10080000002861D04FF07C5138460BF0BBF900282E
:1008100040F0A38038464FF07C510BF095F968B159
:10082000504C10E028460BF08FF90028E3D1284601
:100830004FF07C510BF088F9002845D1BDE8F081DC
:1008400000EB8300046E2046BDE8F08130460BF0DB
:1008500099F94FF07C5100283ED038460BF092F9C0
:100860000028F0D14FF07C5128460BF06DF900289C
:1008700059D14FF07C5130460BF066F9002840D03A
:100880004FF07C5138460BF07DF9002841D14FF0F4
:100890007C5130460BF076F968B14FF07C51384608
:1008A0000BF052F900284FD14FF07C5130460BF03D
:1008B0004BF900288BD04FF07C5138460BF044F9AF
:1008C000002884D02C46BEE730464FF07C510BF018
:1008D0003BF90028B2D09DE728460BF035F90028F7
:1008E000C7D04FF07C5130460BF04CF90028C0D0F7
:1008F0004FF07C5138460BF045F900283FF451AFDA
:1009000018E04FF07C5130460BF03CF90028CBD07A
:10091000C3E7394628460AF071FE4FF07C510AF0D1
:1009200075FF04468FE74FF07C5138460BF02AF9EB
:1009300000289ED0394630460AF060FE4FF07C51C8
:100940000AF064FF04467EE740464FF07C510AF00F
:100950005DFF044677E7344675E73C4673E700BF22
:10096000000040400000A0C270B50446FFF7E8FE5A
:100970004FF07C510BF006F928B3666E4FF07C51B6
:1009800030460BF0FFF8A56EF0B9E46E4FF07C51E5
:1009900028460BF0F7F858B1294630460BF0F2F82C
:1009A00030B1214628460BF0CFF808B12C4620E0A4
:1009B0004FF07C5120460BF0E5F820B12846214647
:1009C0000BF0E0F878B970BD304629460BF0BCF862
:1009D000E46E0028DAD0304621460BF0B5F8002846
:1009E000D4D0344605E0304621460BF0CBF8002841
:1009F000E9D0204670BD00BF01392DE9F84380469B
:100A00001546032900F2E280DFE801F0AE855C02C2
:100A1000537B107B03EB00200AF0A4FE6D490AF023
:100A2000F5FEC8F81800EB7BA87B03EB00200AF06A
:100A300099FE68490AF0EAFED8F86860D8F8647050
:100A4000D8F80040C8F81C004046FFF78DFFD8F8E2
:100A50007C1005460BF078F808B1C8F87C50394690
:100A600030460BF08FF8002840F0A7803946D8F8C0
:100A700080000BF069F810B13E46C8F8806008F1BC
:100A80002006C14608F14005002701E059F8044F4F
:100A9000306821460BF076F80137214628B1D8F8A6
:100AA0008C000BF05BF800B13460214628680BF035
:100AB0004BF8043600B12C60082F05F10405E5D190
:100AC000BDE8F883507A32380AF04CFEC8F874005A
:100AD000A87A32380AF046FEC8F878006B7B287B8B
:100AE00003EB00200AF03EFE3A490AF08FFEC8F8F8
:100AF0001000EB7BA87B03EB00200AF033FE3549A6
:100B00000AF084FED8F86860C8F81400D8F8647059
:100B1000D8F8004098E7507A32380AF023FEC8F837
:100B20006C00A87A32380AF01DFEC8F870006B7BA2
:100B3000287B03EB00200AF015FE26490AF066FE2A
:100B4000C8F80800EB7BA87B03EB00200AF00AFE44
:100B500020490AF05BFED8F86860C8F80C00D8F8A5
:100B60006470D8F800406FE7137AC0F8B030907A1C
:100B700032380AF0F7FDC8F864000746E87A3238E0
:100B80000AF0F0FDC8F868006B7B0646287B03EB93
:100B900000200AF0E7FD0F490AF038FEC8F800000F
:100BA000EB7B0446A87B03EB00200AF0DBFD094940
:100BB0000AF02CFEC8F8040046E7D8F8801030464A
:100BC0000AF0E0FF00287FF458AF58E7866E476EC2
:100BD000046839E70AD7233C2DE9F04F90F8A83094
:100BE00091B007465B008DF80830FFF76FFCD7F82F
:100BF0009C00D7F8A040D7F89830D7F8942097F801
:100C0000A8108DE81100C94805F0A4F930223D2351
:100C100003268DF809208DF80A300DF10A059DF89C
:100C2000089049F00108404607F08CF90DF10900E1
:100C3000022107F091F98DF80880424602AB0020AE
:100C40005040082410F0800F4FEA400018BF80F099
:100C50000700013CC0B2F5D19D4202D013F8012F2C
:100C6000EEE707F06FF905F07BF8002840F07C8292
:100C700002208DF8089006F06FFF05F071F800284B
:100C800040F0B8820DF10C0AD146002407F07AF941
:100C9000002843D0032C34D101E007F083F907F09A
:100CA00071F90028F9D105F05BF810B1A04808F0FF
:100CB000F9F9312303268DF809308DF80A609DF883
:100CC000089049F00108404607F03CF90DF1090091
:100CD000022107F041F98DF80880424602AB00205E
:100CE0005040082410F0800F4FEA400018BF80F0F9
:100CF0000700013CC0B2F5D19D4228D013F8012F66
:100D0000EEE707F04FF909F8010B804605F028F8E7
:100D100068B9013407F036F90028BBD1032CBED0E6
:100D200005F01EF878B9013E7FF479AFC1E75FFAAC
:100D300088F1002310227E4808F0C4F901217D4883
:100D400007F0BEFFE5E77A4808F0ACF9EBE707F0FB
:100D5000F9F805F005F8002840F0C58102208DF86B
:100D6000089006F0F9FE04F0FBFF002840F03D82F9
:100D70000DF10C09002407F005F9002844D0032CDC
:100D800035D101E007F00EF907F0FCF80028F9D1A1
:100D900004F0E6FF10B1664808F084F9342201231C
:100DA0008DF809208DF80A3003269DF8089049F047
:100DB0000108404607F0C6F80DF10900022107F0CE
:100DC000CBF88DF80880424602AB00205040082442
:100DD00010F0800F4FEA400018BF80F00700013C80
:100DE000C0B2F5D19D4228D013F8012FEEE707F0ED
:100DF000D9F809F8010B804604F0B2FF68B9013454
:100E000007F0C0F80028BAD1032CBDD004F0A8FF29
:100E100078B9013E7FF453AFC0E75FFA88F1002351
:100E20001022434808F04EF90121424807F048FFDC
:100E3000E5E73F4808F036F9EBE707F083F804F000
:100E40008FFF002840F00E8102208DF8089006F0F8
:100E500083FE04F085FF002840F0D6810DF10C09D7
:100E6000002407F08FF8002800F08480032C72D152
:100E700001E007F097F807F085F80028F9D104F0B1
:100E80006FFF10B12A4808F00DF9012212238DF8E6
:100E900009208DF80A304FF003089DF808402046DD
:100EA00007F050F802210DF1090007F055F88DF810
:100EB000084004F055FF30B309211F4807F000FF38
:100EC0000023102221461A4808F0FCF80121194895
:100ED00007F0F6FE002310229DF80910144808F0D0
:100EE000F1F80121134807F0EBFE002310229DF8D2
:100EF0000A100F4808F0E6F801210E4807F0E0FE5E
:100F00000B4808F0CFF806208DF8084006F024FEC4
:100F100004F026FF002840F0728103AD002607F0A0
:100F200031F800283FD0162E2FD109E02CFE00000A
:100F3000C487FF1FFC04010018FE000007F032F810
:100F400007F020F80028F9D104F00AFF162600283F
:100F50007DD1152035E007F025F809F8010B804612
:100F600004F0FEFE00285BD1013407F00BF80028E6
:100F70007FF47CAF032C3FF47EAF04F0F1FE002839
:100F80006CD1013E7FF411AF7FE707F00BF805F855
:100F9000010B044604F0E4FE00284DD1013606F0B2
:100FA000F1FF0028BFD1162ECAD004F0D9FE0028C8
:100FB0004DD1B8F101087FF470AF701E002840F3E6
:100FC0002482002303AA1C4612F8011B08254C406A
:100FD00014F0800F4FEA440418BF84F00704013D69
:100FE000E4B2F5D101338342EEDB9DF821808948DC
:100FF0004146224604F0AEFF162EC146A34602D15A
:10100000A04500F0138197F8A8108348CDF800B0F0
:101010004B46324604F0CCFF002011B0BDE8F08F03
:101020005FFA88F1002310227C4808F04BF8012178
:101030007B4807F045FE97E7E1B20023102277488E
:1010400008F040F80121764807F03AFEA6E7734819
:1010500008F028F8162EACD11520B2E76F4808F03A
:1010600021F88EE709216F4807F02AFE2346102257
:1010700041466A4808F026F80121694807F020FE39
:10108000234610229DF80910644808F01BF801213E
:10109000634807F015FE102223469DF80A105F48AA
:1010A00008F010F801215E4807F00AFE21460DF114
:1010B0000B0002AA12F8014B6140C9B2082311F0DB
:1010C000800F4FEA410118BF81F00701013BC9B20F
:1010D000F5D19042EED11022504807F0F3FF4F486F
:1010E00007F0E0FFB0E609214E4807F0E9FD23468E
:1010F00010224146494807F0E5FF0121484807F022
:10110000DFFD234610229DF80910444807F0DAFF5E
:101110000121434807F0D4FD102223469DF80A1010
:101120003E4807F0CFFF01213D4807F0C9FD2146A9
:101130000DF10B0002AA12F8014B6140C9B208235D
:1011400011F0800F4FEA410118BF81F00701013B08
:10115000C9B2F5D19042EED11022304807F0B2FF6B
:101160002E4807F09FFFF9E509212E4807F0A8FD5A
:10117000234610224146294807F0A4FF01212848B0
:1011800007F09EFD234610229DF80910234807F022
:1011900099FF0121224807F093FD102223469DF874
:1011A0000A101E4807F08EFF01211D4807F088FD38
:1011B00021460DF10B0002AA12F8014B6140C9B2A1
:1011C000082311F0800F4FEA410118BF81F0070199
:1011D000013BC9B2F5D19042EED110220F4807F081
:1011E00071FF0E4807F05EFF42E507210E4807F049
:1011F00067FDBDE507210C4807F062FD42E50721C8
:10120000094807F05DFD88E60721074807F058FD0B
:1012100024E600BF60FE0000ACFE0000C487FF1F94
:10122000FC04010018FE000024FE00009DF80C30B4
:1012300097F8A820B3EB420F7FF4EEAE9DF80D3087
:10124000012B7FF4E9AE9DF80E30122B7FF4E4AE53
:101250009DF810309DF80F0003EB00200AF082FA91
:1012600072490AF0D3FAD7F88810386604460AF0B3
:1012700089FC08B1C7F88840D7F8841020460AF0E6
:1012800063FC08B1C7F88440A7F1040907F1200600
:1012900007F140054FF008089AF806309AF8050063
:1012A00003EB00200AF05EFA61490AF0AFFA49F850
:1012B000040F316804460AF047FC0AF1020A30B113
:1012C000D7F88C1020460AF053FC00B1346029682E
:1012D00020460AF057FC043600B12C60B8F1010832
:1012E00005F10405D8D19DF81E309DF81D0003EBD3
:1012F000002002300AF036FA4E490AF03BFB014664
:101300004D480AF037FB4D490AF076F94C490AF08E
:101310007DFA054608F0E8FA0446284608F0E4FAA3
:10132000484908F053FB4849054620460AF06EFA42
:1013300046490AF063F94649044628460AF066FA27
:10134000014620460AF05AF901464FF07E500AF055
:1013500011FB40490AF050F99DF81F209DF82030FC
:10136000786603EB022009300AF0FCF93A490AF0EA
:1013700001FB014630480AF0FDFA30490AF03CF919
:101380002F490AF043FA054608F0AEFA044628460B
:1013900008F0AAFA2B4908F019FB2B49054620460C
:1013A0000AF034FA29490AF029F92949044628465D
:1013B0000AF02CFA014620460AF020F901464FF0C7
:1013C0007E500AF0D7FA23490AF016F9B8660446A7
:1013D0003846FFF7C9FAF96F05460AF0B5FB00B1C8
:1013E000FD677D6E204629460AF0CCFBB0B9294640
:1013F000D7F880000AF0A8FB10B12C46C7F880404F
:10140000164804F0A7FD012007E69DF82190144836
:1014100049464246C34604F09DFDF4E5D7F88010E6
:1014200020460AF0AFFB0028E8D1E9E71357053B57
:101430002003C839001601470AD7E33FE17A644028
:1014400000007A4400004040A40D8F395A80473A8A
:1014500046A6DB3333938843002C014784FE00000B
:1014600060FE00002DE9F8430026D0F88C80066667
:101470008146044600F1200754F8045B41462846A3
:101480000AF080FB084950B128460AF05DFB30B1F4
:10149000304629460AF0B2F80646C9F86000BC4258
:1014A000EAD13046BDE8F8830000704205299ABFB2
:1014B00000EB8100406E0020704700BF3E2998BFBE
:1014C00080F8A810704700BF90F89000704700BFE8
:1014D000C0F8A410704700BF80F89010704700BF9C
:1014E00030B50F4CC0F88C1083B020460D4607F085
:1014F000D9FD204607F0D6FD284609F0DDFC02257F
:1015000002460B460095204607F026FE204607F0CF
:10151000C9FD204603B0BDE8304007F0C3BD00BFA1
:10152000C487FF1F70B500F5315506462C3500F114
:1015300020042046B434FEF799FFAC42F9D106F1FD
:10154000D405012428460021FFF7C6FF214628467E
:101550000134FFF7B3FF3F2C05F1B405F2D142F699
:10156000744400250548064A064B35550021306174
:101570007161B261F361304670BD00BF00007A4412
:10158000000048430000C8C22DE9F04142F678430C
:1015900000F53156374600228046C2502C36383787
:1015A00000F1D40402E0B434B4420DD02046FFF779
:1015B0008BFF0028F7D020463D68FFF7B1F8B43420
:1015C0002844B4423860F1D142F6784358F8030019
:1015D000BDE8F081F8B50E46096801F47F65002981
:1015E0000446A5F5C06511DB2D0901F00F07B423F2
:1015F00003FB0544203420460121FFF76DFF3246EE
:1016000039462046BDE8F840FFF7F6B90A4801F030
:101610000F0707F047FD1221084807F051FB31681A
:10162000054801F0004100230A2207F04BFD024863
:101630002D0907F037FDDAE7C487FF1FFCFE000025
:10164000704700BF704700BF704700BF2DE9F043EF
:101650000446002383B0064644F8D43B012504E049
:1016600001353F2D04F1B40469D02046FFF72CFF6B
:101670000028F5D0504804F06DFC29464F4804F08E
:1016800069FC2046FFF7A8FA2046FFF7EBFE09F0B9
:1016900013FC02460B464A4804F05CFC2046FEF769
:1016A000D3FF80462046FEF7EBFF0746404609F091
:1016B00003FC80463846894609F0FEFB42464B460D
:1016C000CDE900013F4804F045FC00212046FFF72A
:1016D000EDFE012180462046FFF7E8FE0746404622
:1016E00009F0EAFB80463846894609F0E5FB4246A8
:1016F0004B46CDE90001344804F02CFC2046FFF7AE
:10170000B1FE0146306809F079FF30602046FFF7EE
:101710002BF9B1690AF018FA002833D12046FFF7F7
:1017200003F8F1690AF02EFA002899D02046FEF756
:10173000FBFF01353F2DF06104F1B40495D17068D1
:101740000AF010F8014630680AF014F97169306047
:1017500004460AF017FA00B17461316920460AF0B4
:10176000F3F900B134610B2006F0C0F942F674437E
:10177000F35C60B99BB142F674430122F25403B0AA
:10178000BDE8F0832046FFF7EFF8B061C6E753B934
:1017900042F674430022F25403B0BDE8F0830B48D4
:1017A00004F006FCE7E70A4804F0ECFB42F6744359
:1017B0000022F254F0E700BFF800010010FF000023
:1017C0004CFF000060FF00008CFF0000A8FF00003D
:1017D000E0FF000070B5114B836000F531550646FF
:1017E0002C3500F1D40402E0B434AC4213D02046CE
:1017F000FFF76AFE0028F7D02046FEF725FFB16804
:101800000AF0A2F90028EFD02046FEF71DFFB434FD
:10181000AC42B060EBD1B06870BD00BF0000A0402A
:1018200070B5002300F531550646C3602C3500F134
:10183000D40402E0B434AC4213D02046FFF744FE97
:101840000028F7D02046FEF71BFFF1680AF09AF94E
:101850000028EFD02046FEF713FFB434AC42F0600E
:10186000EBD1F06870BD00BF006870474160704701
:10187000F8B500F531550F4616462C3500F1D40465
:1018800002E0B434AC420FD02046FFF71DFE002822
:10189000F7D020463946FFF71BFE20463146B434C8
:1018A000FFF71EFEAC42EFD1F8BD00BF2DE9F843B3
:1018B00000F5315542F670432E4600278146C75049
:1018C0004FF000082C35303600F1D40402E0B43477
:1018D000AC4213D02046FFF7F7FD0028F7D033685D
:1018E000013333602046FEF72BFF0F490AF04AF917
:1018F00088B9B434AC4207F10107EBD142F670432A
:1019000059F80300C01B09F02DFF014640460AF0BC
:1019100031F8BDE8F8832046FEF712FF0146404645
:1019200009F06CFE8046D2E700008CC2F8B500F5E5
:101930003155074600262C3500F1D40402E0B434BA
:10194000AC420FD02046FFF7BFFD0028F7D020465D
:10195000FEF7B8FE0146304609F050FEB434AC4202
:101960000646EFD142F67043F85809F0FBFE0146F7
:10197000304609F0FFFFF8BD2DE9F04F06468DB067
:10198000934804F08FFA924804F08CFA904804F0DF
:1019900089FA42F670433046F758FFF7F5FD0B9091
:1019A000306809F089FA044630460D46FFF7BEFF5D
:1019B0000A90B06809F080FA8246F0688B4609F018
:1019C0007BFA804630468946FFF770FF09F074FACB
:1019D0000A9BCDE908011846CDE904ABCDE906899B
:1019E00009F06AFA0B9ACDE90201CDE900453946C2
:1019F000784804F057FA764804F054FAD4364FF099
:101A000001094FF0000A07E009F10109B9F13F0FA0
:101A100006F1B40600F0D3803046FFF755FD0028EC
:101A2000F2D03046FEF7FAFD3046FEF7FBFD3046B9
:101A3000FEF7FCFD3046FEF7FDFD0821664807F085
:101A40003FF94946654807F07DFBB9F1090F40F3BE
:101A5000B9800221624807F033F93046FFF702FDF2
:101A600009F02AFA022402460B4600945B4807F06C
:101A700073FB01215B4807F023F9554600241FE062
:101A80000621594807F01CF92946544807F05AFB2B
:101A90000221564807F014F921463046FEF7CEFDE4
:101AA00009F00AFA009702460B464C4807F054FB2F
:101AB000013401214B4807F003F9082C0BD04546AF
:101AC000092D4FF0020705F10108D9DC0121484832
:101AD00007F0F6F8D4E7414807F0E4FA0921454851
:101AE00007F0EEF800213046FFF7E0FC09F0E4F9DA
:101AF000009702460B46394807F02EFB0A213E4864
:101B000007F0DEF801213046FFF7D0FC09F0D4F9E8
:101B1000009702460B46314807F01EFB0A21374862
:101B200007F0CEF839463046FFF7C0FC09F0C4F99B
:101B3000009702460B46294807F00EFB0A21304861
:101B400007F0BEF803213046FFF7B0FC09F0B4F906
:101B5000009702460B46214807F0FEFA0A21294861
:101B600007F0AEF804213046FFF7A0FC09F0A4F915
:101B7000009702460B46194807F0EEFA0A21224860
:101B800007F09EF805213046FFF790FC09F094F924
:101B9000009702460B46114807F0DEFA01211B4868
:101BA00007F08EF809F101090C4807F07BFAB9F14A
:101BB0003F0F0AF1080A06F1B4067FF42DAF0DB00D
:101BC000BDE8F08F01210A4807F07AF841E700BF2D
:101BD000F80001009002010010030100C487FF1FFC
:101BE000501001001C03010020030100EC0401005F
:101BF000FC0401002803010034030100400301003C
:101C00004C0301005803010064030100700301004C
:101C10002DE9F04100F1D40582B0012705E001373C
:101C20003F2F05F1B40500F08B802846FFF74CFCF0
:101C30000028F4D03946444807F084FA012143488B
:101C400007F03EF800244FF0020821462846FEF730
:101C5000F5FC09F031F9CDF8008002460B463A4810
:101C600007F07AFA01340121384807F029F8082CE6
:101C70004FF00206E9D100212846FFF717FC09F0D2
:101C80001BF9009602460B462F4807F065FA012122
:101C90002E4807F015F801212846FFF707FC09F048
:101CA0000BF9009602460B46274807F055FA01212A
:101CB000264807F005F831462846FFF7F7FB09F0FC
:101CC000FBF8009602460B461F4807F045FA012133
:101CD0001E4806F0F5FF03212846FFF7E7FB09F051
:101CE000EBF8009602460B46174807F035FA01213B
:101CF000164806F0E5FF04212846FFF7D7FB09F058
:101D0000DBF8009602460B460F4807F025FA012142
:101D10000E4806F0D5FF05212846FFF7C7FB09F05E
:101D2000CBF8009602460B46074807F015FA013734
:101D3000054807F0B7F93F2F05F1B4057FF475AFFB
:101D400002B0BDE8F08100BFC487FF1F740301002B
:101D5000F8B52F482F4C304F304E04F0A3F8304BDD
:101D6000304A314831495A60012510221D725861AC
:101D70002F4D30481A70D9602F4A30491C615F627C
:101D800000242F4F1E629D624FF07C562D4D5863EC
:101D90000A209A61D9622C4A1C630E2140F61C4429
:101DA0009F635E6441F204075A26DD64D866274DBE
:101DB0009A644FF49670022219659C66002164248F
:101DC0001F675E67DD61DD635866D86541F288375D
:101DD00032204FF47A76FF255A705A725A6583F88A
:101DE000401099679C65DA67C3F88010C3F89C10AF
:101DF000C3F8AC20C3F8B040C3F89070C3F8986043
:101E0000C3F8A450C3F89400C3F8A000F8BD00BF05
:101E10007803010000004040CDCCCC3D333373400B
:101E20002C93FF1F20A10700333383406666864052
:101E30000000824200002042CDCC4C40000020C176
:101E40000000A0400AD7233D9A997940CDCC4C3E62
:101E5000F0B54FF47A6083B005F07EFE00210E20CD
:101E600005F052FE00210F2005F04EFE002111204A
:101E700005F04AFE0021102005F046FE0021122048
:101E800005F042FE0021132005F03EFE01210B204B
:101E900005F03AFE01210C2005F036FE0121142048
:101EA00005F032FE0121152005F02EFE012116203D
:101EB00005F02AFE0121172005F026FE012105204C
:101EC00005F022FE894C8A4D0121062005F01CFEFA
:101ED00001210D2005F018FE208809F03FFC014685
:101EE000162005F07BFD208809F038FC01461720FC
:101EF00005F074FD208809F031FC0146052005F04D
:101F00006DFD208809F02AFC00240146062005F01A
:101F100065FD00942346774A7749784804F042FAF1
:101F2000E6B232467249754804F0EAF92B797049F5
:101F300072486FF30003013432462B7104F0D6F976
:101F4000082CEDD10924E6B2324669496B4804F009
:101F5000D7F92B796649694843F0010301343246C9
:101F60002B7104F0C3F90D2CEDD1654C4FF0FF320D
:101F70002068102104F0E2FD20684FF0FF321021AC
:101F800004F0B4FD20684FF0FF32022104F0C2FDDE
:101F900020684FF0FF32022104F0C6FD00220E211E
:101FA000206804F0D5FD0C21564806F089FE5648FD
:101FB00007F078F81421554806F082FE524807F0E1
:101FC00071F8514807F06EF81721514806F078FE75
:101FD0004D4807F067F84F4B1B789A0600F1AE802A
:101FE0004C4B1B781B0700F1B5804A4B1B785F07F1
:101FF00000F1BC80474B1B789E0700F1C380464B25
:102000001B781D0600F1CA80434B1B785C0600F16B
:10201000D180414B1B78980600F1D8803E4B1B784D
:10202000590700F1DF803C4B1B781A0700F1E6806E
:10203000394B1B789B0700F1ED80334807F032F8ED
:1020400072B6364A4CF220534DF6281120241380E4
:1020500023461180013BFDD1314D324832490023E6
:102060004FF480562E8003800B8032F80E3C9BB2DA
:1020700043F0D30322F80E3C62B69D2005F012FF18
:1020800021462A482A4D06F01BFE1F4807F00AF891
:1020900005F1B4062F462C46601B05F03BFA04F808
:1020A000010BB442F8D13B78102B01D0FFF750FE62
:1020B0002048FFF7C9FA042003F04CFE1E4B1D48D0
:1020C00000221A60FFF7BEFA01210D2005F008FD7D
:1020D000796D1848FFF7CAFB7A6C97F840101548DD
:1020E00003B0BDE8F040FFF7C3BB00BF2487FF1F6C
:1020F000E893FF1FE0C2FF1F20A1070044C1FF1F9C
:102100008494FF1F98030100C487FF1FA8030100E8
:10211000C003010001F0074000F007400E20054019
:10212000042005400620054016200540C404010097
:102130002C93FF1FB894FF1F4C92FF1F2121394899
:1021400006F0BEFD384806F0ADFF384B1B781B0784
:102150007FF54BAF0C21364806F0B2FD324806F051
:10216000A1FF324B1B785F077FF544AF0E2131484A
:1021700006F0A6FD2C4806F095FF2C4B1B789E0719
:102180007FF53DAF17212C4806F09AFD264806F052
:1021900089FF2A4B1B781D067FF536AF0E21284894
:1021A00006F08EFD204806F07DFF244B1B785C0670
:1021B0007FF52FAF1221234806F082FD1A4806F062
:1021C00071FF1E4B1B7898067FF528AF13211E4820
:1021D00006F076FD144806F065FF184B1B7859078A
:1021E0007FF521AF1C21194806F06AFD0E4806F064
:1021F00059FF124B1B781A077FF51AAF19211448A3
:1022000006F05EFD084806F04DFF0C4B1B789B075F
:102210007FF513AF18210F4806F052FD024806F073
:1022200041FF0AE7D8030100C487FF1F01F0074000
:10223000FC0301000C0401001C04010000F0074035
:102240003404010044040100580401006C0401003E
:102250008C040100A804010070B5464C464D474867
:10226000E66800232B70FFF7DBFA0146304609F0E1
:102270006BFC08B104232B704048FFF7ABFA2169CF
:1022800009F062FC18B12B7843F010032B703B4827
:10229000FFF70CFBA16A09F075FC18B12B7843F02D
:1022A00040032B70002335486B70FFF7FFFAE16A9B
:1022B000314E09F049FC08B10123737000232F4807
:1022C000EB70FFF7ADFA05462C482B4EFFF782FA6C
:1022D0000146284609F090F9E16B09F053FC08B17A
:1022E0000123F370264D254800232B70FFF798FA41
:1022F000616A0646E06809F07FF90146304609F058
:1023000041FC08B104232B701C48FFF763FA616A93
:102310000646206909F072F90146304609F014FCBE
:1023200018B12B7843F010032B701448FFF7BEFA56
:10233000A16B0646A06A09F05FF90146304609F034
:1023400021FC18B12B7843F040032B7000230B487D
:102350006B70FFF7ABFAA16B0546E06A084C09F019
:102360004DF90146284609F0EFFB08B101236370DF
:1023700070BD00BF2C93FF1F2893FF1FB894FF1F51
:102380007094FF1F514B1B68002B74D0F0B5504D5B
:102390002B680533B3F57A7F83B040F38E8000233A
:1023A00000272B604B4CD4F8A00009F0DBF906465F
:1023B000D4F8A40009F0D6F9314609F01DF93946E0
:1023C00009F024FA444909F0D5FA314609F016F922
:1023D00009F0F8FB0146062005F002FA02213F4809
:1023E00006F06EFC3E4806F05DFE06213D4806F014
:1023F00067FC286809F0B6F93B4909F007FA08F0CC
:102400005BFD022602460B460096354806F0A4FE08
:102410000D21364806F054FCD4F8A00009F0A2F9CA
:102420000746286809F09EF92F4909F0EFF905469B
:10243000D4F8A40009F096F9394609F0DDF8014610
:10244000284609F0E3F9244909F094FA394609F0DD
:10245000D5F808F031FD009602460B46204806F0FC
:102460007BFE31461D4806F02BFC1D4803B0BDE83D
:10247000F04006F017BE174B1D4AD3F8A010D3F852
:10248000A43012685B1A632B0BDD1A4803FB02F3BE
:1024900080FB0302DB17C3EB62131944062005F02F
:1024A0009FB9154803FB022380FB0302DB17C3EB34
:1024B00022121144062005F093B918462B6009F04A
:1024C00051F9094909F0A2F907466BE76494FF1F27
:1024D0005092FF1F2C93FF1F0000C84250100100B4
:1024E000C487FF1FE8040100CDCCCC3DF0040100FF
:1024F0003487FF1F1F85EB51CBF08D2870B5A248A4
:10250000A24C06F0CFFDA04806F0CCFD9E4806F098
:10251000C9FD0D219E4806F0D3FBD4F89C30012B59
:1025200011D09C4C9848217800230A2206F0CAFD5D
:102530002378052B67D8DFE813F0E900EE00F300FD
:10254000F800FD00E4000921934806F0B9FB934828
:10255000FFF740F9216909F0F7FA18B10F21904807
:1025600006F0AEFB8D48FFF75BF9E16809F00AFB66
:1025700018B10E218B4806F0A3FB8848FFF750F9ED
:1025800005468648FFF726F90146284609F034F843
:10259000E16B09F0F7FA18B11121834806F090FBBE
:1025A0007E48FFF783F9A16A09F0ECFA18B10C2113
:1025B0007E4806F085FB7948FFF778F9E16A09F073
:1025C000C3FA18B10D217A4806F07AFB794B7348AB
:1025D0001B68012B00F0C280FFF7FCF821696B4DEE
:1025E00009F0D0FA78B16D48FFF71AF9E96809F0F7
:1025F000ABFA40B1674B1B78052B00F0C080082177
:102600006D4806F05DFB02216C4806F059FB122074
:1026100005F06CFA012800F09C80112005F066FAA4
:10262000012800F09180664B1B68012B00F0878029
:102630000221624806F044FB624B5348196806F0D9
:1026400081FD514806F02EFD04215F4806F038FB5D
:102650000B2005F04BFA002301460A224A4806F0F7
:1026600031FD0C2005F042FA002301460A224648BB
:1026700006F028FD142005F039FA002301460A224D
:10268000414806F01FFD152005F030FA00230146F1
:102690000A223D4806F016FD06214C4806F010FBC4
:1026A0004B4B394819680222002306F00BFD042128
:1026B000484806F005FB112005F018FA00230146F2
:1026C0000A22314806F0FEFC102005F00FFA002324
:1026D00001460A222C4806F0F5FC122005F006FA05
:1026E000002301460A22284806F0ECFC132005F0DE
:1026F000FDF9002301460A222348BDE8704006F098
:10270000E1BC0721344806F0DBFA7CE706213348B8
:1027100006F0D6FA77E70721314806F0D1FA72E7DA
:102720000721304806F0CCFA6DE708212E4806F064
:10273000C7FA68E70B212D4806F0C2FA63E71121BA
:102740002B4806F0BDFA73E70A212A4806F0B8FACA
:1027500069E70E21284806F0B3FA5EE7FFF73AF87A
:10276000216A09F00FFA00283FF449AF16212348E7
:1027700006F0A6FA0A21224806F0A2FA43E70A2147
:102780001F4806F09DFA3EE7C487FF1F2C93FF1FEA
:10279000000501006C94FF1F10050100B894FF1F95
:1027A0001C0501002C0501003C050100500501003D
:1027B000600501005C92FF1F9405010050100100AC
:1027C0008C94FF1F6894FF1F08060100100601008B
:1027D000E093FF1F18060100D0050100A0050100CD
:1027E000A8050100BC050100C4050100B0050100F9
:1027F000F4050100E8050100D8050100700501009D
:10280000880501002DE9F04F934C944FE36F012BA5
:102810008DB000F04981032B50D0914E914DA36FA4
:102820009148012B09BF2968296801F100412960FD
:1028300004F062FD3368002B40F0CE808A4804F03B
:1028400031FDE36F3860012B064600F0D2808749E6
:1028500009F098F978B98649304609F075F950B908
:10286000844A854B12680B920B9A1A6000232B60E6
:102870000DB0BDE8F08FDFF8FC817F4CD8F8003058
:102880000A930A9823687D4FC01A08F067FF314603
:1028900008F0BCFF7A4909F06DF8794909F06AF847
:1028A000396808F0ABFED8F800300993099B236023
:1028B000002338602B600DB0BDE8F08FDFF8C881D1
:1028C000704DD8F80000664E012300220E212B60C7
:1028D00004F03EF92B68012B336800F00381002BD4
:1028E00040F097810021D8F80000DFF8B891664DDC
:1028F00004F080F933681FFA80FBC9F800B0002BA0
:1029000040F06C810021D8F80000564DDFF878A126
:1029100004F0F6F8B4F8863040F6E44101FB0BF120
:10292000B1FBF0F0C01A00B208F01CFF5749834613
:10293000D4F8880008F06AFF0146584609F01AF8F2
:10294000D9F800302860632BDFF858B100F33A81E2
:1029500000232B603368002B3FF461AF02214C4809
:1029600006F0AEF9D9F80020D8F8000040F6E443AC
:10297000002103FB02F804F0C3F8B8FBF0F008F004
:10298000EDFE8046B4F8860008F0ECFE01464046B5
:1029900008F032FE08F090FA4FF0020802460B46AB
:1029A000CDF800803B4806F0D7FB4146384806F09A
:1029B00087F9286808F080FACDF8008002460B46B7
:1029C000344806F0C9FB4146334806F079F94146E0
:1029D0002F4806F075F922E7234804F063FC08F05D
:1029E0006BFA022602460B4600962A4806F0B4FB14
:1029F00024E7244B1B68012B00F01781022B7FF486
:102A000035AF264909F0BEF830B92549304609F0FE
:102A10009BF8002800F03881DFF85880164CD8F871
:102A20000030079307982368144FC01A08F096FEE9
:102A3000314608F0EBFE124908F09CFF104908F0FF
:102A400099FF396808F0DAFDD8F800300693069B44
:102A5000386023600AE700BF2C93FF1F6892FF1FB6
:102A6000AC94FF1F5892FF1F0493FF1F0000FA430E
:102A70000000FAC3ECC2FF1F8094FF1F7092FF1F7B
:102A800000007A446487FF1F8494FF1F17B7D13872
:102A900050100100C487FF1F5C06010000C82F48CA
:102AA00000A08CC62493FF1F3D689749284609F073
:102AB0004BF830B12846954909F064F800287FF4B6
:102AC000FDAEDFF85482924DD8F80000914E0223FB
:102AD00000220F212B6004F03BF82B68012B336898
:102AE0007FF4FDAE002B40F0D6800021D8F8000026
:102AF000DFF86892884D04F07DF833681FFA80FB98
:102B0000C9F800B0002B40F0E3800021D8F80000A5
:102B1000824DDFF804A203F0F3FFB4F8843040F6EE
:102B2000E44101FB0BF1B1FBF0F0C01A00B208F078
:102B300019FE7B498346D4F88C0008F067FE0146F5
:102B4000584608F017FFD9F800302860632BDFF8EB
:102B50000CB200F3B18000232B603368002B3FF4EC
:102B60005EAE02216F4806F0ABF8D9F80020D8F825
:102B7000000040F6E443002103FB02F803F0C0FF2D
:102B8000B4F88410B8FBF0F000B2411A664806F0C1
:102B9000D9FA0221634806F093F8286808F08CF906
:102BA0004FF0020802460B46CDF800805E4806F062
:102BB000D3FA03215D4806F083F84146594806F0F0
:102BC0007FF82CE6DAF80000002103F099FFDBF82B
:102BD000003064389842FFF4BBAEBBE600212868A1
:102BE00003F08EFF40F6E44100230A2201FB0BF1C3
:102BF000B1FBF0F14C4806F065FA0221494806F0B5
:102C00005FF8B4F88610484806F09CFAD9F800B08E
:102C100078E6454806F046FA0C21454806F050F89B
:102C20000C21444806F04CF85CE6434908F0AAFF42
:102C300058B94249304608F087FF30B9404A414B05
:102C400012680592059A1A6010E6DFF8F4803D4C90
:102C5000D8F800300493049823683B4FC01A08F05A
:102C60007DFD314608F0D2FD384908F083FE374932
:102C700008F080FE396808F0C1FCD8F800300393F2
:102C8000039B38602360F1E52D4A2E4B12680892B1
:102C9000089A1A60EAE5244806F004FAE36F012B6B
:102CA0004FF00B010CBF2A482A4806F009F80C2106
:102CB000204806F005F818E7DAF80000002103F0D4
:102CC0001FFFDBF8003064389842FFF444AF44E75C
:102CD0000021286803F014FF40F6E44100230A2293
:102CE00001FB0BF1B1FBF0F10F4806F0EBF901210C
:102CF000194805F0E5FFB4F884100B4806F022FAF5
:102D0000D9F800B001E700BF00709446007094C687
:102D10006487FF1FAC94FF1F8494FF1F5892FF1F0E
:102D200017B7D13850100100C487FF1F48060100B3
:102D30004C060100380601000000FA430000FAC307
:102D4000ECC2FF1F8094FF1F7092FF1F00007A44A7
:102D5000200601002C060100FC0401002493FF1F43
:102D60002DE9F047B24D2B6884B0002B7ED0B14CDA
:102D7000DFF8C882B04EE36FAE4D012B00F08F80BC
:102D8000D4F88030AB4F012B00F0BC80D6F8009017
:102D9000D7F858A07D6DA94F05FB0AF54FF47A705E
:102DA00000FB05F008F0DEFCA5490546484608F0A2
:102DB0002DFD294608F0DEFDA24908F027FD08F0A8
:102DC00001FF6328C8F800004BDD28469C4908F045
:102DD000D1FD642330603B609B4B1B68002B3DD0D2
:102DE000E36F944D012B00F0BB80032B00F00981B1
:102DF000022B00F00C810221944805F061FF944BF6
:102E0000186808F059F8022402460B4600949148CD
:102E100006F0A2F92146904805F052FF21468B4862
:102E200005F04EFFD8F800108A4806F08BF906210D
:102E30008A4805F045FF3068814908F0E7FC08F052
:102E40003BF8009402460B46824806F085F90321C0
:102E5000834805F035FF7F4806F024F904B0BDE84B
:102E6000F0870028BCBF00233B60B5E77D4E714C66
:102E700033680293029A42F228339A4200F2BA80EF
:102E800033680393039A42F210739A4274D8E36F43
:102E9000DFF8A881684E674D012B7FF471AF72484F
:102EA000FEF744FD7149D5F86890EF6E08F0AEFC6E
:102EB00008F0AEFE2A6F6B6FC9EB0202DB1B80B21B
:102EC0009A42C9EB000040F3AD8003FB0000531CA5
:102ED00090FBF3F31F44A06D636DC8F8007000FB16
:102EE00007F003FB00F000EB8000400008F03AFC24
:102EF0005349504F08F03EFDD4F880303060012B2C
:102F00007FF444AF5848FEF711FD5849D7F8689050
:102F1000FD6E08F07BFC08F07BFE3A6F7B6FD4F807
:102F200058A0C9EB02025B1B80B29A42C9EB0000B9
:102F3000C6BF03FB00000132584390FBF2F0284467
:102F4000656D00FB0AF005FB00F000EB800040001F
:102F500008F008FC3A4908F00DFD814630601AE798
:102F6000434B1B68012B4FF00A010CBF41484248FC
:102F700005F0A6FEEB6F38E73B48FEF7D7FC3B4970
:102F8000A76EE66E08F042FC08F042FE226F636F07
:102F9000D21B9B1B80B29A42A0EB07003CDD03FBD7
:102FA0000000531C90FBF3F39819A26DDFF88C809E
:102FB000636DC8F8000002FB00F003FB00F000EBBB
:102FC0008000400008F0CEFB1D491B4E08F0D2FCEB
:102FD0000123306002211D482B6005F071FE1D4861
:102FE00006F060F85921254805F06AFE194806F0F8
:102FF00059F8C0E61C48626C94F84010FEF738FCA3
:103000003EE710211E4805F05BFEE36FF0E6072166
:103010001C4805F055FEEEE603FB00F393FBF2F3CC
:103020009819C2E703FB00F393FBF2F31F4452E746
:103030005492FF1F2C93FF1F7092FF1F3487FF1FB6
:10304000E4388E3E0000C8423C87FF1F501001004C
:103050006892FF1FC487FF1F5C060100F006010095
:10306000F8060100ECC2FF1FB894FF1F00007A446D
:103070006487FF1FBC060100C8060100600601004E
:10308000D4060100E8060100F0B5112083B004F079
:103090002DFD012813D000210B2004F021FD00217B
:1030A0000C2004F01DFD0021152004F019FD1D4920
:1030B0001D4B0120002208701A6003B0F0BD0146CC
:1030C0000446152004F00CFD1849194A194B0968EB
:1030D0000191D2F890001B680199134D0344022618
:1030E0008B422E6017D8D2F8980008F03BFB124BA9
:1030F000196808F029FD074668B921460B2004F03D
:10310000EFFC084A032339460C2016702B6004F0AC
:10311000E7FC03B0F0BD01210C2004F0E1FC03B09A
:10312000F0BD00BF6C94FF1FA894FF1FECC2FF1FEF
:103130002C93FF1FB094FF1F6892FF1FF0B5684EDD
:10314000684D34682B689C4287B039D014F0010177
:1031500055D014F0020149D014F004013DD0E3072A
:103160000ED52B68DF070BD45F4F3A68002A00F0BA
:1031700082805E4B1B680193019B93426DD834683B
:10318000A0070DD52B6899070AD4594F3A68002A31
:103190004CD0564B1B680393039B934238D834683A
:1031A00062070DD52B685B070BD4524F3A68002A93
:1031B0007ED04E4B1B680593059B934268D83468BC
:1031C0000CB107B0F0BD2146162004F009FB2146E2
:1031D000172004F005FB07B0F0BD052004F000FB4C
:1031E0002B68346803F0FB032B60B8E7172004F06A
:1031F000F7FA2B68346803F0FD032B60ACE7162068
:1032000004F0EEFA2B68346803F0FE032B60A0E7AD
:10321000394B1720D3F8941004F0E2FA2B68346885
:1032200043F0020300222B603A60B9E7334805F00F
:1032300039FF0C21324805F043FD304805F032FFDC
:10324000FF21172004F0CCFA284B2E4A196802916E
:10325000029912680A443A609CE7274B1620D3F87B
:10326000941004F0BDFA2B68346843F00103002287
:103270002B603A6084E7FF21162004F0B1FA1B4B63
:10328000204A19680091009912680A443A6071E76F
:10329000194B0520D3F8941004F0A2FA2B68346877
:1032A00043F0040300222B603A60002C89D18AE7A6
:1032B000124805F0F7FE0C21134805F001FD0F48F8
:1032C00005F0F0FEFF21052004F08AFA074B0D4AB5
:1032D00019680491049912680A443A606AE700BFC9
:1032E000A894FF1FE093FF1F5894FF1FECC2FF1F1D
:1032F0005C94FF1F6094FF1F2C93FF1FC487FF1F68
:10330000FC0601006C87FF1F0C0701002DE9F84344
:103310004B4DDFF8589128684A4E4B4F00220E2142
:1033200003F016FC012322214848C9F8003005F0BB
:10333000C7FC3368132B1EDC40F6E44800212868E4
:1033400003F058FC00210446286803F0D9FB3B88B1
:10335000A4B2012108FB04F4B4FBF0F43C481C4483
:103360003C8005F0ADFC642004F0F6FB33680133CB
:10337000132B3360E2DD3B88364A3748A2FB031249
:103380009B1A02EB5303C3F30F1319463B8005F05E
:10339000D9FE1D213148324F05F092FC02213148FF
:1033A00005F08EFC2C4805F07DFE00231A460F2107
:1033B0002868336003F0CCFB022322212348C9F89C
:1033C000003005F07DFC3368132B1EDC40F6E4482A
:1033D0000021286803F00EFC00210446286803F051
:1033E0008FFB3B88A4B2012108FB04F4B4FBF0F48A
:1033F00017481C443C8005F063FC642004F0ACFBDF
:1034000033680133132B3360E2DD3B88114A1248E5
:10341000A2FB03129B1A02EB5303C3F30F131946CB
:103420003B8005F08FFE1D210F4805F049FC02216D
:103430000C4805F045FC0848BDE8F84305F032BEED
:103440008494FF1F6492FF1F5487FF1F1C07010015
:103450006007010087611886C487FF1F40070100CD
:103460005687FF1F50100100640701006487FF1F8B
:103470002DE9F843744D754C286D754EDFF8FC81CD
:10348000082740F251332360E77108F06BF969694E
:10349000814608F0BBF96F4908F0B8F908F0B8FBAD
:1034A0006D4B6E4A1B68D2F800E0A37282B23B41BA
:1034B000A9692272E3723A414EFA07F3484684F84A
:1034C0000CE06272637308F0A1F9624908F09EF99A
:1034D00008F09EFB83B243FA07F221463046A373FD
:1034E000E27303F057F95E4B5E4A1B681288A272C2
:1034F000DDB240F25531216005EB850E43FA07F14C
:1035000003EB83034FEA4E0E3A4143F3D713617244
:10351000257221460025304684F80CE0E272E771FE
:103520006373A573E57303F035F940F256334046F3
:103530002360E771FEF798F94B4908F067F908F046
:1035400067FB20724046FEF78FF9474908F05EF9A5
:1035500008F05EFB454A4449C0F3072310686372D4
:1035600008F008FA08F02EFB40FA07F2034640463E
:10357000E272A372FEF79AF9364908F047F908F0AB
:1035800047FB20734046FEF791F9324908F03EF9B7
:1035900008F03EFB2146C0F3072330466373A57352
:1035A000E57303F0F7F8022004F0D6FA304BE77128
:1035B000187893F801E09A78207240F25A31DB785B
:1035C00021603046214684F809E025736573A573B0
:1035D000E573A272E37203F0DDF8264BE771187809
:1035E0005D789A78207240F25E3118792160D9783E
:1035F0006572A2725D799A79E172DB792073214656
:103600003046A273E373657303F0C4F8022004F03C
:10361000A3FA194BE7711D785A789978DF782572EB
:1036200030464FF45C765D79266062721E799A7935
:10363000DB79A172E772214626736573A273E37387
:10364000BDE8F84303F0A6B82C93FF1F9894FF1F22
:1036500044C1FF1F000020414492FF1F7C94FF1FC4
:103660003487FF1F3887FF1F0000C8426892FF1F82
:103670002893FF1F2887FF1F5C87FF1FB894FF1F39
:1036800038B5284B1B68012B00D038BD264D274884
:10369000FEF7A0F8E96C07F0B1FF04462348FEF7F7
:1036A000BFF80146204608F04FFA0028EDD0204C24
:1036B0001E4840F2C33208232260E371FEF78AF805
:1036C000AD6C294608F040FAB8B11A49284608F00E
:1036D0009DF808F09DFA80B20312607223720023F5
:1036E0000122A272E37223736373A373E37310491D
:1036F0001148BDE8384003F04DB80C48FEF76AF8B1
:103700000C4908F083F808F083FAC0F30723074850
:103710002372FEF75FF8074908F078F808F078FAA6
:103720006072DCE78C94FF1F2C93FF1FB894FF1F7F
:103730009894FF1F0000C84244C1FF1FF0B5B24C6F
:10374000B24D83B005F056FA23682860042B00F0D0
:10375000E282022B7ED0082B00F00A81072B40F07A
:103760008381322800F0FF8340F37481332800F016
:103770000F84712803D10023732023602860002B5D
:1037800008BF73280CBF01200020002860D0A0488B
:1037900005F088FC04219F4805F092FA9C4805F04A
:1037A00081FC10219C4805F08BFA994805F07AFCC1
:1037B00013219A4805F084FA994B9548196805F049
:1037C000C1FC934805F06EFC1421964805F078FA88
:1037D0008F4805F067FC1E21934805F071FA8C486C
:1037E00005F060FC1521914805F06AFA884805F05B
:1037F00059FC1E218E4805F063FA854805F052FCFD
:1038000020218C4805F05CFA814805F04BFC192119
:10381000894805F055FA7E4805F044FC1221874896
:1038200005F04EFA7A4805F03DFC0F21844805F07A
:1038300047FA774805F036FC0D21824805F040FA3A
:10384000734805F02FFC804A00210123116023609A
:1038500003B0F0BDA0F13102422A90D801A151F885
:1038600022F000BF9F400000B5400000CF400000A4
:10387000F1400000274100007F3700007F37000043
:103880007F3700007F3700007F3700007F37000060
:103890007F3700007F3700007F3700007F37000050
:1038A0007F3700007F3700007F3700007F37000040
:1038B0007F3700007F3700007F3700007F37000030
:1038C0007F3700007F3700007F3700007F37000020
:1038D0007F3700007F3700007F3700007F37000010
:1038E0007F3700007F3700007F3700007F37000000
:1038F0007F3700007F3700007F3700007F370000F0
:103900007F3700007F3700007F3700007F370000DF
:103910007F3700007F3700007F3700007F370000CF
:103920007F3700007F3700007F37000045410000EF
:103930007F3700007F3700007F3700007F370000AF
:103940007F3700007F3700007F3700007F3700009F
:103950007F3700007F3700007F3700007F3700008F
:103960007F370000773700007F37000017410000E5
:10397000322800F0E38271283FF4FDAE31287FF455
:10398000FEAE05F073F9002840F3858320482F4EE2
:1039900005F01CFDC0B286F84000022894BF014625
:1039A0000021726C2A4888BF86F84010FDF760FF3E
:1039B0000123692023602860A0F152031F2B01F22C
:1039C0001B82DFE813F06C09190A190A190A190A8F
:1039D000190A190A190A190A190A190A190A190ACF
:1039E000190A190A0D09E60A6E094108B307190AEE
:1039F000190A190A6B07190AE30A190A190A190A96
:103A0000190A190A400700BFB494FF1F4092FF1F14
:103A1000C487FF1FCC0E0100D40E0100E80E010088
:103A20002087FF1FFC0E0100140F0100340F01005E
:103A30004C0F01006C0F0100900F0100AC0F010052
:103A4000C00F0100D00F01003C87FF1F2C93FF1F08
:103A5000B894FF1F31287FF492AE05F007F90028D3
:103A600000F3A48323682868062B40F08D80A0F122
:103A70003102402A3FF683AE01A151F822F000BF87
:103A80003B40000065400000B53F0000D93F00000A
:103A9000FD3F0000194000007F3700007F37000025
:103AA0007F3700007F3700007F3700007F3700003E
:103AB0007F3700007F3700007F3700007F3700002E
:103AC0007F3700007F3700007F3700007F3700001E
:103AD0007F3700007F3700007F3700007F3700000E
:103AE0007F3700007F3700007F3700007F370000FE
:103AF0007F3700007F3700007F3700007F370000EE
:103B00007F3700007F3700007F3700007F370000DD
:103B10007F3700007F3700007F3700007F370000CD
:103B20007F3700007F3700007F3700007F370000BD
:103B30007F3700007F3700007F3700007F370000AD
:103B40007F3700007F3700007F3700007F3700009D
:103B50007F3700007F3700007F3700007F3700008D
:103B60007F3700007F3700007F3700007F3700007D
:103B70007F3700007F3700007F3700007F3700006D
:103B80007737000023682868052B1AD1332801F005
:103B9000658140F34B81352801F04F81BFF6E9ADD7
:103BA00005F064F800280ADDD948DA4E05F00EFC6D
:103BB00001226B23C6F8A00022602B604BE1236832
:103BC0002868032B40F0A380A0F13002422A3FF680
:103BD000D6AD01A151F822F0E53C0000D14600002D
:103BE000F9460000FF45000025480000814600001E
:103BF000A9460000214700003F470000634700003E
:103C00007F3700007F3700007F3700007F370000DC
:103C10007F3700007F3700007F3700007F370000CC
:103C20007F3700007F3700007F3700007F370000BC
:103C30007F3700007F3700007F3700007F370000AC
:103C40007F3700007F3700007F3700007F3700009C
:103C50007F3700007F3700007F3700007F3700008C
:103C60007F3700007F3700007F3700007F3700007C
:103C70007F3700007F3700007F3700007F3700006C
:103C80007F3700007F3700007F3700007F3700005C
:103C90007F3700007F3700007F3700008B47000030
:103CA0002542000063460000A9470000C747000006
:103CB000E5470000014200007F3700007F37000029
:103CC0007F3700007F3700007F3700007F3700001C
:103CD0007F3700007F3700007F370000214600005B
:103CE0002D46000004F0C2FF002841F38E80884872
:103CF000884E05F06BFB0127034601466222864889
:103D0000736527602A60FDF7B1FD23682868012BE1
:103D10007FF435AD50E6A0F13102402A3FF62FADD9
:103D200001A151F822F000BFA9410000A14100000B
:103D3000A5410000674100006B4100008541000083
:103D40009D410000514100007F3700007F37000097
:103D50007F3700007F3700007F3700007F3700008B
:103D60007F3700007F3700007F3700007F3700007B
:103D70007F3700007F3700007F3700007F3700006B
:103D80007F3700007F3700007F3700007F3700005B
:103D90007F3700007F3700007F3700007F3700004B
:103DA0007F3700007F3700007F3700007F3700003B
:103DB0007F3700007F3700007F3700007F3700002B
:103DC0007F3700007F3700007F3700007F3700001B
:103DD0007F3700007F3700007F3700007F3700000B
:103DE0007F3700007F3700007F3700007F370000FB
:103DF0007F3700007F3700007F3700007F370000EB
:103E00007F3700007F3700007F3700007F370000DA
:103E10007F3700007F3700007F3700007F370000CA
:103E20007F3700007F37000077370000312800F02F
:103E3000F38732287FF4A3AC04F018FF00287FF743
:103E4000BEAE3348334E05F0C1FA01226B23C6F8EB
:103E5000980022602B602E4805F024F92C4805F0CC
:103E600021F92B4805F01EF9294805F01BF92848CF
:103E700005F018F92121294804F022FF244805F013
:103E800011F91521264804F01BFFD6F890102048A0
:103E900005F058F90221234804F012FF1C4805F0F0
:103EA00001F91E21204804F00BFFD6F8981018489D
:103EB00005F048F903211D4804F002FF144805F0FD
:103EC000F1F81E211A4804F0FBFED6F894101048B1
:103ED00005F038F90E4805F0E5F81D21154804F005
:103EE000EFFED6F8A0100A4805F02CF9084805F0B6
:103EF000D9F81E21104804F0E3FED6F8A4100448B7
:103F000005F020F9024805F0CDF8052323609FE471
:103F1000C487FF1F2C93FF1FB894FF1FB009010037
:103F2000D409010028090100EC090100480601003C
:103F30000C0A01002C0A01004C0A010004F096FE54
:103F4000002840F3A480A248A24E05F03FFA07F0F3
:103F500009FCA14907F05AFC0346024696F84010B6
:103F60009E48736422E504F081FE00287FF77AAD55
:103F70009748984E05F02AFA07F0F4FB964907F0A7
:103F800045FC61230122F06322602B60184613E593
:103F900004F06CFE00287FF765AD8D488D4E05F06E
:103FA00015FA07F0DFFB61230122B06322602B606A
:103FB000184601E504F05AFE00287FF7E3AD844877
:103FC000844E05F003FA00EB8000430001226520D7
:103FD000F36522602860EFE404F048FE00287FF7D4
:103FE000D1AD7B487B4E05F0F1F900EB800043003A
:103FF00001226520336622602860DDE4754AD2F82C
:10400000AC300133052BC8BF0023C2F8AC306520AB
:10401000012323602860CFE404F028FE00287FF706
:10402000B1AD6B486B4E05F0D1F965230122C6F89E
:10403000B00022602B601846BEE404F017FE002892
:104040007FF7A0AD6248634E05F0C0F907F08AFB28
:10405000634907F08FFC65230122706122602B60A9
:104060001846A9E404F002FE00287FF78BAD5848FB
:10407000584E05F0ABF907F075FB594907F07AFC8B
:1040800065230122F06122602B60184694E42368C6
:104090002868FFF763BB4F4E96F840007DE44D4E15
:1040A000B36FB3FA83F35B0901226320B367226025
:1040B000286081E4474ED6F88030B3FA83F35B0979
:1040C00001226320C6F880302260286074E4012356
:1040D000236004F0CBFD002805DD3D483D4E05F092
:1040E00075F9C6F8A800012363202360286063E403
:1040F0000123236004F0BAFD002807DD3448354E63
:1041000005F064F907F02EFBC6F88C0063202860E8
:104110002368FFF723BB2F4AD36F0133032BC8BF9C
:104120000023D367DFE70123236004F09FFD00280D
:10413000ECDD2748274E05F049F907F013FBC6F8D8
:104140008800E3E7FFF7E2F823682868FFF703BB7E
:10415000244A1368B3FA83F35B09012164201360D6
:104160002160286028E4204AF3E71A4ED6F89C30F4
:10417000B3FA83F35B0901226420C6F89C30226005
:10418000286019E4012315482360FDF7FDF9174A5B
:104190002368106064202860FFF7DDBA144AD8E76E
:1041A000144AD6E7144AD4E7144AD2E70848094E1D
:1041B00005F00CF907F0D6FA074907F027FB612351
:1041C0000122706222602B601846FFF7F5BB00BF2A
:1041D000C487FF1F2C93FF1F6F12833AB894FF1FF1
:1041E00000007A446092FF1F8894FF1F6894FF1FAD
:1041F0006494FF1FAC94FF1F9494FF1F5494FF1FFF
:1042000004F034FD00280DDDC148C24E05F0DEF893
:1042100007F0A8FAC04907F0ADFB01226223306223
:1042200022602B6004F022FD002840F3EE85B848A0
:10423000B84E05F0CBF801226223B06622602B60F5
:10424000B34804F02FFFB24804F02CFFB04804F04C
:1042500029FFAF4804F026FFAD4804F023FF1521E5
:10426000AE4804F02DFDAA4804F01CFF1421AC4810
:1042700004F026FDA64804F015FF1B21A94804F010
:104280001FFDA34804F00EFF1321A74804F018FDFA
:104290009F4804F007FF9E4804F004FF9C4804F088
:1042A00001FF2021A14804F00BFDF0689A4907F0B6
:1042B000ADFA06F001FE002702460B46009794482F
:1042C00004F04AFF02219A4804F0FAFC02219948BE
:1042D00004F0F6FC8E4804F0E5FE2121964804F037
:1042E000EFFC30698C4907F091FA06F0E5FD009784
:1042F00002460B46864804F02FFF02218C4804F04A
:10430000DFFC02218B4804F0DBFC814804F0CAFE8C
:104310001F218A4804F0D4FCB06A06F0CDFD0225C6
:1043200002460B4600957A4804F016FF01218448A6
:1043300004F0C6FC29467F4804F0C2FC744804F02F
:10434000B1FE20217F4804F0BBFCF06A06F0B4FD0A
:10435000009502460B466E4804F0FEFE01217848A7
:1043600004F0AEFC2946734804F0AAFC684804F047
:1043700099FE2321744804F0A3FCB06C664907F051
:1043800045FA06F099FD009702460B46604804F096
:10439000E3FE2946664804F093FC2946654804F08C
:1043A0008FFC5B4804F07EFE1F21684804F088FC07
:1043B000F06C594907F02AFA06F07EFD0097024694
:1043C0000B46534804F0C8FE2946594804F078FCCF
:1043D0002946584804F074FC4D4804F063FE192146
:1043E0005B4804F06DFCB16D494804F0ABFE294612
:1043F000584804F065FC29464E4804F061FC4448E6
:1044000004F050FE1821544804F05AFC706E07F076
:10441000A9F9524907F0FAF906F04EFD0095024657
:104420000B463B4804F098FE01214D4804F048FC3F
:104430002946404804F044FC354804F033FE2B2163
:10444000484804F03DFCB069334907F0DFF906F055
:1044500033FD009702460B462D4804F07DFE2946A9
:10446000334804F02DFC2946324804F029FC284842
:1044700004F018FE1F213C4804F022FC716D244812
:1044800004F060FE29462B4804F01AFC204804F092
:1044900009FE2021354804F013FC316D1C4804F05E
:1044A00051FE2946234804F00BFC194804F0FAFD9C
:1044B00010212F4804F004FCB16E154804F042FEB0
:1044C00029461B4804F0FCFB29461A4804F0F8FB77
:1044D0000F4804F0E7FD1321264804F0F1FBF16ECC
:1044E0000B4804F02FFE0121234804F0E9FB294684
:1044F000104804F0E5FB064804F0D4FD10211F48E5
:1045000004F0DEFB316F024804F01CFE294637E060
:10451000C487FF1F2C93FF1F00007A44940C0100F6
:10452000AC0C0100C40C010000080100E00C01000B
:10453000FC07010050100100040D0100280D0100CE
:1045400070030100480D01006C0D0100900D010089
:10455000B00D0100CC0D0100D00D0100CDCCCC3D43
:10456000700C0100EC0D0100180E0100380E010066
:104570005C0E0100700E0100840E0100880E010027
:10458000BA4804F09DFB2946B94804F099FBB948A4
:1045900004F088FD1421B84804F092FB716FB5480F
:1045A00004F0D0FD0121B54804F08AFB2946B0484B
:1045B00004F086FBAF4804F075FD1621B04804F006
:1045C0007FFB306AAF4907F021F906F075FC0097D0
:1045D0000B460246A74804F0BFFD2946A34804F055
:1045E0006FFB2946A24804F06BFBA24804F05AFD79
:1045F000A04804F057FD03232360FFF729B904F016
:1046000035FB002840F301849A489F4E04F0DEFEFB
:1046100007F0A8F801226223B06222602B600FE647
:104620000022732322602B60FFF7B1B8974B9048AC
:10463000954E002202211A6004F042FB8D4804F0DE
:1046400031FD0B21924804F03BFB0221884804F025
:1046500037FB884804F026FD0122622322602B608C
:10466000EEE504F003FB002840F3CF838148864E3B
:1046700004F0ACFE01226223F06622602B60DFE5CD
:1046800004F0F4FA002840F3C0837A487E4E04F028
:104690009DFE07F067F87B4907F06CF90122622361
:1046A000B06422602B60CBE504F0E0FA002840F310
:1046B000AC837048744E04F089FE07F053F87149DA
:1046C00007F058F901226223F06422602B60B7E5FD
:1046D00004F0CCFA002840F3988366486A4E04F050
:1046E00075FE07F03FF8674907F044F9012262239D
:1046F000F06022602B60A3E504F0B8FA002840F3D4
:1047000084835C48604E04F061FE07F02BF85D493D
:1047100007F030F901226223306122602B608FE5BF
:1047200004F0A4FA002840F370835248564E04F077
:104730004DFE01226223B06522602B6080E504F00B
:1047400095FA002840F361834A484F4E04F03EFE3C
:1047500000EB8000430001216222736621602A6021
:104760006EE504F083FA002840F34F834148464E3B
:1047700004F02CFE06F0F6FF424907F0FBF8012298
:104780006223B06122602B605AE504F06FFA0028C2
:1047900040F33B8337483C4E04F018FE012262236D
:1047A000306522602B604BE504F060FA002840F38E
:1047B0002C833048344E04F009FE01226223306716
:1047C00022602B603CE504F051FA002840F31D8381
:1047D00028482D4E04F0FAFD012262237067226002
:1047E0002B602DE5FDF7B4FA02212148264E04F096
:1047F00067FA204804F056FC02211D4804F060FAD4
:104800001C4804F04FFC0221194804F059FA1948D9
:1048100004F048FC17211F4804F052FA154804F030
:1048200041FC12E704F022FA002840F3EE8211481E
:10483000154E04F0CBFD06F095FF01226223F062D5
:1048400022602B60FCE4B42200210F4802F07CFEC1
:104850002868114AA0F1730001210023B0FA80F00A
:10486000400911602360FEF790BF00BFFC07010004
:1048700050100100C487FF1F9C0E0100840E010030
:10488000B40E010000007A442C93FF1F5492FF1FC6
:10489000A8070100900701003C87FF1FAF48B04DFB
:1048A00004F000FCAD4804F0FDFBAC4804F0FAFB5A
:1048B000AA4804F0F7FBA94804F0F4FB1521A94825
:1048C00004F0FEF9A54804F0EDFB1821A64804F019
:1048D000F7F900230A2295F84010A04804F0F2FBF3
:1048E0009E4804F0DFFB2821A04804F0E9F9686C39
:1048F0009F4906F08BFF06F0DFFA00250B460246C3
:104900000095964804F028FC02219A4804F0D8F952
:10491000924804F0C7FB1321974804F0D1F98F485F
:1049200004F0C0FB08232360FEF792BF8B488C4E37
:1049300004F0B8FB894804F0B5FB884804F0B2FBEA
:10494000864804F0AFFB854804F0ACFB11218B488E
:1049500004F0B6F9814804F0A5FB2821884804F04A
:10496000AFF97069824906F051FF06F0A5FA0025FB
:1049700002460B460095794804F0EEFB02217D4883
:1049800004F09EF9754804F08DFB16217D4804F073
:1049900097F9F069764906F039FF06F08DFA00952F
:1049A0000B4602466D4804F0D7FB0221714804F023
:1049B00087F96A4804F076FBD6F8AC30AB4232DDBA
:1049C0001D21714804F07CF9F06D06F0CBFE6F49B3
:1049D00006F01CFF06F070FA022502460B46009511
:1049E0005E4804F0B9FB0121694804F069F95B48AD
:1049F00004F058FB1F21674804F062F9306E06F09E
:104A0000B1FE624906F002FF06F056FA0095024632
:104A10000B46524804F0A0FB01215D4804F050F918
:104A20004E4804F03FFB11215B4804F049F9D6F8E9
:104A3000AC30052B00F2A181DFE813F0D401D901DD
:104A4000CF01CA01C5019B01444804F02BFB434838
:104A500004F028FB414804F025FB404804F022FB09
:104A60003E4804F01FFB13214C4804F029F93B4851
:104A700004F018FB0D214A4804F022F9374804F0ED
:104A800011FB0F21474804F01BF9474B33481968C5
:104A900004F058FB314804F005FB1321434804F0AF
:104AA0000FF9434B2D48196804F04CFB2B4804F0D8
:104AB000F9FA12213F4804F003F93F4B27481968DF
:104AC00004F040FB254804F0EDFA11213B4804F0C6
:104AD000F7F83B4B2148196804F034FB1F4804F0F9
:104AE000E1FA0E21374804F0EBF81D4B1B48D3F8D0
:104AF0009C1004F027FB194804F0D4FA192132481D
:104B000004F0DEF8314B1548196804F01BFB13481C
:104B100004F0C8FA11212E4804F0D2F82D4B0F48AA
:104B2000196804F00FFB0D4804F0BCFA10212A4864
:104B300004F0C6F8294B0948196804F003FB07483C
:104B400004F0B0FA13210C4804F0BAF8034804F05A
:104B5000A9FA04232360FEF77BBE00BFC487FF1FB2
:104B60002C93FF1F940F0100B4070100D007010030
:104B700000007A44FC07010000080100380F010022
:104B8000140801004008010058080100CDCCCC3DBC
:104B9000700C010078080100980801006C0A0100FF
:104BA000800A0100900A01005494FF1FA00A01002E
:104BB000AC94FF1FB40A01009494FF1FC80A0100BF
:104BC0008894FF1FDC0A0100EC0A01006894FF1FB3
:104BD000080B01006494FF1F1C0B01006092FF1F73
:104BE000C148C24D04F05EFABF4804F05BFABE480B
:104BF00004F058FABC4804F055FABB4804F052FAE5
:104C00001F21BB4804F05CF8B74804F04BFA1C21A4
:104C1000B84804F055F8686AB74906F0F7FD06F0A1
:104C20004BF9002602460B460096AF4804F094FA72
:104C30000221B24804F044F8AB4804F033FA2321CF
:104C4000AF4804F03DF8E86BAB4906F0DFFD06F035
:104C500033F9009602460B46A34804F07DFA022180
:104C6000A64804F02DF8A04804F01CFA1921A54824
:104C700004F026F8A86B06F01FF902250B46024641
:104C80000095994804F068FA29469F4804F018F8FE
:104C9000954804F007FA07232360FEF7D9BD03F017
:104CA000D9FA9148914E04F0FDF98F4804F0FAF9D1
:104CB0008D4804F0F7F98C4804F0F4F98A4804F0C0
:104CC000F1F91F21914803F0FBFF874804F0EAF94E
:104CD0001E218F4803F0F4FF834804F0E3F91A2102
:104CE0008C4803F0EDFFF36F022B00F04781032B9C
:104CF00000F03C81012B00F031810921864803F04E
:104D0000DFFF794804F0CEF914218448774F03F08F
:104D1000D7FFB16F744804F015FA734804F0C2F974
:104D20001C217F4803F0CCFFD6F880106E4804F0B9
:104D300009FA6D4804F0B6F91C217A4803F0C0FF67
:104D4000D6F8A810684804F0FDF9674804F0AAF9FD
:104D5000F56F25F00205012D00F0918013217248B6
:104D600003F0AEFF604804F09DF902232360FEF7D4
:104D70006FBD0F216D4803F0A3FF5B485B4D04F04E
:104D800091F9D6F8AC30002B0FDD1821684803F0FC
:104D900097FFD5F8B010544804F0D4F902216548C3
:104DA00003F08EFF504804F07DF94F4804F07AF983
:104DB00013215D4803F084FF4B4804F073F9062388
:104DC0002360FEF745BD0D215B4803F079FFD4E772
:104DD0000D215A4803F074FFCFE70C21584803F027
:104DE0006FFFCAE70D21574803F06AFFC5E70C21A2
:104DF000554803F065FFC0E72368002B08BF732800
:104E00000CBF01200020FEF7C0BC23682868012BDE
:104E10007EF4B5ACFEF7D0BD03F028FF00287EF786
:104E2000CEAE3148314E04F0D1FA01226B23C6F8E0
:104E3000900022602B60FFF70EB803F017FF0028E8
:104E40007EF7BDAE2848294E04F0C0FA01226B233C
:104E5000C6F8A40022602B60FEF7FDBF03F006FF3A
:104E600000287EF7ACAE2048204E04F0AFFA0122B5
:104E70006B23C6F8940022602B60FEF7ECBF1C2168
:104E8000324803F01DFFD7F88C00314906F0BEFC14
:104E900006F012F8009502460B46134804F05CF940
:104EA00005212C4803F00CFF0F4804F0FBF8FD6FC0
:104EB000012D7FF453AF1D21274803F001FFD7F8E0
:104EC0008800234906F0A2FC05F0F6FF0095024693
:104ED0000B46054804F040F905211E4803F0F0FE9A
:104EE000014804F0DFF839E7C487FF1F2C93FF1F48
:104EF0002C0901004C09010000007A44FC07010064
:104F00006C09010090090100AC090100300B01009F
:104F1000500B0100700B0100E80B0100F40B0100C5
:104F20000C0C01002C0C010000080100FC08010021
:104F30000C09010028090100EC080100DC0801004F
:104F4000CC080100AC080100BC0801004C0C0100B9
:104F5000CDCCCC3D6C0C0100740C01001E210E4820
:104F600003F0AEFE0D4804F09DF8CDE620210C487C
:104F700003F0A6FE094804F095F8C5E61721094894
:104F800003F09EFE054804F08DF8BDE6064EFEF7E0
:104F900062BF054EFFF754B98C0B0100C487FF1F99
:104FA000AC0B0100D00B01002C93FF1F38B5164C41
:104FB000164A2368101D12F8011F904241EA03238C
:104FC000F9D12360124C03F100432360114BDB6FD6
:104FD000022B11D0104B1B68012B00D038BD0F489D
:104FE00004F060F821680D4804F0ACF803210C4887
:104FF000BDE8384003F064BE20680A4D06F0B2FBFD
:105000002860FDF7FFFBE5E73C92FF1F7B92FF1F47
:105010007894FF1F2C93FF1F5494FF1FC487FF1F1A
:10502000E00F01005892FF1F30B53F4C3F4883B05E
:10503000214601F0A7FA236840F2C232934258D0C9
:105040006FF4C0615A18B2F5FF7F4CD903F10043E9
:105050006FF4C0621344B3F5FF7F3FD9344B1B6834
:10506000012B01D003B030BD324B1B68012BF9D1AD
:10507000314B32481B6801930A220023019904F046
:1050800021F82268284B002ADB7945DB2C492D4882
:1050900007F09AFB2B4807F0D3FB0146294803F0A1
:1050A0000FFE2568204B15F0804526D1DB798BB1AA
:1050B000631925491A7A234807F086FB214807F02F
:1050C000BFFB01461F4803F0FBFD0135E379EDB25C
:1050D000AB42EDD8194803F0E5FFC3E712491B487E
:1050E000FCF778FABAE710491848FCF773FA236816
:1050F000ACE7FFF75BFF2368A2E7154D114C0FCD1E
:105100000FC495E8030044F8040B204620F8141956
:10511000152103F0D5FDDDE70E490A4822F0604273
:1051200007F052FBB6E700BF7492FF1F44C1FF1F98
:105130003C87FF1F5494FF1FECC2FF1FC487FF1F53
:105140000C1001008492FF1F38100100B894FF1F5B
:1051500020100100E40F01002DE9F84F7E4B7F4C39
:105160001B78052B08D07E48FCF7A0FBE16A06F00F
:10517000EBFC002800F081807A4E7B4D00233360E9
:105180002B607A4B76481B68744F012B33D0FCF7A9
:1051900047FBE1698046606906F02EFA0146404609
:1051A00006F0F0FC00283AD16D48FCF739FBE168C5
:1051B00006F0E8FC08B100232B606948674FFCF754
:1051C00009FB216906F0C0FC48B1002333602B685D
:1051D000654A002BBCBF00231360BDE8F88F604810
:1051E000FCF7F8FAB96906F0AFFC0028EDD1336896
:1051F000002BEADBEBE7FCF713FBE1698046206A52
:1052000006F0FAF90146404606F0BCFC0028CBD077
:105210005348FCF705FBD7F82090834605E050483B
:10522000FCF7FEFAD7F814908346F969484606F071
:10523000E3F98246F86D06F095FA8046386E06F07E
:1052400091FA414606F0D8F951460746584606F00D
:10525000D3F90146384606F0D9FA51460746484682
:1052600006F0CAF90146384606F084FB414606F0CE
:10527000C5F906F0A7FC286096E73948FCF716FB4D
:10528000216B06F061FC20B3364E636E3448336008
:10529000FCF70CFB8146E06DE76A334D06F062FADD
:1052A00039468046484606F0A7F90146404606F0D2
:1052B000ADFA39468046206B06F09EF9014640461D
:1052C00006F058FB002106F099F906F07BFC2860F7
:1052D00057E72348FCF7EAFA616B06F035FC30B17A
:1052E000204E214D626EE36D32602B6049E71C4811
:1052F000FCF7DCFAA16A06F027FC00283FF43CAF7B
:105300001748184E184DFCF7D1FA8146606ED4F854
:10531000348006F027FA41460746484606F06CF905
:1053200039468146002006F067F90146484606F0F6
:105330006DFA41468146A06A06F05EF9014648468C
:1053400006F018FB394606F059F906F03BFCE36D10
:1053500030602B6015E700BF6C94FF1F2C93FF1F7C
:10536000B894FF1F7C94FF1F4492FF1F5C92FF1FA5
:1053700008B5274803F096FE0721264803F0A0FC55
:10538000112002F0B3FB0621F8B1234803F098FC8A
:10539000122002F0ABFB062100B3204803F090FC82
:1053A000122002F0A3FB062108B31D4803F088FC7D
:1053B000132002F09BFB062110BB1A4803F080FC6F
:1053C0001348BDE8084003F06DBE174803F078FCB1
:1053D000122002F08BFB06210028DED1134803F0D7
:1053E0006FFC122002F082FB06210028DDD110485C
:1053F00003F066FC132002F079FB06210028DCD0C4
:105400000C4803F05DFC0248BDE8084003F04ABECA
:10541000C487FF1F441001004C1001005C10010004
:105420006C10010084100100541001006410010090
:10543000741001007C10010010B5254C2368042B6A
:1054400027DC01210B2002F04BFB01210C2002F094
:1054500047FB0121142002F043FB0121152002F03B
:105460003FFB0121162002F03BFB0121172002F037
:1054700037FB0121052002F033FB0121062002F059
:105480002FFB236801330A2B2360C4BF0023236052
:1054900010BD00210B2002F023FB00210C2002F0A4
:1054A0001FFB0021142002F01BFB0021152002F03D
:1054B00017FB0021162002F013FB0021172002F039
:1054C0000FFB0021052002F00BFB0021D6E700BFF7
:1054D0009094FF1F2DE9F0418C4DD5F8AC30042B92
:1054E0003ED0032B71D0012B00F09B80022B01D00A
:1054F000BDE8F081864C8748237240F20E320123CA
:1055000021462260E37101F045F9834B1B685B0083
:10551000FF2BC8BFFF23042140224FF441702060BD
:10552000E17122726372286D06F01CF9696906F058
:105530006DF97A49054606F025FB002800F0DD806C
:105540002946284606F05AF806F062FB80B203129C
:10555000E072A3726E496F48BDE8F04101F01AB9DC
:105560006B4C6F4AA379226043F001030822E27179
:10557000A371286D06F0F6F8696906F047F96949E4
:1055800006F044F906F044FB634B674A1B68126857
:1055900093FBF2F380B200264FEA202E1F12012265
:1055A000607221465B48E372227384F808E0A772B8
:1055B0006673A673E67301F0EDF8A279D5F8AC3006
:1055C00066F30002032BA2718DD1514C286DA3729A
:1055D0000122E823072140F2FF262272637226602F
:1055E000E17106F0BFF8696906F010F94D4906F05F
:1055F0000DF906F00DFB484B4B4A1B68126893FBF4
:10560000F2F382B21E121712214642486373E2720D
:105610002773A67301F0BEF8D5F8AC30012B7FF4E8
:1056200065AF424B3A4C1B68236007228023102051
:10563000E271237202F05AFA002865D13C4B1B68D4
:10564000DFF8D480384F286D314E03EB83035B00C5
:105650001A12A3726272D8F800303A6893FBF2F320
:105660001A126273A37306F07DF8696906F0CEF82A
:10567000304B196805F0C0FF2A4906F0C7F806F05C
:10568000C7FA80B20312314620732248E37201F058
:1056900081F8022002F060FA274B1B682360072282
:1056A00080231020E271237202F020FA50BB204BBD
:1056B0001B68286D03EB83035B001A12B3727272CE
:1056C00006F050F8696906F0A1F8164906F09EF850
:1056D00006F09EFA82B216123868D8F800302273AB
:1056E00093FBF0F30A490B48A3731A12E672627334
:1056F00001F050F8D5F8AC30F8E601229023A27200
:10570000E37227E70D4BD3E70C4B98E72C93FF1F71
:105710009894FF1F44C1FF1F4492FF1F000048439D
:10572000F4E50618000020414C87FF1F6887FF1F23
:105730004487FF1F5887FF1F3087FF1F4887FF1FC1
:105740002DE9F04F8FB001E0FFF76EFCA64800F0A6
:10575000E3FE0028F8D103F089FA002801DDFDF707
:10576000EDFFA24F3B68012B01D0FDF7E7FCA04DF8
:10577000D5F89C40012C00F05D819E4E3378052BBE
:105780002CD8DFE813F0B600CA00EF0006000901CC
:105790001001994B0022012114201A6002F0A0F997
:1057A0009648FCF73DF8A96C06F0ECF9002840F0AB
:1057B0002282934B18609148FCF732F8696906F031
:1057C000E1F9002840F01082122002F08FF928B988
:1057D0000146142002F084F901233370894CEB6FE9
:1057E00023F00203012B39D02368874A0793079BD4
:1057F000116884485B1AB3F5FA7F32D823680A939C
:105800000A9B824A23680993099B1068D5F8B01057
:105810007C4F774D1B1A8B420CD93B680B93D5F804
:105820009C300B991160012B00F060813378032BC1
:1058300000F05C812368764A0C9376490C9B1068D3
:105840000968704C1B1A8B4205D923680D930D9B78
:105850001360FDF715FF0FB0BDE8F08FFCF7D2FF26
:10586000C2E703680893089B64481360FBF7EEFEE9
:105870006248FBF7AFFF296906F066F9002835D1C9
:10588000654B1B68002B40F03781644B1B68002B75
:1058900040F03B81624B1B68002B40F033813B683A
:1058A000002B40F026815F4FFDF75AFAFFF754FCBA
:1058B000FDF7DEFDFCF766FD3B68504893B1FBF752
:1058C00063FE3B6898421CBF05233370FCF7C4FCA1
:1058D00072B6554B4AF202614BF2804219801A802F
:1058E00062B68BE7FBF750FE3860EFE705233370B5
:1058F000C6E7414B434C4FF0000841461420C3F823
:10590000008002F0EDF841460B2002F0E9F8474A2A
:105910000123C2F80080337061E7374B3748344CBD
:1059200000221A60FBF77CFFA96C06F02BF9002817
:1059300040F04281324B00221A60122002F0D6F869
:10594000012800F0A781112002F0D0F801282D4C89
:105950007FF445AF2268364B0692069A1A600423FC
:1059600033703CE7244B4FF001081120C3F800804E
:1059700002F0BCF8044600287FF430AF0146152041
:1059800002F0AEF821460B2002F0AAF8274B86F869
:1059900000801C601B4C22E7174B1A4C00221A6037
:1059A000FDF772FB1BE7144B002212201A6002F075
:1059B0009DF8012808BF0323104808BF3370FBF788
:1059C000E3FD184B1B6898427FF408AF0B48FBF7C8
:1059D00001FF296906F0CCF800283FF4FFAE01234F
:1059E000084C3370FBE600BF44C1FF1F9494FF1FB7
:1059F0002C93FF1F6C94FF1F7494FF1FB894FF1F1C
:105A00008C94FF1FECC2FF1F4892FF1F6C92FF1F78
:105A1000E493FF1F5087FF1F3C87FF1F6092FF1F0B
:105A20008894FF1F6894FF1F0C200540A894FF1F57
:105A3000B094FF1FDFF8CC82AB4ED8F80030DFF80F
:105A4000C89243F0040300221120C8F800303270DD
:105A500002F04CF8D9F8003000285AD1012B00F0A0
:105A6000ED80A248A24CFBF7DBFEA96C06F08AF899
:105A7000002853D19F4B00221A60D9F800409B4860
:105A8000012C7ED0FBF7CCFEE968DFF8649206F0CB
:105A900079F8002800F0B680974C0021142002F01D
:105AA0001FF82268D8F800300292944A02991160D7
:105AB00003F0FD03C8F800308C48DFF83492FBF7A0
:105AC00089FE296906F040F800283BD000210B2010
:105AD00002F006F82268D8F800300492884A049947
