:1000000000800020BD010000397A0000F179000075
:10001000F1790000F1790000F1790000F179000038
:10002000F1790000F1790000F1790000397A0000DF
:10003000397A0000F17900004593000049940000EE
:10004000397A0000397A0000397A0000397A0000E4
:10005000397A0000397A0000397A0000397A0000D4
:10006000397A0000397A0000397A0000397A0000C4
:10007000397A0000397A0000397A0000397A0000B4
:10008000397A0000397A0000397A0000397A0000A4
:10009000397A0000397A0000397A0000397A000094
:1000A000397A0000397A0000397A0000397A000084
:1000B000397A00000D6E0000196E00001D6E000000
:1000C000296E00002D6E0000316E0000397A0000AC
:1000D000397A0000397A0000397A0000397A000054
:1000E000397A0000397A0000397A0000397A000044
:1000F000397A00000D9A0000397A0000AD800000C6
:10010000397A0000C5830000397A0000397A00008E
:10011000397A0000397A0000397A0000397A000013
:10012000397A0000397A0000397A0000397A000003
:10013000397A0000397A0000397A0000397A0000F3
:10014000397A0000397A0000397A0000397A0000E3
:10015000397A0000397A0000397A0000397A0000D3
:10016000397A000011860000397A0000397A0000DF
:10017000397A0000397A0000397A0000397A0000B3
:10018000397A0000397A0000397A0000397A0000A3
:10019000397A0000397A0000397A0000397A000093
:1001A000397A0000397A0000397A0000397A000083
:1001B000397A0000397A0000397A0000564B4CF247
:1001C000205210B51A804DF628121A8000BF00BFC9
:1001D00007F036FC514B4FF010621A60504A9A609B
:1001E000504ADA60504A136813F4807304D14F49BF
:1001F0000B604FF4A85313604D4B1A78110703D5C9
:100200001A7842F008021A704A4B4B492A221A7097
:100210004A4A4B4B8B4204D252F8040F43F8040B6A
:10022000F8E7484B484900228B4202D243F8042B9E
:10023000FAE74649464A002352F8230041F82300D2
:1002400001336F2BF8D1434B434A802103F8011B44
:100250009342FBD1414B3D4A1A60414B8A221A70AE
:10026000A3F5805324225A70A0221A709A7992071B
:10027000FCD59A79D406FCD43A4A937903F00C035E
:10028000082B384BF9D103221A7140225A719A79FE
:100290009006FCD5334A9179324B4906FBD5324A58
:1002A000324911600221516020221A709A7902F0BD
:1002B0000C020C2AFAD12E4B2E4A1A602E4B2F4AD2
:1002C0001A6000225A60072243F8042C2C4AC3F813
:1002D0000C2D62B607F06AFE144B1B68DA0705D5D1
:1002E000284807F047FC284B284A1A60284B1B78FF
:1002F0005B0609D5244C254B22689A4204D121483B
:1003000007F038FC002323600BF084FE07F09EFB0F
:1003100009F03CFAFEE700BF0E20054030800440A3
:10032000823F04000100002B10D0034014D0034092
:1003300002D0074000E007402092FF1FEC1A0100A6
:100340002087FF1F2092FF1FF4C5FF1F0082FF1FA1
:100350000000000000E400E05FE400E008ED00E0E1
:100360000050064000400640448004400000030165
:1003700004800440C010050014E000E0FF76010096
:1003800000002020A2BF4D5C1CE00340A5C3945A8E
:1003900000F00740FFFFFFFFFFFFFFFFFFFFFFFF32
:1003A000FFFFFFFFFFFFFFFFFFFFFFFFFFFFFFFF5D
:1003B000FFFFFFFFFFFFFFFFFFFFFFFFFFFFFFFF4D
:1003C000FFFFFFFFFFFFFFFFFFFFFFFFFFFFFFFF3D
:1003D000FFFFFFFFFFFFFFFFFFFFFFFFFFFFFFFF2D
:1003E000FFFFFFFFFFFFFFFFFFFFFFFFFFFFFFFF1D
:1003F000FFFFFFFFFFFFFFFFFFFFFFFFFFFFFFFF0D
:10040000FFFFFFFFFFFFFFFFFFFFFFFFDEF9FFFF23
:1004100010B5054C237833B9044B13B10448AFF33E
:1004200000800123237010BD2092FF1F00000000F8
:10043000E81A0100084B10B51BB108490848AFF392
:1004400000800848036803B910BD074B002BFBD0A0
:10045000BDE81040184700BF000000002492FF1FB5
:10046000E81A01002092FF1F00000000F0B400F124
:100470001C06134F00243146031F00F13C0243F8D1
:10048000044FB34241F8047F4FF0000542F8044F97
:10049000F5D10C4A0C490566002345668566C5669C
:1004A000056745678567C0F88850C267C0F8842033
:1004B000C0F8801080F8903080F8A830F0BC704709
:1004C0000000A040000048430000C8C22DE9F041F0
:1004D00090F8A84084B0202364008DF80530E4B281
:1004E000042380468DF804408DF80630032720460B
:1004F00007F004FF02210DF1050007F009FF8DF858
:10050000044005F0FDFD30B30921404808F0B4FD7A
:100510000023102221463E4808F0B0FF01213D484B
:1005200008F0AAFD002310229DF80510384808F0B5
:10053000A5FF0121374808F09FFD002310229DF8F8
:100540000610334808F09AFF0121324808F094FD64
:100550002F4808F083FF02208DF8044007F0D8FCF4
:1005600005F0CEFD00284CD102AE002407F0E6FED7
:1005700070B3072C1FD101E007F0F0FE07F0DEFE9C
:100580000028F9D105F0BCFD10B1214808F066FF44
:100590009DF80B009DF80C109DF80D209DF80E3075
:1005A000C8F89400C8F89810C8F89C20C8F8A03083
:1005B00004B0BDE8F08107F0D1FE054606F8010B56
:1005C00005F09EFD70B9013407F0B8FE0028D0D1C7
:1005D000072CD3D005F094FD78B9013FD8D09DF811
:1005E000044084E7E9B200231022094808F046FFDE
:1005F0000121084808F040FDE5E7054808F02EFF16
:10060000EBE70721044808F037FDADE7D80101000A
:10061000C087FF1FDC080100E401010090F898008A
:10062000704700BF90F89400704700BF90F89C009E
:10063000704700BF90F8A000704700BF082994BF22
:1006400050F82100002070472DE9F0410B4E804604
:10065000041F00F11C0754F8045F314628460BF0D4
:100660004FFC30B1D8F88C1028460BF067FC00B175
:100670002E46BC42EFD13046BDE8F081000020415B
:100680002DE9F041D0F88C704FF00008041F00F104
:100690001C0654F8045F394628460BF04FFC084905
:1006A00048B128460BF02CFC414620B128460BF0FF
:1006B00045FC00B1A846B442EBD14046BDE8F0810C
:1006C000000070422DE9F047D0F88C7082464FF060
:1006D0000009041F00F11C064FF0000854F8045FE5
:1006E000394628460BF02AFC0C4950B128460BF03D
:1006F00007FC30B1484629460BF05CF908F10108C7
:100700008146B442EAD1CAF8AC8040460BF006FA02
:10071000014648460BF00AFBBDE8F0870000704236
:10072000D0F8AC00704700BF38B5846E456E2146E6
:1007300028460BF0E5FB00B92C46204638BD00BF2B
:10074000D0F8A4302DE9F041002B79D1866E456EAA
:100750000446314628460BF02DF9E76E39468046AF
:100760000BF028F97E490BF0E1FA4FF07C5104467A
:100770000BF0E4FB002861D04FF07C5128460BF0D1
:10078000DDFB4FF07C51002860D128460BF0B8FB10
:1007900038B14FF07C5130460BF0D0FB002840F0D0
:1007A000A7804FF07C5128460BF0C8FB002860D191
:1007B0004FF07C5128460BF0C1FB002840F0A1808F
:1007C0004FF07C5128460BF0B9FB00286CD14FF05C
:1007D0007C5128460BF094FB4FF07C5110B330460F
:1007E0000BF0ACFB38B14FF07C5138460BF088FB76
:1007F000002840F0B0804FF07C5130460BF080FB79
:10080000002861D04FF07C5138460BF097FB002850
:1008100040F0A38038464FF07C510BF071FB68B17B
:10082000504C10E028460BF06BFB0028E3D1284623
:100830004FF07C510BF064FB002845D1BDE8F081FE
:1008400000EB8300046E2046BDE8F08130460BF0DB
:1008500075FB4FF07C5100283ED038460BF06EFB04
:100860000028F0D14FF07C5128460BF049FB0028BE
:1008700059D14FF07C5130460BF042FB002840D05C
:100880004FF07C5138460BF059FB002841D14FF016
:100890007C5130460BF052FB68B14FF07C5138462A
:1008A0000BF02EFB00284FD14FF07C5130460BF05F
:1008B00027FB00288BD04FF07C5138460BF020FBF3
:1008C000002884D02C46BEE730464FF07C510BF018
:1008D00017FB0028B2D09DE728460BF011FB00283B
:1008E000C7D04FF07C5130460BF028FB0028C0D019
:1008F0004FF07C5138460BF021FB00283FF451AFFC
:1009000018E04FF07C5130460BF018FB0028CBD09C
:10091000C3E7394628460BF04DF84FF07C510BF0F9
:1009200051F904468FE74FF07C5138460BF006FB37
:1009300000289ED0394630460BF03CF84FF07C51F1
:100940000BF040F904467EE740464FF07C510BF037
:1009500039F9044677E7344675E73C4673E700BF4C
:10096000000040400000A0C270B50446FFF7E8FE5A
:100970004FF07C510BF0E2FA28B3666E4FF07C51D9
:1009800030460BF0DBFAA56EF0B9E46E4FF07C5107
:1009900028460BF0D3FA58B1294630460BF0CEFA70
:1009A00030B1214628460BF0ABFA08B12C4620E0C6
:1009B0004FF07C5120460BF0C1FA20B12846214669
:1009C0000BF0BCFA78B970BD304629460BF098FAA6
:1009D000E46E0028DAD0304621460BF091FA002868
:1009E000D4D0344605E0304621460BF0A7FA002863
:1009F000E9D0204670BD00BF01392DE9F84380469B
:100A00001546032900F2E280DFE801F0AE855C02C2
:100A1000537B107B03EB00200BF080F86D490BF04B
:100A2000D1F8C8F81800EB7BA87B03EB00200BF093
:100A300075F868490BF0C6F8D8F86860D8F86470A3
:100A4000D8F80040C8F81C004046FFF78DFFD8F8E2
:100A50007C1005460BF054FA08B1C8F87C503946B2
:100A600030460BF06BFA002840F0A7803946D8F8E2
:100A700080000BF045FA10B13E46C8F8806008F1DE
:100A80002006C14608F14005002701E059F8044F4F
:100A9000306821460BF052FA0137214628B1D8F8C8
:100AA0008C000BF037FA00B13460214628680BF057
:100AB00027FA043600B12C60082F05F10405E5D1B2
:100AC000BDE8F883507A32380BF028F8C8F8740083
:100AD000A87A32380BF022F8C8F878006B7B287BB4
:100AE00003EB00200BF01AF83A490BF06BF8C8F84A
:100AF0001000EB7BA87B03EB00200BF00FF83549CF
:100B00000BF060F8D8F86860C8F81400D8F8647082
:100B1000D8F8004098E7507A32380AF0FFFFC8F85A
:100B20006C00A87A32380AF0F9FFC8F870006B7BC5
:100B3000287B03EB00200AF0F1FF26490BF042F876
:100B4000C8F80800EB7BA87B03EB00200AF0E6FF67
:100B500020490BF037F8D8F86860C8F80C00D8F8CE
:100B60006470D8F800406FE7137AC0F8B030907A1C
:100B700032380AF0D3FFC8F864000746E87A323802
:100B80000AF0CCFFC8F868006B7B0646287B03EBB5
:100B900000200AF0C3FF0F490BF014F8C8F800005A
:100BA000EB7B0446A87B03EB00200AF0B7FF094962
:100BB0000BF008F8C8F8040046E7D8F88010304673
:100BC0000BF0BCF900287FF458AF58E7866E476EEB
:100BD000046839E70AD7233C2DE9F04F90F8A83094
:100BE00091B007465B008DF80830FFF76FFCD7F82F
:100BF0009C00D7F8A040D7F89830D7F8942097F801
:100C0000A8108DE81100C94805F080FB30223D2373
:100C100003268DF809208DF80A300DF10A059DF89C
:100C2000089049F00108404607F068FB0DF1090003
:100C3000022107F06DFB8DF80880424602AB0020D0
:100C40005040082410F0800F4FEA400018BF80F099
:100C50000700013CC0B2F5D19D4202D013F8012F2C
:100C6000EEE707F04BFB05F04BFA002840F07C82E2
:100C700002208DF8089007F04BF905F041FA0028A2
:100C800040F0B8820DF10C0AD146002407F056FB63
:100C9000002843D0032C34D101E007F05FFB07F0BC
:100CA0004DFB0028F9D105F02BFA10B1A04808F04F
:100CB000D5FB312303268DF809308DF80A609DF8A5
:100CC000089049F00108404607F018FB0DF10900B3
:100CD000022107F01DFB8DF80880424602AB002080
:100CE0005040082410F0800F4FEA400018BF80F0F9
:100CF0000700013CC0B2F5D19D4228D013F8012F66
:100D0000EEE707F02BFB09F8010B804605F0F8F938
:100D100068B9013407F012FB0028BBD1032CBED008
:100D200005F0EEF978B9013E7FF479AFC1E75FFADB
:100D300088F1002310227E4808F0A0FB01217D48A5
:100D400008F09AF9E5E77A4808F088FBEBE707F046
:100D5000D5FA05F0D5F9002840F0C58102208DF8BC
:100D6000089007F0D5F805F0CBF9002840F03D8257
:100D70000DF10C09002407F0E1FA002844D0032CFF
:100D800035D101E007F0EAFA07F0D8FA0028F9D1E6
:100D900005F0B6F910B1664808F060FB3422012373
:100DA0008DF809208DF80A3003269DF8089049F047
:100DB0000108404607F0A2FA0DF10900022107F0F0
:100DC000A7FA8DF80880424602AB00205040082464
:100DD00010F0800F4FEA400018BF80F00700013C80
:100DE000C0B2F5D19D4228D013F8012FEEE707F0ED
:100DF000B5FA09F8010B804605F082F968B90134AB
:100E000007F09CFA0028BAD1032CBDD005F078F980
:100E100078B9013E7FF453AFC0E75FFA88F1002351
:100E20001022434808F02AFB0121424808F024F927
:100E3000E5E73F4808F012FBEBE707F05FFA05F043
:100E40005FF9002840F00E8102208DF8089007F02D
:100E50005FF805F055F9002840F0D6810DF10C0936
:100E6000002407F06BFA002800F08480032C72D174
:100E700001E007F073FA07F061FA0028F9D105F0F4
:100E80003FF910B12A4808F0E9FA012212238DF83F
:100E900009208DF80A304FF003089DF808402046DD
:100EA00007F02CFA02210DF1090007F031FA8DF854
:100EB000084005F025F930B309211F4808F0DCF897
:100EC0000023102221461A4808F0D8FA01211948B7
:100ED00008F0D2F8002310229DF80910144808F0F9
:100EE000CDFA0121134808F0C7F8002310229DF81D
:100EF0000A100F4808F0C2FA01210E4808F0BCF8A9
:100F00000B4808F0ABFA06208DF8084007F000F80F
:100F100005F0F6F8002840F0728103AD002607F0D6
:100F20000DFA00283FD0162E2FD109E0EC01010068
:100F3000C087FF1FDC080100D801010007F00EFA8E
:100F400007F0FCF90028F9D105F0DAF81626002898
:100F50007DD1152035E007F001FA09F8010B804634
:100F600005F0CEF800285BD1013407F0E7F900283E
:100F70007FF47CAF032C3FF47EAF05F0C1F800286E
:100F80006CD1013E7FF411AF7FE707F0E7F905F878
:100F9000010B044605F0B4F800284DD1013607F0E6
:100FA000CDF90028BFD1162ECAD005F0A9F8002827
:100FB0004DD1B8F101087FF470AF701E002840F3E6
:100FC0002482002303AA1C4612F8011B08254C406A
:100FD00014F0800F4FEA440418BF84F00704013D69
:100FE000E4B2F5D101338342EEDB9DF821808948DC
:100FF0004146224605F08AF9162EC146A34602D183
:10100000A04500F0138197F8A8108348CDF800B0F0
:101010004B46324605F0A8F9002011B0BDE8F08F2C
:101020005FFA88F1002310227C4808F027FA01219A
:101030007B4808F021F897E7E1B2002310227748B7
:1010400008F01CFA0121764808F016F8A6E7734864
:1010500008F004FA162EACD11520B2E76F4808F05C
:10106000FDF98EE709216F4808F006F823461022A3
:1010700041466A4808F002FA0121694807F0FCFF7E
:10108000234610229DF80910644808F0F7F9012161
:10109000634807F0F1FF102223469DF80A105F48CD
:1010A00008F0ECF901215E4807F0E6FF21460DF15A
:1010B0000B0002AA12F8014B6140C9B2082311F0DB
:1010C000800F4FEA410118BF81F00701013BC9B20F
:1010D000F5D19042EED11022504808F0CFF94F4898
:1010E00008F0BCF9B0E609214E4807F0C5FF2346D9
:1010F00010224146494808F0C1F90121484807F04B
:10110000BBFF234610229DF80910444808F0B6F9A9
:101110000121434807F0B0FF102223469DF80A1032
:101120003E4808F0ABF901213D4807F0A5FF2146F4
:101130000DF10B0002AA12F8014B6140C9B208235D
:1011400011F0800F4FEA410118BF81F00701013B08
:10115000C9B2F5D19042EED11022304808F08EF994
:101160002E4808F07BF9F9E509212E4807F084FFA5
:10117000234610224146294808F080F901212848D9
:1011800007F07AFF234610229DF80910234808F043
:1011900075F90121224807F06FFF102223469DF8C0
:1011A0000A101E4808F06AF901211D4807F064FF83
:1011B00021460DF10B0002AA12F8014B6140C9B2A1
:1011C000082311F0800F4FEA410118BF81F0070199
:1011D000013BC9B2F5D19042EED110220F4808F080
:1011E0004DF90E4808F03AF942E507210E4807F09C
:1011F00043FFBDE507210C4807F03EFF42E507210C
:10120000094807F039FF88E60721074807F034FF4F
:1012100024E600BF200201006C020100C087FF1F0E
:10122000DC080100D8010100E40101009DF80C3048
:1012300097F8A820B3EB420F7FF4EEAE9DF80D3087
:10124000012B7FF4E9AE9DF80E30122B7FF4E4AE53
:101250009DF810309DF80F0003EB00200AF05EFCB3
:1012600072490AF0AFFCD7F88810386604460AF0D5
:1012700065FE08B1C7F88840D7F8841020460AF008
:101280003FFE08B1C7F88440A7F1040907F1200622
:1012900007F140054FF008089AF806309AF8050063
:1012A00003EB00200AF03AFC61490AF08BFC49F894
:1012B000040F316804460AF023FE0AF1020A30B135
:1012C000D7F88C1020460AF02FFE00B13460296850
:1012D00020460AF033FE043600B12C60B8F1010854
:1012E00005F10405D8D19DF81E309DF81D0003EBD3
:1012F000002002300AF012FC4E490AF017FD0146A8
:101300004D480AF013FD4D490AF052FB4C490AF0D2
:1013100059FC054608F0C4FC0446284608F0C0FC09
:10132000484908F02FFD4849054620460AF04AFC86
:1013300046490AF03FFB4649044628460AF042FC6B
:10134000014620460AF036FB01464FF07E500AF077
:10135000EDFC40490AF02CFB9DF81F209DF8203041
:10136000786603EB022009300AF0D8FB3A490AF00C
:10137000DDFC014630480AF0D9FC30490AF018FB80
:101380002F490AF01FFC054608F08AFC044628464F
:1013900008F086FC2B4908F0F5FC2B490546204651
:1013A0000AF010FC29490AF005FB294904462846A1
:1013B0000AF008FC014620460AF0FCFA01464FF00C
:1013C0007E500AF0B3FC23490AF0F2FAB8660446EC
:1013D0003846FFF7C9FAF96F05460AF091FD00B1EA
:1013E000FD677D6E204629460AF0A8FDB0B9294662
:1013F000D7F880000AF084FD10B12C46C7F8804071
:10140000164804F083FF012007E69DF82190144858
:1014100049464246C34604F079FFF4E5D7F8801008
:1014200020460AF08BFD0028E8D1E9E71357053B79
:101430002003C839001601470AD7E33FE17A644028
:1014400000007A4400004040A40D8F395A80473A8A
:1014500046A6DB3333938843002C01474402010046
:10146000200201002DE9F8430026D0F88C800666A2
:101470008146044600F1200754F8045B41462846A3
:101480000AF05CFD084950B128460AF039FD30B138
:10149000304629460AF08EFA0646C9F86000BC427A
:1014A000EAD13046BDE8F8830000704205299ABFB2
:1014B00000EB8100406E0020704700BF3E2998BFBE
:1014C00080F8A810704700BF90F89000704700BFE8
:1014D000C0F8A410704700BF80F89010704700BF9C
:1014E00030B50F4CC0F88C1083B020460D4607F085
:1014F000B5FF204607F0B2FF284609F0B9FE0225E5
:1015000002460B460095204608F002F8204607F0F8
:10151000A5FF204603B0BDE8304007F09FBF00BFE5
:10152000C087FF1F70B500F5315506462C3500F118
:1015300020042046B434FEF799FFAC42F9D106F1FD
:10154000D405012428460021FFF7C6FF214628467E
:101550000134FFF7B3FF3F2C05F1B405F2D142F699
:10156000744400250548064A064B35550021306174
:101570007161B261F361304670BD00BF00007A4412
:10158000000048430000C8C22DE9F04142F678430C
:1015900000F53156374600228046C2502C36383787
:1015A00000F1D40402E0B434B4420DD02046FFF779
:1015B0008BFF0028F7D020463D68FFF7B1F8B43420
:1015C0002844B4423860F1D142F6784358F8030019
:1015D000BDE8F081F8B50E46096801F47F65002981
:1015E0000446A5F5C06511DB2D0901F00F07B423F2
:1015F00003FB0544203420460121FFF76DFF3246EE
:1016000039462046BDE8F840FFF7F6B90A4801F030
:101610000F0707F023FF1221084807F02DFD31685E
:10162000054801F0004100230A2207F027FF024885
:101630002D0907F013FFDAE7C087FF1FBC02010086
:10164000704700BF704700BF2DE9F04304460023F8
:1016500083B0064644F8D43B012504E001353F2D14
:1016600004F1B40469D02046FFF72EFF0028F5D01E
:10167000504804F04BFE29464F4804F047FE2046F0
:10168000FFF7AAFA2046FFF7EDFE09F0F1FD02464A
:101690000B464A4804F03AFE2046FEF7D5FF804646
:1016A0002046FEF7EDFF0746404609F0E1FD804683
:1016B0003846894609F0DCFD42464B46CDE900013B
:1016C0003F4804F023FE00212046FFF7EFFE0121F2
:1016D00080462046FFF7EAFE0746404609F0C8FD6F
:1016E00080463846894609F0C3FD42464B46CDE95F
:1016F0000001344804F00AFE2046FFF7B3FE01461D
:1017000030680AF057F930602046FFF72DF9B169CB
:101710000AF0F6FB002833D12046FFF705F8F169FF
:101720000AF00CFC002899D02046FEF7FDFF013599
:101730003F2DF06104F1B40495D170680AF0EEF920
:10174000014630680AF0F2FA7169306004460AF026
:10175000F5FB00B17461316920460AF0D1FB00B19C
:1017600034610B2006F09EFB42F67443F35C60B9D3
:101770009BB142F674430122F25403B0BDE8F083FA
:101780002046FFF7F1F8B061C6E753B942F674435B
:101790000022F25403B0BDE8F0830B4804F0E4FDEE
:1017A000E7E70A4804F0CAFD42F674430022F25407
:1017B000F0E700BFB8040100D00201000C030100F3
:1017C000200301004C03010068030100A003010095
:1017D00070B5114B836000F5315506462C3500F18C
:1017E000D40402E0B434AC4213D02046FFF76CFEC0
:1017F0000028F7D02046FEF727FFB1680AF080FBEB
:101800000028EFD02046FEF71FFFB434AC42B06092
:10181000EBD1B06870BD00BF0000A04070B50023E0
:1018200000F531550646C3602C3500F1D40402E0C2
:10183000B434AC4213D02046FFF746FE0028F7D060
:101840002046FEF71DFFF1680AF078FB0028EFD074
:101850002046FEF715FFB434AC42F060EBD1F068DF
:1018600070BD00BF0068704741607047F8B500F573
:1018700031550F4616462C3500F1D40402E0B4343D
:10188000AC420FD02046FFF71FFE0028F7D02046BD
:101890003946FFF71DFE20463146B434FFF720FEDF
:1018A000AC42EFD1F8BD00BF2DE9F84300F531554A
:1018B00042F670432E4600278146C7504FF000087D
:1018C0002C35303600F1D40402E0B434AC4213D0ED
:1018D0002046FFF7F9FD0028F7D033680133336065
:1018E0002046FEF72DFF0F490AF028FB88B9B434D3
:1018F000AC4207F10107EBD142F6704359F80300FF
:10190000C01B0AF00BF9014640460AF00FFABDE889
:10191000F8832046FEF714FF014640460AF04AF8D5
:101920008046D2E700008CC2F8B500F53155074675
:1019300000262C3500F1D40402E0B434AC420FD0C0
:101940002046FFF7C1FD0028F7D02046FEF7BAFE7B
:10195000014630460AF02EF8B434AC420646EFD1C8
:1019600042F67043F8580AF0D9F8014630460AF0BA
:10197000DDF9F8BD2DE9F04F06468FB09B488B4648
:1019800004F06CFC994804F069FC984804F066FC8B
:1019900042F670433046F2580D92FFF7F5FD73683A
:1019A0000C930746306809F063FC80463046894650
:1019B000FFF7BAFF82463046B468F568FFF774FF58
:1019C00009F056FCCDE90A012146284609F0F0FF4E
:1019D00087490AF0F7F809F04BFCCDE908012846E1
:1019E00009F046FCCDE90601204609F041FCCDE9AD
:1019F0000401504609F03CFC0D9A0C9BCDE9020114
:101A0000CDE9008911467B483A4604F027FC774827
:101A100004F024FCD4364FF001084FF0000A07E030
:101A200008F10108B8F13F0F06F1B40600F0D580C7
:101A30003046FFF749FD0028F2D03046FEF7EEFDB4
:101A40003046FEF7EFFD3046FEF7F0FD3046FEF77C
:101A5000F1FD0821684807F00FFB4146674807F091
:101A60004DFDB8F1090F40F3BB800221644807F037
:101A700003FB3046FFF7F6FC09F0FAFB5FFA8BF93F
:101A800002460B46CDF800905C4807F041FD01216D
:101A90005C4807F0F1FA5546002420E006215A4838
:101AA00007F0EAFA2946554807F028FD0221574871
:101AB00007F0E2FA21463046FEF7C0FD09F0D8FBF8
:101AC000CDF8009002460B464C4807F021FD01344A
:101AD00001214C4807F0D0FA082C09D03D46092DC9
:101AE00005F10107DADC0121494807F0C5FAD5E71D
:101AF000424807F0B3FC0921464807F0BDFA00212F
:101B00003046FFF7D3FC09F0B3FB022402460B4634
:101B100000943A4807F0FCFC0A213F4807F0ACFA71
:101B200001213046FFF7C2FC09F0A2FB00940246F7
:101B30000B46324807F0ECFC0A21384807F09CFAC3
:101B400021463046FFF7B2FC09F092FB00940246B2
:101B50000B462A4807F0DCFC0A21314807F08CFAD2
:101B600003213046FFF7A2FC09F082FB00940246F5
:101B70000B46224807F0CCFC0A212A4807F07CFAE1
:101B800004213046FFF792FC09F072FB00940246F4
:101B90000B461A4807F0BCFC0A21234807F06CFAF0
:101BA00005213046FFF782FC09F062FB00940246F3
:101BB0000B46124807F0ACFC01211C4807F05CFA08
:101BC00008F101080D4807F049FCB8F13F0F0AF190
:101BD000080A06F1B4067FF42BAF0FB0BDE8F08F12
:101BE00001210B4807F048FA3FE700BFB8040100A5
:101BF00000007A4450060100F0060100C087FF1F74
:101C000094140100FC06010000070100CC0801004B
:101C1000DC0801000807010014070100200701008B
:101C20002C0701003807010044070100500701009C
:101C30002DE9F04100F1D40582B0012705E001371C
:101C40003F2F05F1B40500F08B802846FFF73CFCE0
:101C50000028F4D03946444807F050FC012143489D
:101C600007F00AFA00244FF0020821462846FEF742
:101C7000E5FC09F0FDFACDF8008002460B463A4833
:101C800007F046FC01340121384807F0F5F9082C2B
:101C90004FF00206E9D100212846FFF707FC09F0C2
:101CA000E7FA009602460B462F4807F031FC012167
:101CB0002E4807F0E1F901212846FFF7F7FB09F06C
:101CC000D7FA009602460B46274807F021FC01216F
:101CD000264807F0D1F931462846FFF7E7FB09F01F
:101CE000C7FA009602460B461F4807F011FC012177
:101CF0001E4807F0C1F903212846FFF7D7FB09F07A
:101D0000B7FA009602460B46174807F001FC01217E
:101D1000164807F0B1F904212846FFF7C7FB09F080
:101D2000A7FA009602460B460F4807F0F1FB012187
:101D30000E4807F0A1F905212846FFF7B7FB09F087
:101D400097FA009602460B46074807F0E1FB013779
:101D5000054807F083FB3F2F05F1B4057FF475AF0D
:101D600002B0BDE8F08100BFC087FF1F540701002B
:101D7000F8B53948394F3A4D3A4E3B4C04F06EFABB
:101D80003A4B3B4A3B495A6010203B4A1870DF608F
:101D90003A48196100273A495D615E62394D9C619C
:101DA0004FF07C56384C9A62D862384A1F630C2038
:101DB000374F59639D6340F61C410A255E649C645D
:101DC00041F204065A24DA641865022201201F62D7
:101DD0009966304FDD66002164251E675C674FF40D
:101DE000967632245A705A7218725865DF61DF6332
:101DF00083F840105E66DE651C664FF47A7E9D6552
:101E0000254F9967254EDA67C3F88010C3F89440D0
:101E1000C3F8A040C3F89C10FF2441F28831C3F8F6
:101E2000A800C3F8AC20052040F2D662C3F8B05039
:101E3000C3F898E0C3F88870C3F88C60C3F8A44076
:101E4000A3F8B600C3F89010A3F8B410A3F8842048
:101E5000A3F88620F8BD00BF5807010066668640DB
:101E600033338340CDCCCC3DCDCC4C402493FF1FAD
:101E700020A107000000404000008242000020C175
:101E8000000020420000A0409A9979400AD7233DE3
:101E900033337340CDCC4C3E0000684200C0204438
:101EA000F0B54FF47A6085B006F032F800210F20CB
:101EB00006F006F800210E2006F002F8002111209D
:101EC00005F0FEFF0021102005F0FAFF002112208E
:101ED00005F0F6FF0021132005F0F2FF01210B2091
:101EE00005F0EEFF01210C2005F0EAFF012114208E
:101EF00005F0E6FF0121152005F0E2FF0121162083
:101F000005F0DEFF0121172005F0DAFF0121052091
:101F100005F0D6FF8E4C8F4D0121062005F0D0FF35
:101F200001210D2005F0CCFF208809F0F3FD0146CA
:101F3000162005F02FFF208809F0ECFD0146172040
:101F400005F028FF208809F0E5FD0146052005F091
:101F500021FF208809F0DEFD00240146062005F05F
:101F600019FF009423467C4A7C497D4804F0F6FB27
:101F7000E6B2324677497A4804F09EFB2B797549E0
:101F800077486FF30003013432462B7104F08AFB6B
:101F9000082CEDD10924E6B232466E49704804F0AF
:101FA0008BFB2B796B496E4843F0010301343246B9
:101FB0002B7104F077FB0D2CEDD16A4C4FF0FF3202
:101FC0002068102104F096FF20684FF0FF321021A6
:101FD00004F068FF20684FF0FF32022104F076FF22
:101FE00020684FF0FF32022104F07AFF00220F2117
:101FF000206804F089FF0C215B4807F03DF85B483E
:1020000007F02CFA14215A4807F036F8574807F021
:1020100025FA564807F022FA1721564807F02CF8FF
:10202000524807F01BFA544B1B789A0600F1BE8009
:10203000514B1B781B0700F1C5804F4B1B785F0786
:1020400000F1CC804C4B1B789E0700F1D3804B4BAA
:102050001B781D0600F1DA80484B1B785C0600F106
:10206000E180464B1B78980600F1E880434B1B78D3
:10207000590700F1EF80414B1B781A0700F1F680F9
:102080003E4B1B789B0700F1FD80384807F0E6F9CE
:1020900072B63B4A4CF220534DF62811202413808F
:1020A00023461180013BFDD1364D37483749002387
:1020B0004FF480562E8003800B8032F80E3C9BB28A
:1020C00043F0D30322F80E3C62B69D2006F0C6F81A
:1020D00021462F482F4D06F0CFFF244807F0BEF9C8
:1020E00005F1B8062F462C46601B05F0EFFB04F8FF
:1020F000010BB442F8D13B78102B01D0FFF738FE2A
:102100002548FFF79FFA042003F0F4FF234B2248F1
:1021100000221A60FFF794FA01210D2005F0BCFEA1
:10212000796D1D48FFF7A0FB7A6C97F840101A48AC
:10213000FFF79CFB1A4B1B491A68039203981B6814
:102140000293029A184B08601A6005B0F0BD00BFF8
:102150002487FF1FE893FF1FF0C2FF1F20A1070085
:1021600054C1FF1F9494FF1F78070100C087FF1F11
:1021700088070100A007010001F0074000F00740B8
:102180000E2005400420054006200540162005408D
:10219000A40801002493FF1FC894FF1F4C92FF1F47
:1021A000FCC2FF1FC494FF1FF093FF1F2121394879
:1021B00006F062FF384807F051F9384B1B781B07CF
:1021C0007FF53BAF0C21364806F056FF324807F04A
:1021D00045F9324B1B785F077FF534AF0E2131484C
:1021E00006F04AFF2C4807F039F92C4B1B789E0764
:1021F0007FF52DAF17212C4806F03EFF264807F04B
:102200002DF92A4B1B781D067FF526AF0E21284895
:1022100006F032FF204807F021F9244B1B785C06BA
:102220007FF51FAF1221234806F026FF1A4807F05A
:1022300015F91E4B1B7898067FF518AF13211E4821
:1022400006F01AFF144807F009F9184B1B785907D4
:102250007FF511AF1C21194806F00EFF0E4807F05C
:10226000FDF8124B1B781A077FF50AAF19211448A5
:1022700006F002FF084807F0F1F80C4B1B789B07AB
:102280007FF503AF18210F4806F0F6FE024807F06D
:10229000E5F8FAE6B8070100C087FF1F01F0074024
:1022A000DC070100EC070100FC07010000F007401B
:1022B0001408010024080100380801004C0801003E
:1022C0006C0801008808010070B5464C464D47482F
:1022D000E66800232B70FFF7A1FA0146304609F0AB
:1022E0000FFE08B104232B704048FFF771FA2169F3
:1022F00009F006FE18B12B7843F010032B703B4811
:10230000FFF7D2FAA16A09F019FE18B12B7843F051
:1023100040032B70002335486B70FFF7C5FAE16A64
:10232000314E09F0EDFD08B10123737000232F48F1
:10233000EB70FFF773FA05462C482B4EFFF748FA6F
:102340000146284609F034FBE16B09F0F7FD08B1BE
:102350000123F370264D254800232B70FFF75EFA0A
:10236000616A0646E06809F023FB0146304609F041
:10237000E5FD08B104232B701C48FFF729FA616AB8
:102380000646206909F016FB0146304609F0B8FD03
:1023900018B12B7843F010032B701448FFF784FA20
:1023A000A16B0646A06A09F003FB0146304609F01E
:1023B000C5FD18B12B7843F040032B7000230B4868
:1023C0006B70FFF771FAA16B0546E06A084C09F0E3
:1023D000F1FA0146284609F093FD08B10123637024
:1023E00070BD00BF2493FF1F2093FF1FC894FF1FE1
:1023F0008494FF1F2DE9F0417C4C2368012B82B0AF
:1024000031D0022B00F0A880032B00F0C8803BBB2A
:10241000774B784AD3F8A010D3F8A43012685B1A2F
:10242000632B0EDD744803FB02F380FB0302DB1712
:10243000C3EB62131944062002B0BDE8F04105F079
:10244000ABBB6E4803FB022380FB0302DB17C3EB2D
:1024500022121144062002B0BDE8F04105F09CBBF9
:1024600002B0BDE8F081664E33680A33B3F57A7F77
:1024700000F3B7801846336009F050FB614909F05A
:10248000A1FB80465A4DD5F8A00009F047FB07464E
:10249000D5F8A40009F042FB394609F089FA414613
:1024A00009F090FB584909F041FC394609F082FADD
:1024B00009F064FD0146062005F06EFB0221534839
:1024C00006F0DAFD524806F0C9FF0621514806F031
:1024D000D3FD306809F022FB4A4909F073FB08F08C
:1024E000C7FE022702460B460097494807F010F83E
:1024F0000D21494806F0C0FDD5F8A00009F00EFBFB
:102500008046306809F00AFB3E4909F05BFB06464D
:10251000D5F8A40009F002FB414609F049FA01464A
:10252000304609F04FFB384909F000FC414609F0FC
:1025300041FA08F09DFE00970B460246344806F02B
:10254000E7FF3946314806F097FD314806F086FF2F
:102550002368022B7FF458AF294B254E00221A60C6
:10256000D6F8A00009F0DAFA0546D6F8A40009F07A
:10257000D5FA294609F01CFA002109F023FB22496B
:1025800009F0D4FB294609F015FA09F0F7FC0146D9
:10259000062005F001FB2368032B7FF438AF184BAE
:1025A000134E4FF47A721A60D6F8A00009F0B6FA0A
:1025B0000546D6F8A40009F0B1FA294609F0F8F961
:1025C000114909F0FFFA104909F0B0FB294609F05A
:1025D000F1F909F0D3FC0146062005F0DDFA236885
:1025E00015E700234FF0000833604BE77494FF1F9A
:1025F0002493FF1F3087FF1F1F85EB51CBF08D28E1
:102600005092FF1FCDCCCC3D0000C8429414010075
:10261000C087FF1FC8080100D008010070B5A2489C
:10262000A24C06F01BFFA04806F018FF9E4806F0DB
:1026300015FF0D219E4806F01FFDD4F89C30012B9C
:1026400011D09C4C9848217800230A2206F016FFEE
:102650002378052B67D8DFE813F0E900EE00F300DC
:10266000F800FD00E4000921934806F005FD9348B9
:10267000FFF7AEF8216909F043FC18B10F2190482B
:1026800006F0FAFC8D48FFF7C9F8E16809F056FC3E
:1026900018B10E218B4806F0EFFC8848FFF7BEF812
:1026A00005468648FFF794F80146284609F080F968
:1026B000E16B09F043FC18B11121834806F0DCFC02
:1026C0007E48FFF7F1F8A16A09F038FC18B10C2137
:1026D0007E4806F0D1FC7948FFF7E6F8E16A09F098
:1026E0000FFC18B10D217A4806F0C6FC794B7348EF
:1026F0001B68012B00F0C280FFF76AF821696B4D5F
:1027000009F01CFC78B16D48FFF788F8E96809F01A
:10271000F7FB40B1674B1B78052B00F0C080082108
:102720006D4806F0A9FC02216C4806F0A5FC1220B9
:1027300005F0B8FB012800F09C80112005F0B2FBE9
:10274000012800F09180664B1B68012B00F0878008
:102750000221624806F090FC624B5348196806F06B
:10276000CDFE514806F07AFE04215F4806F084FC55
:102770000B2005F097FB002301460A224A4806F089
:102780007DFE0C2005F08EFB002301460A22464800
:1027900006F074FE142005F085FB002301460A2292
:1027A000414806F06BFE152005F07CFB0023014636
:1027B0000A223D4806F062FE06214C4806F05CFC09
:1027C0004B4B394819680222002306F057FE0421BA
:1027D000484806F051FC112005F064FB0023014637
:1027E0000A22314806F04AFE102005F05BFB002368
:1027F00001460A222C4806F041FE122005F052FB49
:10280000002301460A22284806F038FE132005F06E
:1028100049FB002301460A222348BDE8704006F028
:102820002DBE0721344806F027FC7CE706213348FB
:1028300006F022FC77E70721314806F01DFC72E71D
:102840000721304806F018FC6DE708212E4806F0F5
:1028500013FC68E70B212D4806F00EFC63E71121FD
:102860002B4806F009FC73E70A212A4806F004FC0D
:1028700069E70E21284806F0FFFB5EE7FEF7A8FF98
:10288000216A09F05BFB00283FF449AF1621234879
:1028900006F0F2FB0A21224806F0EEFB43E70A218C
:1028A0001F4806F0E9FB3EE7C087FF1F2493FF1F88
:1028B000E00801008094FF1FF0080100C894FF1F8A
:1028C000FC0801000C0901001C090100300901008D
:1028D000400901005C92FF1F74090100941401007B
:1028E0009C94FF1F7894FF1FE8090100F009010084
:1028F000DC93FF1FF8090100B00901008009010005
:10290000880901009C090100A40901009009010047
:10291000D4090100C8090100B809010050090100EB
:10292000680901002DE9F04F934C944FE36F012BA0
:102930008DB000F04981032B50D0914E914DA36F83
:102940009148012B09BF2968296801F100412960DC
:1029500004F0AEFE3368002B40F0CE808A4804F0CD
:102960007DFEE36F3860012B064600F0D280874978
:1029700009F0E4FA78B98649304609F0C1FA50B94D
:10298000844A854B12680B920B9A1A6000232B60C5
:102990000DB0BDE8F08FDFF8FC817F4CD8F8003037
:1029A0000A930A9823687D4FC01A09F0B3F831469C
:1029B00009F008F97A4909F0B9F9794909F0B6F945
:1029C000396808F0F7FFD8F800300993099B2360B5
:1029D000002338602B600DB0BDE8F08FDFF8C881B0
:1029E000704DD8F80000664E012300220F212B60A5
:1029F00004F08AFA2B68012B336800F00381002B66
:102A000040F0A6810021D8F80000DFF8B891664DAB
:102A100004F0CCFA33681FFA80FBC9F800B0002B31
:102A200040F07B810021D8F80000564DDFF878A1F6
:102A300004F042FAB4F8863040F6E44101FB0BF1B1
:102A4000B1FBF0F0C01A00B209F068F857498346AC
:102A5000D4F8880009F0B6F80146584609F066F93E
:102A6000D9F800302860632BDFF858B100F34981B2
:102A700000232B603368002B3FF461AF02214C48E8
:102A800006F0FAFAD9F80020D8F8000040F6E4433E
:102A9000002103FB02F804F00FFAB8FBF0F009F094
:102AA00039F88046B4F8860009F038F80146404607
:102AB00008F07EFF08F0DCFB4FF0020802460B46F0
:102AC000CDF800803B4806F023FD4146384806F02B
:102AD000D3FA286808F0CCFBCDF8008002460B46FC
:102AE000344806F015FD4146334806F0C5FA414624
:102AF0002F4806F0C1FA22E7234804F0AFFD08F0A2
:102B0000B7FB022602460B4600962A4806F000FD57
:102B100024E7244B1B68012B00F02681022B7FF455
:102B200035AF264909F00AFA30B92549304609F08F
:102B3000E7F9002800F04781DFF85880164CD8F8F4
:102B40000030079307982368144FC01A08F0E2FF7B
:102B5000314609F037F8124909F0E8F8104909F050
:102B6000E5F8396808F026FFD8F800300693069B90
:102B7000386023600AE700BF2493FF1F6892FF1F9D
:102B8000C094FF1F5892FF1FFC92FF1F0000FA43E2
:102B90000000FAC3FCC2FF1F9094FF1F7492FF1F36
:102BA00000007A445087FF1F9494FF1F17B7D13855
:102BB00094140100C087FF1F3C0A010000C82F4881
:102BC00000A08CC61C93FF1F3D689849284609F059
:102BD00097F930B12846964909F0B0F900287FF4FA
:102BE000FDAEDFF85882934DD8F80000924E0223D4
:102BF00000220E212B6004F087F92B68012B33682B
:102C00007FF4FDAE002B40F000810021D8F80000D9
:102C1000DFF86C92894D04F0C9F933681FFA80FB24
:102C2000C9F800B0002B40F0D5800021D8F8000092
:102C3000834D04F041F9B4F8843040F6E44A0AFBCD
:102C40000BFBBBFBF0F0C01A00B208F067FF7D4938
:102C50008346D4F88C0008F0B5FF0146584609F0C9
:102C600065F8D9F8003028600021D8F800000AFB88
:102C700003FA04F021F9B4F88430BAFBF0F00FFA4B
:102C800080FAC3EB0A03002BB4F8B620B8BF5B424E
:102C90009342BCBF00232B603368002B3FF44FAE40
:102CA0000221694806F0E8F9D9F80020D8F80000B8
:102CB00040F6E443002103FB02F804F0FDF8B4F809
:102CC0008410B8FBF0F000B2411A604806F016FC20
:102CD00002215D4806F0D0F9286808F0C9FA4FF0E3
:102CE000020802460B46CDF80080584806F010FC5A
:102CF0000321574806F0C0F94146534806F0BCF995
:102D00001DE6DAF80000002104F0D6F8DBF8003008
:102D100064389842FFF4ACAEACE60021286804F0B9
:102D2000CBF840F6E44100230A2201FB0BF1B1FB92
:102D3000F0F1464806F0A2FB0221434806F09CF958
:102D4000B4F88610414806F0D9FBD9F800B069E61E
:102D50003E4806F083FB0C213E4806F08DF90C211D
:102D60003D4806F089F94DE63C4909F0E7F858B9C5
:102D70003B49304609F0C4F830B93A4A3A4B126838
:102D80000592059A1A6001E6DFF8D880364CD8F82B
:102D90000030049304982368344FC01A08F0BAFE38
:102DA000314608F00FFF324908F0C0FF304908F003
:102DB000BDFF396808F0FEFDD8F800300393039B8F
:102DC00038602360E2E5274A274B12680892089A88
:102DD0001A60DBE50021286804F06EF840F6E44153
:102DE00000230A2201FB0BF1B1FBF0F1174806F0BA
:102DF00045FB01211F4806F03FF9B4F88410134841
:102E000006F07CFBD9F800B00FE7104806F026FB6F
:102E1000E36F012B4FF00B010CBF1748174806F06A
:102E20002BF90C210C4806F027F9EEE600709446C9
:102E3000007094C65087FF1FC094FF1F9494FF1F1B
:102E40005892FF1F17B7D13894140100C087FF1F95
:102E5000280A01002C0A0100180A01000000FA43A8
:102E60000000FAC3FCC2FF1F9094FF1F7492FF1F63
:102E700000007A44DC080100000A01000C0A01008D
:102E80001C93FF1F2DE9F047B24D2B6884B0002B37
:102E90007ED0B14CDFF8C882B04EE36FAE4D012B4F
:102EA00000F08F80D4F88030AB4F012B00F0BC8055
:102EB000D6F80090D7F858A07D6DA94F05FB0AF50C
:102EC0004FF47A7000FB05F008F028FEA54905468E
:102ED000484608F077FE294608F028FFA24908F086
:102EE00071FE09F04BF86328C8F800004BDD284656
:102EF0009C4908F01BFF642330603B609B4B1B68C0
:102F0000002B3DD0E36F944D012B00F0BB80032BD1
:102F100000F00981022B00F00C810221944806F098
:102F2000ABF8944B186808F0A3F9022402460B464C
:102F30000094914806F0ECFA2146904806F09CF87F
:102F400021468B4806F098F8D8F800108A4806F019
:102F5000D5FA06218A4806F08FF83068814908F0D2
:102F600031FE08F085F9009402460B46824806F0CF
:102F7000CFFA0321834806F07FF87F4806F06EFA07
:102F800004B0BDE8F0870028BCBF00233B60B5E774
:102F90007D4E714C33680293029A42F228339A4272
:102FA00000F2BA8033680393039A42F210739A4294
:102FB00074D8E36FDFF8A881684E674D012B7FF46A
:102FC00071AF7248FEF7B0FC7149D5F86890EF6EAA
:102FD00008F0F8FD08F0F8FF2A6F6B6FC9EB0202EA
:102FE000DB1B80B29A42C9EB000040F3AD8003FBCB
:102FF0000000531C90FBF3F31F44A06D636DC8F8F1
:10300000007000FB07F003FB00F000EB80004000C5
:1030100008F084FD5349504F08F088FED4F8803002
:103020003060012B7FF444AF5848FEF77DFC5849CF
:10303000D7F86890FD6E08F0C5FD08F0C5FF3A6F3F
:103040007B6FD4F858A0C9EB02025B1B80B29A4296
:10305000C9EB0000C6BF03FB00000132584390FBE0
:10306000F2F02844656D00FB0AF005FB00F000EB70
:103070008000400008F052FD3A4908F057FE8146B2
:1030800030601AE7434B1B68012B4FF00A010CBF5D
:103090004148424805F0F0FFEB6F38E73B48FEF748
:1030A00043FC3B49A76EE66E08F08CFD08F08CFFF0
:1030B000226F636FD21B9B1B80B29A42A0EB07006A
:1030C0003CDD03FB0000531C90FBF3F39819A26D49
:1030D000DFF88C80636DC8F8000002FB00F003FB92
:1030E00000F000EB8000400008F018FD1D491B4E69
:1030F00008F01CFE0123306002211D482B6005F002
:10310000BBFF1D4806F0AAF95921254805F0B4FF78
:10311000194806F0A3F9C0E61C48626C94F8401008
:10312000FEF7A4FB3EE710211E4805F0A5FFE36F64
:10313000F0E607211C4805F09FFFEEE603FB00F3D5
:1031400093FBF2F39819C2E703FB00F393FBF2F34E
:103150001F4452E75492FF1F2493FF1F7492FF1FD6
:103160003087FF1FE4388E3E0000C8423887FF1FBB
:10317000941401006892FF1FC087FF1F3C0A0100E2
:10318000D00A0100D80A0100FCC2FF1FC894FF1F2B
:1031900000007A445087FF1F9C0A0100A80A010022
:1031A000400A0100B40A0100C80A0100F0B511206C
:1031B00083B004F077FE012813D000210B2004F027
:1031C0006BFE00210C2004F067FE0021152004F0A6
:1031D00063FE1D491D4B0120002208701A6003B0D8
:1031E000F0BD01460446152004F056FE1849194A60
:1031F000194B09680191D2F890001B680199134D91
:10320000034402268B422E6017D8D2F8980008F0AB
:1032100085FC124B196808F073FE074668B9214611
:103220000B2004F039FE084A032339460C2016709F
:103230002B6004F031FE03B0F0BD01210C2004F03E
:103240002BFE03B0F0BD00BF8094FF1FBC94FF1F96
:10325000FCC2FF1F2493FF1FC494FF1F6892FF1F2F
:10326000F0B5684E684D34682B689C4287B039D001
:1032700014F0010155D014F0020149D014F00401FA
:103280003DD0E3070ED52B68DF070BD45F4F3A68BC
:10329000002A00F082805E4B1B680193019B9342E1
:1032A0006DD83468A0070DD52B6899070AD4594FFB
:1032B0003A68002A4CD0564B1B680393039B9342F9
:1032C00038D8346862070DD52B685B070BD4524F92
:1032D0003A68002A7ED04E4B1B680593059B9342AB
:1032E00068D834680CB107B0F0BD2146162004F050
:1032F00053FC2146172004F04FFC07B0F0BD052019
:1033000004F04AFC2B68346803F0FB032B60B8E739
:10331000172004F041FC2B68346803F0FD032B6098
:10332000ACE7162004F038FC2B68346803F0FE0389
:103330002B60A0E7394B1720D3F8941004F02CFC35
:103340002B68346843F0020300222B603A60B9E72F
:10335000334806F083F80C21324805F08DFE3048E2
:1033600006F07CF8FF21172004F016FC284B2E4AAB
:1033700019680291029912680A443A609CE7274B47
:103380001620D3F8941004F007FC2B68346843F03F
:10339000010300222B603A6084E7FF21162004F02D
:1033A000FBFB1B4B204A19680091009912680A44E4
:1033B0003A6071E7194B0520D3F8941004F0ECFB48
:1033C0002B68346843F0040300222B603A60002C21
:1033D00089D18AE7124806F041F80C21134805F01C
:1033E0004BFE0F4806F03AF8FF21052004F0D4FB0D
:1033F000074B0D4A19680491049912680A443A600F
:103400006AE700BFBC94FF1FDC93FF1F5894FF1FA7
:10341000FCC2FF1F5C94FF1F6094FF1F2493FF1FDB
:10342000C087FF1FDC0A01006887FF1FEC0A01004C
:103430002DE9F047544EDFF87481DFF8749130685D
:10344000524D00220F2103F05FFD002301222221B3
:103450004F48C8F80030C9F8002005F00DFED8F834
:103460000030132B22DC40F6E44700213068B5F829
:1034700084A003F09BFD00210446306803F01CFD8E
:10348000A4B2012107FB04F4B4FBF0F44148544416
:10349000A5F8844005F0F0FD642004F039FDD8F86B
:1034A00000300133132BC8F80030DEDDB5F884306E
:1034B000394A3A48A2FB03129B1A02EB5303C3F3A7
:1034C0000F131946A5F8843006F018F81D2134486A
:1034D00005F0D2FD0221334805F0CEFD2F4805F05E
:1034E000BDFF00231A460E213068C8F8003003F0F3
:1034F0000BFD022322212648C9F8003005F0BCFD4F
:10350000D8F80030132B22DC40F6E4470021306865
:10351000B5F8869003F04AFD00210446306803F0B8
:10352000CBFCA4B2012107FB04F4B4FBF0F419486E
:103530004C44A5F8864005F09FFD642004F0E8FCAB
:10354000D8F800300133132BC8F80030DEDDB5F8B1
:103550008630114A1148A2FB03129B1A02EB530357
:10356000C3F30F131946A5F8863005F0C7FF1D21D8
:103570000D4805F081FD02210A4805F07DFD074850
:10358000BDE8F04705F06ABF9494FF1F2493FF1F26
:10359000FC0A0100400B010087611886C087FF1FED
:1035A000200B010094140100440B01007C94FF1FC8
:1035B0005087FF1FF8B5774B774C784D1B68286D07
:1035C00040F2513108222160E271002B00F0DD80D1
:1035D00008F0A4FA296A064608F0F4FA704908F0DF
:1035E000F1FA08F0F1FC80B2031263726D4A6E4B7F
:1035F00012681B68A96920721512A37230461B124B
:10360000E3722273657308F0DDFA654908F0DAFAAF
:1036100008F0DAFC83B21A125F496448A373E273BC
:1036200003F094FA624B634A1B6812885A49A272EB
:10363000DFB207EB870603EB8305760045F3D7156A
:1036400012121B122772267365730826002540F29A
:1036500055375648E27263722760E671A573E573C9
:1036600003F074FA40F2563353482360E671FEF7D4
:10367000F9F8524908F0A6FA08F0A6FC20724E4864
:10368000FEF7F0F84D4908F09DFA08F09DFC4C4A11
:103690004A49C0F307231068637208F047FB08F03B
:1036A0006DFC40FA06F203464348E272A372FEF74D
:1036B000FBF83B4908F086FA08F086FC20733E4888
:1036C000FEF7F2F8364908F07DFA08F07DFC324941
:1036D000A573C0F3072335486373E57303F036FA27
:1036E000022004F015FC374B2B49187893F801E0C1
:1036F0009F78DA78207240F25A332C48E6712573AD
:103700006573A573E57384F809E0A772E27223601C
:1037100003F01CFA2C4B204918785D789A782072B7
:10372000187993F803E05F796572A2729D79DA796E
:10373000207340F25E331D4884F80BE0E27323608F
:10374000E6716773A57303F001FA022004F0E0FB51
:103750001E4BE6711D785A7893F802E0D8781F79ED
:103760005E79257262729D79DA79E0724FF45C734A
:1037700084F80AE027736673A573E2732360064931
:103780000A48BDE8F84003F0E1B908F0C7F96969F3
:10379000064621E75C92FF1FAC94FF1F2493FF1F96
:1037A000000020418C94FF1F4492FF1F54C1FF1F53
:1037B0003087FF1F3487FF1FC894FF1F0000C842D7
:1037C0006892FF1F2093FF1F2887FF1F5487FF1F4A
:1037D00038B5284B1B68012B00D038BD264D274833
:1037E000FDF7F6FFE96C08F0E5F804462348FEF71C
:1037F00015F80146204608F083FB0028EDD0204C48
:103800001E4840F2C33208232260E371FDF7E0FF57
:10381000AD6C294608F074FBB8B11A49284608F087
:10382000D1F908F0D1FB80B2031260722372002339
:103830000122A272E37223736373A373E3731049CB
:103840001148BDE8384003F081B90C48FDF7C0FFCE
:103850000C4908F0B7F908F0B7FBC0F30723074895
:103860002372FDF7B5FF074908F0ACF908F0ACFB8F
:103870006072DCE79C94FF1F2493FF1FC894FF1F16
:10388000AC94FF1F0000C84254C1FF1FF0B5984C14
:10389000984D83B005F08AFB23682860042B00F064
:1038A000A482022B4BD0082B00F09280072B40F013
:1038B0004981332801F0A58300F3A680312801F067
:1038C000B383322840F0A98005F0ACFB002840F318
:1038D00037818948894E05F055FF08F01FF988495E
:1038E00008F070F961230122F06322602B60184612
:1038F000A0F152031F2B01F26283DFE813F0060BE5
:10390000600B600B600B600B600B600B600B600B5F
:10391000600B600B600B600B600B600BB003790CED
:103920003705A5057104600B600B600B2404600B68
:103930007C0C600B600B600B600B600BF40AA0F159
:103940003102422A69D8DFE812F0EB062C07D106D3
:10395000F7060A0719076800680068006800680031
:103960006800680068006800680068006800680017
:103970006800680068006800680068006800680007
:1039800068006800680068006800680068006800F7
:1039900068006800680068006800680068006800E7
:1039A0006800680068006800680068006800260712
:1039B00068006800680068006800680068006800C7
:1039C0006800680068006800680064006800E3063A
:1039D000322800F0278371281BD031281DD105F033
:1039E00021FB002840F340864348444E05F0CAFEC0
:1039F000C0B286F8400002288ABF0021014686F83E
:103A00004010726C3F4821E3342801F0E8827128AD
:103A100003D10023732023602860002B08BF732884
:103A20000CBF01200020002860D0334805F016FDAF
:103A30000421354805F020FB2F4805F00FFD10212B
:103A4000324805F019FB2C4805F008FD13213048D9
:103A500005F012FB2F4B2848196805F04FFD26484A
:103A600005F0FCFC14212C4805F006FB224805F06B
:103A7000F5FC1E21294805F0FFFA1F4805F0EEFC71
:103A80001521274805F0F8FA1B4805F0E7FC1E2130
:103A9000244805F0F1FA184805F0E0FC20212248FE
:103AA00005F0EAFA144805F0D9FC19211F4805F081
:103AB000E3FA114805F0D2FC12211D4805F0DCFAAA
:103AC0000D4805F0CBFC0F211A4805F0D5FA0A483D
:103AD00005F0C4FC0D21184805F0CEFA064805F0A3
:103AE000BDFC164A002101231160236003B0F0BD24
:103AF0007892FF1F6492FF1FC087FF1F2493FF1F50
:103B00006F12833AC894FF1F1013010018130100AD
:103B10002C1301002087FF1F4013010058130100E0
:103B20007813010090130100B0130100D4130100B9
:103B3000F013010004140100141401003887FF1F62
:103B400023682868062B40F08D80A0F13102402ABE
:103B50003FF663AF01A151F822F000BF7B450000A2
:103B6000A7450000D3450000F94500001F460000AE
:103B70003D4600001B3A00001B3A00001B3A0000C3
:103B80001B3A00001B3A00001B3A00001B3A0000E1
:103B90001B3A00001B3A00001B3A00001B3A0000D1
:103BA0001B3A00001B3A00001B3A00001B3A0000C1
:103BB0001B3A00001B3A00001B3A00001B3A0000B1
:103BC0001B3A00001B3A00001B3A00001B3A0000A1
:103BD0001B3A00001B3A00001B3A00001B3A000091
:103BE0001B3A00001B3A00001B3A00001B3A000081
:103BF0001B3A00001B3A00001B3A00001B3A000071
:103C00001B3A00001B3A00001B3A00001B3A000060
:103C10001B3A00001B3A00001B3A00001B3A000050
:103C20001B3A00001B3A00001B3A00001B3A000040
:103C30001B3A00001B3A00001B3A00001B3A000030
:103C40001B3A00001B3A00001B3A00001B3A000020
:103C50001B3A00001B3A00001B3A0000133A000018
:103C600023682868052B15D1332801F0F38140F330
:103C70004781352801F01582C1F2FD8171287FF45A
:103C8000CCAEDC4A00237320136023602860C4E6B6
:103C900023682868032B40F0A480A0F13002422A58
:103CA0003FF6BBAE01A151F822F000BFB93D0000C4
:103CB0009F4C0000C74C0000EF4C0000114D00006D
:103CC000334D00005B4D0000834D0000A14D00000E
:103CD000C54D00001B3A00001B3A00001B3A0000D3
:103CE0001B3A00001B3A00001B3A00001B3A000080
:103CF0001B3A00001B3A00001B3A00001B3A000070
:103D00001B3A00001B3A00001B3A00001B3A00005F
:103D10001B3A00001B3A00001B3A00001B3A00004F
:103D20001B3A00001B3A00001B3A00001B3A00003F
:103D30001B3A00001B3A00001B3A00001B3A00002F
:103D40001B3A00001B3A00001B3A00001B3A00001F
:103D50001B3A00001B3A00001B3A00001B3A00000F
:103D60001B3A00001B3A00001B3A00001B3A0000FF
:103D7000ED4D000081480000474E00000B4E000052
:103D8000294E0000654E00005D4800001B3A00000F
:103D90001B3A00001B3A00001B3A00001B3A0000CF
:103DA0001B3A00001B3A00001B3A00001B3A0000BF
:103DB000BB4E0000C74E000005F034F9002841F367
:103DC00007818D488D4E05F0DDFC01270346014635
:103DD00062228B48736527602A60FDF745FD2368E2
:103DE0002868012B7FF419AE82E5A0F13102402A48
:103DF0003FF613AE01A151F822F000BF5948000070
:103E0000FD4700003B480000014800000548000055
:103E10002148000037480000BF470000D747000096
:103E20001B3A00001B3A00001B3A00001B3A00003E
:103E30001B3A00001B3A00001B3A00001B3A00002E
:103E40001B3A00001B3A00001B3A00001B3A00001E
:103E50001B3A00001B3A00001B3A00001B3A00000E
:103E60001B3A00001B3A00001B3A00001B3A0000FE
:103E70001B3A00001B3A00001B3A00001B3A0000EE
:103E80001B3A00001B3A00001B3A00001B3A0000DE
:103E90001B3A00001B3A00001B3A00001B3A0000CE
:103EA0001B3A00001B3A00001B3A00001B3A0000BE
:103EB0001B3A00001B3A00001B3A00001B3A0000AE
:103EC0001B3A00001B3A00001B3A00001B3A00009E
:103ED0001B3A00001B3A00001B3A00001B3A00008E
:103EE0001B3A00001B3A00001B3A00001B3A00007E
:103EF0001B3A00001B3A00001B3A0000133A000076
:103F0000312801F0DC8032287FF487AD05F08AF893
:103F100000287FF7BDAE3848384E05F033FC01224B
:103F20006B23C6F8980022602B6001E005F03EF894
:103F300005F078F80028F9D12F4805F08FFA2E48BF
:103F400005F08CFA2C4805F089FA2B4805F086FA22
:103F5000294805F083FA21212A4805F08DF82648E2
:103F600005F07CFA1521284805F086F8D6F890105F
:103F7000214805F0C3FA0221244805F07DF81E48C7
:103F800005F06CFA1E21224805F076F8D6F8981054
:103F9000194805F0B3FA03211E4805F06DF81648DC
:103FA00005F05CFA1E211C4805F066F8D6F894105E
:103FB000114805F0A3FA104805F050FA1D211748E2
:103FC00005F05AF8D6F8A0100B4805F097FA0A4801
:103FD00005F044FA1E21124805F04EF8D6F8A41058
:103FE000054805F08BFA044805F038FA05232360EC
:103FF0007CE500BF7494FF1FC087FF1F2493FF1F41
:10400000C894FF1FB00D0100D40D0100080D010080
:10401000EC0D0100280A01000C0E01002C0E01001D
:104020004C0E010004F0FEFF002840F31983B54850
:10403000B54E05F0A7FB07F071FDB44907F0C2FDCE
:1040400096F8401003460246B1487364FDF70EFC33
:1040500001236920236028604AE404F0A7FF04F0EC
:10406000E1FF05460028F8D1A648A74E05F0F6F96D
:10407000A44805F0F3F9A34805F0F0F9A14805F0CC
:10408000EDF9A04805F0EAF91F21A24804F0F4FF79
:104090009C4805F0E3F91C219F4804F0EDFF706A8D
:1040A0009E4907F08FFD07F0E3F8009502460B46A6
:1040B000944805F02DFA0221994804F0DDFF91485B
:1040C00005F0CCF92321974804F0D6FFF06B934913
:1040D00007F078FD07F0CCF8009502460B468948BA
:1040E00005F016FA02218E4804F0C6FF854805F057
:1040F000B5F919218C4804F0BFFFB06B07F0B8F890
:1041000002250B46024600957E4805F001FA294635
:10411000864804F0B1FF7B4805F0A0F919218448D6
:1041200004F0AAFFB6F8B410764805F0E7F90321C9
:10413000804804F0A1FF734805F090F9072323603D
:10414000D4E404F033FF04F06DFF05460028F8D1F5
:104150006C486D4E05F082F96A4805F07FF96948B0
:1041600005F07CF9674805F079F9664805F076F9BD
:104170001521714804F080FF624805F06FF918219D
:104180006E4804F079FF2B460A2296F840105D48ED
:1041900005F074F95B4805F061F92821684804F0DE
:1041A0006BFF706C5D4907F00DFD07F061F800953D
:1041B0000B460246534805F0ABF90221584804F07B
:1041C0005BFF504805F04AF913215E4804F054FFA4
:1041D0004C4805F043F90823236087E404F0E6FE29
:1041E00004F020FF05460028F8D14648464E05F069
:1041F00035F9444805F032F9424805F02FF94148B5
:1042000005F02CF93F4805F029F911214E4804F03A
:1042100033FF3C4805F022F928214C4804F02CFFDC
:1042200070693E4907F0CEFC07F022F8009502467F
:104230000B46344805F06CF90221394804F01CFFA4
:10424000304805F00BF91621414804F015FFF069DC
:10425000324907F0B7FC07F00BF800950B46024611
:10426000284805F055F902212D4804F005FF25489E
:1042700005F0F4F8D6F8AC30002B32DD1D213548BE
:1042800004F0FAFEF06D07F049FC334907F09AFCA0
:1042900006F0EEFF022502460B460095194805F090
:1042A00037F901212D4804F0E7FE164805F0D6F84D
:1042B0001F212B4804F0E0FE306E07F02FFC26494A
:1042C00007F080FC06F0D4FF009502460B460D482F
:1042D00005F01EF90121214804F0CEFE094805F041
:1042E000BDF811211F4804F0C7FED6F8AC30052BED
:1042F00000F22686DFE813F059065E0654064F06E4
:104300004A062006C087FF1F2493FF1F6F12833ABF
:10431000C894FF1F0C0D01002C0D010000007A4411
:10432000DC0B01004C0D0100700D01008C0D010033
:10433000900D0100AC0D0100D8130100940B010099
:10434000B00B0100E00B01007C130100F40B010035
:10435000200C0100380C0100CDCCCC3D90100100A8
:10436000580C0100780C010004F020FE04F05AFE05
:104370000028F9D1BF48C04E05F070F8BD4805F0DF
:104380006DF8BC4805F06AF8BA4805F067F8B94816
:1043900005F064F81F21B94804F06EFEB54805F039
:1043A0005DF81E21B64804F067FEB24805F056F8E5
:1043B0001A21B44804F060FEF36F022B00F0E78688
:1043C000032B00F0DB86012B00F0EA860921AE48C2
:1043D00004F052FEA74805F041F81421AB48A64F5F
:1043E00004F04AFEB16FA34805F088F8A14805F033
:1043F00035F81C21A64804F03FFED6F880109D48F1
:1044000005F07CF89B4805F029F81C21A14804F030
:1044100033FED6F8A810974805F070F8954805F0D7
:104420001DF8F56F25F00205012D00F061861321BE
:10443000994804F021FE8F4805F010F8022323600C
:10444000FFF754BB04F0B2FD04F0ECFD0028F9D1F5
:10445000884805F003F8874805F000F8854804F01F
:10446000FDFF844804F0FAFF824804F0F7FF1321AF
:104470008A4804F001FE7F4804F0F0FF0D218848CF
:1044800004F0FAFD7B4804F0E9FF0F21854804F0B1
:10449000F3FD854B7748196805F030F8754804F04E
:1044A000DDFF1321814804F0E7FD814B7148196855
:1044B00005F024F86F4804F0D1FF12217D4804F084
:1044C000DBFD7D4B6B48196805F018F8694804F06E
:1044D000C5FF1121794804F0CFFD794B6548196873
:1044E00005F00CF8634804F0B9FF0E21754804F09C
:1044F000C3FD614B5F48D3F89C1004F0FFFF5D489B
:1045000004F0ACFF1921704804F0B6FD6F4B594818
:10451000196804F0F3FF574804F0A0FF11216C481C
:1045200004F0AAFD6B4B5348196804F0E7FF5148AB
:1045300004F094FF1021684804F09EFD674B4D483D
:10454000196804F0DBFF4B4804F088FF1C21644825
:1045500004F092FD634B4748196804F0CFFF4548CB
:1045600004F07CFF13214C4804F086FD414804F020
:1045700075FF04232360FFF7B9BA04F053FD002848
:104580007FF76EAB3B483C4E05F0FCF807F0C6FAEF
:10459000554907F0CBFB65230122706122602B6037
:1045A0001846FFF7A5B904F03DFD00287FF758AB8A
:1045B0003048314E05F0E6F807F0B0FA4A4907F006
:1045C000B5FB65230122F06122602B601846FFF7DE
:1045D0008FB904F027FD00287FF742AB2548264E0F
:1045E00005F0D0F800EB8000430001226520F36560
:1045F00022602860FFF77CB904F014FD00287FF7E3
:104600002FAB1C481C4E05F0BDF800EB80004300AA
:1046100001226520336622602860FFF769B9164AD7
:10462000D2F8AC300133052BC8BF0023C2F8AC3040
:104630006520012323602860FFF75AB904F0F2FCDB
:1046400000287FF70DAB0B480B4E05F09BF8652358
:104650000122C6F8B00022602B601846FFF748B967
:1046600023682868FFF722B9034E96F84000FFF749
:10467000C2B900BFC087FF1F2493FF1F500F010066
:10468000700F0100900F01000810010014100100CC
:104690002C1001004C100100E00B01006C0E010019
:1046A000800E0100900E01005494FF1FA00E010027
:1046B000C094FF1FB40E0100A494FF1FC80E010098
:1046C000A894FF1FDC0E0100EC0E01007894FF1F80
:1046D000080F01007494FF1F1C0F01006092FF1F60
:1046E000300F01005C87FF1F00007A440123236024
:1046F00004F098FC002805DD69486A4E05F042F890
:10470000C6F8A8000123632023602860FFF7F0B8F3
:10471000644AD36F0133032BC8BF0023D367F1E78B
:10472000604EB36FB3FA83F35B0901226320B36772
:1047300022602860FFF7DCB80123236004F072FCDC
:10474000002807DD5648574E05F01CF807F0E6F93B
:10475000C6F88C00632028602368FFF7A7B8012300
:10476000236004F05FFC0028F4DD4D484D4E05F059
:1047700009F807F0D3F9C6F88800EBE701232360B6
:1047800004F050FC0028E5DD4548464E04F0FAFFF1
:10479000A6F8B600DEE7FEF74BFE23682868FFF7B1
:1047A00082B8404ED6F88030B3FA83F35B09012219
:1047B0006320C6F8803022602860FFF799B83A4A33
:1047C0001368B3FA83F35B0901216420136021604D
:1047D0002860FFF78DB80123236004F023FC002834
:1047E00000F37E84314B1A68042AC4BF02221A6087
:1047F00064232B6023686420FFF755B82C4ADFE759
:104800002C4ADDE7274ED6F89C30B3FA83F35B09D8
:1048100001226420C6F89C3022602860FFF768B847
:10482000012325482360FCF7AFFE244A236810606B
:1048300064222A60DFE7224AC2E7224A224F136835
:10484000002B0CBF012300234FF0010013602060F8
:1048500040F07E840346EBE71C4AB1E704F0E2FB3C
:1048600000280DDD0E480F4E04F08CFF07F056F9BE
:10487000174907F05BFA01226223306222602B6045
:1048800004F0D0FB002840F3A3830548054E04F054
:1048900079FF01226223B06622602B601CE000BF1A
:1048A000C087FF1F2493FF1F6092FF1F5C87FF1FBD
:1048B000C094FF1FA894FF1FC894FF1F7894FF1F88
:1048C0007494FF1FA494FF1F7892FF1F5494FF1F3E
:1048D00000007A4404F06AFB04F0A4FB05460028BB
:1048E000F8D1C24804F0BAFDC04804F0B7FDBF4893
:1048F00004F0B4FDBD4804F0B1FDBC4804F0AEFDC9
:104900001521BB4804F0B8FBB84804F0A7FD1421FA
:10491000B84804F0B1FBB54804F0A0FD1B21B6482F
:1049200004F0AAFBB14804F099FD1321B34804F048
:10493000A3FBAE4804F092FDAC4804F08FFDAB48F9
:1049400004F08CFD2021AE4804F096FBF068AD49E0
:1049500007F038F906F08CFC009502460B46A34898
:1049600004F0D6FD0221A84804F086FB0221A748E6
:1049700004F082FB9D4804F071FD2121A44804F05D
:104980007BFB30699F4907F01DF906F071FC00952B
:1049900002460B46954804F0BBFD02219A4804F0FC
:1049A0006BFB0221994804F067FB904804F056FD28
:1049B0001F21984804F060FBB06A06F059FC0227FA
:1049C00002460B460097894804F0A2FD0121924857
:1049D00004F052FB39468D4804F04EFB834804F046
:1049E0003DFD20218D4804F047FBF06A06F040FCB5
:1049F000009702460B467D4804F08AFD0121864857
:104A000004F03AFB3946814804F036FB774804F05D
:104A100025FD2321824804F02FFBB06C794907F073
:104A2000D1F806F025FC009502460B466F4804F0CD
:104A30006FFD3946744804F01FFB3946734804F093
:104A40001BFB6A4804F00AFD1F21764804F014FBA2
:104A5000F06C6C4907F0B6F806F00AFC00950246C7
:104A60000B46624804F054FD3946674804F004FBE5
:104A70003946664804F000FB5C4804F0EFFC19215D
:104A8000694804F0F9FAB16D584804F037FD394629
:104A9000664804F0F1FA39465C4804F0EDFA5348F0
:104AA00004F0DCFC1821624804F0E6FA706E07F0AE
:104AB00035F8604907F086F806F0DAFB0097024601
:104AC0000B464A4804F024FD01215B4804F0D4FA67
:104AD00039464E4804F0D0FA444804F0BFFC2B217C
:104AE000564804F0C9FAB069464907F06BF806F079
:104AF000BFFB009502460B463C4804F009FD3946D1
:104B0000414804F0B9FA3946404804F0B5FA37484C
:104B100004F0A4FC1F214A4804F0AEFA716D33483A
:104B200004F0ECFC3946394804F0A6FA2F4804F0AA
:104B300095FC2021434804F09FFA316D2B4804F086
:104B4000DDFC3946314804F097FA284804F086FC29
:104B500010213D4804F090FAB16E244804F0CEFCD8
:104B60003946294804F088FA3946284804F084FA7E
:104B70001E4804F073FC1321344804F07DFAF16EF2
:104B80001A4804F0BBFC0121314804F075FA39469B
:104B90001E4804F071FA154804F060FC10212D48FD
:104BA00004F06AFA316F114804F0A8FC394616483F
:104BB00004F062FA3946154804F05EFA0B4804F036
:104BC0004DFC1421244804F057FA716F074804F093
:104BD00095FC01211E4804F04FFA39460B4804F0B9
:104BE0004BFA024804F03AFC162137E0C087FF1F59
:104BF000D8100100F010010008110100E00B0100C5
:104C00002411010000007A44DC0B0100941401001F
:104C1000481101006C110100500701008C110100C6
:104C2000B0110100D4110100F411010010120100B3
:104C300014120100CDCCCC3D9010010030120100C7
:104C40005C1201007C120100A0120100B4120100EC
:104C5000C8120100CC120100E0120100AC4804F0BF
:104C60000BFA306AAB4906F0ADFF06F001FB009588
:104C70000B460246A84804F04BFC3946A74804F00E
:104C8000FBF93946A64804F0F7F9A34804F0E6FB1F
:104C9000A14804F0E3FB03232360FEF727BF04F0E1
:104CA000C1F9002840F394819B489E4E04F06AFDB0
:104CB00006F034FF974907F039F801226223F060CB
:104CC00022602B6008E604F0ADF9002840F38081F3
:104CD0009148944E04F056FD06F020FF8D4907F0F0
:104CE00025F801226223306122602B60F4E504F094
:104CF00099F9002840F36C8187488A4E04F042FD00
:104D000006F00CFF01226223B06222602B60E3E513
:104D100004F088F9002840F35B817F48814E04F05D
:104D200031FD06F0FBFE01226223F06222602B605F
:104D3000D2E504F077F9002840F34A817648794EAD
:104D400004F020FD06F0EAFE724906F0EFFF0122B2
:104D50006223B06422602B60BEE504F063F9002892
:104D600040F336816C486F4E04F00CFD06F0D6FE21
:104D7000684906F0DBFF01226223F06422602B60A9
:104D8000AAE504F04FF9002840F322816248654EFD
:104D900004F0F8FC01226223B06522602B609BE5E1
:104DA00004F040F9002840F313815B485D4E04F0A5
:104DB000E9FC00EB80004300012162227366216060
:104DC0002A6089E504F02EF9002840F30181524859
:104DD000544E04F0D7FC06F0A1FE4E4906F0A6FFA3
:104DE00001226223B06122602B6075E504F01AF99C
:104DF000002840F3ED8048484A4E04F0C3FC0122ED
:104E00006223306522602B6066E504F00BF9002810
:104E100040F3DE804048434E04F0B4FC012262239C
:104E2000306722602B6057E504F0FCF8002840F35F
:104E3000CF8039483B4E04F0A5FC01226223706705
:104E400022602B6048E504F0EDF8002840F3C080B4
:104E50003148344E04F096FC01226223F066226051
:104E60002B6039E5FCF784FF02212D482D4E04F01C
:104E700003F9294804F0F2FA0221294804F0FCF869
:104E8000254804F0EBFA0221254804F0F5F8224801
:104E900004F0E4FA1721244804F0EEF81E4804F068
:104EA000DDFA02211E4804F0E7F81B4804F0D6FAA8
:104EB0000122622322602B600EE500227323226010
:104EC0002B60FEF7B2BD194B1548164E0022022189
:104ED0001A6004F0D1F8104804F0C0FA0B2114480D
:104EE00004F0CAF8DDE7B82200210E4802F008FD00
:104EF0002868104AA0F1730001210023B0FA80F065
:104F0000400911602360FEF78EBD03F07FFB00BFF8
:104F1000F812010000007A44C087FF1FDC0B01007B
:104F2000941401002493FF1F700B01005492FF1F83
:104F3000880B01003887FF1F0F21B04804F09CF850
:104F4000AF48B04D04F08AFAD6F8AC30002B0FDD34
:104F50001821AD4804F090F8D5F8B010A84804F036
:104F6000CDFA0221A94804F087F8A54804F076FAA2
:104F7000A34804F073FA1321A54804F07DF8A04873
:104F800004F06CFA06232360FEF7B0BD0D21A148A2
:104F900004F072F8D4E70D219F4804F06DF8CFE7D4
:104FA0000C219E4804F068F8CAE70D219C4804F0E3
:104FB00063F8C5E70C219B4804F05EF8C0E723685E
:104FC000002B08BF73280CBF01200020FEF72BBD6B
:104FD00023682868012B7EF420ADFEF789BC04F01D
:104FE00021F800287EF7ACAD8548864E04F0CAFB58
:104FF00061230122A6F8B40022602B601846FEF758
:1050000077BC04F00FF800287EF79AAD7C487D4EFF
:1050100004F0B8FB06F082FD61230122B063226038
:105020002B601846FEF764BC03F0FCFF00287EF7F7
:1050300087AD7348734E04F0A5FB06F06FFD7A4907
:1050400006F0C0FD61230122706222602B601846C9
:10505000FEF74EBC03F0E6FF00287EF719AE684865
:10506000684E04F08FFB01226B23C6F89400226087
:105070002B60FEF75DBF03F0D5FF00287EF708AE7A
:105080005F48604E04F07EFB684BC6F8A000022229
:105090001A60FDF7AFF901226B2322602B60FEF747
:1050A00047BF03F0BFFF00287EF7F2AD5448554ECE
:1050B00004F068FB5D4BC6F8A4000322E8E703F0A8
:1050C000B1FF00287EF7E4AD4D484E4E04F05AFB88
:1050D00001226B23C6F8900022602B60FEF728BFE8
:1050E000474804F04FFB524B02461860FFF77CBB69
:1050F0001C21504803F0C0FFD7F88C004E4906F041
:1051000061FD06F0B5F8009502460B463C4804F0F8
:10511000FFF90521494803F0AFFF394804F09EF933
:10512000FD6F012D45D0032D7FF481A91C2144483A
:1051300003F0A2FFB6F8B610314804F0DFF90321FE
:10514000404803F099FF2E4804F088F9FFF76FB943
:105150003D4B002631460B201E6002F09DFE31467D
:105160000C2002F099FE3146142002F095FE3146E3
:10517000152002F091FE3B68FFF75ABB202133480F
:1051800003F07AFF1E4804F069F9FFF726B91721EA
:105190002F4803F071FF1A4804F060F9FFF71DB9BA
:1051A0001E212C4803F068FF154804F057F9FFF75B
:1051B00014B91D21284803F05FFFD7F888001E4965
:1051C00006F000FD06F054F800950B4602460C4828
:1051D00004F09EF90521194803F04EFF084804F039
:1051E0003DF9FB6F23F00203012B9FD0FFF71FB99E
:1051F000044EFFF771BB034EFEF79ABEDC0C0100B4
:10520000C087FF1F2493FF1FEC0C0100080D010055
:10521000E00B0100CC0C0100BC0C0100AC0C010047
:105220008C0C01009C0C01006F12833A7494FF1FD8
:105230005C87FF1F6C100100CDCCCC3D8C100100B1
:10524000B4100100D4100100BC94FF1FCC0F01006A
:10525000F00F0100AC0F01009410010038B5164C9E
:10526000164A2368101D12F8011F904241EA0323D9
:10527000F9D12360124C03F100432360114BDB6F23
:10528000022B11D0104B1B68012B00D038BD0F48EA
:1052900004F0E4F821680D4804F030F903210C48CB
:1052A000BDE8384003F0E8BE20680A4D06F036FC41
:1052B0002860FDF737FBE5E73C92FF1F6B94FF1F6B
:1052C0008894FF1F2493FF1F5494FF1FC087FF1F64
:1052D000241401005892FF1F30B53F4C3F4883B063
:1052E000214601F02BFB236840F2C232934258D092
:1052F0006FF4C0615A18B2F5FF7F4CD903F1004337
:105300006FF4C0621344B3F5FF7F3FD9344B1B6881
:10531000012B01D003B030BD324B1B68012BF9D1FA
:10532000314B32481B6801930A220023019904F093
:10533000A5F82268284B002ADB7945DB2C492D484B
:1053400007F01EFC2B4807F05BFC0146294803F0E0
:1053500093FE2568204B15F0804526D1DB798BB173
:10536000631925491A7A234807F00AFC214807F0F7
:1053700047FC01461F4803F07FFE0135E379EDB29B
:10538000AB42EDD8194804F069F8C3E712491B484D
:10539000FCF720F9BAE710491848FCF71BF9236815
:1053A000ACE7FFF75BFF2368A2E7154D114C0FCD6B
:1053B0000FC495E8030044F8040B204620F81419A4
:1053C000152103F059FEDDE70E490A4822F060423C
:1053D00007F0D6FBB6E700BF6494FF1F54C1FF1F60
:1053E0003887FF1F5494FF1FFCC2FF1FC087FF1F99
:1053F000501401007C92FF1F7C140100C894FF1F11
:1054000064140100281401002DE9F84F7E4B7F4CF5
:105410001B78052B08D07E48FCF746FAE16A06F0B7
:105420006FFD002800F081807A4E7B4D00233360B1
:105430002B607A4B76481B68744F012B33D0FCF7F6
:10544000EDF9E1698046606906F0B2FA014640462E
:1054500006F074FD00283AD16D48FCF7DFF9E168E9
:1054600006F06CFD08B100232B606948674FFCF71C
:10547000AFF9216906F044FD48B1002333602B6881
:10548000654A002BBCBF00231360BDE8F88F60485D
:10549000FCF79EF9B96906F033FD0028EDD13368B9
:1054A000002BEADBEBE7FCF7B9F9E1698046206AFB
:1054B00006F07EFA0146404606F040FD0028CBD0BB
:1054C0005348FCF7ABF9D7F82090834605E05048E5
:1054D000FCF7A4F9D7F814908346F969484606F01A
:1054E00067FA8246F86D06F019FB8046386E06F0C2
:1054F00015FB414606F05CFA51460746584606F051
:1055000057FA0146384606F05DFB514607464846C5
:1055100006F04EFA0146384606F008FC414606F011
:1055200049FA06F02BFD286096E73948FCF7BCF9EC
:10553000216B06F0E5FC20B3364E636E34483360D1
:10554000FCF7B2F98146E06DE76A334D06F0E6FA02
:1055500039468046484606F02BFA0146404606F09A
:1055600031FB39468046206B06F022FA0146404660
:1055700006F0DCFB002106F01DFA06F0FFFC2860B7
:1055800057E72348FCF790F9616B06F0B9FC30B19E
:10559000204E214D626EE36D32602B6049E71C485E
:1055A000FCF782F9A16A06F0ABFC00283FF43CAF9F
:1055B0001748184E184DFCF777F98146606ED4F8FD
:1055C000348006F0ABFA41460746484606F0F0F94B
:1055D00039468146002006F0EBF90146484606F0C0
:1055E000F1FA41468146A06A06F0E2F901464846D2
:1055F00006F09CFB394606F0DDF906F0BFFCE36DD2
:1056000030602B6015E700BF8094FF1F2493FF1FBD
:10561000C894FF1F8C94FF1F4492FF1F5C92FF1FD2
:1056200008B5274803F01AFF0721264803F024FD98
:10563000112002F037FC0621F8B1234803F01CFDCD
:10564000122002F02FFC062100B3204803F014FDC5
:10565000122002F027FC062108B31D4803F00CFDC0
:10566000132002F01FFC062110BB1A4803F004FDB2
:105670001348BDE8084003F0F1BE174803F0FCFCF6
:10568000122002F00FFC06210028DED1134803F09F
:10569000F3FC122002F006FC06210028DDD11048A0
:1056A00003F0EAFC132002F0FDFB06210028DCD009
:1056B0000C4803F0E1FC0248BDE8084003F0CEBE10
:1056C000C087FF1F8814010090140100A01401007E
:1056D000B0140100C814010098140100A8140100BE
:1056E000B8140100C014010010B5254C2368042B28
:1056F00027DC01210B2002F0CFFB01210C2002F05E
:10570000CBFB0121142002F0C7FB0121152002F080
:10571000C3FBFF21162002F03FFAFF21172002F001
:105720003BFAFF21052002F037FAFF21062002F0A4
:1057300033FA236801330A2B2360C4BF002323609C
:1057400010BD00210B2002F0A7FB00210C2002F06D
:10575000A3FB0021142002F09FFB0021152002F082
:105760009BFB0021162002F017FA0021172002F0FF
:1057700013FA0021052002F00FFA0021D6E700BF3E
:10578000A094FF1F2DE9F0418D4DD5F8AC30042BCE
:105790003ED0032B6ED0012B00F09880022B01D05D
:1057A000BDE8F081874C8848237240F20E32012315
:1057B00021462260E37101F0C9F9844B1B685B004C
:1057C000FF2BC8BFFF23042140224FF4417020600B
:1057D000E17122726372286D06F0A0F9696906F022
:1057E000F1F97B49054606F0A9FB002800F0DE80B0
:1057F0002946284606F0DEF806F0E6FB80B20312E2
:10580000E072A3726F497048BDE8F04101F09EB9A3
:105810006C4C704AA379226043F001030822E271C4
:10582000A371286D06F07AF9696906F0CBF96A4927
:1058300006F0C8F906F0C8FB644B684A1B6812689A
:1058400093FBF2F380B200261A120712607221460F
:105850005D48E372A272277226736673A673E673BD
:1058600001F074F9A279D5F8AC3066F30002032B8D
:10587000A27190D1534C286DA3720122E823072115
:1058800040F2FF26227263722660E17106F046F94B
:10589000696906F097F9504906F094F906F094FB0F
:1058A0004A4B4E4A1B68126893FBF2F382B21E12F7
:1058B0001712214644486373E2722773A67301F0FE
:1058C00045F9D5F8AC30012B7FF468AF444B3D4C23
:1058D0001B682360072280231020E271237202F0EC
:1058E000E1FA002869D13F4B1B68DFF8E0803B4FAD
:1058F000286D344E03EB83035B001A12A3726272AD
:10590000D8F800303A6893FBF2F31A126273A3736B
:1059100006F004F9696906F055F9334B196806F089
:1059200047F82D4906F04EF906F04EFB80B20312FF
:10593000314620732448E37201F008F9022002F096
:10594000E7FA2A4B1B682360072280231020E271AC
:10595000237202F0A7FA70BB224B1B68286D03EB81
:1059600083035B001A127272B37206F0D7F869698A
:1059700006F028F91E4B196806F01AF8164906F0C9
:1059800021F906F021FB82B216123868D8F80030EF
:10599000227393FBF0F30B490B48A3731A12E672C0
:1059A000627301F0D3F8D5F8AC30F7E6012290230A
:1059B000A272E37226E70F4BCFE70E4B94E700BFCE
:1059C0002493FF1FAC94FF1F54C1FF1F4492FF1F7D
:1059D00000004843F4E50618000020414887FF1FF7
:1059E0006087FF1F4087FF1FE493FF1F6487FF1F2F
:1059F0007092FF1F4487FF1F2DE9F04790B001E030
:105A0000FFF76AFCAC4800F063FF0028F8D103F010
:105A100009FB002801DDFDF739FFA84EA84D3368CA
:105A2000012B13D0FDF71CFCD5F89C40012C00F095
:105A30006B81A44F3B78052B00F2A880DFE813F0C0
:105A4000CC00A8001801F000350194009E4C23689A
:105A50009E4A0793079B11689B4F5B1AB3F5FA7F29
:105A600030D823680C930C9B994A23680B930B9BAB
:105A70001068D5F8B010944E914D1B1A8B420DD979
:105A800033680D93D5F89C300D991160012B00F00F
:105A9000C1818C4B1B78032B00F0BC8123688D4A9D
:105AA0000E938D490E9B10680968874C1B1A8B4218
:105AB00005D923680F930F9B1360FDF789FE10B083
:105AC000BDE8F0873B680893089B84481360FBF7A8
:105AD000BBFDD5F89C30DFF8E8818048012B00F051
