:1000000000800020BD010000C17E0000797E00005C
:10001000797E0000797E0000797E0000797E000004
:10002000797E0000797E0000797E0000C17E0000AC
:10003000C17E0000797E0000F59D0000F99E000061
:10004000C17E0000C17E0000C17E0000C17E0000B4
:10005000C17E0000C17E0000C17E0000C17E0000A4
:10006000C17E0000C17E0000C17E0000C17E000094
:10007000C17E0000C17E0000C17E0000C17E000084
:10008000C17E0000C17E0000C17E0000C17E000074
:10009000C17E0000C17E0000C17E0000C17E000064
:1000A000C17E0000C17E0000C17E0000C17E000054
:1000B000C17E000095720000A1720000A5720000D0
:1000C000B1720000B5720000B9720000C17E00007C
:1000D000C17E0000C17E0000C17E0000C17E000024
:1000E000C17E0000C17E0000C17E0000C17E000014
:1000F000C17E000005A60000C17E00005D8B0000EF
:10010000C17E0000758E0000C17E0000C17E00002F
:10011000C17E0000C17E0000C17E0000C17E0000E3
:10012000C17E0000C17E0000C17E0000C17E0000D3
:10013000C17E0000C17E0000C17E0000C17E0000C3
:10014000C17E0000C17E0000C17E0000C17E0000B3
:10015000C17E0000C17E0000C17E0000C17E0000A3
:10016000C17E0000C1900000C17E0000C17E000081
:10017000C17E0000C17E0000C17E0000C17E000083
:10018000C17E0000C17E0000C17E0000C17E000073
:10019000C17E0000C17E0000C17E0000C17E000063
:1001A000C17E0000C17E0000C17E0000C17E000053
:1001B000C17E0000C17E0000C17E0000564B4CF2A3
:1001C000205210B51A804DF628121A8000BF00BFC9
:1001D00007F07AFE514B4FF010621A60504A9A6055
:1001E000504ADA60504A136813F4807304D14F49BF
:1001F0000B604FF4A85313604D4B1A78110703D5C9
:100200001A7842F008021A704A4B4B492A221A7097
:100210004A4A4B4B8B4204D252F8040F43F8040B6A
:10022000F8E7484B484900228B4202D243F8042B9E
:10023000FAE74649464A002352F8230041F82300D2
:1002400001336F2BF8D1434B434A802103F8011B44
:100250009342FBD1414B3D4A1A60414B8A221A70AE
:10026000A3F5805324225A70A0221A709A7992071B
:10027000FCD59A79D406FCD43A4A937903F00C035E
:10028000082B384BF9D103221A7140225A719A79FE
:100290009006FCD5334A9179324B4906FBD5324A58
:1002A000324911600221516020221A709A7902F0BD
:1002B0000C020C2AFAD12E4B2E4A1A602E4B2F4AD2
:1002C0001A6000225A60072243F8042C2C4AC3F813
:1002D0000C2D62B608F0AEF8144B1B68DA0705D592
:1002E000284807F08BFE284B284A1A60284B1B78B9
:1002F0005B0609D5244C254B22689A4204D121483B
:1003000007F07CFE002323600CF080FC07F0E2FD88
:100310000AF038F8FEE700BF0E20054030800440A8
:10032000823F04000100002B10D0034014D0034092
:1003300002D0074000E007403092FF1F4C28010028
:100340002087FF1F3092FF1F14C6FF1F0082FF1F70
:100350000000000000E400E05FE400E008ED00E0E1
:100360000050064000400640448004400000030165
:1003700004800440C010050014E000E0FF76010096
:10038000000020204B3C685C1CE00340A5C3945A4D
:1003900000F00740FFFFFFFFFFFFFFFFFFFFFFFF32
:1003A000FFFFFFFFFFFFFFFFFFFFFFFFFFFFFFFF5D
:1003B000FFFFFFFFFFFFFFFFFFFFFFFFFFFFFFFF4D
:1003C000FFFFFFFFFFFFFFFFFFFFFFFFFFFFFFFF3D
:1003D000FFFFFFFFFFFFFFFFFFFFFFFFFFFFFFFF2D
:1003E000FFFFFFFFFFFFFFFFFFFFFFFFFFFFFFFF1D
:1003F000FFFFFFFFFFFFFFFFFFFFFFFFFFFFFFFF0D
:10040000FFFFFFFFFFFFFFFFFFFFFFFFDEF9FFFF23
:1004100010B5054C237833B9044B13B10448AFF33E
:1004200000800123237010BD3092FF1F00000000E8
:1004300048280100084B10B51BB108490848AFF324
:1004400000800848036803B910BD074B002BFBD0A0
:10045000BDE81040184700BF000000003492FF1FA5
:10046000482801003092FF1F00000000F0B400F1A6
:100470001C06134F00243146031F00F13C0243F8D1
:10048000044FB34241F8047F4FF0000542F8044F97
:10049000F5D10C4A0C490566002345668566C5669C
:1004A000056745678567C0F88850C267C0F8842033
:1004B000C0F8801080F8903080F8A830F0BC704709
:1004C0000000A040000048430000C8C22DE9F041F0
:1004D00090F8A84084B0202364008DF80530E4B281
:1004E000042380468DF804408DF80630032720460B
:1004F00008F05CFC02210DF1050008F061FC8DF8AC
:10050000044006F041F830B30921404809F00CFBE3
:100510000023102221463E4809F0ACFD01213D4850
:1005200009F002FB002310229DF80510384809F05D
:10053000A1FD0121374809F0F7FA002310229DF8A8
:100540000610334809F096FD0121324809F0ECFA13
:100550002F4809F07FFD02208DF8044007F01CFFB2
:1005600006F012F800284CD102AE002408F03EFC40
:1005700070B3072C1FD101E008F048FC08F036FCEE
:100580000028F9D106F000F810B1214809F062FD09
:100590009DF80B009DF80C109DF80D209DF80E3075
:1005A000C8F89400C8F89810C8F89C20C8F8A03083
:1005B00004B0BDE8F08108F029FC054606F8010BFF
:1005C00005F0E2FF70B9013408F010FC0028D0D12A
:1005D000072CD3D005F0D8FF78B9013FD8D09DF8CB
:1005E000044084E7E9B200231022094809F042FDE3
:1005F0000121084809F098FAE5E7054809F02AFDC5
:10060000EBE70721044809F08FFAADE7D80D0100A8
:10061000D087FF1FDC140100E40D010090F8980062
:10062000704700BF90F89400704700BF90F89C009E
:10063000704700BF90F8A000704700BF082994BF22
:1006400050F82100002070472DE9F0410B4E804604
:10065000041F00F11C0754F8045F314628460CF0D3
:100660004BFA30B1D8F88C1028460CF063FA00B180
:100670002E46BC42EFD13046BDE8F081000020415B
:100680002DE9F041D0F88C704FF00008041F00F104
:100690001C0654F8045F394628460CF04BFA08490A
:1006A00048B128460CF028FA414620B128460CF003
:1006B00041FA00B1A846B442EBD14046BDE8F08112
:1006C000000070422DE9F047D0F88C7082464FF060
:1006D0000009041F00F11C064FF0000854F8045FE5
:1006E000394628460CF026FA0C4950B128460CF041
:1006F00003FA30B1484629460BF058FF08F10108CB
:100700008146B442EAD1CAF8AC8040460CF002F807
:10071000014648460CF006F9BDE8F087000070423B
:10072000D0F8AC00704700BF38B5846E456E2146E6
:1007300028460CF0E1F900B92C46204638BD00BF30
:10074000D0F8A4302DE9F041002B79D1866E456EAA
:100750000446314628460BF029FFE76E39468046AD
:100760000BF024FF7E490CF0DDF84FF07C5104467D
:100770000CF0E0F9002861D04FF07C5128460CF0D5
:10078000D9F94FF07C51002860D128460CF0B4F91B
:1007900038B14FF07C5130460CF0CCF9002840F0D5
:1007A000A7804FF07C5128460CF0C4F9002860D196
:1007B0004FF07C5128460CF0BDF9002840F0A18094
:1007C0004FF07C5128460CF0B5F900286CD14FF061
:1007D0007C5128460CF090F94FF07C5110B3304614
:1007E0000CF0A8F938B14FF07C5138460CF084F980
:1007F000002840F0B0804FF07C5130460CF07CF97E
:10080000002861D04FF07C5138460CF093F9002855
:1008100040F0A38038464FF07C510CF06DF968B180
:10082000504C10E028460CF067F90028E3D1284628
:100830004FF07C510CF060F9002845D1BDE8F08103
:1008400000EB8300046E2046BDE8F08130460CF0DA
:1008500071F94FF07C5100283ED038460CF06AF90F
:100860000028F0D14FF07C5128460CF045F90028C3
:1008700059D14FF07C5130460CF03EF9002840D061
:100880004FF07C5138460CF055F9002841D14FF01B
:100890007C5130460CF04EF968B14FF07C5138462F
:1008A0000CF02AF900284FD14FF07C5130460CF063
:1008B00023F900288BD04FF07C5138460CF01CF9FE
:1008C000002884D02C46BEE730464FF07C510CF017
:1008D00013F90028B2D09DE728460CF00DF9002846
:1008E000C7D04FF07C5130460CF024F90028C0D01E
:1008F0004FF07C5138460CF01DF900283FF451AF01
:1009000018E04FF07C5130460CF014F90028CBD0A1
:10091000C3E7394628460BF049FE4FF07C510BF0F7
:100920004DFF04468FE74FF07C5138460CF002F93A
:1009300000289ED0394630460BF038FE4FF07C51EF
:100940000BF03CFF04467EE740464FF07C510BF035
:1009500035FF044677E7344675E73C4673E700BF4A
:10096000000040400000A0C270B50446FFF7E8FE5A
:100970004FF07C510CF0DEF828B3666E4FF07C51DE
:1009800030460CF0D7F8A56EF0B9E46E4FF07C510C
:1009900028460CF0CFF858B1294630460CF0CAF87A
:1009A00030B1214628460CF0A7F808B12C4620E0CB
:1009B0004FF07C5120460CF0BDF820B1284621466E
:1009C0000CF0B8F878B970BD304629460CF094F8B0
:1009D000E46E0028DAD0304621460CF08DF800286D
:1009E000D4D0344605E0304621460CF0A3F8002868
:1009F000E9D0204670BD00BF01392DE9F84380469B
:100A00001546032900F2E280DFE801F0AE855C02C2
:100A1000537B107B03EB00200BF07CFE6D490BF049
:100A2000CDFEC8F81800EB7BA87B03EB00200BF091
:100A300071FE68490BF0C2FED8F86860D8F864709F
:100A4000D8F80040C8F81C004046FFF78DFFD8F8E2
:100A50007C1005460CF050F808B1C8F87C503946B7
:100A600030460CF067F8002840F0A7803946D8F8E7
:100A700080000CF041F810B13E46C8F8806008F1E3
:100A80002006C14608F14005002701E059F8044F4F
:100A9000306821460CF04EF80137214628B1D8F8CD
:100AA0008C000CF033F800B13460214628680CF05B
:100AB00023F8043600B12C60082F05F10405E5D1B8
:100AC000BDE8F883507A32380BF024FEC8F8740081
:100AD000A87A32380BF01EFEC8F878006B7B287BB2
:100AE00003EB00200BF016FE3A490BF067FEC8F846
:100AF0001000EB7BA87B03EB00200BF00BFE3549CD
:100B00000BF05CFED8F86860C8F81400D8F8647080
:100B1000D8F8004098E7507A32380BF0FBFDC8F85F
:100B20006C00A87A32380BF0F5FDC8F870006B7BCA
:100B3000287B03EB00200BF0EDFD26490BF03EFE79
:100B4000C8F80800EB7BA87B03EB00200BF0E2FD6C
:100B500020490BF033FED8F86860C8F80C00D8F8CC
:100B60006470D8F800406FE7137AC0F8B030907A1C
:100B700032380BF0CFFDC8F864000746E87A323807
:100B80000BF0C8FDC8F868006B7B0646287B03EBBA
:100B900000200BF0BFFD0F490BF010FEC8F800005D
:100BA000EB7B0446A87B03EB00200BF0B3FD094967
:100BB0000BF004FEC8F8040046E7D8F88010304671
:100BC0000BF0B8FF00287FF458AF58E7866E476EE9
:100BD000046839E70AD7233C2DE9F04F90F8A83094
:100BE00091B007465B008DF80830FFF76FFCD7F82F
:100BF0009C00D7F8A040D7F89830D7F8942097F801
:100C0000A8108DE81100C94805F0C4FD30223D232D
:100C100003268DF809208DF80A300DF10A059DF89C
:100C2000089049F00108404608F0C0F80DF10900AD
:100C3000022108F0C5F88DF80880424602AB00207A
:100C40005040082410F0800F4FEA400018BF80F099
:100C50000700013CC0B2F5D19D4202D013F8012F2C
:100C6000EEE708F0A3F805F08FFC002840F07C8246
:100C700002208DF8089007F08FFB05F085FC002816
:100C800040F0B8820DF10C0AD146002408F0AEF80D
:100C9000002843D0032C34D101E008F0B7F808F065
:100CA000A5F80028F9D105F06FFC10B1A04809F0B3
:100CB000D1F9312303268DF809308DF80A609DF8AB
:100CC000089049F00108404608F070F80DF109005D
:100CD000022108F075F88DF80880424602AB00202A
:100CE0005040082410F0800F4FEA400018BF80F0F9
:100CF0000700013CC0B2F5D19D4228D013F8012F66
:100D0000EEE708F083F809F8010B804605F03CFC9B
:100D100068B9013408F06AF80028BBD1032CBED0B2
:100D200005F032FC78B9013E7FF479AFC1E75FFA94
:100D300088F1002310227E4809F09CF901217D48AA
:100D400008F0F2FEE5E77A4809F084F9EBE708F0ED
:100D50002DF805F019FC002840F0C58102208DF81F
:100D6000089007F019FB05F00FFC002840F03D82C9
:100D70000DF10C09002408F039F8002844D0032CA8
:100D800035D101E008F042F808F030F80028F9D138
:100D900005F0FAFB10B1664809F05CF93422012332
:100DA0008DF809208DF80A3003269DF8089049F047
:100DB0000108404607F0FAFF0DF10900022107F093
:100DC000FFFF8DF80880424602AB00205040082407
:100DD00010F0800F4FEA400018BF80F00700013C80
:100DE000C0B2F5D19D4228D013F8012FEEE708F0EC
:100DF0000DF809F8010B804605F0C6FB68B901340F
:100E000007F0F4FF0028BAD1032CBDD005F0BCFBDD
:100E100078B9013E7FF453AFC0E75FFA88F1002351
:100E20001022434809F026F90121424808F07CFECF
:100E3000E5E73F4809F00EF9EBE707F0B7FF05F0EB
:100E4000A3FB002840F00E8102208DF8089007F0E7
:100E5000A3FA05F099FB002840F0D6810DF10C09AA
:100E6000002407F0C3FF002800F08480032C72D117
:100E700001E007F0CBFF07F0B9FF0028F9D105F03A
:100E800083FB10B12A4809F0E5F8012212238DF8FE
:100E900009208DF80A304FF003089DF808402046DD
:100EA00007F084FF02210DF1090007F089FF8DF89A
:100EB000084005F069FB30B309211F4808F034FEF3
:100EC0000023102221461A4809F0D4F801211948BC
:100ED00008F02AFE002310229DF80910144809F09A
:100EE000C9F80121134808F01FFE002310229DF8C5
:100EF0000A100F4809F0BEF801210E4808F014FE50
:100F00000B4809F0A7F806208DF8084007F044FACE
:100F100005F03AFB002840F0728103AD002607F08F
:100F200065FF00283FD0162E2FD109E0EC0D0100FF
:100F3000D087FF1FDC140100D80D010007F066FF09
:100F400007F054FF0028F9D105F01EFB16260028F3
:100F50007DD1152035E007F059FF09F8010B8046D7
:100F600005F012FB00285BD1013407F03FFF002899
:100F70007FF47CAF032C3FF47EAF05F005FB002827
:100F80006CD1013E7FF411AF7FE707F03FFF05F81A
:100F9000010B044605F0F8FA00284DD1013607F0A0
:100FA00025FF0028BFD1162ECAD005F0EDFA002883
:100FB0004DD1B8F101087FF470AF701E002840F3E6
:100FC0002482002303AA1C4612F8011B08254C406A
:100FD00014F0800F4FEA440418BF84F00704013D69
:100FE000E4B2F5D101338342EEDB9DF821808948DC
:100FF0004146224605F0CEFB162EC146A34602D13D
:10100000A04500F0138197F8A8108348CDF800B0F0
:101010004B46324605F0ECFB002011B0BDE8F08FE6
:101020005FFA88F1002310227C4809F023F801219F
:101030007B4808F079FD97E7E1B20023102277485A
:1010400009F018F80121764808F06EFDA6E773480C
:1010500009F000F8162EACD11520B2E76F4808F061
:10106000F9FF8EE709216F4808F05EFD2346102244
:1010700041466A4808F0FEFF0121694808F054FD26
:10108000234610229DF80910644808F0F3FF01215F
:10109000634808F049FD102223469DF80A105F4876
:1010A00008F0E8FF01215E4808F03EFD21460DF101
:1010B0000B0002AA12F8014B6140C9B2082311F0DB
:1010C000800F4FEA410118BF81F00701013BC9B20F
:1010D000F5D19042EED11022504808F0CBFF4F4896
:1010E00008F0B8FFB0E609214E4808F01DFD234680
:1010F00010224146494808F0BDFF0121484808F048
:1011000013FD234610229DF80910444808F0B2FF51
:101110000121434808F008FD102223469DF80A10DB
:101120003E4808F0A7FF01213D4808F0FDFC21469C
:101130000DF10B0002AA12F8014B6140C9B208235D
:1011400011F0800F4FEA410118BF81F00701013B08
:10115000C9B2F5D19042EED11022304808F08AFF92
:101160002E4808F077FFF9E509212E4808F0DCFC4D
:10117000234610224146294808F07CFF01212848D7
:1011800008F0D2FC234610229DF80910234808F0ED
:1011900071FF0121224808F0C7FC102223469DF868
:1011A0000A101E4808F066FF01211D4808F0BCFC2B
:1011B00021460DF10B0002AA12F8014B6140C9B2A1
:1011C000082311F0800F4FEA410118BF81F0070199
:1011D000013BC9B2F5D19042EED110220F4808F080
:1011E00049FF0E4808F036FF42E507210E4808F097
:1011F0009BFCBDE507210C4808F096FC42E5072161
:10120000094808F091FC88E60721074808F08CFCA3
:1012100024E600BF200E01006C0E0100D087FF1FE6
:10122000DC140100D80D0100E40D01009DF80C3024
:1012300097F8A820B3EB420F7FF4EEAE9DF80D3087
:10124000012B7FF4E9AE9DF80E30122B7FF4E4AE53
:101250009DF810309DF80F0003EB00200BF05AFAB8
:1012600072490BF0ABFAD7F88810386604460BF0D9
:1012700061FC08B1C7F88840D7F8841020460BF00D
:101280003BFC08B1C7F88440A7F1040907F1200628
:1012900007F140054FF008089AF806309AF8050063
:1012A00003EB00200BF036FA61490BF087FA49F89E
:1012B000040F316804460BF01FFC0AF1020A30B13A
:1012C000D7F88C1020460BF02BFC00B13460296855
:1012D00020460BF02FFC043600B12C60B8F1010859
:1012E00005F10405D8D19DF81E309DF81D0003EBD3
:1012F000002002300BF00EFA4E490BF013FB0146B2
:101300004D480BF00FFB4D490BF04EF94C490BF0DB
:1013100055FA054609F0C0FA0446284609F0BCFA19
:10132000484909F02BFB4849054620460BF046FA90
:1013300046490BF03BF94649044628460BF03EFA75
:10134000014620460BF032F901464FF07E500BF07B
:10135000E9FA40490BF028F99DF81F209DF820304C
:10136000786603EB022009300BF0D4F93A490BF010
:10137000D9FA014630480BF0D5FA30490BF014F990
:101380002F490BF01BFA054609F086FA0446284659
:1013900009F082FA2B4909F0F1FA2B49054620465B
:1013A0000BF00CFA29490BF001F9294904462846AB
:1013B0000BF004FA014620460BF0F8F801464FF016
:1013C0007E500BF0AFFA23490BF0EEF8B8660446F6
:1013D0003846FFF7C9FAF96F05460BF08DFB00B1EF
:1013E000FD677D6E204629460BF0A4FBB0B9294667
:1013F000D7F880000BF080FB10B12C46C7F8804076
:10140000164805F0C7F9012007E69DF82190144819
:1014100049464246C34605F0BDF9F4E5D7F88010C9
:1014200020460BF087FB0028E8D1E9E71357053B7E
:101430002003C839001601470AD7E33FE17A644028
:1014400000007A4400004040A40D8F395A80473A8A
:1014500046A6DB3333938843002C0147440E01003A
:10146000200E01002DE9F8430026D0F88C80066696
:101470008146044600F1200754F8045B41462846A3
:101480000BF058FB084950B128460BF035FB30B142
:10149000304629460BF08AF80646C9F86000BC427F
:1014A000EAD13046BDE8F8830000704205299ABFB2
:1014B00000EB8100406E0020704700BF3E2998BFBE
:1014C00080F8A810704700BF90F89000704700BFE8
:1014D000C0F8A410704700BF80F89010704700BF9C
:1014E00030B50F4CC0F88C1083B020460D4608F084
:1014F000B1FD204608F0AEFD28460AF0B5FC0225F5
:1015000002460B460095204608F0FEFD204608F0F6
:10151000A1FD204603B0BDE8304008F09BBD00BFF0
:10152000D087FF1F70B500F531550646343500F100
:1015300028042046B434FEF799FFAC42F9D106F1F5
:10154000DC05012428460021FFF7C6FF2146284676
:101550000134FFF7B3FF3F2C05F1B405F2D142F699
:101560007C4400250548064A064B3555002130616C
:101570007161B261F361304670BD00BF00007A4412
:10158000000048430000C8C2F8B500F532570023F8
:1015900000F531563B60343600F1DC0402E0B4342F
:1015A000B4420DD02046FFF78FFF0028F7D0204629
:1015B0003D68FFF7B5F8B4342844B4423860F1D13F
:1015C0003868F8BDF8B50E46096801F47F65002952
:1015D0000446A5F5C06511DB2D0901F00F07B42302
:1015E00003FB0544283420460121FFF775FF3246EE
:1015F00039462046BDE8F840FFF7FEB90A4801F039
:101600000F0708F027FD1221084808F08DFA31680D
:10161000054801F0004100230A2208F02BFD024892
:101620002D0908F017FDDAE7D087FF1FBC0E010077
:10163000704700BF704700BF2DE9F0430446002308
:1016400083B0064644F8DC3B012504E001353F2D1C
:1016500004F1B40469D02046FFF736FF0028F5D026
:10166000504805F097F829464F4805F093F8204672
:10167000FFF7B2FA2046FFF7F5FE0AF0F5FB024647
:101680000B464A4805F086F82046FEF7DDFF804607
:101690002046FEF7F5FF074640460AF0E5FB804688
:1016A000384689460AF0E0FB42464B46CDE9000148
:1016B0003F4805F06FF800212046FFF7F7FE0121B3
:1016C00080462046FFF7F2FE074640460AF0CCFB74
:1016D0008046384689460AF0C7FB42464B46CDE96C
:1016E0000001344805F056F82046FFF7BBFE0146DE
:1016F00030680AF05BFF30602046FFF735F9B169CA
:101700000BF0FAF9002833D12046FFF70DF8F16904
:101710000BF010FA002899D02046FFF705F80135A4
:101720003F2DF06104F1B40495D170680AF0F2FF26
:10173000014630680BF0F6F87169306004460BF032
:10174000F9F900B17461316920460BF0D5F900B1A7
:1017500034610B2006F0EAFD42F67C43F35C60B98D
:101760009BB142F67C430122F25403B0BDE8F08302
:101770002046FFF7F9F8B061C6E753B942F67C435B
:101780000022F25403B0BDE8F0830B4805F030F8B6
:10179000E7E70A4805F016F842F67C430022F254C7
:1017A000F0E700BFB8100100D00E01000C0F0100DF
:1017B000200F01004C0F0100680F0100A00F010075
:1017C00070B5114B836000F531550646343500F194
:1017D000DC0402E0B434AC4213D02046FFF774FEC0
:1017E0000028F7D02046FEF72FFFB1680BF084F9F0
:1017F0000028EFD02046FEF727FFB434AC42B0609B
:10180000EBD1B06870BD00BF0000A04070B50023F0
:1018100000F531550646C360343500F1DC0402E0C2
:10182000B434AC4213D02046FFF74EFE0028F7D068
:101830002046FEF725FFF1680BF07CF90028EFD079
:101840002046FEF71DFFB434AC42F060EBD1F068E7
:1018500070BD00BF0068704741607047F8B500F583
:1018600031550F461646343500F1DC0402E0B4343D
:10187000AC420FD02046FFF727FE0028F7D02046C5
:101880003946FFF725FE20463146B434FFF728FEDF
:10189000AC42EFD1F8BD00BF2DE9F84300F531555A
:1018A00042F678432E4600278046C7504FF0000985
:1018B0003435383600F1DC0402E0B434A54213D0EC
:1018C0002046FFF701FE0028F7D03368013333606C
:1018D0002046FEF735FF1D490BF02CF988B9B434CA
:1018E000A54207F10107EBD142F6784358F803000F
:1018F000C01B0AF00FFF014648460BF013F8BDE885
:10190000F8832046FEF71CFF014648460AF04EFECB
:1019100081462046FEF714FFD8F820100BF00AF994
:1019200070B92046FEF70CFFD8F824100BF0E4F84D
:101930000028C2D02046FEF703FFC8F82400BCE709
:101940002046FEF7FDFEC8F82000EAE700008CC242
:10195000006A7047406A7047F8B500F53155074690
:101960000026343500F1DC0402E0B434AC420FD080
:101970002046FFF7A9FD0028F7D02046FEF7A2FE7B
:10198000014630460AF012FEB434AC420646EFD1AE
:1019900042F67843F8580AF0BDFE014630460AF098
:1019A000C1FFF8BD2DE9F04F06468FB09B488B462E
:1019B00004F098FE994804F095FE984804F092FED1
:1019C00042F678433046F2580D92FFF7DDFD73681A
:1019D0000C93074630680AF047FA8046304689463D
:1019E000FFF7BAFF82463046B468F568FFF754FF48
:1019F0000AF03AFACDE90A01214628460AF0D4FD58
:101A000087490AF0DBFE0AF02FFACDE908012846E3
:101A10000AF02AFACDE9060120460AF025FACDE9B6
:101A2000040150460AF020FA0D9A0C9BCDE9020100
:101A3000CDE9008911467B483A4604F053FE7748C9
:101A400004F050FEDC364FF001084FF0000A07E0CA
:101A500008F10108B8F13F0F06F1B40600F0D58097
:101A60003046FFF731FD0028F2D03046FEF7D6FDB4
:101A70003046FEF7D7FD3046FEF7D8FD3046FEF77C
:101A8000D9FD0821684808F04FF84146674808F03A
:101A900031FBB8F1090F40F3BB800221644808F024
:101AA00043F83046FFF7DEFC0AF0DEF95FFA8BF907
:101AB00002460B46CDF800905C4808F025FB01215A
:101AC0005C4808F031F85546002420E006215A48C9
:101AD00008F02AF82946554808F00CFB022157481F
:101AE00008F022F821463046FEF7A8FD0AF0BCF9BE
:101AF000CDF8009002460B464C4808F005FB013437
:101B000001214C4808F010F8082C09D03D46092D59
:101B100005F10107DADC0121494808F005F8D5E7AD
:101B2000424808F097FA0921464807F0FDFF0021D6
:101B30003046FFF7BBFC0AF097F9022402460B4639
:101B400000943A4808F0E0FA0A213F4807F0ECFF19
:101B500001213046FFF7AAFC0AF086F900940246FC
:101B60000B46324808F0D0FA0A21384807F0DCFF6B
:101B700021463046FFF79AFC0AF076F900940246B7
:101B80000B462A4808F0C0FA0A21314807F0CCFF7A
:101B900003213046FFF78AFC0AF066F900940246FA
:101BA0000B46224808F0B0FA0A212A4807F0BCFF89
:101BB00004213046FFF77AFC0AF056F900940246F9
:101BC0000B461A4808F0A0FA0A21234807F0ACFF98
:101BD00005213046FFF76AFC0AF046F900940246F8
:101BE0000B46124808F090FA01211C4807F09CFFB0
:101BF00008F101080D4808F02DFAB8F13F0F0AF17D
:101C0000080A06F1B4067FF42BAF0FB0BDE8F08FE1
:101C100001210B4807F088FF3FE700BFB810010023
:101C200000007A4450120100F0120100D087FF1F1B
:101C300000210100FC12010000130100CC1401007E
:101C4000DC1401000813010014130100201301002B
:101C50002C1301003813010044130100501301003C
:101C60002DE9F04100F1DC0582B0012705E00137E4
:101C70003F2F05F1B40500F08B802846FFF724FCC8
:101C80000028F4D03946444808F034FA012143488A
:101C900007F04AFF00244FF0020821462846FEF7CD
:101CA000CDFC0AF0E1F8CDF8008002460B463A4838
:101CB00008F02AFA01340121384807F035FF082CD2
:101CC0004FF00206E9D100212846FFF7EFFB0AF0AA
:101CD000CBF8009602460B462F4808F015FA012172
:101CE0002E4807F021FF01212846FFF7DFFB0AF00D
:101CF000BBF8009602460B46274808F005FA01217A
:101D0000264807F011FF31462846FFF7CFFB0AF0BF
:101D1000ABF8009602460B461F4808F0F5F9012182
:101D20001E4807F001FF03212846FFF7BFFB0AF01A
:101D30009BF8009602460B46174808F0E5F901218A
:101D4000164807F0F1FE04212846FFF7AFFB0AF022
:101D50008BF8009602460B460F4808F0D5F9012192
:101D60000E4807F0E1FE05212846FFF79FFB0AF029
:101D70007BF8009602460B46074808F0C5F9013784
:101D8000054808F067F93F2F05F1B4057FF475AFFA
:101D900002B0BDE8F08100BFD087FF1F54130100DF
:101DA000F8B53B483B4F3C4D3C4E3D4C04F09AFC53
:101DB0003C4B3D4A3D485A60DF60102200273C49B9
:101DC0001A7018613B4A3C485D615E623B4D9C6104
:101DD0004FF07C563A4C1F633A4F9962DA623A49A7
:101DE00058630C2239489D635E6440F61C450A2600
:101DF0009C641F6241F20404354FD9641A650221C4
:101E00000122C3F8B8009D6600206425DE661C67C9
:101E10004FF496763224DF61DF635A275970597286
:101E20001A725A6583F840005E66DE651C669D6521
:101E30004FF47A7E5F67274E274F9867D967C3F8BC
:101E40008000C3F89440C3F8A040C3F89C00FF246E
:101E5000C3F8A820C3F8AC10052041F2883183F8FC
:101E6000BC2040F2D662C3F8B050C3F898E0C3F883
:101E70008870C3F88C60C3F8A440A3F8B600C3F818
:101E80009010A3F8B410A3F88420A3F88620F8BD1E
:101E9000581301006666864033338340CDCCCC3D79
:101EA000CDCC4C403493FF1F20A1070000004040E0
:101EB00000008242000020C1000020420000A0403B
:101EC0009A997940333373400AD7233D9A99993EC2
:101ED000CDCC4C3E00C0204400006842F0B54FF429
:101EE0007A6085B006F058FA00210F2006F02CFA2F
:101EF00000210E2006F028FA0021112006F024FA15
:101F00000021102006F020FA0021122006F01CFA11
:101F10000021132006F018FA01210B2006F014FA14
:101F200001210C2006F010FA0121142006F00CFA11
:101F30000121152006F008FA0121162006F004FA06
:101F40000121172006F000FA0121052006F0FCF916
:101F50008E4C8F4D0121062006F0F6F901210D204F
:101F600006F0F2F920880AF0D1FB0146162006F0AF
:101F700055F920880AF0CAFB0146172006F04EF9F1
:101F800020880AF0C3FB0146052006F047F92088A7
:101F90000AF0BCFB00240146062006F03FF900943D
:101FA00023467C4A7C497D4804F01CFEE6B232465A
:101FB00077497A4804F0C4FD2B79754977486FF367
:101FC0000003013432462B7104F0B0FD082CEDD132
:101FD0000924E6B232466E49704804F0B1FD2B790F
:101FE0006B496E4843F00103013432462B7104F013
:101FF0009DFD0D2CEDD16A4C4FF0FF322068102171
:1020000005F0BCF920684FF0FF32102105F08EF981
:1020100020684FF0FF32022105F09CF920684FF054
:10202000FF32022105F0A0F900220F21206805F0FF
:10203000AFF90C215B4807F077FD5B4808F00AF820
:1020400014215A4807F070FD574808F003F8564825
:1020500008F000F81721564807F066FD524807F0CF
:10206000F9FF544B1B789A0600F1BE80514B1B7848
:102070001B0700F1C5804F4B1B785F0700F1CC8038
:102080004C4B1B789E0700F1D3804B4B1B781D06F1
:1020900000F1DA80484B1B785C0600F1E180464B8A
:1020A0001B78980600F1E880434B1B78590700F134
:1020B000EF80414B1B781A0700F1F6803E4B1B78EE
:1020C0009B0700F1FD80384807F0C4FF72B63B4A19
:1020D0004CF220534DF62811202413802346118002
:1020E000013BFDD1364D3748374900234FF4805628
:1020F0002E8003800B8032F80E3C9BB243F0D3035A
:1021000022F80E3C62B69D2006F000FE21462F48C4
:102110002F4D07F009FD244807F09CFF05F1C0068C
:102120002F462C46601B05F015FE04F8010BB44247
:10213000F8D13B78102B01D0FFF732FE2548FFF78E
:1021400079FA042004F01AFA234B224800221A607C
:10215000FFF76EFA01210D2006F0E2F8796D1D48B7
:10216000FFF77AFB7A6C97F840101A48FFF776FB76
:102170001A4B1B491A68039203981B680293029A30
:10218000184B08601A6005B0F0BD00BF2487FF1F20
:102190000094FF1F10C3FF1F20A1070074C1FF1F81
:1021A000AC94FF1F78130100D087FF1F8813010034
:1021B000A013010001F0074000F007400E20054089
:1021C000042005400620054016200540A414010007
:1021D0003493FF1FE094FF1F5C92FF1F1CC3FF1F7F
:1021E000DC94FF1F0894FF1F2121394807F09CFC55
:1021F000384807F02FFF384B1B781B077FF53BAFA4
:102200000C21364807F090FC324807F023FF324B90
:102210001B785F077FF534AF0E21314807F084FC4F
:102220002C4807F017FF2C4B1B789E077FF52DAF2E
:1022300017212C4807F078FC264807F00BFF2A4BA3
:102240001B781D067FF526AF0E21284807F06CFC91
:10225000204807F0FFFE244B1B785C067FF51FAF7C
:102260001221234807F060FC1A4807F0F3FE1E4BCA
:102270001B7898067FF518AF13211E4807F054FC11
:10228000144807F0E7FE184B1B7859077FF511AF8C
:102290001C21194807F048FC0E4807F0DBFE124BE2
:1022A0001B781A077FF50AAF1921144807F03CFC88
:1022B000084807F0CFFE0C4B1B789B077FF503AF58
:1022C00018210F4807F030FC024807F0C3FEFAE679
:1022D000B8130100D087FF1F01F00740DC13010095
:1022E000EC130100FC13010000F00740141401007E
:1022F00024140100381401004C1401006C14010076
:102300008814010070B5464C464D4748E6680023E6
:102310002B70FFF77BFA014630460AF0EDFB08B15F
:1023200004232B704048FFF74BFA21690AF0E4FBC5
:1023300018B12B7843F010032B703B48FFF7ACFA31
:10234000A16A0AF0F7FB18B12B7843F040032B7019
:10235000002335486B70FFF79FFAE16A314E0AF0AF
:10236000CBFB08B10123737000232F48EB70FFF7FC
:102370004DFA05462C482B4EFFF722FA0146284617
:102380000AF012F9E16B0AF0D5FB08B10123F370F2
:10239000264D254800232B70FFF738FA616A064660
:1023A000E0680AF001F9014630460AF0C3FB08B1C3
:1023B00004232B701C48FFF703FA616A0646206964
:1023C0000AF0F4F8014630460AF096FB18B12B7873
:1023D00043F010032B701448FFF75EFAA16B06461A
:1023E000A06A0AF0E1F8014630460AF0A3FB18B1F2
:1023F0002B7843F040032B7000230B486B70FFF7E2
:102400004BFAA16B0546E06A084C0AF0CFF801468A
:1024100028460AF071FB08B10123637070BD00BF4C
:102420003493FF1F3093FF1FE094FF1F9C94FF1F06
:102430002DE9F0417C4C2368012B82B031D0022B76
:1024400000F0A880032B00F0C8803BBB774B784A94
:10245000D3F8A010D3F8A43012685B1A632B0EDDFA
:10246000744803FB02F380FB0302DB17C3EB621328
:102470001944062002B0BDE8F04105F0D1BD6E4818
:1024800003FB022380FB0302DB17C3EB2212114480
:10249000062002B0BDE8F04105F0C2BD02B0BDE8C3
:1024A000F081664E33680A33B3F57A7F00F3B78064
:1024B000184633600AF02EF961490AF07FF9804628
:1024C0005A4DD5F8A0000AF025F90746D5F8A40022
:1024D0000AF020F939460AF067F841460AF06EF929
:1024E00058490AF01FFA39460AF060F80AF042FB30
:1024F0000146062005F094FD0221534807F014FB25
:10250000524807F0A7FD0621514807F00DFB30683F
:102510000AF000F94A490AF051F909F0A5FC02272E
:1025200002460B460097494807F0EEFD0D21494849
:1025300007F0FAFAD5F8A0000AF0ECF88046306807
:102540000AF0E8F83E490AF039F90646D5F8A40041
:102550000AF0E0F841460AF027F8014630460AF052
:102560002DF938490AF0DEF941460AF01FF809F062
:102570007BFC00970B460246344807F0C5FD394600
:10258000314807F0D1FA314807F064FD2368022B87
:102590007FF458AF294B254E00221A60D6F8A000D0
:1025A0000AF0B8F80546D6F8A4000AF0B3F82946B0
:1025B00009F0FAFF00210AF001F922490AF0B2F904
:1025C000294609F0F3FF0AF0D5FA0146062005F086
:1025D00027FD2368032B7FF438AF184B134E4FF4BD
:1025E0007A721A60D6F8A0000AF094F80546D6F878
:1025F000A4000AF08FF8294609F0D6FF11490AF025
:10260000DDF810490AF08EF9294609F0CFFF0AF0EB
:10261000B1FA0146062005F003FD236815E7002303
:102620004FF0000833604BE78C94FF1F3493FF1F7B
:102630003087FF1F1F85EB51CBF08D286092FF1F65
:10264000CDCCCC3D0000C84200210100D087FF1F47
:10265000C8140100D014010070B5A248A24C07F0C4
:10266000F9FCA04807F0F6FC9E4807F0F3FC0D21AA
:102670009E4807F059FAD4F89C30012B11D09C4C9D
:102680009848217800230A2207F0F4FC2378052BD0
:1026900067D8DFE813F0E900EE00F300F800FD0072
:1026A000E4000921934807F03FFA9348FFF788F8C0
:1026B00021690AF021FA18B10F21904807F034FA85
:1026C0008D48FFF7A3F8E1680AF034FA18B10E213B
:1026D0008B4807F029FA8848FFF798F8054686489E
:1026E000FFF76EF80146284609F05EFFE16B0AF03D
:1026F00021FA18B11121834807F016FA7E48FFF736
:10270000CBF8A16A0AF016FA18B10C217E4807F03E
:102710000BFA7948FFF7C0F8E16A0AF0EDF918B151
:102720000D217A4807F000FA794B73481B68012B9A
:1027300000F0C280FFF744F821696B4D0AF0FAF906
:1027400078B16D48FFF762F8E9680AF0D5F940B151
:10275000674B1B78052B00F0C08008216D4807F0FF
:10276000E3F902216C4807F0DFF9122005F0DEFDE5
:10277000012800F09C80112005F0D8FD012800F010
:102780009180664B1B68012B00F087800221624814
:1027900007F0CAF9624B5348196807F0ABFC51487F
:1027A00007F058FC04215F4807F0BEF90B2005F044
:1027B000BDFD002301460A224A4807F05BFC0C20BD
:1027C00005F0B4FD002301460A22464807F052FCFA
:1027D000142005F0ABFD002301460A22414807F012
:1027E00049FC152005F0A2FD002301460A223D48C0
:1027F00007F040FC06214C4807F096F94B4B39484E
:1028000019680222002307F035FC0421484807F02C
:102810008BF9112005F08AFD002301460A22314878
:1028200007F028FC102005F081FD002301460A2254
:102830002C4807F01FFC122005F078FD002301460C
:102840000A22284807F016FC132005F06FFD00232C
:1028500001460A222348BDE8704007F00BBC07215F
:10286000344807F061F97CE70621334807F05CF94A
:1028700077E70721314807F057F972E70721304819
:1028800007F052F96DE708212E4807F04DF968E787
:102890000B212D4807F048F963E711212B4807F079
:1028A00043F973E70A212A4807F03EF969E70E2148
:1028B000284807F039F95EE7FEF782FF216A0AF03F
:1028C00039F900283FF449AF1621234807F02CF9C5
:1028D0000A21224807F028F943E70A211F4807F098
:1028E00023F93EE7D087FF1F3493FF1FE014010058
:1028F0009894FF1FF0140100E094FF1FFC140100E6
:102900000C1501001C1501003015010040150100D7
:102910006C92FF1F7415010000210100B494FF1F89
:102920009094FF1FE8150100F0150100F493FF1FBC
:10293000F8150100B015010080150100881501008F
:102940009C150100A415010090150100D41501008B
:10295000C8150100B81501005015010068150100E7
:102960002DE9F04F934C944FE36F012B8DB000F0A5
:102970004981032B50D0914E914DA36F9148012B6B
:1029800009BF2968296801F10041296005F0D4F8E0
:102990003368002B40F0CE808A4805F0A3F8E36F3F
:1029A0003860012B064600F0D28087490AF0C2F851
:1029B00078B9864930460AF09FF850B9844A854B69
:1029C00012680B920B9A1A6000232B600DB0BDE8C1
:1029D000F08FDFF8FC817F4CD8F800300A930A981A
:1029E00023687D4FC01A09F091FE314609F0E6FEDA
:1029F0007A4909F097FF794909F094FF396809F09D
:102A0000D5FDD8F800300993099B23600023386076
:102A10002B600DB0BDE8F08FDFF8C881704DD8F89D
:102A20000000664E012300220F212B6004F0B0FC51
:102A30002B68012B336800F00381002B40F0A68146
:102A40000021D8F80000DFF8B891664D04F0F2FCE0
:102A500033681FFA80FBC9F800B0002B40F07B817F
:102A60000021D8F80000564DDFF878A104F068FC8A
:102A7000B4F8863040F6E44101FB0BF1B1FBF0F015
:102A8000C01A00B209F046FE57498346D4F88800C0
:102A900009F094FE0146584609F044FFD9F8003089
:102AA0002860632BDFF858B100F3498100232B60C5
:102AB0003368002B3FF461AF02214C4807F034F833
:102AC000D9F80020D8F8000040F6E443002103FBC9
:102AD00002F804F035FCB8FBF0F009F017FE804670
:102AE000B4F8860009F016FE0146404609F05CFD88
:102AF00009F0BAF94FF0020802460B46CDF8008003
:102B00003B4807F001FB4146384807F00DF82868BC
:102B100009F0AAF9CDF8008002460B46344807F0C8
:102B2000F3FA4146334806F0FFFF41462F4806F0CE
:102B3000FBFF22E7234804F0D5FF09F095F90226B0
:102B400002460B4600962A4807F0DEFA24E7244B9B
:102B50001B68012B00F02681022B7FF435AF26493C
:102B600009F0E8FF30B92549304609F0C5FF0028D3
:102B700000F04781DFF85880164CD8F800300793F2
:102B800007982368144FC01A09F0C0FD314609F0B8
:102B900015FE124909F0C6FE104909F0C3FE396856
:102BA00009F004FDD8F800300693069B38602360D6
:102BB0000AE700BF3493FF1F7892FF1FD894FF1FCE
:102BC0006892FF1F0C93FF1F0000FA430000FAC336
:102BD0001CC3FF1FA894FF1F8492FF1F00007A44AC
:102BE0005087FF1FAC94FF1F17B7D1380021010099
:102BF000D087FF1F3C16010000C82F4800A08CC6DC
:102C00002C93FF1F3D689849284609F075FF30B1A5
:102C10002846964909F08EFF00287FF4FDAEDFF8C4
:102C20005882934DD8F80000924E022300220E21C4
:102C30002B6004F0ADFB2B68012B33687FF4FDAEF5
:102C4000002B40F000810021D8F80000DFF86C92E2
:102C5000894D04F0EFFB33681FFA80FBC9F800B020
:102C6000002B40F0D5800021D8F80000834D04F0FF
:102C700067FBB4F8843040F6E44A0AFB0BFBBBFB6D
:102C8000F0F0C01A00B209F045FD7D498346D4F842
:102C90008C0009F093FD0146584609F043FED9F82F
:102CA000003028600021D8F800000AFB03FA04F085
:102CB00047FBB4F88430BAFBF0F00FFA80FAC3EBAC
:102CC0000A03002BB4F8B620B8BF5B429342BCBFE6
:102CD00000232B603368002B3FF44FAE022169487C
:102CE00006F022FFD9F80020D8F8000040F6E443AF
:102CF000002103FB02F804F023FBB4F88410B8FBB6
:102D0000F0F000B2411A604807F0F4F902215D4882
:102D100006F00AFF286809F0A7F84FF002080246FB
:102D20000B46CDF80080584807F0EEF903215748CC
:102D300006F0FAFE4146534806F0F6FE1DE6DAF8C4
:102D40000000002104F0FCFADBF8003064389842FF
:102D5000FFF4ACAEACE60021286804F0F1FA40F6CE
:102D6000E44100230A2201FB0BF1B1FBF0F14648DC
:102D700007F080F90221434806F0D6FEB4F8861029
:102D8000414807F0B7F9D9F800B069E63E4807F0C6
:102D900061F90C213E4806F0C7FE0C213D4806F0C3
:102DA000C3FE4DE63C4909F0C5FE58B93B493046E3
:102DB00009F0A2FE30B93A4A3A4B12680592059AD8
:102DC0001A6001E6DFF8D880364CD8F8003004935A
:102DD00004982368344FC01A09F098FC314609F072
:102DE000EDFC324909F09EFD304909F09BFD396840
:102DF00009F0DCFBD8F800300393039B38602360B4
:102E0000E2E5274A274B12680892089A1A60DBE528
:102E10000021286804F094FA40F6E44100230A22D5
:102E200001FB0BF1B1FBF0F1174807F023F9012189
:102E30001F4806F079FEB4F88410134807F05AF9D9
:102E4000D9F800B00FE7104807F004F9E36F012B41
:102E50004FF00B010CBF1748174806F065FE0C2118
:102E60000C4806F061FEEEE600709446007094C6D1
:102E70005087FF1FD894FF1FAC94FF1F6892FF1F5D
:102E800017B7D13800210100D087FF1F2816010095
:102E90002C160100181601000000FA430000FAC3C6
:102EA0001CC3FF1FA894FF1F8492FF1F00007A44D9
:102EB000DC140100001601000C1601002C93FF1F0A
:102EC0002DE9F047B24D2B6884B0002B7ED0B14C79
:102ED000DFF8C882B04EE36FAE4D012B00F08F805B
:102EE000D4F88030AB4F012B00F0BC80D6F80090B6
:102EF000D7F858A07D6DA94F05FB0AF54FF47A70FD
:102F000000FB05F009F006FCA5490546484609F016
:102F100055FC294609F006FDA24909F04FFC09F0CD
:102F200029FE6328C8F800004BDD28469C4909F0BB
:102F3000F9FC642330603B609B4B1B68002B3DD049
:102F4000E36F944D012B00F0BB80032B00F009814F
:102F5000022B00F00C810221944806F0E5FD944B11
:102F6000186808F081FF022402460B46009491483D
:102F700007F0CAF82146904806F0D6FD21468B4856
:102F800006F0D2FDD8F800108A4807F0B3F8062101
:102F90008A4806F0C9FD3068814909F00FFC08F045
:102FA00063FF009402460B46824807F0ADF8032108
:102FB000834806F0B9FD7F4807F04CF804B0BDE83F
:102FC000F0870028BCBF00233B60B5E77D4E714C05
:102FD00033680293029A42F228339A4200F2BA808E
:102FE00033680393039A42F210739A4274D8E36FE2
:102FF000DFF8A881684E674D012B7FF471AF7248EE
:10300000FEF7AAFC7149D5F86890EF6E09F0D6FB7F
:1030100009F0D6FD2A6F6B6FC9EB0202DB1B80B291
:103020009A42C9EB000040F3AD8003FB0000531C43
:1030300090FBF3F31F44A06D636DC8F8007000FBB4
:1030400007F003FB00F000EB8000400009F062FB9A
:103050005349504F09F066FCD4F880303060012BA2
:103060007FF444AF5848FEF777FC5849D7F868908A
:10307000FD6E09F0A3FB09F0A3FD3A6F7B6FD4F856
:1030800058A0C9EB02025B1B80B29A42C9EB000058
:10309000C6BF03FB00000132584390FBF2F0284406
:1030A000656D00FB0AF005FB00F000EB80004000BE
:1030B00009F030FB3A4909F035FC814630601AE7E7
:1030C000434B1B68012B4FF00A010CBF414842489B
:1030D00006F02AFDEB6F38E73B48FEF73DFC3B4925
:1030E000A76EE66E09F06AFB09F06AFD226F636F56
:1030F000D21B9B1B80B29A42A0EB07003CDD03FB76
:103100000000531C90FBF3F39819A26DDFF88C803C
:10311000636DC8F8000002FB00F003FB00F000EB59
:103120008000400009F0F6FA1D491B4E09F0FAFB39
:103130000123306002211D482B6006F0F5FC1D487C
:1031400006F088FF5921254806F0EEFC194806F0E4
:1031500081FFC0E61C48626C94F84010FEF77EFBCD
:103160003EE710211E4806F0DFFCE36FF0E6072182
:103170001C4806F0D9FCEEE603FB00F393FBF2F3E8
:103180009819C2E703FB00F393FBF2F31F4452E7E5
:103190006492FF1F3493FF1F8492FF1F3087FF1F2D
:1031A000E4388E3E0000C8423887FF1F002101002E
:1031B0007892FF1FD087FF1F3C160100D016010038
:1031C000D81601001CC3FF1FE094FF1F00007A44C3
:1031D0005087FF1F9C160100A81601004016010031
:1031E000B4160100C816010030B5112083B005F0F7
:1031F0009DF8012818D0122005F098F8012813D066
:1032000000210B2005F08CF800210C2005F088F837
:103210000021152005F084F82649274B01200022C3
:1032200008701A6003B030BD0121152005F078F850
:10323000224A234C234B1268D4F8901001921B6849
:10324000019A1D4D0B4493424FF00201296005D9AC
:1032500001210C2005F064F803B030BDD4F89800CB
:1032600009F058FA184B196809F046FC0028EFD10C
:1032700001210B2005F054F894F8BC3003242C6095
:1032800043B10C4B02221A7000210C2005F048F8C3
:1032900003B030BD122005F049F8012808BF054BE6
:1032A0004FF0110008BF1C7005F040F80128EBD169
:1032B000E7E700BF9894FF1FD494FF1F1CC3FF1FB4
:1032C0003493FF1FDC94FF1F7892FF1FF0B5684E08
:1032D000684D34682B689C4287B039D014F00101E6
:1032E00055D014F0020149D014F004013DD0E30799
:1032F0000ED52B68DF070BD45F4F3A68002A00F029
:1033000082805E4B1B680193019B93426DD83468A9
:10331000A0070DD52B6899070AD4594F3A68002A9F
:103320004CD0564B1B680393039B934238D83468A8
:1033300062070DD52B685B070BD4524F3A68002A01
:103340007ED04E4B1B680593059B934268D834682A
:103350000CB107B0F0BD2146162004F061FE2146F5
:10336000172004F05DFE07B0F0BD052004F058FE04
:103370002B68346803F0FB032B60B8E7172004F0D8
:103380004FFE2B68346803F0FD032B60ACE716207A
:1033900004F046FE2B68346803F0FE032B60A0E7C0
:1033A000394B1720D3F8941004F03AFE2B68346898
:1033B00043F0020300222B603A60B9E7334806F07D
:1033C00049FE0C21324806F0AFFB304806F042FEC1
:1033D000FF21172004F024FE284B2E4A1968029181
:1033E000029912680A443A609CE7274B1620D3F8EA
:1033F000941004F015FE2B68346843F0010300229A
:103400002B603A6084E7FF21162004F009FE1B4B75
:10341000204A19680091009912680A443A6071E7DD
:10342000194B0520D3F8941004F0FAFD2B6834688A
:1034300043F0040300222B603A60002C89D18AE714
:10344000124806F007FE0C21134806F06DFB0F48EA
:1034500006F000FEFF21052004F0E2FD074B0D4AB7
:1034600019680491049912680A443A606AE700BF37
:10347000D494FF1FF493FF1F7094FF1F1CC3FF1F02
:103480007494FF1F7894FF1F3493FF1FD087FF1F92
:10349000DC1601006887FF1FEC1601002DE9F047DC
:1034A000544EDFF87481DFF874913068524D002279
:1034B0000F2103F06DFF0023012222214F48C8F89D
:1034C0000030C9F8002006F02FFBD8F80030132B8D
:1034D00022DC40F6E44700213068B5F884A003F010
:1034E000A9FF00210446306803F02AFFA4B201219D
:1034F00007FB04F4B4FBF0F441485444A5F88440BD
:1035000006F012FB642004F047FFD8F800300133C6
:10351000132BC8F80030DEDDB5F88430394A3A485C
:10352000A2FB03129B1A02EB5303C3F30F131946BA
:10353000A5F8843006F0DEFD1D21344806F0F4FACB
:103540000221334806F0F0FA2F4806F083FD0023ED
:103550001A460E213068C8F8003003F019FF022324
:1035600022212648C9F8003006F0DEFAD8F80030EB
:10357000132B22DC40F6E44700213068B5F8869032
:1035800003F058FF00210446306803F0D9FEA4B2CE
:10359000012107FB04F4B4FBF0F419484C44A5F8EE
:1035A000864006F0C1FA642004F0F6FED8F8003038
:1035B0000133132BC8F80030DEDDB5F88630114A30
:1035C0001148A2FB03129B1A02EB5303C3F30F1320
:1035D0001946A5F8863006F08DFD1D210D4806F030
:1035E000A3FA02210A4806F09FFA0748BDE8F0470F
:1035F00006F030BDAC94FF1F3493FF1FFC16010092
:103600004017010087611886D087FF1F201701002F
:1036100000210100441701009494FF1F5087FF1FF1
:10362000F8B5774B774C784D1B68286D40F25131D7
:1036300008222160E271002B00F0DD8009F06AF8B9
:10364000296A064609F0BAF8704909F0B7F809F096
:10365000B7FA80B2031263726D4A6E4B12681B6830
:10366000A96920721512A37230461B12E3722273ED
:10367000657309F0A3F8654909F0A0F809F0A0FA0C
:1036800083B21A125F496448A373E27303F0A2FC89
:10369000624B634A1B6812885A49A272DFB207EB79
:1036A000870603EB8305760045F3D71512121B122C
:1036B0002772267365730826002540F25537564851
:1036C000E27263722760E671A573E57303F082FC12
:1036D00040F2563353482360E671FEF7BBF8524977
:1036E00009F06CF809F06CFA20724E48FEF7B2F857
:1036F0004D4909F063F809F063FA4C4A4A49C0F3AE
:1037000007231068637209F00DF909F033FA40FAE3
:1037100006F203464348E272A372FEF7BDF83B4946
:1037200009F04CF809F04CFA20733E48FEF7B4F863
:10373000364909F043F809F043FA3249A573C0F35A
:10374000072335486373E57303F044FC022004F05B
:1037500023FE374B2B49187893F801E09F78DA78ED
:10376000207240F25A332C48E67125736573A573B5
:10377000E57384F809E0A772E272236003F02AFC83
:103780002C4B204918785D789A782072187993F834
:1037900003E05F796572A2729D79DA79207340F255
:1037A0005E331D4884F80BE0E2732360E6716773B3
:1037B000A57303F00FFC022004F0EEFD1E4BE67132
:1037C0001D785A7893F802E0D8781F795E792572CF
:1037D00062729D79DA79E0724FF45C7384F80AE0E2
:1037E00027736673A573E273236006490A48BDE830
:1037F000F84003F0EFBB08F08DFF6969064621E74A
:103800006C92FF1FC494FF1F3493FF1F00002041E0
:10381000A494FF1F5492FF1F74C1FF1F3087FF1F26
:103820003487FF1FE094FF1F0000C8427892FF1FFB
:103830003093FF1F2887FF1F5487FF1F38B5284B81
:103840001B68012B00D038BD264D2748FDF7B8FF77
:10385000E96C08F0ABFE04462348FDF7D7FF0146AC
:10386000204609F049F90028EDD0204C1E4840F2CE
:10387000C33208232260E371FDF7A2FFAD6C294635
:1038800009F03AF9B8B11A49284608F097FF09F04B
:1038900097F980B203126072237200230122A27290
:1038A000E37223736373A373E37310491148BDE894
:1038B000384003F08FBB0C48FDF782FF0C4908F03D
:1038C0007DFF09F07DF9C0F3072307482372FDF758
:1038D00077FF074908F072FF09F072F96072DCE7C0
:1038E000B494FF1F3493FF1FE094FF1FC494FF1F85
:1038F0000000C84274C1FF1FF0B59C4C9C4D83B0C2
:1039000006F0ACF823682860042B00F0AC82022B90
:103910004BD0082B00F09280072B40F051813328C8
:1039200001F0F28300F3AD80312801F000843228E9
:1039300040F0B08006F0CEF8002840F33F818D487B
:103940008D4E06F01BFD08F0E5FE8C4908F036FFB1
:1039500061230122F06322602B601846A0F152031C
:103960001F2B01F2AF83DFE813F02E0BAD0BAD0B75
:10397000AD0BAD0BAD0BAD0BAD0BAD0BAD0BAD0B87
:10398000AD0BAD0BAD0BAD0BB203CB0C3905A705E1
:103990007304AD0BAD0BAD0B2604AD0BCE0CAD0B14
:1039A000AD0BAD0BAD0BAD0B300BA0F13102422ACC
:1039B00070D8DFE812F0F006FC060A0717072A079E
:1039C00039076F006F006F006F006F006F006F00AE
:1039D0006F006F006F006F006F006F006F006F006F
:1039E0006F006F006F006F006F006F006F006F005F
:1039F0006F006F006F006F006F006F006F006F004F
:103A00006F006F006F006F006F006F006F006F003E
:103A10006F006F006F006F006F00DD066F006F00BA
:103A20006F006F006F006F006F006F006F006F001E
:103A30006F006F006F006B006F00E306322800F02C
:103A40002F83712822D0312824D106F043F8002892
:103A500040F3CF854748484E06F090FCC0B286F848
:103A60004000022894BF01460021726C444888BF80
:103A700086F84010FDF7F2FE0123692023602860DC
:103A80006CE7342801F02E83712803D100237320C2
:103A900023602860002B08BF73280CBF0120002082
:103AA000002860D0334806F0D5FA0421354806F0E6
:103AB0003BF8304806F0CEFA1021334806F034F8CF
:103AC0002C4806F0C7FA1321304806F02DF8304B89
:103AD0002848196806F00EFB264806F0BBFA1421A8
:103AE0002C4806F021F8234806F0B4FA1E212A4893
:103AF00006F01AF81F4806F0ADFA1521274806F01F
:103B000013F81C4806F0A6FA1E21254806F00CF80A
:103B1000184806F09FFA2021224806F005F81548BB
:103B200006F098FA1921204805F0FEFF114806F02A
:103B300091FA12211D4805F0F7FF0E4806F08AFAA7
:103B40000F211B4805F0F0FF0A4806F083FA0D210B
:103B5000184805F0E9FF074806F07CFA164A0021EC
:103B600001231160236003B0F0BD00BF8892FF1FE6
:103B70007492FF1FD087FF1F3493FF1F6F12833A89
:103B8000E094FF1F7C1F0100841F0100981F0100AB
:103B90002087FF1FAC1F0100C41F0100E41F0100AC
:103BA000FC1F01001C200100402001005C200100DE
:103BB00070200100802001003887FF1F23682868DB
:103BC000062B40F08D80A0F13102402A3FF662AF13
:103BD00001A151F822F000BFFD4500002946000078
:103BE000554600007B460000A1460000BF4600008D
:103BF0005D470000953A0000953A0000953A0000B4
:103C0000953A0000953A0000953A0000953A000078
:103C1000953A0000953A0000953A0000953A000068
:103C2000953A0000953A0000953A0000953A000058
:103C3000953A0000953A0000953A0000953A000048
:103C4000953A0000953A0000953A0000953A000038
:103C5000953A0000953A0000953A0000953A000028
:103C6000953A0000953A0000953A0000953A000018
:103C7000953A0000953A0000953A0000953A000008
:103C8000953A0000953A0000953A0000953A0000F8
:103C9000953A0000953A0000953A0000953A0000E8
:103CA000953A0000953A0000953A0000953A0000D8
:103CB000953A0000953A0000953A0000953A0000C8
:103CC000953A0000953A0000953A0000953A0000B8
:103CD000953A0000953A00008D3A00002368286864
:103CE000052B15D1332801F0498240F3478135284F
:103CF00001F06B82C1F2538271287FF4CBAEDC4AB3
:103D000000237320136023602860C3E623682868BB
:103D1000032B40F0A480A0F13002422A3FF6BAAE55
:103D200001A151F822F000BF353E0000D14E000045
:103D30007F4D0000A74D0000C94D0000EB4D000075
:103D4000F94E0000214F00003F4F0000634F00007C
:103D5000953A0000953A0000953A0000953A000027
:103D6000953A0000953A0000953A0000953A000017
:103D7000953A0000953A0000953A0000953A000007
:103D8000953A0000953A0000953A0000953A0000F7
:103D9000953A0000953A0000953A0000953A0000E7
:103DA000953A0000953A0000953A0000953A0000D7
:103DB000953A0000953A0000953A0000953A0000C7
:103DC000953A0000953A0000953A0000953A0000B7
:103DD000953A0000953A0000953A0000953A0000A7
:103DE000953A0000953A0000953A0000134E000005
:103DF0002B4900008B4F0000A94F0000734E0000BC
:103E0000914E0000E148000005490000953A00008D
:103E1000953A0000953A0000953A0000953A000066
:103E2000953A0000953A0000953A0000314E0000A6
:103E30003D4E000005F04EFE002841F34C818D48B8
:103E40008D4E06F09BFA01270346014662228B48FD
:103E5000736527602A60FDF7FFFC23682868012B43
:103E60007FF418AE7AE5A0F13102402A3FF612AE97
:103E700001A151F822F000BF434800005B48000058
:103E80005F48000085480000C548000089480000E0
:103E90009B4800009F480000A3480000953A00009E
:103EA000953A0000953A0000953A0000953A0000D6
:103EB000953A0000953A0000953A0000953A0000C6
:103EC000953A0000953A0000953A0000953A0000B6
:103ED000953A0000953A0000953A0000953A0000A6
:103EE000953A0000953A0000953A0000953A000096
:103EF000953A0000953A0000953A0000953A000086
:103F0000953A0000953A0000953A0000953A000075
:103F1000953A0000953A0000953A0000953A000065
:103F2000953A0000953A0000953A0000953A000055
:103F3000953A0000953A0000953A0000953A000045
:103F4000953A0000953A0000953A0000953A000035
:103F5000953A0000953A0000953A0000953A000025
:103F6000953A0000953A0000953A0000953A000015
:103F7000953A0000953A00008D3A0000312801F092
:103F8000EC8032287FF486AD05F0A4FD00287FF791
:103F9000BDAE3848384E06F0F1F901226B23C6F861
:103FA000980022602B6001E005F058FD05F092FDBD
:103FB0000028F9D12F4806F04DF82E4806F04AF8AF
:103FC0002C4806F047F82B4806F044F8294806F03C
:103FD00041F821212A4805F0A7FD264806F03AF8C5
:103FE0001521284805F0A0FDD6F89010214806F0CC
:103FF00081F80221244805F097FD1E4806F02AF8B2
:104000001E21224805F090FDD6F89810194806F0B8
:1040100071F803211E4805F087FD164806F01AF8CE
:104020001E211C4805F080FDD6F89410114806F0BA
:1040300061F8104806F00EF81D21174805F074FDD0
:10404000D6F8A0100B4806F055F80A4806F002F81A
:104050001E21124805F068FDD6F8A410054806F0A8
:1040600049F8044805F0F6FF052323607BE500BF0F
:104070008C94FF1FD087FF1F3493FF1FE094FF1F16
:10408000F4190100181A010004190100301A010086
:1040900028160100501A0100701A0100901A010040
:1040A00005F018FD002840F3A082B248B24E06F099
:1040B00065F908F02FFBB14908F080FB0346024682
:1040C00096F84010AE487364D4E405F0C7FC05F0E0
:1040D00001FD05460028F8D1A648A74E05F0BAFF15
:1040E000A44805F0B7FFA34805F0B4FFA14805F0C8
:1040F000B1FFA04805F0AEFF1F21A24805F014FD56
:104100009C4805F0A7FF1C219F4805F00DFD706A33
:104110009E4908F053FB07F0A7FE009502460B46A8
:10412000944805F0F1FF0221994805F0FDFC914803
:1041300005F090FF2321974805F0F6FCF06B9349BA
:1041400008F03CFB07F090FE009502460B468948BC
:1041500005F0DAFF02218E4805F0E6FC854805F0FF
:1041600079FF19218C4805F0DFFCB06B07F07CFE6D
:1041700002250B46024600957E4805F0C5FF2946FC
:10418000864805F0D1FC7B4805F064FF192184487E
:1041900005F0CAFCB6F8B410764805F0ABFF032171
:1041A000804805F0C1FC734805F054FF07232360E5
:1041B000D9E405F053FC05F08DFC05460028F8D144
:1041C0006C486D4E05F046FF6A4805F043FF6948AC
:1041D00005F040FF674805F03DFF664805F03AFFEF
:1041E0001521714805F0A0FC624805F033FF182145
:1041F0006E4805F099FC2B460A2296F840105D485F
:1042000005F038FF5B4805F025FF2821684805F0D8
:104210008BFC706C5D4908F0D1FA07F025FE009523
:104220000B460246534805F06FFF0221584805F03F
:104230007BFC504805F00EFF13215E4805F074FC2E
:104240004C4805F007FF082323608CE405F006FCCA
:1042500005F040FC05460028F8D14648464E05F0DA
:10426000F9FE444805F0F6FE424805F0F3FE4148E9
:1042700005F0F0FE3F4805F0EDFE11214E4805F037
:1042800053FC3C4805F0E6FE28214C4805F04CFC68
:1042900070693E4908F092FA07F0E6FD0095024683
:1042A0000B46344805F030FF0221394805F03CFC4C
:1042B000304805F0CFFE1621414805F035FCF06985
:1042C000324908F07BFA07F0CFFD00950B46024615
:1042D000284805F019FF02212D4805F025FC254846
:1042E00005F0B8FED6F8AC30002B32DD1D21354884
:1042F00005F01AFCF06D08F00DFA334908F05EFA8B
:1043000007F0B2FD022502460B460095194805F05C
:10431000FBFE01212D4805F007FC164805F09AFE2A
:104320001F212B4805F000FC306E08F0F3F92649F8
:1043300008F044FA07F098FD009502460B460D4838
:1043400005F0E2FE0121214805F0EEFB094805F0E9
:1043500081FE11211F4805F0E7FBD6F8AC30052B94
:1043600000F26086DFE813F095069A065A06A90661
:10437000A4069F06D087FF1F3493FF1F6F12833A56
:10438000E094FF1F501901007019010000007A44E9
:10439000DC17010090190100B4190100D0190100C7
:1043A000D4190100F0190100442001009417010004
:1043B000B0170100E0170100E81F0100F417010029
:1043C0002018010038180100CDCCCC3DD41C0100D0
:1043D000581801007818010005F040FB05F07AFB41
:1043E0000028F9D1BF48C04E05F034FEBD4805F0A5
:1043F00031FEBC4805F02EFEBA4805F02BFEB94848
:1044000005F028FE1F21B94805F08EFBB54805F0E0
:1044100021FE1E21B64805F087FBB24805F01AFEC2
:104420001A21B44805F080FBF36F022B00F03787A8
:10443000032B00F02B87012B00F03A870921AE48AF
:1044400005F072FBA74805F005FE1421AB48A64F06
:1044500005F06AFBB16FA34805F04CFEA14805F0DA
:10446000F9FD1C21A64805F05FFBD6F880109D4899
:1044700005F040FE9B4805F0EDFD1C21A14805F02C
:1044800053FBD6F8A810974805F034FE954805F080
:10449000E1FDF56F25F00205012D00F0B186132135
:1044A000994805F041FB8F4805F0D4FD02232360B5
:1044B000FFF759BB05F0D2FA05F00CFB0028F9D143
:1044C000884805F0C7FD874805F0C4FD854805F01C
:1044D000C1FD844805F0BEFD824805F0BBFD1321F7
:1044E0008A4805F021FB7F4805F0B4FD0D2188487E
:1044F00005F01AFB7B4805F0ADFD0F21854805F05E
:1045000013FB854B7748196805F0F4FD754805F0F5
:10451000A1FD1321814805F007FB814B7148196803
:1045200005F0E8FD6F4805F095FD12217D4805F086
:10453000FBFA7D4B6B48196805F0DCFD694805F016
:1045400089FD1121794805F0EFFA794B6548196822
:1045500005F0D0FD634805F07DFD0E21754805F09E
:10456000E3FA614B5F48D3F89C1005F0C3FD5D484A
:1045700005F070FD1921704805F0D6FA6F4B5948C7
:10458000196805F0B7FD574805F064FD11216C4826
:1045900005F0CAFA6B4B5348196805F0ABFD51485A
:1045A00005F058FD1021684805F0BEFA674B4D48EC
:1045B000196805F09FFD4B4805F04CFD1C2164482F
:1045C00005F0B2FA634B4748196805F093FD45487A
:1045D00005F040FD13214C4805F0A6FA414805F0CE
:1045E00039FD04232360FFF7BEBA23682868FFF76C
:1045F00093B93D4E96F84000FFF733BA05F06AFADA
:1046000000287FF76BAB3748374E05F0B7FE08F050
:1046100081F8514908F086F9652301227061226012
:104620002B601846FFF79AB905F054FA00287FF777
:1046300055AB2C482C4E05F0A1FE08F06BF846490E
:1046400008F070F965230122F06122602B601846A2
:10465000FFF784B905F03EFA00287FF73FAB214809
:10466000214E05F08BFE00EB800043000122652007
:10467000F36522602860FFF771B905F02BFA002876
:104680007FF72CAB1748184E05F078FE00EB800042
:10469000430001226520336622602860FFF75EB97F
:1046A000114AD2F8AC300133052BC8BF0023C2F841
:1046B000AC300123652023602860FFF74FB905F077
:1046C00009FA00287FF70AAB0648074E05F056FEA8
:1046D00065230122C6F8B00022602B601846FFF760
:1046E0003DB900BFD087FF1F3493FF1F941B01000B
:1046F000B41B0100D41B01004C1C0100581C01001C
:10470000701C0100901C0100E0170100B01A0100AC
:10471000C41A0100D41A01006C94FF1FE41A0100AE
:10472000D894FF1FF81A0100BC94FF1F0C1B010056
:10473000C094FF1F201B0100301B01009094FF1F3D
:104740004C1B01008C94FF1F601B01007092FF1F27
:10475000741B01005C87FF1F00007A447A4B93F8BA
:10476000BC20002A00F03F85002283F8BC20A0E78F
:10477000FEF794FE23682868FFF7CBB8724AD36F20
:104780000133032BC8BF0023D367012363202360B9
:104790002860FFF7E3B86C4EB36FB3FA83F35B099D
:1047A00001226320B36722602860FFF7D7B8664E06
:1047B000D6F88030B3FA83F35B0901226320C6F890
:1047C000803022602860FFF7C9B80123236005F01C
:1047D00081F90028D9DD5D485B4E05F0CFFDC6F8B4
:1047E000A800D2E70123236005F074F9002807DD53
:1047F0005648554E05F0C2FD07F08CFFC6F88C00F8
:10480000632028602368FFF787B80123236005F041
:1048100061F90028F4DD4D484B4E05F0AFFD07F07F
:1048200079FFC6F88800EBE70123236005F052F911
:104830000028E5DD4548444E05F0A0FDA6F8B60089
:10484000DEE7434A1368B3FA83F35B09012164206E
:10485000136021602860FFF781B83E4AF2E73E4AC4
:104860003E4F1368002B0CBF012300234FF00100C3
:104870001360206040F0F484034664222A606420C0
:10488000FFF747B8364ADDE7012336482360FCF7D7
:104890007BFE354A23681060EFE7344AD2E7344A9A
:1048A000D0E70123236005F015F9002800F3A08468
:1048B000304B1A68042AC4BF02221A6064232B609A
:1048C0002368DCE7204ED6F89C30B3FA83F35B090B
:1048D00001226420C6F89C3022602860FFF73EB8B1
:1048E00005F0F8F800280DDD1848174E05F046FDD4
:1048F00007F010FF204908F015F80122622330620A
:1049000022602B6005F0E6F800280EDD0F480E4E01
:1049100005F034FD07F0FEFE174908F003F8012208
:104920006223C6F8B80022602B6005F0D3F8002897
:1049300040F3D1830548044E05F020FD0122622397
:10494000B06622602B601BE03493FF1FD087FF1FEF
:104950006C94FF1FD894FF1FBC94FF1F8892FF1F09
:10496000C094FF1FE094FF1F9094FF1F8C94FF1FC3
:104970007092FF1F5C87FF1F00007A4405F06EF8FD
:1049800005F0A8F805460028F8D1C24805F062FBFA
:10499000C04805F05FFBBF4805F05CFBBD4805F073
:1049A00059FBBC4805F056FB1521BB4805F0BCF887
:1049B000B84805F04FFB1421B84805F0B5F8B548E4
:1049C00005F048FB1B21B64805F0AEF8B14805F0EC
:1049D00041FB1321B34805F0A7F8AE4805F03AFBB8
:1049E000AC4805F037FBAB4805F034FB2021AE485E
:1049F00005F09AF8F068AD4907F0E0FE07F034FAE8
:104A0000009502460B46A34805F07EFB0221A8480C
:104A100005F08AF80221A74805F086F89D4805F0C0
:104A200019FB2121A44805F07FF830699F4907F060
:104A3000C5FE07F019FA009502460B46954805F0A9
:104A400063FB02219A4805F06FF80221994805F0AE
:104A50006BF8904805F0FEFA1F21984805F064F8BD
:104A6000B06A07F001FA022702460B460097894810
:104A700005F04AFB0121924805F056F839468D4869
:104A800005F052F8834805F0E5FA20218D4805F03D
:104A90004BF8F06A07F0E8F9009702460B467D48AC
:104AA00005F032FB0121864805F03EF83946814881
:104AB00005F03AF8774805F0CDFA2321824805F051
:104AC00033F8B06C794907F079FE07F0CDF900951D
:104AD00002460B466F4805F017FB3946744805F04F
:104AE00023F83946734805F01FF86A4805F0B2FA12
:104AF0001F21764805F018F8F06C6C4907F05EFE4F
:104B000007F0B2F9009502460B46624805F0FCFA40
:104B10003946674805F008F83946664805F004F854
:104B20005C4805F097FA1921694804F0FDFFB16D62
:104B3000584805F0DFFA3946664804F0F5FF394673
:104B40005C4804F0F1FF534805F084FA18216248EC
:104B500004F0EAFF706E07F0DDFD604907F02EFEFD
:104B600007F082F9009702460B464A4805F0CCFA56
:104B700001215B4804F0D8FF39464E4804F0D4FFC9
:104B8000444805F067FA2B21564804F0CDFFB06980
:104B9000464907F013FE07F067F9009502460B46F9
:104BA0003C4805F0B1FA3946414804F0BDFF3946AA
:104BB000404804F0B9FF374805F04CFA1F214A4835
:104BC00004F0B2FF716D334805F094FA3946394864
:104BD00004F0AAFF2F4805F03DFA2021434804F0D5
:104BE000A3FF316D2B4805F085FA3946314804F0B2
:104BF0009BFF284805F02EFA10213D4804F094FF51
:104C0000B16E244805F076FA3946294804F08CFF45
:104C10003946284804F088FF1E4805F01BFA132186
:104C2000344804F081FFF16E1A4805F063FA01215F
:104C3000314804F079FF39461E4804F075FF1548E5
:104C400005F008FA10212D4804F06EFF316F11486D
:104C500005F050FA3946164804F066FF3946154803
:104C600004F062FF0B4805F0F5F91421244804F024
:104C70005BFF716F074805F03DFA01211E4804F003
:104C800053FF39460B4804F04FFF024805F0E2F9A4
:104C9000162137E0D087FF1F1C1D0100341D0100C5
:104CA0004C1D0100E0170100681D010000007A445E
:104CB000DC170100002101008C1D0100B01D010066
:104CC00050130100D01D0100F41D0100181E010049
:104CD000381E0100541E0100581E0100CDCCCC3DF1
:104CE000D41C0100741E0100A01E0100C01E0100A2
:104CF000E41E0100F81E01000C1F0100101F01003E
:104D0000241F0100BA4804F00FFF306AB94907F0C8
:104D100055FD07F0A9F8009502460B46B64805F088
:104D2000F3F93946B54804F0FFFE3946B44804F0BB
:104D3000FBFEB14805F08EF92421B24804F0F4FEE0
:104D4000D6F8B800AB4907F039FD07F08DF80095AB
:104D50000B460246A84805F0D7F93946A74804F0A3
:104D6000E3FE3946A64804F0DFFEA34805F072F9D9
:104D7000A14805F06FF903232360FEF7F4BE04F0A9
:104D8000A9FE002840F3A7819B489F4E05F0F6FA44
:104D900007F0C0FC974907F0C5FD0122622330618E
:104DA00022602B60ECE504F095FE002840F393812F
:104DB0009148954E05F0E2FA07F0ACFC012262231F
:104DC000B06222602B60DBE504F084FE002840F333
:104DD000828189488C4E05F0D1FA07F09BFC0122B4
:104DE0006223F06222602B60CAE504F073FE0028A3
:104DF00040F371818048844E05F0C0FA07F08AFCC8
:104E00007C4907F08FFD01226223B06422602B6091
:104E1000B6E504F05FFE002840F35D8176487A4EE7
:104E200005F0ACFA01226223306522602B60A7E511
:104E30000022732322602B60FEF734BE734B704850
:104E4000714E002202211A6004F06EFE6A4805F0DD
:104E500001F90B216E4804F067FE0221684804F056
:104E600063FE654805F0F6F80122622322602B609C
:104E700086E504F02FFE002840F32D815E48624E47
:104E800005F07CFA01226223706722602B6077E5CF
:104E9000FCF786FF02215A485B4E04F045FE564857
:104EA00005F0D8F80221564804F03EFE524805F0BD
:104EB000D1F80221524804F037FE4F4805F0CAF8F5
:104EC0001721544804F030FE4B4805F0C3F8C4E7FE
:104ED00004F000FE002840F3FE8047484A4E05F0EB
:104EE0004DFA07F017FC434907F01CFD012262232D
:104EF000F06022602B6043E504F0ECFD002840F3F5
:104F0000EA803D48404E05F039FA07F003FC394984
:104F100007F008FD01226223F06422602B602FE578
:104F200004F0D8FD002840F3D6803348364E05F013
:104F300025FA01226223B06522602B6020E504F08F
:104F4000C9FD002840F3C7802B482F4E05F016FA04
:104F500000EB8000430001216222736621602A6019
:104F60000EE504F0B7FD002840F3B5802248264E38
:104F700005F004FA07F0CEFB1E4907F0D3FC01222E
:104F80006223B06122602B60FAE404F0A3FD0028E4
:104F900040F3A18018481C4E05F0F0F9012262236D
:104FA000F06622602B60EBE404F094FD002840F3EF
:104FB00092801148144E05F0E1F901226223306716
:104FC00022602B60DCE404F079F8C02200210E4856
:104FD00002F0DAFE2868104AA0F1730001210023D4
:104FE000B0FA80F0400911602360FEF759BD00BFA0
:104FF0003C1F010000007A44D087FF1FDC1701002E
:1050000000210100541F01003493FF1F6492FF1F11
:1050100088170100701701003887FF1F0C21BB485B
:1050200004F082FDBA48BB4D05F014F8D6F8AC3058
:10503000002B12DD1821B84804F076FDD5F8B01029
:10504000B34805F057F80221B44804F06DFDB048AC
:1050500005F000F8AE4804F0FDFF1B21B04804F055
:1050600063FD96F8BC30012B15BF12211421AD4809
:10507000AD4804F059FDA64804F0ECFF1321AB48FD
:1050800004F052FDA24804F0E5FF06232360FEF77A
:105090006ABD0D21A64804F047FDC3E70C21A548D1
:1050A00004F042FDBEE70B21A34804F03DFDB9E743
:1050B0000D21A24804F038FDB4E70D21A04804F00A
:1050C00033FDAFE72368002B08BF73280CBF012016
:1050D0000020FEF7E5BC23682868012B7EF4DAACDB
:1050E000FEF73CBC04F0F6FC00287EF767AD88486C
:1050F000884E05F043F961230122A6F8B40022602E
:105100002B601846FEF72ABC04F0E4FC00287EF76A
:1051100055AD7F487F4E05F031F907F0FBFA61236A
:105120000122B06322602B601846FEF717BC04F022
:10513000D1FC00287EF742AD7548764E05F01EF989
:1051400007F0E8FA7F4907F039FB6123012270621A
:1051500022602B601846FEF701BC04F0BBFC00285F
:105160007EF7D4AD6A486B4E05F008F901226B2337
:10517000C6F8900022602B60FEF718BF04F0AAFC6E
:1051800000287EF7C3AD6248624E05F0F7F80122B1
:105190006B23C6F8940022602B60FEF707BF04F073
:1051A00099FC00287EF7B2AD59485A4E05F0E6F852
:1051B000654BC6F8A00002221A60FDF739F90122FA
:1051C0006B2322602B60FEF7F1BE04F083FC002805
:1051D0007EF79CAD4E484F4E05F0D0F85A4BC6F8BE
:1051E000A4000322E8E7012283F8BC20FFF761BA9C
:1051F000474805F0C3F8554B02461860FFF75ABB05
:105200001C21534804F090FCD7F88C00514907F05A
:10521000D5FA06F029FE009502460B463C4804F0FC
:1052200073FF05214C4804F07FFC394804F012FF5D
:10523000FD6F012D45D0032D7FF431A91C21474876
:1052400004F072FCB6F8B610314804F053FF0321A5
:10525000434804F069FC2E4804F0FCFEFFF71FB938
:10526000404B002631460B201E6003F059F83146B2
:105270000C2003F055F83146142003F051F8314664
:10528000152003F04DF83B68FFF7F7BA20213648A8
:1052900004F04AFC1E4804F0DDFEFFF7D6B81721E3
:1052A000324804F041FC1A4804F0D4FEFFF7CDB8B0
:1052B0001E212F4804F038FC154804F0CBFEFFF700
:1052C000C4B81D212B4804F02FFCD7F888002149D1
:1052D00007F074FA06F0C8FD00950B4602460C482C
:1052E00004F012FF05211C4804F01EFC084804F0DD
:1052F000B1FEFB6F23F00203012B9FD0FFF7CFB865
:10530000044EFFF73DBB034EFEF750BEAC18010044
:10531000D087FF1F3493FF1FE81801000419010014
:10532000081901002419010038190100E0170100D3
:105330008C1801009C180100DC180100CC18010039
:10534000BC1801006F12833A8C94FF1F5C87FF1F0B
:10535000B01C0100CDCCCC3DD01C0100F81C0100DC
:10536000181D0100D494FF1F101C0100341C010003
:10537000F01B0100D81C010038B5164C164A2368F2
:10538000101D12F8011F904241EA0323F9D1236056
:10539000124C03F100432360114BDB6F022B11D041
:1053A000104B1B68012B00D038BD0F4804F052FE93
:1053B00021680D4804F09EFE03210C48BDE83840EA
:1053C00004F0B2BB20680A4D07F0A4F92860FDF78D
:1053D000C7FAE5E74C92FF1F8394FF1FA094FF1FBD
:1053E0003493FF1F6C94FF1FD087FF1F9020010094
:1053F0006892FF1F30B53F4C3F4883B0214601F013
:10540000E1FC236840F2C232934258D06FF4C0618D
:105410005A18B2F5FF7F4CD903F100436FF4C06214
:105420001344B3F5FF7F3FD9344B1B68012B01D0E8
:1054300003B030BD324B1B68012BF9D1314B3248E0
:105440001B6801930A220023019904F013FE2268CD
:10545000284B002ADB7945DB2C492D4808F08CF9D4
:105460002B4808F0CDF90146294804F05DFB25687A
:10547000204B15F0804526D1DB798BB16319254986
:105480001A7A234808F078F9214808F0B9F901465A
:105490001F4804F049FB0135E379EDB2AB42EDD88A
:1054A000194804F0D7FDC3E712491B48FCF78AF8F6
:1054B000BAE710491848FCF785F82368ACE7FFF70E
:1054C0005BFF2368A2E7154D114C0FCD0FC495E883
:1054D000030044F8040B204620F81419152104F0A9
:1054E00023FBDDE70E490A4822F0604208F044F948
:1054F000B6E700BF7C94FF1F74C1FF1F3887FF1FF2
:105500006C94FF1F1CC3FF1FD087FF1FBC2001002E
:105510008C92FF1FE8200100E094FF1FD0200100C3
:10552000942001002DE9F84F9A4B9B4C1B78052BDA
:1055300008D09A48FCF7B0F9E16A07F0DDFA0028D4
:1055400000F09380964E974D002333602B60964B6E
:1055500092481B68904F012B45D0FCF757F9E16941
:105560008046606907F020F80146404607F0E2FAFD
:1055700000284CD18948FCF749F9E16807F0DAFACC
:1055800008B100232B608548834FFCF719F9216986
:1055900007F0B2FA58B1002333602B68814A002B20
:1055A00001DBBDE8F88F00231360BDE8F88F7B486E
:1055B000FCF706F9B96907F09FFA0028EBD17748A4
:1055C000FCF7FEF8D7F8B8100446B86906F0EEFF0D
:1055D0000146204607F0AEFA002873D0786E30609E
:1055E0000028D8DBD9E7FCF711F9E1698046206A89
:1055F00006F0DAFF0146404607F09CFA0028B9D0D1
:105600006648FCF703F9D7F82090834605E0634825
:10561000FCF7FCF8D7F814908346F969484606F081
:10562000C3FF8246F86D07F075F88046386E07F0C4
:1056300071F8414606F0B8FF51460746584606F055
:10564000B3FF0146384607F0B9F8514607464846C9
:1056500006F0AAFF0146384607F064F9414606F015
:10566000A5FF07F087FA286084E74C48FCF714F997
:10567000216B07F041FA002849D0494E636E474834
:105680003360FCF709F98146E06DE76A454D07F0A4
:1056900041F839468046484606F086FF01464046B6
:1056A00007F08CF839468046206B06F07DFF0146F6
:1056B000404607F037F9002106F078FF07F05AFA64
:1056C000286044E73548FCF77BF88146F86DBC69F3
:1056D00007F020F821468046484606F065FF01465F
:1056E000404607F06BF8D7F8B8108046204606F021
:1056F0005DFF214606F058FF0146404607F012F9CB
:10570000002106F053FF07F035FA306068E72348C0
:10571000FCF7C2F8616B07F0EFF930B1204E214D74
:10572000626EE36D32602B6011E71C48FCF7B4F841
:10573000A16A07F0E1F900283FF404AF1748184EBA
:10574000184DFCF7A9F88146606ED4F8348006F055
:10575000E1FF41460746484606F026FF39468146A6
:10576000002006F021FF0146484607F027F8414691
:105770008146A06A06F018FF0146484607F0D2F8B5
:10578000394606F013FF07F0F5F9E36D30602B6042
:10579000DDE600BF9894FF1F3493FF1FE094FF1FC6
:1057A000A494FF1F5492FF1F6C92FF1F08B5274857
:1057B00004F050FC0721264804F0B6F9112002F04D
:1057C000B5FD0621F8B1234804F0AEF9122002F02D
:1057D000ADFD062100B3204804F0A6F9122002F026
:1057E000A5FD062108B31D4804F09EF9132002F020
:1057F0009DFD062110BB1A4804F096F91348BDE838
:10580000084004F027BC174804F08EF9122002F07B
:105810008DFD06210028DED1134804F085F9122001
:1058200002F084FD06210028DDD1104804F07CF947
:10583000132002F07BFD06210028DCD00C4804F088
:1058400073F90248BDE8084004F004BCD087FF1F8C
:10585000F4200100FC2001000C2101001C210100AA
:105860003421010004210100142101002421010040
:105870002C21010010B5254C2368042B27DC0121C5
:105880000B2002F04DFD01210C2002F049FD012109
:10589000142002F045FD0121152002F041FDFF21F9
:1058A000162002F0BDFBFF21172002F0B9FBFF21FB
:1058B000052002F0B5FBFF21062002F0B1FB2368B2
:1058C00001330A2B2360C4BF0023236010BD0021D5
:1058D0000B2002F025FD00210C2002F021FD00210B
:1058E000142002F01DFD0021152002F019FD0021F9
:1058F000162002F095FB0021172002F091FB0021F9
:10590000052002F08DFB0021D6E700BFB894FF1FF1
:1059100010B5092182B0974803F01CF8222002F04C
:10592000C1FF954B1B78052B0BD8DFE813F00A015C
:105930000F01140119011E01060007218F4803F011
:1059400009F8222002F0AEFFFF2002F0ABFFFF209B
:1059500002F0A8FF8A4CFF2002F0A4FF082189482A
:1059600002F0F8FF2168884804F0C4FBFF2002F031
:1059700099FFFF2002F096FFFF2002F093FF09211C
:10598000824802F0E7FF21687F4804F0B3FBFF2064
:1059900002F088FFFF2002F085FFFF2002F082FF67
:1059A0000C217B4802F0D6FF7A4B1C680021204670
:1059B00007F0C0F8002800F0C1802046764906F0C4
:1059C000B1FF06F051FA002402460B4600946E48DF
:1059D00004F09AFBFF2002F065FFFF2002F062FF57
:1059E000FF2002F05FFF09216C4802F0B3FF6C4812
:1059F000FBF752FF06F038FA009402460B46624865
:105A000004F082FBFF2002F04DFFFF2002F04AFF6E
:105A1000FF2002F047FF0C21624802F09BFF604824
:105A2000FBF798FF06F020FA009402460B46564812
:105A300004F06AFBFF2002F035FFFF2002F032FF86
:105A4000FF2002F02FFF0D21574802F083FF54483A
:105A5000FBF77EFF06F008FA009402460B464A4820
:105A600004F052FBFF2002F01DFFFF2002F01AFF9E
:105A7000FF2002F017FF09214C4802F06BFF484855
:105A8000FBF7E8FE06F0F0F9009402460B463E48AC
:105A900004F03AFBFF2002F005FFFF2002F002FFB6
:105AA000FF2002F0FFFE0C21414802F053FF3C486A
:105AB000FBF786FE384906F081FE06F0D5F9009422
:105AC00002460B46304804F01FFBFF2002F0EAFEBE
:105AD000FF2002F0E7FEFF2002F0E4FE0D21354832
