:1000000000800020BD010000D1850000898500002E
:1000100089850000898500008985000089850000A8
:10002000898500008985000089850000D185000050
:10003000D18500008985000099A600009DA70000D9
:10004000D1850000D1850000D1850000D185000058
:10005000D1850000D1850000D1850000D185000048
:10006000D1850000D1850000D1850000D185000038
:10007000D1850000D1850000D1850000D185000028
:10008000D1850000D1850000D1850000D185000018
:10009000D1850000D1850000D1850000D185000008
:1000A000D1850000D1850000D1850000D1850000F8
:1000B000D1850000397A0000457A0000497A0000B5
:1000C000557A0000597A00005D7A0000D185000061
:1000D000D1850000D1850000D1850000D1850000C8
:1000E000D1850000D1850000D1850000D1850000B8
:1000F000D1850000ADAE0000D185000071920000F6
:10010000D18500003D940000D1850000D18500001C
:10011000D1850000D1850000D1850000D185000087
:10012000D1850000D1850000D1850000D185000077
:10013000D1850000D1850000D1850000D185000067
:10014000D1850000D1850000D1850000D185000057
:10015000D1850000D1850000D1850000D185000047
:10016000D1850000CD960000D1850000D18500002A
:10017000D1850000D1850000D1850000D185000027
:10018000D1850000D1850000D1850000D185000017
:10019000D1850000D1850000D1850000D185000007
:1001A000D1850000D1850000D1850000D1850000F7
:1001B000D1850000D1850000D1850000564B4CF25E
:1001C000205210B51A804DF628121A8000BF00BFC9
:1001D00008F002FA514B4FF010621A60504A9A60D0
:1001E000504ADA60504A136813F4807304D14F49BF
:1001F0000B604FF4A85313604D4B1A78110703D5C9
:100200001A7842F008021A704A4B4B492A221A7097
:100210004A4A4B4B8B4204D252F8040F43F8040B6A
:10022000F8E7484B484900228B4202D243F8042B9E
:10023000FAE74649464A002352F8230041F82300D2
:1002400001336F2BF8D1434B434A802103F8011B44
:100250009342FBD1414B3D4A1A60414B8A221A70AE
:10026000A3F5805324225A70A0221A709A7992071B
:10027000FCD59A79D406FCD43A4A937903F00C035E
:10028000082B384BF9D103221A7140225A719A79FE
:100290009006FCD5334A9179324B4906FBD5324A58
:1002A000324911600221516020221A709A7902F0BD
:1002B0000C020C2AFAD12E4B2E4A1A602E4B2F4AD2
:1002C0001A6000225A60072243F8042C2C4AC3F813
:1002D0000C2D62B608F036FC144B1B68DA0705D506
:1002E000284808F013FA284B284A1A60284B1B7834
:1002F0005B0609D5244C254B22689A4204D121483B
:1003000008F004FA002323600CF0B4F808F06AF94E
:100310000AF08CFCFEE700BF0E2005403080044050
:10032000823F04000100002B10D0034014D0034092
:1003300002D0074000E007402892FF1FC4210100BF
:100340002087FF1F2892FF1FB4C8FF1F0082FF1FD6
:100350000000000000E400E05FE400E008ED00E0E1
:100360000050064000400640448004400000030165
:1003700004800440C010050014E000E0FF76010096
:10038000000020209EE327601CE00340A5C3945A90
:1003900000F00740FFFFFFFFFFFFFFFFFFFFFFFF32
:1003A000FFFFFFFFFFFFFFFFFFFFFFFFFFFFFFFF5D
:1003B000FFFFFFFFFFFFFFFFFFFFFFFFFFFFFFFF4D
:1003C000FFFFFFFFFFFFFFFFFFFFFFFFFFFFFFFF3D
:1003D000FFFFFFFFFFFFFFFFFFFFFFFFFFFFFFFF2D
:1003E000FFFFFFFFFFFFFFFFFFFFFFFFFFFFFFFF1D
:1003F000FFFFFFFFFFFFFFFFFFFFFFFFFFFFFFFF0D
:10040000FFFFFFFFFFFFFFFFFFFFFFFFDEF9FFFF23
:1004100010B5054C237833B9044B13B10448AFF33E
:1004200000800123237010BD2892FF1F00000000F0
:10043000C0210100084B10B51BB108490848AFF3B3
:1004400000800848036803B910BD074B002BFBD0A0
:10045000BDE81040184700BF000000002C92FF1FAD
:10046000C02101002892FF1F00000000F0B400F13D
:100470001C06174F00243146031F00F13C0243F8CD
:10048000044FB34241F8047F4FF0000542F8044F97
:10049000F5D100230F4A104E104C114905664566F0
:1004A0008566C566056745678567C0F88850C0F8EA
:1004B0008060C0F89040C267C0F8842080F898300F
:1004C00080F8993080F8B030C0F89410F0BC7047D4
:1004D0000000A040000048430000C8C26666064015
:1004E000000048C290F8A000704700BF90F89C0040
:1004F000704700BF90F8A400704700BF90F8A800B4
:10050000704700BF082994BF50F8210000207047B1
:1005100090F8B800704700BF2DE9F0410B4E8046BF
:10052000041F00F11C0754F8045F314628460BF005
:100530002DFF30B1D8F88C1028460BF045FF00B1E4
:100540002E46BC42EFD13046BDE8F081000020418C
:100550002DE9F041D0F88C704FF00008041F00F135
:100560001C0654F8045F394628460BF02DFF084955
:1005700048B128460BF00AFF414620B128460BF04F
:1005800023FF00B1A846B442EBD14046BDE8F0815C
:10059000000070422DE9F047D0F88C7082464FF091
:1005A0000009041F00F11C064FF0000854F8045F16
:1005B000394628460BF008FF0C4950B128460BF08D
:1005C000E5FE30B1484629460BF03AFC08F1010837
:1005D0008146B442EAD1CAF8B48040460BF0E4FC4C
:1005E000014648460BF0E8FDBDE8F0870000704288
:1005F000D0F8B400704700BF38B5846E456E214610
:1006000028460BF0C3FE00B92C46204638BD00BF7B
:10061000D0F8AC302DE9F041002B79D1866E456ED3
:100620000446314628460BF00BFCE76E39468046FF
:100630000BF006FC7E490BF0BFFD4FF07C510446E9
:100640000BF0C2FE002861D04FF07C5128460BF021
:10065000BBFE4FF07C51002860D128460BF096FE7F
:1006600038B14FF07C5130460BF0AEFE002840F020
:10067000A7804FF07C5128460BF0A6FE002860D1E1
:100680004FF07C5128460BF09FFE002840F0A180DF
:100690004FF07C5128460BF097FE00286CD14FF0AC
:1006A0007C5128460BF072FE4FF07C5110B330465F
:1006B0000BF08AFE38B14FF07C5138460BF066FEE5
:1006C000002840F0B0804FF07C5130460BF05EFEC9
:1006D000002861D04FF07C5138460BF075FE0028A1
:1006E00040F0A38038464FF07C510BF04FFE68B1CC
:1006F000504C10E028460BF049FE0028E3D1284674
:100700004FF07C510BF042FE002845D1BDE8F0814E
:1007100000EB8300046E2046BDE8F08130460BF00C
:1007200053FE4FF07C5100283ED038460BF04CFE73
:100730000028F0D14FF07C5128460BF027FE00280E
:1007400059D14FF07C5130460BF020FE002840D0AC
:100750004FF07C5138460BF037FE002841D14FF066
:100760007C5130460BF030FE68B14FF07C5138467A
:100770000BF00CFE00284FD14FF07C5130460BF0AF
:1007800005FE00288BD04FF07C5138460BF0FEFD63
:10079000002884D02C46BEE730464FF07C510BF049
:1007A000F5FD0028B2D09DE728460BF0EFFD0028AC
:1007B000C7D04FF07C5130460BF006FE0028C0D069
:1007C0004FF07C5138460BF0FFFD00283FF451AF4D
:1007D00018E04FF07C5130460BF0F6FD0028CBD0EE
:1007E000C3E7394628460BF02BFB4FF07C510BF04A
:1007F0002FFC04468FE74FF07C5138460BF0E4FDA8
:1008000000289ED0394630460BF01AFB4FF07C5141
:100810000BF01EFC04467EE740464FF07C510BF087
:1008200017FC044677E7344675E73C4673E700BF9C
:10083000000040400000A0C270B50446FFF7E8FE8B
:100840004FF07C510BF0C0FD28B3666E4FF07C5129
:1008500030460BF0B9FDA56EF0B9E46E4FF07C5157
:1008600028460BF0B1FD58B1294630460BF0ACFDDF
:1008700030B1214628460BF089FD08B12C4620E016
:100880004FF07C5120460BF09FFD20B128462146B9
:100890000BF09AFD78B970BD304629460BF076FD15
:1008A000E46E0028DAD0304621460BF06FFD0028B8
:1008B000D4D0344605E0304621460BF085FD0028B3
:1008C000E9D0204670BD00BF01392DE9F8438046CC
:1008D0001546032900F21481DFE801F0D29B64027F
:1008E000537B107BD8F8904003EB00200BF05CFBAF
:1008F00085490BF0ADFB21460BF0A2FAC8F81800B1
:10090000EB7BA87B03EB00200BF04EFB7E490BF04A
:100910009FFB21460BF094FAD8F86860D8F8647011
:10092000D8F80040C8F81C004046FFF785FFD8F80B
:100930007C1005460BF02AFD08B1C8F87C503946FA
:1009400030460BF041FD002840F0D1803946D8F800
:1009500080000BF01BFD10B13E46C8F8806008F126
:100960002006C14608F14005002701E059F8044F70
:10097000306821460BF028FD0137214628B1D8F810
:100980008C000BF00DFD00B13460214628680BF09F
:10099000FDFC043600B12C60082F05F10405E5D1FB
:1009A000BDE8F883D0F89440507A0BF0FDFA214668
:1009B0000BF046FAC8F87400A87A0BF0F5FA214655
:1009C0000BF03EFAC8F878006B7B287BD8F8904093
:1009D00003EB00200BF0E8FA4B490BF039FB214602
:1009E0000BF02EFAC8F81000EB7BA87B03EB00207D
:1009F0000BF0DAFA44490BF02BFB21460BF020FAFE
:100A0000D8F86860C8F81400D8F86470D8F80040C6
:100A10008AE7D0F89440507A0BF0C6FA21460BF0E2
:100A20000FFAC8F86C00A87A0BF0BEFA21460BF05A
:100A300007FAC8F870006B7B287BD8F8904003EB6E
:100A400000200BF0B1FA30490BF002FB21460BF00D
:100A5000F7F9C8F80800EB7BA87B03EB00200BF04C
:100A6000A3FA29490BF0F4FA21460BF0E9F9D8F87A
:100A70006860C8F80C00D8F86470D8F8004053E7F4
:100A8000137AC0F8B830D8F89440907A0BF08CFA0A
:100A900021460BF0D5F9C8F864000746E87A0BF058
:100AA00083FA21460BF0CCF9C8F868006B7BD8F8C4
:100AB00090900646287B03EB00200BF075FA124954
:100AC0000BF0C6FA49460BF0BBF9C8F80000EB7B07
:100AD0000446A87B03EB00200BF066FA0A490BF0F2
:100AE000B7FA49460BF0ACF9C8F804001CE7D8F88F
:100AF000801030460BF068FC00287FF42EAF2EE704
:100B0000866E476E04680FE70AD7233C2DE9F84349
:100B10000026D0F88C8006668146044600F1200746
:100B200054F8045B414628460BF04EFC084950B18E
:100B300028460BF02BFC30B1304629460BF080F9EB
:100B40000646C9F86000BC42EAD13046BDE8F883E9
:100B50000000704205299ABF00EB8100406E002022
:100B6000704700BF3E2998BF80F8B010704700BFA3
:100B700090F89800704700BFC0F8AC10704700BFF5
:100B800080F89810704700BFC0F88C10704700BF05
:100B9000C0F89410C0F89020704700BF70B500F501
:100BA000395506462C3500F128042046BC34FFF7A1
:100BB0005DFCAC42F9D106F1E40501242846002190
:100BC000FFF7DEFF214628460134FFF7CBFF3F2C1D
:100BD00005F1BC05F2D142F6746400250548064AC9
:100BE000064B3555002130617161B261F3613046C9
:100BF00070BD00BF00007A44000048430000C8C236
:100C0000012070472DE9F04142F6786300F539562E
:100C1000374600228046C2502C36383700F1E404B3
:100C200002E0BC34B4420DD02046FFF7A1FF0028FB
:100C3000F7D020463D68FFF7DBFCBC342844B442C3
:100C40003860F1D142F6786358F80300BDE8F081CE
:100C500070B50D6805F47F63A3F5C063BC241B0960
:100C600004FB030000F128040E4620460121FFF793
:100C700087FF3246204605F00F01BDE87040FFF7C0
:100C800023BE00BF2DE9F0430446002383B006468F
:100C900044F8E43B012504E001353F2D04F1BC0498
:100CA00066D02046FFF764FF0028F5D04E4806F0D6
:100CB00043F929464D4806F03FF92046FFF726FF45
:100CC0000AF01CFD02460B46494806F035F920465D
:100CD000FFF722FC80462046FFF73AFC07464046D5
:100CE0000AF00CFD8046384689460AF007FD424668
:100CF0004B46CDE900013F4806F01EF90021204691
:100D0000FFF728FF012180462046FFF723FF074613
:100D100040460AF0F3FC8046384689460AF0EEFC6D
:100D200042464B46CDE90001334806F005F920461E
:100D3000FFF7ECFE014630680BF082F83060204689
:100D4000FFF77AFDB1690BF021FB002833D1204673
:100D5000FFF752FCF1690BF037FB00289CD02046CE
:100D6000FFF74AFC01353F2DF06104F1BC0498D136
:100D700070680BF019F9014630680BF01DFA7169C3
:100D8000306004460BF020FB00B1746131692046ED
:100D90000BF0FCFA00B134610B2007F04FFE42F675
:100DA0007463F35C60B99BB142F674630122F25440
:100DB00003B0BDE8F0832046FFF73EFDB061C6E713
:100DC00053B942F674630022F25403B0BDE8F083D5
:100DD0000A4806F0DFF8E7E7094806F0C5F842F6EA
:100DE00074630022F254F0E7980D01001806010028
:100DF000540601006806010094060100B0060100D7
:100E0000E806010070B5114B836000F539550646C0
:100E10002C3500F1E40402E0BC34AC4213D020468F
:100E2000FFF7A6FE0028F7D02046FFF775FBB16854
:100E30000BF0ACFA0028EFD02046FFF76DFBBC3476
:100E4000AC42B060EBD1B06870BD00BF0000A04004
:100E500070B5002300F539550646C3602C3500F106
:100E6000E40402E0BC34AC4213D02046FFF780FE1D
:100E70000028F7D02046FFF76BFBF1680BF0A4FACF
:100E80000028EFD02046FFF763FBBC34AC42F06093
:100E9000EBD1F06870BD00BF0068704741607047DB
:100EA0002DE9F843044642F67C6500F53A501F46AA
:100EB000016062511846884616460BF08FFA42F6DA
:100EC000886304F53955E050DDF820902C35E43482
:100ED00002E0BC34AC4214D02046FFF749FE0028A3
:100EE000F7D020464146FFF747FE20463146FFF740
:100EF0004BFE20464A463946BC34FFF749FEAC4219
:100F0000EAD1064809F0FAFC1121054809F05EFA19
:100F10000248BDE8F84309F0F1BC00BFC887FF1FD5
:100F2000100701002DE9F84342F6706300F53955CA
:100F30000027C7502E462A4A2A4B426280464FF06D
:100F4000000903622C35303600F1E40402E0BC34C1
:100F5000A54213D02046FFF70BFE0028F7D03368D8
:100F6000013333602046FFF753FB1F490BF02CFA87
:100F700088B9BC34A54207F10107EBD142F6706392
:100F800058F80300C01B0BF00FF8014648460BF061
:100F900013F9BDE8F8832046FFF73AFB01464846BF
:100FA0000AF04EFF81462046FFF726FBD8F82010B6
:100FB0000BF00AFA70B92046FFF73EFCD8F824106F
:100FC0000BF0E4F90028C2D02046FFF735FCC8F842
:100FD0002400BCE72046FFF70FFBC8F82000EAE733
:100FE00000C0794400C079C400008CC2006A704718
:100FF000406A7047F8B500F53955074600262C358C
:1010000000F1E40402E0BC34AC420FD02046FFF70C
:10101000AFFD0028F7D02046FFF7BCFA0146304666
:101020000AF00EFFBC34AC420646EFD142F67063C4
:10103000F8580AF0B9FF014630460BF0BDF8F8BD8C
:101040002DE9F04F91B0064694480F91934605F074
:101050001BFF924805F018FF904805F015FF42F677
:101060007063304656F80380FFF7CCFD07463068C2
:10107000D6F804900AF042FB02460B463046CDE912
:101080000C23FFF7B7FF82463046B468F568FFF7D8
:1010900049FF0AF033FBCDE90A01214628460AF050
:1010A000CDFE7F490AF0D4FF0AF028FBCDE9080104
:1010B00028460AF023FBCDE9060120460AF01EFB74
:1010C000CDE9040150460AF019FBDDE90C23CDE916
:1010D0000201CDE9002341464B463A46714805F0EE
:1010E000D3FE6E4805F0D0FE0023E43601270C93B2
:1010F00005E001373F2F06F1BC0600F0BF80304607
:10110000FFF736FD0028F4D03046FFF7EBF9304604
:10111000FFF7ECF93046FFF7EDF93046FFF7EEF94F
:101120003046FFF7F5F9082182465F4809F04EF98D
:1011300039465E4809F032FC092F40F3AA800221AB
:101140005B4809F043F93046FFF7E0FC0AF0D6FAB5
:101150009DF83C80CDF800800B460246534809F0CC
:1011600027FC0121534809F031F93B460C9C4746C6
:1011700000254FF0010998462EE006214E4809F05F
:1011800025F92146494809F009FC02214B4809F09C
:101190001DF929463046FFF7B5F90AF0AFFA009776
:1011A0000B460246414809F003FC012141480C442A
:1011B00009F00CF909FA05F3BBF1000F09D013EAA5
:1011C0000A0F4FF002013E4804BF3E48022109F0D9
:1011D000FDF80135082D06D0092CCEDC01213A4856
:1011E00009F0F4F8C9E7314809F088FB09213748CC
:1011F00009F0ECF800213046FFF7ACFC0AF07EFA6B
:10120000022402460B460094284809F0D1FB0A212B
:101210002F4809F0DBF801213046FFF79BFC0AF06C
:101220006DFA009402460B46204809F0C1FB0A21E2
:10123000284809F0CBF821463046FFF78BFC0AF02E
:101240005DFA0B460C9900940246083117480C9140
:10125000474609F0ADFBBBF1000F12D00D211E482F
:1012600009F0B4F801372246514600230F4809F02F
:1012700055FB3F2F06F1BC067FF441AF11B0BDE82E
:10128000F08F0121154809F0A1F8084809F036FB54
:101290002FE701210C4809F099F850E7980D01005B
:1012A00000007A44AC0901004C0A0100C887FF1F06
:1012B000DC190100580A01005C0A0100180C010049
:1012C000640A0100680A0100280C01006C0A010090
:1012D000780A0100840A0100900A0100A00A0100B6
:1012E0002DE9F04F85B000F1E4058A4603929B4654
:1012F0002E464FF0010806E008F10108B8F13F0F53
:1013000006F1BC067BD03046FFF732FC0028F3D054
:1013100000230A2251467D4809F000FB01217C4848
:1013200009F054F803980AF0E9F900230246009303
:1013300076480B4609F03CFB0121754809F046F858
:101340005946724809F02AFB0121714809F03EF81C
:1013500041466E4809F022FB01216D4809F036F83C
:1013600000244FF0020921463046FFF7CBF80AF07F
:10137000C5F9CDF8009002460B46644809F018FB09
:1013800001340121624809F021F8082C4FF00207CE
:10139000E9D100213046FFF7DDFB0AF0AFF90097F5
:1013A00002460B46594809F003FB0121584809F051
:1013B0000DF801213046FFF7CDFB0AF09FF90097A9
:1013C00002460B46514809F0F3FA0121504808F053
:1013D000FDFF39463046FFF7BDFB0AF08FF9009755
:1013E00002460B46494809F0E3FA08F1010847486C
:1013F00009F084FAB8F13F0F06F1BC0683D101274A
:101400004FF0000904E001373F2F05F1BC0579D00A
:101410002846FFF7ADFB0028F5D000230A225146ED
:101420003C4809F07BFA0121394807F01DFE03987A
:101430000AF064F9CDF8009002460B46354809F0F1
:10144000B7FA0121324807F00FFE5946314809F03A
:10145000A5FA01212E4807F007FE39462D4809F06C
:101460009DFA01212A4807F0FFFD00244FF00208F1
:1014700021462846FFF746F80AF040F9CDF80080EB
:1014800002460B46234809F093FA01340121204813
:1014900007F0EAFD082C4FF00206E9D100212846AA
:1014A000FFF758FB0AF02AF9009602460B46194846
:1014B00009F07EFA0121164807F0D6FD01212846E1
:1014C000FFF748FB0AF01AF9009602460B4611484E
:1014D00009F06EFA01210E4807F0C6FD3146284694
:1014E000FFF738FB0AF00AF9009602460B46094856
:1014F00009F05EFA0137074809F000FA3F2F05F1BD
:10150000BC0585D105B0BDE8F08F00BFC887FF1FBF
:10151000A40A0100B887FF1F0A4A0B49D06D936DDA
:1015200003FB00F34FF47A7000FB03F0642310B563
:101530000B600AF039FD0549054C0AF03DFE2060BC
:1015400010BD00BF50C2FF1F2C87FF1FE4388E3E26
:10155000BCC3FF1F38B5044608460D460BF070FDAE
:101560002368024629465B68204698470546204680
:1015700009F0C4F9284438BD2DE9F84349484A4EDA
:101580004A4F4B4CDFF8688105F07EFC494B4A4AD4
:101590004A494B485A6013251D704A4D4A4AD96042
:1015A0001E610021494E5F615C62494FDD624FF070
:1015B0007C540C2598619A624648474A19635E63D9
:1015C0004649474E9F639C6440F61C470A245D656C
:1015D000444DD8641A65022001221962C3F8C06024
:1015E000002164269F66DC664FF496773224DD6125
:1015F000DD631D6441F2040E5A25587058721A7248
:101600009A6583F84410DE65A3F86470A3F86070EF
:10161000A3F862404FF47A79C3F870E0DFF8D4C0E1
:101620009967D867C3F88020C3F88410C3F89C403A
:10163000C3F8A840C3F8A410C3F8B020C3F8B4009E
:10164000C3F8B86044F6206E83F8C42083F8D01045
:10165000FF2741F2883183F8DC20052640F2D6626C
:101660005D676FF03104204D2048C3F8A090C3F8A7
:101670008C80C3F890C0C3F894E0C3F8AC70A3F8B2
:10168000BE60C3F8C850C3F8CC40C3F8E000C3F84C
:101690009810A3F8BC10A3F88820A3F88A20BDE80E
:1016A000F88300BFA80A01000000404033338340A4
:1016B000CDCCCC3D50C2FF1F20A1070066668640FE
:1016C000CDCC4C40000020C10000824200002042EE
:1016D0000000A0409A9979400AD7233D33337340E4
:1016E0009A99993ECDCC4C3E6C09793B6666064092
:1016F0000000114400F0C845F0B54FF47A6085B0A1
:1017000007F0D2F90021112007F0A6F900211020DE
:1017100007F0A2F90021122007F09EF90021132002
:1017200007F09AF901210B2007F096F901210C200E
:1017300007F092F90121142007F08EF901211520FC
:1017400007F08AF90121162007F086F901211720F8
:1017500007F082F90121052007F07EF9974C984D9A
:101760000121062007F078F901210D2007F074F916
:1017700020880AF015FC0146162007F0D7F82088CB
:101780000AF00EFC0146172007F0D0F820880AF076
:1017900007FC0146052007F0C9F820880AF000FC84
:1017A00000240146062007F0C1F800942346854A2C
:1017B0008549864805F0E8FDE6B23246804983480F
:1017C00005F090FD2B797E4980486FF300030134CA
:1017D00032462B7105F07CFD082CEDD10924E6B2D0
:1017E00032467749794805F07DFD2B797449774871
:1017F00043F00103013432462B7105F069FD0D2CD5
:10180000EDD1734C23681021D3F8840006F08EFAD2
:1018100023681021D3F8840006F01CFB2368022102
:10182000D3F8840006F0D8F923680221D3F88400A5
:1018300006F060FB23680F21D3F8840006F048FC13
:101840000C21644808F0C2FD634809F057F81021E4
:10185000624808F0BBFD604809F050F840F2836030
:1018600007F0E0F95C4809F049F817215C4808F0F6
:10187000ADFD594809F042F85A4B1B789A0600F121
:10188000D380584B1B781B0700F1DA80554B1B782F
:101890005F0700F1E180534B1B789E0700F1E88061
:1018A000514B1B781D0600F1EF804F4B1B785C06F7
:1018B00000F1F6804C4B1B78980600F1FD804A4BF6
:1018C0001B78590700F10481474B1B781A0700F178
:1018D0000B81454B1B789B0700F112813E4809F0B4
:1018E0000DF872B6414A4CF220534DF628112024CF
:1018F000138023461180013BFDD13D4D3D483E49BB
:1019000000234FF480562E8003800B8032F80E3C6B
:101910009BB243F0D30322F80E3C62B69D2007F041
:101920002DFD21463548364D08F050FD2A4808F077
:10193000E5FF05F1E4062F462C46601B06F092FDFC
:1019400004F8010BB442F8D13B78132B01D0FFF718
:1019500013FE042005F0ECF92A4B2B4E0024012144
:101960000D201C6007F064F8B96D2848FFF796FA5F
:10197000D7F8CC000AF018FBD7F8E030BA6C97F82B
:101980004410009303462148FFF78AFA204B21496F
:101990001A680392039D1B6802931F4B029A1F480B
:1019A0000D601A60347006F047FC1D4806F044FCD8
:1019B0001C4806F041FC05B0F0BD00BF3087FF1F9A
:1019C00054C3FF1FB0C5FF1F20A1070014C4FF1F91
:1019D000F8C3FF1FC80A0100C887FF1FD80A01000B
:1019E000EC0A010001F0074000F007400E2005401E
:1019F000042005400620054016200540F00B01009C
:101A000050C2FF1F88C1FF1F40C2FF1FFC92FF1F73
:101A1000BCC5FF1F8CC1FF1F94C1FF1F40C3FF1F28
:101A20009CC3FF1F2CC2FF1F2121394808F0CEFCA8
:101A3000384808F063FF384B1B781B077FF526AF4B
:101A40000C21364808F0C2FC324808F057FF324BF0
:101A50001B785F077FF51FAF0E21314808F0B6FCF9
:101A60002C4808F04BFF2C4B1B789E077FF518AFD6
:101A700017212C4808F0AAFC264808F03FFF2A4B03
:101A80001B781D067FF511AF0E21284808F09EFC3B
:101A9000204808F033FF244B1B785C067FF50AAF23
:101AA0001221234808F092FC1A4808F027FF1E4B29
:101AB0001B7898067FF503AF13211E4808F086FCBB
:101AC000144808F01BFF184B1B7859077FF5FCAE34
:101AD0001C21194808F07AFC0E4808F00FFF124B41
:101AE0001B781A077FF5F5AE1921144808F06EFC33
:101AF000084808F003FF0C4B1B789B077FF5EEAE00
:101B000018210F4808F062FC024808F0F7FEE5E6ED
:101B1000040B0100C887FF1F01F00740280B0100DC
:101B2000380B0100480B010000F00740600B01007A
:101B3000700B0100840B0100980B0100B80B010031
:101B4000D40B010070B5424C424D4348E668002377
:101B50002B70FFF77DF9014630460AF017FC08B1FB
:101B600004232B703C48FFF74DF921690AF00EFC65
:101B700018B12B7843F010032B703748FFF736FA73
:101B8000A16A0AF021FC18B12B7843F040032B70B6
:101B9000002631486E70FFF72BFA2F48EE70FFF7E2
:101BA00057F905462C482B4EFFF72CF901462846DD
:101BB0000AF044F9E16B0AF007FC08B10123F37065
:101BC000264D254800232B70FFF742F9616A06462F
:101BD000E0680AF033F9014630460AF0F5FB08B137
:101BE00004232B701C48FFF70DF9616A0646206933
:101BF0000AF026F9014630460AF0C8FB18B12B78E6
:101C000043F010032B701448FFF7F0F9A16B064660
:101C1000A06A0AF013F9014630460AF0D5FB18B164
:101C20002B7843F040032B7000230B486B70FFF7B9
:101C3000DFF9A16B0546E06A084C0AF001F901469C
:101C400028460AF0A3FB08B10123637070BD00BFF2
:101C500050C2FF1F24C2FF1FFC92FF1F4892FF1FAC
:101C60002DE9F0417C4C2368012B82B031D0022B4E
:101C700000F0A880032B00F0C8803BBB774B784A6C
:101C8000D3F8A810D3F8AC3012685B1A632B0EDDC2
:101C9000744803FB02F380FB0302DB17C3EB621300
:101CA0001944062002B0BDE8F04106F041BD6E487F
:101CB00003FB022380FB0302DB17C3EB2212114458
:101CC000062002B0BDE8F04106F032BD02B0BDE82A
:101CD000F081664E33680A33B3F57A7F00F3B7803C
:101CE000184633600AF060F961490AF0B1F980469C
:101CF0005A4DD5F8A8000AF057F90746D5F8AC00B8
:101D00000AF052F939460AF099F841460AF0A0F96A
:101D100058490AF051FA39460AF092F80AF05EFB87
:101D20000146062006F004FD0221534808F04EFB50
:101D3000524808F0E3FD0621514808F047FB30689F
:101D40000AF032F94A490AF083F909F0D7FC022770
:101D500002460B460097494808F02AFE0D214948E3
:101D600008F034FBD5F8A8000AF01EF98046306868
:101D70000AF01AF93E490AF06BF90646D5F8AC00AC
:101D80000AF012F941460AF059F8014630460AF0C5
:101D90005FF938490AF010FA41460AF051F809F0A3
:101DA000ADFC00970B460246344808F001FE394668
:101DB000314808F00BFB314808F0A0FD2368022BE6
:101DC0007FF458AF294B254E00221A60D6F8A800A0
:101DD0000AF0EAF80546D6F8AC000AF0E5F829461C
:101DE0000AF02CF800210AF033F922490AF0E4F94C
:101DF00029460AF025F80AF0F1FA0146062006F015
:101E000097FC2368032B7FF438AF184B134E4FF425
:101E10007A721A60D6F8A8000AF0C6F80546D6F815
:101E2000AC000AF0C1F829460AF008F811490AF096
:101E30000FF910490AF0C0F929460AF001F80AF032
:101E4000CDFA0146062006F073FC236815E700234F
:101E50004FF0000833604BE77C92FF1F50C2FF1F1A
:101E60002C87FF1F1F85EB51CBF08D2834C3FF1F3C
:101E7000CDCCCC3D0000C842DC190100C887FF1F53
:101E8000140C01001C0C010070B5B548B54C08F0ED
:101E900035FDB34808F032FDB14808F02FFD0D21A3
:101EA000B14808F093FAD4F8A430012B11D0AF4C0C
:101EB000AB48217800230A2208F030FD2378052B57
:101EC00067D8DFE813F006010B01100115011A01B4
:101ED00001010921A64808F079FAA648FEF792FF09
:101EE00021690AF053FA18B10F21A34808F06EFADD
:101EF000A048FEF7ADFFE1680AF066FA18B10E21BE
:101F00009E4808F063FA9B48FEF7A2FF05469948F1
:101F1000FEF778FF0146284609F090FFE16B0AF0D2
:101F200053FA18B11121964808F050FA9148FFF77A
:101F30005DF8A16A0AF048FA18B10C21914808F03E
:101F400045FA8C48FFF754F8E16A0AF01FFA18B115
:101F50000D218D4808F03AFA8C4B86481B68012BFE
:101F600000F0E880FEF74EFF21697E4D0AF02CFA62
:101F700078B18048FEF76CFFE9680AF007FA40B1D3
:101F80007A4B1B78052B00F0E6800821804808F08A
:101F90001DFA02217F4808F019FA122006F04EFDC2
:101FA000012800F0AF80112006F048FD012800F064
:101FB000B380794B1B68012B00F0B7800221754874
:101FC000764C08F003FA764B6548196808F0E6FC91
:101FD000634808F093FC0421724808F0F7F90B20DD
:101FE00006F02CFD002301460A225D4808F096FC0D
:101FF0000C2006F023FD002301460A22584808F071
:102000008DFC142006F01AFD002301460A225448D4
:1020100008F084FC152006F011FD0A220023014679
:102020004F4808F07BFC06215F4808F0CFF9236891
:10203000DD074FF001014CBF5C485D4808F0C6F970
:10204000236898074FF001014CBF5848584808F0E2
:10205000BDF923685A074FF001014CBF534854485B
:1020600008F0B4F923681B074CBF504850480121C1
:1020700008F0ACF904214F4808F0A8F9112006F047
:10208000DDFC002301460A22354808F047FC1020F9
:1020900006F0D4FC002301460A22314808F03EFC39
:1020A000122006F0CBFC002301460A222C4808F03F
:1020B00035FC132006F0C2FC002301460A22284802
:1020C000BDE8704008F02ABC07213B4808F07EF9C3
:1020D0005FE70621394808F079F95AE707213848BF
:1020E00008F074F955E70721364808F06FF950E712
:1020F0000821354808F06AF94BE70B21334808F00E
:1021000065F946E70E21324808F060F9112006F023
:1021100095FC01287FF44DAF0A212E4808F056F9AE
:102120001D4B1B68012B7FF449AF11212A4808F091
:102130004DF943E7FEF766FE216A0AF045F90028EB
:102140003FF423AF1621254808F040F90A2124481E
:1021500008F03CF91DE70A21214808F037F918E793
:10216000C887FF1F50C2FF1F2C0C010040C2FF1F79
:102170003C0C0100FC92FF1F480C0100580C0100B0
:10218000680C01007C0C01008C0C01008492FF1F84
:10219000C00C0100DC19010064C3FF1FE8C3FF1F6E
:1021A0005492FF1F340D01003C0D0100440D01004D
:1021B000E01B0100480D0100FC0C0100CC0C0100EB
:1021C000D40C0100E80C0100F00C0100DC0C010053
:1021D000040D0100140D0100200D01009C0C0100F4
:1021E000B40C01002DE9F04F8D4CE66F012E8FB03D
:1021F00000F0C781032E00F04381DFF87C82894F15
:10220000894EA36F8948012B09BF3168316801F1FC
:102210000041316005F0D8FF3B68002B40F0E680BC
:102220008248DFF8549205F0A5FF3B68C8F800002B
:102230000546002B40F0BC80E36F794A012B00F08B
:10224000CB807B497B4F28460AF0BEF8002841D05E
:102250003B68DFF8F89109930998D9F80030DFF866
:102260001CA2C01A09F09CFE294609F0F1FE724931
:1022700009F0A2FF704909F09FFFDAF8001009F099
:10228000DFFD3B680893089BCAF80000C9F80030DE
:10229000D4F8B000694C09F087FE294609F0D8FE51
:1022A00000233360C8F800000AF098F8014664483B
:1022B00005F0D0FF09F078FE3B68624A0B93116885
:1022C0000B9B20605B1AB3F57A7F5A490ED80FB08A
:1022D000BDE8F08F5C4928460AF058F80028B7D1CD
:1022E0003A685A4B0A920A9A1A60D1E70B680C9323
:1022F0000C9B5348136005F0D9FF2068544D0AF039
:102300006DF80146534805F0A5FF09F04DFE524A0D
:102310002860136801333A2B00F3088213604F4B97
:102320001B68002BD3D04E4808F0E8FA3B680D93A9
:102330000A2200230D994A4808F0F0FA0121494881
:1023400008F044F8D8F8000009F0D8F9022602464F
:102350000B460096424808F02BFB0121414808F04B
:1023600035F8206809F0CAF9009602460B463C4849
:1023700008F01EFB01213B4808F028F8286809F006
:10238000BDF9009602460B46354808F011FB0121C5
:10239000344808F01BF8344B186809F0AFF9009680
:1023A00002460B462E4808F003FB0FB0BDE8F08F45
:1023B00009F0A4F9022502460B460095284808F0CA
:1023C000F7FA0421294808F001F8E36FD9F8005022
:1023D000134A012B7FF435AF254B1B68012B00F00E
:1023E0001982022B00F06981124F51E70F4805F066
:1023F000C1FE09F083F9022502460B4600951848F4
:1024000008F0D6FA03211B4807F0E0FFD4F8941037
:10241000134808F0C3FA0321164807F0D7FFFFE678
:1024200050C2FF1F94C3FF1FDCC3FF1F70C3FF1FF9
:102430000000FA43BCC5FF1F00007A4490C3FF1F91
:1024400040C3FF1F6092FF1F0000FAC320C2FF1F9E
:10245000D0C3FF1F9CC3FF1F3CC3FF1FF892FF1F89
:10246000C887FF1F280C01004CC2FF1F940D0100FC
:102470005087FF1F900D010028C2FF1FBCC3FF1F24
:10248000B74DB84F2868DFF8108301234FF0FF32B3
:102490000F213B6005F018FB3B68B34F012B3B68F5
:1024A00000F09680002B40F07D812B68DFF8EC92E5
:1024B000D3F88400436B19698EB2C9F8006005F047
:1024C00089FBB4F88A2040F6E44303FB06F1B1FB34
:1024D000F0F0801A00B209F067FDA449A44E8246CC
:1024E000D4F88C0009F0B4FD0146504609F064FEB2
:1024F000D9F800303060632BDFF8A0A200F323810D
:10250000002333603B68002B3FF47BAE02219948E7
:1025100007F05CFF2B68D9F80050D3F8840040F630
:10252000E44303FB05F505F055FBB5FBF0F009F0BE
:1025300037FD0546B4F88A0009F036FD0146284605
:1025400009F07CFC09F0DAF8022502460B460095FA
:10255000894808F02DFA2946864807F037FF306889
:1025600009F0CCF8009502460B46834808F020FAA3
:102570002946824807F02AFF29467E4807F026FFB1
:102580003FE6DFF81482D4F89470D8F8005038464B
:1025900009F00AFD294609F017FF48B1784209F011
:1025A00003FD0146284609F00FFF002840F0648132
:1025B0006B4D6C4F2A680223D2F884003B600E21D9
:1025C00005F086FD3B68684F012B3B687FF46AAFDE
:1025D000002B40F05B812B68DFF8C091D3F88400BA
:1025E000436B19691FFA81FBC9F800B005F0F2FAD4
:1025F000B4F888305E4E40F6E44A0AFB0BFBBBFBA6
:10260000F0F0C01A00B209F0CFFC58498346D4F864
:10261000900009F01DFD0146584609F0CDFD2A68DD
:10262000D9F800303060D2F884000AFB03FA05F0D4
:10263000D1FAB4F88830BAFBF0F00FFA80FAC3EBA5
:102640000A03002BB4F8BE20B8BF5B429342BCBF64
:10265000002333603B68002B3FF4D3AD0221454893
:1026600007F0B4FE2B68D9F80050D3F8840040F688
:10267000E44303FB05F505F0ADFAB4F88810B5FBAB
:10268000F0F000B2411A3C4808F088F902213948BC
:1026900007F09CFE306809F031F8022502460B462F
:1026A0000095354808F084F90321354807F08EFE7F
:1026B0002946304807F08AFEA3E5D2F894703846E0
:1026C00009F072FC294609F061FE68B9784209F008
:1026D0006BFC294609F078FE30B92A4F2A4B3A683C
:1026E0000792079A1A60D3E5264FDFF89C903B6863
:1026F00006930698D9F80030DFF8A4A0C01A09F0B4
:102700004FFC294609F0A4FC204909F055FD1F495A
:1027100009F052FDDAF8001009F092FB3B680593CE
:10272000059BCAF80000C9F80030B1E5002313602A
:1027300009F054FE01461648164E05F08BFD09F0CF
:1027400033FC3060EBE52B68D3F8840005F042FAE7
:10275000DAF8003064389842FFF4D2AED2E600BF17
:10276000F8C3FF1F5087FF1F94C3FF1FACC5273757
:10277000DCC3FF1FDC190100C887FF1F8C0D01009F
:10278000780D0100BCC5FF1F20C2FF1F00007A4466
:102790002CC2FF1F4CC2FF1F28C2FF1F00C4FF1F17
:1027A000BCC3FF1F5748DFF89491DFF87CA108F005
:1027B000A5F80C21544807F009FE0C21534807F0F6
:1027C00005FE2A683B68D2F88400426B11698EB21C
:1027D000C9F80060002B3FF472AE05F0FBF940F63B
:1027E000E44100230A2201FB06F1B1FBF0F1454868
:1027F00008F094F80221464807F0E8FDB4F88A1082
:10280000404808F0CBF8DAF80030D9F80060D3F887
:10281000840054E63F49404F284609F0D5FD50B9A1
:102820003E49284609F0B2FD28B93A683C4B04926B
:10283000049A1A602CE53B68DFF8E4900393039850
:10284000D9F80030DFF8F8A0C01A09F0A9FB294632
:1028500009F0FEFB334909F0AFFC324909F0ACFC4A
:10286000DAF8001009F0ECFA3B680293029BCAF810
:102870000000C9F800300BE52B4D2C4F2B683E6053
:10288000D3F884000F2105F023FC05E61D48DFF88E
:10289000AC90254E08F032F8E36F012B4FF00B019E
:1028A0000CBF2348234807F091FD0C21174807F07F
:1028B0008DFD2A683B68D2F88400426B11691FFACB
:1028C00081FBC9F800B0002B3FF490AE05F082F90F
:1028D00040F6E44100230A2201FB0BF1B1FBF0F1C9
:1028E000084808F01BF80121134807F06FFDB4F801
:1028F0008810044808F052F83368D9F800B0D3F8CB
:10290000840073E6C887FF1F7C0D0100680D01007D
:10291000DC1901000000FA43BCC5FF1F0000FAC328
:1029200020C2FF1F00007A44F8C3FF1F5087FF1F1B
:10293000500D01005C0D0100280C010000C4FF1FB8
:10294000BCC3FF1F2DE9F0478B4D2B6884B043B902
:102950008A4B1B680393039A42F210739A4200F267
:10296000B580874C874F884EDFF86082D4F884208A
:10297000834B012A03D0DA6F002A40F09580834808
:10298000FEF738FB8249D4F86890E56E09F060FBE9
:1029900009F04AFD226F636FC9EB02025B1B80B234
:1029A0009A42C9EB0000D4F85C90C6BF03FB00005C
:1029B0000132584390FBF2F02844A56D00FB09F06A
:1029C00005FB00F000EB8000400009F0EDFA7149D2
:1029D00009F0F2FB8246306005FB09F54FF47A708E
:1029E00000FB05F009F0E0FA6A49DFF89891054626
:1029F000504609F02DFB294609F0DEFB664909F037
:102A000027FB09F0EBFC6328386047DD2846614965
:102A100009F0D2FB64233060C9F80030D8F80030E8
:102A2000002B38D0E36F564D012B43D0032B00F021
:102A30009680022B00F08E800221584807F0C6FCD9
:102A4000574B186808F05AFE022402460B460094C1
:102A5000544807F0ADFF2146534807F0B7FC214624
:102A60004E4807F0B3FC39684E4807F097FF06213F
:102A70004E4807F0ABFC3068464909F0E9FA08F027
:102A80003DFE009402460B46464807F091FF0321A5
:102A9000474807F09BFC04B0BDE8F0870028BCBFA6
:102AA0000023C9F80030B9E7D6F800A0D3F85C904D
:102AB0009D6D91E73F4B1B68012B4FF00A010CBF46
:102AC0003D483E4807F082FCEB6FAFE72F482C4CA7
:102AD000FEF790FA2E49A76EE66E09F0B9FA09F0F2
:102AE000A3FC226F636FD21B9B1B80B29A42A0EBA8
:102AF00007003ADD03FB0000531C90FBF3F31E4478
:102B0000E06DA36D1F4FDFF8C4803E6000FB06F050
:102B100003FB00F000EB8000400009F045FA1D497E
:102B2000194E09F049FBD8F80030306001222A60C4
:102B3000002B3FF41BAF0221184807F047FC19484F
:102B400007F0DCFE59211E4807F040FC154807F04D
:102B5000D5FE0BE707211B4807F038FC6CE7102176
:102B6000194807F033FCE36F63E703FB00F393FBC3
:102B7000F2F31E44C4E700BFF492FF1FBCC5FF1F61
:102B800050C2FF1F2C87FF1FBCC3FF1FFC92FF1FFB
:102B900000007A44E4388E3E0000C842DC1901008F
:102BA00028C2FF1FC887FF1F8C0D01002C0E0100DB
:102BB000340E01005087FF1FF80D0100040E0100C4
:102BC0009C0D0100240E0100100E01002087FF1F44
:102BD00030B5112083B005F031FF012818D0122044
:102BE00005F02CFF012813D000210B2005F020FF59
:102BF00000210C2005F01CFF0021152005F018FF16
:102C00002649274B0120002208701A6003B030BD0E
:102C10000121152005F00CFF224A234C234B12689A
:102C2000D4F8981001921B68019A1D4D0B449342F1
:102C30004FF00201296005D901210C2005F0F8FEB2
:102C400003B030BDD4F8A00009F0AEF9184B1968F4
:102C500009F09CFB0028EFD101210B2005F0E8FED4
:102C600094F8C43003242C6043B10C4B02221A7038
:102C700000210C2005F0DCFE03B030BD122005F071
:102C8000DDFE012808BF054B4FF0110008BF1C7086
:102C900005F0D4FE0128EBD1E7E700BF40C2FF1FDB
:102CA000F092FF1FBCC5FF1F50C2FF1F8CC1FF1F4A
:102CB00028C2FF1FF0B5684E684D34682B689C42EF
:102CC00087B039D014F0010155D014F0020149D079
:102CD00014F004013DD0E3070ED52B68DF070BD4B9
:102CE0005F4F3A68002A00F082805E4B1B680193B8
:102CF000019B93426DD83468A0070DD52B689907C6
:102D00000AD4594F3A68002A4CD0564B1B6803939B
:102D1000039B934238D8346862070DD52B685B0754
:102D20000BD4524F3A68002A7ED04E4B1B68059355
:102D3000059B934268D834680CB107B0F0BD2146BA
:102D4000162005F0F5FC2146172005F0F1FC07B030
:102D5000F0BD052005F0ECFC2B68346803F0FB03A4
:102D60002B60B8E7172005F0E3FC2B68346803F00C
:102D7000FD032B60ACE7162005F0DAFC2B68346805
:102D800003F0FE032B60A0E7394B1720D3F89C100B
:102D900005F0CEFC2B68346843F0020300222B6060
:102DA0003A60B9E7334807F0A9FD0C21324807F033
:102DB0000DFB304807F0A2FDFF21172005F0B8FCFD
:102DC000284B2E4A19680291029912680A443A6007
:102DD0009CE7274B1620D3F89C1005F0A9FC2B6824
:102DE000346843F0010300222B603A6084E7FF213E
:102DF000162005F09DFC1B4B204A19680091009994
:102E000012680A443A6071E7194B0520D3F89C1008
:102E100005F08EFC2B68346843F0040300222B601D
:102E20003A60002C89D18AE7124807F067FD0C212F
:102E3000134807F0CBFA0F4807F060FDFF2105208B
:102E400005F076FC074B0D4A196804910499126845
:102E50000A443A606AE700BFF092FF1FE8C3FF1F11
:102E600038C3FF1FBCC5FF1F5CC3FF1F60C3FF1F2C
:102E700050C2FF1FC887FF1F380E01003C87FF1F8D
:102E8000480E01002DE9F047534EDFF8708133689A
:102E9000DFF86C91D3F88400504D0F2105F018F93C
:102EA0000023012222214E48C8F80030C9F8002032
:102EB00007F08CFAD8F80030132B20DC40F6E447FA
:102EC0003368B5F888A0D3F88400436B1C6904F01C
:102ED00081FEA4B2012107FB04F4B4FBF0F44148E5
:102EE0005444A5F8884007F071FA642005F0DCFD31
:102EF000D8F800300133132BC8F80030E0DDB5F806
:102F00008830394A3948A2FB03129B1A02EB53035B
:102F1000C3F30F131946A5F8883007F03FFD1D21B4
:102F2000334807F053FA0221324807F04FFA2F488E
:102F300007F0E4FC32680023D2F88400C8F80030BF
:102F40000E2105F0C5F8022322212548C9F80030DA
:102F500007F03CFAD8F80030132B20DC40F6E447A9
:102F60003368B5F88A90D3F88400436B1C6904F089
:102F700031FEA4B2012107FB04F4B4FBF0F41948BC
:102F80004C44A5F88A4007F021FA642005F08CFD36
:102F9000D8F800300133132BC8F80030E0DDB5F865
:102FA0008A30114A1148A2FB03129B1A02EB530309
:102FB000C3F30F131946A5F88A3007F0EFFC1D2163
:102FC0000D4807F003FA02210A4807F0FFF9074805
:102FD000BDE8F04707F092BCF8C3FF1F50C2FF1FC7
:102FE000580E01009C0E010087611886C887FF1FDC
:102FF0007C0E0100DC190100A00E01005C92FF1F95
:103000005087FF1F2DE9F843C14BC24CC24E1B68CD
:10301000706D40F2513108222160E271002B40F0C6
:10302000718108F0C1FF7169054609F011F8BB49CB
:10303000B94F09F00DF809F0F7F980B20312637285
:10304000B74AB84BB2F90020B3F900302072A3722E
:1030500028461B121512E3722273B169657308F0DA
:10306000F7FFAE49AB4D08F0F3FF09F0DDF983B28D
:103070001A122946AC48A373E27304F07DFBAB4AF5
:10308000AB4B12681988A172D3B2237203EB83038E
:103090005B00237302EB820343F3D7134FEA212E25
:1030A00012124FF008084FF00009294663739E483A
:1030B00084F80BE040F255336272236084F8078095
:1030C00084F80E9084F80F9004F056FB40F25633CB
:1030D0009848236084F80780FDF7DEFE964908F0E3
:1030E000B7FF09F0A1F920729248FDF7D5FE924989
:1030F00008F0AEFF09F098F9904A8F49C0F3072312
:103100006372106809F058F809F068F940FA08F39A
:10311000A0728848E372FDF705FF804908F098FF28
:1031200009F05CF920738348FDF7FCFE7B4908F049
:103130008FFF09F053F940F30720294660737A485E
:1031400084F80E9084F80F9004F016FB022005F02E
:10315000ABFC7B4A7B4B117821725178907861727D
:10316000D178A0721A789878E172597822736173D5
:10317000DA78A07340F25A3329466B48E273236031
:1031800084F8078004F0F8FA6F4B67481A782272C7
:103190005A7862729A78A272DA78E2721A79227395
:1031A0005A7962739A79DB79E373294640F25E3388
:1031B000A273236084F8078004F0DEFA022005F091
:1031C00073FC624B58481A7822725A7862729A7865
:1031D000A272DA78E2721A7922735A7962739A7952
:1031E000DB79E37329464FF45C73236084F807802E
:1031F000A27304F0C1FA564B1B68012B00F0AE809D
:10320000022005F051FCF36D2373022500221B12EE
:10321000284640F2733808276373227201236272D2
:103220009922A273E372E373A572C4F80080E77178
:1032300005F03AFC3F48C4F80080E771FDF7E2FD75
:10324000444908F005FF09F0EFF820723948FDF70E
:10325000D9FD404908F0FCFE09F0E6F8C0F3072369
:1032600034486372FDF7F4FD3A4908F0F1FE09F0C5
:10327000DBF8A0722F48FDF7EBFD364908F0E8FEB9
:1032800009F0D2F8C0F307232A48E372FDF7B0FE35
:10329000314908F0D5FD09F0C7F820732548FDF73E
:1032A000A7FE2D4908F0CCFD09F0BEF8C0F30723B6
:1032B00020486373FDF79AFE274908F0C1FD09F025
:1032C000B3F8A0731B48FDF791FE234908F0B8FD41
:1032D00009F0AAF80F49C0F307231348E37304F079
:1032E0004BFA284605F0E0FBB26DF36DE57112FB79
:1032F00003F3C3F3072140F2793223726172226033
:10330000BDE8F88308F050FE316A05468DE600BF3F
:103310008492FF1F6492FF1F50C2FF1F00002041D4
:10332000E0C3FF1F7892FF1F14C4FF1F2C87FF1FED
:103330003287FF1FFC92FF1F0000C84228C2FF1FF8
:1033400024C2FF1F4892FF1F5887FF1F3487FF1FAB
:1033500064C3FF1F00007A44339388432648FDF777
:1033600051FD396D08F06CFD81462348FDF770FD75
:103370000146484609F00AF800283FF441AF40F200
:10338000C3331D4885F807802B60FDF73BFDFF6CBC
:10339000394608F0FBFFC8B11849384608F058FE16
:1033A00009F042F880B240FA08F368722B720023E9
:1033B00001270425032212491248A772E5722273DD
:1033C0006373A373E37304F0D7F919E70A48FDF7B1
:1033D00019FD0A4908F03CFE09F026F8C0F307235E
:1033E00005482B72FDF70EFD044908F031FE09F087
:1033F0001BF86872DBE700BFFC92FF1F00007A44F5
:103400006492FF1F14C4FF1FF0B59C4C9C4D83B009
:1034100006F076FF23682860042B00F0AE82092BAB
:103420007FD0022B4DD1A0F13102422A00F28280DE
:10343000DFE812F01A0826083408F20041085208A2
:1034400061086B08800080008000800080008000A0
:10345000800080008000800080008000800080006C
:10346000800080008000800080008000800080005C
:10347000800080008000800080008000800080004C
:10348000800080008000800080008000800080003C
:103490008000800080008000430080008000800069
:1034A000800080008000800080008000800080001C
:1034B000800080007C0080000D08FFF7E3FC23689B
:1034C0002868082B40F0B980342801F02C8500F3DF
:1034D000F582312801F03C8532282BD106F04CFFD3
:1034E000002841F3F3846748674E07F09BFB08F020
:1034F0005BFD664908F0ACFD0746B764D6F8CC0022
:1035000008F052FDD6F8E03096F8441000933A46A1
:1035100003465F48FDF7C4FC01236920236028604F
:1035200077E3312800F06B83712803D100237320E7
:1035300023602860002B08BF73280CBF01200020E7
:10354000002867D04F4807F0D9F91421514806F0F8
:103550003DFF4C4807F0D2F910214F4806F036FFE6
:10356000484807F0CBF913214C4806F02FFF4C4B8D
:103570004448196807F012FA424807F0BFF91421CD
:10358000484806F023FF3F4807F0B8F91E21464897
:1035900006F01CFF3B4807F0B1F91521434806F03F
:1035A00015FF384807F0AAF91E21414806F00EFF22
:1035B000344807F0A3F920213E4806F007FF3148C0
:1035C00007F09CF919213C4806F000FF2D4807F050
:1035D00095F91221394806F0F9FE2A4807F08EF9CC
:1035E0001621374806F0F2FE264807F087F90F212A
:1035F000344806F0EBFE234807F080F90D213248ED
:1036000006F0E4FE1F4807F079F9304A0021012353
:103610001160236003B0F0BD0123236006F0ACFE0F
:10362000002807DD1748184E07F0FCFA08F0BCFC2C
:10363000C6F89000632023682860072B4AD13328FE
:1036400001F05E8400F32682312801F043843228A1
:103650007FF470AF06F090FE002839DD09480A4E6D
:1036600007F0E0FA08F0A0FC084908F0F1FC61233B
:103670000122F06322602B601846CAE2FCC3FF1FE0
:103680005092FF1FC887FF1F50C2FF1F6F12833A5F
:10369000FC92FF1F30180100481801005C1801005F
:1036A0004C87FF1F7018010088180100A81801003E
:1036B000C0180100E01801000419010020190100E0
:1036C000341901004C1901005C1901002087FF1F0B
:1036D00023682868062B40F08D80A0F13102402A33
:1036E0003FF628AF01A151F822F000BFD9420000F7
:1036F000034300002D43000053430000F943000042
:10370000174400003B44000035350000B54200007E
:103710003535000035350000353500003535000001
:1037200035350000353500003535000035350000F1
:1037300035350000353500003535000035350000E1
:1037400035350000353500003535000035350000D1
:1037500035350000353500003535000035350000C1
:1037600035350000353500003535000035350000B1
:1037700035350000353500003535000035350000A1
:103780003535000035350000353500003535000091
:103790003535000035350000353500003535000081
:1037A0003535000035350000353500003535000071
:1037B0003535000035350000353500003535000061
:1037C0003535000035350000353500003535000051
:1037D0003535000035350000353500003535000041
:1037E0003535000035350000353500002D35000039
:1037F00023682868052B15D1332801F0EC8340F3AA
:103800007B81352801F0D983C1F2C18371287FF40F
:1038100091AEC44A0023732013602360286089E6B8
:1038200023682868032B40F0A480A0F13002422ACC
:103830003FF680AE01A151F822F000BF49390000E7
:10384000814D0000014B00009F4B0000C14B000068
:10385000E34B00000B4C0000334C0000514C0000C7
:10386000774C000035350000353500003535000057
:1038700035350000353500003535000035350000A0
:103880003535000035350000353500003535000090
:103890003535000035350000353500003535000080
:1038A0003535000035350000353500003535000070
:1038B0003535000035350000353500003535000060
:1038C0003535000035350000353500003535000050
:1038D0003535000035350000353500003535000040
:1038E0003535000035350000353500003535000030
:1038F0003535000035350000353500003535000020
:103900009F4C00003F460000F94C0000BD4C0000F9
:10391000DB4C0000294B0000D7450000FB450000B0
:1039200035350000214600004D4D000035350000C2
:1039300035350000353500003535000035350000DF
:10394000754D00007F4B000006F016FD002841F386
:10395000B6827548754E07F065F9012703460146A2
:1039600062227348B36527602A60FDF797FA2368DF
:103970002868012B7FF4DEAD4BE1A0F13002412A33
:103980003FF6D8AD01A151F822F000BF2545000057
:103990003945000051450000554500007B450000B9
:1039A000BB4500007F4500009145000095450000A3
:1039B00099450000353500003535000035350000EB
:1039C000353500003535000035350000353500004F
:1039D000353500003535000035350000353500003F
:1039E000353500003535000035350000353500002F
:1039F000353500003535000035350000353500001F
:103A0000353500003535000035350000353500000E
:103A100035350000353500003535000035350000FE
:103A200035350000353500003535000035350000EE
:103A300035350000353500003535000035350000DE
:103A400035350000353500003535000035350000CE
:103A500035350000353500003535000035350000BE
:103A600035350000353500003535000035350000AE
:103A7000353500003535000035350000353500009E
:103A8000353500003535000035350000353500008E
:103A90002D35000034287FF447AD06F06DFC00287A
:103AA0007FF716AE2048214E07F0BCF861230122B3
:103AB000A6F8BC0022602B601846AAE035287FF4E7
:103AC00033AD06F059FC002841F300821648174E2A
:103AD00007F0A8F808F068FA164908F0B9FA07469E
:103AE000C6F8E070D6F8CC0008F05EFAB26C96F832
:103AF0004410009703460CE5312801F07D823228FE
:103B00007FF418AD06F038FC00287FF789AE064830
:103B1000064E07F087F801226B23C6F8A00022604A
:103B20002B600BE07C92FF1FC887FF1F50C2FF1F56
:103B3000FC92FF1FCDCCCC3D06F0E2FB06F01CFC56
:103B40000028F9D1A14806F0D9FEA04806F0D6FE1B
:103B50009E4806F0D3FE9D4806F0D0FE9B4806F036
:103B6000CDFE21219A4806F031FC984806F0C6FEA9
:103B70001521984806F02AFCD6F89810934806F0CC
:103B80000DFF0221944806F021FC904806F0B6FE95
:103B90001E21924806F01AFCD6F8A0108B4806F0B9
:103BA000FDFE03218E4806F011FC884806F0A6FEB3
:103BB0001E218C4806F00AFCD6F89C10834806F0BB
:103BC000EDFE824806F09AFE1D21874806F0FEFBB6
:103BD000D6F8A8107D4806F0E1FE7C4806F08EFE7F
:103BE0001E21824806F0F2FBD6F8AC10774806F0AA
:103BF000D5FE764806F082FE052323600AE57C4E5A
:103C000096F8D03001225340782086F8D0302260D8
:103C10002860A0F15203262B01F24881DFE813F05F
:103C2000D60846094609460946094609460946098D
:103C30004609460946094609460946094609290032
:103C4000030BDB02340276014609460946090601E8
:103C50004609060B46094609460946094609C408AD
:103C60004609460946094609460946099D0006F0E7
:103C700047FB06F081FB05460028F8D153485C4E0F
:103C800006F03CFE514806F039FE504806F036FE7C
:103C90004E4806F033FE4D4806F030FE1F215548D1
:103CA00006F094FB494806F029FE1C21524806F014
:103CB0008DFB706A514908F0CBF907F01FFD0095A4
:103CC00002460B46414806F073FE02214C4806F0BE
:103CD0007DFB3E4806F012FE23214A4806F076FBA3
:103CE000F06B464908F0B4F907F008FD009502466C
:103CF0000B46364806F05CFE0221414806F066FBA2
:103D0000324806F0FBFD19213F4806F05FFBB06B1F
:103D100007F0F4FC02250B46024600952B4806F0FE
:103D200047FE2946394806F051FB284806F0E6FDD3
:103D30001021374806F04AFBB6F8BC10234806F0BD
:103D40002DFE0321334806F041FB204806F0D6FD46
:103D5000072323605EE406F0D3FA06F00DFB00288B
:103D6000F9D11A4806F0CAFD184806F0C7FD1748F1
:103D700006F0C4FD154806F0C1FD144806F0BEFD6E
:103D80001221254806F022FB104806F0B7FD0F4827
:103D900006F0B4FD1621214806F018FB144B93F8E9
:103DA000D030002B41F0468104211D4806F00EFB67
:103DB000064806F0A3FD13211A4806F007FB034846
:103DC00006F09CFD0923236024E400BFC887FF1F81
:103DD000D4110100F8110100CC10010010120100F3
:103DE000780D010030120100501201007012010024
:103DF00050C2FF1F3C1101005C11010000007A4419
:103E0000740F01007C110100A011010038110100A4
:103E1000BC110100D011010038190100E40E0100AD
:103E2000FC0E0100180F010006F06AFA06F0A4FA71
:103E300005460028F8D18048804E06F05FFD7E4898
:103E400006F05CFD7C4806F059FD7B4806F056FD07
:103E5000794806F053FD1521794806F0B7FA7648FF
:103E600006F04CFD1821774806F0B0FA2B460A22DE
:103E700096F84410704806F051FD6F4806F03EFD7C
:103E80002821714806F0A2FAB06C704908F0E0F8F9
:103E900007F034FC009502460B46674806F088FDA3
:103EA00002216B4806F092FA634806F027FD1821BC
:103EB000684806F08BFAD6F8CC105F4806F06EFD25
:103EC0005D4806F01BFD1821634806F07FFAD6F81E
:103ED000E00007F013FC02250B4602460095564809
:103EE00006F066FD29465D4806F070FA524806F075
:103EF00005FD13215A4806F069FA4F4806F0FEFC0A
:103F000008232360FFF786BB06F0FAF906F034FABF
:103F100005460028F8D14848484E06F0EFFC4648D0
:103F200006F0ECFC444806F0E9FC434806F0E6FCE9
:103F3000414806F0E3FC11214A4806F047FA3E48A2
:103F400006F0DCFC2821484806F040FA70693F4939
:103F500008F07EF807F0D2FB009502460B46364883
:103F600006F026FD02213A4806F030FA324806F003
:103F7000C5FC16213D4806F029FAF069334908F0DE
:103F800067F807F0BBFB00950B4602462A4806F08F
:103F90000FFD02212E4806F019FA274806F0AEFC64
:103FA000D6F8B430002B34DD1D21314806F00EFA6E
:103FB000B6F9600007F0F8FF2E4908F049F807F05D
:103FC0009DFB022502460B4600951B4806F0F0FCBF
:103FD0000121294806F0FAF9174806F08FFC1F2145
:103FE000264806F0F3F9B6F9620007F0DDFF214933
:103FF00008F02EF807F082FB009502460B460E48AB
:1040000006F0D6FC01211C4806F0E0F90A4806F04B
:1040100075FC11211A4806F0D9F9D6F8B430062BF0
:1040200000F2DA86DFE813F038073D0733072E0782
:1040300029072407D40600BFC887FF1F50C2FF1FEF
:10404000081901002C0F0100480F010000007A44FC
:10405000740F0100780F0100940F0100B00F0100F0
:10406000180F0100AC180100B40F0100E00F0100AF
:10407000F80F0100CDCCCC3DD01401001810010088
:104080003810010006F03CF906F076F90028F9D165
:10409000B94806F033FCB84806F030FCB64806F0E4
:1040A0002DFCB54806F02AFCB34806F027FC132186
:1040B000B24806F08BF9B04806F020FC0D21B0485C
:1040C00006F084F9AC4806F019FC0F21AD4806F063
:1040D0007DF9AD4BA848196806F060FCA64806F0CB
:1040E0000DFC1321A94806F071F9A94BA2481968E3
:1040F00006F054FCA04806F001FC1221A54806F089
:1041000065F9A54B9C48196806F048FC9A4806F0EA
:10411000F5FB1121A14806F059F9A14B9648196801
:1041200006F03CFC944806F0E9FB0E219D4806F0A1
:104130004DF99D4B9048D3F8A41006F02FFC8E4803
:1041400006F0DCFB1921994806F040F9984B8A48A3
:10415000196806F023FC884806F0D0FB1121954829
:1041600006F034F9944B8448196806F017FC82482D
:1041700006F0C4FB1021914806F028F9904B7E48C8
:10418000196806F00BFC7C4806F0B8FB1C218D4832
:1041900006F01CF98C4B7848196806F0FFFB76484E
:1041A00006F0ACFB1B21894806F010F9884B7248D9
:1041B000197806F0F3FB704806F0A0FB1321854840
:1041C00006F004F96C4806F099FB04232360FFF71E
:1041D00021BA06F095F806F0CFF80028F9D1664824
:1041E000714E06F08BFB644806F088FB624806F0CF
:1041F00085FB614806F082FB5F4806F07FFB1F21CC
:10420000754806F0E3F85C4806F078FB1E21734819
:1042100006F0DCF8584806F071FB1A21704806F0E9
:10422000D5F8F36F022B00F0D387032B00F0C7877C
:10423000012B00F0D68709216A4806F0C7F84E48DE
:1042400006F05CFB14216848574D06F0BFF8B16FCB
:10425000494806F0A3FB484806F050FB1C21634880
:1042600006F0B4F8D6F88410434806F097FB4248AD
:1042700006F044FB1C215E4806F0A8F8D6F8B01002
:104280003D4806F08BFB3C4806F038FBF36F23F00B
:104290000202012A00F01087022B00F0AB871321E5
:1042A0004C4806F093F8344806F028FB02232360BC
:1042B000FFF7B0B906F060F800287FF799AA2E48FA
:1042C000394E06F0AFFC07F06FFE65230122306324
:1042D00022602B6018469CE406F04EF800287FF719
:1042E00087AA2548304E06F09DFC07F05DFE414947
:1042F00007F062FF65230122706122602B6018467F
:1043000087E406F039F800287FF772AA1A48264E8B
:1043100006F088FC07F048FE364907F04DFF65239C
:104320000122F06122602B60184672E406F024F846
:1043300000287FF75DAA10481B4E06F073FC00EBC7
:104340008000430001226520A6F8603022602860CA
:104350005FE406F011F800287FF74AAA0648124EDB
:1043600006F060FC00EB8000430001226520A6F807
:104370006230226028604CE4C887FF1F9012010061
:10438000A4120100B4120100F4C3FF1FC412010003
:1043900094C3FF1FD8120100B0C3FF1FEC1201002D
:1043A00044C2FF1F0013010050C2FF1F1013010081
:1043B0005492FF1F2C1301007C92FF1F4013010039
:1043C0004492FF1F541301004887FF1F741301001C
:1043D000F0C3FF1F180F010090130100B01301007C
:1043E000D013010048140100541401006C140100A2
:1043F0008C14010000007A44984AD2F8B43001339A
:10440000062BC8BF0023C2F8B43001236520236007
:104410002860FFF7FEBB05F0AFFF00287FF7E8A993
:104420008F488E4E06F0FEFB65230122C6F8B800C9
:1044300022602B601846FFF7ECBB884B93F8C42032
:10444000002A00F0F285002283F8C420DDE7834AC9
:10445000D36F0133032BC8BF0023D367012363202D
:1044600023602860FFF7D5BB7C4EB36FB3FA83F3AC
:104470005B0901226320B36722602860FFF7C9BB94
:10448000764ED6F88430B3FA83F35B0901226320B9
:10449000C6F8843022602860FFF7BBBB012323608D
:1044A00005F06AFF0028D9DD6D486C4E06F0BAFBB6
:1044B000C6F8B000D2E70123236005F05DFF0028B5
:1044C0007FF7B8A86648654E06F0ACFB07F06CFDB8
:1044D000C6F88C00FFF7AEB80123236005F04CFF4F
:1044E00000287FF7A7A85E485C4E06F09BFBA6F865
:1044F000BE00FFF79FB8594BD3F88020012A0CBFAC
:1045000002220122C3F88020A8E70123236005F0DE
:1045100033FF0028A2DD5248504E06F083FBC6F858
:1045200094009BE74F4A137801214B40642013709D
:1045300021602860FFF76DBB4B4A1368B3FA83F321
:104540005B0901216420136021602860FFF761BBD3
:10455000464AF2E7464A474F1368002B0CBF012337
:1045600000234FF001001360206040F012860346E4
:1045700064222A606420FEF754BF3F4ADDE701232E
:104580003E482360FCF73EFB3D4A23681060EFE79E
:104590003C4AD2E73C4AD0E70123236005F0ECFE19
:1045A000002800F35085394B1A68042AC4BF022240
:1045B0001A6064232B602368DCE7284ED6F8A43009
:1045C000B3FA83F35B0901226420C6F8A4302260A9
:1045D0002860FFF71EBB05F0CFFE00280DDD204848
:1045E0001E4E06F01FFB07F0DFFC294907F0E4FD33
:1045F00001226223306222602B6005F0BDFE00289C
:104600000EDD1748154E06F00DFB07F0CDFC2049D6
:1046100007F0D2FD01226223C6F8C00022602B60A1
:1046200005F0AAFE00280ADD0D480C4E06F0FAFA45
:1046300007F0BAFC01226223706322602B6005F050
:104640009BFE002840F33B840548044E06F0EAFA3E
:1046500001226223B06622602B601DE050C2FF1F62
:10466000C887FF1FF0C3FF1FF4C3FF1F94C3FF1FC2
:10467000B0C3FF1FFCC3FF1F44C2FF1FFC92FF1FFC
:104680005492FF1F7C92FF1F4492FF1F4887FF1F19
:1046900000007A4405F034FE05F06EFE074600285F
:1046A000F8D1C34806F02AF9C14806F027F9C048F6
:1046B00006F024F9BE4806F021F9BD4806F01EF9BF
:1046C0001521BC4805F082FEB94806F017F91421FF
:1046D000B94805F07BFEB64806F010F91B21B74833
:1046E00005F074FEB24806F009F91321B44805F04C
:1046F0006DFEAF4806F002F9AD4806F0FFF8AC4891
:1047000006F0FCF82021AF4805F060FEF068AE49E5
:1047100007F09EFC06F0F2FF009702460B46A44805
:1047200006F046F90221A94805F050FE0221A848EA
:1047300005F04CFE9E4806F0E1F82121A54805F061
:1047400045FE3069A04907F083FC06F0D7FF0097CB
:1047500002460B46964806F02BF902219B4805F0CD
:1047600035FE02219A4805F031FE914806F0C6F860
:104770001F21994805F02AFEB06A06F0BFFF022506
:1047800002460B4600958A4806F012F9012193482B
:1047900005F01CFE29468E4805F018FE844806F0F8
:1047A000ADF820218E4805F011FEF06A06F0A6FF54
:1047B000009502460B467E4806F0FAF8012187482C
:1047C00005F004FE2946824805F000FE784806F010
:1047D00095F82321834805F0F9FDF06C7A4907F03C
:1047E00037FC06F08BFF009702460B46704806F038
:1047F000DFF82946754805F0E9FD2946744805F0BB
:10480000E5FD6B4806F07AF81F21774805F0DEFDDC
:10481000306D6D4907F01CFC06F070FF00970246F2
:104820000B46634806F0C4F82946684805F0CEFDFB
:104830002946674805F0CAFD5D4806F05FF8192172
:104840006A4805F0C3FDF16D594806F0A7F82946FE
:10485000674805F0BBFD29465D4805F0B7FD5448A3
:1048600006F04CF81821634805F0B0FDB6F9640075
:1048700007F09AFB604907F0EBFB06F03FFF00955D
:1048800002460B464A4806F093F801215B4805F0C2
:104890009DFD29464E4805F099FD454806F02EF845
:1048A0002B21574805F092FDB069474907F0D0FB2E
:1048B00006F024FF009702460B463D4806F078F8C4
:1048C0002946424805F082FD2946414805F07EFD13
:1048D000374806F013F81F214A4805F077FDB16DFF
:1048E000334806F05BF82946394805F06FFD30483B
:1048F00006F004F82021444805F068FD716D2C484D
:1049000006F04CF82946324805F060FD284805F0CD
:10491000F5FF10213D4805F059FDB16E244806F021
:104920003DF82946294805F051FD2946284805F05B
:104930004DFD1F4805F0E2FF1321354805F046FD07
:10494000F16E1B4806F02AF80121324805F03EFDC1
:1049500029461F4805F03AFD154805F0CFFF102104
:104960002D4805F033FD316F114806F017F8294640
:10497000164805F02BFD2946154805F027FD0C4883
:1049800005F0BCFF1421254805F020FD716F084893
:1049900006F004F801211F4805F018FD29460C48CF
:1049A00005F014FD024805F0A9FF162138E000BF0C
:1049B000C887FF1F7C15010094150100AC1501008C
:1049C000180F0100C815010000007A44740F01009F
:1049D000DC190100EC15010010160100A00A01000D
:1049E00030160100541601007816010098160100D7
:1049F000B4160100B8160100CDCCCC3DD014010096
:104A0000D41601000017010020170100441701000F
:104A1000581701006C17010070170100841701007E
:104A2000BD4805F0D3FC306ABC4907F011FB06F025
:104A300065FE009702460B46B94805F0B9FF2946C6
:104A4000B84805F0C3FC2946B74805F0BFFCB44898
:104A500005F054FF2421B54805F0B8FCD6F8C00095
:104A6000AE4907F0F5FA06F049FE009702460B46FC
:104A7000AB4805F09DFF2946AA4805F0A7FC29464A
:104A8000A94805F0A3FCA64805F038FF2B21A8484B
:104A900005F09CFC706B06F031FE009502460B465B
:104AA0009F4805F085FF0121A24805F08FFC2946AB
:104AB0009D4805F08BFC9A4805F020FF27219E4871
:104AC00005F084FC306C954907F0C2FA06F016FE3A
:104AD00000970B460246924805F06AFF2946914826
:104AE00005F074FC2946904805F070FC8C4805F0F0
:104AF00005FF8B4805F002FF03232360FEF78ABD04
:104B000005F03AFC002840F3DA8185488B4E06F028
:104B100089F807F049FA814907F04EFB0122622328
:104B2000306122602B60B7E5FCF726FD02217E484C
:104B3000824E05F04BFC7A4805F0E0FE02217A48EF
:104B400005F044FC764805F0D9FE0221764805F0D0
:104B50003DFC734805F0D2FE1721794805F036FC7C
:104B60006F4805F0CBFE02216F4805F02FFC6C4822
:104B700005F0C4FE0122622322602B608CE5714B9C
:104B800069486E4E002202211A6005F01FFC64483D
:104B900005F0B4FE0B216C4805F018FCE3E705F0C6
:104BA000EBFB002840F38B815D48644E06F03AF839
:104BB00007F0FAF901226223B06222602B606BE5F4
:104BC00005F0DAFB002840F37A8155485B4E06F089
:104BD00029F807F0E9F901226223F06222602B60D4
:104BE0005AE505F0C9FB002840F369814C48534E53
:104BF00006F018F807F0D8F9484907F0DDFA012265
:104C00006223F06422602B6046E505F0B5FB0028C6
:104C100040F355814248494E06F004F807F0C4F9C4
:104C20003E4907F0C9FA01226223306522602B60F9
:104C300032E505F0A1FB002840F3418138483F4EA2
:104C400005F0F0FF01226223F06522602B6023E56E
:104C500005F092FB002840F332813148374E05F0D1
:104C6000E1FF00EB8000430001216222A6F86430DE
:104C700021602A6010E505F07FFB002840F31F81CA
:104C800027482E4E05F0CEFF07F08EF9234907F096
:104C900093FA01226223B06122602B60FCE405F0EC
:104CA0006BFB002840F30B811D48244E05F0BAFF32
:104CB00001226223706522602B60EDE405F05CFB4D
:104CC000002840F3FC8016481C4E05F0ABFF012283
:104CD0006223306722602B60DEE405F04DFB002884
:104CE00040F3ED800E48154E05F09CFF0122622333
:104CF000706722602B60CFE405F03EFB002840F394
:104D0000DE8007480D4E05F08DFF01226223F0661C
:104D100022602B60C0E400BF9C17010000007A44B1
:104D2000C887FF1F740F0100DC190100B4170100D0
:104D3000DC170100A00A01000818010050C2FF1F83
:104D4000C00E0100F492FF1FD80E010005F014FB05
:104D5000002840F3B480C048C04E05F063FF07F060
:104D600023F9BF4907F028FA012262233064226048
:104D70002B6091E40022732322602B60FEF7E2BBDC
:104D800005F0FAFA002840F39A80B348B34E05F0D4
:104D900049FF07F009F9B24907F00EFA0122622330
:104DA000F06022602B6077E4E4220021AB4803F03E
:104DB00073FB2868AB4AA0F1730001210023B0FA0D
:104DC00080F0400911602360FEF7BABB04F07CFC60
:104DD0000421A54805F0FAFA9F48A04D05F08EFD84
:104DE000D6F8B430002B12DD1821A04805F0EEFAF9
:104DF000D5F8B810984805F0D1FD02219C4805F07F
:104E0000E5FA954805F07AFD934805F077FD1B21FA
:104E1000984805F0DBFA96F8C430012B15BF122133
:104E200014219548954805F0D1FA8B4805F066FDA8
:104E30001F21934805F0CAFA306B06F05FFC02258B
:104E40000B4602460095844805F0B2FD29468D4880
:104E500005F0BCFA804805F051FD13218A4805F0A1
:104E6000B5FA7D4805F04AFD06232360FEF7D2BB64
:104E70000B21864805F0AAFAAEE70D21844805F01B
:104E8000A5FAA9E70D21834805F0A0FAA4E70C21B3
:104E9000814805F09BFA9FE70D21804805F096FABE
:104EA0009AE70C217E4805F091FA95E72368002BDC
:104EB00008BF73280CBF01200020FEF741BB236808
:104EC0002868012B7EF436ABFEF7A3BE2368286862
:104ED000FEF7B3BB05F050FA00287EF7F9AB5E4849
:104EE0005E4E05F09FFE07F05FF86E4907F0B0F8E0
:104EF00061230122706222602B601846FEF789BE92
:104F000005F03AFA00287EF7E3AB5348534E05F01C
:104F100089FE07F049F861230122B06322602B600B
:104F20001846FEF776BE05F027FA0028CEDD4A487F
:104F30004A4E05F077FEC6F8CC0007F035F8D6F8F3
:104F4000E030B26C96F8441000930346FEF7E1BAE5
:104F500005F012FA002860DC404E96F8440017284D
:104F60000FD9002186F844100F46D6F8CC0007F080
:104F70001BF8D6F8E030B26C009339460346FEF7D2
:104F8000C8BA494BC340DB07EBD50746EDE705F050
:104F9000F3F900287EF744AC2F48304E05F042FE6E
:104FA000424BC6F8A80002221A60FCF759FE012203
:104FB0006B2322602B60FEF7C1BD05F0DDF90028F0
:104FC0007EF72EAC2448254E05F02CFE374BC6F854
:104FD000AC000322E8E705F0CFF900287EF720AC0B
:104FE0001D481E4E05F01EFE01226B23C6F89C00D4
:104FF00022602B60FEF7A2BD05F0BEF900287EF707
:105000000FAC1548154E05F00DFE01226B23C6F8B6
:10501000980022602B60FEF791BD0F480F4E05F0FF
:1050200001FEC0B286F8440099E7012283F8C4204B
:10503000FFF7EBB911211E4805F0C8F9064805F045
:105040005DFCFEF7B8BE044805F0ECFD194B0246C6
:105050001860FFF7AABA00BFC887FF1F50C2FF1F22
:1050600000007A442087FF1FA8100100B010010043
:10507000CC100100D0100100EC1001000011010063
:105080001811010038110100180F01009C100100D7
:105090008C1001007C1001006C1001004C1001000C
:1050A0005C1001006F12833A0F3080007C92FF1F6A
:1050B000040F01004887FF1F1C215E4805F086F998
:1050C000D5F890005C4906F0C3FF06F017FB0227F5
:1050D0000B4602460097594805F06AFC05215848DE
:1050E00005F074F9554805F009FCEB6F012B18D158
:1050F0001D21544805F06AF9D5F88C004E4906F098
:10510000A7FF06F0FBFA00970B4602464B4805F056
:105110004FFC05214A4805F059F9484805F0EEFBD7
:10512000EB6F23F00202012A7FF4B6A81C21464847
:10513000464D05F04BF9B6F8BE10404805F02EFC80
:105140000321434805F042F93C4805F0D7FBF36FD3
:10515000012B7FF4A1A81F213E4805F037F9D5F8AF
:10516000940006F021FF3C4906F072FF06F0C6FAF3
:1051700002270B4602460097304805F019FC3946D5
:10518000364805F023F92D4805F0B8FBEB6FFFF723
:1051900083B8334B002631460B201E6003F048FCD9
:1051A00031460C2003F044FC3146142003F040FC4F
:1051B0003146152003F03CFC3B68FFF7D9B92021AC
:1051C000284805F003F91D4805F098FBFFF73AB8A9
:1051D0001721254805F0FAF8184805F08FFBFFF76E
:1051E00031B81E21214805F0F1F8144805F086FB7E
:1051F000FFF728B817211E48144D05F0E7F8D6F838
:105200008030012B08D0022B7FF449A819490B48A4
:10521000FCF7A0F9FFF743B817490848FCF79AF9DB
:10522000D5F88030EFE7094EFFF736BA074EFEF7A4
:1052300085BC00BFAC1401000AD7233CC887FF1F00
:10524000CC140100D4140100F414010050C2FF1F5B
:1052500014150100181501006F12833A381501006A
:10526000F092FF1F0C14010030140100EC13010038
:105270003C150100681501005415010038B5164CA5
:10528000164A2368101D12F8011F904241EA0323B9
:10529000F9D12360124C03F100432360114BDB6F03
:1052A000022B11D0104B1B68012B00D038BD0F48CA
:1052B00005F024FB21680D4805F070FB03210C4824
:1052C000BDE8384005F082B820680A4D06F06CFE53
:1052D0002860FCF787FFE5E7E4C3FF1FC7C3FF1F94
:1052E000E892FF1F50C2FF1FF4C3FF1FC887FF1FB4
:1052F0006C190100DCC3FF1F30B5524C524D5348AE
:1053000083B0214602F030F9D5F880202368012AC5
:1053100067D0022A56D06FF4C0615A18B2F5FF7FE9
:1053200004D848494A48FBF793FC236803F100433B
:105330006FF4C0621344B3F5FF7F03D8414944487A
:10534000FBF786FC434B1B68012B01D003B030BD3B
:10535000414B1B68012BF9D1404B41481B6801931D
:105360000A220023019905F0D9FA2268354B002A58
:10537000DB7960DB3B493C4807F032FE3A4807F0F6
:105380005FFE0146384805F021F825682D4B15F0E1
:10539000804541D1DB798BB1631934491A7A32489F
:1053A00007F01EFE304807F04BFE01462E4805F080
:1053B0000DF80135E379EDB2AB42EDD8284805F0A0
:1053C0009DFAC3E740F22252934222D040F2235288
:1053D000934210D040F2215293429CD12449254857
:1053E0000BE040F2C232934295D1FFF747FFD5F868
:1053F000802023688DE71E491F480D794A79CB78B4
:10540000897802EB052202EB034303EB016303609F
:1054100098E717491948F0E7194D134C0FCD0FC401
:1054200095E8030044F8040B204620F814191521D0
:1054300004F0CCFFC2E713490B4822F0604207F0AA
:10544000CFFD9BE7C0C3FF1F50C2FF1F14C4FF1F47
:10545000FC92FF1F2087FF1FF4C3FF1FBCC5FF1F67
:10546000C887FF1F98190100A0C1FF1FC4190100C0
:1054700098C1FF1FE892FF1F6CC3FF1F68C3FF1F87
:10548000AC19010070190100A54B1B78052B00F029
:10549000A4802DE9F04FA34CA34EA44DB4F8642092
:1054A000B4F86030A248328083B02B80FBF7A0FDB7
:1054B000E16A06F06BFF08B100232B809C48FBF7E4
:1054C00095FDA16A06F080FF10B1002333802B8088
:1054D0009748FBF7BDFCE16806F076FF08B10023B2
:1054E0002B809348FBF7B4FCE16806F06DFF08B130
:1054F00000232B808E488B4FFBF784FC216906F03C
:1055000045FF00286FD000233380B5F90030874F66
:10551000002B50DD8648DFF80C82FBF769FD216B1C
:1055200006F034FF002840F0C680824B80481B689C
:105530007C4F012B00F00081FBF78AFCE16980467B
:10554000606906F07BFC0146404606F03DFF0028FE
:1055500031D0B5F9000006F027FD81467448FBF70D
:1055600077FC7C69F9698246204606F067FCB7F94A
:1055700062308046B7F96000C01A06F015FD41465A
:105580000746504606F05AFC0146384606F060FDD4
:1055900041460746204606F051FC0146384606F0D3
:1055A0000BFE002106F04CFC0146484606F046FC86
:1055B00006F014FF2880B6F900305B4A002BAFBF1D
:1055C000B5F90030B5F9003000211180002B01DA67
:1055D00000232B8003B0BDE8F08F5349534A0023CA
:1055E0000B80138070475248FBF70CFCB96906F03A
:1055F000CDFE002887D1B6F90030DFF82C91002BC2
:1056000083DD4B48FBF7F2FC796B06F0DDFE0028EA
:1056100040F0E3804648434FFBF7F4FB216906F076
:10562000D3FE002800F0CF804148DFF8F880FBF778
:10563000E9FBD4F8C0100746A06906F001FC01465A
:10564000384606F0A3FE00283FF45FAFB6F900002D
:1056500006F0AAFC82463648FBF7D4FB8346B8F92D
:105660006400D8F8187006F09FFC39468146584609
:1056700006F0E4FB49468346002006F0DFFB0146C6
:10568000584606F0E5FCD8F8C0108346384606F0C8
:10569000D7FB394606F0D2FB0146584606F08CFD92
:1056A000494606F0CDFB0146504606F0C7FB06F022
:1056B00095FE308029E7B7F9000006F075FC8346B7
:1056C0001B48FBF795FC0190B8F96000D8F82CA0B6
:1056D00006F06AFC019B81465146184606F0AEFB77
:1056E00049460190002006F0A9FB019B014618469F
:1056F00006F0AEFC51460190D8F8300006F09EFB53
:10570000019B0146184606F057FD494606F098FBF6
:105710000146584606F092FB06F060FE388004E72A
:1057200040C2FF1F50C2FF1FE0C3FF1F7892FF1F40
:10573000FC92FF1F8492FF1FFBF78AFBE169804602
:10574000206A06F07BFB0146404606F03DFE00283D
:105750003FF431AFB5F9000006F026FC824636482A
:10576000FBF776FBD7F82080F9698346404606F0C0
:1057700065FB8146B7F9620006F016FC0446B7F9EE
:10578000600006F011FC214606F058FB494607462A
:10579000584606F053FB0146384606F059FC494688
:1057A0000746404606F04AFB0146384606F004FD2F
:1057B000214606F045FB0146504606F03FFB06F049
:1057C0000DFE2880F7E61C48FBF71CFBB96906F0C4
:1057D000FBFD00287FF428AF97E6B9F9000006F03A
:1057E000E3FB82461448FBF701FC0190B7F9640023
:1057F000D7F8348006F0D8FB019B83464146184613
:1058000006F01CFB0146584606F022FC4146834642
:10581000B86A06F013FB0146584606F0CDFC00219D
:1058200006F00EFB0146504606F008FB06F0D6FDDA
:10583000A9F80000EEE600BFFC92FF1F08B527485C
:1058400005F05CF80721264804F0C0FD112003F0A4
:10585000F5F80621F8B1234804F0B8FD122003F052
:10586000EDF8062100B3204804F0B0FD122003F04B
:10587000E5F8062108B31D4804F0A8FD132003F045
:10588000DDF8062110BB1A4804F0A0FD1348BDE85E
:10589000084005F033B8174804F098FD122003F0D3
:1058A000CDF806210028DED1134804F08FFD122028
:1058B00003F0C4F806210028DDD1104804F086FD6D
:1058C000132003F0BBF806210028DCD00C4804F0BC
:1058D0007DFD0248BDE8084005F010B8C887FF1FED
:1058E000D0190100D8190100E8190100F8190100C8
:1058F000101A0100E0190100F0190100001A01005E
:10590000081A010010B5254C2368042B27DC01215F
:105910000B2003F08DF801210C2003F089F8012100
:10592000142003F085F80121152003F081F8FF21F0
:10593000162002F0FDFEFF21172002F0F9FEFF21E4
:10594000052002F0F5FEFF21062002F0F1FE23689B
:1059500001330A2B2360C4BF0023236010BD002144
:105960000B2003F065F800210C2003F061F8002102
:10597000142003F05DF80021152003F059F80021F0
:10598000162002F0D5FE0021172002F0D1FE0021E2
:10599000052002F0CDFE0021D6E700BF4C92FF1F8C
:1059A00030B5092183B0B64803F05EFB222003F036
:1059B00003FBB44BD3F8A430012BB34B1B7809D0B5
:1059C000052B10D8DFE813F03D0142014C015101D5
:1059D00047010B00002B00F04D81052B03D107215F
:1059E000AA4803F041FB222003F0E6FAFF2003F06F
:1059F000E3FAFF2003F0E0FAA54CFF2003F0DCFA05
:105A00000821A44803F030FB2168A34804F0C6FF36
:105A1000FF2003F0D1FAFF2003F0CEFAFF2003F0BD
:105A2000CBFA09219D4803F01FFB21689A4804F036
:105A3000B5FFFF2003F0C0FAFF2003F0BDFAFF20FE
:105A400003F0BAFA0C21964803F00EFB954B9649E9
:105A5000186806F0B1FB05F051FE002402460B4623
:105A600000948D4804F0A4FFFF2003F0A5FAFF2066
:105A700003F0A2FAFF2003F09FFA222003F09CFA21
:105A8000FF2003F099FAFF2003F096FAFF2003F0BD
:105A900093FA0921854803F0E7FA8548FBF742FAB3
:105AA00005F02CFE009402460B467B4804F080FF74
:105AB000FF2003F081FAFF2003F07EFAFF2003F0BD
:105AC0007BFA0C217B4803F0CFFA7948FBF790FA78
:105AD00005F014FE009402460B466F4804F068FF80
