:1000000000800020BD0100009178000049780000C8
:1000100049780000497800004978000049780000DC
:100020004978000049780000497800009178000084
:1000300091780000497800009D910000A192000095
:10004000917800009178000091780000917800008C
:10005000917800009178000091780000917800007C
:10006000917800009178000091780000917800006C
:10007000917800009178000091780000917800005C
:10008000917800009178000091780000917800004C
:10009000917800009178000091780000917800003C
:1000A000917800009178000091780000917800002C
:1000B00091780000656C0000716C0000756C0000A8
:1000C000816C0000856C0000896C00009178000054
:1000D00091780000917800009178000091780000FC
:1000E00091780000917800009178000091780000EC
:1000F000917800006598000091780000057F00006D
:10010000917800001D820000917800009178000035
:1001100091780000917800009178000091780000BB
:1001200091780000917800009178000091780000AB
:10013000917800009178000091780000917800009B
:10014000917800009178000091780000917800008B
:10015000917800009178000091780000917800007B
:100160009178000069840000917800009178000087
:10017000917800009178000091780000917800005B
:10018000917800009178000091780000917800004B
:10019000917800009178000091780000917800003B
:1001A000917800009178000091780000917800002B
:1001B000917800009178000091780000564B4CF245
:1001C000205210B51A804DF628121A8000BF00BFC9
:1001D00007F062FB514B4FF010621A60504A9A6070
:1001E000504ADA60504A136813F4807304D14F49BF
:1001F0000B604FF4A85313604D4B1A78110703D5C9
:100200001A7842F008021A704A4B4B492A221A7097
:100210004A4A4B4B8B4204D252F8040F43F8040B6A
:10022000F8E7484B484900228B4202D243F8042B9E
:10023000FAE74649464A002352F8230041F82300D2
:1002400001336F2BF8D1434B434A802103F8011B44
:100250009342FBD1414B3D4A1A60414B8A221A70AE
:10026000A3F5805324225A70A0221A709A7992071B
:10027000FCD59A79D406FCD43A4A937903F00C035E
:10028000082B384BF9D103221A7140225A719A79FE
:100290009006FCD5334A9179324B4906FBD5324A58
:1002A000324911600221516020221A709A7902F0BD
:1002B0000C020C2AFAD12E4B2E4A1A602E4B2F4AD2
:1002C0001A6000225A60072243F8042C2C4AC3F813
:1002D0000C2D62B607F096FD144B1B68DA0705D5A6
:1002E000284807F073FB284B284A1A60284B1B78D4
:1002F0005B0609D5244C254B22689A4204D121483B
:1003000007F064FB002323600BF0B0FD07F0CAFA8E
:1003100009F068F9FEE700BF0E2005403080044078
:10032000823F04000100002B10D0034014D0034092
:1003300002D0074000E007402092FF1FEC180100A8
:100340002087FF1F2092FF1FECC5FF1F0082FF1FA9
:100350000000000000E400E05FE400E008ED00E0E1
:100360000050064000400640448004400000030165
:1003700004800440C010050014E000E0FF76010096
:1003800000002020ED74325C1CE00340A5C3945AA9
:1003900000F00740FFFFFFFFFFFFFFFFFFFFFFFF32
:1003A000FFFFFFFFFFFFFFFFFFFFFFFFFFFFFFFF5D
:1003B000FFFFFFFFFFFFFFFFFFFFFFFFFFFFFFFF4D
:1003C000FFFFFFFFFFFFFFFFFFFFFFFFFFFFFFFF3D
:1003D000FFFFFFFFFFFFFFFFFFFFFFFFFFFFFFFF2D
:1003E000FFFFFFFFFFFFFFFFFFFFFFFFFFFFFFFF1D
:1003F000FFFFFFFFFFFFFFFFFFFFFFFFFFFFFFFF0D
:10040000FFFFFFFFFFFFFFFFFFFFFFFFDEF9FFFF23
:1004100010B5054C237833B9044B13B10448AFF33E
:1004200000800123237010BD2092FF1F00000000F8
:10043000E8180100084B10B51BB108490848AFF394
:1004400000800848036803B910BD074B002BFBD0A0
:10045000BDE81040184700BF000000002492FF1FB5
:10046000E81801002092FF1F00000000F0B400F126
:100470001C06134F00243146031F00F13C0243F8D1
:10048000044FB34241F8047F4FF0000542F8044F97
:10049000F5D10C4A0C490566002345668566C5669C
:1004A000056745678567C0F88850C267C0F8842033
:1004B000C0F8801080F8903080F8A830F0BC704709
:1004C0000000A040000048430000C8C22DE9F041F0
:1004D00090F8A84084B0202364008DF80530E4B281
:1004E000042380468DF804408DF80630032720460B
:1004F00007F030FE02210DF1050007F035FE8DF802
:10050000044005F035FD30B30921404808F0E0FC17
:100510000023102221463E4808F0DCFE01213D4820
:1005200008F0D6FC002310229DF80510384808F08A
:10053000D1FE0121374808F0CBFC002310229DF8A2
:100540000610334808F0C6FE0121324808F0C0FC0E
:100550002F4808F0AFFE02208DF8044007F004FC9D
:1005600005F006FD00284CD102AE002407F012FE73
:1005700070B3072C1FD101E007F01CFE07F00AFE44
:100580000028F9D105F0F4FC10B1214808F092FEE2
:100590009DF80B009DF80C109DF80D209DF80E3075
:1005A000C8F89400C8F89810C8F89C20C8F8A03083
:1005B00004B0BDE8F08107F0FDFD054606F8010B2B
:1005C00005F0D6FC70B9013407F0E4FD0028D0D165
:1005D000072CD3D005F0CCFC78B9013FD8D09DF8DA
:1005E000044084E7E9B200231022094808F072FEB3
:1005F0000121084808F06CFCE5E7054808F05AFEC0
:10060000EBE70721044808F063FCADE718000100A0
:10061000C487FF1FFC0601002400010090F8980029
:10062000704700BF90F89400704700BF90F89C009E
:10063000704700BF90F8A000704700BF082994BF22
:1006400050F82100002070472DE9F0410B4E804604
:10065000041F00F11C0754F8045F314628460BF0D4
:100660007BFB30B1D8F88C1028460BF093FB00B11F
:100670002E46BC42EFD13046BDE8F081000020415B
:100680002DE9F041D0F88C704FF00008041F00F104
:100690001C0654F8045F394628460BF07BFB0849DA
:1006A00048B128460BF058FB414620B128460BF0D4
:1006B00071FB00B1A846B442EBD14046BDE8F081E1
:1006C000000070422DE9F047D0F88C7082464FF060
:1006D0000009041F00F11C064FF0000854F8045FE5
:1006E000394628460BF056FB0C4950B128460BF012
:1006F00033FB30B1484629460BF088F808F1010871
:100700008146B442EAD1CAF8AC8040460BF032F9D7
:10071000014648460BF036FABDE8F087000070420B
:10072000D0F8AC00704700BF38B5846E456E2146E6
:1007300028460BF011FB00B92C46204638BD00BFFF
:10074000D0F8A4302DE9F041002B79D1866E456EAA
:100750000446314628460BF059F8E76E3946804684
:100760000BF054F87E490BF00DFA4FF07C51044623
:100770000BF010FB002861D04FF07C5128460BF0A5
:1007800009FB4FF07C51002860D128460BF0E4FAB9
:1007900038B14FF07C5130460BF0FCFA002840F0A5
:1007A000A7804FF07C5128460BF0F4FA002860D166
:1007B0004FF07C5128460BF0EDFA002840F0A18064
:1007C0004FF07C5128460BF0E5FA00286CD14FF031
:1007D0007C5128460BF0C0FA4FF07C5110B33046E4
:1007E0000BF0D8FA38B14FF07C5138460BF0B4FA20
:1007F000002840F0B0804FF07C5130460BF0ACFA4E
:10080000002861D04FF07C5138460BF0C3FA002825
:1008100040F0A38038464FF07C510BF09DFA68B150
:10082000504C10E028460BF097FA0028E3D12846F8
:100830004FF07C510BF090FA002845D1BDE8F081D3
:1008400000EB8300046E2046BDE8F08130460BF0DB
:10085000A1FA4FF07C5100283ED038460BF09AFAAE
:100860000028F0D14FF07C5128460BF075FA002893
:1008700059D14FF07C5130460BF06EFA002840D031
:100880004FF07C5138460BF085FA002841D14FF0EB
:100890007C5130460BF07EFA68B14FF07C513846FF
:1008A0000BF05AFA00284FD14FF07C5130460BF034
:1008B00053FA00288BD04FF07C5138460BF04CFA9D
:1008C000002884D02C46BEE730464FF07C510BF018
:1008D00043FA0028B2D09DE728460BF03DFA0028E5
:1008E000C7D04FF07C5130460BF054FA0028C0D0EE
:1008F0004FF07C5138460BF04DFA00283FF451AFD1
:1009000018E04FF07C5130460BF044FA0028CBD071
:10091000C3E7394628460AF079FF4FF07C510BF0C7
:100920007DF804468FE74FF07C5138460BF032FAE1
:1009300000289ED0394630460AF068FF4FF07C51BF
:100940000BF06CF804467EE740464FF07C510BF00C
:1009500065F8044677E7344675E73C4673E700BF21
:10096000000040400000A0C270B50446FFF7E8FE5A
:100970004FF07C510BF00EFA28B3666E4FF07C51AD
:1009800030460BF007FAA56EF0B9E46E4FF07C51DB
:1009900028460BF0FFF958B1294630460BF0FAF91A
:1009A00030B1214628460BF0D7F908B12C4620E09B
:1009B0004FF07C5120460BF0EDF920B1284621463E
:1009C0000BF0E8F978B970BD304629460BF0C4F950
:1009D000E46E0028DAD0304621460BF0BDF900283D
:1009E000D4D0344605E0304621460BF0D3F9002838
:1009F000E9D0204670BD00BF01392DE9F84380469B
:100A00001546032900F2E280DFE801F0AE855C02C2
:100A1000537B107B03EB00200AF0ACFF6D490AF01A
:100A2000FDFFC8F81800EB7BA87B03EB00200AF061
:100A3000A1FF68490AF0F2FFD8F86860D8F864703E
:100A4000D8F80040C8F81C004046FFF78DFFD8F8E2
:100A50007C1005460BF080F908B1C8F87C50394687
:100A600030460BF097F9002840F0A7803946D8F8B7
:100A700080000BF071F910B13E46C8F8806008F1B3
:100A80002006C14608F14005002701E059F8044F4F
:100A9000306821460BF07EF90137214628B1D8F89D
:100AA0008C000BF063F900B13460214628680BF02C
:100AB00053F9043600B12C60082F05F10405E5D187
:100AC000BDE8F883507A32380AF054FFC8F8740051
:100AD000A87A32380AF04EFFC8F878006B7B287B82
:100AE00003EB00200AF046FF3A490AF097FFC8F8E6
:100AF0001000EB7BA87B03EB00200AF03BFF35499D
:100B00000AF08CFFD8F86860C8F81400D8F8647050
:100B1000D8F8004098E7507A32380AF02BFFC8F82E
:100B20006C00A87A32380AF025FFC8F870006B7B99
:100B3000287B03EB00200AF01DFF26490AF06EFF18
:100B4000C8F80800EB7BA87B03EB00200AF012FF3B
:100B500020490AF063FFD8F86860C8F80C00D8F89C
:100B60006470D8F800406FE7137AC0F8B030907A1C
:100B700032380AF0FFFEC8F864000746E87A3238D7
:100B80000AF0F8FEC8F868006B7B0646287B03EB8A
:100B900000200AF0EFFE0F490AF040FFC8F80000FD
:100BA000EB7B0446A87B03EB00200AF0E3FE094937
:100BB0000AF034FFC8F8040046E7D8F88010304641
:100BC0000BF0E8F800287FF458AF58E7866E476EC0
:100BD000046839E70AD7233C2DE9F04F90F8A83094
:100BE00091B007465B008DF80830FFF76FFCD7F82F
:100BF0009C00D7F8A040D7F89830D7F8942097F801
:100C0000A8108DE81100C94805F0ACFA30223D2348
:100C100003268DF809208DF80A300DF10A059DF89C
:100C2000089049F00108404607F094FA0DF10900D8
:100C3000022107F099FA8DF80880424602AB0020A5
:100C40005040082410F0800F4FEA400018BF80F099
:100C50000700013CC0B2F5D19D4202D013F8012F2C
:100C6000EEE707F077FA05F083F9002840F07C8280
:100C700002208DF8089007F077F805F079F9002840
:100C800040F0B8820DF10C0AD146002407F082FA38
:100C9000002843D0032C34D101E007F08BFA07F091
:100CA00079FA0028F9D105F063F910B1A04808F0ED
:100CB00001FB312303268DF809308DF80A609DF879
:100CC000089049F00108404607F044FA0DF1090088
:100CD000022107F049FA8DF80880424602AB002055
:100CE0005040082410F0800F4FEA400018BF80F0F9
:100CF0000700013CC0B2F5D19D4228D013F8012F66
:100D0000EEE707F057FA09F8010B804605F030F9D5
:100D100068B9013407F03EFA0028BBD1032CBED0DD
:100D200005F026F978B9013E7FF479AFC1E75FFAA3
:100D300088F1002310227E4808F0CCFA01217D487A
:100D400008F0C6F8E5E77A4808F0B4FAEBE707F0F0
:100D500001FA05F00DF9002840F0C58102208DF858
:100D6000089007F001F805F003F9002840F03D82F3
:100D70000DF10C09002407F00DFA002844D0032CD3
:100D800035D101E007F016FA07F004FA0028F9D18E
:100D900005F0EEF810B1664808F08CFA3422012311
:100DA0008DF809208DF80A3003269DF8089049F047
:100DB0000108404607F0CEF90DF10900022107F0C5
:100DC000D3F98DF80880424602AB00205040082439
:100DD00010F0800F4FEA400018BF80F00700013C80
:100DE000C0B2F5D19D4228D013F8012FEEE707F0ED
:100DF000E1F909F8010B804605F0BAF868B9013449
:100E000007F0C8F90028BAD1032CBDD005F0B0F81E
:100E100078B9013E7FF453AFC0E75FFA88F1002351
:100E20001022434808F056FA0121424808F050F8D1
:100E3000E5E73F4808F03EFAEBE707F08BF905F0ED
:100E400097F8002840F00E8102208DF8089006F0F7
:100E50008BFF05F08DF8002840F0D6810DF10C09CC
:100E6000002407F097F9002800F08480032C72D149
:100E700001E007F09FF907F08DF90028F9D105F09E
:100E800077F810B12A4808F015FA012212238DF8DC
:100E900009208DF80A304FF003089DF808402046DD
:100EA00007F058F902210DF1090007F05DF98DF8FE
:100EB000084005F05DF830B309211F4808F008F834
:100EC0000023102221461A4808F004FA012119488B
:100ED00007F0FEFF002310229DF80910144808F0C7
:100EE000F9F90121134807F0F3FF002310229DF8C0
:100EF0000A100F4808F0EEF901210E4807F0E8FF4C
:100F00000B4808F0D7F906208DF8084006F02CFFB2
:100F100005F02EF8002840F0728103AD002607F09E
:100F200039F900283FD0162E2FD109E02C000100FE
:100F3000C487FF1FFC0601001800010007F03AF902
:100F400007F028F90028F9D105F012F81626002834
:100F50007DD1152035E007F02DF909F8010B804609
:100F600005F006F800285BD1013407F013F90028DA
:100F70007FF47CAF032C3FF47EAF04F0F9FF002830
:100F80006CD1013E7FF411AF7FE707F013F905F84C
:100F9000010B044604F0ECFF00284DD1013607F0A8
:100FA000F9F80028BFD1162ECAD004F0E1FF0028BE
:100FB0004DD1B8F101087FF470AF701E002840F3E6
:100FC0002482002303AA1C4612F8011B08254C406A
:100FD00014F0800F4FEA440418BF84F00704013D69
:100FE000E4B2F5D101338342EEDB9DF821808948DC
:100FF0004146224605F0B6F8162EC146A34602D158
:10100000A04500F0138197F8A8108348CDF800B0F0
:101010004B46324605F0D4F8002011B0BDE8F08F01
:101020005FFA88F1002310227C4808F053F901216F
:101030007B4807F04DFF97E7E1B200231022774885
:1010400008F048F90121764807F042FFA6E7734807
:1010500008F030F9162EACD11520B2E76F4808F031
:1010600029F98EE709216F4807F032FF2346102245
:1010700041466A4808F02EF90121694807F028FF27
:10108000234610229DF80910644808F023F9012135
:10109000634807F01DFF102223469DF80A105F48A1
:1010A00008F018F901215E4807F012FF21460DF102
:1010B0000B0002AA12F8014B6140C9B2082311F0DB
:1010C000800F4FEA410118BF81F00701013BC9B20F
:1010D000F5D19042EED11022504808F0FBF84F486D
:1010E00008F0E8F8B0E609214E4807F0F1FE234683
:1010F00010224146494808F0EDF80121484807F020
:10110000E7FE234610229DF80910444808F0E2F853
:101110000121434807F0DCFE102223469DF80A1007
:101120003E4808F0D7F801213D4807F0D1FE21469E
:101130000DF10B0002AA12F8014B6140C9B208235D
:1011400011F0800F4FEA410118BF81F00701013B08
:10115000C9B2F5D19042EED11022304808F0BAF869
:101160002E4808F0A7F8F9E509212E4807F0B0FE4F
:10117000234610224146294808F0ACF801212848AE
:1011800007F0A6FE234610229DF80910234808F018
:10119000A1F80121224807F09BFE102223469DF86A
:1011A0000A101E4808F096F801211D4807F090FE2D
:1011B00021460DF10B0002AA12F8014B6140C9B2A1
:1011C000082311F0800F4FEA410118BF81F0070199
:1011D000013BC9B2F5D19042EED110220F4808F080
:1011E00079F80E4808F066F842E507210E4807F046
:1011F0006FFEBDE507210C4807F06AFE42E50721B6
:10120000094807F065FE88E60721074807F060FEF9
:1012100024E600BF60000100AC000100C487FF1F8E
:10122000FC06010018000100240001009DF80C30AC
:1012300097F8A820B3EB420F7FF4EEAE9DF80D3087
:10124000012B7FF4E9AE9DF80E30122B7FF4E4AE53
:101250009DF810309DF80F0003EB00200AF08AFB88
:1012600072490AF0DBFBD7F88810386604460AF0AA
:1012700091FD08B1C7F88840D7F8841020460AF0DD
:101280006BFD08B1C7F88440A7F1040907F12006F7
:1012900007F140054FF008089AF806309AF8050063
:1012A00003EB00200AF066FB61490AF0B7FB49F83E
:1012B000040F316804460AF04FFD0AF1020A30B10A
:1012C000D7F88C1020460AF05BFD00B13460296825
:1012D00020460AF05FFD043600B12C60B8F1010829
:1012E00005F10405D8D19DF81E309DF81D0003EBD3
:1012F000002002300AF03EFB4E490AF043FC014652
:101300004D480AF03FFC4D490AF07EFA4C490AF07C
:1013100085FB054608F0F0FB0446284608F0ECFB88
:10132000484908F05BFC4849054620460AF076FB30
:1013300046490AF06BFA4649044628460AF06EFB15
:10134000014620460AF062FA01464FF07E500AF04C
:1013500019FC40490AF058FA9DF81F209DF82030EA
:10136000786603EB022009300AF004FB3A490AF0E0
:1013700009FC014630480AF005FC30490AF044FAFD
:101380002F490AF04BFB054608F0B6FB04462846F9
:1013900008F0B2FB2B4908F021FC2B4905462046FA
:1013A0000AF03CFB29490AF031FA2949044628464B
:1013B0000AF034FB014620460AF028FA01464FF0B5
:1013C0007E500AF0DFFB23490AF01EFAB866044695
:1013D0003846FFF7C9FAF96F05460AF0BDFC00B1BF
:1013E000FD677D6E204629460AF0D4FCB0B9294637
:1013F000D7F880000AF0B0FC10B12C46C7F8804046
:10140000164804F0AFFE012007E69DF8219014482D
:1014100049464246C34604F0A5FEF4E5D7F88010DD
:1014200020460AF0B7FC0028E8D1E9E71357053B4E
:101430002003C839001601470AD7E33FE17A644028
:1014400000007A4400004040A40D8F395A80473A8A
:1014500046A6DB3333938843002C01478400010008
:10146000600001002DE9F8430026D0F88C80066664
:101470008146044600F1200754F8045B41462846A3
:101480000AF088FC084950B128460AF065FC30B1E2
:10149000304629460AF0BAF90646C9F86000BC424F
:1014A000EAD13046BDE8F8830000704205299ABFB2
:1014B00000EB8100406E0020704700BF3E2998BFBE
:1014C00080F8A810704700BF90F89000704700BFE8
:1014D000C0F8A410704700BF80F89010704700BF9C
:1014E00030B50F4CC0F88C1083B020460D4607F085
:1014F000E1FE204607F0DEFE284609F0E5FD022564
:1015000002460B460095204607F02EFF204607F0C6
:10151000D1FE204603B0BDE8304007F0CBBE00BF8F
:10152000C487FF1F70B500F5315506462C3500F114
:1015300020042046B434FEF799FFAC42F9D106F1FD
:10154000D405012428460021FFF7C6FF214628467E
:101550000134FFF7B3FF3F2C05F1B405F2D142F699
:10156000744400250548064A064B35550021306174
:101570007161B261F361304670BD00BF00007A4412
:10158000000048430000C8C22DE9F04142F678430C
:1015900000F53156374600228046C2502C36383787
:1015A00000F1D40402E0B434B4420DD02046FFF779
:1015B0008BFF0028F7D020463D68FFF7B1F8B43420
:1015C0002844B4423860F1D142F6784358F8030019
:1015D000BDE8F081F8B50E46096801F47F65002981
:1015E0000446A5F5C06511DB2D0901F00F07B423F2
:1015F00003FB0544203420460121FFF76DFF3246EE
:1016000039462046BDE8F840FFF7F6B90A4801F030
:101610000F0707F04FFE1221084807F059FC316808
:10162000054801F0004100230A2207F053FE02485A
:101630002D0907F03FFEDAE7C487FF1FFC00010019
:10164000704700BF704700BF2DE9F04304460023F8
:1016500083B0064644F8D43B012504E001353F2D14
:1016600004F1B40469D02046FFF72EFF0028F5D01E
:10167000504804F077FD29464F4804F073FD20469A
:10168000FFF7AAFA2046FFF7EDFE09F01DFD02461E
:101690000B464A4804F066FD2046FEF7D5FF80461B
:1016A0002046FEF7EDFF0746404609F00DFD804657
:1016B0003846894609F008FD42464B46CDE900010F
:1016C0003F4804F04FFD00212046FFF7EFFE0121C7
:1016D00080462046FFF7EAFE0746404609F0F4FC44
:1016E00080463846894609F0EFFC42464B46CDE934
:1016F0000001344804F036FD2046FFF7B3FE0146F2
:1017000030680AF083F830602046FFF72DF9B169A0
:101710000AF022FB002833D12046FFF705F8F169D3
:101720000AF038FB002899D02046FEF7FDFF01356E
:101730003F2DF06104F1B40495D170680AF01AF9F4
:10174000014630680AF01EFA7169306004460AF0FA
:1017500021FB00B17461316920460AF0FDFA00B145
:1017600034610B2006F0CAFA42F67443F35C60B9A8
:101770009BB142F674430122F25403B0BDE8F083FA
:101780002046FFF7F1F8B061C6E753B942F674435B
:101790000022F25403B0BDE8F0830B4804F010FDC2
:1017A000E7E70A4804F0F6FC42F674430022F254DC
:1017B000F0E700BFF8020100100101004C01010038
:1017C000600101008C010100A8010100E00101009D
:1017D00070B5114B836000F5315506462C3500F18C
:1017E000D40402E0B434AC4213D02046FFF76CFEC0
:1017F0000028F7D02046FEF727FFB1680AF0ACFAC0
:101800000028EFD02046FEF71FFFB434AC42B06092
:10181000EBD1B06870BD00BF0000A04070B50023E0
:1018200000F531550646C3602C3500F1D40402E0C2
:10183000B434AC4213D02046FFF746FE0028F7D060
:101840002046FEF71DFFF1680AF0A4FA0028EFD049
:101850002046FEF715FFB434AC42F060EBD1F068DF
:1018600070BD00BF0068704741607047F8B500F573
:1018700031550F4616462C3500F1D40402E0B4343D
:10188000AC420FD02046FFF71FFE0028F7D02046BD
:101890003946FFF71DFE20463146B434FFF720FEDF
:1018A000AC42EFD1F8BD00BF2DE9F84300F531554A
:1018B00042F670432E4600278146C7504FF000087D
:1018C0002C35303600F1D40402E0B434AC4213D0ED
:1018D0002046FFF7F9FD0028F7D033680133336065
:1018E0002046FEF72DFF0F490AF054FA88B9B434A8
:1018F000AC4207F10107EBD142F6704359F80300FF
:10190000C01B0AF037F8014640460AF03BF9BDE833
:10191000F8832046FEF714FF0146404609F076FFA3
:101920008046D2E700008CC2F8B500F53155074675
:1019300000262C3500F1D40402E0B434AC420FD0C0
:101940002046FFF7C1FD0028F7D02046FEF7BAFE7B
:101950000146304609F05AFFB434AC420646EFD196
:1019600042F67043F8580AF005F8014630460AF08E
:1019700009F9F8BD2DE9F04F06468DB0934804F003
:1019800099FB924804F096FB904804F093FB42F6D2
:1019900070433046F758FFF7F7FD0B90306809F0B9
:1019A00093FB044630460D46FFF7BEFF0A90B06831
:1019B00009F08AFB8246F0688B4609F085FB804679
:1019C00030468946FFF770FF09F07EFB0A9BCDE9A0
:1019D00008011846CDE904ABCDE9068909F074FB8E
:1019E0000B9ACDE90201CDE900453946784804F06B
:1019F00061FB764804F05EFBD4364FF001094FF0EE
:101A0000000A07E009F10109B9F13F0F06F1B40638
:101A100000F0D3803046FFF757FD0028F2D0304663
:101A2000FEF7FCFD3046FEF7FDFD3046FEF7FEFDFD
:101A30003046FEF7FFFD0821664807F049FA49469F
:101A4000654807F087FCB9F1090F40F3B98002211E
:101A5000624807F03DFA3046FFF704FD09F034FB19
:101A6000022402460B4600945B4807F07DFC0121EE
:101A70005B4807F02DFA554600241FE0062159481F
:101A800007F026FA2946544807F064FC022156481C
:101A900007F01EFA21463046FEF7D0FD09F014FB90
:101AA000009702460B464C4807F05EFC01340121CA
:101AB0004B4807F00DFA082C0BD04546092D4FF086
:101AC000020705F10108D9DC0121484807F000FAB6
:101AD000D4E7414807F0EEFB0921454807F0F8F943
:101AE00000213046FFF7E2FC09F0EEFA00970246CB
:101AF0000B46394807F038FC0A213E4807F0E8F960
:101B000001213046FFF7D2FC09F0DEFA00970246C9
:101B10000B46314807F028FC0A21374807F0D8F96E
:101B200039463046FFF7C2FC09F0CEFA009702466C
:101B30000B46294807F018FC0A21304807F0C8F97D
:101B400003213046FFF7B2FC09F0BEFA00970246C7
:101B50000B46214807F008FC0A21294807F0B8F98C
:101B600004213046FFF7A2FC09F0AEFA00970246C6
:101B70000B46194807F0F8FB0A21224807F0A8F99C
:101B800005213046FFF792FC09F09EFA00970246C5
:101B90000B46114807F0E8FB01211B4807F098F9B4
:101BA00009F101090C4807F085FBB9F13F0F0AF173
:101BB000080A06F1B4067FF42DAF0DB0BDE8F08F32
:101BC00001210A4807F084F941E700BFF80201004B
:101BD0009004010010050100C487FF1F941201004A
:101BE0001C05010020050100EC060100FC060100B7
:101BF0002805010034050100400501004C050100E5
:101C00005805010064050100700501002DE9F0414F
:101C100000F1D40582B0012705E001373F2F05F11F
:101C2000B40500F08B802846FFF74EFC0028F4D066
:101C30003946444807F08EFB0121434807F048F934
:101C400000244FF0020821462846FEF7F7FC09F071
:101C50003BFACDF8008002460B463A4807F084FB79
:101C600001340121384807F033F9082C4FF00206FF
:101C7000E9D100212846FFF719FC09F025FA009662
:101C800002460B462F4807F06FFB01212E4807F054
:101C90001FF901212846FFF709FC09F015FA009603
:101CA00002460B46274807F05FFB0121264807F054
:101CB0000FF931462846FFF7F9FB09F005FA0096BF
:101CC00002460B461F4807F04FFB01211E4807F054
:101CD000FFF803212846FFF7E9FB09F0F5F9009624
:101CE00002460B46174807F03FFB0121164807F054
:101CF000EFF804212846FFF7D9FB09F0E5F9009633
:101D000002460B460F4807F02FFB01210E4807F053
:101D1000DFF805212846FFF7C9FB09F0D5F9009641
:101D200002460B46074807F01FFB0137054807F03E
:101D3000C1FA3F2F05F1B4057FF475AF02B0BDE8DD
:101D4000F08100BFC487FF1F74050100F8B531485A
:101D5000314C324F324E04F0ADF9324B324A3349F6
:101D600033485A60012510221A701D72314A324DD3
:101D7000D9601C6131495861002431485F621E629C
:101D8000304F9A614FF07C562F4A9D62D9622F4D99
:101D90001C630E2140F61C4458630A209F635E6456
:101DA00041F204075A269A64DD640222284D19651F
:101DB0009C6600216424D8664FF496701F675E67A6
:101DC000DD61DD6383F8401099675866D8654FF48C
:101DD0007A7741F28830FF265A705A725A65052583
:101DE0009C65DA67C3F88010C3F89C103221C3F8F1
:101DF000AC20C3F8B040C3F89870C3F8A460A3F84F
:101E0000B650C3F89000A3F8B400C3F89410C3F818
:101E1000A010F8BD7805010000004040CDCCCC3DBD
:101E2000333373402C93FF1F20A107006666864062
:101E300033338340CDCC4C4000008242000020C1AF
:101E4000000020420000A0409A9979400AD7233D23
:101E5000CDCC4C3EF0B54FF47A6085B005F084FFF0
:101E600000210E2005F058FF00210F2005F054FF3F
:101E70000021112005F050FF0021102005F04CFF3B
:101E80000021122005F048FF0021132005F044FF37
:101E900001210B2005F040FF01210C2005F03CFF43
:101EA0000121142005F038FF0121152005F034FF31
:101EB0000121162005F030FF0121172005F02CFF2D
:101EC0000121052005F028FF8E4C8F4D01210620B1
:101ED00005F022FF01210D2005F01EFF208809F0EA
:101EE00045FD0146162005F081FE208809F03EFDE3
:101EF0000146172005F07AFE208809F037FD0146DB
:101F0000052005F073FE208809F030FD002401460D
:101F1000062005F06BFE009423467C4A7C497D48F0
:101F200004F048FBE6B2324677497A4804F0F0FA0A
:101F30002B79754977486FF30003013432462B71D2
:101F400004F0DCFA082CEDD10924E6B232466E49E1
:101F5000704804F0DDFA2B796B496E4843F00103B9
:101F6000013432462B7104F0C9FA0D2CEDD16A4CC4
:101F70004FF0FF322068102104F0E8FE20684FF097
:101F8000FF32102104F0BAFE20684FF0FF32022128
:101F900004F0C8FE20684FF0FF32022104F0CCFEAE
:101FA00000220E21206804F0DBFE0C215B4806F0C5
:101FB0008FFF5B4807F07EF914215A4806F088FF2E
:101FC000574807F077F9564807F074F91721564833
:101FD00006F07EFF524807F06DF9544B1B789A06C5
:101FE00000F1BE80514B1B781B0700F1C5804F4BA1
:101FF0001B785F0700F1CC804C4B1B789E0700F1EB
:10200000D3804B4B1B781D0600F1DA80484B1B78C0
:102010005C0600F1E180464B1B78980600F1E880F1
:10202000434B1B78590700F1EF80414B1B781A078F
:1020300000F1F6803E4B1B789B0700F1FD8038488D
:1020400007F038F972B63B4A4CF220534DF628118E
:102050002024138023461180013BFDD1364D3748A3
:10206000374900234FF480562E8003800B8032F8CE
:102070000E3C9BB243F0D30322F80E3C62B69D2087
:1020800006F018F821462F482F4D06F021FF24486E
:1020900007F010F905F1B8062F462C46601B05F035
:1020A00041FB04F8010BB442F8D13B78102B01D06E
:1020B000FFF74CFE2548FFF7C5FA042003F052FF56
:1020C000234B224800221A60FFF7BAFA01210D20A3
:1020D00005F00EFE796D1D48FFF7C6FB7A6C97F888
:1020E00040101A48FFF7C2FB1A4B1B491A680392AB
:1020F00003981B680293029A184B08601A6005B097
:10210000F0BD00BF2487FF1FF093FF1FE8C2FF1F31
:1021100020A107004CC1FF1F8C94FF1F98050100F0
:10212000C487FF1FA8050100C005010001F007409A
:1021300000F007400E200540042005400620054021
:1021400016200540C40601002C93FF1FC094FF1FFA
:102150004C92FF1FF4C2FF1FB894FF1FF893FF1F9C
:102160002121394806F0B4FE384807F0A3F8384B6F
:102170001B781B077FF53BAF0C21364806F0A8FE05
:10218000324807F097F8324B1B785F077FF534AF82
:102190000E21314806F09CFE2C4807F08BF82C4BA2
:1021A0001B789E077FF52DAF17212C4806F090FE77
:1021B000264807F07FF82A4B1B781D067FF526AFCF
:1021C0000E21284806F084FE204807F073F8244BBF
:1021D0001B785C067FF51FAF1221234806F078FEBE
:1021E0001A4807F067F81E4B1B7898067FF518AF62
:1021F00013211E4806F06CFE144807F05BF8184BDC
:102200001B7859077FF511AF1C21194806F060FEB5
:102210000E4807F04FF8124B1B781A077FF50AAFEC
:102220001921144806F054FE084807F043F80C4BF7
:102230001B789B077FF503AF18210F4806F048FE77
:10224000024807F037F8FAE6D8050100C487FF1FF7
:1022500001F00740FC0501000C0601001C0601000E
:1022600000F0074034060100440601005806010052
:102270006C0601008C060100A806010070B5464CF2
:10228000464D4748E66800232B70FFF7C7FA014622
:10229000304609F061FD08B104232B704048FFF778
:1022A00097FA216909F058FD18B12B7843F0100313
:1022B0002B703B48FFF7F8FAA16A09F06BFD18B1E3
:1022C0002B7843F040032B70002335486B70FFF7E9
:1022D000EBFAE16A314E09F03FFD08B1012373705A
:1022E00000232F48EB70FFF799FA05462C482B4E38
:1022F000FFF76EFA0146284609F086FAE16B09F00D
:1023000049FD08B10123F370264D254800232B70A9
:10231000FFF784FA616A0646E06809F075FA01463B
:10232000304609F037FD08B104232B701C48FFF735
:102330004FFA616A0646206909F068FA014630469C
:1023400009F00AFD18B12B7843F010032B701448E4
:10235000FFF7AAFAA16B0646A06A09F055FA0146F2
:10236000304609F017FD18B12B7843F040032B706D
:1023700000230B486B70FFF797FAA16B0546E06AE4
:10238000084C09F043FA0146284609F0E5FC08B17B
:102390000123637070BD00BF2C93FF1F2893FF1FA4
:1023A000C094FF1FE893FF1F2DE9F0417C4C236888
:1023B000012B82B031D0022B00F0A880032B00F05B
:1023C000C8803BBB774B784AD3F8A010D3F8A43031
:1023D00012685B1A632B0EDD744803FB02F380FB6B
:1023E0000302DB17C3EB62131944062002B0BDE8F9
:1023F000F04105F0FDBA6E4803FB022380FB0302A7
:10240000DB17C3EB22121144062002B0BDE8F041F5
:1024100005F0EEBA02B0BDE8F081664E33680A33CB
:10242000B3F57A7F00F3B7801846336009F0A2FA5B
:10243000614909F0F3FA80465A4DD5F8A00009F039
:1024400099FA0746D5F8A40009F094FA394609F03C
:10245000DBF9414609F0E2FA584909F093FB3946A5
:1024600009F0D4F909F0B6FC0146062005F0C0FADF
:102470000221534806F02CFD524806F01BFF0621AE
:10248000514806F025FD306809F074FA4A4909F010
:10249000C5FA08F019FE022702460B460097494884
:1024A00006F062FF0D21494806F012FDD5F8A000A4
:1024B00009F060FA8046306809F05CFA3E4909F09C
:1024C000ADFA0646D5F8A40009F054FA414609F0E1
:1024D0009BF90146304609F0A1FA384909F052FB50
:1024E000414609F093F908F0EFFD00970B460246CC
:1024F000344806F039FF3946314806F0E9FC3148E6
:1025000006F0D8FE2368022B7FF458AF294B254EE6
:1025100000221A60D6F8A00009F02CFA0546D6F879
:10252000A40009F027FA294609F06EF9002109F004
:1025300075FA224909F026FB294609F067F909F0E6
:1025400049FC0146062005F053FA2368032B7FF46B
:1025500038AF184B134E4FF47A721A60D6F8A000B9
:1025600009F008FA0546D6F8A40009F003FA29464E
:1025700009F04AF9114909F051FA104909F002FB32
:10258000294609F043F909F025FC0146062005F02B
:102590002FFA236815E700234FF0000833604BE75C
:1025A0006C94FF1F2C93FF1F3487FF1F1F85EB5177
:1025B000CBF08D285092FF1FCDCCCC3D0000C842FF
:1025C00094120100C487FF1FE8060100F006010015
:1025D00070B5A248A24C06F06DFEA04806F06AFE57
:1025E0009E4806F067FE0D219E4806F071FCD4F867
:1025F0009C30012B11D09C4C9848217800230A2252
:1026000006F068FE2378052B67D8DFE813F0E900B1
:10261000EE00F300F800FD00E4000921934806F005
:1026200057FC9348FFF7D4F8216909F095FB18B1DE
:102630000F21904806F04CFC8D48FFF7EFF8E16859
:1026400009F0A8FB18B10E218B4806F041FC884820
:10265000FFF7E4F805468648FFF7BAF80146284632
:1026600009F0D2F8E16B09F095FB18B1112183480C
:1026700006F02EFC7E48FFF717F9A16A09F08AFBE5
:1026800018B10C217E4806F023FC7948FFF70CF9BD
:10269000E16A09F061FB18B10D217A4806F018FCD7
:1026A000794B73481B68012B00F0C280FFF790F84C
:1026B00021696B4D09F06EFB78B16D48FFF7AEF8FC
:1026C000E96809F049FB40B1674B1B78052B00F026
:1026D000C08008216D4806F0FBFB02216C4806F023
:1026E000F7FB122005F00AFB012800F09C80112066
:1026F00005F004FB012800F09180664B1B68012B5C
:1027000000F087800221624806F0E2FB624B5348EA
:10271000196806F01FFE514806F0CCFD04215F4801
:1027200006F0D6FB0B2005F0E9FA002301460A2249
:102730004A4806F0CFFD0C2005F0E0FA00230146E0
:102740000A22464806F0C6FD142005F0D7FA0023F9
:1027500001460A22414806F0BDFD152005F0CEFADB
:10276000002301460A223D4806F0B4FD06214C48EC
:1027700006F0AEFB4B4B394819680222002306F0E5
:10278000A9FD0421484806F0A3FB112005F0B6FA84
:10279000002301460A22314806F09CFD102005F076
:1027A000ADFA002301460A222C4806F093FD1220C0
:1027B00005F0A4FA002301460A22284806F08AFD03
:1027C000132005F09BFA002301460A222348BDE8A6
:1027D000704006F07FBD0721344806F079FB7CE7A6
:1027E0000621334806F074FB77E70721314806F0ED
:1027F0006FFB72E70721304806F06AFB6DE708219E
:102800002E4806F065FB68E70B212D4806F060FBBB
:1028100063E711212B4806F05BFB73E70A212A4886
:1028200006F056FB69E70E21284806F051FB5EE7EB
:10283000FEF7CEFF216A09F0ADFA00283FF449AF58
:102840001621234806F044FB0A21224806F040FBEB
:1028500043E70A211F4806F03BFB3EE7C487FF1F02
:102860002C93FF1F000701007894FF1F1007010041
:10287000C094FF1F1C0701002C0701003C0701004A
:1028800050070100600701006092FF1F94070100DC
:10289000941201009494FF1F7094FF1F0808010018
:1028A00010080100E493FF1F18080100D007010081
:1028B000A0070100A8070100BC070100C407010030
:1028C000B0070100F4070100E8070100D807010084
:1028D00070070100880701002DE9F04F934C944FD9
:1028E000E36F012B8DB000F04981032B50D0914E46
:1028F000914DA36F9148012B09BF2968296801F107
:102900000041296004F000FE3368002B40F0CE80C7
:102910008A4804F0CFFDE36F3860012B064600F0D3
:10292000D280874909F036FA78B98649304609F0ED
:1029300013FA50B9844A854B12680B920B9A1A60AD
:1029400000232B600DB0BDE8F08FDFF8FC817F4CD9
:10295000D8F800300A930A9823687D4FC01A09F00E
:1029600005F8314609F05AF87A4909F00BF9794926
:1029700009F008F9396808F049FFD8F800300993E0
:10298000099B2360002338602B600DB0BDE8F08FF9
:10299000DFF8C881704DD8F80000664E0123002290
:1029A0000E212B6004F0DCF92B68012B336800F05A
:1029B0000381002B40F0A6810021D8F80000DFF849
:1029C000B891664D04F01EFA33681FFA80FBC9F80F
:1029D00000B0002B40F07B810021D8F80000564D5C
:1029E000DFF878A104F094F9B4F8863040F6E441B9
:1029F00001FB0BF1B1FBF0F0C01A00B208F0BAFF16
:102A000057498346D4F8880009F008F8014658462B
:102A100009F0B8F8D9F800302860632BDFF858B116
:102A200000F3498100232B603368002B3FF461AF32
:102A300002214C4806F04CFAD9F80020D8F80000E2
:102A400040F6E443002103FB02F804F061F9B8FB0F
:102A5000F0F008F08BFF8046B4F8860008F08AFF9B
:102A60000146404608F0D0FE08F02EFB4FF0020869
:102A700002460B46CDF800803B4806F075FC414607
:102A8000384806F025FA286808F01EFBCDF80080CB
:102A900002460B46344806F067FC4146334806F0D0
:102AA00017FA41462F4806F013FA22E7234804F0AC
:102AB00001FD08F009FB022602460B4600962A4853
:102AC00006F052FC24E7244B1B68012B00F0268102
:102AD000022B7FF435AF264909F05CF930B925495E
:102AE000304609F039F9002800F04781DFF85880B6
:102AF000164CD8F80030079307982368144FC01A73
:102B000008F034FF314608F089FF124909F03AF81D
:102B1000104909F037F8396808F078FED8F8003025
:102B20000693069B386023600AE700BF2C93FF1FC3
:102B30006C92FF1FB494FF1F5C92FF1F0493FF1F52
:102B40000000FA430000FAC3F4C2FF1F8894FF1F7D
:102B50007092FF1F00007A446087FF1F8C94FF1F54
:102B600017B7D13894120100C487FF1F5C08010019
:102B700000C82F4800A08CC62493FF1F3D689849C9
:102B8000284609F0E9F830B12846964909F002F9DB
:102B900000287FF4FDAEDFF85882934DD8F800008E
:102BA000924E022300220F212B6004F0D9F82B68EB
:102BB000012B33687FF4FDAE002B40F00081002133
:102BC000D8F80000DFF86C92894D04F01BF93368E7
:102BD0001FFA80FBC9F800B0002B40F0D58000211F
:102BE000D8F80000834D04F093F8B4F8843040F630
:102BF000E44A0AFB0BFBBBFBF0F0C01A00B208F082
:102C0000B9FE7D498346D4F88C0008F007FF0146E1
:102C1000584608F0B7FFD9F8003028600021D8F8EE
:102C200000000AFB03FA04F073F8B4F88430BAFB2E
:102C3000F0F00FFA80FAC3EB0A03002BB4F8B620C9
:102C4000B8BF5B429342BCBF00232B603368002BAC
:102C50003FF44FAE0221694806F03AF9D9F8002056
:102C6000D8F8000040F6E443002103FB02F804F02A
:102C70004FF8B4F88410B8FBF0F000B2411A604885
:102C800006F068FB02215D4806F022F9286808F08A
:102C90001BFA4FF0020802460B46CDF80080584858
:102CA00006F062FB0321574806F012F941465348EB
:102CB00006F00EF91DE6DAF80000002104F028F80D
:102CC000DBF8003064389842FFF4ACAEACE600218B
:102CD000286804F01DF840F6E44100230A2201FBB5
:102CE0000BF1B1FBF0F1464806F0F4FA022143483B
:102CF00006F0EEF8B4F88610414806F02BFBD9F840
:102D000000B069E63E4806F0D5FA0C213E4806F0D0
:102D1000DFF80C213D4806F0DBF84DE63C4909F0B0
:102D200039F858B93B49304609F016F830B93A4AF3
:102D30003A4B12680592059A1A6001E6DFF8D880CE
:102D4000364CD8F80030049304982368344FC01AE6
:102D500008F00CFE314608F061FE324908F012FF1F
:102D6000304908F00FFF396808F050FDD8F80030FE
:102D70000393039B38602360E2E5274A274B1268E0
:102D80000892089A1A60DBE50021286803F0C0FF6A
:102D900040F6E44100230A2201FB0BF1B1FBF0F104
:102DA000174806F097FA01211F4806F091F8B4F889
:102DB0008410134806F0CEFAD9F800B00FE7104897
:102DC00006F078FAE36F012B4FF00B010CBF1748A8
:102DD000174806F07DF80C210C4806F079F8EEE66D
:102DE00000709446007094C66087FF1FB494FF1F64
:102DF0008C94FF1F5C92FF1F17B7D138941201000B
:102E0000C487FF1F480801004C0801003808010072
:102E10000000FA430000FAC3F4C2FF1F8894FF1FAA
:102E20007092FF1F00007A44FC0601002008010098
:102E30002C0801002493FF1F2DE9F047B24D2B68A9
:102E400084B0002B7ED0B14CDFF8C882B04EE36F67
:102E5000AE4D012B00F08F80D4F88030AB4F012BAA
:102E600000F0BC80D6F80090D7F858A07D6DA94F2F
:102E700005FB0AF54FF47A7000FB05F008F07AFDC7
:102E8000A5490546484608F0C9FD294608F07AFEDE
:102E9000A24908F0C3FD08F09DFF6328C8F80000B0
:102EA0004BDD28469C4908F06DFE642330603B6092
:102EB0009B4B1B68002B3DD0E36F944D012B00F022
:102EC000BB80032B00F00981022B00F00C81022152
:102ED000944805F0FDFF944B186808F0F5F80224BB
:102EE00002460B460094914806F03EFA214690486F
:102EF00005F0EEFF21468B4805F0EAFFD8F80010F8
:102F00008A4806F027FA06218A4805F0E1FF306872
:102F1000814908F083FD08F0D7F8009402460B467B
:102F2000824806F021FA0321834805F0D1FF7F484B
:102F300006F0C0F904B0BDE8F0870028BCBF00234C
:102F40003B60B5E77D4E714C33680293029A42F2C2
:102F500028339A4200F2BA8033680393039A42F20C
:102F600010739A4274D8E36FDFF8A881684E674DFA
:102F7000012B7FF471AF7248FEF7D6FC7149D5F88A
:102F80006890EF6E08F04AFD08F04AFF2A6F6B6FF9
:102F9000C9EB0202DB1B80B29A42C9EB000040F38E
:102FA000AD8003FB0000531C90FBF3F31F44A06DA6
:102FB000636DC8F8007000FB07F003FB00F000EB46
:102FC0008000400008F0D6FC5349504F08F0DAFD6D
:102FD000D4F880303060012B7FF444AF5848FEF7BE
:102FE000A3FC5849D7F86890FD6E08F017FD08F06B
:102FF00017FF3A6F7B6FD4F858A0C9EB02025B1B36
:1030000080B29A42C9EB0000C6BF03FB0000013248
:10301000584390FBF2F02844656D00FB0AF005FB75
:1030200000F000EB8000400008F0A4FC3A4908F0F2
:10303000A9FD814630601AE7434B1B68012B4FF016
:103040000A010CBF4148424805F042FFEB6F38E7E8
:103050003B48FEF769FC3B49A76EE66E08F0DEFCD4
:1030600008F0DEFE226F636FD21B9B1B80B29A4278
:10307000A0EB07003CDD03FB0000531C90FBF3F3C7
:103080009819A26DDFF88C80636DC8F8000002FB10
:1030900000F003FB00F000EB8000400008F06AFC49
:1030A0001D491B4E08F06EFD0123306002211D48B2
:1030B0002B6005F00DFF1D4806F0FCF8592125484E
:1030C00005F006FF194806F0F5F8C0E61C48626CEA
:1030D00094F84010FEF7CAFB3EE710211E4805F0A9
:1030E000F7FEE36FF0E607211C4805F0F1FEEEE67F
:1030F00003FB00F393FBF2F39819C2E703FB00F321
:1031000093FBF2F31F4452E75492FF1F2C93FF1FCF
:103110007092FF1F3487FF1FE4388E3E0000C842C4
:103120006C87FF1F941201006C92FF1FC487FF1F62
:103130005C080100F0080100F8080100F4C2FF1F5C
:10314000C094FF1F00007A446087FF1FBC08010085
:10315000C808010060080100D4080100E808010067
:10316000F0B5112083B004F0C9FD012813D000216F
:103170000B2004F0BDFD00210C2004F0B9FD00215E
:10318000152004F0B5FD1D491D4B012000220870DB
:103190001A6003B0F0BD01460446152004F0A8FDF6
:1031A0001849194A194B09680191D2F890001B6817
:1031B0000199134D034402268B422E6017D8D2F892
:1031C000980008F0D7FB124B196808F0C5FD0746B8
:1031D00068B921460B2004F08BFD084A03233946C9
:1031E0000C2016702B6004F083FD03B0F0BD0121AC
:1031F0000C2004F07DFD03B0F0BD00BF7894FF1FEC
:10320000B094FF1FF4C2FF1F2C93FF1FB894FF1F41
:103210006C92FF1FF0B5684E684D34682B689C4275
:1032200087B039D014F0010155D014F0020149D013
:1032300014F004013DD0E3070ED52B68DF070BD453
:103240005F4F3A68002A00F082805E4B1B68019352
:10325000019B93426DD83468A0070DD52B68990760
:103260000AD4594F3A68002A4CD0564B1B68039336
:10327000039B934238D8346862070DD52B685B07EF
:103280000BD4524F3A68002A7ED04E4B1B680593F0
:10329000059B934268D834680CB107B0F0BD214655
:1032A000162004F0A5FB2146172004F0A1FB07B06F
:1032B000F0BD052004F09CFB2B68346803F0FB0391
:1032C0002B60B8E7172004F093FB2B68346803F0F9
:1032D000FD032B60ACE7162004F08AFB2B683468F2
:1032E00003F0FE032B60A0E7394B1720D3F89410AE
:1032F00004F07EFB2B68346843F0020300222B604D
:103300003A60B9E7334805F0D5FF0C21324805F0A3
:10331000DFFD304805F0CEFFFF21172004F068FBE9
:10332000284B2E4A19680291029912680A443A60A1
:103330009CE7274B1620D3F8941004F059FB2B6818
:10334000346843F0010300222B603A6084E7FF21D8
:10335000162004F04DFB1B4B204A19680091009980
:1033600012680A443A6071E7194B0520D3F89410AB
:1033700004F03EFB2B68346843F0040300222B600A
:103380003A60002C89D18AE7124805F093FF0C219E
:10339000134805F09DFD0F4805F08CFFFF21052027
:1033A00004F026FB074B0D4A196804910499126832
:1033B0000A443A606AE700BFB094FF1FE493FF1F1E
:1033C0006094FF1FF4C2FF1F6494FF1F6894FF1FE7
:1033D0002C93FF1FC487FF1FFC0801006887FF1F95
:1033E0000C0901002DE9F8434B4DDFF8589128688E
:1033F0004A4E4B4F00220E2103F0B2FC0123222142
:103400004848C9F8003005F063FD3368132B1EDC13
:1034100040F6E4480021286803F0F4FC002104464B
:10342000286803F075FC3B88A4B2012108FB04F472
:10343000B4FBF0F43C481C443C8005F049FD64209A
:1034400004F092FC33680133132B3360E2DD3B88D8
:10345000364A3748A2FB03129B1A02EB5303C3F30D
:103460000F1319463B8005F075FF1D213148324F7F
:1034700005F02EFD0221314805F02AFD2C4805F00B
:1034800019FF00231A460F212868336003F068FCF7
:10349000022322212348C9F8003005F019FD3368C2
:1034A000132B1EDC40F6E4480021286803F0AAFC38
:1034B00000210446286803F02BFC3B88A4B20121BC
:1034C00008FB04F4B4FBF0F417481C443C8005F0FE
:1034D000FFFC642004F048FC33680133132B336095
:1034E000E2DD3B88114A1248A2FB03129B1A02EB51
:1034F0005303C3F30F1319463B8005F02BFF1D2127
:103500000F4805F0E5FC02210C4805F0E1FC0848F5
:10351000BDE8F84305F0CEBE8C94FF1F7494FF1FE6
:103520005087FF1F1C090100600901008761188690
:10353000C487FF1F400901005287FF1F941201003A
:10354000640901006087FF1F2DE9F843744D754C35
:10355000286D754EDFF8FC81082740F25133236057
:10356000E77108F007FA6969814608F057FA6F4970
:1035700008F054FA08F054FC6D4B6E4A1B68D2F800
:1035800000E0A37282B23B41A9692272E3723A4120
:103590004EFA07F3484684F80CE06272637308F051
:1035A0003DFA624908F03AFA08F03AFC83B243FA6D
:1035B00007F221463046A373E27303F0F3F95E4B42
:1035C0005E4A1B681288A272DDB240F2553121605A
:1035D00005EB850E43FA07F103EB83034FEA4E0E2A
:1035E0003A4143F3D71361722572214600253046D4
:1035F00084F80CE0E272E7716373A573E57303F07E
:10360000D1F940F2563340462360E771FEF72AF9BC
:103610004B4908F003FA08F003FC20724046FEF71D
:1036200021F9474908F0FAF908F0FAFB454A4449FC
:10363000C0F307231068637208F0A4FA08F0CAFB0D
:1036400040FA07F203464046E272A372FEF72CF9F5
:10365000364908F0E3F908F0E3FB20734046FEF733
:1036600023F9324908F0DAF908F0DAFB2146C0F311
:10367000072330466373A573E57303F093F90220C3
:1036800004F072FB304BE771187893F801E09A78F8
:10369000207240F25A31DB7821603046214684F8AE
:1036A00009E025736573A573E573A272E37203F0F5
:1036B00079F9264BE77118785D789A78207240F294
:1036C0005E3118792160D9786572A2725D799A7934
:1036D000E172DB79207321463046A273E373657390
:1036E00003F060F9022004F03FFB194BE7711D78ED
:1036F0005A789978DF78257230464FF45C765D7998
:10370000266062721E799A79DB79A172E77221468E
:1037100026736573A273E373BDE8F84303F042B9FF
:103720002C93FF1FA094FF1F4CC1FF1F00002041DE
:103730004492FF1F8494FF1F3487FF1F3887FF1FA9
:103740000000C8426C92FF1F2893FF1F2887FF1FAD
:103750005487FF1FC094FF1F38B5284B1B68012BEF
:1037600000D038BD264D2748FEF732F8E96C08F046
:103770004DF804462348FEF751F80146204608F06C
:10378000EBFA0028EDD0204C1E4840F2C33208234B
:103790002260E371FEF71CF8AD6C294608F0DCFAF4
:1037A000B8B11A49284608F039F908F039FB80B257
:1037B00003126072237200230122A272E372237348
:1037C0006373A373E37310491148BDE8384003F0F5
:1037D000E9B80C48FDF7FCFF0C4908F01FF908F0A8
:1037E0001FFBC0F3072307482372FDF7F1FF0749CA
:1037F00008F014F908F014FB6072DCE79494FF1FE2
:103800002C93FF1FC094FF1FA094FF1F0000C8420D
:103810004CC1FF1FF0B5984C984D83B005F0F2FAFB
:1038200023682860042B00F0A482022B4BD0082BC5
:1038300000F09280072B40F04981332801F02E835D
:1038400000F3A680312801F03C83322840F0A980A3
:1038500005F014FB002840F337818948894E05F0B4
:10386000BDFE08F087F8884908F0D8F861230122E6
:10387000F06322602B601846A0F152031F2B01F267
:10388000EB82DFE813F02A0AE90AE90AE90AE90A01
:10389000E90AE90AE90AE90AE90AE90AE90AE90A90
:1038A000E90AE90ABB09320C3E0AEF086108E90A95
:1038B000E90AE90A1908E90A2F0CE90AE90AE90AFA
:1038C000E90AE90A2C0AA0F13102422A69D8DFE8A4
:1038D00012F04804540462046F04820491046800E6
:1038E0006800680068006800680068006800680098
:1038F0006800680068006800680068006800680088
:103900006800680068006800680068006800680077
:103910006800680068006800680068006800680067
:103920006800680068006800680068006800680057
:103930006800680068003504680068006800680076
:103940006800680068006800680068006800680037
:103950006800640068003B04322800F01F8371286F
:103960001BD031281DD105F089FA002840F3A4832B
:103970004348444E05F032FEC0B286F840000228AB
:103980008ABF0021014686F84010726C3F4819E357
:10399000342801F07182712803D100237320236041
:1039A0002860002B08BF73280CBF012000200028CE
:1039B00060D0334805F07EFC0421354805F088FAD4
:1039C0002F4805F077FC1021324805F081FA2C4889
:1039D00005F070FC1321304805F07AFA2F4B284887
:1039E000196805F0B7FC264805F064FC14212C4842
:1039F00005F06EFA224805F05DFC1E21294805F00D
:103A000067FA1F4805F056FC1521274805F060FAB3
:103A10001B4805F04FFC1E21244805F059FA1848B0
:103A200005F048FC2021224805F052FA144805F020
:103A300041FC19211F4805F04BFA114805F03AFCEA
:103A400012211D4805F044FA0D4805F033FC0F2102
:103A50001A4805F03DFA0A4805F02CFC0D211848DB
:103A600005F036FA064805F025FC164A0021012328
:103A70001160236003B0F0BDBC94FF1F6892FF1F6C
:103A8000C487FF1F2C93FF1F6F12833AC094FF1F40
:103A900010110100181101002C1101002087FF1FD7
:103AA000401101005811010078110100901101002E
:103AB000B0110100D4110100F01101000412010045
:103AC000141201006C87FF1F23682868062B40F042
:103AD0008D80A0F13102402A3FF663AF01A151F879
:103AE00022F000BFD33F000021400000FD3F000056
:103AF0008B4000004B40000067400000A3390000ED
:103B0000A3390000A3390000A3390000A339000045
:103B1000A3390000A3390000A3390000A339000035
:103B2000A3390000A3390000A3390000A339000025
:103B3000A3390000A3390000A3390000A339000015
:103B4000A3390000A3390000A3390000A339000005
:103B5000A3390000A3390000A3390000A3390000F5
:103B6000A3390000A3390000A3390000A3390000E5
:103B7000A3390000A3390000A3390000A3390000D5
:103B8000A3390000A3390000A3390000A3390000C5
:103B9000A3390000A3390000A3390000A3390000B5
:103BA000A3390000A3390000A3390000A3390000A5
:103BB000A3390000A3390000A3390000A339000095
:103BC000A3390000A3390000A3390000A339000085
:103BD000A3390000A3390000A3390000A339000075
:103BE000A33900009B39000023682868052B15D1F4
:103BF000332801F0EB8140F34781352801F0D8816B
:103C0000C1F2C08171287FF4CCAED84A0023732062
:103C1000136023602860C4E623682868032B40F003
:103C2000A480A0F13002422A3FF6BBAE01A151F8B8
:103C300022F000BF413D00000D4700003547000065
:103C4000794600009B460000BD460000E5460000A6
:103C50005D4700007B4700009F470000A33900003C
:103C6000A3390000A3390000A3390000A3390000E4
:103C7000A3390000A3390000A3390000A3390000D4
:103C8000A3390000A3390000A3390000A3390000C4
:103C9000A3390000A3390000A3390000A3390000B4
:103CA000A3390000A3390000A3390000A3390000A4
:103CB000A3390000A3390000A3390000A339000094
:103CC000A3390000A3390000A3390000A339000084
:103CD000A3390000A3390000A3390000A339000074
:103CE000A3390000A3390000A3390000A339000064
:103CF000A3390000A3390000C74700006942000053
:103D000021480000E5470000034800003F4800004C
:103D100045420000A3390000A3390000A339000088
:103D2000A3390000A3390000A3390000A339000023
:103D3000A3390000A33900007F480000434600007B
:103D400005F09CF8002841F390808948894E05F0E1
:103D500045FC0127034601466222874873652760B8
:103D60002A60FDF781FD23682868012B7FF419AED6
:103D700082E5A0F13102402A3FF613AE01A151F8CD
:103D800022F000BFE740000039410000C1400000C0
:103D9000FF400000034100001F41000031410000CE
:103DA00035410000A3390000A3390000A339000009
:103DB000A3390000A3390000A3390000A339000093
:103DC000A3390000A3390000A3390000A339000083
:103DD000A3390000A3390000A3390000A339000073
:103DE000A3390000A3390000A3390000A339000063
:103DF000A3390000A3390000A3390000A339000053
:103E0000A3390000A3390000A3390000A339000042
:103E1000A3390000A3390000A3390000A339000032
:103E2000A3390000A3390000A3390000A339000022
:103E3000A3390000A3390000A3390000A339000012
:103E4000A3390000A3390000A3390000A339000002
:103E5000A3390000A3390000A3390000A3390000F2
:103E6000A3390000A3390000A3390000A3390000E2
:103E7000A3390000A3390000A3390000A3390000D2
:103E8000A33900009B390000312801F0308032282E
:103E90007FF487AD04F0F2FF00287FF7BDAE344811
:103EA000344E05F09BFB01226B23C6F8980022607C
:103EB0002B602F4805F0FEF92D4805F0FBF92C4842
:103EC00005F0F8F92A4805F0F5F9294805F0F2F966
:103ED00021212A4804F0FCFF254805F0EBF91521C3
:103EE000274804F0F5FFD6F89010214805F032FA83
:103EF0000221244804F0ECFF1D4805F0DBF91E21E7
:103F0000214804F0E5FFD6F89810194805F022FA88
:103F100003211E4804F0DCFF154805F0CBF91E21F3
:103F20001B4804F0D5FFD6F89410114805F012FA9A
:103F30000F4805F0BFF91D21164804F0C9FFD6F857
:103F4000A0100B4805F006FA094805F0B3F91E2148
:103F5000114804F0BDFFD6F8A410054805F0FAF9A1
:103F6000034805F0A7F90523236083E56C94FF1F40
:103F7000C487FF1F2C93FF1FC094FF1FD00B0100AD
:103F8000F40B0100280B01000C0C01004808010093
:103F90002C0C01004C0C01006C0C010004F06EFFB5
:103FA000002840F385809A489A4E05F017FB07F0E9
:103FB000E1FC994907F032FD96F8401003460246AD
:103FC00096487364FDF752FC012369202360286042
:103FD00052E404F053FF00287FF706AE8C488D4E64
:103FE00005F0FCFA07F0C6FC8D4907F0CBFD652310
:103FF0000122706122602B6018463DE404F03EFF10
:1040000000287FF7F1AD8248824E05F0E7FA00EB19
:104010008000430001226520F365226028602BE4C4
:1040200004F02CFF00287FF7DFAD7948794E05F0CA
:10403000D5FA07F09FFC7A4907F0A4FD6523012219
:10404000F06122602B60184616E4724AD2F8AC3058
:104050000133052BC8BF0023C2F8AC306520012313
:104060002360286008E404F009FF00287FF7BCAD56
:104070006748684E05F0B2FA65230122C6F8B00021
:1040800022602B601846FFF7F7BB04F0F7FE00280C
:104090007FF7AAAD5E485F4E05F0A0FA00EB800006
:1040A000430001226520336622602860FFF7E4BBED
:1040B00023682868FFF7BEBB564E96F840005EE4C2
:1040C000584A594F1368002B0CBF012300234FF0AF
:1040D00001001360206040F0B987034664222A6023
:1040E0006420FFF7A4BB514A1368B3FA83F35B095A
:1040F00001216420136021602860FFF7BDBB4C4A9A
:10410000F2E7444ED6F89C30B3FA83F35B09012200
:104110006420C6F89C3022602860FFF7ADBB012305
:104120003E482360FDF730FA424A23681060D5E725
:10413000414AD9E7414AD7E7414AD5E7FFF752F963
:1041400023682868FFF773BB324AD36F0133032B10
:10415000C8BF0023D3670123632023602860FFF7D3
:104160008BBB2C4EB36FB3FA83F35B090122632040
:10417000B36722602860FFF77FBB264ED6F88030F9
:10418000B3FA83F35B0901226320C6F88030226012
:104190002860FFF771BB0123236004F06FFE002845
:1041A000D9DD1B481B4E05F019FAC6F8A800D2E766
:1041B0000123236004F062FE002807DD1448154E39
:1041C00005F00CFA07F0D6FBC6F88C0063202860D7
:1041D0002368FFF72FBB0123236004F04FFE002864
:1041E000F4DD0B480B4E05F0F9F907F0C3FBC6F8F8
:1041F0008800EBE70123236004F040FE0028E5DDA2
:104200000348044E05F0EAF9A6F8B600DEE700BF61
:10421000C487FF1F2C93FF1F6F12833AC094FF1FA8
:1042200000007A449C94FF1FBC94FF1F5C94FF1F06
:104230009094FF1F7094FF1F6C94FF1F6492FF1FE8
:10424000B494FF1F04F01AFE00280DDDC148C24ED1
:1042500005F0C4F907F08EFBC04907F093FC01227A
:104260006223306222602B6004F008FE002840F3D5
:10427000FC85B848B84E05F0B1F901226223B0665A
:1042800022602B60B34805F015F8B24805F012F82B
:10429000B04805F00FF8AF4805F00CF8AD4805F050
:1042A00009F81521AE4804F013FEAA4805F002F8FB
:1042B0001421AC4804F00CFEA64804F0FBFF1B21BF
:1042C000A94804F005FEA34804F0F4FF1321A74811
:1042D00004F0FEFD9F4804F0EDFF9E4804F0EAFF65
:1042E0009C4804F0E7FF2021A14804F0F1FDF068AC
:1042F0009A4907F093FB06F0E7FE002702460B46BB
:104300000097944805F030F802219A4804F0E0FD47
:104310000221994804F0DCFD8E4804F0CBFF2121F6
:10432000964804F0D5FD30698C4907F077FB06F01C
:10433000CBFE009702460B46864805F015F8022191
:104340008C4804F0C5FD02218B4804F0C1FD814872
:1043500004F0B0FF1F218A4804F0BAFDB06A06F0ED
:10436000B3FE022502460B4600957A4804F0FCFF96
:104370000121844804F0ACFD29467F4804F0A8FDE3
:10438000744804F097FF20217F4804F0A1FDF06AF3
:1043900006F09AFE009502460B466E4804F0E4FFD4
:1043A0000121784804F094FD2946734804F090FDFB
:1043B000684804F07FFF2321744804F089FDB06C45
:1043C000664907F02BFB06F07FFE009702460B467E
:1043D000604804F0C9FF2946664804F079FD294683
:1043E000654804F075FD5B4804F064FF1F216848D0
:1043F00004F06EFDF06C594907F010FB06F064FE06
:10440000009702460B46534804F0AEFF2946594830
:1044100004F05EFD2946584804F05AFD4D4804F06A
:1044200049FF19215B4804F053FDB16D494804F080
:1044300091FF2946584804F04BFD29464E4804F0A8
:1044400047FD444804F036FF1821544804F040FD6D
:10445000706E07F08FFA524907F0E0FA06F034FE6A
:10446000009502460B463B4804F07EFF01214D4873
:1044700004F02EFD2946404804F02AFD354804F09A
:1044800019FF2B21484804F023FDB069334907F098
:10449000C5FA06F019FE009702460B462D4804F0B7
:1044A00063FF2946334804F013FD2946324804F0DF
:1044B0000FFD284804F0FEFE1F213C4804F008FDD3
:1044C000716D244804F046FF29462B4804F000FD96
:1044D000204804F0EFFE2021354804F0F9FC316D4E
:1044E0001C4804F037FF2946234804F0F1FC194822
:1044F00004F0E0FE10212F4804F0EAFCB16E1548EC
:1045000004F028FF29461B4804F0E2FC29461A481B
:1045100004F0DEFC0F4804F0CDFE1321264804F021
:10452000D7FCF16E0B4804F015FF0121234804F07D
:10453000CFFC2946104804F0CBFC064804F0BAFE34
:1045400010211F4804F0C4FC316F024804F002FF40
:10455000294637E0C487FF1F2C93FF1F00007A44D1
:10456000D80E0100F00E0100080F0100000A010042
:10457000240F0100FC09010094120100480F010002
:104580006C0F0100700501008C0F0100B00F0100DD
:10459000D40F0100F40F01001010010014100100ED
:1045A000CDCCCC3D900E0100301001005C1001001C
:1045B0007C100100A0100100B4100100C81001001F
:1045C000CC100100B14804F083FC2946B04804F047
:1045D0007FFCB04804F06EFE1421AF4804F078FC74
:1045E000716FAC4804F0B6FE0121AC4804F070FCD9
:1045F0002946A74804F06CFCA64804F05BFE16218F
:10460000A74804F065FC306AA64907F007FA06F0EF
:104610005BFD00970B4602469E4804F0A5FE294626
:104620009A4804F055FC2946994804F051FC9948F1
:1046300004F040FE974804F03DFE03232360FFF79B
:1046400019BA994B9248994E002202211A6004F03F
:104650003FFC904804F02EFE0B21954804F038FCF6
:1046600002218B4804F034FC8A4804F023FE012226
:10467000622322602B6005E604F000FC002840F372
:10468000F4838448894E04F0A9FF07F073F90122EE
:104690006223B06222602B60F4E504F0EFFB002897
:1046A00040F3E3837B48814E04F098FF07F062F902
:1046B00001226223F06222602B60E3E504F0DEFB5E
:1046C000002840F3D2837348784E04F087FF07F048
:1046D00051F9744907F056FA01226223B06422604E
:1046E0002B60CFE504F0CAFB002840F3BE83694885
:1046F0006E4E04F073FF07F03DF96A4907F042FA85
:1047000001226223F06422602B60BBE504F0B6FB5B
:10471000002840F3AA835F48644E04F05FFF07F06F
:1047200029F9604907F02EFA01226223F060226025
:104730002B60A7E504F0A2FB002840F396835548C0
:104740005A4E04F04BFF07F015F9564907F01AFAD4
:1047500001226223306122602B6093E504F08EFB1E
:10476000002840F382834B48504E04F037FF01226B
:104770006223B06522602B6084E504F07FFB002893
:1047800040F373834348494E04F028FF00EB800058
:10479000430001216222736621602A6072E504F001
:1047A0006DFB002840F361833A48404E04F016FF49
:1047B00007F0E0F83B4907F0E5F901226223B06118
:1047C00022602B605EE504F059FB002840F34D8326
:1047D0003048364E04F002FF012262233065226029
:1047E0002B604FE504F04AFB002840F33E83294844
:1047F0002E4E04F0F3FE01226223306722602B600C
:1048000040E504F03BFB002840F32F832148274E6E
:1048100004F0E4FE01226223706722602B6031E520
:1048200004F02CFB002840F320831A481F4E04F0AC
:10483000D5FE01226223F06622602B6022E5FDF79F
:1048400085FA02211248194E04F042FB114804F087
:1048500031FD02210E4804F03BFB0E4804F02AFD16
:1048600002210B4804F034FB0A4804F023FD172111
:10487000104804F02DFB074804F01CFDF0E6002270
:10488000732322602B60FFF794B800BFFC0901007E
:1048900094120100C487FF1FE0100100C81001003E
:1048A000F810010000007A445492FF1F2C93FF1F60
:1048B000A809010090090100AF48B04D04F0FAFCCE
:1048C000AD4804F0F7FCAC4804F0F4FCAA4804F04E
:1048D000F1FCA94804F0EEFC1521A94804F0F8FA0F
:1048E000A54804F0E7FC1821A64804F0F1FA0023DB
:1048F0000A2295F84010A04804F0ECFC9E4804F011
:10490000D9FC2821A04804F0E3FA686C9F4907F01D
:1049100085F806F0D9FB00250B460246009596481F
:1049200004F022FD02219A4804F0D2FA924804F0E1
:10493000C1FC1321974804F0CBFA8F4804F0BAFC6D
:1049400008232360FFF796B88B488C4E04F0B2FC26
:10495000894804F0AFFC884804F0ACFC864804F0B9
:10496000A9FC854804F0A6FC11218B4804F0B0FA9C
:10497000814804F09FFC2821884804F0A9FA706956
:10498000824907F04BF806F09FFB002502460B46D4
:104990000095794804F0E8FC02217D4804F098FA7B
:1049A000754804F087FC16217D4804F091FAF069FF
:1049B000764907F033F806F087FB00950B46024670
:1049C0006D4804F0D1FC0221714804F081FA6A4874
:1049D00004F070FCD6F8AC30AB4232DD1D217148DA
:1049E00004F076FAF06D06F0C5FF6F4907F016F88F
:1049F00006F06AFB022502460B4600955E4804F06D
:104A0000B3FC0121694804F063FA5B4804F052FCEE
:104A10001F21674804F05CFA306E06F0ABFF624974
:104A200006F0FCFF06F050FB009502460B4652488C
:104A300004F09AFC01215D4804F04AFA4E4804F063
:104A400039FC11215B4804F043FAD6F8AC30052B51
:104A500000F2C381DFE813F0F601FB01F101EC0184
:104A6000E701BD01444804F025FC434804F022FC62
:104A7000414804F01FFC404804F01CFC3E4804F090
:104A800019FC13214C4804F023FA3B4804F012FCB3
:104A90000D214A4804F01CFA374804F00BFC0F21A2
:104AA000474804F015FA474B3348196804F052FCA4
:104AB000314804F0FFFB1321434804F009FA434B4B
:104AC0002D48196804F046FC2B4804F0F3FB122132
:104AD0003F4804F0FDF93F4B2748196804F03AFCC1
:104AE000254804F0E7FB11213B4804F0F1F93B4B6A
:104AF0002148196804F02EFC1F4804F0DBFB0E214E
:104B0000374804F0E5F91D4B1B48D3F89C1004F01E
:104B100021FC194804F0CEFB1921324804F0D8F9E1
:104B2000314B1548196804F015FC134804F0C2FB1A
:104B300011212E4804F0CCF92D4B0F48196804F0D0
:104B400009FC0D4804F0B6FB10212A4804F0C0F916
:104B5000294B0948196804F0FDFB074804F0AAFB3B
:104B600013210C4804F0B4F9034804F0A3FB042318
:104B70002360FEF77FBF00BFC487FF1F2C93FF1F7A
:104B8000D8110100B4090100D009010000007A44E5
:104B9000FC090100000A01007C110100140A010057
:104BA000400A0100580A0100CDCCCC3D900E010016
:104BB000780A0100980A01008C0C0100A00C010089
:104BC000B00C01005C94FF1FC00C0100B494FF1FE7
:104BD000D40C01009C94FF1FE80C01009094FF1F6F
:104BE000FC0C01000C0D01007094FF1F280D01004A
:104BF0006C94FF1F3C0D01006492FF1FC448C54D1B
:104C000004F058FBC24804F055FBC14804F052FBC5
:104C1000BF4804F04FFBBE4804F04CFB1F21BE48C8
:104C200004F056F9BA4804F045FB1C21BB4804F0D7
:104C30004FF9686ABA4906F0F1FE06F045FA002617
:104C400002460B460096B24804F08EFB0221B5489E
:104C500004F03EF9AE4804F02DFB2321B24804F0E5
:104C600037F9E86BAE4906F0D9FE06F02DFA00964A
:104C700002460B46A64804F077FB0221A94804F03F
:104C800027F9A34804F016FB1921A84804F020F9DD
:104C9000A86B06F019FA02260B46024600969C48BD
:104CA00004F062FB3146A24804F012F9984804F07F
:104CB00001FB19219F4804F00BF9B5F8B410944892
:104CC00004F048FB03219C4804F002F9904804F0EA
:104CD000F1FA07232360FEF7CDBE03F0C3FBB82231
:104CE00000218C4802F038FD2868944AA0F1730036
:104CF00001210023B0FA80F0400911602360FEF723
:104D000056BE8348834E04F0D5FA814804F0D2FAA7
:104D10007F4804F0CFFA7E4804F0CCFA7C4804F0D7
:104D2000C9FA1F21864804F0D3F8794804F0C2FA82
:104D30001E21844804F0CCF8754804F0BBFA1A210F
:104D4000814804F0C5F8F36F022B00F09D81032B1E
:104D500000F09281012B00F09F8109217B4804F033
:104D6000B7F86B4804F0A6FA14217948694F04F0AB
:104D7000AFF8B16F664804F0EDFA654804F09AFAAE
:104D80001C21744804F0A4F8D6F88010604804F0A0
:104D9000E1FA5F4804F08EFA1C216F4804F098F89D
:104DA000D6F8A8105A4804F0D5FA594804F082FA07
:104DB000F56F25F00205012D00F0198113216748D8
:104DC00004F086F8524804F075FA02232360FEF7D7
:104DD00051BE0F21624804F07BF84D484D4D04F060
:104DE00069FAD6F8AC30002B0FDD18215D4804F0CD
:104DF0006FF8D5F8B010464804F0ACFA02215A48D2
:104E000004F066F8424804F055FA414804F052FABA
:104E10001321524804F05CF83D4804F04BFA062395
:104E20002360FEF727BE0D21504804F051F8D4E767
:104E30000D214F4804F04CF8CFE70C214D4804F009
:104E400047F8CAE70D214C4804F042F8C5E70C21A9
:104E50004A4804F03DF8C0E72368002B08BF7328D8
:104E60000CBF01200020FEF7A2BD23682868012B9B
:104E70007EF497ADFEF700BD04F000F800287EF741
:104E800023AE2348234E04F0A9FB61230122A6F898
:104E9000B40022602B601846FEF7EEBC03F0EEFF74
:104EA00000287EF711AE1A481A4E04F097FB06F060
:104EB00061FD61230122B06322602B601846FEF77A
:104EC000DBBC03F0DBFF00287EF7FEAD1048114E7F
:104ED00004F084FB06F04EFD294906F09FFD612396
:104EE0000122706222602B601846FEF7C5BC03F0F9
:104EF000C5FF00287EF790AE0548064E04F06EFB15
:104F000001226B23C6F8900022602B60FEF7D1BF10
:104F1000C487FF1F2C93FF1F2C0B01004C0B0100BB
:104F200000007A44FC0901006C0B0100900B0100A9
:104F3000AC0B0100B00B0100CC0B01006C87FF1F14
:104F4000500D0100700D0100900D0100080E0100D0
:104F5000140E01002C0E01004C0E0100000A01008D
:104F6000FC0A01000C0B0100280B0100EC0A0100F7
:104F7000DC0A0100CC0A0100AC0A0100BC0A0100F5
:104F80006F12833A03F07AFF00287EF745AE584847
:104F9000584E04F023FB584BC6F8A00002221A60BA
:104FA000FDF702FA01226B2322602B60FEF781BF1E
:104FB00003F064FF00287EF72FAE4D484D4E04F0FD
:104FC0000DFB4D4BC6F8A4000322E8E703F056FFA3
:104FD00000287EF721AE4648464E04F0FFFA012233
:104FE0006B23C6F8940022602B60FEF762BF1C2181
:104FF000424803F06DFFD7F88C00414906F00EFDE2
:1050000006F062F8009502460B46394804F0ACF908
:1050100005213C4803F05CFF354804F04BF9FD6F77
:10502000012D41D0032D7FF4C9AE1C21364803F079
:105030004FFFB6F8B6102E4804F08CF90321334820
:1050400003F046FF2A4804F035F9B7E6304B002656
:1050500031460B201E6002F04BFE31460C2002F060
:1050600047FE3146142002F043FE3146152002F07F
:105070003FFE3B68FFF732B82021264803F028FFA7
:105080001B4804F017F96FE61721234803F020FFAF
:10509000174804F00FF967E61E21204803F018FFB7
:1050A000134804F007F95FE61D211D4803F010FFC7
:1050B000D7F88800124906F0B1FC06F005F8009513
:1050C0000B4602460A4804F04FF905210D4803F04B
:1050D000FFFE074804F0EEF8FB6F23F00203012BFC
:1050E000A3D06BE6034EFEF7E4BE024EFFF7CAB84C
:1050F000C487FF1F2C93FF1F6C94FF1F6C0E0100D1
:10510000CDCCCC3D8C0E0100B40E0100D40E0100BC
:10511000B094FF1FCC0D0100F00D0100AC0D01009B
:10512000940E010038B5164C164A2368101D12F86B
:10513000011F904241EA0323F9D12360124C03F18D
:1051400000432360114BDB6F022B11D0104B1B6807
:10515000012B00D038BD0F4804F0ACF821680D4891
:1051600004F0F8F803210C48BDE8384003F0B0BE65
:1051700020680A4D06F0FEFB2860FDF7ADFBE5E771
:105180003C92FF1F7B92FF1F8094FF1F2C93FF1FF9
:105190005C94FF1FC487FF1F241201005C92FF1F55
:1051A00030B53F4C3F4883B0214601F0F3FA236805
:1051B00040F2C232934258D06FF4C0615A18B2F52F
:1051C000FF7F4CD903F100436FF4C0621344B3F581
:1051D000FF7F3FD9344B1B68012B01D003B030BD9A
:1051E000324B1B68012BF9D1314B32481B680193BC
:1051F0000A220023019904F06DF82268284B002A46
:10520000DB7945DB2C492D4807F0E6FB2B4807F0FE
:1052100017FC0146294803F05BFE2568204B15F07A
:10522000804526D1DB798BB1631925491A7A234849
:1052300007F0D2FB214807F003FC01461F4803F0AA
:1052400047FE0135E379EDB2AB42EDD8194804F0E1
:1052500031F8C3E712491B48FCF7BCF9BAE710491B
:105260001848FCF7B7F92368ACE7FFF75BFF236842
:10527000A2E7154D114C0FCD0FC495E8030044F87B
:10528000040B204620F81419152103F021FEDDE758
:105290000E490A4822F0604207F09EFBB6E700BFC5
:1052A0007492FF1F4CC1FF1F6C87FF1F5C94FF1F90
:1052B000F4C2FF1FC487FF1F501201008492FF1F1A
:1052C0007C120100C094FF1F64120100281201002B
:1052D0002DE9F84F7E4B7F4C1B78052B08D07E487C
:1052E000FCF7E2FAE16A06F037FD002800F0818061
:1052F0007A4E7B4D002333602B607A4B76481B68D7
:10530000744F012B33D0FCF789FAE169804660695C
:1053100006F07AFA0146404606F03CFD00283AD1F4
:105320006D48FCF77BFAE16806F034FD08B1002314
:105330002B606948674FFCF74BFA216906F00CFDBA
:1053400048B1002333602B68654A002BBCBF0023A3
:105350001360BDE8F88F6048FCF73AFAB96906F0C7
:10536000FBFC0028EDD13368002BEADBEBE7FCF710
:1053700055FAE1698046206A06F046FA0146404641
:1053800006F008FD0028CBD05348FCF747FAD7F8C1
:105390002090834605E05048FCF740FAD7F8149077
:1053A0008346F969484606F02FFA8246F86D06F002
:1053B000E1FA8046386E06F0DDFA414606F024FA3E
:1053C00051460746584606F01FFA0146384606F091
:1053D00025FB51460746484606F016FA0146384670
:1053E00006F0D0FB414606F011FA06F0F3FC286007
:1053F00096E73948FCF758FA216B06F0ADFC20B36C
:10540000364E636E34483360FCF74EFA8146E06DE9
:10541000E76A334D06F0AEFA39468046484606F054
:10542000F3F90146404606F0F9FA39468046206B0A
:1054300006F0EAF90146404606F0A4FB002106F01A
:10544000E5F906F0C7FC286057E72348FCF72CFA7B
:10545000616B06F081FC30B1204E214D626EE36D30
:1054600032602B6049E71C48FCF71EFAA16A06F07F
:1054700073FC00283FF43CAF1748184E184DFCF75A
:1054800013FA8146606ED4F8348006F073FA414610
:105490000746484606F0B8F939468146002006F02E
:1054A000B3F90146484606F0B9FA41468146A06A7A
:1054B00006F0AAF90146484606F064FB394606F0B4
:1054C000A5F906F087FCE36D30602B6015E700BF9F
:1054D0007894FF1F2C93FF1FC094FF1F8494FF1F1D
:1054E0004492FF1F6092FF1F08B5274803F0E2FEB9
:1054F0000721264803F0ECFC112002F0FFFB0621F7
:10550000F8B1234803F0E4FC122002F0F7FB062177
:1055100000B3204803F0DCFC122002F0EFFB062170
:1055200008B31D4803F0D4FC132002F0E7FB06216A
:1055300010BB1A4803F0CCFC1348BDE8084003F048
:10554000B9BE174803F0C4FC122002F0D7FB0621B5
:105550000028DED1134803F0BBFC122002F0CEFB82
:1055600006210028DDD1104803F0B2FC132002F020
:10557000C5FB06210028DCD00C4803F0A9FC02483A
:10558000BDE8084003F096BEC487FF1F88120100E3
:1055900090120100A0120100B0120100C812010017
:1055A00098120100A8120100B8120100C0120100F7
:1055B00010B5254C2368042B27DC01210B2002F0B9
:1055C00097FB01210C2002F093FB0121142002F033
:1055D0008FFB0121152002F08BFBFF21162002F02A
:1055E00007FAFF21172002F003FAFF21052002F03D
:1055F000FFF9FF21062002F0FBF9236801330A2B93
:105600002360C4BF0023236010BD00210B2002F0E3
:105610006FFB00210C2002F06BFB0021142002F034
:1056200067FB0021152002F063FB0021162002F029
:10563000DFF90021172002F0DBF90021052002F03C
:10564000D7F90021D6E700BF9894FF1F2DE9F0415C
:105650008C4DD5F8AC30042B3ED0032B71D0012BF0
:1056600000F09B80022B01D0BDE8F081864C87487A
:10567000237240F20E32012321462260E37101F0D1
:1056800091F9834B1B685B00FF2BC8BFFF230421EC
:1056900040224FF441702060E17122726372286DE4
:1056A00006F068F9696906F0B9F97A49054606F025
:1056B00071FB002800F0DD802946284606F0A6F898
:1056C00006F0AEFB80B20312E072A3726E496F481F
:1056D000BDE8F04101F066B96B4C6F4AA3792260D6
:1056E00043F001030822E271A371286D06F042F92C
:1056F000696906F093F9694906F090F906F090FBA4
:10570000634B674A1B68126893FBF2F380B2002672
:105710004FEA202E1F120122607221465B48E3727D
:10572000227384F808E0A7726673A673E67301F02B
:1057300039F9A279D5F8AC3066F30002032BA271D7
:105740008DD1514C286DA3720122E823072140F22C
:10575000FF26227263722660E17106F00BF9696917
:1057600006F05CF94D4906F059F906F059FB484B33
:105770004B4A1B68126893FBF2F382B21E12171297
:10578000214642486373E2722773A67301F00AF957
:10579000D5F8AC30012B7FF465AF424B3A4C1B6817
:1057A0002360072280231020E271237202F0A6FA00
:1057B000002865D13C4B1B68DFF8D480384F286D3A
:1057C000314E03EB83035B001A12A3726272D8F8A6
:1057D00000303A6893FBF2F31A126273A37306F077
:1057E000C9F8696906F01AF9304B196806F00CF827
:1057F0002A4906F013F906F013FB80B20312314672
:1058000020732248E37201F0CDF8022002F0ACFAD6
:10581000274B1B682360072280231020E27123722C
:1058200002F06CFA50BB204B1B68286D03EB83031E
:105830005B001A12B372727206F09CF8696906F086
:10584000EDF8164906F0EAF806F0EAFA82B2161206
:105850003868D8F80030227393FBF0F30A490B48FC
:10586000A3731A12E672627301F09CF8D5F8AC309B
:10587000F8E601229023A272E37227E70D4BD3E7EB
:105880000C4B98E72C93FF1FA094FF1F4CC1FF1FE8
:105890004492FF1F00004843F4E506180000204131
:1058A0004887FF1F6487FF1F4087FF1F5C87FF1F1C
:1058B0003087FF1F4487FF1F2DE9F04790B001E0BC
:1058C000FFF76EFCAC4800F02FFF0028F8D103F082
:1058D000D5FA002801DDFDF79DFFA84EA84D3368DD
:1058E000012B13D0FDF796FCD5F89C40012C00F05D
:1058F0006B81A44F3B78052B00F2A880DFE813F002
:10590000CC00A8001801F000350194009E4C2368DB
:105910009E4A0793079B11689B4F5B1AB3F5FA7F6A
:1059200030D823680C930C9B994A23680B930B9BEC
:105930001068D5F8B010944E914D1B1A8B420DD9BA
:1059400033680D93D5F89C300D991160012B00F050
:10595000B4818C4B1B78032B00F0AF8123688D4AF8
:105960000E938D490E9B10680968874C1B1A8B4259
:1059700005D923680F930F9B1360FDF7EDFE10B060
:10598000BDE8F0873B680893089B84481360FBF7E9
:105990005BFED5F89C30DFF8E8818048012B00F0F1
:1059A0009C81FBF715FFD8F8101006F0D5F90028F8
:1059B00000F0638123687A4A0993099B12689A422E
:1059C00002D9704B05221A70764B1B68002B40F0F1
:1059D0007E81754B1B68002B40F07581734B1B68F3
:1059E000002B40F06D813368002B00F06381FFF7DE
:1059F000DFFD6F4EFDF720FAFFF76AFCFDF7A4FD0F
:105A000033686648002B40F04B81FBF7BDFD3060EA
:105A1000FCF734FC72B6674B4AF202614BF28042EB
:105A200019801A8062B67CE7634B002212201A604C
:105A300002F064F9012808BF03234FF0110008BFEA
:105A40003B7002F05BF9002800F079814E4C3EE09B
:105A5000594B52484A4C00221A60FBF7DFFEA96CF2
:105A600006F098F9002840F05581544B00221A6046
:105A7000122002F043F9012800F02282112002F0E6
:105A80003DF90128404C22D122684D4B0692069ADE
:105A90001A6004233B701AE0474B3B4C4FF0000860
:105AA00041461520C3F8008002F022F94146142037
:105AB00002F01EF941460C2002F01AF941460B2073
:105AC00002F016F93F4A0123C2F800803B70EB6FE9
:105AD00023F00203012B7FF41AAFFCF7FDFE16E75B
